{
  "_format": "hh-sol-artifact-1",
  "contractName": "HelperStaff",
  "sourceName": "contracts/HelperStaff.sol",
  "abi": [
    {
      "inputs": [],
      "stateMutability": "nonpayable",
      "type": "constructor"
    },
    {
      "anonymous": false,
      "inputs": [
        {
          "indexed": true,
          "internalType": "address",
          "name": "owner",
          "type": "address"
        },
        {
          "indexed": true,
          "internalType": "address",
          "name": "approved",
          "type": "address"
        },
        {
          "indexed": true,
          "internalType": "uint256",
          "name": "tokenId",
          "type": "uint256"
        }
      ],
      "name": "Approval",
      "type": "event"
    },
    {
      "anonymous": false,
      "inputs": [
        {
          "indexed": true,
          "internalType": "address",
          "name": "owner",
          "type": "address"
        },
        {
          "indexed": true,
          "internalType": "address",
          "name": "operator",
          "type": "address"
        },
        {
          "indexed": false,
          "internalType": "bool",
          "name": "approved",
          "type": "bool"
        }
      ],
      "name": "ApprovalForAll",
      "type": "event"
    },
    {
      "anonymous": false,
      "inputs": [
        {
          "indexed": true,
          "internalType": "address",
          "name": "previousOwner",
          "type": "address"
        },
        {
          "indexed": true,
          "internalType": "address",
          "name": "newOwner",
          "type": "address"
        }
      ],
      "name": "OwnershipTransferred",
      "type": "event"
    },
    {
      "anonymous": false,
      "inputs": [
        {
          "indexed": false,
          "internalType": "address",
          "name": "account",
          "type": "address"
        }
      ],
      "name": "Paused",
      "type": "event"
    },
    {
      "anonymous": false,
      "inputs": [
        {
          "indexed": true,
          "internalType": "address",
          "name": "from",
          "type": "address"
        },
        {
          "indexed": true,
          "internalType": "address",
          "name": "to",
          "type": "address"
        },
        {
          "indexed": true,
          "internalType": "uint256",
          "name": "tokenId",
          "type": "uint256"
        }
      ],
      "name": "Transfer",
      "type": "event"
    },
    {
      "anonymous": false,
      "inputs": [
        {
          "indexed": false,
          "internalType": "address",
          "name": "account",
          "type": "address"
        }
      ],
      "name": "Unpaused",
      "type": "event"
    },
    {
      "inputs": [
        {
          "internalType": "address",
          "name": "to",
          "type": "address"
        },
        {
          "internalType": "uint256",
          "name": "tokenId",
          "type": "uint256"
        }
      ],
      "name": "approve",
      "outputs": [],
      "stateMutability": "nonpayable",
      "type": "function"
    },
    {
      "inputs": [
        {
          "internalType": "address",
          "name": "owner",
          "type": "address"
        }
      ],
      "name": "balanceOf",
      "outputs": [
        {
          "internalType": "uint256",
          "name": "",
          "type": "uint256"
        }
      ],
      "stateMutability": "view",
      "type": "function"
    },
    {
      "inputs": [
        {
          "internalType": "uint256",
          "name": "tokenId",
          "type": "uint256"
        }
      ],
      "name": "getApproved",
      "outputs": [
        {
          "internalType": "address",
          "name": "",
          "type": "address"
        }
      ],
      "stateMutability": "view",
      "type": "function"
    },
    {
      "inputs": [
        {
          "internalType": "address",
          "name": "owner",
          "type": "address"
        },
        {
          "internalType": "address",
          "name": "operator",
          "type": "address"
        }
      ],
      "name": "isApprovedForAll",
      "outputs": [
        {
          "internalType": "bool",
          "name": "",
          "type": "bool"
        }
      ],
      "stateMutability": "view",
      "type": "function"
    },
    {
      "inputs": [
        {
          "internalType": "address",
          "name": "to",
          "type": "address"
        }
      ],
      "name": "mintNFT",
      "outputs": [
        {
          "internalType": "uint256",
          "name": "",
          "type": "uint256"
        }
      ],
      "stateMutability": "nonpayable",
      "type": "function"
    },
    {
      "inputs": [],
      "name": "name",
      "outputs": [
        {
          "internalType": "string",
          "name": "",
          "type": "string"
        }
      ],
      "stateMutability": "view",
      "type": "function"
    },
    {
      "inputs": [],
      "name": "owner",
      "outputs": [
        {
          "internalType": "address",
          "name": "",
          "type": "address"
        }
      ],
      "stateMutability": "view",
      "type": "function"
    },
    {
      "inputs": [
        {
          "internalType": "uint256",
          "name": "tokenId",
          "type": "uint256"
        }
      ],
      "name": "ownerOf",
      "outputs": [
        {
          "internalType": "address",
          "name": "",
          "type": "address"
        }
      ],
      "stateMutability": "view",
      "type": "function"
    },
    {
      "inputs": [],
      "name": "pause",
      "outputs": [],
      "stateMutability": "nonpayable",
      "type": "function"
    },
    {
      "inputs": [],
      "name": "paused",
      "outputs": [
        {
          "internalType": "bool",
          "name": "",
          "type": "bool"
        }
      ],
      "stateMutability": "view",
      "type": "function"
    },
    {
      "inputs": [],
      "name": "renounceOwnership",
      "outputs": [],
      "stateMutability": "nonpayable",
      "type": "function"
    },
    {
      "inputs": [
        {
          "internalType": "address",
          "name": "from",
          "type": "address"
        },
        {
          "internalType": "address",
          "name": "to",
          "type": "address"
        },
        {
          "internalType": "uint256",
          "name": "tokenId",
          "type": "uint256"
        }
      ],
      "name": "safeTransferFrom",
      "outputs": [],
      "stateMutability": "nonpayable",
      "type": "function"
    },
    {
      "inputs": [
        {
          "internalType": "address",
          "name": "from",
          "type": "address"
        },
        {
          "internalType": "address",
          "name": "to",
          "type": "address"
        },
        {
          "internalType": "uint256",
          "name": "tokenId",
          "type": "uint256"
        },
        {
          "internalType": "bytes",
          "name": "data",
          "type": "bytes"
        }
      ],
      "name": "safeTransferFrom",
      "outputs": [],
      "stateMutability": "nonpayable",
      "type": "function"
    },
    {
      "inputs": [
        {
          "internalType": "address",
          "name": "operator",
          "type": "address"
        },
        {
          "internalType": "bool",
          "name": "approved",
          "type": "bool"
        }
      ],
      "name": "setApprovalForAll",
      "outputs": [],
      "stateMutability": "nonpayable",
      "type": "function"
    },
    {
      "inputs": [
        {
          "internalType": "bytes4",
          "name": "interfaceId",
          "type": "bytes4"
        }
      ],
      "name": "supportsInterface",
      "outputs": [
        {
          "internalType": "bool",
          "name": "",
          "type": "bool"
        }
      ],
      "stateMutability": "view",
      "type": "function"
    },
    {
      "inputs": [],
      "name": "symbol",
      "outputs": [
        {
          "internalType": "string",
          "name": "",
          "type": "string"
        }
      ],
      "stateMutability": "view",
      "type": "function"
    },
    {
      "inputs": [],
      "name": "tokenId",
      "outputs": [
        {
          "internalType": "uint256",
          "name": "",
          "type": "uint256"
        }
      ],
      "stateMutability": "view",
      "type": "function"
    },
    {
      "inputs": [
        {
          "internalType": "uint256",
          "name": "_tokenId",
          "type": "uint256"
        }
      ],
      "name": "tokenURI",
      "outputs": [
        {
          "internalType": "string",
          "name": "",
          "type": "string"
        }
      ],
      "stateMutability": "view",
      "type": "function"
    },
    {
      "inputs": [
        {
          "internalType": "address",
          "name": "from",
          "type": "address"
        },
        {
          "internalType": "address",
          "name": "to",
          "type": "address"
        },
        {
          "internalType": "uint256",
          "name": "tokenId",
          "type": "uint256"
        }
      ],
      "name": "transferFrom",
      "outputs": [],
      "stateMutability": "nonpayable",
      "type": "function"
    },
    {
      "inputs": [
        {
          "internalType": "address",
          "name": "newOwner",
          "type": "address"
        }
      ],
      "name": "transferOwnership",
      "outputs": [],
      "stateMutability": "nonpayable",
      "type": "function"
    },
    {
      "inputs": [],
      "name": "unpause",
      "outputs": [],
      "stateMutability": "nonpayable",
      "type": "function"
    }
  ],
  "bytecode": "0x60806040523480156200001157600080fd5b506040518060400160405280600c81526020017f506572736f6e496e4e65656400000000000000000000000000000000000000008152506040518060400160405280600381526020017f50494e000000000000000000000000000000000000000000000000000000000081525081600090816200008f91906200042d565b508060019081620000a191906200042d565b505050620000c4620000b8620000e560201b60201c565b620000ed60201b60201c565b6000600760146101000a81548160ff02191690831515021790555062000514565b600033905090565b6000600760009054906101000a900473ffffffffffffffffffffffffffffffffffffffff16905081600760006101000a81548173ffffffffffffffffffffffffffffffffffffffff021916908373ffffffffffffffffffffffffffffffffffffffff1602179055508173ffffffffffffffffffffffffffffffffffffffff168173ffffffffffffffffffffffffffffffffffffffff167f8be0079c531659141344cd1fd0a4f28419497f9722a3daafe3b4186f6b6457e060405160405180910390a35050565b600081519050919050565b7f4e487b7100000000000000000000000000000000000000000000000000000000600052604160045260246000fd5b7f4e487b7100000000000000000000000000000000000000000000000000000000600052602260045260246000fd5b600060028204905060018216806200023557607f821691505b6020821081036200024b576200024a620001ed565b5b50919050565b60008190508160005260206000209050919050565b60006020601f8301049050919050565b600082821b905092915050565b600060088302620002b57fffffffffffffffffffffffffffffffffffffffffffffffffffffffffffffffff8262000276565b620002c1868362000276565b95508019841693508086168417925050509392505050565b6000819050919050565b6000819050919050565b60006200030e620003086200030284620002d9565b620002e3565b620002d9565b9050919050565b6000819050919050565b6200032a83620002ed565b62000342620003398262000315565b84845462000283565b825550505050565b600090565b620003596200034a565b620003668184846200031f565b505050565b5b818110156200038e57620003826000826200034f565b6001810190506200036c565b5050565b601f821115620003dd57620003a78162000251565b620003b28462000266565b81016020851015620003c2578190505b620003da620003d18562000266565b8301826200036b565b50505b505050565b600082821c905092915050565b60006200040260001984600802620003e2565b1980831691505092915050565b60006200041d8383620003ef565b9150826002028217905092915050565b6200043882620001b3565b67ffffffffffffffff811115620004545762000453620001be565b5b6200046082546200021c565b6200046d82828562000392565b600060209050601f831160018114620004a5576000841562000490578287015190505b6200049c85826200040f565b8655506200050c565b601f198416620004b58662000251565b60005b82811015620004df57848901518255600182019150602085019450602081019050620004b8565b86831015620004ff5784890151620004fb601f891682620003ef565b8355505b6001600288020188555050505b505050505050565b612df480620005246000396000f3fe608060405234801561001057600080fd5b50600436106101375760003560e01c80636352211e116100b857806395d89b411161007c57806395d89b4114610316578063a22cb46514610334578063b88d4fde14610350578063c87b56dd1461036c578063e985e9c51461039c578063f2fde38b146103cc57610137565b80636352211e1461028457806370a08231146102b4578063715018a6146102e45780638456cb59146102ee5780638da5cb5b146102f857610137565b806323b872dd116100ff57806323b872dd146101f45780633f4ba83a1461021057806342842e0e1461021a57806354ba0f27146102365780635c975abb1461026657610137565b806301ffc9a71461013c57806306fdde031461016c578063081812fc1461018a578063095ea7b3146101ba57806317d70f7c146101d6575b600080fd5b61015660048036038101906101519190611d96565b6103e8565b6040516101639190611dde565b60405180910390f35b6101746104ca565b6040516101819190611e89565b60405180910390f35b6101a4600480360381019061019f9190611ee1565b61055c565b6040516101b19190611f4f565b60405180910390f35b6101d460048036038101906101cf9190611f96565b6105a2565b005b6101de6106b9565b6040516101eb9190611fe5565b60405180910390f35b61020e60048036038101906102099190612000565b6106bf565b005b61021861071f565b005b610234600480360381019061022f9190612000565b610731565b005b610250600480360381019061024b9190612053565b610751565b60405161025d9190611fe5565b60405180910390f35b61026e610793565b60405161027b9190611dde565b60405180910390f35b61029e60048036038101906102999190611ee1565b6107aa565b6040516102ab9190611f4f565b60405180910390f35b6102ce60048036038101906102c99190612053565b610830565b6040516102db9190611fe5565b60405180910390f35b6102ec6108e7565b005b6102f66108fb565b005b61030061090d565b60405161030d9190611f4f565b60405180910390f35b61031e610937565b60405161032b9190611e89565b60405180910390f35b61034e600480360381019061034991906120ac565b6109c9565b005b61036a60048036038101906103659190612221565b6109df565b005b61038660048036038101906103819190611ee1565b610a41565b6040516103939190611e89565b60405180910390f35b6103b660048036038101906103b191906122a4565b610a7b565b6040516103c39190611dde565b60405180910390f35b6103e660048036038101906103e19190612053565b610b0f565b005b60007f80ac58cd000000000000000000000000000000000000000000000000000000007bffffffffffffffffffffffffffffffffffffffffffffffffffffffff1916827bffffffffffffffffffffffffffffffffffffffffffffffffffffffff191614806104b357507f5b5e139f000000000000000000000000000000000000000000000000000000007bffffffffffffffffffffffffffffffffffffffffffffffffffffffff1916827bffffffffffffffffffffffffffffffffffffffffffffffffffffffff1916145b806104c357506104c282610b92565b5b9050919050565b6060600080546104d990612313565b80601f016020809104026020016040519081016040528092919081815260200182805461050590612313565b80156105525780601f1061052757610100808354040283529160200191610552565b820191906000526020600020905b81548152906001019060200180831161053557829003601f168201915b5050505050905090565b600061056782610bfc565b6004600083815260200190815260200160002060009054906101000a900473ffffffffffffffffffffffffffffffffffffffff169050919050565b60006105ad826107aa565b90508073ffffffffffffffffffffffffffffffffffffffff168373ffffffffffffffffffffffffffffffffffffffff160361061d576040517f08c379a0000000000000000000000000000000000000000000000000000000008152600401610614906123b6565b60405180910390fd5b8073ffffffffffffffffffffffffffffffffffffffff1661063c610c47565b73ffffffffffffffffffffffffffffffffffffffff16148061066b575061066a81610665610c47565b610a7b565b5b6106aa576040517f08c379a00000000000000000000000000000000000000000000000000000000081526004016106a190612448565b60405180910390fd5b6106b48383610c4f565b505050565b60085481565b6106d06106ca610c47565b82610d08565b61070f576040517f08c379a0000000000000000000000000000000000000000000000000000000008152600401610706906124da565b60405180910390fd5b61071a838383610d9d565b505050565b610727611096565b61072f611114565b565b61074c838383604051806020016040528060008152506109df565b505050565b600061075b611096565b610763611177565b61076d60096111c1565b61077760096111d7565b600881905550610789826008546111e5565b6008549050919050565b6000600760149054906101000a900460ff16905090565b6000806107b683611203565b9050600073ffffffffffffffffffffffffffffffffffffffff168173ffffffffffffffffffffffffffffffffffffffff1603610827576040517f08c379a000000000000000000000000000000000000000000000000000000000815260040161081e90612546565b60405180910390fd5b80915050919050565b60008073ffffffffffffffffffffffffffffffffffffffff168273ffffffffffffffffffffffffffffffffffffffff16036108a0576040517f08c379a0000000000000000000000000000000000000000000000000000000008152600401610897906125d8565b60405180910390fd5b600360008373ffffffffffffffffffffffffffffffffffffffff1673ffffffffffffffffffffffffffffffffffffffff168152602001908152602001600020549050919050565b6108ef611096565b6108f96000611240565b565b610903611096565b61090b611306565b565b6000600760009054906101000a900473ffffffffffffffffffffffffffffffffffffffff16905090565b60606001805461094690612313565b80601f016020809104026020016040519081016040528092919081815260200182805461097290612313565b80156109bf5780601f10610994576101008083540402835291602001916109bf565b820191906000526020600020905b8154815290600101906020018083116109a257829003601f168201915b5050505050905090565b6109db6109d4610c47565b8383611369565b5050565b6109f06109ea610c47565b83610d08565b610a2f576040517f08c379a0000000000000000000000000000000000000000000000000000000008152600401610a26906124da565b60405180910390fd5b610a3b848484846114d5565b50505050565b6060610a4c82610bfc565b610a5582611531565b604051602001610a659190612718565b6040516020818303038152906040529050919050565b6000600560008473ffffffffffffffffffffffffffffffffffffffff1673ffffffffffffffffffffffffffffffffffffffff16815260200190815260200160002060008373ffffffffffffffffffffffffffffffffffffffff1673ffffffffffffffffffffffffffffffffffffffff16815260200190815260200160002060009054906101000a900460ff16905092915050565b610b17611096565b600073ffffffffffffffffffffffffffffffffffffffff168173ffffffffffffffffffffffffffffffffffffffff1603610b86576040517f08c379a0000000000000000000000000000000000000000000000000000000008152600401610b7d906127b7565b60405180910390fd5b610b8f81611240565b50565b60007f01ffc9a7000000000000000000000000000000000000000000000000000000007bffffffffffffffffffffffffffffffffffffffffffffffffffffffff1916827bffffffffffffffffffffffffffffffffffffffffffffffffffffffff1916149050919050565b610c05816115ff565b610c44576040517f08c379a0000000000000000000000000000000000000000000000000000000008152600401610c3b90612546565b60405180910390fd5b50565b600033905090565b816004600083815260200190815260200160002060006101000a81548173ffffffffffffffffffffffffffffffffffffffff021916908373ffffffffffffffffffffffffffffffffffffffff160217905550808273ffffffffffffffffffffffffffffffffffffffff16610cc2836107aa565b73ffffffffffffffffffffffffffffffffffffffff167f8c5be1e5ebec7d5bd14f71427d1e84f3dd0314c0f7b2291e5b200ac8c7c3b92560405160405180910390a45050565b600080610d14836107aa565b90508073ffffffffffffffffffffffffffffffffffffffff168473ffffffffffffffffffffffffffffffffffffffff161480610d565750610d558185610a7b565b5b80610d9457508373ffffffffffffffffffffffffffffffffffffffff16610d7c8461055c565b73ffffffffffffffffffffffffffffffffffffffff16145b91505092915050565b8273ffffffffffffffffffffffffffffffffffffffff16610dbd826107aa565b73ffffffffffffffffffffffffffffffffffffffff1614610e13576040517f08c379a0000000000000000000000000000000000000000000000000000000008152600401610e0a90612849565b60405180910390fd5b600073ffffffffffffffffffffffffffffffffffffffff168273ffffffffffffffffffffffffffffffffffffffff1603610e82576040517f08c379a0000000000000000000000000000000000000000000000000000000008152600401610e79906128db565b60405180910390fd5b610e8f8383836001611640565b8273ffffffffffffffffffffffffffffffffffffffff16610eaf826107aa565b73ffffffffffffffffffffffffffffffffffffffff1614610f05576040517f08c379a0000000000000000000000000000000000000000000000000000000008152600401610efc90612849565b60405180910390fd5b6004600082815260200190815260200160002060006101000a81549073ffffffffffffffffffffffffffffffffffffffff02191690556001600360008573ffffffffffffffffffffffffffffffffffffffff1673ffffffffffffffffffffffffffffffffffffffff168152602001908152602001600020600082825403925050819055506001600360008473ffffffffffffffffffffffffffffffffffffffff1673ffffffffffffffffffffffffffffffffffffffff16815260200190815260200160002060008282540192505081905550816002600083815260200190815260200160002060006101000a81548173ffffffffffffffffffffffffffffffffffffffff021916908373ffffffffffffffffffffffffffffffffffffffff160217905550808273ffffffffffffffffffffffffffffffffffffffff168473ffffffffffffffffffffffffffffffffffffffff167fddf252ad1be2c89b69c2b068fc378daa952ba7f163c4a11628f55a4df523b3ef60405160405180910390a46110918383836001611766565b505050565b61109e610c47565b73ffffffffffffffffffffffffffffffffffffffff166110bc61090d565b73ffffffffffffffffffffffffffffffffffffffff1614611112576040517f08c379a000000000000000000000000000000000000000000000000000000000815260040161110990612947565b60405180910390fd5b565b61111c61176c565b6000600760146101000a81548160ff0219169083151502179055507f5db9ee0a495bf2e6ff9c91a7834c1ba4fdd244a5e8aa4e537bd38aeae4b073aa611160610c47565b60405161116d9190611f4f565b60405180910390a1565b61117f610793565b156111bf576040517f08c379a00000000000000000000000000000000000000000000000000000000081526004016111b6906129b3565b60405180910390fd5b565b6001816000016000828254019250508190555050565b600081600001549050919050565b6111ff8282604051806020016040528060008152506117b5565b5050565b60006002600083815260200190815260200160002060009054906101000a900473ffffffffffffffffffffffffffffffffffffffff169050919050565b6000600760009054906101000a900473ffffffffffffffffffffffffffffffffffffffff16905081600760006101000a81548173ffffffffffffffffffffffffffffffffffffffff021916908373ffffffffffffffffffffffffffffffffffffffff1602179055508173ffffffffffffffffffffffffffffffffffffffff168173ffffffffffffffffffffffffffffffffffffffff167f8be0079c531659141344cd1fd0a4f28419497f9722a3daafe3b4186f6b6457e060405160405180910390a35050565b61130e611177565b6001600760146101000a81548160ff0219169083151502179055507f62e78cea01bee320cd4e420270b5ea74000d11b0c9f74754ebdbfc544b05a258611352610c47565b60405161135f9190611f4f565b60405180910390a1565b8173ffffffffffffffffffffffffffffffffffffffff168373ffffffffffffffffffffffffffffffffffffffff16036113d7576040517f08c379a00000000000000000000000000000000000000000000000000000000081526004016113ce90612a1f565b60405180910390fd5b80600560008573ffffffffffffffffffffffffffffffffffffffff1673ffffffffffffffffffffffffffffffffffffffff16815260200190815260200160002060008473ffffffffffffffffffffffffffffffffffffffff1673ffffffffffffffffffffffffffffffffffffffff16815260200190815260200160002060006101000a81548160ff0219169083151502179055508173ffffffffffffffffffffffffffffffffffffffff168373ffffffffffffffffffffffffffffffffffffffff167f17307eab39ab6107e8899845ad3d59bd9653f200f220920489ca2b5937696c31836040516114c89190611dde565b60405180910390a3505050565b6114e0848484610d9d565b6114ec84848484611810565b61152b576040517f08c379a000000000000000000000000000000000000000000000000000000000815260040161152290612ab1565b60405180910390fd5b50505050565b60606000600161154084611997565b01905060008167ffffffffffffffff81111561155f5761155e6120f6565b5b6040519080825280601f01601f1916602001820160405280156115915781602001600182028036833780820191505090505b509050600082602001820190505b6001156115f4578080600190039150507f3031323334353637383961626364656600000000000000000000000000000000600a86061a8153600a85816115e8576115e7612ad1565b5b0494506000850361159f575b819350505050919050565b60008073ffffffffffffffffffffffffffffffffffffffff1661162183611203565b73ffffffffffffffffffffffffffffffffffffffff1614159050919050565b600181111561176057600073ffffffffffffffffffffffffffffffffffffffff168473ffffffffffffffffffffffffffffffffffffffff16146116d45780600360008673ffffffffffffffffffffffffffffffffffffffff1673ffffffffffffffffffffffffffffffffffffffff16815260200190815260200160002060008282546116cc9190612b2f565b925050819055505b600073ffffffffffffffffffffffffffffffffffffffff168373ffffffffffffffffffffffffffffffffffffffff161461175f5780600360008573ffffffffffffffffffffffffffffffffffffffff1673ffffffffffffffffffffffffffffffffffffffff16815260200190815260200160002060008282546117579190612b63565b925050819055505b5b50505050565b50505050565b611774610793565b6117b3576040517f08c379a00000000000000000000000000000000000000000000000000000000081526004016117aa90612be3565b60405180910390fd5b565b6117bf8383611aea565b6117cc6000848484611810565b61180b576040517f08c379a000000000000000000000000000000000000000000000000000000000815260040161180290612ab1565b60405180910390fd5b505050565b60006118318473ffffffffffffffffffffffffffffffffffffffff16611d07565b1561198a578373ffffffffffffffffffffffffffffffffffffffff1663150b7a0261185a610c47565b8786866040518563ffffffff1660e01b815260040161187c9493929190612c58565b6020604051808303816000875af19250505080156118b857506040513d601f19601f820116820180604052508101906118b59190612cb9565b60015b61193a573d80600081146118e8576040519150601f19603f3d011682016040523d82523d6000602084013e6118ed565b606091505b506000815103611932576040517f08c379a000000000000000000000000000000000000000000000000000000000815260040161192990612ab1565b60405180910390fd5b805181602001fd5b63150b7a0260e01b7bffffffffffffffffffffffffffffffffffffffffffffffffffffffff1916817bffffffffffffffffffffffffffffffffffffffffffffffffffffffff19161491505061198f565b600190505b949350505050565b600080600090507a184f03e93ff9f4daa797ed6e38ed64bf6a1f01000000000000000083106119f5577a184f03e93ff9f4daa797ed6e38ed64bf6a1f01000000000000000083816119eb576119ea612ad1565b5b0492506040810190505b6d04ee2d6d415b85acef81000000008310611a32576d04ee2d6d415b85acef81000000008381611a2857611a27612ad1565b5b0492506020810190505b662386f26fc100008310611a6157662386f26fc100008381611a5757611a56612ad1565b5b0492506010810190505b6305f5e1008310611a8a576305f5e1008381611a8057611a7f612ad1565b5b0492506008810190505b6127108310611aaf576127108381611aa557611aa4612ad1565b5b0492506004810190505b60648310611ad25760648381611ac857611ac7612ad1565b5b0492506002810190505b600a8310611ae1576001810190505b80915050919050565b600073ffffffffffffffffffffffffffffffffffffffff168273ffffffffffffffffffffffffffffffffffffffff1603611b59576040517f08c379a0000000000000000000000000000000000000000000000000000000008152600401611b5090612d32565b60405180910390fd5b611b62816115ff565b15611ba2576040517f08c379a0000000000000000000000000000000000000000000000000000000008152600401611b9990612d9e565b60405180910390fd5b611bb0600083836001611640565b611bb9816115ff565b15611bf9576040517f08c379a0000000000000000000000000000000000000000000000000000000008152600401611bf090612d9e565b60405180910390fd5b6001600360008473ffffffffffffffffffffffffffffffffffffffff1673ffffffffffffffffffffffffffffffffffffffff16815260200190815260200160002060008282540192505081905550816002600083815260200190815260200160002060006101000a81548173ffffffffffffffffffffffffffffffffffffffff021916908373ffffffffffffffffffffffffffffffffffffffff160217905550808273ffffffffffffffffffffffffffffffffffffffff16600073ffffffffffffffffffffffffffffffffffffffff167fddf252ad1be2c89b69c2b068fc378daa952ba7f163c4a11628f55a4df523b3ef60405160405180910390a4611d03600083836001611766565b5050565b6000808273ffffffffffffffffffffffffffffffffffffffff163b119050919050565b6000604051905090565b600080fd5b600080fd5b60007fffffffff0000000000000000000000000000000000000000000000000000000082169050919050565b611d7381611d3e565b8114611d7e57600080fd5b50565b600081359050611d9081611d6a565b92915050565b600060208284031215611dac57611dab611d34565b5b6000611dba84828501611d81565b91505092915050565b60008115159050919050565b611dd881611dc3565b82525050565b6000602082019050611df36000830184611dcf565b92915050565b600081519050919050565b600082825260208201905092915050565b60005b83811015611e33578082015181840152602081019050611e18565b60008484015250505050565b6000601f19601f8301169050919050565b6000611e5b82611df9565b611e658185611e04565b9350611e75818560208601611e15565b611e7e81611e3f565b840191505092915050565b60006020820190508181036000830152611ea38184611e50565b905092915050565b6000819050919050565b611ebe81611eab565b8114611ec957600080fd5b50565b600081359050611edb81611eb5565b92915050565b600060208284031215611ef757611ef6611d34565b5b6000611f0584828501611ecc565b91505092915050565b600073ffffffffffffffffffffffffffffffffffffffff82169050919050565b6000611f3982611f0e565b9050919050565b611f4981611f2e565b82525050565b6000602082019050611f646000830184611f40565b92915050565b611f7381611f2e565b8114611f7e57600080fd5b50565b600081359050611f9081611f6a565b92915050565b60008060408385031215611fad57611fac611d34565b5b6000611fbb85828601611f81565b9250506020611fcc85828601611ecc565b9150509250929050565b611fdf81611eab565b82525050565b6000602082019050611ffa6000830184611fd6565b92915050565b60008060006060848603121561201957612018611d34565b5b600061202786828701611f81565b935050602061203886828701611f81565b925050604061204986828701611ecc565b9150509250925092565b60006020828403121561206957612068611d34565b5b600061207784828501611f81565b91505092915050565b61208981611dc3565b811461209457600080fd5b50565b6000813590506120a681612080565b92915050565b600080604083850312156120c3576120c2611d34565b5b60006120d185828601611f81565b92505060206120e285828601612097565b9150509250929050565b600080fd5b600080fd5b7f4e487b7100000000000000000000000000000000000000000000000000000000600052604160045260246000fd5b61212e82611e3f565b810181811067ffffffffffffffff8211171561214d5761214c6120f6565b5b80604052505050565b6000612160611d2a565b905061216c8282612125565b919050565b600067ffffffffffffffff82111561218c5761218b6120f6565b5b61219582611e3f565b9050602081019050919050565b82818337600083830152505050565b60006121c46121bf84612171565b612156565b9050828152602081018484840111156121e0576121df6120f1565b5b6121eb8482856121a2565b509392505050565b600082601f830112612208576122076120ec565b5b81356122188482602086016121b1565b91505092915050565b6000806000806080858703121561223b5761223a611d34565b5b600061224987828801611f81565b945050602061225a87828801611f81565b935050604061226b87828801611ecc565b925050606085013567ffffffffffffffff81111561228c5761228b611d39565b5b612298878288016121f3565b91505092959194509250565b600080604083850312156122bb576122ba611d34565b5b60006122c985828601611f81565b92505060206122da85828601611f81565b9150509250929050565b7f4e487b7100000000000000000000000000000000000000000000000000000000600052602260045260246000fd5b6000600282049050600182168061232b57607f821691505b60208210810361233e5761233d6122e4565b5b50919050565b7f4552433732313a20617070726f76616c20746f2063757272656e74206f776e6560008201527f7200000000000000000000000000000000000000000000000000000000000000602082015250565b60006123a0602183611e04565b91506123ab82612344565b604082019050919050565b600060208201905081810360008301526123cf81612393565b9050919050565b7f4552433732313a20617070726f76652063616c6c6572206973206e6f7420746f60008201527f6b656e206f776e6572206f7220617070726f76656420666f7220616c6c000000602082015250565b6000612432603d83611e04565b915061243d826123d6565b604082019050919050565b6000602082019050818103600083015261246181612425565b9050919050565b7f4552433732313a2063616c6c6572206973206e6f7420746f6b656e206f776e6560008201527f72206f7220617070726f76656400000000000000000000000000000000000000602082015250565b60006124c4602d83611e04565b91506124cf82612468565b604082019050919050565b600060208201905081810360008301526124f3816124b7565b9050919050565b7f4552433732313a20696e76616c696420746f6b656e2049440000000000000000600082015250565b6000612530601883611e04565b915061253b826124fa565b602082019050919050565b6000602082019050818103600083015261255f81612523565b9050919050565b7f4552433732313a2061646472657373207a65726f206973206e6f74206120766160008201527f6c6964206f776e65720000000000000000000000000000000000000000000000602082015250565b60006125c2602983611e04565b91506125cd82612566565b604082019050919050565b600060208201905081810360008301526125f1816125b5565b9050919050565b600081905092915050565b7f68747470733a2f2f697066732e696f2f697066732f516d62517a694e7538664c60008201527f386656636d4e76586d54504848514d7753673967537a316151426e38515a765360208201527f54476a2f00000000000000000000000000000000000000000000000000000000604082015250565b60006126856044836125f8565b915061269082612603565b604482019050919050565b60006126a682611df9565b6126b081856125f8565b93506126c0818560208601611e15565b80840191505092915050565b7f2e6a736f6e000000000000000000000000000000000000000000000000000000600082015250565b60006127026005836125f8565b915061270d826126cc565b600582019050919050565b600061272382612678565b915061272f828461269b565b915061273a826126f5565b915081905092915050565b7f4f776e61626c653a206e6577206f776e657220697320746865207a65726f206160008201527f6464726573730000000000000000000000000000000000000000000000000000602082015250565b60006127a1602683611e04565b91506127ac82612745565b604082019050919050565b600060208201905081810360008301526127d081612794565b9050919050565b7f4552433732313a207472616e736665722066726f6d20696e636f72726563742060008201527f6f776e6572000000000000000000000000000000000000000000000000000000602082015250565b6000612833602583611e04565b915061283e826127d7565b604082019050919050565b6000602082019050818103600083015261286281612826565b9050919050565b7f4552433732313a207472616e7366657220746f20746865207a65726f2061646460008201527f7265737300000000000000000000000000000000000000000000000000000000602082015250565b60006128c5602483611e04565b91506128d082612869565b604082019050919050565b600060208201905081810360008301526128f4816128b8565b9050919050565b7f4f776e61626c653a2063616c6c6572206973206e6f7420746865206f776e6572600082015250565b6000612931602083611e04565b915061293c826128fb565b602082019050919050565b6000602082019050818103600083015261296081612924565b9050919050565b7f5061757361626c653a2070617573656400000000000000000000000000000000600082015250565b600061299d601083611e04565b91506129a882612967565b602082019050919050565b600060208201905081810360008301526129cc81612990565b9050919050565b7f4552433732313a20617070726f766520746f2063616c6c657200000000000000600082015250565b6000612a09601983611e04565b9150612a14826129d3565b602082019050919050565b60006020820190508181036000830152612a38816129fc565b9050919050565b7f4552433732313a207472616e7366657220746f206e6f6e20455243373231526560008201527f63656976657220696d706c656d656e7465720000000000000000000000000000602082015250565b6000612a9b603283611e04565b9150612aa682612a3f565b604082019050919050565b60006020820190508181036000830152612aca81612a8e565b9050919050565b7f4e487b7100000000000000000000000000000000000000000000000000000000600052601260045260246000fd5b7f4e487b7100000000000000000000000000000000000000000000000000000000600052601160045260246000fd5b6000612b3a82611eab565b9150612b4583611eab565b9250828203905081811115612b5d57612b5c612b00565b5b92915050565b6000612b6e82611eab565b9150612b7983611eab565b9250828201905080821115612b9157612b90612b00565b5b92915050565b7f5061757361626c653a206e6f7420706175736564000000000000000000000000600082015250565b6000612bcd601483611e04565b9150612bd882612b97565b602082019050919050565b60006020820190508181036000830152612bfc81612bc0565b9050919050565b600081519050919050565b600082825260208201905092915050565b6000612c2a82612c03565b612c348185612c0e565b9350612c44818560208601611e15565b612c4d81611e3f565b840191505092915050565b6000608082019050612c6d6000830187611f40565b612c7a6020830186611f40565b612c876040830185611fd6565b8181036060830152612c998184612c1f565b905095945050505050565b600081519050612cb381611d6a565b92915050565b600060208284031215612ccf57612cce611d34565b5b6000612cdd84828501612ca4565b91505092915050565b7f4552433732313a206d696e7420746f20746865207a65726f2061646472657373600082015250565b6000612d1c602083611e04565b9150612d2782612ce6565b602082019050919050565b60006020820190508181036000830152612d4b81612d0f565b9050919050565b7f4552433732313a20746f6b656e20616c7265616479206d696e74656400000000600082015250565b6000612d88601c83611e04565b9150612d9382612d52565b602082019050919050565b60006020820190508181036000830152612db781612d7b565b905091905056fea26469706673582212205b1cb3757ccbef28a4570b5ca451b93460db303e858837287bb450cf61477bf264736f6c63430008110033",
  "linkReferences": {},
  "deployedLinkReferences": {}
}