{
  "_format": "hh-sol-artifact-1",
  "contractName": "HelperStaff",
  "sourceName": "contracts/HelperStaff.sol",
  "abi": [
    {
      "inputs": [],
      "stateMutability": "nonpayable",
      "type": "constructor"
    },
    {
      "anonymous": false,
      "inputs": [
        {
          "indexed": true,
          "internalType": "address",
          "name": "owner",
          "type": "address"
        },
        {
          "indexed": true,
          "internalType": "address",
          "name": "approved",
          "type": "address"
        },
        {
          "indexed": true,
          "internalType": "uint256",
          "name": "tokenId",
          "type": "uint256"
        }
      ],
      "name": "Approval",
      "type": "event"
    },
    {
      "anonymous": false,
      "inputs": [
        {
          "indexed": true,
          "internalType": "address",
          "name": "owner",
          "type": "address"
        },
        {
          "indexed": true,
          "internalType": "address",
          "name": "operator",
          "type": "address"
        },
        {
          "indexed": false,
          "internalType": "bool",
          "name": "approved",
          "type": "bool"
        }
      ],
      "name": "ApprovalForAll",
      "type": "event"
    },
    {
      "anonymous": false,
      "inputs": [
        {
          "indexed": true,
          "internalType": "address",
          "name": "previousOwner",
          "type": "address"
        },
        {
          "indexed": true,
          "internalType": "address",
          "name": "newOwner",
          "type": "address"
        }
      ],
      "name": "OwnershipTransferred",
      "type": "event"
    },
    {
      "anonymous": false,
      "inputs": [
        {
          "indexed": false,
          "internalType": "address",
          "name": "account",
          "type": "address"
        }
      ],
      "name": "Paused",
      "type": "event"
    },
    {
      "anonymous": false,
      "inputs": [
        {
          "indexed": true,
          "internalType": "address",
          "name": "from",
          "type": "address"
        },
        {
          "indexed": true,
          "internalType": "address",
          "name": "to",
          "type": "address"
        },
        {
          "indexed": true,
          "internalType": "uint256",
          "name": "tokenId",
          "type": "uint256"
        }
      ],
      "name": "Transfer",
      "type": "event"
    },
    {
      "anonymous": false,
      "inputs": [
        {
          "indexed": false,
          "internalType": "address",
          "name": "account",
          "type": "address"
        }
      ],
      "name": "Unpaused",
      "type": "event"
    },
    {
      "inputs": [
        {
          "internalType": "address",
          "name": "_addressPinContract",
          "type": "address"
        },
        {
          "internalType": "address",
          "name": "_addressBeneficiary",
          "type": "address"
        },
        {
          "internalType": "uint256[]",
          "name": "_amounts_asked",
          "type": "uint256[]"
        },
        {
          "internalType": "uint256[]",
          "name": "_amounts_owned",
          "type": "uint256[]"
        }
      ],
      "name": "addBeneficiaryOnPIN",
      "outputs": [],
      "stateMutability": "nonpayable",
      "type": "function"
    },
    {
      "inputs": [
        {
          "internalType": "address",
          "name": "to",
          "type": "address"
        },
        {
          "internalType": "uint256",
          "name": "tokenId",
          "type": "uint256"
        }
      ],
      "name": "approve",
      "outputs": [],
      "stateMutability": "nonpayable",
      "type": "function"
    },
    {
      "inputs": [
        {
          "internalType": "address",
          "name": "owner",
          "type": "address"
        }
      ],
      "name": "balanceOf",
      "outputs": [
        {
          "internalType": "uint256",
          "name": "",
          "type": "uint256"
        }
      ],
      "stateMutability": "view",
      "type": "function"
    },
    {
      "inputs": [
        {
          "internalType": "uint256",
          "name": "tokenId",
          "type": "uint256"
        }
      ],
      "name": "getApproved",
      "outputs": [
        {
          "internalType": "address",
          "name": "",
          "type": "address"
        }
      ],
      "stateMutability": "view",
      "type": "function"
    },
    {
      "inputs": [
        {
          "internalType": "address",
          "name": "owner",
          "type": "address"
        },
        {
          "internalType": "address",
          "name": "operator",
          "type": "address"
        }
      ],
      "name": "isApprovedForAll",
      "outputs": [
        {
          "internalType": "bool",
          "name": "",
          "type": "bool"
        }
      ],
      "stateMutability": "view",
      "type": "function"
    },
    {
      "inputs": [
        {
          "internalType": "address",
          "name": "_addressPinContract",
          "type": "address"
        },
        {
          "internalType": "address",
          "name": "_addressBeneficiary",
          "type": "address"
        }
      ],
      "name": "mintAssetAskedOnPIN",
      "outputs": [],
      "stateMutability": "nonpayable",
      "type": "function"
    },
    {
      "inputs": [
        {
          "internalType": "address",
          "name": "_addressPinContract",
          "type": "address"
        },
        {
          "internalType": "address",
          "name": "_addressBeneficiary",
          "type": "address"
        }
      ],
      "name": "mintAssetOwnedOnPIN",
      "outputs": [],
      "stateMutability": "nonpayable",
      "type": "function"
    },
    {
      "inputs": [
        {
          "internalType": "address",
          "name": "to",
          "type": "address"
        }
      ],
      "name": "mintNFT",
      "outputs": [
        {
          "internalType": "uint256",
          "name": "",
          "type": "uint256"
        }
      ],
      "stateMutability": "nonpayable",
      "type": "function"
    },
    {
      "inputs": [],
      "name": "name",
      "outputs": [
        {
          "internalType": "string",
          "name": "",
          "type": "string"
        }
      ],
      "stateMutability": "view",
      "type": "function"
    },
    {
      "inputs": [],
      "name": "owner",
      "outputs": [
        {
          "internalType": "address",
          "name": "",
          "type": "address"
        }
      ],
      "stateMutability": "view",
      "type": "function"
    },
    {
      "inputs": [
        {
          "internalType": "uint256",
          "name": "tokenId",
          "type": "uint256"
        }
      ],
      "name": "ownerOf",
      "outputs": [
        {
          "internalType": "address",
          "name": "",
          "type": "address"
        }
      ],
      "stateMutability": "view",
      "type": "function"
    },
    {
      "inputs": [
        {
          "internalType": "address",
          "name": "_addressPinContract",
          "type": "address"
        }
      ],
      "name": "pause",
      "outputs": [],
      "stateMutability": "nonpayable",
      "type": "function"
    },
    {
      "inputs": [],
      "name": "paused",
      "outputs": [
        {
          "internalType": "bool",
          "name": "",
          "type": "bool"
        }
      ],
      "stateMutability": "view",
      "type": "function"
    },
    {
      "inputs": [],
      "name": "renounceOwnership",
      "outputs": [],
      "stateMutability": "nonpayable",
      "type": "function"
    },
    {
      "inputs": [
        {
          "internalType": "address",
          "name": "from",
          "type": "address"
        },
        {
          "internalType": "address",
          "name": "to",
          "type": "address"
        },
        {
          "internalType": "uint256",
          "name": "tokenId",
          "type": "uint256"
        }
      ],
      "name": "safeTransferFrom",
      "outputs": [],
      "stateMutability": "nonpayable",
      "type": "function"
    },
    {
      "inputs": [
        {
          "internalType": "address",
          "name": "from",
          "type": "address"
        },
        {
          "internalType": "address",
          "name": "to",
          "type": "address"
        },
        {
          "internalType": "uint256",
          "name": "tokenId",
          "type": "uint256"
        },
        {
          "internalType": "bytes",
          "name": "data",
          "type": "bytes"
        }
      ],
      "name": "safeTransferFrom",
      "outputs": [],
      "stateMutability": "nonpayable",
      "type": "function"
    },
    {
      "inputs": [
        {
          "internalType": "address",
          "name": "operator",
          "type": "address"
        },
        {
          "internalType": "bool",
          "name": "approved",
          "type": "bool"
        }
      ],
      "name": "setApprovalForAll",
      "outputs": [],
      "stateMutability": "nonpayable",
      "type": "function"
    },
    {
      "inputs": [
        {
          "internalType": "bytes4",
          "name": "interfaceId",
          "type": "bytes4"
        }
      ],
      "name": "supportsInterface",
      "outputs": [
        {
          "internalType": "bool",
          "name": "",
          "type": "bool"
        }
      ],
      "stateMutability": "view",
      "type": "function"
    },
    {
      "inputs": [],
      "name": "symbol",
      "outputs": [
        {
          "internalType": "string",
          "name": "",
          "type": "string"
        }
      ],
      "stateMutability": "view",
      "type": "function"
    },
    {
      "inputs": [],
      "name": "tokenId",
      "outputs": [
        {
          "internalType": "uint256",
          "name": "",
          "type": "uint256"
        }
      ],
      "stateMutability": "view",
      "type": "function"
    },
    {
      "inputs": [
        {
          "internalType": "uint256",
          "name": "_tokenId",
          "type": "uint256"
        }
      ],
      "name": "tokenURI",
      "outputs": [
        {
          "internalType": "string",
          "name": "",
          "type": "string"
        }
      ],
      "stateMutability": "view",
      "type": "function"
    },
    {
      "inputs": [
        {
          "internalType": "address",
          "name": "from",
          "type": "address"
        },
        {
          "internalType": "address",
          "name": "to",
          "type": "address"
        },
        {
          "internalType": "uint256",
          "name": "tokenId",
          "type": "uint256"
        }
      ],
      "name": "transferFrom",
      "outputs": [],
      "stateMutability": "nonpayable",
      "type": "function"
    },
    {
      "inputs": [
        {
          "internalType": "address",
          "name": "newOwner",
          "type": "address"
        }
      ],
      "name": "transferOwnership",
      "outputs": [],
      "stateMutability": "nonpayable",
      "type": "function"
    },
    {
      "inputs": [
        {
          "internalType": "address",
          "name": "_addressPinContract",
          "type": "address"
        }
      ],
      "name": "unpause",
      "outputs": [],
      "stateMutability": "nonpayable",
      "type": "function"
    }
  ],
  "bytecode": "0x60806040523480156200001157600080fd5b506040518060400160405280600c81526020017f506572736f6e496e4e65656400000000000000000000000000000000000000008152506040518060400160405280600381526020017f50494e000000000000000000000000000000000000000000000000000000000081525081600090816200008f91906200042d565b508060019081620000a191906200042d565b505050620000c4620000b8620000e560201b60201c565b620000ed60201b60201c565b6000600660146101000a81548160ff02191690831515021790555062000514565b600033905090565b6000600660009054906101000a900473ffffffffffffffffffffffffffffffffffffffff16905081600660006101000a81548173ffffffffffffffffffffffffffffffffffffffff021916908373ffffffffffffffffffffffffffffffffffffffff1602179055508173ffffffffffffffffffffffffffffffffffffffff168173ffffffffffffffffffffffffffffffffffffffff167f8be0079c531659141344cd1fd0a4f28419497f9722a3daafe3b4186f6b6457e060405160405180910390a35050565b600081519050919050565b7f4e487b7100000000000000000000000000000000000000000000000000000000600052604160045260246000fd5b7f4e487b7100000000000000000000000000000000000000000000000000000000600052602260045260246000fd5b600060028204905060018216806200023557607f821691505b6020821081036200024b576200024a620001ed565b5b50919050565b60008190508160005260206000209050919050565b60006020601f8301049050919050565b600082821b905092915050565b600060088302620002b57fffffffffffffffffffffffffffffffffffffffffffffffffffffffffffffffff8262000276565b620002c1868362000276565b95508019841693508086168417925050509392505050565b6000819050919050565b6000819050919050565b60006200030e620003086200030284620002d9565b620002e3565b620002d9565b9050919050565b6000819050919050565b6200032a83620002ed565b62000342620003398262000315565b84845462000283565b825550505050565b600090565b620003596200034a565b620003668184846200031f565b505050565b5b818110156200038e57620003826000826200034f565b6001810190506200036c565b5050565b601f821115620003dd57620003a78162000251565b620003b28462000266565b81016020851015620003c2578190505b620003da620003d18562000266565b8301826200036b565b50505b505050565b600082821c905092915050565b60006200040260001984600802620003e2565b1980831691505092915050565b60006200041d8383620003ef565b9150826002028217905092915050565b6200043882620001b3565b67ffffffffffffffff811115620004545762000453620001be565b5b6200046082546200021c565b6200046d82828562000392565b600060209050601f831160018114620004a5576000841562000490578287015190505b6200049c85826200040f565b8655506200050c565b601f198416620004b58662000251565b60005b82811015620004df57848901518255600182019150602085019450602081019050620004b8565b86831015620004ff5784890151620004fb601f891682620003ef565b8355505b6001600288020188555050505b505050505050565b61349580620005246000396000f3fe608060405234801561001057600080fd5b50600436106101585760003560e01c806370a08231116100c3578063a22cb4651161007c578063a22cb465146103b1578063b88d4fde146103cd578063c87b56dd146103e9578063e9214d3e14610419578063e985e9c514610435578063f2fde38b1461046557610158565b806370a0823114610303578063715018a61461033357806376a67a511461033d5780638da5cb5b14610359578063951810dd1461037757806395d89b411461039357610158565b806342842e0e1161011557806342842e0e1461023157806354ba0f271461024d57806357b001f91461027d5780635c975abb146102995780636352211e146102b7578063636a6d41146102e757610158565b806301ffc9a71461015d57806306fdde031461018d578063081812fc146101ab578063095ea7b3146101db57806317d70f7c146101f757806323b872dd14610215575b600080fd5b6101776004803603810190610172919061213b565b610481565b6040516101849190612183565b60405180910390f35b610195610563565b6040516101a2919061222e565b60405180910390f35b6101c560048036038101906101c09190612286565b6105f5565b6040516101d291906122f4565b60405180910390f35b6101f560048036038101906101f0919061233b565b61063b565b005b6101ff610752565b60405161020c919061238a565b60405180910390f35b61022f600480360381019061022a91906123a5565b610758565b005b61024b600480360381019061024691906123a5565b6107b8565b005b610267600480360381019061026291906123f8565b6107d8565b604051610274919061238a565b60405180910390f35b610297600480360381019061029291906123f8565b6108e1565b005b6102a1610954565b6040516102ae9190612183565b60405180910390f35b6102d160048036038101906102cc9190612286565b61096b565b6040516102de91906122f4565b60405180910390f35b61030160048036038101906102fc919061256d565b6109f1565b005b61031d600480360381019061031891906123f8565b610a76565b60405161032a919061238a565b60405180910390f35b61033b610b2d565b005b610357600480360381019061035291906123f8565b610b41565b005b610361610bb4565b60405161036e91906122f4565b60405180910390f35b610391600480360381019061038c919061260c565b610bde565b005b61039b610c5d565b6040516103a8919061222e565b60405180910390f35b6103cb60048036038101906103c69190612678565b610cef565b005b6103e760048036038101906103e2919061276d565b610d05565b005b61040360048036038101906103fe9190612286565b610d67565b604051610410919061222e565b60405180910390f35b610433600480360381019061042e919061260c565b610da1565b005b61044f600480360381019061044a919061260c565b610e20565b60405161045c9190612183565b60405180910390f35b61047f600480360381019061047a91906123f8565b610eb4565b005b60007f80ac58cd000000000000000000000000000000000000000000000000000000007bffffffffffffffffffffffffffffffffffffffffffffffffffffffff1916827bffffffffffffffffffffffffffffffffffffffffffffffffffffffff1916148061054c57507f5b5e139f000000000000000000000000000000000000000000000000000000007bffffffffffffffffffffffffffffffffffffffffffffffffffffffff1916827bffffffffffffffffffffffffffffffffffffffffffffffffffffffff1916145b8061055c575061055b82610f37565b5b9050919050565b6060600080546105729061281f565b80601f016020809104026020016040519081016040528092919081815260200182805461059e9061281f565b80156105eb5780601f106105c0576101008083540402835291602001916105eb565b820191906000526020600020905b8154815290600101906020018083116105ce57829003601f168201915b5050505050905090565b600061060082610fa1565b6004600083815260200190815260200160002060009054906101000a900473ffffffffffffffffffffffffffffffffffffffff169050919050565b60006106468261096b565b90508073ffffffffffffffffffffffffffffffffffffffff168373ffffffffffffffffffffffffffffffffffffffff16036106b6576040517f08c379a00000000000000000000000000000000000000000000000000000000081526004016106ad906128c2565b60405180910390fd5b8073ffffffffffffffffffffffffffffffffffffffff166106d5610fec565b73ffffffffffffffffffffffffffffffffffffffff1614806107045750610703816106fe610fec565b610e20565b5b610743576040517f08c379a000000000000000000000000000000000000000000000000000000000815260040161073a90612954565b60405180910390fd5b61074d8383610ff4565b505050565b60075481565b610769610763610fec565b826110ad565b6107a8576040517f08c379a000000000000000000000000000000000000000000000000000000000815260040161079f906129e6565b60405180910390fd5b6107b3838383611142565b505050565b6107d383838360405180602001604052806000815250610d05565b505050565b60006107e261143b565b6107ea6114b9565b6000600960008473ffffffffffffffffffffffffffffffffffffffff1673ffffffffffffffffffffffffffffffffffffffff168152602001908152602001600020541461086c576040517f08c379a000000000000000000000000000000000000000000000000000000000815260040161086390612a78565b60405180910390fd5b6108766008611503565b6108806008611519565b60078190555061089282600754611527565b6001600960008473ffffffffffffffffffffffffffffffffffffffff1673ffffffffffffffffffffffffffffffffffffffff168152602001908152602001600020819055506007549050919050565b6108e961143b565b8073ffffffffffffffffffffffffffffffffffffffff16638456cb596040518163ffffffff1660e01b8152600401600060405180830381600087803b15801561093157600080fd5b505af1158015610945573d6000803e3d6000fd5b50505050610951611545565b50565b6000600660149054906101000a900460ff16905090565b600080610977836115a8565b9050600073ffffffffffffffffffffffffffffffffffffffff168173ffffffffffffffffffffffffffffffffffffffff16036109e8576040517f08c379a00000000000000000000000000000000000000000000000000000000081526004016109df90612ae4565b60405180910390fd5b80915050919050565b6109f961143b565b610a016114b9565b8373ffffffffffffffffffffffffffffffffffffffff1663f61eb2d48484846040518463ffffffff1660e01b8152600401610a3e93929190612bc2565b600060405180830381600087803b158015610a5857600080fd5b505af1158015610a6c573d6000803e3d6000fd5b5050505050505050565b60008073ffffffffffffffffffffffffffffffffffffffff168273ffffffffffffffffffffffffffffffffffffffff1603610ae6576040517f08c379a0000000000000000000000000000000000000000000000000000000008152600401610add90612c79565b60405180910390fd5b600360008373ffffffffffffffffffffffffffffffffffffffff1673ffffffffffffffffffffffffffffffffffffffff168152602001908152602001600020549050919050565b610b3561143b565b610b3f60006115e5565b565b610b4961143b565b8073ffffffffffffffffffffffffffffffffffffffff16638456cb596040518163ffffffff1660e01b8152600401600060405180830381600087803b158015610b9157600080fd5b505af1158015610ba5573d6000803e3d6000fd5b50505050610bb16116ab565b50565b6000600660009054906101000a900473ffffffffffffffffffffffffffffffffffffffff16905090565b610be661143b565b610bee6114b9565b8173ffffffffffffffffffffffffffffffffffffffff1663bcc727e4826040518263ffffffff1660e01b8152600401610c2791906122f4565b600060405180830381600087803b158015610c4157600080fd5b505af1158015610c55573d6000803e3d6000fd5b505050505050565b606060018054610c6c9061281f565b80601f0160208091040260200160405190810160405280929190818152602001828054610c989061281f565b8015610ce55780601f10610cba57610100808354040283529160200191610ce5565b820191906000526020600020905b815481529060010190602001808311610cc857829003601f168201915b5050505050905090565b610d01610cfa610fec565b838361170e565b5050565b610d16610d10610fec565b836110ad565b610d55576040517f08c379a0000000000000000000000000000000000000000000000000000000008152600401610d4c906129e6565b60405180910390fd5b610d618484848461187a565b50505050565b6060610d7282610fa1565b610d7b826118d6565b604051602001610d8b9190612db9565b6040516020818303038152906040529050919050565b610da961143b565b610db16114b9565b8173ffffffffffffffffffffffffffffffffffffffff16632bfbbeed826040518263ffffffff1660e01b8152600401610dea91906122f4565b600060405180830381600087803b158015610e0457600080fd5b505af1158015610e18573d6000803e3d6000fd5b505050505050565b6000600560008473ffffffffffffffffffffffffffffffffffffffff1673ffffffffffffffffffffffffffffffffffffffff16815260200190815260200160002060008373ffffffffffffffffffffffffffffffffffffffff1673ffffffffffffffffffffffffffffffffffffffff16815260200190815260200160002060009054906101000a900460ff16905092915050565b610ebc61143b565b600073ffffffffffffffffffffffffffffffffffffffff168173ffffffffffffffffffffffffffffffffffffffff1603610f2b576040517f08c379a0000000000000000000000000000000000000000000000000000000008152600401610f2290612e58565b60405180910390fd5b610f34816115e5565b50565b60007f01ffc9a7000000000000000000000000000000000000000000000000000000007bffffffffffffffffffffffffffffffffffffffffffffffffffffffff1916827bffffffffffffffffffffffffffffffffffffffffffffffffffffffff1916149050919050565b610faa816119a4565b610fe9576040517f08c379a0000000000000000000000000000000000000000000000000000000008152600401610fe090612ae4565b60405180910390fd5b50565b600033905090565b816004600083815260200190815260200160002060006101000a81548173ffffffffffffffffffffffffffffffffffffffff021916908373ffffffffffffffffffffffffffffffffffffffff160217905550808273ffffffffffffffffffffffffffffffffffffffff166110678361096b565b73ffffffffffffffffffffffffffffffffffffffff167f8c5be1e5ebec7d5bd14f71427d1e84f3dd0314c0f7b2291e5b200ac8c7c3b92560405160405180910390a45050565b6000806110b98361096b565b90508073ffffffffffffffffffffffffffffffffffffffff168473ffffffffffffffffffffffffffffffffffffffff1614806110fb57506110fa8185610e20565b5b8061113957508373ffffffffffffffffffffffffffffffffffffffff16611121846105f5565b73ffffffffffffffffffffffffffffffffffffffff16145b91505092915050565b8273ffffffffffffffffffffffffffffffffffffffff166111628261096b565b73ffffffffffffffffffffffffffffffffffffffff16146111b8576040517f08c379a00000000000000000000000000000000000000000000000000000000081526004016111af90612eea565b60405180910390fd5b600073ffffffffffffffffffffffffffffffffffffffff168273ffffffffffffffffffffffffffffffffffffffff1603611227576040517f08c379a000000000000000000000000000000000000000000000000000000000815260040161121e90612f7c565b60405180910390fd5b61123483838360016119e5565b8273ffffffffffffffffffffffffffffffffffffffff166112548261096b565b73ffffffffffffffffffffffffffffffffffffffff16146112aa576040517f08c379a00000000000000000000000000000000000000000000000000000000081526004016112a190612eea565b60405180910390fd5b6004600082815260200190815260200160002060006101000a81549073ffffffffffffffffffffffffffffffffffffffff02191690556001600360008573ffffffffffffffffffffffffffffffffffffffff1673ffffffffffffffffffffffffffffffffffffffff168152602001908152602001600020600082825403925050819055506001600360008473ffffffffffffffffffffffffffffffffffffffff1673ffffffffffffffffffffffffffffffffffffffff16815260200190815260200160002060008282540192505081905550816002600083815260200190815260200160002060006101000a81548173ffffffffffffffffffffffffffffffffffffffff021916908373ffffffffffffffffffffffffffffffffffffffff160217905550808273ffffffffffffffffffffffffffffffffffffffff168473ffffffffffffffffffffffffffffffffffffffff167fddf252ad1be2c89b69c2b068fc378daa952ba7f163c4a11628f55a4df523b3ef60405160405180910390a46114368383836001611b0b565b505050565b611443610fec565b73ffffffffffffffffffffffffffffffffffffffff16611461610bb4565b73ffffffffffffffffffffffffffffffffffffffff16146114b7576040517f08c379a00000000000000000000000000000000000000000000000000000000081526004016114ae90612fe8565b60405180910390fd5b565b6114c1610954565b15611501576040517f08c379a00000000000000000000000000000000000000000000000000000000081526004016114f890613054565b60405180910390fd5b565b6001816000016000828254019250508190555050565b600081600001549050919050565b611541828260405180602001604052806000815250611b11565b5050565b61154d611b6c565b6000600660146101000a81548160ff0219169083151502179055507f5db9ee0a495bf2e6ff9c91a7834c1ba4fdd244a5e8aa4e537bd38aeae4b073aa611591610fec565b60405161159e91906122f4565b60405180910390a1565b60006002600083815260200190815260200160002060009054906101000a900473ffffffffffffffffffffffffffffffffffffffff169050919050565b6000600660009054906101000a900473ffffffffffffffffffffffffffffffffffffffff16905081600660006101000a81548173ffffffffffffffffffffffffffffffffffffffff021916908373ffffffffffffffffffffffffffffffffffffffff1602179055508173ffffffffffffffffffffffffffffffffffffffff168173ffffffffffffffffffffffffffffffffffffffff167f8be0079c531659141344cd1fd0a4f28419497f9722a3daafe3b4186f6b6457e060405160405180910390a35050565b6116b36114b9565b6001600660146101000a81548160ff0219169083151502179055507f62e78cea01bee320cd4e420270b5ea74000d11b0c9f74754ebdbfc544b05a2586116f7610fec565b60405161170491906122f4565b60405180910390a1565b8173ffffffffffffffffffffffffffffffffffffffff168373ffffffffffffffffffffffffffffffffffffffff160361177c576040517f08c379a0000000000000000000000000000000000000000000000000000000008152600401611773906130c0565b60405180910390fd5b80600560008573ffffffffffffffffffffffffffffffffffffffff1673ffffffffffffffffffffffffffffffffffffffff16815260200190815260200160002060008473ffffffffffffffffffffffffffffffffffffffff1673ffffffffffffffffffffffffffffffffffffffff16815260200190815260200160002060006101000a81548160ff0219169083151502179055508173ffffffffffffffffffffffffffffffffffffffff168373ffffffffffffffffffffffffffffffffffffffff167f17307eab39ab6107e8899845ad3d59bd9653f200f220920489ca2b5937696c318360405161186d9190612183565b60405180910390a3505050565b611885848484611142565b61189184848484611bb5565b6118d0576040517f08c379a00000000000000000000000000000000000000000000000000000000081526004016118c790613152565b60405180910390fd5b50505050565b6060600060016118e584611d3c565b01905060008167ffffffffffffffff8111156119045761190361242a565b5b6040519080825280601f01601f1916602001820160405280156119365781602001600182028036833780820191505090505b509050600082602001820190505b600115611999578080600190039150507f3031323334353637383961626364656600000000000000000000000000000000600a86061a8153600a858161198d5761198c613172565b5b04945060008503611944575b819350505050919050565b60008073ffffffffffffffffffffffffffffffffffffffff166119c6836115a8565b73ffffffffffffffffffffffffffffffffffffffff1614159050919050565b6001811115611b0557600073ffffffffffffffffffffffffffffffffffffffff168473ffffffffffffffffffffffffffffffffffffffff1614611a795780600360008673ffffffffffffffffffffffffffffffffffffffff1673ffffffffffffffffffffffffffffffffffffffff1681526020019081526020016000206000828254611a7191906131d0565b925050819055505b600073ffffffffffffffffffffffffffffffffffffffff168373ffffffffffffffffffffffffffffffffffffffff1614611b045780600360008573ffffffffffffffffffffffffffffffffffffffff1673ffffffffffffffffffffffffffffffffffffffff1681526020019081526020016000206000828254611afc9190613204565b925050819055505b5b50505050565b50505050565b611b1b8383611e8f565b611b286000848484611bb5565b611b67576040517f08c379a0000000000000000000000000000000000000000000000000000000008152600401611b5e90613152565b60405180910390fd5b505050565b611b74610954565b611bb3576040517f08c379a0000000000000000000000000000000000000000000000000000000008152600401611baa90613284565b60405180910390fd5b565b6000611bd68473ffffffffffffffffffffffffffffffffffffffff166120ac565b15611d2f578373ffffffffffffffffffffffffffffffffffffffff1663150b7a02611bff610fec565b8786866040518563ffffffff1660e01b8152600401611c2194939291906132f9565b6020604051808303816000875af1925050508015611c5d57506040513d601f19601f82011682018060405250810190611c5a919061335a565b60015b611cdf573d8060008114611c8d576040519150601f19603f3d011682016040523d82523d6000602084013e611c92565b606091505b506000815103611cd7576040517f08c379a0000000000000000000000000000000000000000000000000000000008152600401611cce90613152565b60405180910390fd5b805181602001fd5b63150b7a0260e01b7bffffffffffffffffffffffffffffffffffffffffffffffffffffffff1916817bffffffffffffffffffffffffffffffffffffffffffffffffffffffff191614915050611d34565b600190505b949350505050565b600080600090507a184f03e93ff9f4daa797ed6e38ed64bf6a1f0100000000000000008310611d9a577a184f03e93ff9f4daa797ed6e38ed64bf6a1f0100000000000000008381611d9057611d8f613172565b5b0492506040810190505b6d04ee2d6d415b85acef81000000008310611dd7576d04ee2d6d415b85acef81000000008381611dcd57611dcc613172565b5b0492506020810190505b662386f26fc100008310611e0657662386f26fc100008381611dfc57611dfb613172565b5b0492506010810190505b6305f5e1008310611e2f576305f5e1008381611e2557611e24613172565b5b0492506008810190505b6127108310611e54576127108381611e4a57611e49613172565b5b0492506004810190505b60648310611e775760648381611e6d57611e6c613172565b5b0492506002810190505b600a8310611e86576001810190505b80915050919050565b600073ffffffffffffffffffffffffffffffffffffffff168273ffffffffffffffffffffffffffffffffffffffff1603611efe576040517f08c379a0000000000000000000000000000000000000000000000000000000008152600401611ef5906133d3565b60405180910390fd5b611f07816119a4565b15611f47576040517f08c379a0000000000000000000000000000000000000000000000000000000008152600401611f3e9061343f565b60405180910390fd5b611f556000838360016119e5565b611f5e816119a4565b15611f9e576040517f08c379a0000000000000000000000000000000000000000000000000000000008152600401611f959061343f565b60405180910390fd5b6001600360008473ffffffffffffffffffffffffffffffffffffffff1673ffffffffffffffffffffffffffffffffffffffff16815260200190815260200160002060008282540192505081905550816002600083815260200190815260200160002060006101000a81548173ffffffffffffffffffffffffffffffffffffffff021916908373ffffffffffffffffffffffffffffffffffffffff160217905550808273ffffffffffffffffffffffffffffffffffffffff16600073ffffffffffffffffffffffffffffffffffffffff167fddf252ad1be2c89b69c2b068fc378daa952ba7f163c4a11628f55a4df523b3ef60405160405180910390a46120a8600083836001611b0b565b5050565b6000808273ffffffffffffffffffffffffffffffffffffffff163b119050919050565b6000604051905090565b600080fd5b600080fd5b60007fffffffff0000000000000000000000000000000000000000000000000000000082169050919050565b612118816120e3565b811461212357600080fd5b50565b6000813590506121358161210f565b92915050565b600060208284031215612151576121506120d9565b5b600061215f84828501612126565b91505092915050565b60008115159050919050565b61217d81612168565b82525050565b60006020820190506121986000830184612174565b92915050565b600081519050919050565b600082825260208201905092915050565b60005b838110156121d85780820151818401526020810190506121bd565b60008484015250505050565b6000601f19601f8301169050919050565b60006122008261219e565b61220a81856121a9565b935061221a8185602086016121ba565b612223816121e4565b840191505092915050565b6000602082019050818103600083015261224881846121f5565b905092915050565b6000819050919050565b61226381612250565b811461226e57600080fd5b50565b6000813590506122808161225a565b92915050565b60006020828403121561229c5761229b6120d9565b5b60006122aa84828501612271565b91505092915050565b600073ffffffffffffffffffffffffffffffffffffffff82169050919050565b60006122de826122b3565b9050919050565b6122ee816122d3565b82525050565b600060208201905061230960008301846122e5565b92915050565b612318816122d3565b811461232357600080fd5b50565b6000813590506123358161230f565b92915050565b60008060408385031215612352576123516120d9565b5b600061236085828601612326565b925050602061237185828601612271565b9150509250929050565b61238481612250565b82525050565b600060208201905061239f600083018461237b565b92915050565b6000806000606084860312156123be576123bd6120d9565b5b60006123cc86828701612326565b93505060206123dd86828701612326565b92505060406123ee86828701612271565b9150509250925092565b60006020828403121561240e5761240d6120d9565b5b600061241c84828501612326565b91505092915050565b600080fd5b7f4e487b7100000000000000000000000000000000000000000000000000000000600052604160045260246000fd5b612462826121e4565b810181811067ffffffffffffffff821117156124815761248061242a565b5b80604052505050565b60006124946120cf565b90506124a08282612459565b919050565b600067ffffffffffffffff8211156124c0576124bf61242a565b5b602082029050602081019050919050565b600080fd5b60006124e96124e4846124a5565b61248a565b9050808382526020820190506020840283018581111561250c5761250b6124d1565b5b835b8181101561253557806125218882612271565b84526020840193505060208101905061250e565b5050509392505050565b600082601f83011261255457612553612425565b5b81356125648482602086016124d6565b91505092915050565b60008060008060808587031215612587576125866120d9565b5b600061259587828801612326565b94505060206125a687828801612326565b935050604085013567ffffffffffffffff8111156125c7576125c66120de565b5b6125d38782880161253f565b925050606085013567ffffffffffffffff8111156125f4576125f36120de565b5b6126008782880161253f565b91505092959194509250565b60008060408385031215612623576126226120d9565b5b600061263185828601612326565b925050602061264285828601612326565b9150509250929050565b61265581612168565b811461266057600080fd5b50565b6000813590506126728161264c565b92915050565b6000806040838503121561268f5761268e6120d9565b5b600061269d85828601612326565b92505060206126ae85828601612663565b9150509250929050565b600080fd5b600067ffffffffffffffff8211156126d8576126d761242a565b5b6126e1826121e4565b9050602081019050919050565b82818337600083830152505050565b600061271061270b846126bd565b61248a565b90508281526020810184848401111561272c5761272b6126b8565b5b6127378482856126ee565b509392505050565b600082601f83011261275457612753612425565b5b81356127648482602086016126fd565b91505092915050565b60008060008060808587031215612787576127866120d9565b5b600061279587828801612326565b94505060206127a687828801612326565b93505060406127b787828801612271565b925050606085013567ffffffffffffffff8111156127d8576127d76120de565b5b6127e48782880161273f565b91505092959194509250565b7f4e487b7100000000000000000000000000000000000000000000000000000000600052602260045260246000fd5b6000600282049050600182168061283757607f821691505b60208210810361284a576128496127f0565b5b50919050565b7f4552433732313a20617070726f76616c20746f2063757272656e74206f776e6560008201527f7200000000000000000000000000000000000000000000000000000000000000602082015250565b60006128ac6021836121a9565b91506128b782612850565b604082019050919050565b600060208201905081810360008301526128db8161289f565b9050919050565b7f4552433732313a20617070726f76652063616c6c6572206973206e6f7420746f60008201527f6b656e206f776e6572206f7220617070726f76656420666f7220616c6c000000602082015250565b600061293e603d836121a9565b9150612949826128e2565b604082019050919050565b6000602082019050818103600083015261296d81612931565b9050919050565b7f4552433732313a2063616c6c6572206973206e6f7420746f6b656e206f776e6560008201527f72206f7220617070726f76656400000000000000000000000000000000000000602082015250565b60006129d0602d836121a9565b91506129db82612974565b604082019050919050565b600060208201905081810360008301526129ff816129c3565b9050919050565b7f50494e20746f6b656e20616c7265616479206d696e74656420666f722062656e60008201527f6566696369617279000000000000000000000000000000000000000000000000602082015250565b6000612a626028836121a9565b9150612a6d82612a06565b604082019050919050565b60006020820190508181036000830152612a9181612a55565b9050919050565b7f4552433732313a20696e76616c696420746f6b656e2049440000000000000000600082015250565b6000612ace6018836121a9565b9150612ad982612a98565b602082019050919050565b60006020820190508181036000830152612afd81612ac1565b9050919050565b600081519050919050565b600082825260208201905092915050565b6000819050602082019050919050565b612b3981612250565b82525050565b6000612b4b8383612b30565b60208301905092915050565b6000602082019050919050565b6000612b6f82612b04565b612b798185612b0f565b9350612b8483612b20565b8060005b83811015612bb5578151612b9c8882612b3f565b9750612ba783612b57565b925050600181019050612b88565b5085935050505092915050565b6000606082019050612bd760008301866122e5565b8181036020830152612be98185612b64565b90508181036040830152612bfd8184612b64565b9050949350505050565b7f4552433732313a2061646472657373207a65726f206973206e6f74206120766160008201527f6c6964206f776e65720000000000000000000000000000000000000000000000602082015250565b6000612c636029836121a9565b9150612c6e82612c07565b604082019050919050565b60006020820190508181036000830152612c9281612c56565b9050919050565b600081905092915050565b7f68747470733a2f2f697066732e696f2f697066732f516d59355268437a6f513860008201527f763665557358723745694a4444617957556273346364397433724d377072415460208201527f4e564c2f00000000000000000000000000000000000000000000000000000000604082015250565b6000612d26604483612c99565b9150612d3182612ca4565b604482019050919050565b6000612d478261219e565b612d518185612c99565b9350612d618185602086016121ba565b80840191505092915050565b7f2e6a736f6e000000000000000000000000000000000000000000000000000000600082015250565b6000612da3600583612c99565b9150612dae82612d6d565b600582019050919050565b6000612dc482612d19565b9150612dd08284612d3c565b9150612ddb82612d96565b915081905092915050565b7f4f776e61626c653a206e6577206f776e657220697320746865207a65726f206160008201527f6464726573730000000000000000000000000000000000000000000000000000602082015250565b6000612e426026836121a9565b9150612e4d82612de6565b604082019050919050565b60006020820190508181036000830152612e7181612e35565b9050919050565b7f4552433732313a207472616e736665722066726f6d20696e636f72726563742060008201527f6f776e6572000000000000000000000000000000000000000000000000000000602082015250565b6000612ed46025836121a9565b9150612edf82612e78565b604082019050919050565b60006020820190508181036000830152612f0381612ec7565b9050919050565b7f4552433732313a207472616e7366657220746f20746865207a65726f2061646460008201527f7265737300000000000000000000000000000000000000000000000000000000602082015250565b6000612f666024836121a9565b9150612f7182612f0a565b604082019050919050565b60006020820190508181036000830152612f9581612f59565b9050919050565b7f4f776e61626c653a2063616c6c6572206973206e6f7420746865206f776e6572600082015250565b6000612fd26020836121a9565b9150612fdd82612f9c565b602082019050919050565b6000602082019050818103600083015261300181612fc5565b9050919050565b7f5061757361626c653a2070617573656400000000000000000000000000000000600082015250565b600061303e6010836121a9565b915061304982613008565b602082019050919050565b6000602082019050818103600083015261306d81613031565b9050919050565b7f4552433732313a20617070726f766520746f2063616c6c657200000000000000600082015250565b60006130aa6019836121a9565b91506130b582613074565b602082019050919050565b600060208201905081810360008301526130d98161309d565b9050919050565b7f4552433732313a207472616e7366657220746f206e6f6e20455243373231526560008201527f63656976657220696d706c656d656e7465720000000000000000000000000000602082015250565b600061313c6032836121a9565b9150613147826130e0565b604082019050919050565b6000602082019050818103600083015261316b8161312f565b9050919050565b7f4e487b7100000000000000000000000000000000000000000000000000000000600052601260045260246000fd5b7f4e487b7100000000000000000000000000000000000000000000000000000000600052601160045260246000fd5b60006131db82612250565b91506131e683612250565b92508282039050818111156131fe576131fd6131a1565b5b92915050565b600061320f82612250565b915061321a83612250565b9250828201905080821115613232576132316131a1565b5b92915050565b7f5061757361626c653a206e6f7420706175736564000000000000000000000000600082015250565b600061326e6014836121a9565b915061327982613238565b602082019050919050565b6000602082019050818103600083015261329d81613261565b9050919050565b600081519050919050565b600082825260208201905092915050565b60006132cb826132a4565b6132d581856132af565b93506132e58185602086016121ba565b6132ee816121e4565b840191505092915050565b600060808201905061330e60008301876122e5565b61331b60208301866122e5565b613328604083018561237b565b818103606083015261333a81846132c0565b905095945050505050565b6000815190506133548161210f565b92915050565b6000602082840312156133705761336f6120d9565b5b600061337e84828501613345565b91505092915050565b7f4552433732313a206d696e7420746f20746865207a65726f2061646472657373600082015250565b60006133bd6020836121a9565b91506133c882613387565b602082019050919050565b600060208201905081810360008301526133ec816133b0565b9050919050565b7f4552433732313a20746f6b656e20616c7265616479206d696e74656400000000600082015250565b6000613429601c836121a9565b9150613434826133f3565b602082019050919050565b600060208201905081810360008301526134588161341c565b905091905056fea26469706673582212202de0d4eee3c69dcad920f1a62ccfa3309457cc895fd58a9ae0219a2040d08cd964736f6c63430008110033",
  "linkReferences": {},
  "deployedLinkReferences": {}
}