{
	"contracts/ETH_Denver_Bootcamp/Homework_4/VolcanoCoin.sol": {
		"VolcanoCoin": {
			"abi": [
				{
					"inputs": [],
					"stateMutability": "nonpayable",
					"type": "constructor"
				},
				{
					"inputs": [
						{
							"internalType": "uint256",
							"name": "requested",
							"type": "uint256"
						},
						{
							"internalType": "uint256",
							"name": "available",
							"type": "uint256"
						}
					],
					"name": "NotEnoughFunds",
					"type": "error"
				},
				{
					"anonymous": false,
					"inputs": [
						{
							"indexed": false,
							"internalType": "uint256",
							"name": "",
							"type": "uint256"
						},
						{
							"indexed": false,
							"internalType": "uint256",
							"name": "",
							"type": "uint256"
						}
					],
					"name": "SupplyChange",
					"type": "event"
				},
				{
					"anonymous": false,
					"inputs": [
						{
							"indexed": false,
							"internalType": "uint256",
							"name": "",
							"type": "uint256"
						},
						{
							"indexed": false,
							"internalType": "address",
							"name": "",
							"type": "address"
						}
					],
					"name": "TransferData",
					"type": "event"
				},
				{
					"inputs": [
						{
							"internalType": "address",
							"name": "",
							"type": "address"
						}
					],
					"name": "balances",
					"outputs": [
						{
							"internalType": "uint256",
							"name": "",
							"type": "uint256"
						}
					],
					"stateMutability": "view",
					"type": "function"
				},
				{
					"inputs": [],
					"name": "getSupply",
					"outputs": [
						{
							"internalType": "uint256",
							"name": "",
							"type": "uint256"
						}
					],
					"stateMutability": "view",
					"type": "function"
				},
				{
					"inputs": [
						{
							"internalType": "address",
							"name": "from",
							"type": "address"
						}
					],
					"name": "getTransfers",
					"outputs": [
						{
							"components": [
								{
									"internalType": "address",
									"name": "recipient",
									"type": "address"
								},
								{
									"internalType": "uint256",
									"name": "amount",
									"type": "uint256"
								}
							],
							"internalType": "struct VolcanoCoin.Payment[]",
							"name": "",
							"type": "tuple[]"
						}
					],
					"stateMutability": "view",
					"type": "function"
				},
				{
					"inputs": [],
					"name": "setSupply",
					"outputs": [],
					"stateMutability": "nonpayable",
					"type": "function"
				},
				{
					"inputs": [
						{
							"internalType": "address",
							"name": "to",
							"type": "address"
						},
						{
							"internalType": "uint256",
							"name": "amount",
							"type": "uint256"
						}
					],
					"name": "transfer",
					"outputs": [],
					"stateMutability": "nonpayable",
					"type": "function"
				}
			],
			"devdoc": {
				"kind": "dev",
				"methods": {},
				"version": 1
			},
			"evm": {
				"assembly": "    /* \"contracts/ETH_Denver_Bootcamp/Homework_4/VolcanoCoin.sol\":71:3397  contract VolcanoCoin {... */\n  mstore(0x40, 0x80)\n    /* \"contracts/ETH_Denver_Bootcamp/Homework_4/VolcanoCoin.sol\":330:335  10000 */\n  0x2710\n    /* \"contracts/ETH_Denver_Bootcamp/Homework_4/VolcanoCoin.sol\":303:335  uint private totalSupply = 10000 */\n  0x01\n  sstore\n    /* \"contracts/ETH_Denver_Bootcamp/Homework_4/VolcanoCoin.sol\":1216:1412  constructor() {... */\n  callvalue\n  dup1\n  iszero\n  tag_1\n  jumpi\n  0x00\n  dup1\n  revert\ntag_1:\n  pop\n    /* \"contracts/ETH_Denver_Bootcamp/Homework_4/VolcanoCoin.sol\":1249:1259  msg.sender */\n  caller\n    /* \"contracts/ETH_Denver_Bootcamp/Homework_4/VolcanoCoin.sol\":1241:1246  owner */\n  0x00\n  dup1\n    /* \"contracts/ETH_Denver_Bootcamp/Homework_4/VolcanoCoin.sol\":1241:1259  owner = msg.sender */\n  0x0100\n  exp\n  dup2\n  sload\n  dup2\n  0xffffffffffffffffffffffffffffffffffffffff\n  mul\n  not\n  and\n  swap1\n  dup4\n  0xffffffffffffffffffffffffffffffffffffffff\n  and\n  mul\n  or\n  swap1\n  sstore\n  pop\n    /* \"contracts/ETH_Denver_Bootcamp/Homework_4/VolcanoCoin.sol\":1346:1357  totalSupply */\n  sload(0x01)\n    /* \"contracts/ETH_Denver_Bootcamp/Homework_4/VolcanoCoin.sol\":1328:1336  balances */\n  0x02\n    /* \"contracts/ETH_Denver_Bootcamp/Homework_4/VolcanoCoin.sol\":1328:1343  balances[owner] */\n  0x00\n    /* \"contracts/ETH_Denver_Bootcamp/Homework_4/VolcanoCoin.sol\":1337:1342  owner */\n  dup1\n  0x00\n  swap1\n  sload\n  swap1\n  0x0100\n  exp\n  swap1\n  div\n  0xffffffffffffffffffffffffffffffffffffffff\n  and\n    /* \"contracts/ETH_Denver_Bootcamp/Homework_4/VolcanoCoin.sol\":1328:1343  balances[owner] */\n  0xffffffffffffffffffffffffffffffffffffffff\n  and\n  0xffffffffffffffffffffffffffffffffffffffff\n  and\n  dup2\n  mstore\n  0x20\n  add\n  swap1\n  dup2\n  mstore\n  0x20\n  add\n  0x00\n  keccak256\n    /* \"contracts/ETH_Denver_Bootcamp/Homework_4/VolcanoCoin.sol\":1328:1357  balances[owner] = totalSupply */\n  dup2\n  swap1\n  sstore\n  pop\n    /* \"contracts/ETH_Denver_Bootcamp/Homework_4/VolcanoCoin.sol\":71:3397  contract VolcanoCoin {... */\n  dataSize(sub_0)\n  dup1\n  dataOffset(sub_0)\n  0x00\n  codecopy\n  0x00\n  return\nstop\n\nsub_0: assembly {\n        /* \"contracts/ETH_Denver_Bootcamp/Homework_4/VolcanoCoin.sol\":71:3397  contract VolcanoCoin {... */\n      mstore(0x40, 0x80)\n      callvalue\n      dup1\n      iszero\n      tag_1\n      jumpi\n      0x00\n      dup1\n      revert\n    tag_1:\n      pop\n      jumpi(tag_2, lt(calldatasize, 0x04))\n      shr(0xe0, calldataload(0x00))\n      dup1\n      0x27e235e3\n      eq\n      tag_3\n      jumpi\n      dup1\n      0x6c9c2faf\n      eq\n      tag_4\n      jumpi\n      dup1\n      0x6d91c9cb\n      eq\n      tag_5\n      jumpi\n      dup1\n      0xa9059cbb\n      eq\n      tag_6\n      jumpi\n      dup1\n      0xb743ccbd\n      eq\n      tag_7\n      jumpi\n    tag_2:\n      0x00\n      dup1\n      revert\n        /* \"contracts/ETH_Denver_Bootcamp/Homework_4/VolcanoCoin.sol\":380:420  mapping(address => uint) public balances */\n    tag_3:\n      tag_8\n      0x04\n      dup1\n      calldatasize\n      sub\n      dup2\n      add\n      swap1\n      tag_9\n      swap2\n      swap1\n      tag_10\n      jump\t// in\n    tag_9:\n      tag_11\n      jump\t// in\n    tag_8:\n      mload(0x40)\n      tag_12\n      swap2\n      swap1\n      tag_13\n      jump\t// in\n    tag_12:\n      mload(0x40)\n      dup1\n      swap2\n      sub\n      swap1\n      return\n        /* \"contracts/ETH_Denver_Bootcamp/Homework_4/VolcanoCoin.sol\":1727:1811  function getSupply() public view returns(uint) {... */\n    tag_4:\n      tag_14\n      tag_15\n      jump\t// in\n    tag_14:\n      mload(0x40)\n      tag_16\n      swap2\n      swap1\n      tag_13\n      jump\t// in\n    tag_16:\n      mload(0x40)\n      dup1\n      swap2\n      sub\n      swap1\n      return\n        /* \"contracts/ETH_Denver_Bootcamp/Homework_4/VolcanoCoin.sol\":3277:3392  function getTransfers(address from) public view returns (Payment[] memory){... */\n    tag_5:\n      tag_17\n      0x04\n      dup1\n      calldatasize\n      sub\n      dup2\n      add\n      swap1\n      tag_18\n      swap2\n      swap1\n      tag_10\n      jump\t// in\n    tag_18:\n      tag_19\n      jump\t// in\n    tag_17:\n      mload(0x40)\n      tag_20\n      swap2\n      swap1\n      tag_21\n      jump\t// in\n    tag_20:\n      mload(0x40)\n      dup1\n      swap2\n      sub\n      swap1\n      return\n        /* \"contracts/ETH_Denver_Bootcamp/Homework_4/VolcanoCoin.sol\":2621:3227  function transfer(address to, uint amount) public {... */\n    tag_6:\n      tag_22\n      0x04\n      dup1\n      calldatasize\n      sub\n      dup2\n      add\n      swap1\n      tag_23\n      swap2\n      swap1\n      tag_24\n      jump\t// in\n    tag_23:\n      tag_25\n      jump\t// in\n    tag_22:\n      stop\n        /* \"contracts/ETH_Denver_Bootcamp/Homework_4/VolcanoCoin.sol\":2024:2526  function setSupply() public onlyOwner {... */\n    tag_7:\n      tag_26\n      tag_27\n      jump\t// in\n    tag_26:\n      stop\n        /* \"contracts/ETH_Denver_Bootcamp/Homework_4/VolcanoCoin.sol\":380:420  mapping(address => uint) public balances */\n    tag_11:\n      mstore(0x20, 0x02)\n      dup1\n      0x00\n      mstore\n      keccak256(0x00, 0x40)\n      0x00\n      swap2\n      pop\n      swap1\n      pop\n      sload\n      dup2\n      jump\t// out\n        /* \"contracts/ETH_Denver_Bootcamp/Homework_4/VolcanoCoin.sol\":1727:1811  function getSupply() public view returns(uint) {... */\n    tag_15:\n        /* \"contracts/ETH_Denver_Bootcamp/Homework_4/VolcanoCoin.sol\":1768:1772  uint */\n      0x00\n        /* \"contracts/ETH_Denver_Bootcamp/Homework_4/VolcanoCoin.sol\":1792:1803  totalSupply */\n      sload(0x01)\n        /* \"contracts/ETH_Denver_Bootcamp/Homework_4/VolcanoCoin.sol\":1785:1803  return totalSupply */\n      swap1\n      pop\n        /* \"contracts/ETH_Denver_Bootcamp/Homework_4/VolcanoCoin.sol\":1727:1811  function getSupply() public view returns(uint) {... */\n      swap1\n      jump\t// out\n        /* \"contracts/ETH_Denver_Bootcamp/Homework_4/VolcanoCoin.sol\":3277:3392  function getTransfers(address from) public view returns (Payment[] memory){... */\n    tag_19:\n        /* \"contracts/ETH_Denver_Bootcamp/Homework_4/VolcanoCoin.sol\":3334:3350  Payment[] memory */\n      0x60\n        /* \"contracts/ETH_Denver_Bootcamp/Homework_4/VolcanoCoin.sol\":3369:3378  transfers */\n      0x03\n        /* \"contracts/ETH_Denver_Bootcamp/Homework_4/VolcanoCoin.sol\":3369:3384  transfers[from] */\n      0x00\n        /* \"contracts/ETH_Denver_Bootcamp/Homework_4/VolcanoCoin.sol\":3379:3383  from */\n      dup4\n        /* \"contracts/ETH_Denver_Bootcamp/Homework_4/VolcanoCoin.sol\":3369:3384  transfers[from] */\n      0xffffffffffffffffffffffffffffffffffffffff\n      and\n      0xffffffffffffffffffffffffffffffffffffffff\n      and\n      dup2\n      mstore\n      0x20\n      add\n      swap1\n      dup2\n      mstore\n      0x20\n      add\n      0x00\n      keccak256\n        /* \"contracts/ETH_Denver_Bootcamp/Homework_4/VolcanoCoin.sol\":3362:3384  return transfers[from] */\n      dup1\n      sload\n      dup1\n      0x20\n      mul\n      0x20\n      add\n      mload(0x40)\n      swap1\n      dup2\n      add\n      0x40\n      mstore\n      dup1\n      swap3\n      swap2\n      swap1\n      dup2\n      dup2\n      mstore\n      0x20\n      add\n      0x00\n      swap1\n    tag_30:\n      dup3\n      dup3\n      lt\n      iszero\n      tag_31\n      jumpi\n      dup4\n      dup3\n      swap1\n      0x00\n      mstore\n      keccak256(0x00, 0x20)\n      swap1\n      0x02\n      mul\n      add\n      mload(0x40)\n      dup1\n      0x40\n      add\n      0x40\n      mstore\n      swap1\n      dup2\n      0x00\n      dup3\n      add\n      0x00\n      swap1\n      sload\n      swap1\n      0x0100\n      exp\n      swap1\n      div\n      0xffffffffffffffffffffffffffffffffffffffff\n      and\n      0xffffffffffffffffffffffffffffffffffffffff\n      and\n      0xffffffffffffffffffffffffffffffffffffffff\n      and\n      dup2\n      mstore\n      0x20\n      add\n      0x01\n      dup3\n      add\n      sload\n      dup2\n      mstore\n      pop\n      pop\n      dup2\n      mstore\n      0x20\n      add\n      swap1\n      0x01\n      add\n      swap1\n      jump(tag_30)\n    tag_31:\n      pop\n      pop\n      pop\n      pop\n      swap1\n      pop\n        /* \"contracts/ETH_Denver_Bootcamp/Homework_4/VolcanoCoin.sol\":3277:3392  function getTransfers(address from) public view returns (Payment[] memory){... */\n      swap2\n      swap1\n      pop\n      jump\t// out\n        /* \"contracts/ETH_Denver_Bootcamp/Homework_4/VolcanoCoin.sol\":2621:3227  function transfer(address to, uint amount) public {... */\n    tag_25:\n        /* \"contracts/ETH_Denver_Bootcamp/Homework_4/VolcanoCoin.sol\":2682:2694  uint balance */\n      0x00\n        /* \"contracts/ETH_Denver_Bootcamp/Homework_4/VolcanoCoin.sol\":2697:2705  balances */\n      0x02\n        /* \"contracts/ETH_Denver_Bootcamp/Homework_4/VolcanoCoin.sol\":2697:2717  balances[msg.sender] */\n      0x00\n        /* \"contracts/ETH_Denver_Bootcamp/Homework_4/VolcanoCoin.sol\":2706:2716  msg.sender */\n      caller\n        /* \"contracts/ETH_Denver_Bootcamp/Homework_4/VolcanoCoin.sol\":2697:2717  balances[msg.sender] */\n      0xffffffffffffffffffffffffffffffffffffffff\n      and\n      0xffffffffffffffffffffffffffffffffffffffff\n      and\n      dup2\n      mstore\n      0x20\n      add\n      swap1\n      dup2\n      mstore\n      0x20\n      add\n      0x00\n      keccak256\n      sload\n        /* \"contracts/ETH_Denver_Bootcamp/Homework_4/VolcanoCoin.sol\":2682:2717  uint balance = balances[msg.sender] */\n      swap1\n      pop\n        /* \"contracts/ETH_Denver_Bootcamp/Homework_4/VolcanoCoin.sol\":2742:2748  amount */\n      dup2\n        /* \"contracts/ETH_Denver_Bootcamp/Homework_4/VolcanoCoin.sol\":2732:2739  balance */\n      dup2\n        /* \"contracts/ETH_Denver_Bootcamp/Homework_4/VolcanoCoin.sol\":2732:2748  balance < amount */\n      lt\n        /* \"contracts/ETH_Denver_Bootcamp/Homework_4/VolcanoCoin.sol\":2728:2888  if (balance < amount)                                           // check token availability of current sender... */\n      iszero\n      tag_34\n      jumpi\n        /* \"contracts/ETH_Denver_Bootcamp/Homework_4/VolcanoCoin.sol\":2873:2879  amount */\n      dup2\n        /* \"contracts/ETH_Denver_Bootcamp/Homework_4/VolcanoCoin.sol\":2880:2887  balance */\n      dup2\n        /* \"contracts/ETH_Denver_Bootcamp/Homework_4/VolcanoCoin.sol\":2858:2888  NotEnoughFunds(amount,balance) */\n      mload(0x40)\n      0x8c90536800000000000000000000000000000000000000000000000000000000\n      dup2\n      mstore\n      0x04\n      add\n      tag_35\n      swap3\n      swap2\n      swap1\n      tag_36\n      jump\t// in\n    tag_35:\n      mload(0x40)\n      dup1\n      swap2\n      sub\n      swap1\n      revert\n        /* \"contracts/ETH_Denver_Bootcamp/Homework_4/VolcanoCoin.sol\":2728:2888  if (balance < amount)                                           // check token availability of current sender... */\n    tag_34:\n        /* \"contracts/ETH_Denver_Bootcamp/Homework_4/VolcanoCoin.sol\":2923:2929  amount */\n      dup2\n        /* \"contracts/ETH_Denver_Bootcamp/Homework_4/VolcanoCoin.sol\":2899:2907  balances */\n      0x02\n        /* \"contracts/ETH_Denver_Bootcamp/Homework_4/VolcanoCoin.sol\":2899:2919  balances[msg.sender] */\n      0x00\n        /* \"contracts/ETH_Denver_Bootcamp/Homework_4/VolcanoCoin.sol\":2908:2918  msg.sender */\n      caller\n        /* \"contracts/ETH_Denver_Bootcamp/Homework_4/VolcanoCoin.sol\":2899:2919  balances[msg.sender] */\n      0xffffffffffffffffffffffffffffffffffffffff\n      and\n      0xffffffffffffffffffffffffffffffffffffffff\n      and\n      dup2\n      mstore\n      0x20\n      add\n      swap1\n      dup2\n      mstore\n      0x20\n      add\n      0x00\n      keccak256\n      0x00\n        /* \"contracts/ETH_Denver_Bootcamp/Homework_4/VolcanoCoin.sol\":2899:2929  balances[msg.sender] -= amount */\n      dup3\n      dup3\n      sload\n      tag_37\n      swap2\n      swap1\n      tag_38\n      jump\t// in\n    tag_37:\n      swap3\n      pop\n      pop\n      dup2\n      swap1\n      sstore\n      pop\n        /* \"contracts/ETH_Denver_Bootcamp/Homework_4/VolcanoCoin.sol\":2956:2962  amount */\n      dup2\n        /* \"contracts/ETH_Denver_Bootcamp/Homework_4/VolcanoCoin.sol\":2940:2948  balances */\n      0x02\n        /* \"contracts/ETH_Denver_Bootcamp/Homework_4/VolcanoCoin.sol\":2940:2952  balances[to] */\n      0x00\n        /* \"contracts/ETH_Denver_Bootcamp/Homework_4/VolcanoCoin.sol\":2949:2951  to */\n      dup6\n        /* \"contracts/ETH_Denver_Bootcamp/Homework_4/VolcanoCoin.sol\":2940:2952  balances[to] */\n      0xffffffffffffffffffffffffffffffffffffffff\n      and\n      0xffffffffffffffffffffffffffffffffffffffff\n      and\n      dup2\n      mstore\n      0x20\n      add\n      swap1\n      dup2\n      mstore\n      0x20\n      add\n      0x00\n      keccak256\n      0x00\n        /* \"contracts/ETH_Denver_Bootcamp/Homework_4/VolcanoCoin.sol\":2940:2962  balances[to] += amount */\n      dup3\n      dup3\n      sload\n      tag_39\n      swap2\n      swap1\n      tag_40\n      jump\t// in\n    tag_39:\n      swap3\n      pop\n      pop\n      dup2\n      swap1\n      sstore\n      pop\n        /* \"contracts/ETH_Denver_Bootcamp/Homework_4/VolcanoCoin.sol\":2973:2982  transfers */\n      0x03\n        /* \"contracts/ETH_Denver_Bootcamp/Homework_4/VolcanoCoin.sol\":2973:2994  transfers[msg.sender] */\n      0x00\n        /* \"contracts/ETH_Denver_Bootcamp/Homework_4/VolcanoCoin.sol\":2983:2993  msg.sender */\n      caller\n        /* \"contracts/ETH_Denver_Bootcamp/Homework_4/VolcanoCoin.sol\":2973:2994  transfers[msg.sender] */\n      0xffffffffffffffffffffffffffffffffffffffff\n      and\n      0xffffffffffffffffffffffffffffffffffffffff\n      and\n      dup2\n      mstore\n      0x20\n      add\n      swap1\n      dup2\n      mstore\n      0x20\n      add\n      0x00\n      keccak256\n        /* \"contracts/ETH_Denver_Bootcamp/Homework_4/VolcanoCoin.sol\":3000:3018  Payment(to,amount) */\n      mload(0x40)\n      dup1\n      0x40\n      add\n      0x40\n      mstore\n      dup1\n        /* \"contracts/ETH_Denver_Bootcamp/Homework_4/VolcanoCoin.sol\":3008:3010  to */\n      dup6\n        /* \"contracts/ETH_Denver_Bootcamp/Homework_4/VolcanoCoin.sol\":3000:3018  Payment(to,amount) */\n      0xffffffffffffffffffffffffffffffffffffffff\n      and\n      dup2\n      mstore\n      0x20\n      add\n        /* \"contracts/ETH_Denver_Bootcamp/Homework_4/VolcanoCoin.sol\":3011:3017  amount */\n      dup5\n        /* \"contracts/ETH_Denver_Bootcamp/Homework_4/VolcanoCoin.sol\":3000:3018  Payment(to,amount) */\n      dup2\n      mstore\n      pop\n        /* \"contracts/ETH_Denver_Bootcamp/Homework_4/VolcanoCoin.sol\":2973:3019  transfers[msg.sender].push(Payment(to,amount)) */\n      swap1\n      dup1\n      0x01\n      dup2\n      sload\n      add\n      dup1\n      dup3\n      sstore\n      dup1\n      swap2\n      pop\n      pop\n      0x01\n      swap1\n      sub\n      swap1\n      0x00\n      mstore\n      keccak256(0x00, 0x20)\n      swap1\n      0x02\n      mul\n      add\n      0x00\n      swap1\n      swap2\n      swap1\n      swap2\n      swap1\n      swap2\n      pop\n      0x00\n      dup3\n      add\n      mload\n      dup2\n      0x00\n      add\n      exp(0x0100, 0x00)\n      dup2\n      sload\n      dup2\n      0xffffffffffffffffffffffffffffffffffffffff\n      mul\n      not\n      and\n      swap1\n      dup4\n      0xffffffffffffffffffffffffffffffffffffffff\n      and\n      mul\n      or\n      swap1\n      sstore\n      pop\n      0x20\n      dup3\n      add\n      mload\n      dup2\n      0x01\n      add\n      sstore\n      pop\n      pop\n        /* \"contracts/ETH_Denver_Bootcamp/Homework_4/VolcanoCoin.sol\":3148:3171  TransferData(amount,to) */\n      0xc93b3dc6d510aebde6bf73dcc5ff270ab2554bf5db86cc436e92ec9f185829e7\n        /* \"contracts/ETH_Denver_Bootcamp/Homework_4/VolcanoCoin.sol\":3161:3167  amount */\n      dup3\n        /* \"contracts/ETH_Denver_Bootcamp/Homework_4/VolcanoCoin.sol\":3168:3170  to */\n      dup5\n        /* \"contracts/ETH_Denver_Bootcamp/Homework_4/VolcanoCoin.sol\":3148:3171  TransferData(amount,to) */\n      mload(0x40)\n      tag_42\n      swap3\n      swap2\n      swap1\n      tag_43\n      jump\t// in\n    tag_42:\n      mload(0x40)\n      dup1\n      swap2\n      sub\n      swap1\n      log1\n        /* \"contracts/ETH_Denver_Bootcamp/Homework_4/VolcanoCoin.sol\":2671:3227  {... */\n      pop\n        /* \"contracts/ETH_Denver_Bootcamp/Homework_4/VolcanoCoin.sol\":2621:3227  function transfer(address to, uint amount) public {... */\n      pop\n      pop\n      jump\t// out\n        /* \"contracts/ETH_Denver_Bootcamp/Homework_4/VolcanoCoin.sol\":2024:2526  function setSupply() public onlyOwner {... */\n    tag_27:\n        /* \"contracts/ETH_Denver_Bootcamp/Homework_4/VolcanoCoin.sol\":1591:1596  owner */\n      0x00\n      dup1\n      sload\n      swap1\n      0x0100\n      exp\n      swap1\n      div\n      0xffffffffffffffffffffffffffffffffffffffff\n      and\n        /* \"contracts/ETH_Denver_Bootcamp/Homework_4/VolcanoCoin.sol\":1577:1596  msg.sender == owner */\n      0xffffffffffffffffffffffffffffffffffffffff\n      and\n        /* \"contracts/ETH_Denver_Bootcamp/Homework_4/VolcanoCoin.sol\":1577:1587  msg.sender */\n      caller\n        /* \"contracts/ETH_Denver_Bootcamp/Homework_4/VolcanoCoin.sol\":1577:1596  msg.sender == owner */\n      0xffffffffffffffffffffffffffffffffffffffff\n      and\n      sub\n        /* \"contracts/ETH_Denver_Bootcamp/Homework_4/VolcanoCoin.sol\":1573:1626  if (msg.sender == owner) {... */\n      tag_45\n      jumpi\n        /* \"contracts/ETH_Denver_Bootcamp/Homework_4/VolcanoCoin.sol\":2073:2097  uint previousTotalSupply */\n      0x00\n        /* \"contracts/ETH_Denver_Bootcamp/Homework_4/VolcanoCoin.sol\":2100:2111  totalSupply */\n      sload(0x01)\n        /* \"contracts/ETH_Denver_Bootcamp/Homework_4/VolcanoCoin.sol\":2073:2111  uint previousTotalSupply = totalSupply */\n      swap1\n      pop\n        /* \"contracts/ETH_Denver_Bootcamp/Homework_4/VolcanoCoin.sol\":2137:2141  1000 */\n      0x03e8\n        /* \"contracts/ETH_Denver_Bootcamp/Homework_4/VolcanoCoin.sol\":2122:2133  totalSupply */\n      0x01\n      0x00\n        /* \"contracts/ETH_Denver_Bootcamp/Homework_4/VolcanoCoin.sol\":2122:2141  totalSupply += 1000 */\n      dup3\n      dup3\n      sload\n      tag_47\n      swap2\n      swap1\n      tag_40\n      jump\t// in\n    tag_47:\n      swap3\n      pop\n      pop\n      dup2\n      swap1\n      sstore\n      pop\n        /* \"contracts/ETH_Denver_Bootcamp/Homework_4/VolcanoCoin.sol\":2236:2247  totalSupply */\n      sload(0x01)\n        /* \"contracts/ETH_Denver_Bootcamp/Homework_4/VolcanoCoin.sol\":2218:2226  balances */\n      0x02\n        /* \"contracts/ETH_Denver_Bootcamp/Homework_4/VolcanoCoin.sol\":2218:2233  balances[owner] */\n      0x00\n        /* \"contracts/ETH_Denver_Bootcamp/Homework_4/VolcanoCoin.sol\":2227:2232  owner */\n      dup1\n      0x00\n      swap1\n      sload\n      swap1\n      0x0100\n      exp\n      swap1\n      div\n      0xffffffffffffffffffffffffffffffffffffffff\n      and\n        /* \"contracts/ETH_Denver_Bootcamp/Homework_4/VolcanoCoin.sol\":2218:2233  balances[owner] */\n      0xffffffffffffffffffffffffffffffffffffffff\n      and\n      0xffffffffffffffffffffffffffffffffffffffff\n      and\n      dup2\n      mstore\n      0x20\n      add\n      swap1\n      dup2\n      mstore\n      0x20\n      add\n      0x00\n      keccak256\n        /* \"contracts/ETH_Denver_Bootcamp/Homework_4/VolcanoCoin.sol\":2218:2247  balances[owner] = totalSupply */\n      dup2\n      swap1\n      sstore\n      pop\n        /* \"contracts/ETH_Denver_Bootcamp/Homework_4/VolcanoCoin.sol\":2399:2418  previousTotalSupply */\n      dup1\n        /* \"contracts/ETH_Denver_Bootcamp/Homework_4/VolcanoCoin.sol\":2384:2395  totalSupply */\n      sload(0x01)\n        /* \"contracts/ETH_Denver_Bootcamp/Homework_4/VolcanoCoin.sol\":2384:2418  totalSupply != previousTotalSupply */\n      eq\n        /* \"contracts/ETH_Denver_Bootcamp/Homework_4/VolcanoCoin.sol\":2380:2519  if (totalSupply != previousTotalSupply) {... */\n      tag_48\n      jumpi\n        /* \"contracts/ETH_Denver_Bootcamp/Homework_4/VolcanoCoin.sol\":2440:2485  SupplyChange(previousTotalSupply,totalSupply) */\n      0x511f5b61bdfae17b57b5c46b525583881874446ae299eb1fd8cece6e79c8fe2e\n        /* \"contracts/ETH_Denver_Bootcamp/Homework_4/VolcanoCoin.sol\":2453:2472  previousTotalSupply */\n      dup2\n        /* \"contracts/ETH_Denver_Bootcamp/Homework_4/VolcanoCoin.sol\":2473:2484  totalSupply */\n      sload(0x01)\n        /* \"contracts/ETH_Denver_Bootcamp/Homework_4/VolcanoCoin.sol\":2440:2485  SupplyChange(previousTotalSupply,totalSupply) */\n      mload(0x40)\n      tag_49\n      swap3\n      swap2\n      swap1\n      tag_36\n      jump\t// in\n    tag_49:\n      mload(0x40)\n      dup1\n      swap2\n      sub\n      swap1\n      log1\n        /* \"contracts/ETH_Denver_Bootcamp/Homework_4/VolcanoCoin.sol\":2380:2519  if (totalSupply != previousTotalSupply) {... */\n    tag_48:\n        /* \"contracts/ETH_Denver_Bootcamp/Homework_4/VolcanoCoin.sol\":2062:2526  {... */\n      pop\n        /* \"contracts/ETH_Denver_Bootcamp/Homework_4/VolcanoCoin.sol\":1573:1626  if (msg.sender == owner) {... */\n    tag_45:\n        /* \"contracts/ETH_Denver_Bootcamp/Homework_4/VolcanoCoin.sol\":2024:2526  function setSupply() public onlyOwner {... */\n      jump\t// out\n        /* \"#utility.yul\":88:205   */\n    tag_51:\n        /* \"#utility.yul\":197:198   */\n      0x00\n        /* \"#utility.yul\":194:195   */\n      dup1\n        /* \"#utility.yul\":187:199   */\n      revert\n        /* \"#utility.yul\":334:460   */\n    tag_53:\n        /* \"#utility.yul\":371:378   */\n      0x00\n        /* \"#utility.yul\":411:453   */\n      0xffffffffffffffffffffffffffffffffffffffff\n        /* \"#utility.yul\":404:409   */\n      dup3\n        /* \"#utility.yul\":400:454   */\n      and\n        /* \"#utility.yul\":389:454   */\n      swap1\n      pop\n        /* \"#utility.yul\":334:460   */\n      swap2\n      swap1\n      pop\n      jump\t// out\n        /* \"#utility.yul\":466:562   */\n    tag_54:\n        /* \"#utility.yul\":503:510   */\n      0x00\n        /* \"#utility.yul\":532:556   */\n      tag_78\n        /* \"#utility.yul\":550:555   */\n      dup3\n        /* \"#utility.yul\":532:556   */\n      tag_53\n      jump\t// in\n    tag_78:\n        /* \"#utility.yul\":521:556   */\n      swap1\n      pop\n        /* \"#utility.yul\":466:562   */\n      swap2\n      swap1\n      pop\n      jump\t// out\n        /* \"#utility.yul\":568:690   */\n    tag_55:\n        /* \"#utility.yul\":641:665   */\n      tag_80\n        /* \"#utility.yul\":659:664   */\n      dup2\n        /* \"#utility.yul\":641:665   */\n      tag_54\n      jump\t// in\n    tag_80:\n        /* \"#utility.yul\":634:639   */\n      dup2\n        /* \"#utility.yul\":631:666   */\n      eq\n        /* \"#utility.yul\":621:684   */\n      tag_81\n      jumpi\n        /* \"#utility.yul\":680:681   */\n      0x00\n        /* \"#utility.yul\":677:678   */\n      dup1\n        /* \"#utility.yul\":670:682   */\n      revert\n        /* \"#utility.yul\":621:684   */\n    tag_81:\n        /* \"#utility.yul\":568:690   */\n      pop\n      jump\t// out\n        /* \"#utility.yul\":696:835   */\n    tag_56:\n        /* \"#utility.yul\":742:747   */\n      0x00\n        /* \"#utility.yul\":780:786   */\n      dup2\n        /* \"#utility.yul\":767:787   */\n      calldataload\n        /* \"#utility.yul\":758:787   */\n      swap1\n      pop\n        /* \"#utility.yul\":796:829   */\n      tag_83\n        /* \"#utility.yul\":823:828   */\n      dup2\n        /* \"#utility.yul\":796:829   */\n      tag_55\n      jump\t// in\n    tag_83:\n        /* \"#utility.yul\":696:835   */\n      swap3\n      swap2\n      pop\n      pop\n      jump\t// out\n        /* \"#utility.yul\":841:1170   */\n    tag_10:\n        /* \"#utility.yul\":900:906   */\n      0x00\n        /* \"#utility.yul\":949:951   */\n      0x20\n        /* \"#utility.yul\":937:946   */\n      dup3\n        /* \"#utility.yul\":928:935   */\n      dup5\n        /* \"#utility.yul\":924:947   */\n      sub\n        /* \"#utility.yul\":920:952   */\n      slt\n        /* \"#utility.yul\":917:1036   */\n      iszero\n      tag_85\n      jumpi\n        /* \"#utility.yul\":955:1034   */\n      tag_86\n      tag_51\n      jump\t// in\n    tag_86:\n        /* \"#utility.yul\":917:1036   */\n    tag_85:\n        /* \"#utility.yul\":1075:1076   */\n      0x00\n        /* \"#utility.yul\":1100:1153   */\n      tag_87\n        /* \"#utility.yul\":1145:1152   */\n      dup5\n        /* \"#utility.yul\":1136:1142   */\n      dup3\n        /* \"#utility.yul\":1125:1134   */\n      dup6\n        /* \"#utility.yul\":1121:1143   */\n      add\n        /* \"#utility.yul\":1100:1153   */\n      tag_56\n      jump\t// in\n    tag_87:\n        /* \"#utility.yul\":1090:1153   */\n      swap2\n      pop\n        /* \"#utility.yul\":1046:1163   */\n      pop\n        /* \"#utility.yul\":841:1170   */\n      swap3\n      swap2\n      pop\n      pop\n      jump\t// out\n        /* \"#utility.yul\":1176:1253   */\n    tag_57:\n        /* \"#utility.yul\":1213:1220   */\n      0x00\n        /* \"#utility.yul\":1242:1247   */\n      dup2\n        /* \"#utility.yul\":1231:1247   */\n      swap1\n      pop\n        /* \"#utility.yul\":1176:1253   */\n      swap2\n      swap1\n      pop\n      jump\t// out\n        /* \"#utility.yul\":1259:1377   */\n    tag_58:\n        /* \"#utility.yul\":1346:1370   */\n      tag_90\n        /* \"#utility.yul\":1364:1369   */\n      dup2\n        /* \"#utility.yul\":1346:1370   */\n      tag_57\n      jump\t// in\n    tag_90:\n        /* \"#utility.yul\":1341:1344   */\n      dup3\n        /* \"#utility.yul\":1334:1371   */\n      mstore\n        /* \"#utility.yul\":1259:1377   */\n      pop\n      pop\n      jump\t// out\n        /* \"#utility.yul\":1383:1605   */\n    tag_13:\n        /* \"#utility.yul\":1476:1480   */\n      0x00\n        /* \"#utility.yul\":1514:1516   */\n      0x20\n        /* \"#utility.yul\":1503:1512   */\n      dup3\n        /* \"#utility.yul\":1499:1517   */\n      add\n        /* \"#utility.yul\":1491:1517   */\n      swap1\n      pop\n        /* \"#utility.yul\":1527:1598   */\n      tag_92\n        /* \"#utility.yul\":1595:1596   */\n      0x00\n        /* \"#utility.yul\":1584:1593   */\n      dup4\n        /* \"#utility.yul\":1580:1597   */\n      add\n        /* \"#utility.yul\":1571:1577   */\n      dup5\n        /* \"#utility.yul\":1527:1598   */\n      tag_58\n      jump\t// in\n    tag_92:\n        /* \"#utility.yul\":1383:1605   */\n      swap3\n      swap2\n      pop\n      pop\n      jump\t// out\n        /* \"#utility.yul\":1611:1748   */\n    tag_59:\n        /* \"#utility.yul\":1701:1707   */\n      0x00\n        /* \"#utility.yul\":1735:1740   */\n      dup2\n        /* \"#utility.yul\":1729:1741   */\n      mload\n        /* \"#utility.yul\":1719:1741   */\n      swap1\n      pop\n        /* \"#utility.yul\":1611:1748   */\n      swap2\n      swap1\n      pop\n      jump\t// out\n        /* \"#utility.yul\":1754:1961   */\n    tag_60:\n        /* \"#utility.yul\":1876:1887   */\n      0x00\n        /* \"#utility.yul\":1910:1916   */\n      dup3\n        /* \"#utility.yul\":1905:1908   */\n      dup3\n        /* \"#utility.yul\":1898:1917   */\n      mstore\n        /* \"#utility.yul\":1950:1954   */\n      0x20\n        /* \"#utility.yul\":1945:1948   */\n      dup3\n        /* \"#utility.yul\":1941:1955   */\n      add\n        /* \"#utility.yul\":1926:1955   */\n      swap1\n      pop\n        /* \"#utility.yul\":1754:1961   */\n      swap3\n      swap2\n      pop\n      pop\n      jump\t// out\n        /* \"#utility.yul\":1967:2122   */\n    tag_61:\n        /* \"#utility.yul\":2057:2061   */\n      0x00\n        /* \"#utility.yul\":2080:2083   */\n      dup2\n        /* \"#utility.yul\":2072:2083   */\n      swap1\n      pop\n        /* \"#utility.yul\":2110:2114   */\n      0x20\n        /* \"#utility.yul\":2105:2108   */\n      dup3\n        /* \"#utility.yul\":2101:2115   */\n      add\n        /* \"#utility.yul\":2093:2115   */\n      swap1\n      pop\n        /* \"#utility.yul\":1967:2122   */\n      swap2\n      swap1\n      pop\n      jump\t// out\n        /* \"#utility.yul\":2128:2236   */\n    tag_62:\n        /* \"#utility.yul\":2205:2229   */\n      tag_97\n        /* \"#utility.yul\":2223:2228   */\n      dup2\n        /* \"#utility.yul\":2205:2229   */\n      tag_54\n      jump\t// in\n    tag_97:\n        /* \"#utility.yul\":2200:2203   */\n      dup3\n        /* \"#utility.yul\":2193:2230   */\n      mstore\n        /* \"#utility.yul\":2128:2236   */\n      pop\n      pop\n      jump\t// out\n        /* \"#utility.yul\":2242:2350   */\n    tag_63:\n        /* \"#utility.yul\":2319:2343   */\n      tag_99\n        /* \"#utility.yul\":2337:2342   */\n      dup2\n        /* \"#utility.yul\":2319:2343   */\n      tag_57\n      jump\t// in\n    tag_99:\n        /* \"#utility.yul\":2314:2317   */\n      dup3\n        /* \"#utility.yul\":2307:2344   */\n      mstore\n        /* \"#utility.yul\":2242:2350   */\n      pop\n      pop\n      jump\t// out\n        /* \"#utility.yul\":2420:2920   */\n    tag_64:\n        /* \"#utility.yul\":2553:2557   */\n      0x40\n        /* \"#utility.yul\":2548:2551   */\n      dup3\n        /* \"#utility.yul\":2544:2558   */\n      add\n        /* \"#utility.yul\":2645:2649   */\n      0x00\n        /* \"#utility.yul\":2638:2643   */\n      dup3\n        /* \"#utility.yul\":2634:2650   */\n      add\n        /* \"#utility.yul\":2628:2651   */\n      mload\n        /* \"#utility.yul\":2664:2727   */\n      tag_101\n        /* \"#utility.yul\":2721:2725   */\n      0x00\n        /* \"#utility.yul\":2716:2719   */\n      dup6\n        /* \"#utility.yul\":2712:2726   */\n      add\n        /* \"#utility.yul\":2698:2710   */\n      dup3\n        /* \"#utility.yul\":2664:2727   */\n      tag_62\n      jump\t// in\n    tag_101:\n        /* \"#utility.yul\":2568:2737   */\n      pop\n        /* \"#utility.yul\":2821:2825   */\n      0x20\n        /* \"#utility.yul\":2814:2819   */\n      dup3\n        /* \"#utility.yul\":2810:2826   */\n      add\n        /* \"#utility.yul\":2804:2827   */\n      mload\n        /* \"#utility.yul\":2840:2903   */\n      tag_102\n        /* \"#utility.yul\":2897:2901   */\n      0x20\n        /* \"#utility.yul\":2892:2895   */\n      dup6\n        /* \"#utility.yul\":2888:2902   */\n      add\n        /* \"#utility.yul\":2874:2886   */\n      dup3\n        /* \"#utility.yul\":2840:2903   */\n      tag_63\n      jump\t// in\n    tag_102:\n        /* \"#utility.yul\":2747:2913   */\n      pop\n        /* \"#utility.yul\":2522:2920   */\n      pop\n        /* \"#utility.yul\":2420:2920   */\n      pop\n      pop\n      jump\t// out\n        /* \"#utility.yul\":2926:3197   */\n    tag_65:\n        /* \"#utility.yul\":3041:3051   */\n      0x00\n        /* \"#utility.yul\":3062:3154   */\n      tag_104\n        /* \"#utility.yul\":3150:3153   */\n      dup4\n        /* \"#utility.yul\":3142:3148   */\n      dup4\n        /* \"#utility.yul\":3062:3154   */\n      tag_64\n      jump\t// in\n    tag_104:\n        /* \"#utility.yul\":3186:3190   */\n      0x40\n        /* \"#utility.yul\":3181:3184   */\n      dup4\n        /* \"#utility.yul\":3177:3191   */\n      add\n        /* \"#utility.yul\":3163:3191   */\n      swap1\n      pop\n        /* \"#utility.yul\":2926:3197   */\n      swap3\n      swap2\n      pop\n      pop\n      jump\t// out\n        /* \"#utility.yul\":3203:3339   */\n    tag_66:\n        /* \"#utility.yul\":3296:3300   */\n      0x00\n        /* \"#utility.yul\":3328:3332   */\n      0x20\n        /* \"#utility.yul\":3323:3326   */\n      dup3\n        /* \"#utility.yul\":3319:3333   */\n      add\n        /* \"#utility.yul\":3311:3333   */\n      swap1\n      pop\n        /* \"#utility.yul\":3203:3339   */\n      swap2\n      swap1\n      pop\n      jump\t// out\n        /* \"#utility.yul\":3413:4329   */\n    tag_67:\n        /* \"#utility.yul\":3578:3581   */\n      0x00\n        /* \"#utility.yul\":3607:3684   */\n      tag_107\n        /* \"#utility.yul\":3678:3683   */\n      dup3\n        /* \"#utility.yul\":3607:3684   */\n      tag_59\n      jump\t// in\n    tag_107:\n        /* \"#utility.yul\":3700:3809   */\n      tag_108\n        /* \"#utility.yul\":3802:3808   */\n      dup2\n        /* \"#utility.yul\":3797:3800   */\n      dup6\n        /* \"#utility.yul\":3700:3809   */\n      tag_60\n      jump\t// in\n    tag_108:\n        /* \"#utility.yul\":3693:3809   */\n      swap4\n      pop\n        /* \"#utility.yul\":3833:3912   */\n      tag_109\n        /* \"#utility.yul\":3906:3911   */\n      dup4\n        /* \"#utility.yul\":3833:3912   */\n      tag_61\n      jump\t// in\n    tag_109:\n        /* \"#utility.yul\":3935:3942   */\n      dup1\n        /* \"#utility.yul\":3966:3967   */\n      0x00\n        /* \"#utility.yul\":3951:4304   */\n    tag_110:\n        /* \"#utility.yul\":3976:3982   */\n      dup4\n        /* \"#utility.yul\":3973:3974   */\n      dup2\n        /* \"#utility.yul\":3970:3983   */\n      lt\n        /* \"#utility.yul\":3951:4304   */\n      iszero\n      tag_112\n      jumpi\n        /* \"#utility.yul\":4052:4058   */\n      dup2\n        /* \"#utility.yul\":4046:4059   */\n      mload\n        /* \"#utility.yul\":4079:4188   */\n      tag_113\n        /* \"#utility.yul\":4184:4187   */\n      dup9\n        /* \"#utility.yul\":4169:4182   */\n      dup3\n        /* \"#utility.yul\":4079:4188   */\n      tag_65\n      jump\t// in\n    tag_113:\n        /* \"#utility.yul\":4072:4188   */\n      swap8\n      pop\n        /* \"#utility.yul\":4211:4294   */\n      tag_114\n        /* \"#utility.yul\":4287:4293   */\n      dup4\n        /* \"#utility.yul\":4211:4294   */\n      tag_66\n      jump\t// in\n    tag_114:\n        /* \"#utility.yul\":4201:4294   */\n      swap3\n      pop\n        /* \"#utility.yul\":4011:4304   */\n      pop\n        /* \"#utility.yul\":3998:3999   */\n      0x01\n        /* \"#utility.yul\":3995:3996   */\n      dup2\n        /* \"#utility.yul\":3991:4000   */\n      add\n        /* \"#utility.yul\":3986:4000   */\n      swap1\n      pop\n        /* \"#utility.yul\":3951:4304   */\n      jump(tag_110)\n    tag_112:\n        /* \"#utility.yul\":3955:3969   */\n      pop\n        /* \"#utility.yul\":4320:4323   */\n      dup6\n        /* \"#utility.yul\":4313:4323   */\n      swap4\n      pop\n        /* \"#utility.yul\":3583:4329   */\n      pop\n      pop\n      pop\n        /* \"#utility.yul\":3413:4329   */\n      swap3\n      swap2\n      pop\n      pop\n      jump\t// out\n        /* \"#utility.yul\":4335:4800   */\n    tag_21:\n        /* \"#utility.yul\":4524:4528   */\n      0x00\n        /* \"#utility.yul\":4562:4564   */\n      0x20\n        /* \"#utility.yul\":4551:4560   */\n      dup3\n        /* \"#utility.yul\":4547:4565   */\n      add\n        /* \"#utility.yul\":4539:4565   */\n      swap1\n      pop\n        /* \"#utility.yul\":4611:4620   */\n      dup2\n        /* \"#utility.yul\":4605:4609   */\n      dup2\n        /* \"#utility.yul\":4601:4621   */\n      sub\n        /* \"#utility.yul\":4597:4598   */\n      0x00\n        /* \"#utility.yul\":4586:4595   */\n      dup4\n        /* \"#utility.yul\":4582:4599   */\n      add\n        /* \"#utility.yul\":4575:4622   */\n      mstore\n        /* \"#utility.yul\":4639:4793   */\n      tag_116\n        /* \"#utility.yul\":4788:4792   */\n      dup2\n        /* \"#utility.yul\":4779:4785   */\n      dup5\n        /* \"#utility.yul\":4639:4793   */\n      tag_67\n      jump\t// in\n    tag_116:\n        /* \"#utility.yul\":4631:4793   */\n      swap1\n      pop\n        /* \"#utility.yul\":4335:4800   */\n      swap3\n      swap2\n      pop\n      pop\n      jump\t// out\n        /* \"#utility.yul\":4806:4928   */\n    tag_68:\n        /* \"#utility.yul\":4879:4903   */\n      tag_118\n        /* \"#utility.yul\":4897:4902   */\n      dup2\n        /* \"#utility.yul\":4879:4903   */\n      tag_57\n      jump\t// in\n    tag_118:\n        /* \"#utility.yul\":4872:4877   */\n      dup2\n        /* \"#utility.yul\":4869:4904   */\n      eq\n        /* \"#utility.yul\":4859:4922   */\n      tag_119\n      jumpi\n        /* \"#utility.yul\":4918:4919   */\n      0x00\n        /* \"#utility.yul\":4915:4916   */\n      dup1\n        /* \"#utility.yul\":4908:4920   */\n      revert\n        /* \"#utility.yul\":4859:4922   */\n    tag_119:\n        /* \"#utility.yul\":4806:4928   */\n      pop\n      jump\t// out\n        /* \"#utility.yul\":4934:5073   */\n    tag_69:\n        /* \"#utility.yul\":4980:4985   */\n      0x00\n        /* \"#utility.yul\":5018:5024   */\n      dup2\n        /* \"#utility.yul\":5005:5025   */\n      calldataload\n        /* \"#utility.yul\":4996:5025   */\n      swap1\n      pop\n        /* \"#utility.yul\":5034:5067   */\n      tag_121\n        /* \"#utility.yul\":5061:5066   */\n      dup2\n        /* \"#utility.yul\":5034:5067   */\n      tag_68\n      jump\t// in\n    tag_121:\n        /* \"#utility.yul\":4934:5073   */\n      swap3\n      swap2\n      pop\n      pop\n      jump\t// out\n        /* \"#utility.yul\":5079:5553   */\n    tag_24:\n        /* \"#utility.yul\":5147:5153   */\n      0x00\n        /* \"#utility.yul\":5155:5161   */\n      dup1\n        /* \"#utility.yul\":5204:5206   */\n      0x40\n        /* \"#utility.yul\":5192:5201   */\n      dup4\n        /* \"#utility.yul\":5183:5190   */\n      dup6\n        /* \"#utility.yul\":5179:5202   */\n      sub\n        /* \"#utility.yul\":5175:5207   */\n      slt\n        /* \"#utility.yul\":5172:5291   */\n      iszero\n      tag_123\n      jumpi\n        /* \"#utility.yul\":5210:5289   */\n      tag_124\n      tag_51\n      jump\t// in\n    tag_124:\n        /* \"#utility.yul\":5172:5291   */\n    tag_123:\n        /* \"#utility.yul\":5330:5331   */\n      0x00\n        /* \"#utility.yul\":5355:5408   */\n      tag_125\n        /* \"#utility.yul\":5400:5407   */\n      dup6\n        /* \"#utility.yul\":5391:5397   */\n      dup3\n        /* \"#utility.yul\":5380:5389   */\n      dup7\n        /* \"#utility.yul\":5376:5398   */\n      add\n        /* \"#utility.yul\":5355:5408   */\n      tag_56\n      jump\t// in\n    tag_125:\n        /* \"#utility.yul\":5345:5408   */\n      swap3\n      pop\n        /* \"#utility.yul\":5301:5418   */\n      pop\n        /* \"#utility.yul\":5457:5459   */\n      0x20\n        /* \"#utility.yul\":5483:5536   */\n      tag_126\n        /* \"#utility.yul\":5528:5535   */\n      dup6\n        /* \"#utility.yul\":5519:5525   */\n      dup3\n        /* \"#utility.yul\":5508:5517   */\n      dup7\n        /* \"#utility.yul\":5504:5526   */\n      add\n        /* \"#utility.yul\":5483:5536   */\n      tag_69\n      jump\t// in\n    tag_126:\n        /* \"#utility.yul\":5473:5536   */\n      swap2\n      pop\n        /* \"#utility.yul\":5428:5546   */\n      pop\n        /* \"#utility.yul\":5079:5553   */\n      swap3\n      pop\n      swap3\n      swap1\n      pop\n      jump\t// out\n        /* \"#utility.yul\":5559:5891   */\n    tag_36:\n        /* \"#utility.yul\":5680:5684   */\n      0x00\n        /* \"#utility.yul\":5718:5720   */\n      0x40\n        /* \"#utility.yul\":5707:5716   */\n      dup3\n        /* \"#utility.yul\":5703:5721   */\n      add\n        /* \"#utility.yul\":5695:5721   */\n      swap1\n      pop\n        /* \"#utility.yul\":5731:5802   */\n      tag_128\n        /* \"#utility.yul\":5799:5800   */\n      0x00\n        /* \"#utility.yul\":5788:5797   */\n      dup4\n        /* \"#utility.yul\":5784:5801   */\n      add\n        /* \"#utility.yul\":5775:5781   */\n      dup6\n        /* \"#utility.yul\":5731:5802   */\n      tag_58\n      jump\t// in\n    tag_128:\n        /* \"#utility.yul\":5812:5884   */\n      tag_129\n        /* \"#utility.yul\":5880:5882   */\n      0x20\n        /* \"#utility.yul\":5869:5878   */\n      dup4\n        /* \"#utility.yul\":5865:5883   */\n      add\n        /* \"#utility.yul\":5856:5862   */\n      dup5\n        /* \"#utility.yul\":5812:5884   */\n      tag_58\n      jump\t// in\n    tag_129:\n        /* \"#utility.yul\":5559:5891   */\n      swap4\n      swap3\n      pop\n      pop\n      pop\n      jump\t// out\n        /* \"#utility.yul\":5897:6077   */\n    tag_70:\n        /* \"#utility.yul\":5945:6022   */\n      0x4e487b7100000000000000000000000000000000000000000000000000000000\n        /* \"#utility.yul\":5942:5943   */\n      0x00\n        /* \"#utility.yul\":5935:6023   */\n      mstore\n        /* \"#utility.yul\":6042:6046   */\n      0x11\n        /* \"#utility.yul\":6039:6040   */\n      0x04\n        /* \"#utility.yul\":6032:6047   */\n      mstore\n        /* \"#utility.yul\":6066:6070   */\n      0x24\n        /* \"#utility.yul\":6063:6064   */\n      0x00\n        /* \"#utility.yul\":6056:6071   */\n      revert\n        /* \"#utility.yul\":6083:6277   */\n    tag_38:\n        /* \"#utility.yul\":6123:6127   */\n      0x00\n        /* \"#utility.yul\":6143:6163   */\n      tag_132\n        /* \"#utility.yul\":6161:6162   */\n      dup3\n        /* \"#utility.yul\":6143:6163   */\n      tag_57\n      jump\t// in\n    tag_132:\n        /* \"#utility.yul\":6138:6163   */\n      swap2\n      pop\n        /* \"#utility.yul\":6177:6197   */\n      tag_133\n        /* \"#utility.yul\":6195:6196   */\n      dup4\n        /* \"#utility.yul\":6177:6197   */\n      tag_57\n      jump\t// in\n    tag_133:\n        /* \"#utility.yul\":6172:6197   */\n      swap3\n      pop\n        /* \"#utility.yul\":6221:6222   */\n      dup3\n        /* \"#utility.yul\":6218:6219   */\n      dup3\n        /* \"#utility.yul\":6214:6223   */\n      sub\n        /* \"#utility.yul\":6206:6223   */\n      swap1\n      pop\n        /* \"#utility.yul\":6245:6246   */\n      dup2\n        /* \"#utility.yul\":6239:6243   */\n      dup2\n        /* \"#utility.yul\":6236:6247   */\n      gt\n        /* \"#utility.yul\":6233:6270   */\n      iszero\n      tag_134\n      jumpi\n        /* \"#utility.yul\":6250:6268   */\n      tag_135\n      tag_70\n      jump\t// in\n    tag_135:\n        /* \"#utility.yul\":6233:6270   */\n    tag_134:\n        /* \"#utility.yul\":6083:6277   */\n      swap3\n      swap2\n      pop\n      pop\n      jump\t// out\n        /* \"#utility.yul\":6283:6474   */\n    tag_40:\n        /* \"#utility.yul\":6323:6326   */\n      0x00\n        /* \"#utility.yul\":6342:6362   */\n      tag_137\n        /* \"#utility.yul\":6360:6361   */\n      dup3\n        /* \"#utility.yul\":6342:6362   */\n      tag_57\n      jump\t// in\n    tag_137:\n        /* \"#utility.yul\":6337:6362   */\n      swap2\n      pop\n        /* \"#utility.yul\":6376:6396   */\n      tag_138\n        /* \"#utility.yul\":6394:6395   */\n      dup4\n        /* \"#utility.yul\":6376:6396   */\n      tag_57\n      jump\t// in\n    tag_138:\n        /* \"#utility.yul\":6371:6396   */\n      swap3\n      pop\n        /* \"#utility.yul\":6419:6420   */\n      dup3\n        /* \"#utility.yul\":6416:6417   */\n      dup3\n        /* \"#utility.yul\":6412:6421   */\n      add\n        /* \"#utility.yul\":6405:6421   */\n      swap1\n      pop\n        /* \"#utility.yul\":6440:6443   */\n      dup1\n        /* \"#utility.yul\":6437:6438   */\n      dup3\n        /* \"#utility.yul\":6434:6444   */\n      gt\n        /* \"#utility.yul\":6431:6467   */\n      iszero\n      tag_139\n      jumpi\n        /* \"#utility.yul\":6447:6465   */\n      tag_140\n      tag_70\n      jump\t// in\n    tag_140:\n        /* \"#utility.yul\":6431:6467   */\n    tag_139:\n        /* \"#utility.yul\":6283:6474   */\n      swap3\n      swap2\n      pop\n      pop\n      jump\t// out\n        /* \"#utility.yul\":6480:6598   */\n    tag_71:\n        /* \"#utility.yul\":6567:6591   */\n      tag_142\n        /* \"#utility.yul\":6585:6590   */\n      dup2\n        /* \"#utility.yul\":6567:6591   */\n      tag_54\n      jump\t// in\n    tag_142:\n        /* \"#utility.yul\":6562:6565   */\n      dup3\n        /* \"#utility.yul\":6555:6592   */\n      mstore\n        /* \"#utility.yul\":6480:6598   */\n      pop\n      pop\n      jump\t// out\n        /* \"#utility.yul\":6604:6936   */\n    tag_43:\n        /* \"#utility.yul\":6725:6729   */\n      0x00\n        /* \"#utility.yul\":6763:6765   */\n      0x40\n        /* \"#utility.yul\":6752:6761   */\n      dup3\n        /* \"#utility.yul\":6748:6766   */\n      add\n        /* \"#utility.yul\":6740:6766   */\n      swap1\n      pop\n        /* \"#utility.yul\":6776:6847   */\n      tag_144\n        /* \"#utility.yul\":6844:6845   */\n      0x00\n        /* \"#utility.yul\":6833:6842   */\n      dup4\n        /* \"#utility.yul\":6829:6846   */\n      add\n        /* \"#utility.yul\":6820:6826   */\n      dup6\n        /* \"#utility.yul\":6776:6847   */\n      tag_58\n      jump\t// in\n    tag_144:\n        /* \"#utility.yul\":6857:6929   */\n      tag_145\n        /* \"#utility.yul\":6925:6927   */\n      0x20\n        /* \"#utility.yul\":6914:6923   */\n      dup4\n        /* \"#utility.yul\":6910:6928   */\n      add\n        /* \"#utility.yul\":6901:6907   */\n      dup5\n        /* \"#utility.yul\":6857:6929   */\n      tag_71\n      jump\t// in\n    tag_145:\n        /* \"#utility.yul\":6604:6936   */\n      swap4\n      swap3\n      pop\n      pop\n      pop\n      jump\t// out\n\n    auxdata: 0xa2646970667358221220160372f6d3e3b04e37063bae584002e3714411a94359bfefd6ae9238962305d164736f6c63430008110033\n}\n",
				"bytecode": {
					"linkReferences": {},
					"object": "608060405261271060015534801561001657600080fd5b50336000806101000a81548173ffffffffffffffffffffffffffffffffffffffff021916908373ffffffffffffffffffffffffffffffffffffffff160217905550600154600260008060009054906101000a900473ffffffffffffffffffffffffffffffffffffffff1673ffffffffffffffffffffffffffffffffffffffff1673ffffffffffffffffffffffffffffffffffffffff1681526020019081526020016000208190555061091c806100cd6000396000f3fe608060405234801561001057600080fd5b50600436106100575760003560e01c806327e235e31461005c5780636c9c2faf1461008c5780636d91c9cb146100aa578063a9059cbb146100da578063b743ccbd146100f6575b600080fd5b61007660048036038101906100719190610603565b610100565b6040516100839190610649565b60405180910390f35b610094610118565b6040516100a19190610649565b60405180910390f35b6100c460048036038101906100bf9190610603565b610122565b6040516100d19190610760565b60405180910390f35b6100f460048036038101906100ef91906107ae565b610220565b005b6100fe61047b565b005b60026020528060005260406000206000915090505481565b6000600154905090565b6060600360008373ffffffffffffffffffffffffffffffffffffffff1673ffffffffffffffffffffffffffffffffffffffff168152602001908152602001600020805480602002602001604051908101604052809291908181526020016000905b8282101561021557838290600052602060002090600202016040518060400160405290816000820160009054906101000a900473ffffffffffffffffffffffffffffffffffffffff1673ffffffffffffffffffffffffffffffffffffffff1673ffffffffffffffffffffffffffffffffffffffff16815260200160018201548152505081526020019060010190610183565b505050509050919050565b6000600260003373ffffffffffffffffffffffffffffffffffffffff1673ffffffffffffffffffffffffffffffffffffffff168152602001908152602001600020549050818110156102ab5781816040517f8c9053680000000000000000000000000000000000000000000000000000000081526004016102a29291906107ee565b60405180910390fd5b81600260003373ffffffffffffffffffffffffffffffffffffffff1673ffffffffffffffffffffffffffffffffffffffff16815260200190815260200160002060008282546102fa9190610846565b9250508190555081600260008573ffffffffffffffffffffffffffffffffffffffff1673ffffffffffffffffffffffffffffffffffffffff1681526020019081526020016000206000828254610350919061087a565b92505081905550600360003373ffffffffffffffffffffffffffffffffffffffff1673ffffffffffffffffffffffffffffffffffffffff16815260200190815260200160002060405180604001604052808573ffffffffffffffffffffffffffffffffffffffff16815260200184815250908060018154018082558091505060019003906000526020600020906002020160009091909190915060008201518160000160006101000a81548173ffffffffffffffffffffffffffffffffffffffff021916908373ffffffffffffffffffffffffffffffffffffffff1602179055506020820151816001015550507fc93b3dc6d510aebde6bf73dcc5ff270ab2554bf5db86cc436e92ec9f185829e7828460405161046e9291906108bd565b60405180910390a1505050565b60008054906101000a900473ffffffffffffffffffffffffffffffffffffffff1673ffffffffffffffffffffffffffffffffffffffff163373ffffffffffffffffffffffffffffffffffffffff160361059e57600060015490506103e8600160008282546104e9919061087a565b92505081905550600154600260008060009054906101000a900473ffffffffffffffffffffffffffffffffffffffff1673ffffffffffffffffffffffffffffffffffffffff1673ffffffffffffffffffffffffffffffffffffffff16815260200190815260200160002081905550806001541461059c577f511f5b61bdfae17b57b5c46b525583881874446ae299eb1fd8cece6e79c8fe2e816001546040516105939291906107ee565b60405180910390a15b505b565b600080fd5b600073ffffffffffffffffffffffffffffffffffffffff82169050919050565b60006105d0826105a5565b9050919050565b6105e0816105c5565b81146105eb57600080fd5b50565b6000813590506105fd816105d7565b92915050565b600060208284031215610619576106186105a0565b5b6000610627848285016105ee565b91505092915050565b6000819050919050565b61064381610630565b82525050565b600060208201905061065e600083018461063a565b92915050565b600081519050919050565b600082825260208201905092915050565b6000819050602082019050919050565b610699816105c5565b82525050565b6106a881610630565b82525050565b6040820160008201516106c46000850182610690565b5060208201516106d7602085018261069f565b50505050565b60006106e983836106ae565b60408301905092915050565b6000602082019050919050565b600061070d82610664565b610717818561066f565b935061072283610680565b8060005b8381101561075357815161073a88826106dd565b9750610745836106f5565b925050600181019050610726565b5085935050505092915050565b6000602082019050818103600083015261077a8184610702565b905092915050565b61078b81610630565b811461079657600080fd5b50565b6000813590506107a881610782565b92915050565b600080604083850312156107c5576107c46105a0565b5b60006107d3858286016105ee565b92505060206107e485828601610799565b9150509250929050565b6000604082019050610803600083018561063a565b610810602083018461063a565b9392505050565b7f4e487b7100000000000000000000000000000000000000000000000000000000600052601160045260246000fd5b600061085182610630565b915061085c83610630565b925082820390508181111561087457610873610817565b5b92915050565b600061088582610630565b915061089083610630565b92508282019050808211156108a8576108a7610817565b5b92915050565b6108b7816105c5565b82525050565b60006040820190506108d2600083018561063a565b6108df60208301846108ae565b939250505056fea2646970667358221220160372f6d3e3b04e37063bae584002e3714411a94359bfefd6ae9238962305d164736f6c63430008110033",
					"opcodes": "PUSH1 0x80 PUSH1 0x40 MSTORE PUSH2 0x2710 PUSH1 0x1 SSTORE CALLVALUE DUP1 ISZERO PUSH2 0x16 JUMPI PUSH1 0x0 DUP1 REVERT JUMPDEST POP CALLER PUSH1 0x0 DUP1 PUSH2 0x100 EXP DUP2 SLOAD DUP2 PUSH20 0xFFFFFFFFFFFFFFFFFFFFFFFFFFFFFFFFFFFFFFFF MUL NOT AND SWAP1 DUP4 PUSH20 0xFFFFFFFFFFFFFFFFFFFFFFFFFFFFFFFFFFFFFFFF AND MUL OR SWAP1 SSTORE POP PUSH1 0x1 SLOAD PUSH1 0x2 PUSH1 0x0 DUP1 PUSH1 0x0 SWAP1 SLOAD SWAP1 PUSH2 0x100 EXP SWAP1 DIV PUSH20 0xFFFFFFFFFFFFFFFFFFFFFFFFFFFFFFFFFFFFFFFF AND PUSH20 0xFFFFFFFFFFFFFFFFFFFFFFFFFFFFFFFFFFFFFFFF AND PUSH20 0xFFFFFFFFFFFFFFFFFFFFFFFFFFFFFFFFFFFFFFFF AND DUP2 MSTORE PUSH1 0x20 ADD SWAP1 DUP2 MSTORE PUSH1 0x20 ADD PUSH1 0x0 KECCAK256 DUP2 SWAP1 SSTORE POP PUSH2 0x91C DUP1 PUSH2 0xCD PUSH1 0x0 CODECOPY PUSH1 0x0 RETURN INVALID PUSH1 0x80 PUSH1 0x40 MSTORE CALLVALUE DUP1 ISZERO PUSH2 0x10 JUMPI PUSH1 0x0 DUP1 REVERT JUMPDEST POP PUSH1 0x4 CALLDATASIZE LT PUSH2 0x57 JUMPI PUSH1 0x0 CALLDATALOAD PUSH1 0xE0 SHR DUP1 PUSH4 0x27E235E3 EQ PUSH2 0x5C JUMPI DUP1 PUSH4 0x6C9C2FAF EQ PUSH2 0x8C JUMPI DUP1 PUSH4 0x6D91C9CB EQ PUSH2 0xAA JUMPI DUP1 PUSH4 0xA9059CBB EQ PUSH2 0xDA JUMPI DUP1 PUSH4 0xB743CCBD EQ PUSH2 0xF6 JUMPI JUMPDEST PUSH1 0x0 DUP1 REVERT JUMPDEST PUSH2 0x76 PUSH1 0x4 DUP1 CALLDATASIZE SUB DUP2 ADD SWAP1 PUSH2 0x71 SWAP2 SWAP1 PUSH2 0x603 JUMP JUMPDEST PUSH2 0x100 JUMP JUMPDEST PUSH1 0x40 MLOAD PUSH2 0x83 SWAP2 SWAP1 PUSH2 0x649 JUMP JUMPDEST PUSH1 0x40 MLOAD DUP1 SWAP2 SUB SWAP1 RETURN JUMPDEST PUSH2 0x94 PUSH2 0x118 JUMP JUMPDEST PUSH1 0x40 MLOAD PUSH2 0xA1 SWAP2 SWAP1 PUSH2 0x649 JUMP JUMPDEST PUSH1 0x40 MLOAD DUP1 SWAP2 SUB SWAP1 RETURN JUMPDEST PUSH2 0xC4 PUSH1 0x4 DUP1 CALLDATASIZE SUB DUP2 ADD SWAP1 PUSH2 0xBF SWAP2 SWAP1 PUSH2 0x603 JUMP JUMPDEST PUSH2 0x122 JUMP JUMPDEST PUSH1 0x40 MLOAD PUSH2 0xD1 SWAP2 SWAP1 PUSH2 0x760 JUMP JUMPDEST PUSH1 0x40 MLOAD DUP1 SWAP2 SUB SWAP1 RETURN JUMPDEST PUSH2 0xF4 PUSH1 0x4 DUP1 CALLDATASIZE SUB DUP2 ADD SWAP1 PUSH2 0xEF SWAP2 SWAP1 PUSH2 0x7AE JUMP JUMPDEST PUSH2 0x220 JUMP JUMPDEST STOP JUMPDEST PUSH2 0xFE PUSH2 0x47B JUMP JUMPDEST STOP JUMPDEST PUSH1 0x2 PUSH1 0x20 MSTORE DUP1 PUSH1 0x0 MSTORE PUSH1 0x40 PUSH1 0x0 KECCAK256 PUSH1 0x0 SWAP2 POP SWAP1 POP SLOAD DUP2 JUMP JUMPDEST PUSH1 0x0 PUSH1 0x1 SLOAD SWAP1 POP SWAP1 JUMP JUMPDEST PUSH1 0x60 PUSH1 0x3 PUSH1 0x0 DUP4 PUSH20 0xFFFFFFFFFFFFFFFFFFFFFFFFFFFFFFFFFFFFFFFF AND PUSH20 0xFFFFFFFFFFFFFFFFFFFFFFFFFFFFFFFFFFFFFFFF AND DUP2 MSTORE PUSH1 0x20 ADD SWAP1 DUP2 MSTORE PUSH1 0x20 ADD PUSH1 0x0 KECCAK256 DUP1 SLOAD DUP1 PUSH1 0x20 MUL PUSH1 0x20 ADD PUSH1 0x40 MLOAD SWAP1 DUP2 ADD PUSH1 0x40 MSTORE DUP1 SWAP3 SWAP2 SWAP1 DUP2 DUP2 MSTORE PUSH1 0x20 ADD PUSH1 0x0 SWAP1 JUMPDEST DUP3 DUP3 LT ISZERO PUSH2 0x215 JUMPI DUP4 DUP3 SWAP1 PUSH1 0x0 MSTORE PUSH1 0x20 PUSH1 0x0 KECCAK256 SWAP1 PUSH1 0x2 MUL ADD PUSH1 0x40 MLOAD DUP1 PUSH1 0x40 ADD PUSH1 0x40 MSTORE SWAP1 DUP2 PUSH1 0x0 DUP3 ADD PUSH1 0x0 SWAP1 SLOAD SWAP1 PUSH2 0x100 EXP SWAP1 DIV PUSH20 0xFFFFFFFFFFFFFFFFFFFFFFFFFFFFFFFFFFFFFFFF AND PUSH20 0xFFFFFFFFFFFFFFFFFFFFFFFFFFFFFFFFFFFFFFFF AND PUSH20 0xFFFFFFFFFFFFFFFFFFFFFFFFFFFFFFFFFFFFFFFF AND DUP2 MSTORE PUSH1 0x20 ADD PUSH1 0x1 DUP3 ADD SLOAD DUP2 MSTORE POP POP DUP2 MSTORE PUSH1 0x20 ADD SWAP1 PUSH1 0x1 ADD SWAP1 PUSH2 0x183 JUMP JUMPDEST POP POP POP POP SWAP1 POP SWAP2 SWAP1 POP JUMP JUMPDEST PUSH1 0x0 PUSH1 0x2 PUSH1 0x0 CALLER PUSH20 0xFFFFFFFFFFFFFFFFFFFFFFFFFFFFFFFFFFFFFFFF AND PUSH20 0xFFFFFFFFFFFFFFFFFFFFFFFFFFFFFFFFFFFFFFFF AND DUP2 MSTORE PUSH1 0x20 ADD SWAP1 DUP2 MSTORE PUSH1 0x20 ADD PUSH1 0x0 KECCAK256 SLOAD SWAP1 POP DUP2 DUP2 LT ISZERO PUSH2 0x2AB JUMPI DUP2 DUP2 PUSH1 0x40 MLOAD PUSH32 0x8C90536800000000000000000000000000000000000000000000000000000000 DUP2 MSTORE PUSH1 0x4 ADD PUSH2 0x2A2 SWAP3 SWAP2 SWAP1 PUSH2 0x7EE JUMP JUMPDEST PUSH1 0x40 MLOAD DUP1 SWAP2 SUB SWAP1 REVERT JUMPDEST DUP2 PUSH1 0x2 PUSH1 0x0 CALLER PUSH20 0xFFFFFFFFFFFFFFFFFFFFFFFFFFFFFFFFFFFFFFFF AND PUSH20 0xFFFFFFFFFFFFFFFFFFFFFFFFFFFFFFFFFFFFFFFF AND DUP2 MSTORE PUSH1 0x20 ADD SWAP1 DUP2 MSTORE PUSH1 0x20 ADD PUSH1 0x0 KECCAK256 PUSH1 0x0 DUP3 DUP3 SLOAD PUSH2 0x2FA SWAP2 SWAP1 PUSH2 0x846 JUMP JUMPDEST SWAP3 POP POP DUP2 SWAP1 SSTORE POP DUP2 PUSH1 0x2 PUSH1 0x0 DUP6 PUSH20 0xFFFFFFFFFFFFFFFFFFFFFFFFFFFFFFFFFFFFFFFF AND PUSH20 0xFFFFFFFFFFFFFFFFFFFFFFFFFFFFFFFFFFFFFFFF AND DUP2 MSTORE PUSH1 0x20 ADD SWAP1 DUP2 MSTORE PUSH1 0x20 ADD PUSH1 0x0 KECCAK256 PUSH1 0x0 DUP3 DUP3 SLOAD PUSH2 0x350 SWAP2 SWAP1 PUSH2 0x87A JUMP JUMPDEST SWAP3 POP POP DUP2 SWAP1 SSTORE POP PUSH1 0x3 PUSH1 0x0 CALLER PUSH20 0xFFFFFFFFFFFFFFFFFFFFFFFFFFFFFFFFFFFFFFFF AND PUSH20 0xFFFFFFFFFFFFFFFFFFFFFFFFFFFFFFFFFFFFFFFF AND DUP2 MSTORE PUSH1 0x20 ADD SWAP1 DUP2 MSTORE PUSH1 0x20 ADD PUSH1 0x0 KECCAK256 PUSH1 0x40 MLOAD DUP1 PUSH1 0x40 ADD PUSH1 0x40 MSTORE DUP1 DUP6 PUSH20 0xFFFFFFFFFFFFFFFFFFFFFFFFFFFFFFFFFFFFFFFF AND DUP2 MSTORE PUSH1 0x20 ADD DUP5 DUP2 MSTORE POP SWAP1 DUP1 PUSH1 0x1 DUP2 SLOAD ADD DUP1 DUP3 SSTORE DUP1 SWAP2 POP POP PUSH1 0x1 SWAP1 SUB SWAP1 PUSH1 0x0 MSTORE PUSH1 0x20 PUSH1 0x0 KECCAK256 SWAP1 PUSH1 0x2 MUL ADD PUSH1 0x0 SWAP1 SWAP2 SWAP1 SWAP2 SWAP1 SWAP2 POP PUSH1 0x0 DUP3 ADD MLOAD DUP2 PUSH1 0x0 ADD PUSH1 0x0 PUSH2 0x100 EXP DUP2 SLOAD DUP2 PUSH20 0xFFFFFFFFFFFFFFFFFFFFFFFFFFFFFFFFFFFFFFFF MUL NOT AND SWAP1 DUP4 PUSH20 0xFFFFFFFFFFFFFFFFFFFFFFFFFFFFFFFFFFFFFFFF AND MUL OR SWAP1 SSTORE POP PUSH1 0x20 DUP3 ADD MLOAD DUP2 PUSH1 0x1 ADD SSTORE POP POP PUSH32 0xC93B3DC6D510AEBDE6BF73DCC5FF270AB2554BF5DB86CC436E92EC9F185829E7 DUP3 DUP5 PUSH1 0x40 MLOAD PUSH2 0x46E SWAP3 SWAP2 SWAP1 PUSH2 0x8BD JUMP JUMPDEST PUSH1 0x40 MLOAD DUP1 SWAP2 SUB SWAP1 LOG1 POP POP POP JUMP JUMPDEST PUSH1 0x0 DUP1 SLOAD SWAP1 PUSH2 0x100 EXP SWAP1 DIV PUSH20 0xFFFFFFFFFFFFFFFFFFFFFFFFFFFFFFFFFFFFFFFF AND PUSH20 0xFFFFFFFFFFFFFFFFFFFFFFFFFFFFFFFFFFFFFFFF AND CALLER PUSH20 0xFFFFFFFFFFFFFFFFFFFFFFFFFFFFFFFFFFFFFFFF AND SUB PUSH2 0x59E JUMPI PUSH1 0x0 PUSH1 0x1 SLOAD SWAP1 POP PUSH2 0x3E8 PUSH1 0x1 PUSH1 0x0 DUP3 DUP3 SLOAD PUSH2 0x4E9 SWAP2 SWAP1 PUSH2 0x87A JUMP JUMPDEST SWAP3 POP POP DUP2 SWAP1 SSTORE POP PUSH1 0x1 SLOAD PUSH1 0x2 PUSH1 0x0 DUP1 PUSH1 0x0 SWAP1 SLOAD SWAP1 PUSH2 0x100 EXP SWAP1 DIV PUSH20 0xFFFFFFFFFFFFFFFFFFFFFFFFFFFFFFFFFFFFFFFF AND PUSH20 0xFFFFFFFFFFFFFFFFFFFFFFFFFFFFFFFFFFFFFFFF AND PUSH20 0xFFFFFFFFFFFFFFFFFFFFFFFFFFFFFFFFFFFFFFFF AND DUP2 MSTORE PUSH1 0x20 ADD SWAP1 DUP2 MSTORE PUSH1 0x20 ADD PUSH1 0x0 KECCAK256 DUP2 SWAP1 SSTORE POP DUP1 PUSH1 0x1 SLOAD EQ PUSH2 0x59C JUMPI PUSH32 0x511F5B61BDFAE17B57B5C46B525583881874446AE299EB1FD8CECE6E79C8FE2E DUP2 PUSH1 0x1 SLOAD PUSH1 0x40 MLOAD PUSH2 0x593 SWAP3 SWAP2 SWAP1 PUSH2 0x7EE JUMP JUMPDEST PUSH1 0x40 MLOAD DUP1 SWAP2 SUB SWAP1 LOG1 JUMPDEST POP JUMPDEST JUMP JUMPDEST PUSH1 0x0 DUP1 REVERT JUMPDEST PUSH1 0x0 PUSH20 0xFFFFFFFFFFFFFFFFFFFFFFFFFFFFFFFFFFFFFFFF DUP3 AND SWAP1 POP SWAP2 SWAP1 POP JUMP JUMPDEST PUSH1 0x0 PUSH2 0x5D0 DUP3 PUSH2 0x5A5 JUMP JUMPDEST SWAP1 POP SWAP2 SWAP1 POP JUMP JUMPDEST PUSH2 0x5E0 DUP2 PUSH2 0x5C5 JUMP JUMPDEST DUP2 EQ PUSH2 0x5EB JUMPI PUSH1 0x0 DUP1 REVERT JUMPDEST POP JUMP JUMPDEST PUSH1 0x0 DUP2 CALLDATALOAD SWAP1 POP PUSH2 0x5FD DUP2 PUSH2 0x5D7 JUMP JUMPDEST SWAP3 SWAP2 POP POP JUMP JUMPDEST PUSH1 0x0 PUSH1 0x20 DUP3 DUP5 SUB SLT ISZERO PUSH2 0x619 JUMPI PUSH2 0x618 PUSH2 0x5A0 JUMP JUMPDEST JUMPDEST PUSH1 0x0 PUSH2 0x627 DUP5 DUP3 DUP6 ADD PUSH2 0x5EE JUMP JUMPDEST SWAP2 POP POP SWAP3 SWAP2 POP POP JUMP JUMPDEST PUSH1 0x0 DUP2 SWAP1 POP SWAP2 SWAP1 POP JUMP JUMPDEST PUSH2 0x643 DUP2 PUSH2 0x630 JUMP JUMPDEST DUP3 MSTORE POP POP JUMP JUMPDEST PUSH1 0x0 PUSH1 0x20 DUP3 ADD SWAP1 POP PUSH2 0x65E PUSH1 0x0 DUP4 ADD DUP5 PUSH2 0x63A JUMP JUMPDEST SWAP3 SWAP2 POP POP JUMP JUMPDEST PUSH1 0x0 DUP2 MLOAD SWAP1 POP SWAP2 SWAP1 POP JUMP JUMPDEST PUSH1 0x0 DUP3 DUP3 MSTORE PUSH1 0x20 DUP3 ADD SWAP1 POP SWAP3 SWAP2 POP POP JUMP JUMPDEST PUSH1 0x0 DUP2 SWAP1 POP PUSH1 0x20 DUP3 ADD SWAP1 POP SWAP2 SWAP1 POP JUMP JUMPDEST PUSH2 0x699 DUP2 PUSH2 0x5C5 JUMP JUMPDEST DUP3 MSTORE POP POP JUMP JUMPDEST PUSH2 0x6A8 DUP2 PUSH2 0x630 JUMP JUMPDEST DUP3 MSTORE POP POP JUMP JUMPDEST PUSH1 0x40 DUP3 ADD PUSH1 0x0 DUP3 ADD MLOAD PUSH2 0x6C4 PUSH1 0x0 DUP6 ADD DUP3 PUSH2 0x690 JUMP JUMPDEST POP PUSH1 0x20 DUP3 ADD MLOAD PUSH2 0x6D7 PUSH1 0x20 DUP6 ADD DUP3 PUSH2 0x69F JUMP JUMPDEST POP POP POP POP JUMP JUMPDEST PUSH1 0x0 PUSH2 0x6E9 DUP4 DUP4 PUSH2 0x6AE JUMP JUMPDEST PUSH1 0x40 DUP4 ADD SWAP1 POP SWAP3 SWAP2 POP POP JUMP JUMPDEST PUSH1 0x0 PUSH1 0x20 DUP3 ADD SWAP1 POP SWAP2 SWAP1 POP JUMP JUMPDEST PUSH1 0x0 PUSH2 0x70D DUP3 PUSH2 0x664 JUMP JUMPDEST PUSH2 0x717 DUP2 DUP6 PUSH2 0x66F JUMP JUMPDEST SWAP4 POP PUSH2 0x722 DUP4 PUSH2 0x680 JUMP JUMPDEST DUP1 PUSH1 0x0 JUMPDEST DUP4 DUP2 LT ISZERO PUSH2 0x753 JUMPI DUP2 MLOAD PUSH2 0x73A DUP9 DUP3 PUSH2 0x6DD JUMP JUMPDEST SWAP8 POP PUSH2 0x745 DUP4 PUSH2 0x6F5 JUMP JUMPDEST SWAP3 POP POP PUSH1 0x1 DUP2 ADD SWAP1 POP PUSH2 0x726 JUMP JUMPDEST POP DUP6 SWAP4 POP POP POP POP SWAP3 SWAP2 POP POP JUMP JUMPDEST PUSH1 0x0 PUSH1 0x20 DUP3 ADD SWAP1 POP DUP2 DUP2 SUB PUSH1 0x0 DUP4 ADD MSTORE PUSH2 0x77A DUP2 DUP5 PUSH2 0x702 JUMP JUMPDEST SWAP1 POP SWAP3 SWAP2 POP POP JUMP JUMPDEST PUSH2 0x78B DUP2 PUSH2 0x630 JUMP JUMPDEST DUP2 EQ PUSH2 0x796 JUMPI PUSH1 0x0 DUP1 REVERT JUMPDEST POP JUMP JUMPDEST PUSH1 0x0 DUP2 CALLDATALOAD SWAP1 POP PUSH2 0x7A8 DUP2 PUSH2 0x782 JUMP JUMPDEST SWAP3 SWAP2 POP POP JUMP JUMPDEST PUSH1 0x0 DUP1 PUSH1 0x40 DUP4 DUP6 SUB SLT ISZERO PUSH2 0x7C5 JUMPI PUSH2 0x7C4 PUSH2 0x5A0 JUMP JUMPDEST JUMPDEST PUSH1 0x0 PUSH2 0x7D3 DUP6 DUP3 DUP7 ADD PUSH2 0x5EE JUMP JUMPDEST SWAP3 POP POP PUSH1 0x20 PUSH2 0x7E4 DUP6 DUP3 DUP7 ADD PUSH2 0x799 JUMP JUMPDEST SWAP2 POP POP SWAP3 POP SWAP3 SWAP1 POP JUMP JUMPDEST PUSH1 0x0 PUSH1 0x40 DUP3 ADD SWAP1 POP PUSH2 0x803 PUSH1 0x0 DUP4 ADD DUP6 PUSH2 0x63A JUMP JUMPDEST PUSH2 0x810 PUSH1 0x20 DUP4 ADD DUP5 PUSH2 0x63A JUMP JUMPDEST SWAP4 SWAP3 POP POP POP JUMP JUMPDEST PUSH32 0x4E487B7100000000000000000000000000000000000000000000000000000000 PUSH1 0x0 MSTORE PUSH1 0x11 PUSH1 0x4 MSTORE PUSH1 0x24 PUSH1 0x0 REVERT JUMPDEST PUSH1 0x0 PUSH2 0x851 DUP3 PUSH2 0x630 JUMP JUMPDEST SWAP2 POP PUSH2 0x85C DUP4 PUSH2 0x630 JUMP JUMPDEST SWAP3 POP DUP3 DUP3 SUB SWAP1 POP DUP2 DUP2 GT ISZERO PUSH2 0x874 JUMPI PUSH2 0x873 PUSH2 0x817 JUMP JUMPDEST JUMPDEST SWAP3 SWAP2 POP POP JUMP JUMPDEST PUSH1 0x0 PUSH2 0x885 DUP3 PUSH2 0x630 JUMP JUMPDEST SWAP2 POP PUSH2 0x890 DUP4 PUSH2 0x630 JUMP JUMPDEST SWAP3 POP DUP3 DUP3 ADD SWAP1 POP DUP1 DUP3 GT ISZERO PUSH2 0x8A8 JUMPI PUSH2 0x8A7 PUSH2 0x817 JUMP JUMPDEST JUMPDEST SWAP3 SWAP2 POP POP JUMP JUMPDEST PUSH2 0x8B7 DUP2 PUSH2 0x5C5 JUMP JUMPDEST DUP3 MSTORE POP POP JUMP JUMPDEST PUSH1 0x0 PUSH1 0x40 DUP3 ADD SWAP1 POP PUSH2 0x8D2 PUSH1 0x0 DUP4 ADD DUP6 PUSH2 0x63A JUMP JUMPDEST PUSH2 0x8DF PUSH1 0x20 DUP4 ADD DUP5 PUSH2 0x8AE JUMP JUMPDEST SWAP4 SWAP3 POP POP POP JUMP INVALID LOG2 PUSH5 0x6970667358 0x22 SLT KECCAK256 AND SUB PUSH19 0xF6D3E3B04E37063BAE584002E3714411A94359 0xBF 0xEF 0xD6 0xAE SWAP3 CODESIZE SWAP7 0x23 SDIV 0xD1 PUSH5 0x736F6C6343 STOP ADDMOD GT STOP CALLER "
				},
				"gasEstimates": {
					"creation": {
						"codeDepositCost": "466400",
						"executionCost": "73311",
						"totalCost": "539711"
					},
					"external": {
						"balances(address)": "2792",
						"getSupply()": "2437",
						"getTransfers(address)": "infinite",
						"setSupply()": "infinite",
						"transfer(address,uint256)": "infinite"
					}
				},
				"methodIdentifiers": {
					"balances(address)": "27e235e3",
					"getSupply()": "6c9c2faf",
					"getTransfers(address)": "6d91c9cb",
					"setSupply()": "b743ccbd",
					"transfer(address,uint256)": "a9059cbb"
				}
			},
			"storageLayout": {
				"storage": [
					{
						"astId": 3,
						"contract": "contracts/ETH_Denver_Bootcamp/Homework_4/VolcanoCoin.sol:VolcanoCoin",
						"label": "owner",
						"offset": 0,
						"slot": "0",
						"type": "t_address"
					},
					{
						"astId": 6,
						"contract": "contracts/ETH_Denver_Bootcamp/Homework_4/VolcanoCoin.sol:VolcanoCoin",
						"label": "totalSupply",
						"offset": 0,
						"slot": "1",
						"type": "t_uint256"
					},
					{
						"astId": 10,
						"contract": "contracts/ETH_Denver_Bootcamp/Homework_4/VolcanoCoin.sol:VolcanoCoin",
						"label": "balances",
						"offset": 0,
						"slot": "2",
						"type": "t_mapping(t_address,t_uint256)"
					},
					{
						"astId": 16,
						"contract": "contracts/ETH_Denver_Bootcamp/Homework_4/VolcanoCoin.sol:VolcanoCoin",
						"label": "transfers",
						"offset": 0,
						"slot": "3",
						"type": "t_mapping(t_address,t_array(t_struct(Payment)21_storage)dyn_storage)"
					}
				],
				"types": {
					"t_address": {
						"encoding": "inplace",
						"label": "address",
						"numberOfBytes": "20"
					},
					"t_array(t_struct(Payment)21_storage)dyn_storage": {
						"base": "t_struct(Payment)21_storage",
						"encoding": "dynamic_array",
						"label": "struct VolcanoCoin.Payment[]",
						"numberOfBytes": "32"
					},
					"t_mapping(t_address,t_array(t_struct(Payment)21_storage)dyn_storage)": {
						"encoding": "mapping",
						"key": "t_address",
						"label": "mapping(address => struct VolcanoCoin.Payment[])",
						"numberOfBytes": "32",
						"value": "t_array(t_struct(Payment)21_storage)dyn_storage"
					},
					"t_mapping(t_address,t_uint256)": {
						"encoding": "mapping",
						"key": "t_address",
						"label": "mapping(address => uint256)",
						"numberOfBytes": "32",
						"value": "t_uint256"
					},
					"t_struct(Payment)21_storage": {
						"encoding": "inplace",
						"label": "struct VolcanoCoin.Payment",
						"members": [
							{
								"astId": 18,
								"contract": "contracts/ETH_Denver_Bootcamp/Homework_4/VolcanoCoin.sol:VolcanoCoin",
								"label": "recipient",
								"offset": 0,
								"slot": "0",
								"type": "t_address"
							},
							{
								"astId": 20,
								"contract": "contracts/ETH_Denver_Bootcamp/Homework_4/VolcanoCoin.sol:VolcanoCoin",
								"label": "amount",
								"offset": 0,
								"slot": "1",
								"type": "t_uint256"
							}
						],
						"numberOfBytes": "64"
					},
					"t_uint256": {
						"encoding": "inplace",
						"label": "uint256",
						"numberOfBytes": "32"
					}
				}
			},
			"userdoc": {
				"kind": "user",
				"methods": {},
				"version": 1
			}
		}
	}
}