{
	"contracts/ETH_Denver_Bootcamp/Homework_5/VolcanoCoinOpenZeppelin.sol": {
		"VolcanoCoin": {
			"abi": [
				{
					"inputs": [],
					"stateMutability": "nonpayable",
					"type": "constructor"
				},
				{
					"inputs": [
						{
							"internalType": "uint256",
							"name": "requested",
							"type": "uint256"
						},
						{
							"internalType": "uint256",
							"name": "available",
							"type": "uint256"
						}
					],
					"name": "NotEnoughFunds",
					"type": "error"
				},
				{
					"anonymous": false,
					"inputs": [
						{
							"indexed": true,
							"internalType": "address",
							"name": "previousOwner",
							"type": "address"
						},
						{
							"indexed": true,
							"internalType": "address",
							"name": "newOwner",
							"type": "address"
						}
					],
					"name": "OwnershipTransferred",
					"type": "event"
				},
				{
					"anonymous": false,
					"inputs": [
						{
							"indexed": false,
							"internalType": "uint256",
							"name": "",
							"type": "uint256"
						},
						{
							"indexed": false,
							"internalType": "uint256",
							"name": "",
							"type": "uint256"
						}
					],
					"name": "SupplyChange",
					"type": "event"
				},
				{
					"anonymous": false,
					"inputs": [
						{
							"indexed": false,
							"internalType": "uint256",
							"name": "",
							"type": "uint256"
						},
						{
							"indexed": false,
							"internalType": "address",
							"name": "",
							"type": "address"
						}
					],
					"name": "TransferData",
					"type": "event"
				},
				{
					"inputs": [
						{
							"internalType": "address",
							"name": "",
							"type": "address"
						}
					],
					"name": "balances",
					"outputs": [
						{
							"internalType": "uint256",
							"name": "",
							"type": "uint256"
						}
					],
					"stateMutability": "view",
					"type": "function"
				},
				{
					"inputs": [],
					"name": "getSupply",
					"outputs": [
						{
							"internalType": "uint256",
							"name": "",
							"type": "uint256"
						}
					],
					"stateMutability": "view",
					"type": "function"
				},
				{
					"inputs": [
						{
							"internalType": "address",
							"name": "from",
							"type": "address"
						}
					],
					"name": "getTransfers",
					"outputs": [
						{
							"components": [
								{
									"internalType": "address",
									"name": "recipient",
									"type": "address"
								},
								{
									"internalType": "uint256",
									"name": "amount",
									"type": "uint256"
								}
							],
							"internalType": "struct VolcanoCoin.Payment[]",
							"name": "",
							"type": "tuple[]"
						}
					],
					"stateMutability": "view",
					"type": "function"
				},
				{
					"inputs": [],
					"name": "owner",
					"outputs": [
						{
							"internalType": "address",
							"name": "",
							"type": "address"
						}
					],
					"stateMutability": "view",
					"type": "function"
				},
				{
					"inputs": [],
					"name": "renounceOwnership",
					"outputs": [],
					"stateMutability": "nonpayable",
					"type": "function"
				},
				{
					"inputs": [],
					"name": "setSupply",
					"outputs": [],
					"stateMutability": "nonpayable",
					"type": "function"
				},
				{
					"inputs": [
						{
							"internalType": "address",
							"name": "to",
							"type": "address"
						},
						{
							"internalType": "uint256",
							"name": "amount",
							"type": "uint256"
						}
					],
					"name": "transfer",
					"outputs": [],
					"stateMutability": "nonpayable",
					"type": "function"
				},
				{
					"inputs": [
						{
							"internalType": "address",
							"name": "newOwner",
							"type": "address"
						}
					],
					"name": "transferOwnership",
					"outputs": [],
					"stateMutability": "nonpayable",
					"type": "function"
				}
			],
			"devdoc": {
				"kind": "dev",
				"methods": {
					"owner()": {
						"details": "Returns the address of the current owner."
					},
					"renounceOwnership()": {
						"details": "Leaves the contract without owner. It will not be possible to call `onlyOwner` functions anymore. Can only be called by the current owner. NOTE: Renouncing ownership will leave the contract without an owner, thereby removing any functionality that is only available to the owner."
					},
					"transferOwnership(address)": {
						"details": "Transfers ownership of the contract to a new account (`newOwner`). Can only be called by the current owner."
					}
				},
				"version": 1
			},
			"evm": {
				"assembly": "    /* \"contracts/ETH_Denver_Bootcamp/Homework_5/VolcanoCoinOpenZeppelin.sol\":127:2561  contract VolcanoCoin is Ownable {... */\n  mstore(0x40, 0x80)\n    /* \"contracts/ETH_Denver_Bootcamp/Homework_5/VolcanoCoinOpenZeppelin.sol\":243:248  10000 */\n  0x2710\n    /* \"contracts/ETH_Denver_Bootcamp/Homework_5/VolcanoCoinOpenZeppelin.sol\":216:248  uint private totalSupply = 10000 */\n  0x01\n  sstore\n    /* \"contracts/ETH_Denver_Bootcamp/Homework_5/VolcanoCoinOpenZeppelin.sol\":953:1019  constructor(){... */\n  callvalue\n  dup1\n  iszero\n  tag_1\n  jumpi\n  0x00\n  dup1\n  revert\ntag_1:\n  pop\n    /* \"@openzeppelin/contracts/access/Ownable.sol\":936:968  _transferOwnership(_msgSender()) */\n  tag_5\n    /* \"@openzeppelin/contracts/access/Ownable.sol\":955:967  _msgSender() */\n  tag_6\n    /* \"@openzeppelin/contracts/access/Ownable.sol\":955:965  _msgSender */\n  shl(0x20, tag_7)\n    /* \"@openzeppelin/contracts/access/Ownable.sol\":955:967  _msgSender() */\n  0x20\n  shr\n  jump\t// in\ntag_6:\n    /* \"@openzeppelin/contracts/access/Ownable.sol\":936:954  _transferOwnership */\n  shl(0x20, tag_8)\n    /* \"@openzeppelin/contracts/access/Ownable.sol\":936:968  _transferOwnership(_msgSender()) */\n  0x20\n  shr\n  jump\t// in\ntag_5:\n    /* \"contracts/ETH_Denver_Bootcamp/Homework_5/VolcanoCoinOpenZeppelin.sol\":1000:1011  totalSupply */\n  sload(0x01)\n    /* \"contracts/ETH_Denver_Bootcamp/Homework_5/VolcanoCoinOpenZeppelin.sol\":977:985  balances */\n  0x02\n    /* \"contracts/ETH_Denver_Bootcamp/Homework_5/VolcanoCoinOpenZeppelin.sol\":977:997  balances[msg.sender] */\n  0x00\n    /* \"contracts/ETH_Denver_Bootcamp/Homework_5/VolcanoCoinOpenZeppelin.sol\":986:996  msg.sender */\n  caller\n    /* \"contracts/ETH_Denver_Bootcamp/Homework_5/VolcanoCoinOpenZeppelin.sol\":977:997  balances[msg.sender] */\n  0xffffffffffffffffffffffffffffffffffffffff\n  and\n  0xffffffffffffffffffffffffffffffffffffffff\n  and\n  dup2\n  mstore\n  0x20\n  add\n  swap1\n  dup2\n  mstore\n  0x20\n  add\n  0x00\n  keccak256\n    /* \"contracts/ETH_Denver_Bootcamp/Homework_5/VolcanoCoinOpenZeppelin.sol\":977:1011  balances[msg.sender] = totalSupply */\n  dup2\n  swap1\n  sstore\n  pop\n    /* \"contracts/ETH_Denver_Bootcamp/Homework_5/VolcanoCoinOpenZeppelin.sol\":127:2561  contract VolcanoCoin is Ownable {... */\n  jump(tag_10)\n    /* \"@openzeppelin/contracts/utils/Context.sol\":640:736  function _msgSender() internal view virtual returns (address) {... */\ntag_7:\n    /* \"@openzeppelin/contracts/utils/Context.sol\":693:700  address */\n  0x00\n    /* \"@openzeppelin/contracts/utils/Context.sol\":719:729  msg.sender */\n  caller\n    /* \"@openzeppelin/contracts/utils/Context.sol\":712:729  return msg.sender */\n  swap1\n  pop\n    /* \"@openzeppelin/contracts/utils/Context.sol\":640:736  function _msgSender() internal view virtual returns (address) {... */\n  swap1\n  jump\t// out\n    /* \"@openzeppelin/contracts/access/Ownable.sol\":2433:2620  function _transferOwnership(address newOwner) internal virtual {... */\ntag_8:\n    /* \"@openzeppelin/contracts/access/Ownable.sol\":2506:2522  address oldOwner */\n  0x00\n    /* \"@openzeppelin/contracts/access/Ownable.sol\":2525:2531  _owner */\n  dup1\n  0x00\n  swap1\n  sload\n  swap1\n  0x0100\n  exp\n  swap1\n  div\n  0xffffffffffffffffffffffffffffffffffffffff\n  and\n    /* \"@openzeppelin/contracts/access/Ownable.sol\":2506:2531  address oldOwner = _owner */\n  swap1\n  pop\n    /* \"@openzeppelin/contracts/access/Ownable.sol\":2550:2558  newOwner */\n  dup2\n    /* \"@openzeppelin/contracts/access/Ownable.sol\":2541:2547  _owner */\n  0x00\n  dup1\n    /* \"@openzeppelin/contracts/access/Ownable.sol\":2541:2558  _owner = newOwner */\n  0x0100\n  exp\n  dup2\n  sload\n  dup2\n  0xffffffffffffffffffffffffffffffffffffffff\n  mul\n  not\n  and\n  swap1\n  dup4\n  0xffffffffffffffffffffffffffffffffffffffff\n  and\n  mul\n  or\n  swap1\n  sstore\n  pop\n    /* \"@openzeppelin/contracts/access/Ownable.sol\":2604:2612  newOwner */\n  dup2\n    /* \"@openzeppelin/contracts/access/Ownable.sol\":2573:2613  OwnershipTransferred(oldOwner, newOwner) */\n  0xffffffffffffffffffffffffffffffffffffffff\n  and\n    /* \"@openzeppelin/contracts/access/Ownable.sol\":2594:2602  oldOwner */\n  dup2\n    /* \"@openzeppelin/contracts/access/Ownable.sol\":2573:2613  OwnershipTransferred(oldOwner, newOwner) */\n  0xffffffffffffffffffffffffffffffffffffffff\n  and\n  0x8be0079c531659141344cd1fd0a4f28419497f9722a3daafe3b4186f6b6457e0\n  mload(0x40)\n  mload(0x40)\n  dup1\n  swap2\n  sub\n  swap1\n  log3\n    /* \"@openzeppelin/contracts/access/Ownable.sol\":2496:2620  {... */\n  pop\n    /* \"@openzeppelin/contracts/access/Ownable.sol\":2433:2620  function _transferOwnership(address newOwner) internal virtual {... */\n  pop\n  jump\t// out\n    /* \"contracts/ETH_Denver_Bootcamp/Homework_5/VolcanoCoinOpenZeppelin.sol\":127:2561  contract VolcanoCoin is Ownable {... */\ntag_10:\n  dataSize(sub_0)\n  dup1\n  dataOffset(sub_0)\n  0x00\n  codecopy\n  0x00\n  return\nstop\n\nsub_0: assembly {\n        /* \"contracts/ETH_Denver_Bootcamp/Homework_5/VolcanoCoinOpenZeppelin.sol\":127:2561  contract VolcanoCoin is Ownable {... */\n      mstore(0x40, 0x80)\n      callvalue\n      dup1\n      iszero\n      tag_1\n      jumpi\n      0x00\n      dup1\n      revert\n    tag_1:\n      pop\n      jumpi(tag_2, lt(calldatasize, 0x04))\n      shr(0xe0, calldataload(0x00))\n      dup1\n      0x8da5cb5b\n      gt\n      tag_11\n      jumpi\n      dup1\n      0x8da5cb5b\n      eq\n      tag_7\n      jumpi\n      dup1\n      0xa9059cbb\n      eq\n      tag_8\n      jumpi\n      dup1\n      0xb743ccbd\n      eq\n      tag_9\n      jumpi\n      dup1\n      0xf2fde38b\n      eq\n      tag_10\n      jumpi\n      jump(tag_2)\n    tag_11:\n      dup1\n      0x27e235e3\n      eq\n      tag_3\n      jumpi\n      dup1\n      0x6c9c2faf\n      eq\n      tag_4\n      jumpi\n      dup1\n      0x6d91c9cb\n      eq\n      tag_5\n      jumpi\n      dup1\n      0x715018a6\n      eq\n      tag_6\n      jumpi\n    tag_2:\n      0x00\n      dup1\n      revert\n        /* \"contracts/ETH_Denver_Bootcamp/Homework_5/VolcanoCoinOpenZeppelin.sol\":293:333  mapping(address => uint) public balances */\n    tag_3:\n      tag_12\n      0x04\n      dup1\n      calldatasize\n      sub\n      dup2\n      add\n      swap1\n      tag_13\n      swap2\n      swap1\n      tag_14\n      jump\t// in\n    tag_13:\n      tag_15\n      jump\t// in\n    tag_12:\n      mload(0x40)\n      tag_16\n      swap2\n      swap1\n      tag_17\n      jump\t// in\n    tag_16:\n      mload(0x40)\n      dup1\n      swap2\n      sub\n      swap1\n      return\n        /* \"contracts/ETH_Denver_Bootcamp/Homework_5/VolcanoCoinOpenZeppelin.sol\":1071:1155  function getSupply() public view returns(uint) {... */\n    tag_4:\n      tag_18\n      tag_19\n      jump\t// in\n    tag_18:\n      mload(0x40)\n      tag_20\n      swap2\n      swap1\n      tag_17\n      jump\t// in\n    tag_20:\n      mload(0x40)\n      dup1\n      swap2\n      sub\n      swap1\n      return\n        /* \"contracts/ETH_Denver_Bootcamp/Homework_5/VolcanoCoinOpenZeppelin.sol\":2441:2556  function getTransfers(address from) public view returns (Payment[] memory){... */\n    tag_5:\n      tag_21\n      0x04\n      dup1\n      calldatasize\n      sub\n      dup2\n      add\n      swap1\n      tag_22\n      swap2\n      swap1\n      tag_14\n      jump\t// in\n    tag_22:\n      tag_23\n      jump\t// in\n    tag_21:\n      mload(0x40)\n      tag_24\n      swap2\n      swap1\n      tag_25\n      jump\t// in\n    tag_24:\n      mload(0x40)\n      dup1\n      swap2\n      sub\n      swap1\n      return\n        /* \"@openzeppelin/contracts/access/Ownable.sol\":1831:1932  function renounceOwnership() public virtual onlyOwner {... */\n    tag_6:\n      tag_26\n      tag_27\n      jump\t// in\n    tag_26:\n      stop\n        /* \"@openzeppelin/contracts/access/Ownable.sol\":1201:1286  function owner() public view virtual returns (address) {... */\n    tag_7:\n      tag_28\n      tag_29\n      jump\t// in\n    tag_28:\n      mload(0x40)\n      tag_30\n      swap2\n      swap1\n      tag_31\n      jump\t// in\n    tag_30:\n      mload(0x40)\n      dup1\n      swap2\n      sub\n      swap1\n      return\n        /* \"contracts/ETH_Denver_Bootcamp/Homework_5/VolcanoCoinOpenZeppelin.sol\":1833:2391  function transfer(address to, uint amount) public {... */\n    tag_8:\n      tag_32\n      0x04\n      dup1\n      calldatasize\n      sub\n      dup2\n      add\n      swap1\n      tag_33\n      swap2\n      swap1\n      tag_34\n      jump\t// in\n    tag_33:\n      tag_35\n      jump\t// in\n    tag_32:\n      stop\n        /* \"contracts/ETH_Denver_Bootcamp/Homework_5/VolcanoCoinOpenZeppelin.sol\":1322:1789  function setSupply() public onlyOwner {... */\n    tag_9:\n      tag_36\n      tag_37\n      jump\t// in\n    tag_36:\n      stop\n        /* \"@openzeppelin/contracts/access/Ownable.sol\":2081:2279  function transferOwnership(address newOwner) public virtual onlyOwner {... */\n    tag_10:\n      tag_38\n      0x04\n      dup1\n      calldatasize\n      sub\n      dup2\n      add\n      swap1\n      tag_39\n      swap2\n      swap1\n      tag_14\n      jump\t// in\n    tag_39:\n      tag_40\n      jump\t// in\n    tag_38:\n      stop\n        /* \"contracts/ETH_Denver_Bootcamp/Homework_5/VolcanoCoinOpenZeppelin.sol\":293:333  mapping(address => uint) public balances */\n    tag_15:\n      mstore(0x20, 0x02)\n      dup1\n      0x00\n      mstore\n      keccak256(0x00, 0x40)\n      0x00\n      swap2\n      pop\n      swap1\n      pop\n      sload\n      dup2\n      jump\t// out\n        /* \"contracts/ETH_Denver_Bootcamp/Homework_5/VolcanoCoinOpenZeppelin.sol\":1071:1155  function getSupply() public view returns(uint) {... */\n    tag_19:\n        /* \"contracts/ETH_Denver_Bootcamp/Homework_5/VolcanoCoinOpenZeppelin.sol\":1112:1116  uint */\n      0x00\n        /* \"contracts/ETH_Denver_Bootcamp/Homework_5/VolcanoCoinOpenZeppelin.sol\":1136:1147  totalSupply */\n      sload(0x01)\n        /* \"contracts/ETH_Denver_Bootcamp/Homework_5/VolcanoCoinOpenZeppelin.sol\":1129:1147  return totalSupply */\n      swap1\n      pop\n        /* \"contracts/ETH_Denver_Bootcamp/Homework_5/VolcanoCoinOpenZeppelin.sol\":1071:1155  function getSupply() public view returns(uint) {... */\n      swap1\n      jump\t// out\n        /* \"contracts/ETH_Denver_Bootcamp/Homework_5/VolcanoCoinOpenZeppelin.sol\":2441:2556  function getTransfers(address from) public view returns (Payment[] memory){... */\n    tag_23:\n        /* \"contracts/ETH_Denver_Bootcamp/Homework_5/VolcanoCoinOpenZeppelin.sol\":2498:2514  Payment[] memory */\n      0x60\n        /* \"contracts/ETH_Denver_Bootcamp/Homework_5/VolcanoCoinOpenZeppelin.sol\":2533:2542  transfers */\n      0x03\n        /* \"contracts/ETH_Denver_Bootcamp/Homework_5/VolcanoCoinOpenZeppelin.sol\":2533:2548  transfers[from] */\n      0x00\n        /* \"contracts/ETH_Denver_Bootcamp/Homework_5/VolcanoCoinOpenZeppelin.sol\":2543:2547  from */\n      dup4\n        /* \"contracts/ETH_Denver_Bootcamp/Homework_5/VolcanoCoinOpenZeppelin.sol\":2533:2548  transfers[from] */\n      0xffffffffffffffffffffffffffffffffffffffff\n      and\n      0xffffffffffffffffffffffffffffffffffffffff\n      and\n      dup2\n      mstore\n      0x20\n      add\n      swap1\n      dup2\n      mstore\n      0x20\n      add\n      0x00\n      keccak256\n        /* \"contracts/ETH_Denver_Bootcamp/Homework_5/VolcanoCoinOpenZeppelin.sol\":2526:2548  return transfers[from] */\n      dup1\n      sload\n      dup1\n      0x20\n      mul\n      0x20\n      add\n      mload(0x40)\n      swap1\n      dup2\n      add\n      0x40\n      mstore\n      dup1\n      swap3\n      swap2\n      swap1\n      dup2\n      dup2\n      mstore\n      0x20\n      add\n      0x00\n      swap1\n    tag_43:\n      dup3\n      dup3\n      lt\n      iszero\n      tag_44\n      jumpi\n      dup4\n      dup3\n      swap1\n      0x00\n      mstore\n      keccak256(0x00, 0x20)\n      swap1\n      0x02\n      mul\n      add\n      mload(0x40)\n      dup1\n      0x40\n      add\n      0x40\n      mstore\n      swap1\n      dup2\n      0x00\n      dup3\n      add\n      0x00\n      swap1\n      sload\n      swap1\n      0x0100\n      exp\n      swap1\n      div\n      0xffffffffffffffffffffffffffffffffffffffff\n      and\n      0xffffffffffffffffffffffffffffffffffffffff\n      and\n      0xffffffffffffffffffffffffffffffffffffffff\n      and\n      dup2\n      mstore\n      0x20\n      add\n      0x01\n      dup3\n      add\n      sload\n      dup2\n      mstore\n      pop\n      pop\n      dup2\n      mstore\n      0x20\n      add\n      swap1\n      0x01\n      add\n      swap1\n      jump(tag_43)\n    tag_44:\n      pop\n      pop\n      pop\n      pop\n      swap1\n      pop\n        /* \"contracts/ETH_Denver_Bootcamp/Homework_5/VolcanoCoinOpenZeppelin.sol\":2441:2556  function getTransfers(address from) public view returns (Payment[] memory){... */\n      swap2\n      swap1\n      pop\n      jump\t// out\n        /* \"@openzeppelin/contracts/access/Ownable.sol\":1831:1932  function renounceOwnership() public virtual onlyOwner {... */\n    tag_27:\n        /* \"@openzeppelin/contracts/access/Ownable.sol\":1094:1107  _checkOwner() */\n      tag_47\n        /* \"@openzeppelin/contracts/access/Ownable.sol\":1094:1105  _checkOwner */\n      tag_48\n        /* \"@openzeppelin/contracts/access/Ownable.sol\":1094:1107  _checkOwner() */\n      jump\t// in\n    tag_47:\n        /* \"@openzeppelin/contracts/access/Ownable.sol\":1895:1925  _transferOwnership(address(0)) */\n      tag_50\n        /* \"@openzeppelin/contracts/access/Ownable.sol\":1922:1923  0 */\n      0x00\n        /* \"@openzeppelin/contracts/access/Ownable.sol\":1895:1913  _transferOwnership */\n      tag_51\n        /* \"@openzeppelin/contracts/access/Ownable.sol\":1895:1925  _transferOwnership(address(0)) */\n      jump\t// in\n    tag_50:\n        /* \"@openzeppelin/contracts/access/Ownable.sol\":1831:1932  function renounceOwnership() public virtual onlyOwner {... */\n      jump\t// out\n        /* \"@openzeppelin/contracts/access/Ownable.sol\":1201:1286  function owner() public view virtual returns (address) {... */\n    tag_29:\n        /* \"@openzeppelin/contracts/access/Ownable.sol\":1247:1254  address */\n      0x00\n        /* \"@openzeppelin/contracts/access/Ownable.sol\":1273:1279  _owner */\n      dup1\n      0x00\n      swap1\n      sload\n      swap1\n      0x0100\n      exp\n      swap1\n      div\n      0xffffffffffffffffffffffffffffffffffffffff\n      and\n        /* \"@openzeppelin/contracts/access/Ownable.sol\":1266:1279  return _owner */\n      swap1\n      pop\n        /* \"@openzeppelin/contracts/access/Ownable.sol\":1201:1286  function owner() public view virtual returns (address) {... */\n      swap1\n      jump\t// out\n        /* \"contracts/ETH_Denver_Bootcamp/Homework_5/VolcanoCoinOpenZeppelin.sol\":1833:2391  function transfer(address to, uint amount) public {... */\n    tag_35:\n        /* \"contracts/ETH_Denver_Bootcamp/Homework_5/VolcanoCoinOpenZeppelin.sol\":1894:1906  uint balance */\n      0x00\n        /* \"contracts/ETH_Denver_Bootcamp/Homework_5/VolcanoCoinOpenZeppelin.sol\":1909:1917  balances */\n      0x02\n        /* \"contracts/ETH_Denver_Bootcamp/Homework_5/VolcanoCoinOpenZeppelin.sol\":1909:1929  balances[msg.sender] */\n      0x00\n        /* \"contracts/ETH_Denver_Bootcamp/Homework_5/VolcanoCoinOpenZeppelin.sol\":1918:1928  msg.sender */\n      caller\n        /* \"contracts/ETH_Denver_Bootcamp/Homework_5/VolcanoCoinOpenZeppelin.sol\":1909:1929  balances[msg.sender] */\n      0xffffffffffffffffffffffffffffffffffffffff\n      and\n      0xffffffffffffffffffffffffffffffffffffffff\n      and\n      dup2\n      mstore\n      0x20\n      add\n      swap1\n      dup2\n      mstore\n      0x20\n      add\n      0x00\n      keccak256\n      sload\n        /* \"contracts/ETH_Denver_Bootcamp/Homework_5/VolcanoCoinOpenZeppelin.sol\":1894:1929  uint balance = balances[msg.sender] */\n      swap1\n      pop\n        /* \"contracts/ETH_Denver_Bootcamp/Homework_5/VolcanoCoinOpenZeppelin.sol\":1954:1960  amount */\n      dup2\n        /* \"contracts/ETH_Denver_Bootcamp/Homework_5/VolcanoCoinOpenZeppelin.sol\":1944:1951  balance */\n      dup2\n        /* \"contracts/ETH_Denver_Bootcamp/Homework_5/VolcanoCoinOpenZeppelin.sol\":1944:1960  balance < amount */\n      lt\n        /* \"contracts/ETH_Denver_Bootcamp/Homework_5/VolcanoCoinOpenZeppelin.sol\":1940:2100  if (balance < amount)                                           // check token availability of current sender... */\n      iszero\n      tag_54\n      jumpi\n        /* \"contracts/ETH_Denver_Bootcamp/Homework_5/VolcanoCoinOpenZeppelin.sol\":2085:2091  amount */\n      dup2\n        /* \"contracts/ETH_Denver_Bootcamp/Homework_5/VolcanoCoinOpenZeppelin.sol\":2092:2099  balance */\n      dup2\n        /* \"contracts/ETH_Denver_Bootcamp/Homework_5/VolcanoCoinOpenZeppelin.sol\":2070:2100  NotEnoughFunds(amount,balance) */\n      mload(0x40)\n      0x8c90536800000000000000000000000000000000000000000000000000000000\n      dup2\n      mstore\n      0x04\n      add\n      tag_55\n      swap3\n      swap2\n      swap1\n      tag_56\n      jump\t// in\n    tag_55:\n      mload(0x40)\n      dup1\n      swap2\n      sub\n      swap1\n      revert\n        /* \"contracts/ETH_Denver_Bootcamp/Homework_5/VolcanoCoinOpenZeppelin.sol\":1940:2100  if (balance < amount)                                           // check token availability of current sender... */\n    tag_54:\n        /* \"contracts/ETH_Denver_Bootcamp/Homework_5/VolcanoCoinOpenZeppelin.sol\":2135:2141  amount */\n      dup2\n        /* \"contracts/ETH_Denver_Bootcamp/Homework_5/VolcanoCoinOpenZeppelin.sol\":2111:2119  balances */\n      0x02\n        /* \"contracts/ETH_Denver_Bootcamp/Homework_5/VolcanoCoinOpenZeppelin.sol\":2111:2131  balances[msg.sender] */\n      0x00\n        /* \"contracts/ETH_Denver_Bootcamp/Homework_5/VolcanoCoinOpenZeppelin.sol\":2120:2130  msg.sender */\n      caller\n        /* \"contracts/ETH_Denver_Bootcamp/Homework_5/VolcanoCoinOpenZeppelin.sol\":2111:2131  balances[msg.sender] */\n      0xffffffffffffffffffffffffffffffffffffffff\n      and\n      0xffffffffffffffffffffffffffffffffffffffff\n      and\n      dup2\n      mstore\n      0x20\n      add\n      swap1\n      dup2\n      mstore\n      0x20\n      add\n      0x00\n      keccak256\n      0x00\n        /* \"contracts/ETH_Denver_Bootcamp/Homework_5/VolcanoCoinOpenZeppelin.sol\":2111:2141  balances[msg.sender] -= amount */\n      dup3\n      dup3\n      sload\n      tag_57\n      swap2\n      swap1\n      tag_58\n      jump\t// in\n    tag_57:\n      swap3\n      pop\n      pop\n      dup2\n      swap1\n      sstore\n      pop\n        /* \"contracts/ETH_Denver_Bootcamp/Homework_5/VolcanoCoinOpenZeppelin.sol\":2168:2174  amount */\n      dup2\n        /* \"contracts/ETH_Denver_Bootcamp/Homework_5/VolcanoCoinOpenZeppelin.sol\":2152:2160  balances */\n      0x02\n        /* \"contracts/ETH_Denver_Bootcamp/Homework_5/VolcanoCoinOpenZeppelin.sol\":2152:2164  balances[to] */\n      0x00\n        /* \"contracts/ETH_Denver_Bootcamp/Homework_5/VolcanoCoinOpenZeppelin.sol\":2161:2163  to */\n      dup6\n        /* \"contracts/ETH_Denver_Bootcamp/Homework_5/VolcanoCoinOpenZeppelin.sol\":2152:2164  balances[to] */\n      0xffffffffffffffffffffffffffffffffffffffff\n      and\n      0xffffffffffffffffffffffffffffffffffffffff\n      and\n      dup2\n      mstore\n      0x20\n      add\n      swap1\n      dup2\n      mstore\n      0x20\n      add\n      0x00\n      keccak256\n      0x00\n        /* \"contracts/ETH_Denver_Bootcamp/Homework_5/VolcanoCoinOpenZeppelin.sol\":2152:2174  balances[to] += amount */\n      dup3\n      dup3\n      sload\n      tag_59\n      swap2\n      swap1\n      tag_60\n      jump\t// in\n    tag_59:\n      swap3\n      pop\n      pop\n      dup2\n      swap1\n      sstore\n      pop\n        /* \"contracts/ETH_Denver_Bootcamp/Homework_5/VolcanoCoinOpenZeppelin.sol\":2185:2194  transfers */\n      0x03\n        /* \"contracts/ETH_Denver_Bootcamp/Homework_5/VolcanoCoinOpenZeppelin.sol\":2185:2206  transfers[msg.sender] */\n      0x00\n        /* \"contracts/ETH_Denver_Bootcamp/Homework_5/VolcanoCoinOpenZeppelin.sol\":2195:2205  msg.sender */\n      caller\n        /* \"contracts/ETH_Denver_Bootcamp/Homework_5/VolcanoCoinOpenZeppelin.sol\":2185:2206  transfers[msg.sender] */\n      0xffffffffffffffffffffffffffffffffffffffff\n      and\n      0xffffffffffffffffffffffffffffffffffffffff\n      and\n      dup2\n      mstore\n      0x20\n      add\n      swap1\n      dup2\n      mstore\n      0x20\n      add\n      0x00\n      keccak256\n        /* \"contracts/ETH_Denver_Bootcamp/Homework_5/VolcanoCoinOpenZeppelin.sol\":2212:2230  Payment(to,amount) */\n      mload(0x40)\n      dup1\n      0x40\n      add\n      0x40\n      mstore\n      dup1\n        /* \"contracts/ETH_Denver_Bootcamp/Homework_5/VolcanoCoinOpenZeppelin.sol\":2220:2222  to */\n      dup6\n        /* \"contracts/ETH_Denver_Bootcamp/Homework_5/VolcanoCoinOpenZeppelin.sol\":2212:2230  Payment(to,amount) */\n      0xffffffffffffffffffffffffffffffffffffffff\n      and\n      dup2\n      mstore\n      0x20\n      add\n        /* \"contracts/ETH_Denver_Bootcamp/Homework_5/VolcanoCoinOpenZeppelin.sol\":2223:2229  amount */\n      dup5\n        /* \"contracts/ETH_Denver_Bootcamp/Homework_5/VolcanoCoinOpenZeppelin.sol\":2212:2230  Payment(to,amount) */\n      dup2\n      mstore\n      pop\n        /* \"contracts/ETH_Denver_Bootcamp/Homework_5/VolcanoCoinOpenZeppelin.sol\":2185:2231  transfers[msg.sender].push(Payment(to,amount)) */\n      swap1\n      dup1\n      0x01\n      dup2\n      sload\n      add\n      dup1\n      dup3\n      sstore\n      dup1\n      swap2\n      pop\n      pop\n      0x01\n      swap1\n      sub\n      swap1\n      0x00\n      mstore\n      keccak256(0x00, 0x20)\n      swap1\n      0x02\n      mul\n      add\n      0x00\n      swap1\n      swap2\n      swap1\n      swap2\n      swap1\n      swap2\n      pop\n      0x00\n      dup3\n      add\n      mload\n      dup2\n      0x00\n      add\n      exp(0x0100, 0x00)\n      dup2\n      sload\n      dup2\n      0xffffffffffffffffffffffffffffffffffffffff\n      mul\n      not\n      and\n      swap1\n      dup4\n      0xffffffffffffffffffffffffffffffffffffffff\n      and\n      mul\n      or\n      swap1\n      sstore\n      pop\n      0x20\n      dup3\n      add\n      mload\n      dup2\n      0x01\n      add\n      sstore\n      pop\n      pop\n        /* \"contracts/ETH_Denver_Bootcamp/Homework_5/VolcanoCoinOpenZeppelin.sol\":2360:2383  TransferData(amount,to) */\n      0xc93b3dc6d510aebde6bf73dcc5ff270ab2554bf5db86cc436e92ec9f185829e7\n        /* \"contracts/ETH_Denver_Bootcamp/Homework_5/VolcanoCoinOpenZeppelin.sol\":2373:2379  amount */\n      dup3\n        /* \"contracts/ETH_Denver_Bootcamp/Homework_5/VolcanoCoinOpenZeppelin.sol\":2380:2382  to */\n      dup5\n        /* \"contracts/ETH_Denver_Bootcamp/Homework_5/VolcanoCoinOpenZeppelin.sol\":2360:2383  TransferData(amount,to) */\n      mload(0x40)\n      tag_62\n      swap3\n      swap2\n      swap1\n      tag_63\n      jump\t// in\n    tag_62:\n      mload(0x40)\n      dup1\n      swap2\n      sub\n      swap1\n      log1\n        /* \"contracts/ETH_Denver_Bootcamp/Homework_5/VolcanoCoinOpenZeppelin.sol\":1883:2391  {... */\n      pop\n        /* \"contracts/ETH_Denver_Bootcamp/Homework_5/VolcanoCoinOpenZeppelin.sol\":1833:2391  function transfer(address to, uint amount) public {... */\n      pop\n      pop\n      jump\t// out\n        /* \"contracts/ETH_Denver_Bootcamp/Homework_5/VolcanoCoinOpenZeppelin.sol\":1322:1789  function setSupply() public onlyOwner {... */\n    tag_37:\n        /* \"@openzeppelin/contracts/access/Ownable.sol\":1094:1107  _checkOwner() */\n      tag_65\n        /* \"@openzeppelin/contracts/access/Ownable.sol\":1094:1105  _checkOwner */\n      tag_48\n        /* \"@openzeppelin/contracts/access/Ownable.sol\":1094:1107  _checkOwner() */\n      jump\t// in\n    tag_65:\n        /* \"contracts/ETH_Denver_Bootcamp/Homework_5/VolcanoCoinOpenZeppelin.sol\":1371:1395  uint previousTotalSupply */\n      0x00\n        /* \"contracts/ETH_Denver_Bootcamp/Homework_5/VolcanoCoinOpenZeppelin.sol\":1398:1409  totalSupply */\n      sload(0x01)\n        /* \"contracts/ETH_Denver_Bootcamp/Homework_5/VolcanoCoinOpenZeppelin.sol\":1371:1409  uint previousTotalSupply = totalSupply */\n      swap1\n      pop\n        /* \"contracts/ETH_Denver_Bootcamp/Homework_5/VolcanoCoinOpenZeppelin.sol\":1435:1439  1000 */\n      0x03e8\n        /* \"contracts/ETH_Denver_Bootcamp/Homework_5/VolcanoCoinOpenZeppelin.sol\":1420:1431  totalSupply */\n      0x01\n      0x00\n        /* \"contracts/ETH_Denver_Bootcamp/Homework_5/VolcanoCoinOpenZeppelin.sol\":1420:1439  totalSupply += 1000 */\n      dup3\n      dup3\n      sload\n      tag_67\n      swap2\n      swap1\n      tag_60\n      jump\t// in\n    tag_67:\n      swap3\n      pop\n      pop\n      dup2\n      swap1\n      sstore\n      pop\n        /* \"contracts/ETH_Denver_Bootcamp/Homework_5/VolcanoCoinOpenZeppelin.sol\":1540:1544  1000 */\n      0x03e8\n        /* \"contracts/ETH_Denver_Bootcamp/Homework_5/VolcanoCoinOpenZeppelin.sol\":1516:1524  balances */\n      0x02\n        /* \"contracts/ETH_Denver_Bootcamp/Homework_5/VolcanoCoinOpenZeppelin.sol\":1516:1536  balances[msg.sender] */\n      0x00\n        /* \"contracts/ETH_Denver_Bootcamp/Homework_5/VolcanoCoinOpenZeppelin.sol\":1525:1535  msg.sender */\n      caller\n        /* \"contracts/ETH_Denver_Bootcamp/Homework_5/VolcanoCoinOpenZeppelin.sol\":1516:1536  balances[msg.sender] */\n      0xffffffffffffffffffffffffffffffffffffffff\n      and\n      0xffffffffffffffffffffffffffffffffffffffff\n      and\n      dup2\n      mstore\n      0x20\n      add\n      swap1\n      dup2\n      mstore\n      0x20\n      add\n      0x00\n      keccak256\n      0x00\n        /* \"contracts/ETH_Denver_Bootcamp/Homework_5/VolcanoCoinOpenZeppelin.sol\":1516:1544  balances[msg.sender] += 1000 */\n      dup3\n      dup3\n      sload\n      tag_68\n      swap2\n      swap1\n      tag_60\n      jump\t// in\n    tag_68:\n      swap3\n      pop\n      pop\n      dup2\n      swap1\n      sstore\n      pop\n        /* \"contracts/ETH_Denver_Bootcamp/Homework_5/VolcanoCoinOpenZeppelin.sol\":1684:1703  previousTotalSupply */\n      dup1\n        /* \"contracts/ETH_Denver_Bootcamp/Homework_5/VolcanoCoinOpenZeppelin.sol\":1669:1680  totalSupply */\n      sload(0x01)\n        /* \"contracts/ETH_Denver_Bootcamp/Homework_5/VolcanoCoinOpenZeppelin.sol\":1669:1703  totalSupply != previousTotalSupply */\n      eq\n        /* \"contracts/ETH_Denver_Bootcamp/Homework_5/VolcanoCoinOpenZeppelin.sol\":1665:1782  if (totalSupply != previousTotalSupply) {... */\n      tag_69\n      jumpi\n        /* \"contracts/ETH_Denver_Bootcamp/Homework_5/VolcanoCoinOpenZeppelin.sol\":1725:1770  SupplyChange(previousTotalSupply,totalSupply) */\n      0x511f5b61bdfae17b57b5c46b525583881874446ae299eb1fd8cece6e79c8fe2e\n        /* \"contracts/ETH_Denver_Bootcamp/Homework_5/VolcanoCoinOpenZeppelin.sol\":1738:1757  previousTotalSupply */\n      dup2\n        /* \"contracts/ETH_Denver_Bootcamp/Homework_5/VolcanoCoinOpenZeppelin.sol\":1758:1769  totalSupply */\n      sload(0x01)\n        /* \"contracts/ETH_Denver_Bootcamp/Homework_5/VolcanoCoinOpenZeppelin.sol\":1725:1770  SupplyChange(previousTotalSupply,totalSupply) */\n      mload(0x40)\n      tag_70\n      swap3\n      swap2\n      swap1\n      tag_56\n      jump\t// in\n    tag_70:\n      mload(0x40)\n      dup1\n      swap2\n      sub\n      swap1\n      log1\n        /* \"contracts/ETH_Denver_Bootcamp/Homework_5/VolcanoCoinOpenZeppelin.sol\":1665:1782  if (totalSupply != previousTotalSupply) {... */\n    tag_69:\n        /* \"contracts/ETH_Denver_Bootcamp/Homework_5/VolcanoCoinOpenZeppelin.sol\":1360:1789  {... */\n      pop\n        /* \"contracts/ETH_Denver_Bootcamp/Homework_5/VolcanoCoinOpenZeppelin.sol\":1322:1789  function setSupply() public onlyOwner {... */\n      jump\t// out\n        /* \"@openzeppelin/contracts/access/Ownable.sol\":2081:2279  function transferOwnership(address newOwner) public virtual onlyOwner {... */\n    tag_40:\n        /* \"@openzeppelin/contracts/access/Ownable.sol\":1094:1107  _checkOwner() */\n      tag_72\n        /* \"@openzeppelin/contracts/access/Ownable.sol\":1094:1105  _checkOwner */\n      tag_48\n        /* \"@openzeppelin/contracts/access/Ownable.sol\":1094:1107  _checkOwner() */\n      jump\t// in\n    tag_72:\n        /* \"@openzeppelin/contracts/access/Ownable.sol\":2189:2190  0 */\n      0x00\n        /* \"@openzeppelin/contracts/access/Ownable.sol\":2169:2191  newOwner != address(0) */\n      0xffffffffffffffffffffffffffffffffffffffff\n      and\n        /* \"@openzeppelin/contracts/access/Ownable.sol\":2169:2177  newOwner */\n      dup2\n        /* \"@openzeppelin/contracts/access/Ownable.sol\":2169:2191  newOwner != address(0) */\n      0xffffffffffffffffffffffffffffffffffffffff\n      and\n      sub\n        /* \"@openzeppelin/contracts/access/Ownable.sol\":2161:2234  require(newOwner != address(0), \"Ownable: new owner is the zero address\") */\n      tag_74\n      jumpi\n      mload(0x40)\n      0x08c379a000000000000000000000000000000000000000000000000000000000\n      dup2\n      mstore\n      0x04\n      add\n      tag_75\n      swap1\n      tag_76\n      jump\t// in\n    tag_75:\n      mload(0x40)\n      dup1\n      swap2\n      sub\n      swap1\n      revert\n    tag_74:\n        /* \"@openzeppelin/contracts/access/Ownable.sol\":2244:2272  _transferOwnership(newOwner) */\n      tag_77\n        /* \"@openzeppelin/contracts/access/Ownable.sol\":2263:2271  newOwner */\n      dup2\n        /* \"@openzeppelin/contracts/access/Ownable.sol\":2244:2262  _transferOwnership */\n      tag_51\n        /* \"@openzeppelin/contracts/access/Ownable.sol\":2244:2272  _transferOwnership(newOwner) */\n      jump\t// in\n    tag_77:\n        /* \"@openzeppelin/contracts/access/Ownable.sol\":2081:2279  function transferOwnership(address newOwner) public virtual onlyOwner {... */\n      pop\n      jump\t// out\n        /* \"@openzeppelin/contracts/access/Ownable.sol\":1359:1489  function _checkOwner() internal view virtual {... */\n    tag_48:\n        /* \"@openzeppelin/contracts/access/Ownable.sol\":1433:1445  _msgSender() */\n      tag_79\n        /* \"@openzeppelin/contracts/access/Ownable.sol\":1433:1443  _msgSender */\n      tag_80\n        /* \"@openzeppelin/contracts/access/Ownable.sol\":1433:1445  _msgSender() */\n      jump\t// in\n    tag_79:\n        /* \"@openzeppelin/contracts/access/Ownable.sol\":1422:1445  owner() == _msgSender() */\n      0xffffffffffffffffffffffffffffffffffffffff\n      and\n        /* \"@openzeppelin/contracts/access/Ownable.sol\":1422:1429  owner() */\n      tag_81\n        /* \"@openzeppelin/contracts/access/Ownable.sol\":1422:1427  owner */\n      tag_29\n        /* \"@openzeppelin/contracts/access/Ownable.sol\":1422:1429  owner() */\n      jump\t// in\n    tag_81:\n        /* \"@openzeppelin/contracts/access/Ownable.sol\":1422:1445  owner() == _msgSender() */\n      0xffffffffffffffffffffffffffffffffffffffff\n      and\n      eq\n        /* \"@openzeppelin/contracts/access/Ownable.sol\":1414:1482  require(owner() == _msgSender(), \"Ownable: caller is not the owner\") */\n      tag_82\n      jumpi\n      mload(0x40)\n      0x08c379a000000000000000000000000000000000000000000000000000000000\n      dup2\n      mstore\n      0x04\n      add\n      tag_83\n      swap1\n      tag_84\n      jump\t// in\n    tag_83:\n      mload(0x40)\n      dup1\n      swap2\n      sub\n      swap1\n      revert\n    tag_82:\n        /* \"@openzeppelin/contracts/access/Ownable.sol\":1359:1489  function _checkOwner() internal view virtual {... */\n      jump\t// out\n        /* \"@openzeppelin/contracts/access/Ownable.sol\":2433:2620  function _transferOwnership(address newOwner) internal virtual {... */\n    tag_51:\n        /* \"@openzeppelin/contracts/access/Ownable.sol\":2506:2522  address oldOwner */\n      0x00\n        /* \"@openzeppelin/contracts/access/Ownable.sol\":2525:2531  _owner */\n      dup1\n      0x00\n      swap1\n      sload\n      swap1\n      0x0100\n      exp\n      swap1\n      div\n      0xffffffffffffffffffffffffffffffffffffffff\n      and\n        /* \"@openzeppelin/contracts/access/Ownable.sol\":2506:2531  address oldOwner = _owner */\n      swap1\n      pop\n        /* \"@openzeppelin/contracts/access/Ownable.sol\":2550:2558  newOwner */\n      dup2\n        /* \"@openzeppelin/contracts/access/Ownable.sol\":2541:2547  _owner */\n      0x00\n      dup1\n        /* \"@openzeppelin/contracts/access/Ownable.sol\":2541:2558  _owner = newOwner */\n      0x0100\n      exp\n      dup2\n      sload\n      dup2\n      0xffffffffffffffffffffffffffffffffffffffff\n      mul\n      not\n      and\n      swap1\n      dup4\n      0xffffffffffffffffffffffffffffffffffffffff\n      and\n      mul\n      or\n      swap1\n      sstore\n      pop\n        /* \"@openzeppelin/contracts/access/Ownable.sol\":2604:2612  newOwner */\n      dup2\n        /* \"@openzeppelin/contracts/access/Ownable.sol\":2573:2613  OwnershipTransferred(oldOwner, newOwner) */\n      0xffffffffffffffffffffffffffffffffffffffff\n      and\n        /* \"@openzeppelin/contracts/access/Ownable.sol\":2594:2602  oldOwner */\n      dup2\n        /* \"@openzeppelin/contracts/access/Ownable.sol\":2573:2613  OwnershipTransferred(oldOwner, newOwner) */\n      0xffffffffffffffffffffffffffffffffffffffff\n      and\n      0x8be0079c531659141344cd1fd0a4f28419497f9722a3daafe3b4186f6b6457e0\n      mload(0x40)\n      mload(0x40)\n      dup1\n      swap2\n      sub\n      swap1\n      log3\n        /* \"@openzeppelin/contracts/access/Ownable.sol\":2496:2620  {... */\n      pop\n        /* \"@openzeppelin/contracts/access/Ownable.sol\":2433:2620  function _transferOwnership(address newOwner) internal virtual {... */\n      pop\n      jump\t// out\n        /* \"@openzeppelin/contracts/utils/Context.sol\":640:736  function _msgSender() internal view virtual returns (address) {... */\n    tag_80:\n        /* \"@openzeppelin/contracts/utils/Context.sol\":693:700  address */\n      0x00\n        /* \"@openzeppelin/contracts/utils/Context.sol\":719:729  msg.sender */\n      caller\n        /* \"@openzeppelin/contracts/utils/Context.sol\":712:729  return msg.sender */\n      swap1\n      pop\n        /* \"@openzeppelin/contracts/utils/Context.sol\":640:736  function _msgSender() internal view virtual returns (address) {... */\n      swap1\n      jump\t// out\n        /* \"#utility.yul\":88:205   */\n    tag_88:\n        /* \"#utility.yul\":197:198   */\n      0x00\n        /* \"#utility.yul\":194:195   */\n      dup1\n        /* \"#utility.yul\":187:199   */\n      revert\n        /* \"#utility.yul\":334:460   */\n    tag_90:\n        /* \"#utility.yul\":371:378   */\n      0x00\n        /* \"#utility.yul\":411:453   */\n      0xffffffffffffffffffffffffffffffffffffffff\n        /* \"#utility.yul\":404:409   */\n      dup3\n        /* \"#utility.yul\":400:454   */\n      and\n        /* \"#utility.yul\":389:454   */\n      swap1\n      pop\n        /* \"#utility.yul\":334:460   */\n      swap2\n      swap1\n      pop\n      jump\t// out\n        /* \"#utility.yul\":466:562   */\n    tag_91:\n        /* \"#utility.yul\":503:510   */\n      0x00\n        /* \"#utility.yul\":532:556   */\n      tag_120\n        /* \"#utility.yul\":550:555   */\n      dup3\n        /* \"#utility.yul\":532:556   */\n      tag_90\n      jump\t// in\n    tag_120:\n        /* \"#utility.yul\":521:556   */\n      swap1\n      pop\n        /* \"#utility.yul\":466:562   */\n      swap2\n      swap1\n      pop\n      jump\t// out\n        /* \"#utility.yul\":568:690   */\n    tag_92:\n        /* \"#utility.yul\":641:665   */\n      tag_122\n        /* \"#utility.yul\":659:664   */\n      dup2\n        /* \"#utility.yul\":641:665   */\n      tag_91\n      jump\t// in\n    tag_122:\n        /* \"#utility.yul\":634:639   */\n      dup2\n        /* \"#utility.yul\":631:666   */\n      eq\n        /* \"#utility.yul\":621:684   */\n      tag_123\n      jumpi\n        /* \"#utility.yul\":680:681   */\n      0x00\n        /* \"#utility.yul\":677:678   */\n      dup1\n        /* \"#utility.yul\":670:682   */\n      revert\n        /* \"#utility.yul\":621:684   */\n    tag_123:\n        /* \"#utility.yul\":568:690   */\n      pop\n      jump\t// out\n        /* \"#utility.yul\":696:835   */\n    tag_93:\n        /* \"#utility.yul\":742:747   */\n      0x00\n        /* \"#utility.yul\":780:786   */\n      dup2\n        /* \"#utility.yul\":767:787   */\n      calldataload\n        /* \"#utility.yul\":758:787   */\n      swap1\n      pop\n        /* \"#utility.yul\":796:829   */\n      tag_125\n        /* \"#utility.yul\":823:828   */\n      dup2\n        /* \"#utility.yul\":796:829   */\n      tag_92\n      jump\t// in\n    tag_125:\n        /* \"#utility.yul\":696:835   */\n      swap3\n      swap2\n      pop\n      pop\n      jump\t// out\n        /* \"#utility.yul\":841:1170   */\n    tag_14:\n        /* \"#utility.yul\":900:906   */\n      0x00\n        /* \"#utility.yul\":949:951   */\n      0x20\n        /* \"#utility.yul\":937:946   */\n      dup3\n        /* \"#utility.yul\":928:935   */\n      dup5\n        /* \"#utility.yul\":924:947   */\n      sub\n        /* \"#utility.yul\":920:952   */\n      slt\n        /* \"#utility.yul\":917:1036   */\n      iszero\n      tag_127\n      jumpi\n        /* \"#utility.yul\":955:1034   */\n      tag_128\n      tag_88\n      jump\t// in\n    tag_128:\n        /* \"#utility.yul\":917:1036   */\n    tag_127:\n        /* \"#utility.yul\":1075:1076   */\n      0x00\n        /* \"#utility.yul\":1100:1153   */\n      tag_129\n        /* \"#utility.yul\":1145:1152   */\n      dup5\n        /* \"#utility.yul\":1136:1142   */\n      dup3\n        /* \"#utility.yul\":1125:1134   */\n      dup6\n        /* \"#utility.yul\":1121:1143   */\n      add\n        /* \"#utility.yul\":1100:1153   */\n      tag_93\n      jump\t// in\n    tag_129:\n        /* \"#utility.yul\":1090:1153   */\n      swap2\n      pop\n        /* \"#utility.yul\":1046:1163   */\n      pop\n        /* \"#utility.yul\":841:1170   */\n      swap3\n      swap2\n      pop\n      pop\n      jump\t// out\n        /* \"#utility.yul\":1176:1253   */\n    tag_94:\n        /* \"#utility.yul\":1213:1220   */\n      0x00\n        /* \"#utility.yul\":1242:1247   */\n      dup2\n        /* \"#utility.yul\":1231:1247   */\n      swap1\n      pop\n        /* \"#utility.yul\":1176:1253   */\n      swap2\n      swap1\n      pop\n      jump\t// out\n        /* \"#utility.yul\":1259:1377   */\n    tag_95:\n        /* \"#utility.yul\":1346:1370   */\n      tag_132\n        /* \"#utility.yul\":1364:1369   */\n      dup2\n        /* \"#utility.yul\":1346:1370   */\n      tag_94\n      jump\t// in\n    tag_132:\n        /* \"#utility.yul\":1341:1344   */\n      dup3\n        /* \"#utility.yul\":1334:1371   */\n      mstore\n        /* \"#utility.yul\":1259:1377   */\n      pop\n      pop\n      jump\t// out\n        /* \"#utility.yul\":1383:1605   */\n    tag_17:\n        /* \"#utility.yul\":1476:1480   */\n      0x00\n        /* \"#utility.yul\":1514:1516   */\n      0x20\n        /* \"#utility.yul\":1503:1512   */\n      dup3\n        /* \"#utility.yul\":1499:1517   */\n      add\n        /* \"#utility.yul\":1491:1517   */\n      swap1\n      pop\n        /* \"#utility.yul\":1527:1598   */\n      tag_134\n        /* \"#utility.yul\":1595:1596   */\n      0x00\n        /* \"#utility.yul\":1584:1593   */\n      dup4\n        /* \"#utility.yul\":1580:1597   */\n      add\n        /* \"#utility.yul\":1571:1577   */\n      dup5\n        /* \"#utility.yul\":1527:1598   */\n      tag_95\n      jump\t// in\n    tag_134:\n        /* \"#utility.yul\":1383:1605   */\n      swap3\n      swap2\n      pop\n      pop\n      jump\t// out\n        /* \"#utility.yul\":1611:1749   */\n    tag_96:\n        /* \"#utility.yul\":1702:1708   */\n      0x00\n        /* \"#utility.yul\":1736:1741   */\n      dup2\n        /* \"#utility.yul\":1730:1742   */\n      mload\n        /* \"#utility.yul\":1720:1742   */\n      swap1\n      pop\n        /* \"#utility.yul\":1611:1749   */\n      swap2\n      swap1\n      pop\n      jump\t// out\n        /* \"#utility.yul\":1755:1963   */\n    tag_97:\n        /* \"#utility.yul\":1878:1889   */\n      0x00\n        /* \"#utility.yul\":1912:1918   */\n      dup3\n        /* \"#utility.yul\":1907:1910   */\n      dup3\n        /* \"#utility.yul\":1900:1919   */\n      mstore\n        /* \"#utility.yul\":1952:1956   */\n      0x20\n        /* \"#utility.yul\":1947:1950   */\n      dup3\n        /* \"#utility.yul\":1943:1957   */\n      add\n        /* \"#utility.yul\":1928:1957   */\n      swap1\n      pop\n        /* \"#utility.yul\":1755:1963   */\n      swap3\n      swap2\n      pop\n      pop\n      jump\t// out\n        /* \"#utility.yul\":1969:2125   */\n    tag_98:\n        /* \"#utility.yul\":2060:2064   */\n      0x00\n        /* \"#utility.yul\":2083:2086   */\n      dup2\n        /* \"#utility.yul\":2075:2086   */\n      swap1\n      pop\n        /* \"#utility.yul\":2113:2117   */\n      0x20\n        /* \"#utility.yul\":2108:2111   */\n      dup3\n        /* \"#utility.yul\":2104:2118   */\n      add\n        /* \"#utility.yul\":2096:2118   */\n      swap1\n      pop\n        /* \"#utility.yul\":1969:2125   */\n      swap2\n      swap1\n      pop\n      jump\t// out\n        /* \"#utility.yul\":2131:2239   */\n    tag_99:\n        /* \"#utility.yul\":2208:2232   */\n      tag_139\n        /* \"#utility.yul\":2226:2231   */\n      dup2\n        /* \"#utility.yul\":2208:2232   */\n      tag_91\n      jump\t// in\n    tag_139:\n        /* \"#utility.yul\":2203:2206   */\n      dup3\n        /* \"#utility.yul\":2196:2233   */\n      mstore\n        /* \"#utility.yul\":2131:2239   */\n      pop\n      pop\n      jump\t// out\n        /* \"#utility.yul\":2245:2353   */\n    tag_100:\n        /* \"#utility.yul\":2322:2346   */\n      tag_141\n        /* \"#utility.yul\":2340:2345   */\n      dup2\n        /* \"#utility.yul\":2322:2346   */\n      tag_94\n      jump\t// in\n    tag_141:\n        /* \"#utility.yul\":2317:2320   */\n      dup3\n        /* \"#utility.yul\":2310:2347   */\n      mstore\n        /* \"#utility.yul\":2245:2353   */\n      pop\n      pop\n      jump\t// out\n        /* \"#utility.yul\":2423:2925   */\n    tag_101:\n        /* \"#utility.yul\":2558:2562   */\n      0x40\n        /* \"#utility.yul\":2553:2556   */\n      dup3\n        /* \"#utility.yul\":2549:2563   */\n      add\n        /* \"#utility.yul\":2650:2654   */\n      0x00\n        /* \"#utility.yul\":2643:2648   */\n      dup3\n        /* \"#utility.yul\":2639:2655   */\n      add\n        /* \"#utility.yul\":2633:2656   */\n      mload\n        /* \"#utility.yul\":2669:2732   */\n      tag_143\n        /* \"#utility.yul\":2726:2730   */\n      0x00\n        /* \"#utility.yul\":2721:2724   */\n      dup6\n        /* \"#utility.yul\":2717:2731   */\n      add\n        /* \"#utility.yul\":2703:2715   */\n      dup3\n        /* \"#utility.yul\":2669:2732   */\n      tag_99\n      jump\t// in\n    tag_143:\n        /* \"#utility.yul\":2573:2742   */\n      pop\n        /* \"#utility.yul\":2826:2830   */\n      0x20\n        /* \"#utility.yul\":2819:2824   */\n      dup3\n        /* \"#utility.yul\":2815:2831   */\n      add\n        /* \"#utility.yul\":2809:2832   */\n      mload\n        /* \"#utility.yul\":2845:2908   */\n      tag_144\n        /* \"#utility.yul\":2902:2906   */\n      0x20\n        /* \"#utility.yul\":2897:2900   */\n      dup6\n        /* \"#utility.yul\":2893:2907   */\n      add\n        /* \"#utility.yul\":2879:2891   */\n      dup3\n        /* \"#utility.yul\":2845:2908   */\n      tag_100\n      jump\t// in\n    tag_144:\n        /* \"#utility.yul\":2752:2918   */\n      pop\n        /* \"#utility.yul\":2527:2925   */\n      pop\n        /* \"#utility.yul\":2423:2925   */\n      pop\n      pop\n      jump\t// out\n        /* \"#utility.yul\":2931:3206   */\n    tag_102:\n        /* \"#utility.yul\":3048:3058   */\n      0x00\n        /* \"#utility.yul\":3069:3163   */\n      tag_146\n        /* \"#utility.yul\":3159:3162   */\n      dup4\n        /* \"#utility.yul\":3151:3157   */\n      dup4\n        /* \"#utility.yul\":3069:3163   */\n      tag_101\n      jump\t// in\n    tag_146:\n        /* \"#utility.yul\":3195:3199   */\n      0x40\n        /* \"#utility.yul\":3190:3193   */\n      dup4\n        /* \"#utility.yul\":3186:3200   */\n      add\n        /* \"#utility.yul\":3172:3200   */\n      swap1\n      pop\n        /* \"#utility.yul\":2931:3206   */\n      swap3\n      swap2\n      pop\n      pop\n      jump\t// out\n        /* \"#utility.yul\":3212:3349   */\n    tag_103:\n        /* \"#utility.yul\":3306:3310   */\n      0x00\n        /* \"#utility.yul\":3338:3342   */\n      0x20\n        /* \"#utility.yul\":3333:3336   */\n      dup3\n        /* \"#utility.yul\":3329:3343   */\n      add\n        /* \"#utility.yul\":3321:3343   */\n      swap1\n      pop\n        /* \"#utility.yul\":3212:3349   */\n      swap2\n      swap1\n      pop\n      jump\t// out\n        /* \"#utility.yul\":3423:4347   */\n    tag_104:\n        /* \"#utility.yul\":3590:3593   */\n      0x00\n        /* \"#utility.yul\":3619:3697   */\n      tag_149\n        /* \"#utility.yul\":3691:3696   */\n      dup3\n        /* \"#utility.yul\":3619:3697   */\n      tag_96\n      jump\t// in\n    tag_149:\n        /* \"#utility.yul\":3713:3823   */\n      tag_150\n        /* \"#utility.yul\":3816:3822   */\n      dup2\n        /* \"#utility.yul\":3811:3814   */\n      dup6\n        /* \"#utility.yul\":3713:3823   */\n      tag_97\n      jump\t// in\n    tag_150:\n        /* \"#utility.yul\":3706:3823   */\n      swap4\n      pop\n        /* \"#utility.yul\":3847:3927   */\n      tag_151\n        /* \"#utility.yul\":3921:3926   */\n      dup4\n        /* \"#utility.yul\":3847:3927   */\n      tag_98\n      jump\t// in\n    tag_151:\n        /* \"#utility.yul\":3950:3957   */\n      dup1\n        /* \"#utility.yul\":3981:3982   */\n      0x00\n        /* \"#utility.yul\":3966:4322   */\n    tag_152:\n        /* \"#utility.yul\":3991:3997   */\n      dup4\n        /* \"#utility.yul\":3988:3989   */\n      dup2\n        /* \"#utility.yul\":3985:3998   */\n      lt\n        /* \"#utility.yul\":3966:4322   */\n      iszero\n      tag_154\n      jumpi\n        /* \"#utility.yul\":4067:4073   */\n      dup2\n        /* \"#utility.yul\":4061:4074   */\n      mload\n        /* \"#utility.yul\":4094:4205   */\n      tag_155\n        /* \"#utility.yul\":4201:4204   */\n      dup9\n        /* \"#utility.yul\":4186:4199   */\n      dup3\n        /* \"#utility.yul\":4094:4205   */\n      tag_102\n      jump\t// in\n    tag_155:\n        /* \"#utility.yul\":4087:4205   */\n      swap8\n      pop\n        /* \"#utility.yul\":4228:4312   */\n      tag_156\n        /* \"#utility.yul\":4305:4311   */\n      dup4\n        /* \"#utility.yul\":4228:4312   */\n      tag_103\n      jump\t// in\n    tag_156:\n        /* \"#utility.yul\":4218:4312   */\n      swap3\n      pop\n        /* \"#utility.yul\":4026:4322   */\n      pop\n        /* \"#utility.yul\":4013:4014   */\n      0x01\n        /* \"#utility.yul\":4010:4011   */\n      dup2\n        /* \"#utility.yul\":4006:4015   */\n      add\n        /* \"#utility.yul\":4001:4015   */\n      swap1\n      pop\n        /* \"#utility.yul\":3966:4322   */\n      jump(tag_152)\n    tag_154:\n        /* \"#utility.yul\":3970:3984   */\n      pop\n        /* \"#utility.yul\":4338:4341   */\n      dup6\n        /* \"#utility.yul\":4331:4341   */\n      swap4\n      pop\n        /* \"#utility.yul\":3595:4347   */\n      pop\n      pop\n      pop\n        /* \"#utility.yul\":3423:4347   */\n      swap3\n      swap2\n      pop\n      pop\n      jump\t// out\n        /* \"#utility.yul\":4353:4822   */\n    tag_25:\n        /* \"#utility.yul\":4544:4548   */\n      0x00\n        /* \"#utility.yul\":4582:4584   */\n      0x20\n        /* \"#utility.yul\":4571:4580   */\n      dup3\n        /* \"#utility.yul\":4567:4585   */\n      add\n        /* \"#utility.yul\":4559:4585   */\n      swap1\n      pop\n        /* \"#utility.yul\":4631:4640   */\n      dup2\n        /* \"#utility.yul\":4625:4629   */\n      dup2\n        /* \"#utility.yul\":4621:4641   */\n      sub\n        /* \"#utility.yul\":4617:4618   */\n      0x00\n        /* \"#utility.yul\":4606:4615   */\n      dup4\n        /* \"#utility.yul\":4602:4619   */\n      add\n        /* \"#utility.yul\":4595:4642   */\n      mstore\n        /* \"#utility.yul\":4659:4815   */\n      tag_158\n        /* \"#utility.yul\":4810:4814   */\n      dup2\n        /* \"#utility.yul\":4801:4807   */\n      dup5\n        /* \"#utility.yul\":4659:4815   */\n      tag_104\n      jump\t// in\n    tag_158:\n        /* \"#utility.yul\":4651:4815   */\n      swap1\n      pop\n        /* \"#utility.yul\":4353:4822   */\n      swap3\n      swap2\n      pop\n      pop\n      jump\t// out\n        /* \"#utility.yul\":4828:4946   */\n    tag_105:\n        /* \"#utility.yul\":4915:4939   */\n      tag_160\n        /* \"#utility.yul\":4933:4938   */\n      dup2\n        /* \"#utility.yul\":4915:4939   */\n      tag_91\n      jump\t// in\n    tag_160:\n        /* \"#utility.yul\":4910:4913   */\n      dup3\n        /* \"#utility.yul\":4903:4940   */\n      mstore\n        /* \"#utility.yul\":4828:4946   */\n      pop\n      pop\n      jump\t// out\n        /* \"#utility.yul\":4952:5174   */\n    tag_31:\n        /* \"#utility.yul\":5045:5049   */\n      0x00\n        /* \"#utility.yul\":5083:5085   */\n      0x20\n        /* \"#utility.yul\":5072:5081   */\n      dup3\n        /* \"#utility.yul\":5068:5086   */\n      add\n        /* \"#utility.yul\":5060:5086   */\n      swap1\n      pop\n        /* \"#utility.yul\":5096:5167   */\n      tag_162\n        /* \"#utility.yul\":5164:5165   */\n      0x00\n        /* \"#utility.yul\":5153:5162   */\n      dup4\n        /* \"#utility.yul\":5149:5166   */\n      add\n        /* \"#utility.yul\":5140:5146   */\n      dup5\n        /* \"#utility.yul\":5096:5167   */\n      tag_105\n      jump\t// in\n    tag_162:\n        /* \"#utility.yul\":4952:5174   */\n      swap3\n      swap2\n      pop\n      pop\n      jump\t// out\n        /* \"#utility.yul\":5180:5302   */\n    tag_106:\n        /* \"#utility.yul\":5253:5277   */\n      tag_164\n        /* \"#utility.yul\":5271:5276   */\n      dup2\n        /* \"#utility.yul\":5253:5277   */\n      tag_94\n      jump\t// in\n    tag_164:\n        /* \"#utility.yul\":5246:5251   */\n      dup2\n        /* \"#utility.yul\":5243:5278   */\n      eq\n        /* \"#utility.yul\":5233:5296   */\n      tag_165\n      jumpi\n        /* \"#utility.yul\":5292:5293   */\n      0x00\n        /* \"#utility.yul\":5289:5290   */\n      dup1\n        /* \"#utility.yul\":5282:5294   */\n      revert\n        /* \"#utility.yul\":5233:5296   */\n    tag_165:\n        /* \"#utility.yul\":5180:5302   */\n      pop\n      jump\t// out\n        /* \"#utility.yul\":5308:5447   */\n    tag_107:\n        /* \"#utility.yul\":5354:5359   */\n      0x00\n        /* \"#utility.yul\":5392:5398   */\n      dup2\n        /* \"#utility.yul\":5379:5399   */\n      calldataload\n        /* \"#utility.yul\":5370:5399   */\n      swap1\n      pop\n        /* \"#utility.yul\":5408:5441   */\n      tag_167\n        /* \"#utility.yul\":5435:5440   */\n      dup2\n        /* \"#utility.yul\":5408:5441   */\n      tag_106\n      jump\t// in\n    tag_167:\n        /* \"#utility.yul\":5308:5447   */\n      swap3\n      swap2\n      pop\n      pop\n      jump\t// out\n        /* \"#utility.yul\":5453:5927   */\n    tag_34:\n        /* \"#utility.yul\":5521:5527   */\n      0x00\n        /* \"#utility.yul\":5529:5535   */\n      dup1\n        /* \"#utility.yul\":5578:5580   */\n      0x40\n        /* \"#utility.yul\":5566:5575   */\n      dup4\n        /* \"#utility.yul\":5557:5564   */\n      dup6\n        /* \"#utility.yul\":5553:5576   */\n      sub\n        /* \"#utility.yul\":5549:5581   */\n      slt\n        /* \"#utility.yul\":5546:5665   */\n      iszero\n      tag_169\n      jumpi\n        /* \"#utility.yul\":5584:5663   */\n      tag_170\n      tag_88\n      jump\t// in\n    tag_170:\n        /* \"#utility.yul\":5546:5665   */\n    tag_169:\n        /* \"#utility.yul\":5704:5705   */\n      0x00\n        /* \"#utility.yul\":5729:5782   */\n      tag_171\n        /* \"#utility.yul\":5774:5781   */\n      dup6\n        /* \"#utility.yul\":5765:5771   */\n      dup3\n        /* \"#utility.yul\":5754:5763   */\n      dup7\n        /* \"#utility.yul\":5750:5772   */\n      add\n        /* \"#utility.yul\":5729:5782   */\n      tag_93\n      jump\t// in\n    tag_171:\n        /* \"#utility.yul\":5719:5782   */\n      swap3\n      pop\n        /* \"#utility.yul\":5675:5792   */\n      pop\n        /* \"#utility.yul\":5831:5833   */\n      0x20\n        /* \"#utility.yul\":5857:5910   */\n      tag_172\n        /* \"#utility.yul\":5902:5909   */\n      dup6\n        /* \"#utility.yul\":5893:5899   */\n      dup3\n        /* \"#utility.yul\":5882:5891   */\n      dup7\n        /* \"#utility.yul\":5878:5900   */\n      add\n        /* \"#utility.yul\":5857:5910   */\n      tag_107\n      jump\t// in\n    tag_172:\n        /* \"#utility.yul\":5847:5910   */\n      swap2\n      pop\n        /* \"#utility.yul\":5802:5920   */\n      pop\n        /* \"#utility.yul\":5453:5927   */\n      swap3\n      pop\n      swap3\n      swap1\n      pop\n      jump\t// out\n        /* \"#utility.yul\":5933:6265   */\n    tag_56:\n        /* \"#utility.yul\":6054:6058   */\n      0x00\n        /* \"#utility.yul\":6092:6094   */\n      0x40\n        /* \"#utility.yul\":6081:6090   */\n      dup3\n        /* \"#utility.yul\":6077:6095   */\n      add\n        /* \"#utility.yul\":6069:6095   */\n      swap1\n      pop\n        /* \"#utility.yul\":6105:6176   */\n      tag_174\n        /* \"#utility.yul\":6173:6174   */\n      0x00\n        /* \"#utility.yul\":6162:6171   */\n      dup4\n        /* \"#utility.yul\":6158:6175   */\n      add\n        /* \"#utility.yul\":6149:6155   */\n      dup6\n        /* \"#utility.yul\":6105:6176   */\n      tag_95\n      jump\t// in\n    tag_174:\n        /* \"#utility.yul\":6186:6258   */\n      tag_175\n        /* \"#utility.yul\":6254:6256   */\n      0x20\n        /* \"#utility.yul\":6243:6252   */\n      dup4\n        /* \"#utility.yul\":6239:6257   */\n      add\n        /* \"#utility.yul\":6230:6236   */\n      dup5\n        /* \"#utility.yul\":6186:6258   */\n      tag_95\n      jump\t// in\n    tag_175:\n        /* \"#utility.yul\":5933:6265   */\n      swap4\n      swap3\n      pop\n      pop\n      pop\n      jump\t// out\n        /* \"#utility.yul\":6271:6451   */\n    tag_108:\n        /* \"#utility.yul\":6319:6396   */\n      0x4e487b7100000000000000000000000000000000000000000000000000000000\n        /* \"#utility.yul\":6316:6317   */\n      0x00\n        /* \"#utility.yul\":6309:6397   */\n      mstore\n        /* \"#utility.yul\":6416:6420   */\n      0x11\n        /* \"#utility.yul\":6413:6414   */\n      0x04\n        /* \"#utility.yul\":6406:6421   */\n      mstore\n        /* \"#utility.yul\":6440:6444   */\n      0x24\n        /* \"#utility.yul\":6437:6438   */\n      0x00\n        /* \"#utility.yul\":6430:6445   */\n      revert\n        /* \"#utility.yul\":6457:6651   */\n    tag_58:\n        /* \"#utility.yul\":6497:6501   */\n      0x00\n        /* \"#utility.yul\":6517:6537   */\n      tag_178\n        /* \"#utility.yul\":6535:6536   */\n      dup3\n        /* \"#utility.yul\":6517:6537   */\n      tag_94\n      jump\t// in\n    tag_178:\n        /* \"#utility.yul\":6512:6537   */\n      swap2\n      pop\n        /* \"#utility.yul\":6551:6571   */\n      tag_179\n        /* \"#utility.yul\":6569:6570   */\n      dup4\n        /* \"#utility.yul\":6551:6571   */\n      tag_94\n      jump\t// in\n    tag_179:\n        /* \"#utility.yul\":6546:6571   */\n      swap3\n      pop\n        /* \"#utility.yul\":6595:6596   */\n      dup3\n        /* \"#utility.yul\":6592:6593   */\n      dup3\n        /* \"#utility.yul\":6588:6597   */\n      sub\n        /* \"#utility.yul\":6580:6597   */\n      swap1\n      pop\n        /* \"#utility.yul\":6619:6620   */\n      dup2\n        /* \"#utility.yul\":6613:6617   */\n      dup2\n        /* \"#utility.yul\":6610:6621   */\n      gt\n        /* \"#utility.yul\":6607:6644   */\n      iszero\n      tag_180\n      jumpi\n        /* \"#utility.yul\":6624:6642   */\n      tag_181\n      tag_108\n      jump\t// in\n    tag_181:\n        /* \"#utility.yul\":6607:6644   */\n    tag_180:\n        /* \"#utility.yul\":6457:6651   */\n      swap3\n      swap2\n      pop\n      pop\n      jump\t// out\n        /* \"#utility.yul\":6657:6848   */\n    tag_60:\n        /* \"#utility.yul\":6697:6700   */\n      0x00\n        /* \"#utility.yul\":6716:6736   */\n      tag_183\n        /* \"#utility.yul\":6734:6735   */\n      dup3\n        /* \"#utility.yul\":6716:6736   */\n      tag_94\n      jump\t// in\n    tag_183:\n        /* \"#utility.yul\":6711:6736   */\n      swap2\n      pop\n        /* \"#utility.yul\":6750:6770   */\n      tag_184\n        /* \"#utility.yul\":6768:6769   */\n      dup4\n        /* \"#utility.yul\":6750:6770   */\n      tag_94\n      jump\t// in\n    tag_184:\n        /* \"#utility.yul\":6745:6770   */\n      swap3\n      pop\n        /* \"#utility.yul\":6793:6794   */\n      dup3\n        /* \"#utility.yul\":6790:6791   */\n      dup3\n        /* \"#utility.yul\":6786:6795   */\n      add\n        /* \"#utility.yul\":6779:6795   */\n      swap1\n      pop\n        /* \"#utility.yul\":6814:6817   */\n      dup1\n        /* \"#utility.yul\":6811:6812   */\n      dup3\n        /* \"#utility.yul\":6808:6818   */\n      gt\n        /* \"#utility.yul\":6805:6841   */\n      iszero\n      tag_185\n      jumpi\n        /* \"#utility.yul\":6821:6839   */\n      tag_186\n      tag_108\n      jump\t// in\n    tag_186:\n        /* \"#utility.yul\":6805:6841   */\n    tag_185:\n        /* \"#utility.yul\":6657:6848   */\n      swap3\n      swap2\n      pop\n      pop\n      jump\t// out\n        /* \"#utility.yul\":6854:7186   */\n    tag_63:\n        /* \"#utility.yul\":6975:6979   */\n      0x00\n        /* \"#utility.yul\":7013:7015   */\n      0x40\n        /* \"#utility.yul\":7002:7011   */\n      dup3\n        /* \"#utility.yul\":6998:7016   */\n      add\n        /* \"#utility.yul\":6990:7016   */\n      swap1\n      pop\n        /* \"#utility.yul\":7026:7097   */\n      tag_188\n        /* \"#utility.yul\":7094:7095   */\n      0x00\n        /* \"#utility.yul\":7083:7092   */\n      dup4\n        /* \"#utility.yul\":7079:7096   */\n      add\n        /* \"#utility.yul\":7070:7076   */\n      dup6\n        /* \"#utility.yul\":7026:7097   */\n      tag_95\n      jump\t// in\n    tag_188:\n        /* \"#utility.yul\":7107:7179   */\n      tag_189\n        /* \"#utility.yul\":7175:7177   */\n      0x20\n        /* \"#utility.yul\":7164:7173   */\n      dup4\n        /* \"#utility.yul\":7160:7178   */\n      add\n        /* \"#utility.yul\":7151:7157   */\n      dup5\n        /* \"#utility.yul\":7107:7179   */\n      tag_105\n      jump\t// in\n    tag_189:\n        /* \"#utility.yul\":6854:7186   */\n      swap4\n      swap3\n      pop\n      pop\n      pop\n      jump\t// out\n        /* \"#utility.yul\":7192:7361   */\n    tag_109:\n        /* \"#utility.yul\":7276:7287   */\n      0x00\n        /* \"#utility.yul\":7310:7316   */\n      dup3\n        /* \"#utility.yul\":7305:7308   */\n      dup3\n        /* \"#utility.yul\":7298:7317   */\n      mstore\n        /* \"#utility.yul\":7350:7354   */\n      0x20\n        /* \"#utility.yul\":7345:7348   */\n      dup3\n        /* \"#utility.yul\":7341:7355   */\n      add\n        /* \"#utility.yul\":7326:7355   */\n      swap1\n      pop\n        /* \"#utility.yul\":7192:7361   */\n      swap3\n      swap2\n      pop\n      pop\n      jump\t// out\n        /* \"#utility.yul\":7367:7592   */\n    tag_110:\n        /* \"#utility.yul\":7507:7541   */\n      0x4f776e61626c653a206e6577206f776e657220697320746865207a65726f2061\n        /* \"#utility.yul\":7503:7504   */\n      0x00\n        /* \"#utility.yul\":7495:7501   */\n      dup3\n        /* \"#utility.yul\":7491:7505   */\n      add\n        /* \"#utility.yul\":7484:7542   */\n      mstore\n        /* \"#utility.yul\":7576:7584   */\n      0x6464726573730000000000000000000000000000000000000000000000000000\n        /* \"#utility.yul\":7571:7573   */\n      0x20\n        /* \"#utility.yul\":7563:7569   */\n      dup3\n        /* \"#utility.yul\":7559:7574   */\n      add\n        /* \"#utility.yul\":7552:7585   */\n      mstore\n        /* \"#utility.yul\":7367:7592   */\n      pop\n      jump\t// out\n        /* \"#utility.yul\":7598:7964   */\n    tag_111:\n        /* \"#utility.yul\":7740:7743   */\n      0x00\n        /* \"#utility.yul\":7761:7828   */\n      tag_193\n        /* \"#utility.yul\":7825:7827   */\n      0x26\n        /* \"#utility.yul\":7820:7823   */\n      dup4\n        /* \"#utility.yul\":7761:7828   */\n      tag_109\n      jump\t// in\n    tag_193:\n        /* \"#utility.yul\":7754:7828   */\n      swap2\n      pop\n        /* \"#utility.yul\":7837:7930   */\n      tag_194\n        /* \"#utility.yul\":7926:7929   */\n      dup3\n        /* \"#utility.yul\":7837:7930   */\n      tag_110\n      jump\t// in\n    tag_194:\n        /* \"#utility.yul\":7955:7957   */\n      0x40\n        /* \"#utility.yul\":7950:7953   */\n      dup3\n        /* \"#utility.yul\":7946:7958   */\n      add\n        /* \"#utility.yul\":7939:7958   */\n      swap1\n      pop\n        /* \"#utility.yul\":7598:7964   */\n      swap2\n      swap1\n      pop\n      jump\t// out\n        /* \"#utility.yul\":7970:8389   */\n    tag_76:\n        /* \"#utility.yul\":8136:8140   */\n      0x00\n        /* \"#utility.yul\":8174:8176   */\n      0x20\n        /* \"#utility.yul\":8163:8172   */\n      dup3\n        /* \"#utility.yul\":8159:8177   */\n      add\n        /* \"#utility.yul\":8151:8177   */\n      swap1\n      pop\n        /* \"#utility.yul\":8223:8232   */\n      dup2\n        /* \"#utility.yul\":8217:8221   */\n      dup2\n        /* \"#utility.yul\":8213:8233   */\n      sub\n        /* \"#utility.yul\":8209:8210   */\n      0x00\n        /* \"#utility.yul\":8198:8207   */\n      dup4\n        /* \"#utility.yul\":8194:8211   */\n      add\n        /* \"#utility.yul\":8187:8234   */\n      mstore\n        /* \"#utility.yul\":8251:8382   */\n      tag_196\n        /* \"#utility.yul\":8377:8381   */\n      dup2\n        /* \"#utility.yul\":8251:8382   */\n      tag_111\n      jump\t// in\n    tag_196:\n        /* \"#utility.yul\":8243:8382   */\n      swap1\n      pop\n        /* \"#utility.yul\":7970:8389   */\n      swap2\n      swap1\n      pop\n      jump\t// out\n        /* \"#utility.yul\":8395:8577   */\n    tag_112:\n        /* \"#utility.yul\":8535:8569   */\n      0x4f776e61626c653a2063616c6c6572206973206e6f7420746865206f776e6572\n        /* \"#utility.yul\":8531:8532   */\n      0x00\n        /* \"#utility.yul\":8523:8529   */\n      dup3\n        /* \"#utility.yul\":8519:8533   */\n      add\n        /* \"#utility.yul\":8512:8570   */\n      mstore\n        /* \"#utility.yul\":8395:8577   */\n      pop\n      jump\t// out\n        /* \"#utility.yul\":8583:8949   */\n    tag_113:\n        /* \"#utility.yul\":8725:8728   */\n      0x00\n        /* \"#utility.yul\":8746:8813   */\n      tag_199\n        /* \"#utility.yul\":8810:8812   */\n      0x20\n        /* \"#utility.yul\":8805:8808   */\n      dup4\n        /* \"#utility.yul\":8746:8813   */\n      tag_109\n      jump\t// in\n    tag_199:\n        /* \"#utility.yul\":8739:8813   */\n      swap2\n      pop\n        /* \"#utility.yul\":8822:8915   */\n      tag_200\n        /* \"#utility.yul\":8911:8914   */\n      dup3\n        /* \"#utility.yul\":8822:8915   */\n      tag_112\n      jump\t// in\n    tag_200:\n        /* \"#utility.yul\":8940:8942   */\n      0x20\n        /* \"#utility.yul\":8935:8938   */\n      dup3\n        /* \"#utility.yul\":8931:8943   */\n      add\n        /* \"#utility.yul\":8924:8943   */\n      swap1\n      pop\n        /* \"#utility.yul\":8583:8949   */\n      swap2\n      swap1\n      pop\n      jump\t// out\n        /* \"#utility.yul\":8955:9374   */\n    tag_84:\n        /* \"#utility.yul\":9121:9125   */\n      0x00\n        /* \"#utility.yul\":9159:9161   */\n      0x20\n        /* \"#utility.yul\":9148:9157   */\n      dup3\n        /* \"#utility.yul\":9144:9162   */\n      add\n        /* \"#utility.yul\":9136:9162   */\n      swap1\n      pop\n        /* \"#utility.yul\":9208:9217   */\n      dup2\n        /* \"#utility.yul\":9202:9206   */\n      dup2\n        /* \"#utility.yul\":9198:9218   */\n      sub\n        /* \"#utility.yul\":9194:9195   */\n      0x00\n        /* \"#utility.yul\":9183:9192   */\n      dup4\n        /* \"#utility.yul\":9179:9196   */\n      add\n        /* \"#utility.yul\":9172:9219   */\n      mstore\n        /* \"#utility.yul\":9236:9367   */\n      tag_202\n        /* \"#utility.yul\":9362:9366   */\n      dup2\n        /* \"#utility.yul\":9236:9367   */\n      tag_113\n      jump\t// in\n    tag_202:\n        /* \"#utility.yul\":9228:9367   */\n      swap1\n      pop\n        /* \"#utility.yul\":8955:9374   */\n      swap2\n      swap1\n      pop\n      jump\t// out\n\n    auxdata: 0xa26469706673582212209e5fcd3cc520f0f79c82914195e9dd0fc591a19e459b60a5fa6b556e7b88b82764736f6c63430008110033\n}\n",
				"bytecode": {
					"linkReferences": {},
					"object": "608060405261271060015534801561001657600080fd5b5061003361002861007e60201b60201c565b61008660201b60201c565b600154600260003373ffffffffffffffffffffffffffffffffffffffff1673ffffffffffffffffffffffffffffffffffffffff1681526020019081526020016000208190555061014a565b600033905090565b60008060009054906101000a900473ffffffffffffffffffffffffffffffffffffffff169050816000806101000a81548173ffffffffffffffffffffffffffffffffffffffff021916908373ffffffffffffffffffffffffffffffffffffffff1602179055508173ffffffffffffffffffffffffffffffffffffffff168173ffffffffffffffffffffffffffffffffffffffff167f8be0079c531659141344cd1fd0a4f28419497f9722a3daafe3b4186f6b6457e060405160405180910390a35050565b610c6a806101596000396000f3fe608060405234801561001057600080fd5b50600436106100885760003560e01c80638da5cb5b1161005b5780638da5cb5b14610115578063a9059cbb14610133578063b743ccbd1461014f578063f2fde38b1461015957610088565b806327e235e31461008d5780636c9c2faf146100bd5780636d91c9cb146100db578063715018a61461010b575b600080fd5b6100a760048036038101906100a29190610827565b610175565b6040516100b4919061086d565b60405180910390f35b6100c561018d565b6040516100d2919061086d565b60405180910390f35b6100f560048036038101906100f09190610827565b610197565b6040516101029190610984565b60405180910390f35b610113610295565b005b61011d6102a9565b60405161012a91906109b5565b60405180910390f35b61014d600480360381019061014891906109fc565b6102d2565b005b61015761052d565b005b610173600480360381019061016e9190610827565b6105f7565b005b60026020528060005260406000206000915090505481565b6000600154905090565b6060600360008373ffffffffffffffffffffffffffffffffffffffff1673ffffffffffffffffffffffffffffffffffffffff168152602001908152602001600020805480602002602001604051908101604052809291908181526020016000905b8282101561028a57838290600052602060002090600202016040518060400160405290816000820160009054906101000a900473ffffffffffffffffffffffffffffffffffffffff1673ffffffffffffffffffffffffffffffffffffffff1673ffffffffffffffffffffffffffffffffffffffff168152602001600182015481525050815260200190600101906101f8565b505050509050919050565b61029d61067a565b6102a760006106f8565b565b60008060009054906101000a900473ffffffffffffffffffffffffffffffffffffffff16905090565b6000600260003373ffffffffffffffffffffffffffffffffffffffff1673ffffffffffffffffffffffffffffffffffffffff1681526020019081526020016000205490508181101561035d5781816040517f8c905368000000000000000000000000000000000000000000000000000000008152600401610354929190610a3c565b60405180910390fd5b81600260003373ffffffffffffffffffffffffffffffffffffffff1673ffffffffffffffffffffffffffffffffffffffff16815260200190815260200160002060008282546103ac9190610a94565b9250508190555081600260008573ffffffffffffffffffffffffffffffffffffffff1673ffffffffffffffffffffffffffffffffffffffff16815260200190815260200160002060008282546104029190610ac8565b92505081905550600360003373ffffffffffffffffffffffffffffffffffffffff1673ffffffffffffffffffffffffffffffffffffffff16815260200190815260200160002060405180604001604052808573ffffffffffffffffffffffffffffffffffffffff16815260200184815250908060018154018082558091505060019003906000526020600020906002020160009091909190915060008201518160000160006101000a81548173ffffffffffffffffffffffffffffffffffffffff021916908373ffffffffffffffffffffffffffffffffffffffff1602179055506020820151816001015550507fc93b3dc6d510aebde6bf73dcc5ff270ab2554bf5db86cc436e92ec9f185829e78284604051610520929190610afc565b60405180910390a1505050565b61053561067a565b600060015490506103e8600160008282546105509190610ac8565b925050819055506103e8600260003373ffffffffffffffffffffffffffffffffffffffff1673ffffffffffffffffffffffffffffffffffffffff16815260200190815260200160002060008282546105a89190610ac8565b9250508190555080600154146105f4577f511f5b61bdfae17b57b5c46b525583881874446ae299eb1fd8cece6e79c8fe2e816001546040516105eb929190610a3c565b60405180910390a15b50565b6105ff61067a565b600073ffffffffffffffffffffffffffffffffffffffff168173ffffffffffffffffffffffffffffffffffffffff160361066e576040517f08c379a000000000000000000000000000000000000000000000000000000000815260040161066590610ba8565b60405180910390fd5b610677816106f8565b50565b6106826107bc565b73ffffffffffffffffffffffffffffffffffffffff166106a06102a9565b73ffffffffffffffffffffffffffffffffffffffff16146106f6576040517f08c379a00000000000000000000000000000000000000000000000000000000081526004016106ed90610c14565b60405180910390fd5b565b60008060009054906101000a900473ffffffffffffffffffffffffffffffffffffffff169050816000806101000a81548173ffffffffffffffffffffffffffffffffffffffff021916908373ffffffffffffffffffffffffffffffffffffffff1602179055508173ffffffffffffffffffffffffffffffffffffffff168173ffffffffffffffffffffffffffffffffffffffff167f8be0079c531659141344cd1fd0a4f28419497f9722a3daafe3b4186f6b6457e060405160405180910390a35050565b600033905090565b600080fd5b600073ffffffffffffffffffffffffffffffffffffffff82169050919050565b60006107f4826107c9565b9050919050565b610804816107e9565b811461080f57600080fd5b50565b600081359050610821816107fb565b92915050565b60006020828403121561083d5761083c6107c4565b5b600061084b84828501610812565b91505092915050565b6000819050919050565b61086781610854565b82525050565b6000602082019050610882600083018461085e565b92915050565b600081519050919050565b600082825260208201905092915050565b6000819050602082019050919050565b6108bd816107e9565b82525050565b6108cc81610854565b82525050565b6040820160008201516108e860008501826108b4565b5060208201516108fb60208501826108c3565b50505050565b600061090d83836108d2565b60408301905092915050565b6000602082019050919050565b600061093182610888565b61093b8185610893565b9350610946836108a4565b8060005b8381101561097757815161095e8882610901565b975061096983610919565b92505060018101905061094a565b5085935050505092915050565b6000602082019050818103600083015261099e8184610926565b905092915050565b6109af816107e9565b82525050565b60006020820190506109ca60008301846109a6565b92915050565b6109d981610854565b81146109e457600080fd5b50565b6000813590506109f6816109d0565b92915050565b60008060408385031215610a1357610a126107c4565b5b6000610a2185828601610812565b9250506020610a32858286016109e7565b9150509250929050565b6000604082019050610a51600083018561085e565b610a5e602083018461085e565b9392505050565b7f4e487b7100000000000000000000000000000000000000000000000000000000600052601160045260246000fd5b6000610a9f82610854565b9150610aaa83610854565b9250828203905081811115610ac257610ac1610a65565b5b92915050565b6000610ad382610854565b9150610ade83610854565b9250828201905080821115610af657610af5610a65565b5b92915050565b6000604082019050610b11600083018561085e565b610b1e60208301846109a6565b9392505050565b600082825260208201905092915050565b7f4f776e61626c653a206e6577206f776e657220697320746865207a65726f206160008201527f6464726573730000000000000000000000000000000000000000000000000000602082015250565b6000610b92602683610b25565b9150610b9d82610b36565b604082019050919050565b60006020820190508181036000830152610bc181610b85565b9050919050565b7f4f776e61626c653a2063616c6c6572206973206e6f7420746865206f776e6572600082015250565b6000610bfe602083610b25565b9150610c0982610bc8565b602082019050919050565b60006020820190508181036000830152610c2d81610bf1565b905091905056fea26469706673582212209e5fcd3cc520f0f79c82914195e9dd0fc591a19e459b60a5fa6b556e7b88b82764736f6c63430008110033",
					"opcodes": "PUSH1 0x80 PUSH1 0x40 MSTORE PUSH2 0x2710 PUSH1 0x1 SSTORE CALLVALUE DUP1 ISZERO PUSH2 0x16 JUMPI PUSH1 0x0 DUP1 REVERT JUMPDEST POP PUSH2 0x33 PUSH2 0x28 PUSH2 0x7E PUSH1 0x20 SHL PUSH1 0x20 SHR JUMP JUMPDEST PUSH2 0x86 PUSH1 0x20 SHL PUSH1 0x20 SHR JUMP JUMPDEST PUSH1 0x1 SLOAD PUSH1 0x2 PUSH1 0x0 CALLER PUSH20 0xFFFFFFFFFFFFFFFFFFFFFFFFFFFFFFFFFFFFFFFF AND PUSH20 0xFFFFFFFFFFFFFFFFFFFFFFFFFFFFFFFFFFFFFFFF AND DUP2 MSTORE PUSH1 0x20 ADD SWAP1 DUP2 MSTORE PUSH1 0x20 ADD PUSH1 0x0 KECCAK256 DUP2 SWAP1 SSTORE POP PUSH2 0x14A JUMP JUMPDEST PUSH1 0x0 CALLER SWAP1 POP SWAP1 JUMP JUMPDEST PUSH1 0x0 DUP1 PUSH1 0x0 SWAP1 SLOAD SWAP1 PUSH2 0x100 EXP SWAP1 DIV PUSH20 0xFFFFFFFFFFFFFFFFFFFFFFFFFFFFFFFFFFFFFFFF AND SWAP1 POP DUP2 PUSH1 0x0 DUP1 PUSH2 0x100 EXP DUP2 SLOAD DUP2 PUSH20 0xFFFFFFFFFFFFFFFFFFFFFFFFFFFFFFFFFFFFFFFF MUL NOT AND SWAP1 DUP4 PUSH20 0xFFFFFFFFFFFFFFFFFFFFFFFFFFFFFFFFFFFFFFFF AND MUL OR SWAP1 SSTORE POP DUP2 PUSH20 0xFFFFFFFFFFFFFFFFFFFFFFFFFFFFFFFFFFFFFFFF AND DUP2 PUSH20 0xFFFFFFFFFFFFFFFFFFFFFFFFFFFFFFFFFFFFFFFF AND PUSH32 0x8BE0079C531659141344CD1FD0A4F28419497F9722A3DAAFE3B4186F6B6457E0 PUSH1 0x40 MLOAD PUSH1 0x40 MLOAD DUP1 SWAP2 SUB SWAP1 LOG3 POP POP JUMP JUMPDEST PUSH2 0xC6A DUP1 PUSH2 0x159 PUSH1 0x0 CODECOPY PUSH1 0x0 RETURN INVALID PUSH1 0x80 PUSH1 0x40 MSTORE CALLVALUE DUP1 ISZERO PUSH2 0x10 JUMPI PUSH1 0x0 DUP1 REVERT JUMPDEST POP PUSH1 0x4 CALLDATASIZE LT PUSH2 0x88 JUMPI PUSH1 0x0 CALLDATALOAD PUSH1 0xE0 SHR DUP1 PUSH4 0x8DA5CB5B GT PUSH2 0x5B JUMPI DUP1 PUSH4 0x8DA5CB5B EQ PUSH2 0x115 JUMPI DUP1 PUSH4 0xA9059CBB EQ PUSH2 0x133 JUMPI DUP1 PUSH4 0xB743CCBD EQ PUSH2 0x14F JUMPI DUP1 PUSH4 0xF2FDE38B EQ PUSH2 0x159 JUMPI PUSH2 0x88 JUMP JUMPDEST DUP1 PUSH4 0x27E235E3 EQ PUSH2 0x8D JUMPI DUP1 PUSH4 0x6C9C2FAF EQ PUSH2 0xBD JUMPI DUP1 PUSH4 0x6D91C9CB EQ PUSH2 0xDB JUMPI DUP1 PUSH4 0x715018A6 EQ PUSH2 0x10B JUMPI JUMPDEST PUSH1 0x0 DUP1 REVERT JUMPDEST PUSH2 0xA7 PUSH1 0x4 DUP1 CALLDATASIZE SUB DUP2 ADD SWAP1 PUSH2 0xA2 SWAP2 SWAP1 PUSH2 0x827 JUMP JUMPDEST PUSH2 0x175 JUMP JUMPDEST PUSH1 0x40 MLOAD PUSH2 0xB4 SWAP2 SWAP1 PUSH2 0x86D JUMP JUMPDEST PUSH1 0x40 MLOAD DUP1 SWAP2 SUB SWAP1 RETURN JUMPDEST PUSH2 0xC5 PUSH2 0x18D JUMP JUMPDEST PUSH1 0x40 MLOAD PUSH2 0xD2 SWAP2 SWAP1 PUSH2 0x86D JUMP JUMPDEST PUSH1 0x40 MLOAD DUP1 SWAP2 SUB SWAP1 RETURN JUMPDEST PUSH2 0xF5 PUSH1 0x4 DUP1 CALLDATASIZE SUB DUP2 ADD SWAP1 PUSH2 0xF0 SWAP2 SWAP1 PUSH2 0x827 JUMP JUMPDEST PUSH2 0x197 JUMP JUMPDEST PUSH1 0x40 MLOAD PUSH2 0x102 SWAP2 SWAP1 PUSH2 0x984 JUMP JUMPDEST PUSH1 0x40 MLOAD DUP1 SWAP2 SUB SWAP1 RETURN JUMPDEST PUSH2 0x113 PUSH2 0x295 JUMP JUMPDEST STOP JUMPDEST PUSH2 0x11D PUSH2 0x2A9 JUMP JUMPDEST PUSH1 0x40 MLOAD PUSH2 0x12A SWAP2 SWAP1 PUSH2 0x9B5 JUMP JUMPDEST PUSH1 0x40 MLOAD DUP1 SWAP2 SUB SWAP1 RETURN JUMPDEST PUSH2 0x14D PUSH1 0x4 DUP1 CALLDATASIZE SUB DUP2 ADD SWAP1 PUSH2 0x148 SWAP2 SWAP1 PUSH2 0x9FC JUMP JUMPDEST PUSH2 0x2D2 JUMP JUMPDEST STOP JUMPDEST PUSH2 0x157 PUSH2 0x52D JUMP JUMPDEST STOP JUMPDEST PUSH2 0x173 PUSH1 0x4 DUP1 CALLDATASIZE SUB DUP2 ADD SWAP1 PUSH2 0x16E SWAP2 SWAP1 PUSH2 0x827 JUMP JUMPDEST PUSH2 0x5F7 JUMP JUMPDEST STOP JUMPDEST PUSH1 0x2 PUSH1 0x20 MSTORE DUP1 PUSH1 0x0 MSTORE PUSH1 0x40 PUSH1 0x0 KECCAK256 PUSH1 0x0 SWAP2 POP SWAP1 POP SLOAD DUP2 JUMP JUMPDEST PUSH1 0x0 PUSH1 0x1 SLOAD SWAP1 POP SWAP1 JUMP JUMPDEST PUSH1 0x60 PUSH1 0x3 PUSH1 0x0 DUP4 PUSH20 0xFFFFFFFFFFFFFFFFFFFFFFFFFFFFFFFFFFFFFFFF AND PUSH20 0xFFFFFFFFFFFFFFFFFFFFFFFFFFFFFFFFFFFFFFFF AND DUP2 MSTORE PUSH1 0x20 ADD SWAP1 DUP2 MSTORE PUSH1 0x20 ADD PUSH1 0x0 KECCAK256 DUP1 SLOAD DUP1 PUSH1 0x20 MUL PUSH1 0x20 ADD PUSH1 0x40 MLOAD SWAP1 DUP2 ADD PUSH1 0x40 MSTORE DUP1 SWAP3 SWAP2 SWAP1 DUP2 DUP2 MSTORE PUSH1 0x20 ADD PUSH1 0x0 SWAP1 JUMPDEST DUP3 DUP3 LT ISZERO PUSH2 0x28A JUMPI DUP4 DUP3 SWAP1 PUSH1 0x0 MSTORE PUSH1 0x20 PUSH1 0x0 KECCAK256 SWAP1 PUSH1 0x2 MUL ADD PUSH1 0x40 MLOAD DUP1 PUSH1 0x40 ADD PUSH1 0x40 MSTORE SWAP1 DUP2 PUSH1 0x0 DUP3 ADD PUSH1 0x0 SWAP1 SLOAD SWAP1 PUSH2 0x100 EXP SWAP1 DIV PUSH20 0xFFFFFFFFFFFFFFFFFFFFFFFFFFFFFFFFFFFFFFFF AND PUSH20 0xFFFFFFFFFFFFFFFFFFFFFFFFFFFFFFFFFFFFFFFF AND PUSH20 0xFFFFFFFFFFFFFFFFFFFFFFFFFFFFFFFFFFFFFFFF AND DUP2 MSTORE PUSH1 0x20 ADD PUSH1 0x1 DUP3 ADD SLOAD DUP2 MSTORE POP POP DUP2 MSTORE PUSH1 0x20 ADD SWAP1 PUSH1 0x1 ADD SWAP1 PUSH2 0x1F8 JUMP JUMPDEST POP POP POP POP SWAP1 POP SWAP2 SWAP1 POP JUMP JUMPDEST PUSH2 0x29D PUSH2 0x67A JUMP JUMPDEST PUSH2 0x2A7 PUSH1 0x0 PUSH2 0x6F8 JUMP JUMPDEST JUMP JUMPDEST PUSH1 0x0 DUP1 PUSH1 0x0 SWAP1 SLOAD SWAP1 PUSH2 0x100 EXP SWAP1 DIV PUSH20 0xFFFFFFFFFFFFFFFFFFFFFFFFFFFFFFFFFFFFFFFF AND SWAP1 POP SWAP1 JUMP JUMPDEST PUSH1 0x0 PUSH1 0x2 PUSH1 0x0 CALLER PUSH20 0xFFFFFFFFFFFFFFFFFFFFFFFFFFFFFFFFFFFFFFFF AND PUSH20 0xFFFFFFFFFFFFFFFFFFFFFFFFFFFFFFFFFFFFFFFF AND DUP2 MSTORE PUSH1 0x20 ADD SWAP1 DUP2 MSTORE PUSH1 0x20 ADD PUSH1 0x0 KECCAK256 SLOAD SWAP1 POP DUP2 DUP2 LT ISZERO PUSH2 0x35D JUMPI DUP2 DUP2 PUSH1 0x40 MLOAD PUSH32 0x8C90536800000000000000000000000000000000000000000000000000000000 DUP2 MSTORE PUSH1 0x4 ADD PUSH2 0x354 SWAP3 SWAP2 SWAP1 PUSH2 0xA3C JUMP JUMPDEST PUSH1 0x40 MLOAD DUP1 SWAP2 SUB SWAP1 REVERT JUMPDEST DUP2 PUSH1 0x2 PUSH1 0x0 CALLER PUSH20 0xFFFFFFFFFFFFFFFFFFFFFFFFFFFFFFFFFFFFFFFF AND PUSH20 0xFFFFFFFFFFFFFFFFFFFFFFFFFFFFFFFFFFFFFFFF AND DUP2 MSTORE PUSH1 0x20 ADD SWAP1 DUP2 MSTORE PUSH1 0x20 ADD PUSH1 0x0 KECCAK256 PUSH1 0x0 DUP3 DUP3 SLOAD PUSH2 0x3AC SWAP2 SWAP1 PUSH2 0xA94 JUMP JUMPDEST SWAP3 POP POP DUP2 SWAP1 SSTORE POP DUP2 PUSH1 0x2 PUSH1 0x0 DUP6 PUSH20 0xFFFFFFFFFFFFFFFFFFFFFFFFFFFFFFFFFFFFFFFF AND PUSH20 0xFFFFFFFFFFFFFFFFFFFFFFFFFFFFFFFFFFFFFFFF AND DUP2 MSTORE PUSH1 0x20 ADD SWAP1 DUP2 MSTORE PUSH1 0x20 ADD PUSH1 0x0 KECCAK256 PUSH1 0x0 DUP3 DUP3 SLOAD PUSH2 0x402 SWAP2 SWAP1 PUSH2 0xAC8 JUMP JUMPDEST SWAP3 POP POP DUP2 SWAP1 SSTORE POP PUSH1 0x3 PUSH1 0x0 CALLER PUSH20 0xFFFFFFFFFFFFFFFFFFFFFFFFFFFFFFFFFFFFFFFF AND PUSH20 0xFFFFFFFFFFFFFFFFFFFFFFFFFFFFFFFFFFFFFFFF AND DUP2 MSTORE PUSH1 0x20 ADD SWAP1 DUP2 MSTORE PUSH1 0x20 ADD PUSH1 0x0 KECCAK256 PUSH1 0x40 MLOAD DUP1 PUSH1 0x40 ADD PUSH1 0x40 MSTORE DUP1 DUP6 PUSH20 0xFFFFFFFFFFFFFFFFFFFFFFFFFFFFFFFFFFFFFFFF AND DUP2 MSTORE PUSH1 0x20 ADD DUP5 DUP2 MSTORE POP SWAP1 DUP1 PUSH1 0x1 DUP2 SLOAD ADD DUP1 DUP3 SSTORE DUP1 SWAP2 POP POP PUSH1 0x1 SWAP1 SUB SWAP1 PUSH1 0x0 MSTORE PUSH1 0x20 PUSH1 0x0 KECCAK256 SWAP1 PUSH1 0x2 MUL ADD PUSH1 0x0 SWAP1 SWAP2 SWAP1 SWAP2 SWAP1 SWAP2 POP PUSH1 0x0 DUP3 ADD MLOAD DUP2 PUSH1 0x0 ADD PUSH1 0x0 PUSH2 0x100 EXP DUP2 SLOAD DUP2 PUSH20 0xFFFFFFFFFFFFFFFFFFFFFFFFFFFFFFFFFFFFFFFF MUL NOT AND SWAP1 DUP4 PUSH20 0xFFFFFFFFFFFFFFFFFFFFFFFFFFFFFFFFFFFFFFFF AND MUL OR SWAP1 SSTORE POP PUSH1 0x20 DUP3 ADD MLOAD DUP2 PUSH1 0x1 ADD SSTORE POP POP PUSH32 0xC93B3DC6D510AEBDE6BF73DCC5FF270AB2554BF5DB86CC436E92EC9F185829E7 DUP3 DUP5 PUSH1 0x40 MLOAD PUSH2 0x520 SWAP3 SWAP2 SWAP1 PUSH2 0xAFC JUMP JUMPDEST PUSH1 0x40 MLOAD DUP1 SWAP2 SUB SWAP1 LOG1 POP POP POP JUMP JUMPDEST PUSH2 0x535 PUSH2 0x67A JUMP JUMPDEST PUSH1 0x0 PUSH1 0x1 SLOAD SWAP1 POP PUSH2 0x3E8 PUSH1 0x1 PUSH1 0x0 DUP3 DUP3 SLOAD PUSH2 0x550 SWAP2 SWAP1 PUSH2 0xAC8 JUMP JUMPDEST SWAP3 POP POP DUP2 SWAP1 SSTORE POP PUSH2 0x3E8 PUSH1 0x2 PUSH1 0x0 CALLER PUSH20 0xFFFFFFFFFFFFFFFFFFFFFFFFFFFFFFFFFFFFFFFF AND PUSH20 0xFFFFFFFFFFFFFFFFFFFFFFFFFFFFFFFFFFFFFFFF AND DUP2 MSTORE PUSH1 0x20 ADD SWAP1 DUP2 MSTORE PUSH1 0x20 ADD PUSH1 0x0 KECCAK256 PUSH1 0x0 DUP3 DUP3 SLOAD PUSH2 0x5A8 SWAP2 SWAP1 PUSH2 0xAC8 JUMP JUMPDEST SWAP3 POP POP DUP2 SWAP1 SSTORE POP DUP1 PUSH1 0x1 SLOAD EQ PUSH2 0x5F4 JUMPI PUSH32 0x511F5B61BDFAE17B57B5C46B525583881874446AE299EB1FD8CECE6E79C8FE2E DUP2 PUSH1 0x1 SLOAD PUSH1 0x40 MLOAD PUSH2 0x5EB SWAP3 SWAP2 SWAP1 PUSH2 0xA3C JUMP JUMPDEST PUSH1 0x40 MLOAD DUP1 SWAP2 SUB SWAP1 LOG1 JUMPDEST POP JUMP JUMPDEST PUSH2 0x5FF PUSH2 0x67A JUMP JUMPDEST PUSH1 0x0 PUSH20 0xFFFFFFFFFFFFFFFFFFFFFFFFFFFFFFFFFFFFFFFF AND DUP2 PUSH20 0xFFFFFFFFFFFFFFFFFFFFFFFFFFFFFFFFFFFFFFFF AND SUB PUSH2 0x66E JUMPI PUSH1 0x40 MLOAD PUSH32 0x8C379A000000000000000000000000000000000000000000000000000000000 DUP2 MSTORE PUSH1 0x4 ADD PUSH2 0x665 SWAP1 PUSH2 0xBA8 JUMP JUMPDEST PUSH1 0x40 MLOAD DUP1 SWAP2 SUB SWAP1 REVERT JUMPDEST PUSH2 0x677 DUP2 PUSH2 0x6F8 JUMP JUMPDEST POP JUMP JUMPDEST PUSH2 0x682 PUSH2 0x7BC JUMP JUMPDEST PUSH20 0xFFFFFFFFFFFFFFFFFFFFFFFFFFFFFFFFFFFFFFFF AND PUSH2 0x6A0 PUSH2 0x2A9 JUMP JUMPDEST PUSH20 0xFFFFFFFFFFFFFFFFFFFFFFFFFFFFFFFFFFFFFFFF AND EQ PUSH2 0x6F6 JUMPI PUSH1 0x40 MLOAD PUSH32 0x8C379A000000000000000000000000000000000000000000000000000000000 DUP2 MSTORE PUSH1 0x4 ADD PUSH2 0x6ED SWAP1 PUSH2 0xC14 JUMP JUMPDEST PUSH1 0x40 MLOAD DUP1 SWAP2 SUB SWAP1 REVERT JUMPDEST JUMP JUMPDEST PUSH1 0x0 DUP1 PUSH1 0x0 SWAP1 SLOAD SWAP1 PUSH2 0x100 EXP SWAP1 DIV PUSH20 0xFFFFFFFFFFFFFFFFFFFFFFFFFFFFFFFFFFFFFFFF AND SWAP1 POP DUP2 PUSH1 0x0 DUP1 PUSH2 0x100 EXP DUP2 SLOAD DUP2 PUSH20 0xFFFFFFFFFFFFFFFFFFFFFFFFFFFFFFFFFFFFFFFF MUL NOT AND SWAP1 DUP4 PUSH20 0xFFFFFFFFFFFFFFFFFFFFFFFFFFFFFFFFFFFFFFFF AND MUL OR SWAP1 SSTORE POP DUP2 PUSH20 0xFFFFFFFFFFFFFFFFFFFFFFFFFFFFFFFFFFFFFFFF AND DUP2 PUSH20 0xFFFFFFFFFFFFFFFFFFFFFFFFFFFFFFFFFFFFFFFF AND PUSH32 0x8BE0079C531659141344CD1FD0A4F28419497F9722A3DAAFE3B4186F6B6457E0 PUSH1 0x40 MLOAD PUSH1 0x40 MLOAD DUP1 SWAP2 SUB SWAP1 LOG3 POP POP JUMP JUMPDEST PUSH1 0x0 CALLER SWAP1 POP SWAP1 JUMP JUMPDEST PUSH1 0x0 DUP1 REVERT JUMPDEST PUSH1 0x0 PUSH20 0xFFFFFFFFFFFFFFFFFFFFFFFFFFFFFFFFFFFFFFFF DUP3 AND SWAP1 POP SWAP2 SWAP1 POP JUMP JUMPDEST PUSH1 0x0 PUSH2 0x7F4 DUP3 PUSH2 0x7C9 JUMP JUMPDEST SWAP1 POP SWAP2 SWAP1 POP JUMP JUMPDEST PUSH2 0x804 DUP2 PUSH2 0x7E9 JUMP JUMPDEST DUP2 EQ PUSH2 0x80F JUMPI PUSH1 0x0 DUP1 REVERT JUMPDEST POP JUMP JUMPDEST PUSH1 0x0 DUP2 CALLDATALOAD SWAP1 POP PUSH2 0x821 DUP2 PUSH2 0x7FB JUMP JUMPDEST SWAP3 SWAP2 POP POP JUMP JUMPDEST PUSH1 0x0 PUSH1 0x20 DUP3 DUP5 SUB SLT ISZERO PUSH2 0x83D JUMPI PUSH2 0x83C PUSH2 0x7C4 JUMP JUMPDEST JUMPDEST PUSH1 0x0 PUSH2 0x84B DUP5 DUP3 DUP6 ADD PUSH2 0x812 JUMP JUMPDEST SWAP2 POP POP SWAP3 SWAP2 POP POP JUMP JUMPDEST PUSH1 0x0 DUP2 SWAP1 POP SWAP2 SWAP1 POP JUMP JUMPDEST PUSH2 0x867 DUP2 PUSH2 0x854 JUMP JUMPDEST DUP3 MSTORE POP POP JUMP JUMPDEST PUSH1 0x0 PUSH1 0x20 DUP3 ADD SWAP1 POP PUSH2 0x882 PUSH1 0x0 DUP4 ADD DUP5 PUSH2 0x85E JUMP JUMPDEST SWAP3 SWAP2 POP POP JUMP JUMPDEST PUSH1 0x0 DUP2 MLOAD SWAP1 POP SWAP2 SWAP1 POP JUMP JUMPDEST PUSH1 0x0 DUP3 DUP3 MSTORE PUSH1 0x20 DUP3 ADD SWAP1 POP SWAP3 SWAP2 POP POP JUMP JUMPDEST PUSH1 0x0 DUP2 SWAP1 POP PUSH1 0x20 DUP3 ADD SWAP1 POP SWAP2 SWAP1 POP JUMP JUMPDEST PUSH2 0x8BD DUP2 PUSH2 0x7E9 JUMP JUMPDEST DUP3 MSTORE POP POP JUMP JUMPDEST PUSH2 0x8CC DUP2 PUSH2 0x854 JUMP JUMPDEST DUP3 MSTORE POP POP JUMP JUMPDEST PUSH1 0x40 DUP3 ADD PUSH1 0x0 DUP3 ADD MLOAD PUSH2 0x8E8 PUSH1 0x0 DUP6 ADD DUP3 PUSH2 0x8B4 JUMP JUMPDEST POP PUSH1 0x20 DUP3 ADD MLOAD PUSH2 0x8FB PUSH1 0x20 DUP6 ADD DUP3 PUSH2 0x8C3 JUMP JUMPDEST POP POP POP POP JUMP JUMPDEST PUSH1 0x0 PUSH2 0x90D DUP4 DUP4 PUSH2 0x8D2 JUMP JUMPDEST PUSH1 0x40 DUP4 ADD SWAP1 POP SWAP3 SWAP2 POP POP JUMP JUMPDEST PUSH1 0x0 PUSH1 0x20 DUP3 ADD SWAP1 POP SWAP2 SWAP1 POP JUMP JUMPDEST PUSH1 0x0 PUSH2 0x931 DUP3 PUSH2 0x888 JUMP JUMPDEST PUSH2 0x93B DUP2 DUP6 PUSH2 0x893 JUMP JUMPDEST SWAP4 POP PUSH2 0x946 DUP4 PUSH2 0x8A4 JUMP JUMPDEST DUP1 PUSH1 0x0 JUMPDEST DUP4 DUP2 LT ISZERO PUSH2 0x977 JUMPI DUP2 MLOAD PUSH2 0x95E DUP9 DUP3 PUSH2 0x901 JUMP JUMPDEST SWAP8 POP PUSH2 0x969 DUP4 PUSH2 0x919 JUMP JUMPDEST SWAP3 POP POP PUSH1 0x1 DUP2 ADD SWAP1 POP PUSH2 0x94A JUMP JUMPDEST POP DUP6 SWAP4 POP POP POP POP SWAP3 SWAP2 POP POP JUMP JUMPDEST PUSH1 0x0 PUSH1 0x20 DUP3 ADD SWAP1 POP DUP2 DUP2 SUB PUSH1 0x0 DUP4 ADD MSTORE PUSH2 0x99E DUP2 DUP5 PUSH2 0x926 JUMP JUMPDEST SWAP1 POP SWAP3 SWAP2 POP POP JUMP JUMPDEST PUSH2 0x9AF DUP2 PUSH2 0x7E9 JUMP JUMPDEST DUP3 MSTORE POP POP JUMP JUMPDEST PUSH1 0x0 PUSH1 0x20 DUP3 ADD SWAP1 POP PUSH2 0x9CA PUSH1 0x0 DUP4 ADD DUP5 PUSH2 0x9A6 JUMP JUMPDEST SWAP3 SWAP2 POP POP JUMP JUMPDEST PUSH2 0x9D9 DUP2 PUSH2 0x854 JUMP JUMPDEST DUP2 EQ PUSH2 0x9E4 JUMPI PUSH1 0x0 DUP1 REVERT JUMPDEST POP JUMP JUMPDEST PUSH1 0x0 DUP2 CALLDATALOAD SWAP1 POP PUSH2 0x9F6 DUP2 PUSH2 0x9D0 JUMP JUMPDEST SWAP3 SWAP2 POP POP JUMP JUMPDEST PUSH1 0x0 DUP1 PUSH1 0x40 DUP4 DUP6 SUB SLT ISZERO PUSH2 0xA13 JUMPI PUSH2 0xA12 PUSH2 0x7C4 JUMP JUMPDEST JUMPDEST PUSH1 0x0 PUSH2 0xA21 DUP6 DUP3 DUP7 ADD PUSH2 0x812 JUMP JUMPDEST SWAP3 POP POP PUSH1 0x20 PUSH2 0xA32 DUP6 DUP3 DUP7 ADD PUSH2 0x9E7 JUMP JUMPDEST SWAP2 POP POP SWAP3 POP SWAP3 SWAP1 POP JUMP JUMPDEST PUSH1 0x0 PUSH1 0x40 DUP3 ADD SWAP1 POP PUSH2 0xA51 PUSH1 0x0 DUP4 ADD DUP6 PUSH2 0x85E JUMP JUMPDEST PUSH2 0xA5E PUSH1 0x20 DUP4 ADD DUP5 PUSH2 0x85E JUMP JUMPDEST SWAP4 SWAP3 POP POP POP JUMP JUMPDEST PUSH32 0x4E487B7100000000000000000000000000000000000000000000000000000000 PUSH1 0x0 MSTORE PUSH1 0x11 PUSH1 0x4 MSTORE PUSH1 0x24 PUSH1 0x0 REVERT JUMPDEST PUSH1 0x0 PUSH2 0xA9F DUP3 PUSH2 0x854 JUMP JUMPDEST SWAP2 POP PUSH2 0xAAA DUP4 PUSH2 0x854 JUMP JUMPDEST SWAP3 POP DUP3 DUP3 SUB SWAP1 POP DUP2 DUP2 GT ISZERO PUSH2 0xAC2 JUMPI PUSH2 0xAC1 PUSH2 0xA65 JUMP JUMPDEST JUMPDEST SWAP3 SWAP2 POP POP JUMP JUMPDEST PUSH1 0x0 PUSH2 0xAD3 DUP3 PUSH2 0x854 JUMP JUMPDEST SWAP2 POP PUSH2 0xADE DUP4 PUSH2 0x854 JUMP JUMPDEST SWAP3 POP DUP3 DUP3 ADD SWAP1 POP DUP1 DUP3 GT ISZERO PUSH2 0xAF6 JUMPI PUSH2 0xAF5 PUSH2 0xA65 JUMP JUMPDEST JUMPDEST SWAP3 SWAP2 POP POP JUMP JUMPDEST PUSH1 0x0 PUSH1 0x40 DUP3 ADD SWAP1 POP PUSH2 0xB11 PUSH1 0x0 DUP4 ADD DUP6 PUSH2 0x85E JUMP JUMPDEST PUSH2 0xB1E PUSH1 0x20 DUP4 ADD DUP5 PUSH2 0x9A6 JUMP JUMPDEST SWAP4 SWAP3 POP POP POP JUMP JUMPDEST PUSH1 0x0 DUP3 DUP3 MSTORE PUSH1 0x20 DUP3 ADD SWAP1 POP SWAP3 SWAP2 POP POP JUMP JUMPDEST PUSH32 0x4F776E61626C653A206E6577206F776E657220697320746865207A65726F2061 PUSH1 0x0 DUP3 ADD MSTORE PUSH32 0x6464726573730000000000000000000000000000000000000000000000000000 PUSH1 0x20 DUP3 ADD MSTORE POP JUMP JUMPDEST PUSH1 0x0 PUSH2 0xB92 PUSH1 0x26 DUP4 PUSH2 0xB25 JUMP JUMPDEST SWAP2 POP PUSH2 0xB9D DUP3 PUSH2 0xB36 JUMP JUMPDEST PUSH1 0x40 DUP3 ADD SWAP1 POP SWAP2 SWAP1 POP JUMP JUMPDEST PUSH1 0x0 PUSH1 0x20 DUP3 ADD SWAP1 POP DUP2 DUP2 SUB PUSH1 0x0 DUP4 ADD MSTORE PUSH2 0xBC1 DUP2 PUSH2 0xB85 JUMP JUMPDEST SWAP1 POP SWAP2 SWAP1 POP JUMP JUMPDEST PUSH32 0x4F776E61626C653A2063616C6C6572206973206E6F7420746865206F776E6572 PUSH1 0x0 DUP3 ADD MSTORE POP JUMP JUMPDEST PUSH1 0x0 PUSH2 0xBFE PUSH1 0x20 DUP4 PUSH2 0xB25 JUMP JUMPDEST SWAP2 POP PUSH2 0xC09 DUP3 PUSH2 0xBC8 JUMP JUMPDEST PUSH1 0x20 DUP3 ADD SWAP1 POP SWAP2 SWAP1 POP JUMP JUMPDEST PUSH1 0x0 PUSH1 0x20 DUP3 ADD SWAP1 POP DUP2 DUP2 SUB PUSH1 0x0 DUP4 ADD MSTORE PUSH2 0xC2D DUP2 PUSH2 0xBF1 JUMP JUMPDEST SWAP1 POP SWAP2 SWAP1 POP JUMP INVALID LOG2 PUSH5 0x6970667358 0x22 SLT KECCAK256 SWAP15 0x5F 0xCD EXTCODECOPY 0xC5 KECCAK256 CREATE 0xF7 SWAP13 DUP3 SWAP2 COINBASE SWAP6 0xE9 0xDD 0xF 0xC5 SWAP2 LOG1 SWAP15 GASLIMIT SWAP12 PUSH1 0xA5 STATICCALL PUSH12 0x556E7B88B82764736F6C6343 STOP ADDMOD GT STOP CALLER "
				},
				"gasEstimates": {
					"creation": {
						"codeDepositCost": "635600",
						"executionCost": "infinite",
						"totalCost": "infinite"
					},
					"external": {
						"balances(address)": "2815",
						"getSupply()": "2460",
						"getTransfers(address)": "infinite",
						"owner()": "2522",
						"renounceOwnership()": "30465",
						"setSupply()": "infinite",
						"transfer(address,uint256)": "infinite",
						"transferOwnership(address)": "30810"
					}
				},
				"methodIdentifiers": {
					"balances(address)": "27e235e3",
					"getSupply()": "6c9c2faf",
					"getTransfers(address)": "6d91c9cb",
					"owner()": "8da5cb5b",
					"renounceOwnership()": "715018a6",
					"setSupply()": "b743ccbd",
					"transfer(address,uint256)": "a9059cbb",
					"transferOwnership(address)": "f2fde38b"
				}
			},
			"storageLayout": {
				"storage": [
					{
						"astId": 7,
						"contract": "contracts/ETH_Denver_Bootcamp/Homework_5/VolcanoCoinOpenZeppelin.sol:VolcanoCoin",
						"label": "_owner",
						"offset": 0,
						"slot": "0",
						"type": "t_address"
					},
					{
						"astId": 142,
						"contract": "contracts/ETH_Denver_Bootcamp/Homework_5/VolcanoCoinOpenZeppelin.sol:VolcanoCoin",
						"label": "totalSupply",
						"offset": 0,
						"slot": "1",
						"type": "t_uint256"
					},
					{
						"astId": 146,
						"contract": "contracts/ETH_Denver_Bootcamp/Homework_5/VolcanoCoinOpenZeppelin.sol:VolcanoCoin",
						"label": "balances",
						"offset": 0,
						"slot": "2",
						"type": "t_mapping(t_address,t_uint256)"
					},
					{
						"astId": 152,
						"contract": "contracts/ETH_Denver_Bootcamp/Homework_5/VolcanoCoinOpenZeppelin.sol:VolcanoCoin",
						"label": "transfers",
						"offset": 0,
						"slot": "3",
						"type": "t_mapping(t_address,t_array(t_struct(Payment)157_storage)dyn_storage)"
					}
				],
				"types": {
					"t_address": {
						"encoding": "inplace",
						"label": "address",
						"numberOfBytes": "20"
					},
					"t_array(t_struct(Payment)157_storage)dyn_storage": {
						"base": "t_struct(Payment)157_storage",
						"encoding": "dynamic_array",
						"label": "struct VolcanoCoin.Payment[]",
						"numberOfBytes": "32"
					},
					"t_mapping(t_address,t_array(t_struct(Payment)157_storage)dyn_storage)": {
						"encoding": "mapping",
						"key": "t_address",
						"label": "mapping(address => struct VolcanoCoin.Payment[])",
						"numberOfBytes": "32",
						"value": "t_array(t_struct(Payment)157_storage)dyn_storage"
					},
					"t_mapping(t_address,t_uint256)": {
						"encoding": "mapping",
						"key": "t_address",
						"label": "mapping(address => uint256)",
						"numberOfBytes": "32",
						"value": "t_uint256"
					},
					"t_struct(Payment)157_storage": {
						"encoding": "inplace",
						"label": "struct VolcanoCoin.Payment",
						"members": [
							{
								"astId": 154,
								"contract": "contracts/ETH_Denver_Bootcamp/Homework_5/VolcanoCoinOpenZeppelin.sol:VolcanoCoin",
								"label": "recipient",
								"offset": 0,
								"slot": "0",
								"type": "t_address"
							},
							{
								"astId": 156,
								"contract": "contracts/ETH_Denver_Bootcamp/Homework_5/VolcanoCoinOpenZeppelin.sol:VolcanoCoin",
								"label": "amount",
								"offset": 0,
								"slot": "1",
								"type": "t_uint256"
							}
						],
						"numberOfBytes": "64"
					},
					"t_uint256": {
						"encoding": "inplace",
						"label": "uint256",
						"numberOfBytes": "32"
					}
				}
			},
			"userdoc": {
				"kind": "user",
				"methods": {},
				"version": 1
			}
		}
	}
}