{
	"BLOCKCHAIN_GitHub/SOLIDITY/Projects/ETH_DENVER_BOOTCAMP/Homework_12/Exercises/Gas/contracts/GasOptimized.sol": {
		"GasContractOptimized": {
			"abi": [
				{
					"inputs": [
						{
							"internalType": "address[]",
							"name": "_admins",
							"type": "address[]"
						},
						{
							"internalType": "uint256",
							"name": "_totalSupply",
							"type": "uint256"
						}
					],
					"stateMutability": "nonpayable",
					"type": "constructor"
				},
				{
					"inputs": [
						{
							"internalType": "uint256",
							"name": "requested",
							"type": "uint256"
						},
						{
							"internalType": "uint256",
							"name": "available",
							"type": "uint256"
						}
					],
					"name": "NotEnoughFunds",
					"type": "error"
				},
				{
					"inputs": [],
					"name": "NotSender",
					"type": "error"
				},
				{
					"inputs": [],
					"name": "NotValidAddress",
					"type": "error"
				},
				{
					"inputs": [],
					"name": "NotValidId",
					"type": "error"
				},
				{
					"inputs": [],
					"name": "NotValidTier",
					"type": "error"
				},
				{
					"inputs": [],
					"name": "NotWhitelisted",
					"type": "error"
				},
				{
					"inputs": [],
					"name": "RecipientNameLong",
					"type": "error"
				},
				{
					"anonymous": false,
					"inputs": [
						{
							"indexed": false,
							"internalType": "address",
							"name": "userAddress",
							"type": "address"
						},
						{
							"indexed": false,
							"internalType": "uint256",
							"name": "tier",
							"type": "uint256"
						}
					],
					"name": "AddedToWhitelist",
					"type": "event"
				},
				{
					"anonymous": false,
					"inputs": [
						{
							"indexed": true,
							"internalType": "address",
							"name": "previousOwner",
							"type": "address"
						},
						{
							"indexed": true,
							"internalType": "address",
							"name": "newOwner",
							"type": "address"
						}
					],
					"name": "OwnershipTransferred",
					"type": "event"
				},
				{
					"anonymous": false,
					"inputs": [
						{
							"indexed": false,
							"internalType": "address",
							"name": "admin",
							"type": "address"
						},
						{
							"indexed": false,
							"internalType": "uint256",
							"name": "ID",
							"type": "uint256"
						},
						{
							"indexed": false,
							"internalType": "uint256",
							"name": "amount",
							"type": "uint256"
						},
						{
							"indexed": false,
							"internalType": "string",
							"name": "recipient",
							"type": "string"
						}
					],
					"name": "PaymentUpdated",
					"type": "event"
				},
				{
					"anonymous": false,
					"inputs": [
						{
							"indexed": false,
							"internalType": "address",
							"name": "recipient",
							"type": "address"
						},
						{
							"indexed": false,
							"internalType": "uint256",
							"name": "amount",
							"type": "uint256"
						}
					],
					"name": "Transfer",
					"type": "event"
				},
				{
					"anonymous": false,
					"inputs": [
						{
							"indexed": true,
							"internalType": "address",
							"name": "",
							"type": "address"
						}
					],
					"name": "WhiteListTransfer",
					"type": "event"
				},
				{
					"anonymous": false,
					"inputs": [
						{
							"indexed": true,
							"internalType": "address",
							"name": "",
							"type": "address"
						},
						{
							"indexed": true,
							"internalType": "uint256",
							"name": "",
							"type": "uint256"
						}
					],
					"name": "supplyChanged",
					"type": "event"
				},
				{
					"inputs": [
						{
							"internalType": "address",
							"name": "_updateAddress",
							"type": "address"
						},
						{
							"internalType": "bool",
							"name": "_tradeMode",
							"type": "bool"
						}
					],
					"name": "addHistory",
					"outputs": [],
					"stateMutability": "nonpayable",
					"type": "function"
				},
				{
					"inputs": [
						{
							"internalType": "address",
							"name": "_userAddrs",
							"type": "address"
						},
						{
							"internalType": "uint256",
							"name": "_tier",
							"type": "uint256"
						}
					],
					"name": "addToWhitelist",
					"outputs": [],
					"stateMutability": "nonpayable",
					"type": "function"
				},
				{
					"inputs": [
						{
							"internalType": "uint256",
							"name": "",
							"type": "uint256"
						}
					],
					"name": "administrators",
					"outputs": [
						{
							"internalType": "address",
							"name": "",
							"type": "address"
						}
					],
					"stateMutability": "view",
					"type": "function"
				},
				{
					"inputs": [
						{
							"internalType": "address",
							"name": "_user",
							"type": "address"
						}
					],
					"name": "balanceOf",
					"outputs": [
						{
							"internalType": "uint256",
							"name": "balance",
							"type": "uint256"
						}
					],
					"stateMutability": "view",
					"type": "function"
				},
				{
					"inputs": [
						{
							"internalType": "address",
							"name": "_user",
							"type": "address"
						}
					],
					"name": "checkForAdmin",
					"outputs": [
						{
							"internalType": "bool",
							"name": "admin_",
							"type": "bool"
						}
					],
					"stateMutability": "view",
					"type": "function"
				},
				{
					"inputs": [],
					"name": "contractOwner",
					"outputs": [
						{
							"internalType": "address",
							"name": "",
							"type": "address"
						}
					],
					"stateMutability": "view",
					"type": "function"
				},
				{
					"inputs": [],
					"name": "dividendFlag",
					"outputs": [
						{
							"internalType": "uint256",
							"name": "",
							"type": "uint256"
						}
					],
					"stateMutability": "view",
					"type": "function"
				},
				{
					"inputs": [
						{
							"internalType": "address",
							"name": "_user",
							"type": "address"
						}
					],
					"name": "getPayments",
					"outputs": [
						{
							"components": [
								{
									"internalType": "enum GasContractOptimized.PaymentType",
									"name": "paymentType",
									"type": "uint8"
								},
								{
									"internalType": "uint256",
									"name": "paymentID",
									"type": "uint256"
								},
								{
									"internalType": "address",
									"name": "recipient",
									"type": "address"
								},
								{
									"internalType": "string",
									"name": "recipientName",
									"type": "string"
								},
								{
									"internalType": "bool",
									"name": "adminUpdated",
									"type": "bool"
								},
								{
									"internalType": "address",
									"name": "admin",
									"type": "address"
								},
								{
									"internalType": "uint256",
									"name": "amount",
									"type": "uint256"
								}
							],
							"internalType": "struct GasContractOptimized.Payment[]",
							"name": "payments_",
							"type": "tuple[]"
						}
					],
					"stateMutability": "view",
					"type": "function"
				},
				{
					"inputs": [],
					"name": "getTradingMode",
					"outputs": [
						{
							"internalType": "bool",
							"name": "_mode",
							"type": "bool"
						}
					],
					"stateMutability": "view",
					"type": "function"
				},
				{
					"inputs": [],
					"name": "owner",
					"outputs": [
						{
							"internalType": "address",
							"name": "",
							"type": "address"
						}
					],
					"stateMutability": "view",
					"type": "function"
				},
				{
					"inputs": [],
					"name": "paymentCounter",
					"outputs": [
						{
							"internalType": "uint256",
							"name": "",
							"type": "uint256"
						}
					],
					"stateMutability": "view",
					"type": "function"
				},
				{
					"inputs": [
						{
							"internalType": "uint256",
							"name": "",
							"type": "uint256"
						}
					],
					"name": "paymentHistory",
					"outputs": [
						{
							"internalType": "uint256",
							"name": "lastUpdate",
							"type": "uint256"
						},
						{
							"internalType": "address",
							"name": "updatedBy",
							"type": "address"
						},
						{
							"internalType": "uint256",
							"name": "blockNumber",
							"type": "uint256"
						},
						{
							"internalType": "bool",
							"name": "trade",
							"type": "bool"
						}
					],
					"stateMutability": "view",
					"type": "function"
				},
				{
					"inputs": [],
					"name": "renounceOwnership",
					"outputs": [],
					"stateMutability": "nonpayable",
					"type": "function"
				},
				{
					"inputs": [],
					"name": "totalSupply",
					"outputs": [
						{
							"internalType": "uint256",
							"name": "",
							"type": "uint256"
						}
					],
					"stateMutability": "view",
					"type": "function"
				},
				{
					"inputs": [],
					"name": "tradeFlag",
					"outputs": [
						{
							"internalType": "uint256",
							"name": "",
							"type": "uint256"
						}
					],
					"stateMutability": "view",
					"type": "function"
				},
				{
					"inputs": [
						{
							"internalType": "address",
							"name": "_recipient",
							"type": "address"
						},
						{
							"internalType": "uint256",
							"name": "_amount",
							"type": "uint256"
						},
						{
							"internalType": "string",
							"name": "_name",
							"type": "string"
						}
					],
					"name": "transfer",
					"outputs": [],
					"stateMutability": "nonpayable",
					"type": "function"
				},
				{
					"inputs": [
						{
							"internalType": "address",
							"name": "newOwner",
							"type": "address"
						}
					],
					"name": "transferOwnership",
					"outputs": [],
					"stateMutability": "nonpayable",
					"type": "function"
				},
				{
					"inputs": [
						{
							"internalType": "address",
							"name": "_user",
							"type": "address"
						},
						{
							"internalType": "uint256",
							"name": "_ID",
							"type": "uint256"
						},
						{
							"internalType": "uint256",
							"name": "_amount",
							"type": "uint256"
						},
						{
							"internalType": "enum GasContractOptimized.PaymentType",
							"name": "_type",
							"type": "uint8"
						}
					],
					"name": "updatePayment",
					"outputs": [],
					"stateMutability": "nonpayable",
					"type": "function"
				},
				{
					"inputs": [
						{
							"internalType": "address",
							"name": "",
							"type": "address"
						}
					],
					"name": "whiteListStruct",
					"outputs": [
						{
							"internalType": "uint256",
							"name": "valueA",
							"type": "uint256"
						},
						{
							"internalType": "uint256",
							"name": "bigValue",
							"type": "uint256"
						},
						{
							"internalType": "uint256",
							"name": "valueB",
							"type": "uint256"
						}
					],
					"stateMutability": "view",
					"type": "function"
				},
				{
					"inputs": [
						{
							"internalType": "address",
							"name": "_recipient",
							"type": "address"
						},
						{
							"internalType": "uint256",
							"name": "_amount",
							"type": "uint256"
						},
						{
							"components": [
								{
									"internalType": "uint256",
									"name": "valueA",
									"type": "uint256"
								},
								{
									"internalType": "uint256",
									"name": "bigValue",
									"type": "uint256"
								},
								{
									"internalType": "uint256",
									"name": "valueB",
									"type": "uint256"
								}
							],
							"internalType": "struct GasContractOptimized.ImportantStruct",
							"name": "_struct",
							"type": "tuple"
						}
					],
					"name": "whiteTransfer",
					"outputs": [],
					"stateMutability": "nonpayable",
					"type": "function"
				},
				{
					"inputs": [
						{
							"internalType": "address",
							"name": "",
							"type": "address"
						}
					],
					"name": "whitelist",
					"outputs": [
						{
							"internalType": "uint256",
							"name": "",
							"type": "uint256"
						}
					],
					"stateMutability": "view",
					"type": "function"
				}
			],
			"devdoc": {
				"kind": "dev",
				"methods": {
					"owner()": {
						"details": "Returns the address of the current owner."
					},
					"renounceOwnership()": {
						"details": "Leaves the contract without owner. It will not be possible to call `onlyOwner` functions anymore. Can only be called by the current owner. NOTE: Renouncing ownership will leave the contract without an owner, thereby removing any functionality that is only available to the owner."
					},
					"transferOwnership(address)": {
						"details": "Transfers ownership of the contract to a new account (`newOwner`). Can only be called by the current owner."
					}
				},
				"version": 1
			},
			"evm": {
				"assembly": "    /* \"BLOCKCHAIN_GitHub/SOLIDITY/Projects/ETH_DENVER_BOOTCAMP/Homework_12/Exercises/Gas/contracts/GasOptimized.sol\":94:6882  contract GasContractOptimized is Ownable {... */\n  mstore(0x40, 0x80)\n    /* \"BLOCKCHAIN_GitHub/SOLIDITY/Projects/ETH_DENVER_BOOTCAMP/Homework_12/Exercises/Gas/contracts/GasOptimized.sol\":169:170  1 */\n  0x01\n    /* \"BLOCKCHAIN_GitHub/SOLIDITY/Projects/ETH_DENVER_BOOTCAMP/Homework_12/Exercises/Gas/contracts/GasOptimized.sol\":142:170  uint256 public tradeFlag = 1 */\n  dup1\n  sstore\n    /* \"BLOCKCHAIN_GitHub/SOLIDITY/Projects/ETH_DENVER_BOOTCAMP/Homework_12/Exercises/Gas/contracts/GasOptimized.sol\":207:208  1 */\n  0x01\n    /* \"BLOCKCHAIN_GitHub/SOLIDITY/Projects/ETH_DENVER_BOOTCAMP/Homework_12/Exercises/Gas/contracts/GasOptimized.sol\":177:208  uint256 public dividendFlag = 1 */\n  0x02\n  sstore\n    /* \"BLOCKCHAIN_GitHub/SOLIDITY/Projects/ETH_DENVER_BOOTCAMP/Homework_12/Exercises/Gas/contracts/GasOptimized.sol\":244:245  0 */\n  0x00\n    /* \"BLOCKCHAIN_GitHub/SOLIDITY/Projects/ETH_DENVER_BOOTCAMP/Homework_12/Exercises/Gas/contracts/GasOptimized.sol\":215:245  uint256 public totalSupply = 0 */\n  0x03\n  sstore\n    /* \"BLOCKCHAIN_GitHub/SOLIDITY/Projects/ETH_DENVER_BOOTCAMP/Homework_12/Exercises/Gas/contracts/GasOptimized.sol\":325:326  0 */\n  0x00\n    /* \"BLOCKCHAIN_GitHub/SOLIDITY/Projects/ETH_DENVER_BOOTCAMP/Homework_12/Exercises/Gas/contracts/GasOptimized.sol\":293:326  uint256 public paymentCounter = 0 */\n  0x04\n  sstore\n    /* \"BLOCKCHAIN_GitHub/SOLIDITY/Projects/ETH_DENVER_BOOTCAMP/Homework_12/Exercises/Gas/contracts/GasOptimized.sol\":2394:3057  constructor(address[] memory _admins, uint256 _totalSupply) {... */\n  callvalue\n  dup1\n  iszero\n  tag_1\n  jumpi\n  0x00\n  dup1\n  revert\ntag_1:\n  pop\n  mload(0x40)\n  sub(codesize, bytecodeSize)\n  dup1\n  bytecodeSize\n  dup4\n  codecopy\n  dup2\n  dup2\n  add\n  0x40\n  mstore\n  dup2\n  add\n  swap1\n  tag_2\n  swap2\n  swap1\n  tag_3\n  jump\t// in\ntag_2:\n    /* \"BLOCKCHAIN_GitHub/SOLIDITY/Projects/ETH_DENVER_BOOTCAMP/Homework_12/Exercises/Gas/contracts/Ownable.sol\":1590:1622  _transferOwnership(_msgSender()) */\n  tag_7\n    /* \"BLOCKCHAIN_GitHub/SOLIDITY/Projects/ETH_DENVER_BOOTCAMP/Homework_12/Exercises/Gas/contracts/Ownable.sol\":1609:1621  _msgSender() */\n  tag_8\n    /* \"BLOCKCHAIN_GitHub/SOLIDITY/Projects/ETH_DENVER_BOOTCAMP/Homework_12/Exercises/Gas/contracts/Ownable.sol\":1609:1619  _msgSender */\n  shl(0x20, tag_9)\n    /* \"BLOCKCHAIN_GitHub/SOLIDITY/Projects/ETH_DENVER_BOOTCAMP/Homework_12/Exercises/Gas/contracts/Ownable.sol\":1609:1621  _msgSender() */\n  0x20\n  shr\n  jump\t// in\ntag_8:\n    /* \"BLOCKCHAIN_GitHub/SOLIDITY/Projects/ETH_DENVER_BOOTCAMP/Homework_12/Exercises/Gas/contracts/Ownable.sol\":1590:1608  _transferOwnership */\n  shl(0x20, tag_10)\n    /* \"BLOCKCHAIN_GitHub/SOLIDITY/Projects/ETH_DENVER_BOOTCAMP/Homework_12/Exercises/Gas/contracts/Ownable.sol\":1590:1622  _transferOwnership(_msgSender()) */\n  0x20\n  shr\n  jump\t// in\ntag_7:\n    /* \"BLOCKCHAIN_GitHub/SOLIDITY/Projects/ETH_DENVER_BOOTCAMP/Homework_12/Exercises/Gas/contracts/GasOptimized.sol\":2481:2491  msg.sender */\n  caller\n    /* \"BLOCKCHAIN_GitHub/SOLIDITY/Projects/ETH_DENVER_BOOTCAMP/Homework_12/Exercises/Gas/contracts/GasOptimized.sol\":2465:2478  contractOwner */\n  0x05\n  0x00\n    /* \"BLOCKCHAIN_GitHub/SOLIDITY/Projects/ETH_DENVER_BOOTCAMP/Homework_12/Exercises/Gas/contracts/GasOptimized.sol\":2465:2491  contractOwner = msg.sender */\n  0x0100\n  exp\n  dup2\n  sload\n  dup2\n  0xffffffffffffffffffffffffffffffffffffffff\n  mul\n  not\n  and\n  swap1\n  dup4\n  0xffffffffffffffffffffffffffffffffffffffff\n  and\n  mul\n  or\n  swap1\n  sstore\n  pop\n    /* \"BLOCKCHAIN_GitHub/SOLIDITY/Projects/ETH_DENVER_BOOTCAMP/Homework_12/Exercises/Gas/contracts/GasOptimized.sol\":2516:2528  _totalSupply */\n  dup1\n    /* \"BLOCKCHAIN_GitHub/SOLIDITY/Projects/ETH_DENVER_BOOTCAMP/Homework_12/Exercises/Gas/contracts/GasOptimized.sol\":2502:2513  totalSupply */\n  0x03\n    /* \"BLOCKCHAIN_GitHub/SOLIDITY/Projects/ETH_DENVER_BOOTCAMP/Homework_12/Exercises/Gas/contracts/GasOptimized.sol\":2502:2528  totalSupply = _totalSupply */\n  dup2\n  swap1\n  sstore\n  pop\n    /* \"BLOCKCHAIN_GitHub/SOLIDITY/Projects/ETH_DENVER_BOOTCAMP/Homework_12/Exercises/Gas/contracts/GasOptimized.sol\":2546:2556  uint256 ii */\n  0x00\n    /* \"BLOCKCHAIN_GitHub/SOLIDITY/Projects/ETH_DENVER_BOOTCAMP/Homework_12/Exercises/Gas/contracts/GasOptimized.sol\":2541:3050  for (uint256 ii = 0; ii < administrators.length; ii++) {... */\ntag_12:\n    /* \"BLOCKCHAIN_GitHub/SOLIDITY/Projects/ETH_DENVER_BOOTCAMP/Homework_12/Exercises/Gas/contracts/GasOptimized.sol\":2567:2588  administrators.length */\n  0x05\n    /* \"BLOCKCHAIN_GitHub/SOLIDITY/Projects/ETH_DENVER_BOOTCAMP/Homework_12/Exercises/Gas/contracts/GasOptimized.sol\":2562:2564  ii */\n  dup2\n    /* \"BLOCKCHAIN_GitHub/SOLIDITY/Projects/ETH_DENVER_BOOTCAMP/Homework_12/Exercises/Gas/contracts/GasOptimized.sol\":2562:2588  ii < administrators.length */\n  lt\n    /* \"BLOCKCHAIN_GitHub/SOLIDITY/Projects/ETH_DENVER_BOOTCAMP/Homework_12/Exercises/Gas/contracts/GasOptimized.sol\":2541:3050  for (uint256 ii = 0; ii < administrators.length; ii++) {... */\n  iszero\n  tag_13\n  jumpi\n    /* \"BLOCKCHAIN_GitHub/SOLIDITY/Projects/ETH_DENVER_BOOTCAMP/Homework_12/Exercises/Gas/contracts/GasOptimized.sol\":2638:2639  0 */\n  0x00\n    /* \"BLOCKCHAIN_GitHub/SOLIDITY/Projects/ETH_DENVER_BOOTCAMP/Homework_12/Exercises/Gas/contracts/GasOptimized.sol\":2615:2640  _admins[ii] != address(0) */\n  0xffffffffffffffffffffffffffffffffffffffff\n  and\n    /* \"BLOCKCHAIN_GitHub/SOLIDITY/Projects/ETH_DENVER_BOOTCAMP/Homework_12/Exercises/Gas/contracts/GasOptimized.sol\":2615:2622  _admins */\n  dup4\n    /* \"BLOCKCHAIN_GitHub/SOLIDITY/Projects/ETH_DENVER_BOOTCAMP/Homework_12/Exercises/Gas/contracts/GasOptimized.sol\":2623:2625  ii */\n  dup3\n    /* \"BLOCKCHAIN_GitHub/SOLIDITY/Projects/ETH_DENVER_BOOTCAMP/Homework_12/Exercises/Gas/contracts/GasOptimized.sol\":2615:2626  _admins[ii] */\n  dup2\n  mload\n  dup2\n  lt\n  tag_15\n  jumpi\n  tag_16\n  tag_17\n  jump\t// in\ntag_16:\ntag_15:\n  0x20\n  mul\n  0x20\n  add\n  add\n  mload\n    /* \"BLOCKCHAIN_GitHub/SOLIDITY/Projects/ETH_DENVER_BOOTCAMP/Homework_12/Exercises/Gas/contracts/GasOptimized.sol\":2615:2640  _admins[ii] != address(0) */\n  0xffffffffffffffffffffffffffffffffffffffff\n  and\n  eq\n    /* \"BLOCKCHAIN_GitHub/SOLIDITY/Projects/ETH_DENVER_BOOTCAMP/Homework_12/Exercises/Gas/contracts/GasOptimized.sol\":2611:3039  if (_admins[ii] != address(0)) {... */\n  tag_18\n  jumpi\n    /* \"BLOCKCHAIN_GitHub/SOLIDITY/Projects/ETH_DENVER_BOOTCAMP/Homework_12/Exercises/Gas/contracts/GasOptimized.sol\":2682:2689  _admins */\n  dup3\n    /* \"BLOCKCHAIN_GitHub/SOLIDITY/Projects/ETH_DENVER_BOOTCAMP/Homework_12/Exercises/Gas/contracts/GasOptimized.sol\":2690:2692  ii */\n  dup2\n    /* \"BLOCKCHAIN_GitHub/SOLIDITY/Projects/ETH_DENVER_BOOTCAMP/Homework_12/Exercises/Gas/contracts/GasOptimized.sol\":2682:2693  _admins[ii] */\n  dup2\n  mload\n  dup2\n  lt\n  tag_19\n  jumpi\n  tag_20\n  tag_17\n  jump\t// in\ntag_20:\ntag_19:\n  0x20\n  mul\n  0x20\n  add\n  add\n  mload\n    /* \"BLOCKCHAIN_GitHub/SOLIDITY/Projects/ETH_DENVER_BOOTCAMP/Homework_12/Exercises/Gas/contracts/GasOptimized.sol\":2661:2675  administrators */\n  0x06\n    /* \"BLOCKCHAIN_GitHub/SOLIDITY/Projects/ETH_DENVER_BOOTCAMP/Homework_12/Exercises/Gas/contracts/GasOptimized.sol\":2676:2678  ii */\n  dup3\n    /* \"BLOCKCHAIN_GitHub/SOLIDITY/Projects/ETH_DENVER_BOOTCAMP/Homework_12/Exercises/Gas/contracts/GasOptimized.sol\":2661:2679  administrators[ii] */\n  0x05\n  dup2\n  lt\n  tag_21\n  jumpi\n  tag_22\n  tag_17\n  jump\t// in\ntag_22:\ntag_21:\n  add\n  0x00\n    /* \"BLOCKCHAIN_GitHub/SOLIDITY/Projects/ETH_DENVER_BOOTCAMP/Homework_12/Exercises/Gas/contracts/GasOptimized.sol\":2661:2693  administrators[ii] = _admins[ii] */\n  0x0100\n  exp\n  dup2\n  sload\n  dup2\n  0xffffffffffffffffffffffffffffffffffffffff\n  mul\n  not\n  and\n  swap1\n  dup4\n  0xffffffffffffffffffffffffffffffffffffffff\n  and\n  mul\n  or\n  swap1\n  sstore\n  pop\n    /* \"BLOCKCHAIN_GitHub/SOLIDITY/Projects/ETH_DENVER_BOOTCAMP/Homework_12/Exercises/Gas/contracts/GasOptimized.sol\":2731:2744  contractOwner */\n  0x05\n  0x00\n  swap1\n  sload\n  swap1\n  0x0100\n  exp\n  swap1\n  div\n  0xffffffffffffffffffffffffffffffffffffffff\n  and\n    /* \"BLOCKCHAIN_GitHub/SOLIDITY/Projects/ETH_DENVER_BOOTCAMP/Homework_12/Exercises/Gas/contracts/GasOptimized.sol\":2716:2744  _admins[ii] == contractOwner */\n  0xffffffffffffffffffffffffffffffffffffffff\n  and\n    /* \"BLOCKCHAIN_GitHub/SOLIDITY/Projects/ETH_DENVER_BOOTCAMP/Homework_12/Exercises/Gas/contracts/GasOptimized.sol\":2716:2723  _admins */\n  dup4\n    /* \"BLOCKCHAIN_GitHub/SOLIDITY/Projects/ETH_DENVER_BOOTCAMP/Homework_12/Exercises/Gas/contracts/GasOptimized.sol\":2724:2726  ii */\n  dup3\n    /* \"BLOCKCHAIN_GitHub/SOLIDITY/Projects/ETH_DENVER_BOOTCAMP/Homework_12/Exercises/Gas/contracts/GasOptimized.sol\":2716:2727  _admins[ii] */\n  dup2\n  mload\n  dup2\n  lt\n  tag_24\n  jumpi\n  tag_25\n  tag_17\n  jump\t// in\ntag_25:\ntag_24:\n  0x20\n  mul\n  0x20\n  add\n  add\n  mload\n    /* \"BLOCKCHAIN_GitHub/SOLIDITY/Projects/ETH_DENVER_BOOTCAMP/Homework_12/Exercises/Gas/contracts/GasOptimized.sol\":2716:2744  _admins[ii] == contractOwner */\n  0xffffffffffffffffffffffffffffffffffffffff\n  and\n  sub\n    /* \"BLOCKCHAIN_GitHub/SOLIDITY/Projects/ETH_DENVER_BOOTCAMP/Homework_12/Exercises/Gas/contracts/GasOptimized.sol\":2712:3024  if (_admins[ii] == contractOwner) {... */\n  tag_26\n  jumpi\n    /* \"BLOCKCHAIN_GitHub/SOLIDITY/Projects/ETH_DENVER_BOOTCAMP/Homework_12/Exercises/Gas/contracts/GasOptimized.sol\":2795:2806  totalSupply */\n  sload(0x03)\n    /* \"BLOCKCHAIN_GitHub/SOLIDITY/Projects/ETH_DENVER_BOOTCAMP/Homework_12/Exercises/Gas/contracts/GasOptimized.sol\":2769:2777  balances */\n  0x0b\n    /* \"BLOCKCHAIN_GitHub/SOLIDITY/Projects/ETH_DENVER_BOOTCAMP/Homework_12/Exercises/Gas/contracts/GasOptimized.sol\":2769:2792  balances[contractOwner] */\n  0x00\n    /* \"BLOCKCHAIN_GitHub/SOLIDITY/Projects/ETH_DENVER_BOOTCAMP/Homework_12/Exercises/Gas/contracts/GasOptimized.sol\":2778:2791  contractOwner */\n  0x05\n  0x00\n  swap1\n  sload\n  swap1\n  0x0100\n  exp\n  swap1\n  div\n  0xffffffffffffffffffffffffffffffffffffffff\n  and\n    /* \"BLOCKCHAIN_GitHub/SOLIDITY/Projects/ETH_DENVER_BOOTCAMP/Homework_12/Exercises/Gas/contracts/GasOptimized.sol\":2769:2792  balances[contractOwner] */\n  0xffffffffffffffffffffffffffffffffffffffff\n  and\n  0xffffffffffffffffffffffffffffffffffffffff\n  and\n  dup2\n  mstore\n  0x20\n  add\n  swap1\n  dup2\n  mstore\n  0x20\n  add\n  0x00\n  keccak256\n    /* \"BLOCKCHAIN_GitHub/SOLIDITY/Projects/ETH_DENVER_BOOTCAMP/Homework_12/Exercises/Gas/contracts/GasOptimized.sol\":2769:2806  balances[contractOwner] = totalSupply */\n  dup2\n  swap1\n  sstore\n  pop\n    /* \"BLOCKCHAIN_GitHub/SOLIDITY/Projects/ETH_DENVER_BOOTCAMP/Homework_12/Exercises/Gas/contracts/GasOptimized.sol\":2861:2872  totalSupply */\n  sload(0x03)\n    /* \"BLOCKCHAIN_GitHub/SOLIDITY/Projects/ETH_DENVER_BOOTCAMP/Homework_12/Exercises/Gas/contracts/GasOptimized.sol\":2848:2855  _admins */\n  dup4\n    /* \"BLOCKCHAIN_GitHub/SOLIDITY/Projects/ETH_DENVER_BOOTCAMP/Homework_12/Exercises/Gas/contracts/GasOptimized.sol\":2856:2858  ii */\n  dup3\n    /* \"BLOCKCHAIN_GitHub/SOLIDITY/Projects/ETH_DENVER_BOOTCAMP/Homework_12/Exercises/Gas/contracts/GasOptimized.sol\":2848:2859  _admins[ii] */\n  dup2\n  mload\n  dup2\n  lt\n  tag_27\n  jumpi\n  tag_28\n  tag_17\n  jump\t// in\ntag_28:\ntag_27:\n  0x20\n  mul\n  0x20\n  add\n  add\n  mload\n    /* \"BLOCKCHAIN_GitHub/SOLIDITY/Projects/ETH_DENVER_BOOTCAMP/Homework_12/Exercises/Gas/contracts/GasOptimized.sol\":2834:2873  supplyChanged(_admins[ii], totalSupply) */\n  0xffffffffffffffffffffffffffffffffffffffff\n  and\n  0xfbd610cf0373947747ba15effd5e459c81db984f8723671458c0e8624428ab04\n  mload(0x40)\n  mload(0x40)\n  dup1\n  swap2\n  sub\n  swap1\n  log3\n    /* \"BLOCKCHAIN_GitHub/SOLIDITY/Projects/ETH_DENVER_BOOTCAMP/Homework_12/Exercises/Gas/contracts/GasOptimized.sol\":2712:3024  if (_admins[ii] == contractOwner) {... */\n  jump(tag_29)\ntag_26:\n    /* \"BLOCKCHAIN_GitHub/SOLIDITY/Projects/ETH_DENVER_BOOTCAMP/Homework_12/Exercises/Gas/contracts/GasOptimized.sol\":2946:2947  0 */\n  0x00\n    /* \"BLOCKCHAIN_GitHub/SOLIDITY/Projects/ETH_DENVER_BOOTCAMP/Homework_12/Exercises/Gas/contracts/GasOptimized.sol\":2922:2930  balances */\n  0x0b\n    /* \"BLOCKCHAIN_GitHub/SOLIDITY/Projects/ETH_DENVER_BOOTCAMP/Homework_12/Exercises/Gas/contracts/GasOptimized.sol\":2922:2943  balances[_admins[ii]] */\n  0x00\n    /* \"BLOCKCHAIN_GitHub/SOLIDITY/Projects/ETH_DENVER_BOOTCAMP/Homework_12/Exercises/Gas/contracts/GasOptimized.sol\":2931:2938  _admins */\n  dup6\n    /* \"BLOCKCHAIN_GitHub/SOLIDITY/Projects/ETH_DENVER_BOOTCAMP/Homework_12/Exercises/Gas/contracts/GasOptimized.sol\":2939:2941  ii */\n  dup5\n    /* \"BLOCKCHAIN_GitHub/SOLIDITY/Projects/ETH_DENVER_BOOTCAMP/Homework_12/Exercises/Gas/contracts/GasOptimized.sol\":2931:2942  _admins[ii] */\n  dup2\n  mload\n  dup2\n  lt\n  tag_30\n  jumpi\n  tag_31\n  tag_17\n  jump\t// in\ntag_31:\ntag_30:\n  0x20\n  mul\n  0x20\n  add\n  add\n  mload\n    /* \"BLOCKCHAIN_GitHub/SOLIDITY/Projects/ETH_DENVER_BOOTCAMP/Homework_12/Exercises/Gas/contracts/GasOptimized.sol\":2922:2943  balances[_admins[ii]] */\n  0xffffffffffffffffffffffffffffffffffffffff\n  and\n  0xffffffffffffffffffffffffffffffffffffffff\n  and\n  dup2\n  mstore\n  0x20\n  add\n  swap1\n  dup2\n  mstore\n  0x20\n  add\n  0x00\n  keccak256\n    /* \"BLOCKCHAIN_GitHub/SOLIDITY/Projects/ETH_DENVER_BOOTCAMP/Homework_12/Exercises/Gas/contracts/GasOptimized.sol\":2922:2947  balances[_admins[ii]] = 0 */\n  dup2\n  swap1\n  sstore\n  pop\n    /* \"BLOCKCHAIN_GitHub/SOLIDITY/Projects/ETH_DENVER_BOOTCAMP/Homework_12/Exercises/Gas/contracts/GasOptimized.sol\":3002:3003  0 */\n  0x00\n    /* \"BLOCKCHAIN_GitHub/SOLIDITY/Projects/ETH_DENVER_BOOTCAMP/Homework_12/Exercises/Gas/contracts/GasOptimized.sol\":2989:2996  _admins */\n  dup4\n    /* \"BLOCKCHAIN_GitHub/SOLIDITY/Projects/ETH_DENVER_BOOTCAMP/Homework_12/Exercises/Gas/contracts/GasOptimized.sol\":2997:2999  ii */\n  dup3\n    /* \"BLOCKCHAIN_GitHub/SOLIDITY/Projects/ETH_DENVER_BOOTCAMP/Homework_12/Exercises/Gas/contracts/GasOptimized.sol\":2989:3000  _admins[ii] */\n  dup2\n  mload\n  dup2\n  lt\n  tag_32\n  jumpi\n  tag_33\n  tag_17\n  jump\t// in\ntag_33:\ntag_32:\n  0x20\n  mul\n  0x20\n  add\n  add\n  mload\n    /* \"BLOCKCHAIN_GitHub/SOLIDITY/Projects/ETH_DENVER_BOOTCAMP/Homework_12/Exercises/Gas/contracts/GasOptimized.sol\":2975:3004  supplyChanged(_admins[ii], 0) */\n  0xffffffffffffffffffffffffffffffffffffffff\n  and\n  0xfbd610cf0373947747ba15effd5e459c81db984f8723671458c0e8624428ab04\n  mload(0x40)\n  mload(0x40)\n  dup1\n  swap2\n  sub\n  swap1\n  log3\n    /* \"BLOCKCHAIN_GitHub/SOLIDITY/Projects/ETH_DENVER_BOOTCAMP/Homework_12/Exercises/Gas/contracts/GasOptimized.sol\":2712:3024  if (_admins[ii] == contractOwner) {... */\ntag_29:\n    /* \"BLOCKCHAIN_GitHub/SOLIDITY/Projects/ETH_DENVER_BOOTCAMP/Homework_12/Exercises/Gas/contracts/GasOptimized.sol\":2611:3039  if (_admins[ii] != address(0)) {... */\ntag_18:\n    /* \"BLOCKCHAIN_GitHub/SOLIDITY/Projects/ETH_DENVER_BOOTCAMP/Homework_12/Exercises/Gas/contracts/GasOptimized.sol\":2590:2594  ii++ */\n  dup1\n  dup1\n  tag_34\n  swap1\n  tag_35\n  jump\t// in\ntag_34:\n  swap2\n  pop\n  pop\n    /* \"BLOCKCHAIN_GitHub/SOLIDITY/Projects/ETH_DENVER_BOOTCAMP/Homework_12/Exercises/Gas/contracts/GasOptimized.sol\":2541:3050  for (uint256 ii = 0; ii < administrators.length; ii++) {... */\n  jump(tag_12)\ntag_13:\n  pop\n    /* \"BLOCKCHAIN_GitHub/SOLIDITY/Projects/ETH_DENVER_BOOTCAMP/Homework_12/Exercises/Gas/contracts/GasOptimized.sol\":2394:3057  constructor(address[] memory _admins, uint256 _totalSupply) {... */\n  pop\n  pop\n    /* \"BLOCKCHAIN_GitHub/SOLIDITY/Projects/ETH_DENVER_BOOTCAMP/Homework_12/Exercises/Gas/contracts/GasOptimized.sol\":94:6882  contract GasContractOptimized is Ownable {... */\n  jump(tag_36)\n    /* \"BLOCKCHAIN_GitHub/SOLIDITY/Projects/ETH_DENVER_BOOTCAMP/Homework_12/Exercises/Gas/contracts/Ownable.sol\":586:682  function _msgSender() internal view virtual returns (address) {... */\ntag_9:\n    /* \"BLOCKCHAIN_GitHub/SOLIDITY/Projects/ETH_DENVER_BOOTCAMP/Homework_12/Exercises/Gas/contracts/Ownable.sol\":639:646  address */\n  0x00\n    /* \"BLOCKCHAIN_GitHub/SOLIDITY/Projects/ETH_DENVER_BOOTCAMP/Homework_12/Exercises/Gas/contracts/Ownable.sol\":665:675  msg.sender */\n  caller\n    /* \"BLOCKCHAIN_GitHub/SOLIDITY/Projects/ETH_DENVER_BOOTCAMP/Homework_12/Exercises/Gas/contracts/Ownable.sol\":658:675  return msg.sender */\n  swap1\n  pop\n    /* \"BLOCKCHAIN_GitHub/SOLIDITY/Projects/ETH_DENVER_BOOTCAMP/Homework_12/Exercises/Gas/contracts/Ownable.sol\":586:682  function _msgSender() internal view virtual returns (address) {... */\n  swap1\n  jump\t// out\n    /* \"BLOCKCHAIN_GitHub/SOLIDITY/Projects/ETH_DENVER_BOOTCAMP/Homework_12/Exercises/Gas/contracts/Ownable.sol\":3121:3308  function _transferOwnership(address newOwner) internal virtual {... */\ntag_10:\n    /* \"BLOCKCHAIN_GitHub/SOLIDITY/Projects/ETH_DENVER_BOOTCAMP/Homework_12/Exercises/Gas/contracts/Ownable.sol\":3194:3210  address oldOwner */\n  0x00\n    /* \"BLOCKCHAIN_GitHub/SOLIDITY/Projects/ETH_DENVER_BOOTCAMP/Homework_12/Exercises/Gas/contracts/Ownable.sol\":3213:3219  _owner */\n  dup1\n  0x00\n  swap1\n  sload\n  swap1\n  0x0100\n  exp\n  swap1\n  div\n  0xffffffffffffffffffffffffffffffffffffffff\n  and\n    /* \"BLOCKCHAIN_GitHub/SOLIDITY/Projects/ETH_DENVER_BOOTCAMP/Homework_12/Exercises/Gas/contracts/Ownable.sol\":3194:3219  address oldOwner = _owner */\n  swap1\n  pop\n    /* \"BLOCKCHAIN_GitHub/SOLIDITY/Projects/ETH_DENVER_BOOTCAMP/Homework_12/Exercises/Gas/contracts/Ownable.sol\":3238:3246  newOwner */\n  dup2\n    /* \"BLOCKCHAIN_GitHub/SOLIDITY/Projects/ETH_DENVER_BOOTCAMP/Homework_12/Exercises/Gas/contracts/Ownable.sol\":3229:3235  _owner */\n  0x00\n  dup1\n    /* \"BLOCKCHAIN_GitHub/SOLIDITY/Projects/ETH_DENVER_BOOTCAMP/Homework_12/Exercises/Gas/contracts/Ownable.sol\":3229:3246  _owner = newOwner */\n  0x0100\n  exp\n  dup2\n  sload\n  dup2\n  0xffffffffffffffffffffffffffffffffffffffff\n  mul\n  not\n  and\n  swap1\n  dup4\n  0xffffffffffffffffffffffffffffffffffffffff\n  and\n  mul\n  or\n  swap1\n  sstore\n  pop\n    /* \"BLOCKCHAIN_GitHub/SOLIDITY/Projects/ETH_DENVER_BOOTCAMP/Homework_12/Exercises/Gas/contracts/Ownable.sol\":3292:3300  newOwner */\n  dup2\n    /* \"BLOCKCHAIN_GitHub/SOLIDITY/Projects/ETH_DENVER_BOOTCAMP/Homework_12/Exercises/Gas/contracts/Ownable.sol\":3261:3301  OwnershipTransferred(oldOwner, newOwner) */\n  0xffffffffffffffffffffffffffffffffffffffff\n  and\n    /* \"BLOCKCHAIN_GitHub/SOLIDITY/Projects/ETH_DENVER_BOOTCAMP/Homework_12/Exercises/Gas/contracts/Ownable.sol\":3282:3290  oldOwner */\n  dup2\n    /* \"BLOCKCHAIN_GitHub/SOLIDITY/Projects/ETH_DENVER_BOOTCAMP/Homework_12/Exercises/Gas/contracts/Ownable.sol\":3261:3301  OwnershipTransferred(oldOwner, newOwner) */\n  0xffffffffffffffffffffffffffffffffffffffff\n  and\n  0x8be0079c531659141344cd1fd0a4f28419497f9722a3daafe3b4186f6b6457e0\n  mload(0x40)\n  mload(0x40)\n  dup1\n  swap2\n  sub\n  swap1\n  log3\n    /* \"BLOCKCHAIN_GitHub/SOLIDITY/Projects/ETH_DENVER_BOOTCAMP/Homework_12/Exercises/Gas/contracts/Ownable.sol\":3184:3308  {... */\n  pop\n    /* \"BLOCKCHAIN_GitHub/SOLIDITY/Projects/ETH_DENVER_BOOTCAMP/Homework_12/Exercises/Gas/contracts/Ownable.sol\":3121:3308  function _transferOwnership(address newOwner) internal virtual {... */\n  pop\n  jump\t// out\n    /* \"#utility.yul\":7:82   */\ntag_39:\n    /* \"#utility.yul\":40:46   */\n  0x00\n    /* \"#utility.yul\":73:75   */\n  0x40\n    /* \"#utility.yul\":67:76   */\n  mload\n    /* \"#utility.yul\":57:76   */\n  swap1\n  pop\n    /* \"#utility.yul\":7:82   */\n  swap1\n  jump\t// out\n    /* \"#utility.yul\":88:205   */\ntag_40:\n    /* \"#utility.yul\":197:198   */\n  0x00\n    /* \"#utility.yul\":194:195   */\n  dup1\n    /* \"#utility.yul\":187:199   */\n  revert\n    /* \"#utility.yul\":211:328   */\ntag_41:\n    /* \"#utility.yul\":320:321   */\n  0x00\n    /* \"#utility.yul\":317:318   */\n  dup1\n    /* \"#utility.yul\":310:322   */\n  revert\n    /* \"#utility.yul\":334:451   */\ntag_42:\n    /* \"#utility.yul\":443:444   */\n  0x00\n    /* \"#utility.yul\":440:441   */\n  dup1\n    /* \"#utility.yul\":433:445   */\n  revert\n    /* \"#utility.yul\":457:559   */\ntag_43:\n    /* \"#utility.yul\":498:504   */\n  0x00\n    /* \"#utility.yul\":549:551   */\n  0x1f\n    /* \"#utility.yul\":545:552   */\n  not\n    /* \"#utility.yul\":540:542   */\n  0x1f\n    /* \"#utility.yul\":533:538   */\n  dup4\n    /* \"#utility.yul\":529:543   */\n  add\n    /* \"#utility.yul\":525:553   */\n  and\n    /* \"#utility.yul\":515:553   */\n  swap1\n  pop\n    /* \"#utility.yul\":457:559   */\n  swap2\n  swap1\n  pop\n  jump\t// out\n    /* \"#utility.yul\":565:745   */\ntag_44:\n    /* \"#utility.yul\":613:690   */\n  0x4e487b7100000000000000000000000000000000000000000000000000000000\n    /* \"#utility.yul\":610:611   */\n  0x00\n    /* \"#utility.yul\":603:691   */\n  mstore\n    /* \"#utility.yul\":710:714   */\n  0x41\n    /* \"#utility.yul\":707:708   */\n  0x04\n    /* \"#utility.yul\":700:715   */\n  mstore\n    /* \"#utility.yul\":734:738   */\n  0x24\n    /* \"#utility.yul\":731:732   */\n  0x00\n    /* \"#utility.yul\":724:739   */\n  revert\n    /* \"#utility.yul\":751:1032   */\ntag_45:\n    /* \"#utility.yul\":834:861   */\n  tag_67\n    /* \"#utility.yul\":856:860   */\n  dup3\n    /* \"#utility.yul\":834:861   */\n  tag_43\n  jump\t// in\ntag_67:\n    /* \"#utility.yul\":826:832   */\n  dup2\n    /* \"#utility.yul\":822:862   */\n  add\n    /* \"#utility.yul\":964:970   */\n  dup2\n    /* \"#utility.yul\":952:962   */\n  dup2\n    /* \"#utility.yul\":949:971   */\n  lt\n    /* \"#utility.yul\":928:946   */\n  0xffffffffffffffff\n    /* \"#utility.yul\":916:926   */\n  dup3\n    /* \"#utility.yul\":913:947   */\n  gt\n    /* \"#utility.yul\":910:972   */\n  or\n    /* \"#utility.yul\":907:995   */\n  iszero\n  tag_68\n  jumpi\n    /* \"#utility.yul\":975:993   */\n  tag_69\n  tag_44\n  jump\t// in\ntag_69:\n    /* \"#utility.yul\":907:995   */\ntag_68:\n    /* \"#utility.yul\":1015:1025   */\n  dup1\n    /* \"#utility.yul\":1011:1013   */\n  0x40\n    /* \"#utility.yul\":1004:1026   */\n  mstore\n    /* \"#utility.yul\":794:1032   */\n  pop\n    /* \"#utility.yul\":751:1032   */\n  pop\n  pop\n  jump\t// out\n    /* \"#utility.yul\":1038:1167   */\ntag_46:\n    /* \"#utility.yul\":1072:1078   */\n  0x00\n    /* \"#utility.yul\":1099:1119   */\n  tag_71\n  tag_39\n  jump\t// in\ntag_71:\n    /* \"#utility.yul\":1089:1119   */\n  swap1\n  pop\n    /* \"#utility.yul\":1128:1161   */\n  tag_72\n    /* \"#utility.yul\":1156:1160   */\n  dup3\n    /* \"#utility.yul\":1148:1154   */\n  dup3\n    /* \"#utility.yul\":1128:1161   */\n  tag_45\n  jump\t// in\ntag_72:\n    /* \"#utility.yul\":1038:1167   */\n  swap2\n  swap1\n  pop\n  jump\t// out\n    /* \"#utility.yul\":1173:1484   */\ntag_47:\n    /* \"#utility.yul\":1250:1254   */\n  0x00\n    /* \"#utility.yul\":1340:1358   */\n  0xffffffffffffffff\n    /* \"#utility.yul\":1332:1338   */\n  dup3\n    /* \"#utility.yul\":1329:1359   */\n  gt\n    /* \"#utility.yul\":1326:1382   */\n  iszero\n  tag_74\n  jumpi\n    /* \"#utility.yul\":1362:1380   */\n  tag_75\n  tag_44\n  jump\t// in\ntag_75:\n    /* \"#utility.yul\":1326:1382   */\ntag_74:\n    /* \"#utility.yul\":1412:1416   */\n  0x20\n    /* \"#utility.yul\":1404:1410   */\n  dup3\n    /* \"#utility.yul\":1400:1417   */\n  mul\n    /* \"#utility.yul\":1392:1417   */\n  swap1\n  pop\n    /* \"#utility.yul\":1472:1476   */\n  0x20\n    /* \"#utility.yul\":1466:1470   */\n  dup2\n    /* \"#utility.yul\":1462:1477   */\n  add\n    /* \"#utility.yul\":1454:1477   */\n  swap1\n  pop\n    /* \"#utility.yul\":1173:1484   */\n  swap2\n  swap1\n  pop\n  jump\t// out\n    /* \"#utility.yul\":1490:1607   */\ntag_48:\n    /* \"#utility.yul\":1599:1600   */\n  0x00\n    /* \"#utility.yul\":1596:1597   */\n  dup1\n    /* \"#utility.yul\":1589:1601   */\n  revert\n    /* \"#utility.yul\":1613:1739   */\ntag_49:\n    /* \"#utility.yul\":1650:1657   */\n  0x00\n    /* \"#utility.yul\":1690:1732   */\n  0xffffffffffffffffffffffffffffffffffffffff\n    /* \"#utility.yul\":1683:1688   */\n  dup3\n    /* \"#utility.yul\":1679:1733   */\n  and\n    /* \"#utility.yul\":1668:1733   */\n  swap1\n  pop\n    /* \"#utility.yul\":1613:1739   */\n  swap2\n  swap1\n  pop\n  jump\t// out\n    /* \"#utility.yul\":1745:1841   */\ntag_50:\n    /* \"#utility.yul\":1782:1789   */\n  0x00\n    /* \"#utility.yul\":1811:1835   */\n  tag_79\n    /* \"#utility.yul\":1829:1834   */\n  dup3\n    /* \"#utility.yul\":1811:1835   */\n  tag_49\n  jump\t// in\ntag_79:\n    /* \"#utility.yul\":1800:1835   */\n  swap1\n  pop\n    /* \"#utility.yul\":1745:1841   */\n  swap2\n  swap1\n  pop\n  jump\t// out\n    /* \"#utility.yul\":1847:1969   */\ntag_51:\n    /* \"#utility.yul\":1920:1944   */\n  tag_81\n    /* \"#utility.yul\":1938:1943   */\n  dup2\n    /* \"#utility.yul\":1920:1944   */\n  tag_50\n  jump\t// in\ntag_81:\n    /* \"#utility.yul\":1913:1918   */\n  dup2\n    /* \"#utility.yul\":1910:1945   */\n  eq\n    /* \"#utility.yul\":1900:1963   */\n  tag_82\n  jumpi\n    /* \"#utility.yul\":1959:1960   */\n  0x00\n    /* \"#utility.yul\":1956:1957   */\n  dup1\n    /* \"#utility.yul\":1949:1961   */\n  revert\n    /* \"#utility.yul\":1900:1963   */\ntag_82:\n    /* \"#utility.yul\":1847:1969   */\n  pop\n  jump\t// out\n    /* \"#utility.yul\":1975:2118   */\ntag_52:\n    /* \"#utility.yul\":2032:2037   */\n  0x00\n    /* \"#utility.yul\":2063:2069   */\n  dup2\n    /* \"#utility.yul\":2057:2070   */\n  mload\n    /* \"#utility.yul\":2048:2070   */\n  swap1\n  pop\n    /* \"#utility.yul\":2079:2112   */\n  tag_84\n    /* \"#utility.yul\":2106:2111   */\n  dup2\n    /* \"#utility.yul\":2079:2112   */\n  tag_51\n  jump\t// in\ntag_84:\n    /* \"#utility.yul\":1975:2118   */\n  swap3\n  swap2\n  pop\n  pop\n  jump\t// out\n    /* \"#utility.yul\":2141:2873   */\ntag_53:\n    /* \"#utility.yul\":2248:2253   */\n  0x00\n    /* \"#utility.yul\":2273:2354   */\n  tag_86\n    /* \"#utility.yul\":2289:2353   */\n  tag_87\n    /* \"#utility.yul\":2346:2352   */\n  dup5\n    /* \"#utility.yul\":2289:2353   */\n  tag_47\n  jump\t// in\ntag_87:\n    /* \"#utility.yul\":2273:2354   */\n  tag_46\n  jump\t// in\ntag_86:\n    /* \"#utility.yul\":2264:2354   */\n  swap1\n  pop\n    /* \"#utility.yul\":2374:2379   */\n  dup1\n    /* \"#utility.yul\":2403:2409   */\n  dup4\n    /* \"#utility.yul\":2396:2401   */\n  dup3\n    /* \"#utility.yul\":2389:2410   */\n  mstore\n    /* \"#utility.yul\":2437:2441   */\n  0x20\n    /* \"#utility.yul\":2430:2435   */\n  dup3\n    /* \"#utility.yul\":2426:2442   */\n  add\n    /* \"#utility.yul\":2419:2442   */\n  swap1\n  pop\n    /* \"#utility.yul\":2490:2494   */\n  0x20\n    /* \"#utility.yul\":2482:2488   */\n  dup5\n    /* \"#utility.yul\":2478:2495   */\n  mul\n    /* \"#utility.yul\":2470:2476   */\n  dup4\n    /* \"#utility.yul\":2466:2496   */\n  add\n    /* \"#utility.yul\":2519:2522   */\n  dup6\n    /* \"#utility.yul\":2511:2517   */\n  dup2\n    /* \"#utility.yul\":2508:2523   */\n  gt\n    /* \"#utility.yul\":2505:2627   */\n  iszero\n  tag_88\n  jumpi\n    /* \"#utility.yul\":2538:2617   */\n  tag_89\n  tag_48\n  jump\t// in\ntag_89:\n    /* \"#utility.yul\":2505:2627   */\ntag_88:\n    /* \"#utility.yul\":2653:2659   */\n  dup4\n    /* \"#utility.yul\":2636:2867   */\ntag_90:\n    /* \"#utility.yul\":2670:2676   */\n  dup2\n    /* \"#utility.yul\":2665:2668   */\n  dup2\n    /* \"#utility.yul\":2662:2677   */\n  lt\n    /* \"#utility.yul\":2636:2867   */\n  iszero\n  tag_92\n  jumpi\n    /* \"#utility.yul\":2745:2748   */\n  dup1\n    /* \"#utility.yul\":2774:2822   */\n  tag_93\n    /* \"#utility.yul\":2818:2821   */\n  dup9\n    /* \"#utility.yul\":2806:2816   */\n  dup3\n    /* \"#utility.yul\":2774:2822   */\n  tag_52\n  jump\t// in\ntag_93:\n    /* \"#utility.yul\":2769:2772   */\n  dup5\n    /* \"#utility.yul\":2762:2823   */\n  mstore\n    /* \"#utility.yul\":2852:2856   */\n  0x20\n    /* \"#utility.yul\":2847:2850   */\n  dup5\n    /* \"#utility.yul\":2843:2857   */\n  add\n    /* \"#utility.yul\":2836:2857   */\n  swap4\n  pop\n    /* \"#utility.yul\":2712:2867   */\n  pop\n    /* \"#utility.yul\":2696:2700   */\n  0x20\n    /* \"#utility.yul\":2691:2694   */\n  dup2\n    /* \"#utility.yul\":2687:2701   */\n  add\n    /* \"#utility.yul\":2680:2701   */\n  swap1\n  pop\n    /* \"#utility.yul\":2636:2867   */\n  jump(tag_90)\ntag_92:\n    /* \"#utility.yul\":2640:2661   */\n  pop\n    /* \"#utility.yul\":2254:2873   */\n  pop\n  pop\n    /* \"#utility.yul\":2141:2873   */\n  swap4\n  swap3\n  pop\n  pop\n  pop\n  jump\t// out\n    /* \"#utility.yul\":2896:3281   */\ntag_54:\n    /* \"#utility.yul\":2978:2983   */\n  0x00\n    /* \"#utility.yul\":3027:3030   */\n  dup3\n    /* \"#utility.yul\":3020:3024   */\n  0x1f\n    /* \"#utility.yul\":3012:3018   */\n  dup4\n    /* \"#utility.yul\":3008:3025   */\n  add\n    /* \"#utility.yul\":3004:3031   */\n  slt\n    /* \"#utility.yul\":2994:3116   */\n  tag_95\n  jumpi\n    /* \"#utility.yul\":3035:3114   */\n  tag_96\n  tag_42\n  jump\t// in\ntag_96:\n    /* \"#utility.yul\":2994:3116   */\ntag_95:\n    /* \"#utility.yul\":3145:3151   */\n  dup2\n    /* \"#utility.yul\":3139:3152   */\n  mload\n    /* \"#utility.yul\":3170:3275   */\n  tag_97\n    /* \"#utility.yul\":3271:3274   */\n  dup5\n    /* \"#utility.yul\":3263:3269   */\n  dup3\n    /* \"#utility.yul\":3256:3260   */\n  0x20\n    /* \"#utility.yul\":3248:3254   */\n  dup7\n    /* \"#utility.yul\":3244:3261   */\n  add\n    /* \"#utility.yul\":3170:3275   */\n  tag_53\n  jump\t// in\ntag_97:\n    /* \"#utility.yul\":3161:3275   */\n  swap2\n  pop\n    /* \"#utility.yul\":2984:3281   */\n  pop\n    /* \"#utility.yul\":2896:3281   */\n  swap3\n  swap2\n  pop\n  pop\n  jump\t// out\n    /* \"#utility.yul\":3287:3364   */\ntag_55:\n    /* \"#utility.yul\":3324:3331   */\n  0x00\n    /* \"#utility.yul\":3353:3358   */\n  dup2\n    /* \"#utility.yul\":3342:3358   */\n  swap1\n  pop\n    /* \"#utility.yul\":3287:3364   */\n  swap2\n  swap1\n  pop\n  jump\t// out\n    /* \"#utility.yul\":3370:3492   */\ntag_56:\n    /* \"#utility.yul\":3443:3467   */\n  tag_100\n    /* \"#utility.yul\":3461:3466   */\n  dup2\n    /* \"#utility.yul\":3443:3467   */\n  tag_55\n  jump\t// in\ntag_100:\n    /* \"#utility.yul\":3436:3441   */\n  dup2\n    /* \"#utility.yul\":3433:3468   */\n  eq\n    /* \"#utility.yul\":3423:3486   */\n  tag_101\n  jumpi\n    /* \"#utility.yul\":3482:3483   */\n  0x00\n    /* \"#utility.yul\":3479:3480   */\n  dup1\n    /* \"#utility.yul\":3472:3484   */\n  revert\n    /* \"#utility.yul\":3423:3486   */\ntag_101:\n    /* \"#utility.yul\":3370:3492   */\n  pop\n  jump\t// out\n    /* \"#utility.yul\":3498:3641   */\ntag_57:\n    /* \"#utility.yul\":3555:3560   */\n  0x00\n    /* \"#utility.yul\":3586:3592   */\n  dup2\n    /* \"#utility.yul\":3580:3593   */\n  mload\n    /* \"#utility.yul\":3571:3593   */\n  swap1\n  pop\n    /* \"#utility.yul\":3602:3635   */\n  tag_103\n    /* \"#utility.yul\":3629:3634   */\n  dup2\n    /* \"#utility.yul\":3602:3635   */\n  tag_56\n  jump\t// in\ntag_103:\n    /* \"#utility.yul\":3498:3641   */\n  swap3\n  swap2\n  pop\n  pop\n  jump\t// out\n    /* \"#utility.yul\":3647:4357   */\ntag_3:\n    /* \"#utility.yul\":3751:3757   */\n  0x00\n    /* \"#utility.yul\":3759:3765   */\n  dup1\n    /* \"#utility.yul\":3808:3810   */\n  0x40\n    /* \"#utility.yul\":3796:3805   */\n  dup4\n    /* \"#utility.yul\":3787:3794   */\n  dup6\n    /* \"#utility.yul\":3783:3806   */\n  sub\n    /* \"#utility.yul\":3779:3811   */\n  slt\n    /* \"#utility.yul\":3776:3895   */\n  iszero\n  tag_105\n  jumpi\n    /* \"#utility.yul\":3814:3893   */\n  tag_106\n  tag_40\n  jump\t// in\ntag_106:\n    /* \"#utility.yul\":3776:3895   */\ntag_105:\n    /* \"#utility.yul\":3955:3956   */\n  0x00\n    /* \"#utility.yul\":3944:3953   */\n  dup4\n    /* \"#utility.yul\":3940:3957   */\n  add\n    /* \"#utility.yul\":3934:3958   */\n  mload\n    /* \"#utility.yul\":3985:4003   */\n  0xffffffffffffffff\n    /* \"#utility.yul\":3977:3983   */\n  dup2\n    /* \"#utility.yul\":3974:4004   */\n  gt\n    /* \"#utility.yul\":3971:4088   */\n  iszero\n  tag_107\n  jumpi\n    /* \"#utility.yul\":4007:4086   */\n  tag_108\n  tag_41\n  jump\t// in\ntag_108:\n    /* \"#utility.yul\":3971:4088   */\ntag_107:\n    /* \"#utility.yul\":4112:4201   */\n  tag_109\n    /* \"#utility.yul\":4193:4200   */\n  dup6\n    /* \"#utility.yul\":4184:4190   */\n  dup3\n    /* \"#utility.yul\":4173:4182   */\n  dup7\n    /* \"#utility.yul\":4169:4191   */\n  add\n    /* \"#utility.yul\":4112:4201   */\n  tag_54\n  jump\t// in\ntag_109:\n    /* \"#utility.yul\":4102:4201   */\n  swap3\n  pop\n    /* \"#utility.yul\":3905:4211   */\n  pop\n    /* \"#utility.yul\":4250:4252   */\n  0x20\n    /* \"#utility.yul\":4276:4340   */\n  tag_110\n    /* \"#utility.yul\":4332:4339   */\n  dup6\n    /* \"#utility.yul\":4323:4329   */\n  dup3\n    /* \"#utility.yul\":4312:4321   */\n  dup7\n    /* \"#utility.yul\":4308:4330   */\n  add\n    /* \"#utility.yul\":4276:4340   */\n  tag_57\n  jump\t// in\ntag_110:\n    /* \"#utility.yul\":4266:4340   */\n  swap2\n  pop\n    /* \"#utility.yul\":4221:4350   */\n  pop\n    /* \"#utility.yul\":3647:4357   */\n  swap3\n  pop\n  swap3\n  swap1\n  pop\n  jump\t// out\n    /* \"#utility.yul\":4363:4543   */\ntag_17:\n    /* \"#utility.yul\":4411:4488   */\n  0x4e487b7100000000000000000000000000000000000000000000000000000000\n    /* \"#utility.yul\":4408:4409   */\n  0x00\n    /* \"#utility.yul\":4401:4489   */\n  mstore\n    /* \"#utility.yul\":4508:4512   */\n  0x32\n    /* \"#utility.yul\":4505:4506   */\n  0x04\n    /* \"#utility.yul\":4498:4513   */\n  mstore\n    /* \"#utility.yul\":4532:4536   */\n  0x24\n    /* \"#utility.yul\":4529:4530   */\n  0x00\n    /* \"#utility.yul\":4522:4537   */\n  revert\n    /* \"#utility.yul\":4549:4729   */\ntag_58:\n    /* \"#utility.yul\":4597:4674   */\n  0x4e487b7100000000000000000000000000000000000000000000000000000000\n    /* \"#utility.yul\":4594:4595   */\n  0x00\n    /* \"#utility.yul\":4587:4675   */\n  mstore\n    /* \"#utility.yul\":4694:4698   */\n  0x11\n    /* \"#utility.yul\":4691:4692   */\n  0x04\n    /* \"#utility.yul\":4684:4699   */\n  mstore\n    /* \"#utility.yul\":4718:4722   */\n  0x24\n    /* \"#utility.yul\":4715:4716   */\n  0x00\n    /* \"#utility.yul\":4708:4723   */\n  revert\n    /* \"#utility.yul\":4735:4968   */\ntag_35:\n    /* \"#utility.yul\":4774:4777   */\n  0x00\n    /* \"#utility.yul\":4797:4821   */\n  tag_114\n    /* \"#utility.yul\":4815:4820   */\n  dup3\n    /* \"#utility.yul\":4797:4821   */\n  tag_55\n  jump\t// in\ntag_114:\n    /* \"#utility.yul\":4788:4821   */\n  swap2\n  pop\n    /* \"#utility.yul\":4843:4909   */\n  0xffffffffffffffffffffffffffffffffffffffffffffffffffffffffffffffff\n    /* \"#utility.yul\":4836:4841   */\n  dup3\n    /* \"#utility.yul\":4833:4910   */\n  sub\n    /* \"#utility.yul\":4830:4933   */\n  tag_115\n  jumpi\n    /* \"#utility.yul\":4913:4931   */\n  tag_116\n  tag_58\n  jump\t// in\ntag_116:\n    /* \"#utility.yul\":4830:4933   */\ntag_115:\n    /* \"#utility.yul\":4960:4961   */\n  0x01\n    /* \"#utility.yul\":4953:4958   */\n  dup3\n    /* \"#utility.yul\":4949:4962   */\n  add\n    /* \"#utility.yul\":4942:4962   */\n  swap1\n  pop\n    /* \"#utility.yul\":4735:4968   */\n  swap2\n  swap1\n  pop\n  jump\t// out\n    /* \"BLOCKCHAIN_GitHub/SOLIDITY/Projects/ETH_DENVER_BOOTCAMP/Homework_12/Exercises/Gas/contracts/GasOptimized.sol\":94:6882  contract GasContractOptimized is Ownable {... */\ntag_36:\n  dataSize(sub_0)\n  dup1\n  dataOffset(sub_0)\n  0x00\n  codecopy\n  0x00\n  return\nstop\n\nsub_0: assembly {\n        /* \"BLOCKCHAIN_GitHub/SOLIDITY/Projects/ETH_DENVER_BOOTCAMP/Homework_12/Exercises/Gas/contracts/GasOptimized.sol\":94:6882  contract GasContractOptimized is Ownable {... */\n      mstore(0x40, 0x80)\n      callvalue\n      dup1\n      iszero\n      tag_1\n      jumpi\n      0x00\n      dup1\n      revert\n    tag_1:\n      pop\n      jumpi(tag_2, lt(calldatasize, 0x04))\n      shr(0xe0, calldataload(0x00))\n      dup1\n      0x76840b60\n      gt\n      tag_24\n      jumpi\n      dup1\n      0xa5e047b8\n      gt\n      tag_25\n      jumpi\n      dup1\n      0xa5e047b8\n      eq\n      tag_18\n      jumpi\n      dup1\n      0xb52d15e2\n      eq\n      tag_19\n      jumpi\n      dup1\n      0xc43982cc\n      eq\n      tag_20\n      jumpi\n      dup1\n      0xce606ee0\n      eq\n      tag_21\n      jumpi\n      dup1\n      0xd89d1510\n      eq\n      tag_22\n      jumpi\n      dup1\n      0xf2fde38b\n      eq\n      tag_23\n      jumpi\n      jump(tag_2)\n    tag_25:\n      dup1\n      0x76840b60\n      eq\n      tag_13\n      jumpi\n      dup1\n      0x8da5cb5b\n      eq\n      tag_14\n      jumpi\n      dup1\n      0x8efcf5c0\n      eq\n      tag_15\n      jumpi\n      dup1\n      0x9a9f8383\n      eq\n      tag_16\n      jumpi\n      dup1\n      0x9b19251a\n      eq\n      tag_17\n      jumpi\n      jump(tag_2)\n    tag_24:\n      dup1\n      0x56b8c724\n      gt\n      tag_26\n      jumpi\n      dup1\n      0x56b8c724\n      eq\n      tag_8\n      jumpi\n      dup1\n      0x5de45813\n      eq\n      tag_9\n      jumpi\n      dup1\n      0x70a08231\n      eq\n      tag_10\n      jumpi\n      dup1\n      0x715018a6\n      eq\n      tag_11\n      jumpi\n      dup1\n      0x745b07c8\n      eq\n      tag_12\n      jumpi\n      jump(tag_2)\n    tag_26:\n      dup1\n      0x18160ddd\n      eq\n      tag_3\n      jumpi\n      dup1\n      0x1d6a1711\n      eq\n      tag_4\n      jumpi\n      dup1\n      0x214405fc\n      eq\n      tag_5\n      jumpi\n      dup1\n      0x27df565a\n      eq\n      tag_6\n      jumpi\n      dup1\n      0x4e86eb16\n      eq\n      tag_7\n      jumpi\n    tag_2:\n      0x00\n      dup1\n      revert\n        /* \"BLOCKCHAIN_GitHub/SOLIDITY/Projects/ETH_DENVER_BOOTCAMP/Homework_12/Exercises/Gas/contracts/GasOptimized.sol\":215:245  uint256 public totalSupply = 0 */\n    tag_3:\n      tag_27\n      tag_28\n      jump\t// in\n    tag_27:\n      mload(0x40)\n      tag_29\n      swap2\n      swap1\n      tag_30\n      jump\t// in\n    tag_29:\n      mload(0x40)\n      dup1\n      swap2\n      sub\n      swap1\n      return\n        /* \"BLOCKCHAIN_GitHub/SOLIDITY/Projects/ETH_DENVER_BOOTCAMP/Homework_12/Exercises/Gas/contracts/GasOptimized.sol\":4138:4342  function getPayments(address _user) public view returns (Payment[] memory payments_)... */\n    tag_4:\n      tag_31\n      0x04\n      dup1\n      calldatasize\n      sub\n      dup2\n      add\n      swap1\n      tag_32\n      swap2\n      swap1\n      tag_33\n      jump\t// in\n    tag_32:\n      tag_34\n      jump\t// in\n    tag_31:\n      mload(0x40)\n      tag_35\n      swap2\n      swap1\n      tag_36\n      jump\t// in\n    tag_35:\n      mload(0x40)\n      dup1\n      swap2\n      sub\n      swap1\n      return\n        /* \"BLOCKCHAIN_GitHub/SOLIDITY/Projects/ETH_DENVER_BOOTCAMP/Homework_12/Exercises/Gas/contracts/GasOptimized.sol\":5900:6150  function addToWhitelist(address _userAddrs, uint256 _tier) public onlyOwner {... */\n    tag_5:\n      tag_37\n      0x04\n      dup1\n      calldatasize\n      sub\n      dup2\n      add\n      swap1\n      tag_38\n      swap2\n      swap1\n      tag_39\n      jump\t// in\n    tag_38:\n      tag_40\n      jump\t// in\n    tag_37:\n      stop\n        /* \"BLOCKCHAIN_GitHub/SOLIDITY/Projects/ETH_DENVER_BOOTCAMP/Homework_12/Exercises/Gas/contracts/GasOptimized.sol\":6158:6873  function whiteTransfer(address _recipient, uint256 _amount, ImportantStruct memory _struct) public checkIfWhiteListed(msg.sender) {... */\n    tag_6:\n      tag_41\n      0x04\n      dup1\n      calldatasize\n      sub\n      dup2\n      add\n      swap1\n      tag_42\n      swap2\n      swap1\n      tag_43\n      jump\t// in\n    tag_42:\n      tag_44\n      jump\t// in\n    tag_41:\n      stop\n        /* \"BLOCKCHAIN_GitHub/SOLIDITY/Projects/ETH_DENVER_BOOTCAMP/Homework_12/Exercises/Gas/contracts/GasOptimized.sol\":5076:5892  function updatePayment(address _user, uint256 _ID, uint256 _amount, PaymentType _type) public onlyOwner {... */\n    tag_7:\n      tag_45\n      0x04\n      dup1\n      calldatasize\n      sub\n      dup2\n      add\n      swap1\n      tag_46\n      swap2\n      swap1\n      tag_47\n      jump\t// in\n    tag_46:\n      tag_48\n      jump\t// in\n    tag_45:\n      stop\n        /* \"BLOCKCHAIN_GitHub/SOLIDITY/Projects/ETH_DENVER_BOOTCAMP/Homework_12/Exercises/Gas/contracts/GasOptimized.sol\":4350:5068  function transfer(address _recipient, uint256 _amount, string calldata _name) public {... */\n    tag_8:\n      tag_49\n      0x04\n      dup1\n      calldatasize\n      sub\n      dup2\n      add\n      swap1\n      tag_50\n      swap2\n      swap1\n      tag_51\n      jump\t// in\n    tag_50:\n      tag_52\n      jump\t// in\n    tag_49:\n      stop\n        /* \"BLOCKCHAIN_GitHub/SOLIDITY/Projects/ETH_DENVER_BOOTCAMP/Homework_12/Exercises/Gas/contracts/GasOptimized.sol\":713:771  mapping(address => ImportantStruct) public whiteListStruct */\n    tag_9:\n      tag_53\n      0x04\n      dup1\n      calldatasize\n      sub\n      dup2\n      add\n      swap1\n      tag_54\n      swap2\n      swap1\n      tag_33\n      jump\t// in\n    tag_54:\n      tag_55\n      jump\t// in\n    tag_53:\n      mload(0x40)\n      tag_56\n      swap4\n      swap3\n      swap2\n      swap1\n      tag_57\n      jump\t// in\n    tag_56:\n      mload(0x40)\n      dup1\n      swap2\n      sub\n      swap1\n      return\n        /* \"BLOCKCHAIN_GitHub/SOLIDITY/Projects/ETH_DENVER_BOOTCAMP/Homework_12/Exercises/Gas/contracts/GasOptimized.sol\":3400:3541  function balanceOf(address _user) public view returns (uint256 balance) {... */\n    tag_10:\n      tag_58\n      0x04\n      dup1\n      calldatasize\n      sub\n      dup2\n      add\n      swap1\n      tag_59\n      swap2\n      swap1\n      tag_33\n      jump\t// in\n    tag_59:\n      tag_60\n      jump\t// in\n    tag_58:\n      mload(0x40)\n      tag_61\n      swap2\n      swap1\n      tag_30\n      jump\t// in\n    tag_61:\n      mload(0x40)\n      dup1\n      swap2\n      sub\n      swap1\n      return\n        /* \"BLOCKCHAIN_GitHub/SOLIDITY/Projects/ETH_DENVER_BOOTCAMP/Homework_12/Exercises/Gas/contracts/Ownable.sol\":2485:2586  function renounceOwnership() public virtual onlyOwner {... */\n    tag_11:\n      tag_62\n      tag_63\n      jump\t// in\n    tag_62:\n      stop\n        /* \"BLOCKCHAIN_GitHub/SOLIDITY/Projects/ETH_DENVER_BOOTCAMP/Homework_12/Exercises/Gas/contracts/GasOptimized.sol\":177:208  uint256 public dividendFlag = 1 */\n    tag_12:\n      tag_64\n      tag_65\n      jump\t// in\n    tag_64:\n      mload(0x40)\n      tag_66\n      swap2\n      swap1\n      tag_30\n      jump\t// in\n    tag_66:\n      mload(0x40)\n      dup1\n      swap2\n      sub\n      swap1\n      return\n        /* \"BLOCKCHAIN_GitHub/SOLIDITY/Projects/ETH_DENVER_BOOTCAMP/Homework_12/Exercises/Gas/contracts/GasOptimized.sol\":293:326  uint256 public paymentCounter = 0 */\n    tag_13:\n      tag_67\n      tag_68\n      jump\t// in\n    tag_67:\n      mload(0x40)\n      tag_69\n      swap2\n      swap1\n      tag_30\n      jump\t// in\n    tag_69:\n      mload(0x40)\n      dup1\n      swap2\n      sub\n      swap1\n      return\n        /* \"BLOCKCHAIN_GitHub/SOLIDITY/Projects/ETH_DENVER_BOOTCAMP/Homework_12/Exercises/Gas/contracts/Ownable.sol\":1855:1940  function owner() public view virtual returns (address) {... */\n    tag_14:\n      tag_70\n      tag_71\n      jump\t// in\n    tag_70:\n      mload(0x40)\n      tag_72\n      swap2\n      swap1\n      tag_73\n      jump\t// in\n    tag_72:\n      mload(0x40)\n      dup1\n      swap2\n      sub\n      swap1\n      return\n        /* \"BLOCKCHAIN_GitHub/SOLIDITY/Projects/ETH_DENVER_BOOTCAMP/Homework_12/Exercises/Gas/contracts/GasOptimized.sol\":3808:4130  function addHistory(address _updateAddress, bool _tradeMode) public {... */\n    tag_15:\n      tag_74\n      0x04\n      dup1\n      calldatasize\n      sub\n      dup2\n      add\n      swap1\n      tag_75\n      swap2\n      swap1\n      tag_76\n      jump\t// in\n    tag_75:\n      tag_77\n      jump\t// in\n    tag_74:\n      stop\n        /* \"BLOCKCHAIN_GitHub/SOLIDITY/Projects/ETH_DENVER_BOOTCAMP/Homework_12/Exercises/Gas/contracts/GasOptimized.sol\":3549:3800  function getTradingMode() public view returns (bool _mode) {... */\n    tag_16:\n      tag_78\n      tag_79\n      jump\t// in\n    tag_78:\n      mload(0x40)\n      tag_80\n      swap2\n      swap1\n      tag_81\n      jump\t// in\n    tag_80:\n      mload(0x40)\n      dup1\n      swap2\n      sub\n      swap1\n      return\n        /* \"BLOCKCHAIN_GitHub/SOLIDITY/Projects/ETH_DENVER_BOOTCAMP/Homework_12/Exercises/Gas/contracts/GasOptimized.sol\":450:494  mapping(address => uint256) public whitelist */\n    tag_17:\n      tag_82\n      0x04\n      dup1\n      calldatasize\n      sub\n      dup2\n      add\n      swap1\n      tag_83\n      swap2\n      swap1\n      tag_33\n      jump\t// in\n    tag_83:\n      tag_84\n      jump\t// in\n    tag_82:\n      mload(0x40)\n      tag_85\n      swap2\n      swap1\n      tag_30\n      jump\t// in\n    tag_85:\n      mload(0x40)\n      dup1\n      swap2\n      sub\n      swap1\n      return\n        /* \"BLOCKCHAIN_GitHub/SOLIDITY/Projects/ETH_DENVER_BOOTCAMP/Homework_12/Exercises/Gas/contracts/GasOptimized.sol\":1433:1464  History[] public paymentHistory */\n    tag_18:\n      tag_86\n      0x04\n      dup1\n      calldatasize\n      sub\n      dup2\n      add\n      swap1\n      tag_87\n      swap2\n      swap1\n      tag_88\n      jump\t// in\n    tag_87:\n      tag_89\n      jump\t// in\n    tag_86:\n      mload(0x40)\n      tag_90\n      swap5\n      swap4\n      swap3\n      swap2\n      swap1\n      tag_91\n      jump\t// in\n    tag_90:\n      mload(0x40)\n      dup1\n      swap2\n      sub\n      swap1\n      return\n        /* \"BLOCKCHAIN_GitHub/SOLIDITY/Projects/ETH_DENVER_BOOTCAMP/Homework_12/Exercises/Gas/contracts/GasOptimized.sol\":3065:3392  function checkForAdmin(address _user) public view returns (bool admin_) {... */\n    tag_19:\n      tag_92\n      0x04\n      dup1\n      calldatasize\n      sub\n      dup2\n      add\n      swap1\n      tag_93\n      swap2\n      swap1\n      tag_33\n      jump\t// in\n    tag_93:\n      tag_94\n      jump\t// in\n    tag_92:\n      mload(0x40)\n      tag_95\n      swap2\n      swap1\n      tag_81\n      jump\t// in\n    tag_95:\n      mload(0x40)\n      dup1\n      swap2\n      sub\n      swap1\n      return\n        /* \"BLOCKCHAIN_GitHub/SOLIDITY/Projects/ETH_DENVER_BOOTCAMP/Homework_12/Exercises/Gas/contracts/GasOptimized.sol\":142:170  uint256 public tradeFlag = 1 */\n    tag_20:\n      tag_96\n      tag_97\n      jump\t// in\n    tag_96:\n      mload(0x40)\n      tag_98\n      swap2\n      swap1\n      tag_30\n      jump\t// in\n    tag_98:\n      mload(0x40)\n      dup1\n      swap2\n      sub\n      swap1\n      return\n        /* \"BLOCKCHAIN_GitHub/SOLIDITY/Projects/ETH_DENVER_BOOTCAMP/Homework_12/Exercises/Gas/contracts/GasOptimized.sol\":333:361  address public contractOwner */\n    tag_21:\n      tag_99\n      tag_100\n      jump\t// in\n    tag_99:\n      mload(0x40)\n      tag_101\n      swap2\n      swap1\n      tag_73\n      jump\t// in\n    tag_101:\n      mload(0x40)\n      dup1\n      swap2\n      sub\n      swap1\n      return\n        /* \"BLOCKCHAIN_GitHub/SOLIDITY/Projects/ETH_DENVER_BOOTCAMP/Homework_12/Exercises/Gas/contracts/GasOptimized.sol\":368:400  address[5] public administrators */\n    tag_22:\n      tag_102\n      0x04\n      dup1\n      calldatasize\n      sub\n      dup2\n      add\n      swap1\n      tag_103\n      swap2\n      swap1\n      tag_88\n      jump\t// in\n    tag_103:\n      tag_104\n      jump\t// in\n    tag_102:\n      mload(0x40)\n      tag_105\n      swap2\n      swap1\n      tag_73\n      jump\t// in\n    tag_105:\n      mload(0x40)\n      dup1\n      swap2\n      sub\n      swap1\n      return\n        /* \"BLOCKCHAIN_GitHub/SOLIDITY/Projects/ETH_DENVER_BOOTCAMP/Homework_12/Exercises/Gas/contracts/Ownable.sol\":2735:2967  function transferOwnership(address newOwner) public virtual onlyOwner {... */\n    tag_23:\n      tag_106\n      0x04\n      dup1\n      calldatasize\n      sub\n      dup2\n      add\n      swap1\n      tag_107\n      swap2\n      swap1\n      tag_33\n      jump\t// in\n    tag_107:\n      tag_108\n      jump\t// in\n    tag_106:\n      stop\n        /* \"BLOCKCHAIN_GitHub/SOLIDITY/Projects/ETH_DENVER_BOOTCAMP/Homework_12/Exercises/Gas/contracts/GasOptimized.sol\":215:245  uint256 public totalSupply = 0 */\n    tag_28:\n      sload(0x03)\n      dup2\n      jump\t// out\n        /* \"BLOCKCHAIN_GitHub/SOLIDITY/Projects/ETH_DENVER_BOOTCAMP/Homework_12/Exercises/Gas/contracts/GasOptimized.sol\":4138:4342  function getPayments(address _user) public view returns (Payment[] memory payments_)... */\n    tag_34:\n        /* \"BLOCKCHAIN_GitHub/SOLIDITY/Projects/ETH_DENVER_BOOTCAMP/Homework_12/Exercises/Gas/contracts/GasOptimized.sol\":4195:4221  Payment[] memory payments_ */\n      0x60\n        /* \"BLOCKCHAIN_GitHub/SOLIDITY/Projects/ETH_DENVER_BOOTCAMP/Homework_12/Exercises/Gas/contracts/GasOptimized.sol\":4260:4261  0 */\n      0x00\n        /* \"BLOCKCHAIN_GitHub/SOLIDITY/Projects/ETH_DENVER_BOOTCAMP/Homework_12/Exercises/Gas/contracts/GasOptimized.sol\":4243:4262  _user == address(0) */\n      0xffffffffffffffffffffffffffffffffffffffff\n      and\n        /* \"BLOCKCHAIN_GitHub/SOLIDITY/Projects/ETH_DENVER_BOOTCAMP/Homework_12/Exercises/Gas/contracts/GasOptimized.sol\":4243:4248  _user */\n      dup3\n        /* \"BLOCKCHAIN_GitHub/SOLIDITY/Projects/ETH_DENVER_BOOTCAMP/Homework_12/Exercises/Gas/contracts/GasOptimized.sol\":4243:4262  _user == address(0) */\n      0xffffffffffffffffffffffffffffffffffffffff\n      and\n      sub\n        /* \"BLOCKCHAIN_GitHub/SOLIDITY/Projects/ETH_DENVER_BOOTCAMP/Homework_12/Exercises/Gas/contracts/GasOptimized.sol\":4239:4301  if (_user == address(0))... */\n      tag_110\n      jumpi\n        /* \"BLOCKCHAIN_GitHub/SOLIDITY/Projects/ETH_DENVER_BOOTCAMP/Homework_12/Exercises/Gas/contracts/GasOptimized.sol\":4284:4301  NotValidAddress() */\n      mload(0x40)\n      0x6e5ec59f00000000000000000000000000000000000000000000000000000000\n      dup2\n      mstore\n      0x04\n      add\n      mload(0x40)\n      dup1\n      swap2\n      sub\n      swap1\n      revert\n        /* \"BLOCKCHAIN_GitHub/SOLIDITY/Projects/ETH_DENVER_BOOTCAMP/Homework_12/Exercises/Gas/contracts/GasOptimized.sol\":4239:4301  if (_user == address(0))... */\n    tag_110:\n        /* \"BLOCKCHAIN_GitHub/SOLIDITY/Projects/ETH_DENVER_BOOTCAMP/Homework_12/Exercises/Gas/contracts/GasOptimized.sol\":4319:4327  payments */\n      0x0e\n        /* \"BLOCKCHAIN_GitHub/SOLIDITY/Projects/ETH_DENVER_BOOTCAMP/Homework_12/Exercises/Gas/contracts/GasOptimized.sol\":4319:4334  payments[_user] */\n      0x00\n        /* \"BLOCKCHAIN_GitHub/SOLIDITY/Projects/ETH_DENVER_BOOTCAMP/Homework_12/Exercises/Gas/contracts/GasOptimized.sol\":4328:4333  _user */\n      dup4\n        /* \"BLOCKCHAIN_GitHub/SOLIDITY/Projects/ETH_DENVER_BOOTCAMP/Homework_12/Exercises/Gas/contracts/GasOptimized.sol\":4319:4334  payments[_user] */\n      0xffffffffffffffffffffffffffffffffffffffff\n      and\n      0xffffffffffffffffffffffffffffffffffffffff\n      and\n      dup2\n      mstore\n      0x20\n      add\n      swap1\n      dup2\n      mstore\n      0x20\n      add\n      0x00\n      keccak256\n        /* \"BLOCKCHAIN_GitHub/SOLIDITY/Projects/ETH_DENVER_BOOTCAMP/Homework_12/Exercises/Gas/contracts/GasOptimized.sol\":4312:4334  return payments[_user] */\n      dup1\n      sload\n      dup1\n      0x20\n      mul\n      0x20\n      add\n      mload(0x40)\n      swap1\n      dup2\n      add\n      0x40\n      mstore\n      dup1\n      swap3\n      swap2\n      swap1\n      dup2\n      dup2\n      mstore\n      0x20\n      add\n      0x00\n      swap1\n    tag_111:\n      dup3\n      dup3\n      lt\n      iszero\n      tag_112\n      jumpi\n      dup4\n      dup3\n      swap1\n      0x00\n      mstore\n      keccak256(0x00, 0x20)\n      swap1\n      0x06\n      mul\n      add\n      mload(0x40)\n      dup1\n      0xe0\n      add\n      0x40\n      mstore\n      swap1\n      dup2\n      0x00\n      dup3\n      add\n      0x00\n      swap1\n      sload\n      swap1\n      0x0100\n      exp\n      swap1\n      div\n      0xff\n      and\n      0x04\n      dup2\n      gt\n      iszero\n      tag_114\n      jumpi\n      tag_115\n      tag_116\n      jump\t// in\n    tag_115:\n    tag_114:\n      0x04\n      dup2\n      gt\n      iszero\n      tag_117\n      jumpi\n      tag_118\n      tag_116\n      jump\t// in\n    tag_118:\n    tag_117:\n      dup2\n      mstore\n      0x20\n      add\n      0x01\n      dup3\n      add\n      sload\n      dup2\n      mstore\n      0x20\n      add\n      0x02\n      dup3\n      add\n      0x00\n      swap1\n      sload\n      swap1\n      0x0100\n      exp\n      swap1\n      div\n      0xffffffffffffffffffffffffffffffffffffffff\n      and\n      0xffffffffffffffffffffffffffffffffffffffff\n      and\n      0xffffffffffffffffffffffffffffffffffffffff\n      and\n      dup2\n      mstore\n      0x20\n      add\n      0x03\n      dup3\n      add\n      dup1\n      sload\n      tag_119\n      swap1\n      tag_120\n      jump\t// in\n    tag_119:\n      dup1\n      0x1f\n      add\n      0x20\n      dup1\n      swap2\n      div\n      mul\n      0x20\n      add\n      mload(0x40)\n      swap1\n      dup2\n      add\n      0x40\n      mstore\n      dup1\n      swap3\n      swap2\n      swap1\n      dup2\n      dup2\n      mstore\n      0x20\n      add\n      dup3\n      dup1\n      sload\n      tag_121\n      swap1\n      tag_120\n      jump\t// in\n    tag_121:\n      dup1\n      iszero\n      tag_122\n      jumpi\n      dup1\n      0x1f\n      lt\n      tag_123\n      jumpi\n      0x0100\n      dup1\n      dup4\n      sload\n      div\n      mul\n      dup4\n      mstore\n      swap2\n      0x20\n      add\n      swap2\n      jump(tag_122)\n    tag_123:\n      dup3\n      add\n      swap2\n      swap1\n      0x00\n      mstore\n      keccak256(0x00, 0x20)\n      swap1\n    tag_124:\n      dup2\n      sload\n      dup2\n      mstore\n      swap1\n      0x01\n      add\n      swap1\n      0x20\n      add\n      dup1\n      dup4\n      gt\n      tag_124\n      jumpi\n      dup3\n      swap1\n      sub\n      0x1f\n      and\n      dup3\n      add\n      swap2\n    tag_122:\n      pop\n      pop\n      pop\n      pop\n      pop\n      dup2\n      mstore\n      0x20\n      add\n      0x04\n      dup3\n      add\n      0x00\n      swap1\n      sload\n      swap1\n      0x0100\n      exp\n      swap1\n      div\n      0xff\n      and\n      iszero\n      iszero\n      iszero\n      iszero\n      dup2\n      mstore\n      0x20\n      add\n      0x04\n      dup3\n      add\n      0x01\n      swap1\n      sload\n      swap1\n      0x0100\n      exp\n      swap1\n      div\n      0xffffffffffffffffffffffffffffffffffffffff\n      and\n      0xffffffffffffffffffffffffffffffffffffffff\n      and\n      0xffffffffffffffffffffffffffffffffffffffff\n      and\n      dup2\n      mstore\n      0x20\n      add\n      0x05\n      dup3\n      add\n      sload\n      dup2\n      mstore\n      pop\n      pop\n      dup2\n      mstore\n      0x20\n      add\n      swap1\n      0x01\n      add\n      swap1\n      jump(tag_111)\n    tag_112:\n      pop\n      pop\n      pop\n      pop\n      swap1\n      pop\n        /* \"BLOCKCHAIN_GitHub/SOLIDITY/Projects/ETH_DENVER_BOOTCAMP/Homework_12/Exercises/Gas/contracts/GasOptimized.sol\":4138:4342  function getPayments(address _user) public view returns (Payment[] memory payments_)... */\n      swap2\n      swap1\n      pop\n      jump\t// out\n        /* \"BLOCKCHAIN_GitHub/SOLIDITY/Projects/ETH_DENVER_BOOTCAMP/Homework_12/Exercises/Gas/contracts/GasOptimized.sol\":5900:6150  function addToWhitelist(address _userAddrs, uint256 _tier) public onlyOwner {... */\n    tag_40:\n        /* \"BLOCKCHAIN_GitHub/SOLIDITY/Projects/ETH_DENVER_BOOTCAMP/Homework_12/Exercises/Gas/contracts/Ownable.sol\":1748:1761  _checkOwner() */\n      tag_126\n        /* \"BLOCKCHAIN_GitHub/SOLIDITY/Projects/ETH_DENVER_BOOTCAMP/Homework_12/Exercises/Gas/contracts/Ownable.sol\":1748:1759  _checkOwner */\n      tag_127\n        /* \"BLOCKCHAIN_GitHub/SOLIDITY/Projects/ETH_DENVER_BOOTCAMP/Homework_12/Exercises/Gas/contracts/Ownable.sol\":1748:1761  _checkOwner() */\n      jump\t// in\n    tag_126:\n        /* \"BLOCKCHAIN_GitHub/SOLIDITY/Projects/ETH_DENVER_BOOTCAMP/Homework_12/Exercises/Gas/contracts/GasOptimized.sol\":6000:6001  4 */\n      0x04\n        /* \"BLOCKCHAIN_GitHub/SOLIDITY/Projects/ETH_DENVER_BOOTCAMP/Homework_12/Exercises/Gas/contracts/GasOptimized.sol\":5991:5996  _tier */\n      dup2\n        /* \"BLOCKCHAIN_GitHub/SOLIDITY/Projects/ETH_DENVER_BOOTCAMP/Homework_12/Exercises/Gas/contracts/GasOptimized.sol\":5991:6001  _tier >= 4 */\n      lt\n      iszero\n        /* \"BLOCKCHAIN_GitHub/SOLIDITY/Projects/ETH_DENVER_BOOTCAMP/Homework_12/Exercises/Gas/contracts/GasOptimized.sol\":5991:6015  _tier >= 4 || _tier == 0 */\n      dup1\n      tag_129\n      jumpi\n      pop\n        /* \"BLOCKCHAIN_GitHub/SOLIDITY/Projects/ETH_DENVER_BOOTCAMP/Homework_12/Exercises/Gas/contracts/GasOptimized.sol\":6014:6015  0 */\n      0x00\n        /* \"BLOCKCHAIN_GitHub/SOLIDITY/Projects/ETH_DENVER_BOOTCAMP/Homework_12/Exercises/Gas/contracts/GasOptimized.sol\":6005:6010  _tier */\n      dup2\n        /* \"BLOCKCHAIN_GitHub/SOLIDITY/Projects/ETH_DENVER_BOOTCAMP/Homework_12/Exercises/Gas/contracts/GasOptimized.sol\":6005:6015  _tier == 0 */\n      eq\n        /* \"BLOCKCHAIN_GitHub/SOLIDITY/Projects/ETH_DENVER_BOOTCAMP/Homework_12/Exercises/Gas/contracts/GasOptimized.sol\":5991:6015  _tier >= 4 || _tier == 0 */\n    tag_129:\n        /* \"BLOCKCHAIN_GitHub/SOLIDITY/Projects/ETH_DENVER_BOOTCAMP/Homework_12/Exercises/Gas/contracts/GasOptimized.sol\":5987:6051  if (_tier >= 4 || _tier == 0)... */\n      iszero\n      tag_130\n      jumpi\n        /* \"BLOCKCHAIN_GitHub/SOLIDITY/Projects/ETH_DENVER_BOOTCAMP/Homework_12/Exercises/Gas/contracts/GasOptimized.sol\":6037:6051  NotValidTier() */\n      mload(0x40)\n      0x42c7745500000000000000000000000000000000000000000000000000000000\n      dup2\n      mstore\n      0x04\n      add\n      mload(0x40)\n      dup1\n      swap2\n      sub\n      swap1\n      revert\n        /* \"BLOCKCHAIN_GitHub/SOLIDITY/Projects/ETH_DENVER_BOOTCAMP/Homework_12/Exercises/Gas/contracts/GasOptimized.sol\":5987:6051  if (_tier >= 4 || _tier == 0)... */\n    tag_130:\n        /* \"BLOCKCHAIN_GitHub/SOLIDITY/Projects/ETH_DENVER_BOOTCAMP/Homework_12/Exercises/Gas/contracts/GasOptimized.sol\":6086:6091  _tier */\n      dup1\n        /* \"BLOCKCHAIN_GitHub/SOLIDITY/Projects/ETH_DENVER_BOOTCAMP/Homework_12/Exercises/Gas/contracts/GasOptimized.sol\":6062:6071  whitelist */\n      0x0c\n        /* \"BLOCKCHAIN_GitHub/SOLIDITY/Projects/ETH_DENVER_BOOTCAMP/Homework_12/Exercises/Gas/contracts/GasOptimized.sol\":6062:6083  whitelist[_userAddrs] */\n      0x00\n        /* \"BLOCKCHAIN_GitHub/SOLIDITY/Projects/ETH_DENVER_BOOTCAMP/Homework_12/Exercises/Gas/contracts/GasOptimized.sol\":6072:6082  _userAddrs */\n      dup5\n        /* \"BLOCKCHAIN_GitHub/SOLIDITY/Projects/ETH_DENVER_BOOTCAMP/Homework_12/Exercises/Gas/contracts/GasOptimized.sol\":6062:6083  whitelist[_userAddrs] */\n      0xffffffffffffffffffffffffffffffffffffffff\n      and\n      0xffffffffffffffffffffffffffffffffffffffff\n      and\n      dup2\n      mstore\n      0x20\n      add\n      swap1\n      dup2\n      mstore\n      0x20\n      add\n      0x00\n      keccak256\n        /* \"BLOCKCHAIN_GitHub/SOLIDITY/Projects/ETH_DENVER_BOOTCAMP/Homework_12/Exercises/Gas/contracts/GasOptimized.sol\":6062:6091  whitelist[_userAddrs] = _tier */\n      dup2\n      swap1\n      sstore\n      pop\n        /* \"BLOCKCHAIN_GitHub/SOLIDITY/Projects/ETH_DENVER_BOOTCAMP/Homework_12/Exercises/Gas/contracts/GasOptimized.sol\":6107:6142  AddedToWhitelist(_userAddrs, _tier) */\n      0x62c1e066774519db9fe35767c15fc33df2f016675b7cc0c330ed185f286a2d52\n        /* \"BLOCKCHAIN_GitHub/SOLIDITY/Projects/ETH_DENVER_BOOTCAMP/Homework_12/Exercises/Gas/contracts/GasOptimized.sol\":6124:6134  _userAddrs */\n      dup3\n        /* \"BLOCKCHAIN_GitHub/SOLIDITY/Projects/ETH_DENVER_BOOTCAMP/Homework_12/Exercises/Gas/contracts/GasOptimized.sol\":6136:6141  _tier */\n      dup3\n        /* \"BLOCKCHAIN_GitHub/SOLIDITY/Projects/ETH_DENVER_BOOTCAMP/Homework_12/Exercises/Gas/contracts/GasOptimized.sol\":6107:6142  AddedToWhitelist(_userAddrs, _tier) */\n      mload(0x40)\n      tag_131\n      swap3\n      swap2\n      swap1\n      tag_132\n      jump\t// in\n    tag_131:\n      mload(0x40)\n      dup1\n      swap2\n      sub\n      swap1\n      log1\n        /* \"BLOCKCHAIN_GitHub/SOLIDITY/Projects/ETH_DENVER_BOOTCAMP/Homework_12/Exercises/Gas/contracts/GasOptimized.sol\":5900:6150  function addToWhitelist(address _userAddrs, uint256 _tier) public onlyOwner {... */\n      pop\n      pop\n      jump\t// out\n        /* \"BLOCKCHAIN_GitHub/SOLIDITY/Projects/ETH_DENVER_BOOTCAMP/Homework_12/Exercises/Gas/contracts/GasOptimized.sol\":6158:6873  function whiteTransfer(address _recipient, uint256 _amount, ImportantStruct memory _struct) public checkIfWhiteListed(msg.sender) {... */\n    tag_44:\n        /* \"BLOCKCHAIN_GitHub/SOLIDITY/Projects/ETH_DENVER_BOOTCAMP/Homework_12/Exercises/Gas/contracts/GasOptimized.sol\":6276:6286  msg.sender */\n      caller\n        /* \"BLOCKCHAIN_GitHub/SOLIDITY/Projects/ETH_DENVER_BOOTCAMP/Homework_12/Exercises/Gas/contracts/GasOptimized.sol\":2139:2149  msg.sender */\n      caller\n        /* \"BLOCKCHAIN_GitHub/SOLIDITY/Projects/ETH_DENVER_BOOTCAMP/Homework_12/Exercises/Gas/contracts/GasOptimized.sol\":2129:2149  sender != msg.sender */\n      0xffffffffffffffffffffffffffffffffffffffff\n      and\n        /* \"BLOCKCHAIN_GitHub/SOLIDITY/Projects/ETH_DENVER_BOOTCAMP/Homework_12/Exercises/Gas/contracts/GasOptimized.sol\":2129:2135  sender */\n      dup2\n        /* \"BLOCKCHAIN_GitHub/SOLIDITY/Projects/ETH_DENVER_BOOTCAMP/Homework_12/Exercises/Gas/contracts/GasOptimized.sol\":2129:2149  sender != msg.sender */\n      0xffffffffffffffffffffffffffffffffffffffff\n      and\n      eq\n        /* \"BLOCKCHAIN_GitHub/SOLIDITY/Projects/ETH_DENVER_BOOTCAMP/Homework_12/Exercises/Gas/contracts/GasOptimized.sol\":2125:2182  if (sender != msg.sender)... */\n      tag_134\n      jumpi\n        /* \"BLOCKCHAIN_GitHub/SOLIDITY/Projects/ETH_DENVER_BOOTCAMP/Homework_12/Exercises/Gas/contracts/GasOptimized.sol\":2171:2182  NotSender() */\n      mload(0x40)\n      0xb2c3aa6b00000000000000000000000000000000000000000000000000000000\n      dup2\n      mstore\n      0x04\n      add\n      mload(0x40)\n      dup1\n      swap2\n      sub\n      swap1\n      revert\n        /* \"BLOCKCHAIN_GitHub/SOLIDITY/Projects/ETH_DENVER_BOOTCAMP/Homework_12/Exercises/Gas/contracts/GasOptimized.sol\":2125:2182  if (sender != msg.sender)... */\n    tag_134:\n        /* \"BLOCKCHAIN_GitHub/SOLIDITY/Projects/ETH_DENVER_BOOTCAMP/Homework_12/Exercises/Gas/contracts/GasOptimized.sol\":2193:2210  uint256 usersTier */\n      0x00\n        /* \"BLOCKCHAIN_GitHub/SOLIDITY/Projects/ETH_DENVER_BOOTCAMP/Homework_12/Exercises/Gas/contracts/GasOptimized.sol\":2213:2222  whitelist */\n      0x0c\n        /* \"BLOCKCHAIN_GitHub/SOLIDITY/Projects/ETH_DENVER_BOOTCAMP/Homework_12/Exercises/Gas/contracts/GasOptimized.sol\":2213:2234  whitelist[msg.sender] */\n      0x00\n        /* \"BLOCKCHAIN_GitHub/SOLIDITY/Projects/ETH_DENVER_BOOTCAMP/Homework_12/Exercises/Gas/contracts/GasOptimized.sol\":2223:2233  msg.sender */\n      caller\n        /* \"BLOCKCHAIN_GitHub/SOLIDITY/Projects/ETH_DENVER_BOOTCAMP/Homework_12/Exercises/Gas/contracts/GasOptimized.sol\":2213:2234  whitelist[msg.sender] */\n      0xffffffffffffffffffffffffffffffffffffffff\n      and\n      0xffffffffffffffffffffffffffffffffffffffff\n      and\n      dup2\n      mstore\n      0x20\n      add\n      swap1\n      dup2\n      mstore\n      0x20\n      add\n      0x00\n      keccak256\n      sload\n        /* \"BLOCKCHAIN_GitHub/SOLIDITY/Projects/ETH_DENVER_BOOTCAMP/Homework_12/Exercises/Gas/contracts/GasOptimized.sol\":2193:2234  uint256 usersTier = whitelist[msg.sender] */\n      swap1\n      pop\n        /* \"BLOCKCHAIN_GitHub/SOLIDITY/Projects/ETH_DENVER_BOOTCAMP/Homework_12/Exercises/Gas/contracts/GasOptimized.sol\":2262:2263  0 */\n      0x00\n        /* \"BLOCKCHAIN_GitHub/SOLIDITY/Projects/ETH_DENVER_BOOTCAMP/Homework_12/Exercises/Gas/contracts/GasOptimized.sol\":2249:2258  usersTier */\n      dup2\n        /* \"BLOCKCHAIN_GitHub/SOLIDITY/Projects/ETH_DENVER_BOOTCAMP/Homework_12/Exercises/Gas/contracts/GasOptimized.sol\":2249:2263  usersTier == 0 */\n      sub\n        /* \"BLOCKCHAIN_GitHub/SOLIDITY/Projects/ETH_DENVER_BOOTCAMP/Homework_12/Exercises/Gas/contracts/GasOptimized.sol\":2245:2301  if (usersTier == 0)... */\n      tag_135\n      jumpi\n        /* \"BLOCKCHAIN_GitHub/SOLIDITY/Projects/ETH_DENVER_BOOTCAMP/Homework_12/Exercises/Gas/contracts/GasOptimized.sol\":2285:2301  NotWhitelisted() */\n      mload(0x40)\n      0x584a793800000000000000000000000000000000000000000000000000000000\n      dup2\n      mstore\n      0x04\n      add\n      mload(0x40)\n      dup1\n      swap2\n      sub\n      swap1\n      revert\n        /* \"BLOCKCHAIN_GitHub/SOLIDITY/Projects/ETH_DENVER_BOOTCAMP/Homework_12/Exercises/Gas/contracts/GasOptimized.sol\":2245:2301  if (usersTier == 0)... */\n    tag_135:\n        /* \"BLOCKCHAIN_GitHub/SOLIDITY/Projects/ETH_DENVER_BOOTCAMP/Homework_12/Exercises/Gas/contracts/GasOptimized.sol\":2329:2330  4 */\n      0x04\n        /* \"BLOCKCHAIN_GitHub/SOLIDITY/Projects/ETH_DENVER_BOOTCAMP/Homework_12/Exercises/Gas/contracts/GasOptimized.sol\":2316:2325  usersTier */\n      dup2\n        /* \"BLOCKCHAIN_GitHub/SOLIDITY/Projects/ETH_DENVER_BOOTCAMP/Homework_12/Exercises/Gas/contracts/GasOptimized.sol\":2316:2330  usersTier >= 4 */\n      lt\n        /* \"BLOCKCHAIN_GitHub/SOLIDITY/Projects/ETH_DENVER_BOOTCAMP/Homework_12/Exercises/Gas/contracts/GasOptimized.sol\":2312:2366  if (usersTier >= 4)... */\n      tag_136\n      jumpi\n        /* \"BLOCKCHAIN_GitHub/SOLIDITY/Projects/ETH_DENVER_BOOTCAMP/Homework_12/Exercises/Gas/contracts/GasOptimized.sol\":2352:2366  NotValidTier() */\n      mload(0x40)\n      0x42c7745500000000000000000000000000000000000000000000000000000000\n      dup2\n      mstore\n      0x04\n      add\n      mload(0x40)\n      dup1\n      swap2\n      sub\n      swap1\n      revert\n        /* \"BLOCKCHAIN_GitHub/SOLIDITY/Projects/ETH_DENVER_BOOTCAMP/Homework_12/Exercises/Gas/contracts/GasOptimized.sol\":2312:2366  if (usersTier >= 4)... */\n    tag_136:\n        /* \"BLOCKCHAIN_GitHub/SOLIDITY/Projects/ETH_DENVER_BOOTCAMP/Homework_12/Exercises/Gas/contracts/GasOptimized.sol\":6326:6333  _amount */\n      dup4\n        /* \"BLOCKCHAIN_GitHub/SOLIDITY/Projects/ETH_DENVER_BOOTCAMP/Homework_12/Exercises/Gas/contracts/GasOptimized.sol\":6303:6311  balances */\n      0x0b\n        /* \"BLOCKCHAIN_GitHub/SOLIDITY/Projects/ETH_DENVER_BOOTCAMP/Homework_12/Exercises/Gas/contracts/GasOptimized.sol\":6303:6323  balances[msg.sender] */\n      0x00\n        /* \"BLOCKCHAIN_GitHub/SOLIDITY/Projects/ETH_DENVER_BOOTCAMP/Homework_12/Exercises/Gas/contracts/GasOptimized.sol\":6312:6322  msg.sender */\n      caller\n        /* \"BLOCKCHAIN_GitHub/SOLIDITY/Projects/ETH_DENVER_BOOTCAMP/Homework_12/Exercises/Gas/contracts/GasOptimized.sol\":6303:6323  balances[msg.sender] */\n      0xffffffffffffffffffffffffffffffffffffffff\n      and\n      0xffffffffffffffffffffffffffffffffffffffff\n      and\n      dup2\n      mstore\n      0x20\n      add\n      swap1\n      dup2\n      mstore\n      0x20\n      add\n      0x00\n      keccak256\n      sload\n        /* \"BLOCKCHAIN_GitHub/SOLIDITY/Projects/ETH_DENVER_BOOTCAMP/Homework_12/Exercises/Gas/contracts/GasOptimized.sol\":6303:6333  balances[msg.sender] < _amount */\n      lt\n        /* \"BLOCKCHAIN_GitHub/SOLIDITY/Projects/ETH_DENVER_BOOTCAMP/Homework_12/Exercises/Gas/contracts/GasOptimized.sol\":6299:6399  if (balances[msg.sender] < _amount)... */\n      iszero\n      tag_138\n      jumpi\n        /* \"BLOCKCHAIN_GitHub/SOLIDITY/Projects/ETH_DENVER_BOOTCAMP/Homework_12/Exercises/Gas/contracts/GasOptimized.sol\":6370:6377  _amount */\n      dup4\n        /* \"BLOCKCHAIN_GitHub/SOLIDITY/Projects/ETH_DENVER_BOOTCAMP/Homework_12/Exercises/Gas/contracts/GasOptimized.sol\":6378:6386  balances */\n      0x0b\n        /* \"BLOCKCHAIN_GitHub/SOLIDITY/Projects/ETH_DENVER_BOOTCAMP/Homework_12/Exercises/Gas/contracts/GasOptimized.sol\":6378:6398  balances[msg.sender] */\n      0x00\n        /* \"BLOCKCHAIN_GitHub/SOLIDITY/Projects/ETH_DENVER_BOOTCAMP/Homework_12/Exercises/Gas/contracts/GasOptimized.sol\":6387:6397  msg.sender */\n      caller\n        /* \"BLOCKCHAIN_GitHub/SOLIDITY/Projects/ETH_DENVER_BOOTCAMP/Homework_12/Exercises/Gas/contracts/GasOptimized.sol\":6378:6398  balances[msg.sender] */\n      0xffffffffffffffffffffffffffffffffffffffff\n      and\n      0xffffffffffffffffffffffffffffffffffffffff\n      and\n      dup2\n      mstore\n      0x20\n      add\n      swap1\n      dup2\n      mstore\n      0x20\n      add\n      0x00\n      keccak256\n      sload\n        /* \"BLOCKCHAIN_GitHub/SOLIDITY/Projects/ETH_DENVER_BOOTCAMP/Homework_12/Exercises/Gas/contracts/GasOptimized.sol\":6355:6399  NotEnoughFunds(_amount,balances[msg.sender]) */\n      mload(0x40)\n      0x8c90536800000000000000000000000000000000000000000000000000000000\n      dup2\n      mstore\n      0x04\n      add\n      tag_139\n      swap3\n      swap2\n      swap1\n      tag_140\n      jump\t// in\n    tag_139:\n      mload(0x40)\n      dup1\n      swap2\n      sub\n      swap1\n      revert\n        /* \"BLOCKCHAIN_GitHub/SOLIDITY/Projects/ETH_DENVER_BOOTCAMP/Homework_12/Exercises/Gas/contracts/GasOptimized.sol\":6299:6399  if (balances[msg.sender] < _amount)... */\n    tag_138:\n        /* \"BLOCKCHAIN_GitHub/SOLIDITY/Projects/ETH_DENVER_BOOTCAMP/Homework_12/Exercises/Gas/contracts/GasOptimized.sol\":6466:6475  whitelist */\n      0x0c\n        /* \"BLOCKCHAIN_GitHub/SOLIDITY/Projects/ETH_DENVER_BOOTCAMP/Homework_12/Exercises/Gas/contracts/GasOptimized.sol\":6466:6487  whitelist[msg.sender] */\n      0x00\n        /* \"BLOCKCHAIN_GitHub/SOLIDITY/Projects/ETH_DENVER_BOOTCAMP/Homework_12/Exercises/Gas/contracts/GasOptimized.sol\":6476:6486  msg.sender */\n      caller\n        /* \"BLOCKCHAIN_GitHub/SOLIDITY/Projects/ETH_DENVER_BOOTCAMP/Homework_12/Exercises/Gas/contracts/GasOptimized.sol\":6466:6487  whitelist[msg.sender] */\n      0xffffffffffffffffffffffffffffffffffffffff\n      and\n      0xffffffffffffffffffffffffffffffffffffffff\n      and\n      dup2\n      mstore\n      0x20\n      add\n      swap1\n      dup2\n      mstore\n      0x20\n      add\n      0x00\n      keccak256\n      sload\n        /* \"BLOCKCHAIN_GitHub/SOLIDITY/Projects/ETH_DENVER_BOOTCAMP/Homework_12/Exercises/Gas/contracts/GasOptimized.sol\":6456:6463  _amount */\n      dup5\n        /* \"BLOCKCHAIN_GitHub/SOLIDITY/Projects/ETH_DENVER_BOOTCAMP/Homework_12/Exercises/Gas/contracts/GasOptimized.sol\":6433:6441  balances */\n      0x0b\n        /* \"BLOCKCHAIN_GitHub/SOLIDITY/Projects/ETH_DENVER_BOOTCAMP/Homework_12/Exercises/Gas/contracts/GasOptimized.sol\":6433:6453  balances[msg.sender] */\n      0x00\n        /* \"BLOCKCHAIN_GitHub/SOLIDITY/Projects/ETH_DENVER_BOOTCAMP/Homework_12/Exercises/Gas/contracts/GasOptimized.sol\":6442:6452  msg.sender */\n      caller\n        /* \"BLOCKCHAIN_GitHub/SOLIDITY/Projects/ETH_DENVER_BOOTCAMP/Homework_12/Exercises/Gas/contracts/GasOptimized.sol\":6433:6453  balances[msg.sender] */\n      0xffffffffffffffffffffffffffffffffffffffff\n      and\n      0xffffffffffffffffffffffffffffffffffffffff\n      and\n      dup2\n      mstore\n      0x20\n      add\n      swap1\n      dup2\n      mstore\n      0x20\n      add\n      0x00\n      keccak256\n      sload\n        /* \"BLOCKCHAIN_GitHub/SOLIDITY/Projects/ETH_DENVER_BOOTCAMP/Homework_12/Exercises/Gas/contracts/GasOptimized.sol\":6433:6463  balances[msg.sender] - _amount */\n      tag_141\n      swap2\n      swap1\n      tag_142\n      jump\t// in\n    tag_141:\n        /* \"BLOCKCHAIN_GitHub/SOLIDITY/Projects/ETH_DENVER_BOOTCAMP/Homework_12/Exercises/Gas/contracts/GasOptimized.sol\":6433:6487  balances[msg.sender] - _amount + whitelist[msg.sender] */\n      tag_143\n      swap2\n      swap1\n      tag_144\n      jump\t// in\n    tag_143:\n        /* \"BLOCKCHAIN_GitHub/SOLIDITY/Projects/ETH_DENVER_BOOTCAMP/Homework_12/Exercises/Gas/contracts/GasOptimized.sol\":6410:6418  balances */\n      0x0b\n        /* \"BLOCKCHAIN_GitHub/SOLIDITY/Projects/ETH_DENVER_BOOTCAMP/Homework_12/Exercises/Gas/contracts/GasOptimized.sol\":6410:6430  balances[msg.sender] */\n      0x00\n        /* \"BLOCKCHAIN_GitHub/SOLIDITY/Projects/ETH_DENVER_BOOTCAMP/Homework_12/Exercises/Gas/contracts/GasOptimized.sol\":6419:6429  msg.sender */\n      caller\n        /* \"BLOCKCHAIN_GitHub/SOLIDITY/Projects/ETH_DENVER_BOOTCAMP/Homework_12/Exercises/Gas/contracts/GasOptimized.sol\":6410:6430  balances[msg.sender] */\n      0xffffffffffffffffffffffffffffffffffffffff\n      and\n      0xffffffffffffffffffffffffffffffffffffffff\n      and\n      dup2\n      mstore\n      0x20\n      add\n      swap1\n      dup2\n      mstore\n      0x20\n      add\n      0x00\n      keccak256\n        /* \"BLOCKCHAIN_GitHub/SOLIDITY/Projects/ETH_DENVER_BOOTCAMP/Homework_12/Exercises/Gas/contracts/GasOptimized.sol\":6410:6487  balances[msg.sender] = balances[msg.sender] - _amount + whitelist[msg.sender] */\n      dup2\n      swap1\n      sstore\n      pop\n        /* \"BLOCKCHAIN_GitHub/SOLIDITY/Projects/ETH_DENVER_BOOTCAMP/Homework_12/Exercises/Gas/contracts/GasOptimized.sol\":6554:6563  whitelist */\n      0x0c\n        /* \"BLOCKCHAIN_GitHub/SOLIDITY/Projects/ETH_DENVER_BOOTCAMP/Homework_12/Exercises/Gas/contracts/GasOptimized.sol\":6554:6575  whitelist[msg.sender] */\n      0x00\n        /* \"BLOCKCHAIN_GitHub/SOLIDITY/Projects/ETH_DENVER_BOOTCAMP/Homework_12/Exercises/Gas/contracts/GasOptimized.sol\":6564:6574  msg.sender */\n      caller\n        /* \"BLOCKCHAIN_GitHub/SOLIDITY/Projects/ETH_DENVER_BOOTCAMP/Homework_12/Exercises/Gas/contracts/GasOptimized.sol\":6554:6575  whitelist[msg.sender] */\n      0xffffffffffffffffffffffffffffffffffffffff\n      and\n      0xffffffffffffffffffffffffffffffffffffffff\n      and\n      dup2\n      mstore\n      0x20\n      add\n      swap1\n      dup2\n      mstore\n      0x20\n      add\n      0x00\n      keccak256\n      sload\n        /* \"BLOCKCHAIN_GitHub/SOLIDITY/Projects/ETH_DENVER_BOOTCAMP/Homework_12/Exercises/Gas/contracts/GasOptimized.sol\":6544:6551  _amount */\n      dup5\n        /* \"BLOCKCHAIN_GitHub/SOLIDITY/Projects/ETH_DENVER_BOOTCAMP/Homework_12/Exercises/Gas/contracts/GasOptimized.sol\":6521:6529  balances */\n      0x0b\n        /* \"BLOCKCHAIN_GitHub/SOLIDITY/Projects/ETH_DENVER_BOOTCAMP/Homework_12/Exercises/Gas/contracts/GasOptimized.sol\":6521:6541  balances[_recipient] */\n      0x00\n        /* \"BLOCKCHAIN_GitHub/SOLIDITY/Projects/ETH_DENVER_BOOTCAMP/Homework_12/Exercises/Gas/contracts/GasOptimized.sol\":6530:6540  _recipient */\n      dup9\n        /* \"BLOCKCHAIN_GitHub/SOLIDITY/Projects/ETH_DENVER_BOOTCAMP/Homework_12/Exercises/Gas/contracts/GasOptimized.sol\":6521:6541  balances[_recipient] */\n      0xffffffffffffffffffffffffffffffffffffffff\n      and\n      0xffffffffffffffffffffffffffffffffffffffff\n      and\n      dup2\n      mstore\n      0x20\n      add\n      swap1\n      dup2\n      mstore\n      0x20\n      add\n      0x00\n      keccak256\n      sload\n        /* \"BLOCKCHAIN_GitHub/SOLIDITY/Projects/ETH_DENVER_BOOTCAMP/Homework_12/Exercises/Gas/contracts/GasOptimized.sol\":6521:6551  balances[_recipient] + _amount */\n      tag_145\n      swap2\n      swap1\n      tag_144\n      jump\t// in\n    tag_145:\n        /* \"BLOCKCHAIN_GitHub/SOLIDITY/Projects/ETH_DENVER_BOOTCAMP/Homework_12/Exercises/Gas/contracts/GasOptimized.sol\":6521:6575  balances[_recipient] + _amount - whitelist[msg.sender] */\n      tag_146\n      swap2\n      swap1\n      tag_142\n      jump\t// in\n    tag_146:\n        /* \"BLOCKCHAIN_GitHub/SOLIDITY/Projects/ETH_DENVER_BOOTCAMP/Homework_12/Exercises/Gas/contracts/GasOptimized.sol\":6498:6506  balances */\n      0x0b\n        /* \"BLOCKCHAIN_GitHub/SOLIDITY/Projects/ETH_DENVER_BOOTCAMP/Homework_12/Exercises/Gas/contracts/GasOptimized.sol\":6498:6518  balances[_recipient] */\n      0x00\n        /* \"BLOCKCHAIN_GitHub/SOLIDITY/Projects/ETH_DENVER_BOOTCAMP/Homework_12/Exercises/Gas/contracts/GasOptimized.sol\":6507:6517  _recipient */\n      dup8\n        /* \"BLOCKCHAIN_GitHub/SOLIDITY/Projects/ETH_DENVER_BOOTCAMP/Homework_12/Exercises/Gas/contracts/GasOptimized.sol\":6498:6518  balances[_recipient] */\n      0xffffffffffffffffffffffffffffffffffffffff\n      and\n      0xffffffffffffffffffffffffffffffffffffffff\n      and\n      dup2\n      mstore\n      0x20\n      add\n      swap1\n      dup2\n      mstore\n      0x20\n      add\n      0x00\n      keccak256\n        /* \"BLOCKCHAIN_GitHub/SOLIDITY/Projects/ETH_DENVER_BOOTCAMP/Homework_12/Exercises/Gas/contracts/GasOptimized.sol\":6498:6575  balances[_recipient] = balances[_recipient] + _amount - whitelist[msg.sender] */\n      dup2\n      swap1\n      sstore\n      pop\n        /* \"BLOCKCHAIN_GitHub/SOLIDITY/Projects/ETH_DENVER_BOOTCAMP/Homework_12/Exercises/Gas/contracts/GasOptimized.sol\":6586:6627  ImportantStruct memory newImportantStruct */\n      0x00\n        /* \"BLOCKCHAIN_GitHub/SOLIDITY/Projects/ETH_DENVER_BOOTCAMP/Homework_12/Exercises/Gas/contracts/GasOptimized.sol\":6630:6645  whiteListStruct */\n      0x0d\n        /* \"BLOCKCHAIN_GitHub/SOLIDITY/Projects/ETH_DENVER_BOOTCAMP/Homework_12/Exercises/Gas/contracts/GasOptimized.sol\":6630:6657  whiteListStruct[msg.sender] */\n      0x00\n        /* \"BLOCKCHAIN_GitHub/SOLIDITY/Projects/ETH_DENVER_BOOTCAMP/Homework_12/Exercises/Gas/contracts/GasOptimized.sol\":6646:6656  msg.sender */\n      caller\n        /* \"BLOCKCHAIN_GitHub/SOLIDITY/Projects/ETH_DENVER_BOOTCAMP/Homework_12/Exercises/Gas/contracts/GasOptimized.sol\":6630:6657  whiteListStruct[msg.sender] */\n      0xffffffffffffffffffffffffffffffffffffffff\n      and\n      0xffffffffffffffffffffffffffffffffffffffff\n      and\n      dup2\n      mstore\n      0x20\n      add\n      swap1\n      dup2\n      mstore\n      0x20\n      add\n      0x00\n      keccak256\n        /* \"BLOCKCHAIN_GitHub/SOLIDITY/Projects/ETH_DENVER_BOOTCAMP/Homework_12/Exercises/Gas/contracts/GasOptimized.sol\":6586:6657  ImportantStruct memory newImportantStruct = whiteListStruct[msg.sender] */\n      mload(0x40)\n      dup1\n      0x60\n      add\n      0x40\n      mstore\n      swap1\n      dup2\n      0x00\n      dup3\n      add\n      sload\n      dup2\n      mstore\n      0x20\n      add\n      0x01\n      dup3\n      add\n      sload\n      dup2\n      mstore\n      0x20\n      add\n      0x02\n      dup3\n      add\n      sload\n      dup2\n      mstore\n      pop\n      pop\n      swap1\n      pop\n        /* \"BLOCKCHAIN_GitHub/SOLIDITY/Projects/ETH_DENVER_BOOTCAMP/Homework_12/Exercises/Gas/contracts/GasOptimized.sol\":6696:6703  _struct */\n      dup4\n        /* \"BLOCKCHAIN_GitHub/SOLIDITY/Projects/ETH_DENVER_BOOTCAMP/Homework_12/Exercises/Gas/contracts/GasOptimized.sol\":6696:6710  _struct.valueA */\n      0x00\n      add\n      mload\n        /* \"BLOCKCHAIN_GitHub/SOLIDITY/Projects/ETH_DENVER_BOOTCAMP/Homework_12/Exercises/Gas/contracts/GasOptimized.sol\":6668:6686  newImportantStruct */\n      dup2\n        /* \"BLOCKCHAIN_GitHub/SOLIDITY/Projects/ETH_DENVER_BOOTCAMP/Homework_12/Exercises/Gas/contracts/GasOptimized.sol\":6668:6693  newImportantStruct.valueA */\n      0x00\n      add\n        /* \"BLOCKCHAIN_GitHub/SOLIDITY/Projects/ETH_DENVER_BOOTCAMP/Homework_12/Exercises/Gas/contracts/GasOptimized.sol\":6668:6710  newImportantStruct.valueA = _struct.valueA */\n      dup2\n      dup2\n      mstore\n      pop\n      pop\n        /* \"BLOCKCHAIN_GitHub/SOLIDITY/Projects/ETH_DENVER_BOOTCAMP/Homework_12/Exercises/Gas/contracts/GasOptimized.sol\":6751:6758  _struct */\n      dup4\n        /* \"BLOCKCHAIN_GitHub/SOLIDITY/Projects/ETH_DENVER_BOOTCAMP/Homework_12/Exercises/Gas/contracts/GasOptimized.sol\":6751:6767  _struct.bigValue */\n      0x20\n      add\n      mload\n        /* \"BLOCKCHAIN_GitHub/SOLIDITY/Projects/ETH_DENVER_BOOTCAMP/Homework_12/Exercises/Gas/contracts/GasOptimized.sol\":6721:6739  newImportantStruct */\n      dup2\n        /* \"BLOCKCHAIN_GitHub/SOLIDITY/Projects/ETH_DENVER_BOOTCAMP/Homework_12/Exercises/Gas/contracts/GasOptimized.sol\":6721:6748  newImportantStruct.bigValue */\n      0x20\n      add\n        /* \"BLOCKCHAIN_GitHub/SOLIDITY/Projects/ETH_DENVER_BOOTCAMP/Homework_12/Exercises/Gas/contracts/GasOptimized.sol\":6721:6767  newImportantStruct.bigValue = _struct.bigValue */\n      dup2\n      dup2\n      mstore\n      pop\n      pop\n        /* \"BLOCKCHAIN_GitHub/SOLIDITY/Projects/ETH_DENVER_BOOTCAMP/Homework_12/Exercises/Gas/contracts/GasOptimized.sol\":6806:6813  _struct */\n      dup4\n        /* \"BLOCKCHAIN_GitHub/SOLIDITY/Projects/ETH_DENVER_BOOTCAMP/Homework_12/Exercises/Gas/contracts/GasOptimized.sol\":6806:6820  _struct.valueB */\n      0x40\n      add\n      mload\n        /* \"BLOCKCHAIN_GitHub/SOLIDITY/Projects/ETH_DENVER_BOOTCAMP/Homework_12/Exercises/Gas/contracts/GasOptimized.sol\":6778:6796  newImportantStruct */\n      dup2\n        /* \"BLOCKCHAIN_GitHub/SOLIDITY/Projects/ETH_DENVER_BOOTCAMP/Homework_12/Exercises/Gas/contracts/GasOptimized.sol\":6778:6803  newImportantStruct.valueB */\n      0x40\n      add\n        /* \"BLOCKCHAIN_GitHub/SOLIDITY/Projects/ETH_DENVER_BOOTCAMP/Homework_12/Exercises/Gas/contracts/GasOptimized.sol\":6778:6820  newImportantStruct.valueB = _struct.valueB */\n      dup2\n      dup2\n      mstore\n      pop\n      pop\n        /* \"BLOCKCHAIN_GitHub/SOLIDITY/Projects/ETH_DENVER_BOOTCAMP/Homework_12/Exercises/Gas/contracts/GasOptimized.sol\":6854:6864  _recipient */\n      dup6\n        /* \"BLOCKCHAIN_GitHub/SOLIDITY/Projects/ETH_DENVER_BOOTCAMP/Homework_12/Exercises/Gas/contracts/GasOptimized.sol\":6836:6865  WhiteListTransfer(_recipient) */\n      0xffffffffffffffffffffffffffffffffffffffff\n      and\n      0x98eaee7299e9cbfa56cf530fd3a0c6dfa0ccddf4f837b8f025651ad9594647b3\n      mload(0x40)\n      mload(0x40)\n      dup1\n      swap2\n      sub\n      swap1\n      log2\n        /* \"BLOCKCHAIN_GitHub/SOLIDITY/Projects/ETH_DENVER_BOOTCAMP/Homework_12/Exercises/Gas/contracts/GasOptimized.sol\":6288:6873  {... */\n      pop\n        /* \"BLOCKCHAIN_GitHub/SOLIDITY/Projects/ETH_DENVER_BOOTCAMP/Homework_12/Exercises/Gas/contracts/GasOptimized.sol\":2114:2386  {... */\n      pop\n        /* \"BLOCKCHAIN_GitHub/SOLIDITY/Projects/ETH_DENVER_BOOTCAMP/Homework_12/Exercises/Gas/contracts/GasOptimized.sol\":6158:6873  function whiteTransfer(address _recipient, uint256 _amount, ImportantStruct memory _struct) public checkIfWhiteListed(msg.sender) {... */\n      pop\n      pop\n      pop\n      pop\n      jump\t// out\n        /* \"BLOCKCHAIN_GitHub/SOLIDITY/Projects/ETH_DENVER_BOOTCAMP/Homework_12/Exercises/Gas/contracts/GasOptimized.sol\":5076:5892  function updatePayment(address _user, uint256 _ID, uint256 _amount, PaymentType _type) public onlyOwner {... */\n    tag_48:\n        /* \"BLOCKCHAIN_GitHub/SOLIDITY/Projects/ETH_DENVER_BOOTCAMP/Homework_12/Exercises/Gas/contracts/Ownable.sol\":1748:1761  _checkOwner() */\n      tag_148\n        /* \"BLOCKCHAIN_GitHub/SOLIDITY/Projects/ETH_DENVER_BOOTCAMP/Homework_12/Exercises/Gas/contracts/Ownable.sol\":1748:1759  _checkOwner */\n      tag_127\n        /* \"BLOCKCHAIN_GitHub/SOLIDITY/Projects/ETH_DENVER_BOOTCAMP/Homework_12/Exercises/Gas/contracts/Ownable.sol\":1748:1761  _checkOwner() */\n      jump\t// in\n    tag_148:\n        /* \"BLOCKCHAIN_GitHub/SOLIDITY/Projects/ETH_DENVER_BOOTCAMP/Homework_12/Exercises/Gas/contracts/GasOptimized.sol\":5202:5203  0 */\n      0x00\n        /* \"BLOCKCHAIN_GitHub/SOLIDITY/Projects/ETH_DENVER_BOOTCAMP/Homework_12/Exercises/Gas/contracts/GasOptimized.sol\":5195:5198  _ID */\n      dup4\n        /* \"BLOCKCHAIN_GitHub/SOLIDITY/Projects/ETH_DENVER_BOOTCAMP/Homework_12/Exercises/Gas/contracts/GasOptimized.sol\":5195:5203  _ID == 0 */\n      sub\n        /* \"BLOCKCHAIN_GitHub/SOLIDITY/Projects/ETH_DENVER_BOOTCAMP/Homework_12/Exercises/Gas/contracts/GasOptimized.sol\":5191:5237  if (_ID == 0)... */\n      tag_150\n      jumpi\n        /* \"BLOCKCHAIN_GitHub/SOLIDITY/Projects/ETH_DENVER_BOOTCAMP/Homework_12/Exercises/Gas/contracts/GasOptimized.sol\":5225:5237  NotValidId() */\n      mload(0x40)\n      0x98176f8c00000000000000000000000000000000000000000000000000000000\n      dup2\n      mstore\n      0x04\n      add\n      mload(0x40)\n      dup1\n      swap2\n      sub\n      swap1\n      revert\n        /* \"BLOCKCHAIN_GitHub/SOLIDITY/Projects/ETH_DENVER_BOOTCAMP/Homework_12/Exercises/Gas/contracts/GasOptimized.sol\":5191:5237  if (_ID == 0)... */\n    tag_150:\n        /* \"BLOCKCHAIN_GitHub/SOLIDITY/Projects/ETH_DENVER_BOOTCAMP/Homework_12/Exercises/Gas/contracts/GasOptimized.sol\":5269:5270  0 */\n      0x00\n        /* \"BLOCKCHAIN_GitHub/SOLIDITY/Projects/ETH_DENVER_BOOTCAMP/Homework_12/Exercises/Gas/contracts/GasOptimized.sol\":5252:5271  _user == address(0) */\n      0xffffffffffffffffffffffffffffffffffffffff\n      and\n        /* \"BLOCKCHAIN_GitHub/SOLIDITY/Projects/ETH_DENVER_BOOTCAMP/Homework_12/Exercises/Gas/contracts/GasOptimized.sol\":5252:5257  _user */\n      dup5\n        /* \"BLOCKCHAIN_GitHub/SOLIDITY/Projects/ETH_DENVER_BOOTCAMP/Homework_12/Exercises/Gas/contracts/GasOptimized.sol\":5252:5271  _user == address(0) */\n      0xffffffffffffffffffffffffffffffffffffffff\n      and\n      sub\n        /* \"BLOCKCHAIN_GitHub/SOLIDITY/Projects/ETH_DENVER_BOOTCAMP/Homework_12/Exercises/Gas/contracts/GasOptimized.sol\":5248:5310  if (_user == address(0))... */\n      tag_151\n      jumpi\n        /* \"BLOCKCHAIN_GitHub/SOLIDITY/Projects/ETH_DENVER_BOOTCAMP/Homework_12/Exercises/Gas/contracts/GasOptimized.sol\":5293:5310  NotValidAddress() */\n      mload(0x40)\n      0x6e5ec59f00000000000000000000000000000000000000000000000000000000\n      dup2\n      mstore\n      0x04\n      add\n      mload(0x40)\n      dup1\n      swap2\n      sub\n      swap1\n      revert\n        /* \"BLOCKCHAIN_GitHub/SOLIDITY/Projects/ETH_DENVER_BOOTCAMP/Homework_12/Exercises/Gas/contracts/GasOptimized.sol\":5248:5310  if (_user == address(0))... */\n    tag_151:\n        /* \"BLOCKCHAIN_GitHub/SOLIDITY/Projects/ETH_DENVER_BOOTCAMP/Homework_12/Exercises/Gas/contracts/GasOptimized.sol\":5328:5338  uint256 ii */\n      0x00\n        /* \"BLOCKCHAIN_GitHub/SOLIDITY/Projects/ETH_DENVER_BOOTCAMP/Homework_12/Exercises/Gas/contracts/GasOptimized.sol\":5323:5885  for (uint256 ii = 0; ii < payments[_user].length; ii++) {... */\n    tag_152:\n        /* \"BLOCKCHAIN_GitHub/SOLIDITY/Projects/ETH_DENVER_BOOTCAMP/Homework_12/Exercises/Gas/contracts/GasOptimized.sol\":5349:5357  payments */\n      0x0e\n        /* \"BLOCKCHAIN_GitHub/SOLIDITY/Projects/ETH_DENVER_BOOTCAMP/Homework_12/Exercises/Gas/contracts/GasOptimized.sol\":5349:5364  payments[_user] */\n      0x00\n        /* \"BLOCKCHAIN_GitHub/SOLIDITY/Projects/ETH_DENVER_BOOTCAMP/Homework_12/Exercises/Gas/contracts/GasOptimized.sol\":5358:5363  _user */\n      dup7\n        /* \"BLOCKCHAIN_GitHub/SOLIDITY/Projects/ETH_DENVER_BOOTCAMP/Homework_12/Exercises/Gas/contracts/GasOptimized.sol\":5349:5364  payments[_user] */\n      0xffffffffffffffffffffffffffffffffffffffff\n      and\n      0xffffffffffffffffffffffffffffffffffffffff\n      and\n      dup2\n      mstore\n      0x20\n      add\n      swap1\n      dup2\n      mstore\n      0x20\n      add\n      0x00\n      keccak256\n        /* \"BLOCKCHAIN_GitHub/SOLIDITY/Projects/ETH_DENVER_BOOTCAMP/Homework_12/Exercises/Gas/contracts/GasOptimized.sol\":5349:5371  payments[_user].length */\n      dup1\n      sload\n      swap1\n      pop\n        /* \"BLOCKCHAIN_GitHub/SOLIDITY/Projects/ETH_DENVER_BOOTCAMP/Homework_12/Exercises/Gas/contracts/GasOptimized.sol\":5344:5346  ii */\n      dup2\n        /* \"BLOCKCHAIN_GitHub/SOLIDITY/Projects/ETH_DENVER_BOOTCAMP/Homework_12/Exercises/Gas/contracts/GasOptimized.sol\":5344:5371  ii < payments[_user].length */\n      lt\n        /* \"BLOCKCHAIN_GitHub/SOLIDITY/Projects/ETH_DENVER_BOOTCAMP/Homework_12/Exercises/Gas/contracts/GasOptimized.sol\":5323:5885  for (uint256 ii = 0; ii < payments[_user].length; ii++) {... */\n      iszero\n      tag_153\n      jumpi\n        /* \"BLOCKCHAIN_GitHub/SOLIDITY/Projects/ETH_DENVER_BOOTCAMP/Homework_12/Exercises/Gas/contracts/GasOptimized.sol\":5431:5434  _ID */\n      dup4\n        /* \"BLOCKCHAIN_GitHub/SOLIDITY/Projects/ETH_DENVER_BOOTCAMP/Homework_12/Exercises/Gas/contracts/GasOptimized.sol\":5398:5406  payments */\n      0x0e\n        /* \"BLOCKCHAIN_GitHub/SOLIDITY/Projects/ETH_DENVER_BOOTCAMP/Homework_12/Exercises/Gas/contracts/GasOptimized.sol\":5398:5413  payments[_user] */\n      0x00\n        /* \"BLOCKCHAIN_GitHub/SOLIDITY/Projects/ETH_DENVER_BOOTCAMP/Homework_12/Exercises/Gas/contracts/GasOptimized.sol\":5407:5412  _user */\n      dup8\n        /* \"BLOCKCHAIN_GitHub/SOLIDITY/Projects/ETH_DENVER_BOOTCAMP/Homework_12/Exercises/Gas/contracts/GasOptimized.sol\":5398:5413  payments[_user] */\n      0xffffffffffffffffffffffffffffffffffffffff\n      and\n      0xffffffffffffffffffffffffffffffffffffffff\n      and\n      dup2\n      mstore\n      0x20\n      add\n      swap1\n      dup2\n      mstore\n      0x20\n      add\n      0x00\n      keccak256\n        /* \"BLOCKCHAIN_GitHub/SOLIDITY/Projects/ETH_DENVER_BOOTCAMP/Homework_12/Exercises/Gas/contracts/GasOptimized.sol\":5414:5416  ii */\n      dup3\n        /* \"BLOCKCHAIN_GitHub/SOLIDITY/Projects/ETH_DENVER_BOOTCAMP/Homework_12/Exercises/Gas/contracts/GasOptimized.sol\":5398:5417  payments[_user][ii] */\n      dup2\n      sload\n      dup2\n      lt\n      tag_155\n      jumpi\n      tag_156\n      tag_157\n      jump\t// in\n    tag_156:\n    tag_155:\n      swap1\n      0x00\n      mstore\n      keccak256(0x00, 0x20)\n      swap1\n      0x06\n      mul\n      add\n        /* \"BLOCKCHAIN_GitHub/SOLIDITY/Projects/ETH_DENVER_BOOTCAMP/Homework_12/Exercises/Gas/contracts/GasOptimized.sol\":5398:5427  payments[_user][ii].paymentID */\n      0x01\n      add\n      sload\n        /* \"BLOCKCHAIN_GitHub/SOLIDITY/Projects/ETH_DENVER_BOOTCAMP/Homework_12/Exercises/Gas/contracts/GasOptimized.sol\":5398:5434  payments[_user][ii].paymentID == _ID */\n      sub\n        /* \"BLOCKCHAIN_GitHub/SOLIDITY/Projects/ETH_DENVER_BOOTCAMP/Homework_12/Exercises/Gas/contracts/GasOptimized.sol\":5394:5874  if (payments[_user][ii].paymentID == _ID) {... */\n      tag_159\n      jumpi\n        /* \"BLOCKCHAIN_GitHub/SOLIDITY/Projects/ETH_DENVER_BOOTCAMP/Homework_12/Exercises/Gas/contracts/GasOptimized.sol\":5490:5494  true */\n      0x01\n        /* \"BLOCKCHAIN_GitHub/SOLIDITY/Projects/ETH_DENVER_BOOTCAMP/Homework_12/Exercises/Gas/contracts/GasOptimized.sol\":5455:5463  payments */\n      0x0e\n        /* \"BLOCKCHAIN_GitHub/SOLIDITY/Projects/ETH_DENVER_BOOTCAMP/Homework_12/Exercises/Gas/contracts/GasOptimized.sol\":5455:5470  payments[_user] */\n      0x00\n        /* \"BLOCKCHAIN_GitHub/SOLIDITY/Projects/ETH_DENVER_BOOTCAMP/Homework_12/Exercises/Gas/contracts/GasOptimized.sol\":5464:5469  _user */\n      dup8\n        /* \"BLOCKCHAIN_GitHub/SOLIDITY/Projects/ETH_DENVER_BOOTCAMP/Homework_12/Exercises/Gas/contracts/GasOptimized.sol\":5455:5470  payments[_user] */\n      0xffffffffffffffffffffffffffffffffffffffff\n      and\n      0xffffffffffffffffffffffffffffffffffffffff\n      and\n      dup2\n      mstore\n      0x20\n      add\n      swap1\n      dup2\n      mstore\n      0x20\n      add\n      0x00\n      keccak256\n        /* \"BLOCKCHAIN_GitHub/SOLIDITY/Projects/ETH_DENVER_BOOTCAMP/Homework_12/Exercises/Gas/contracts/GasOptimized.sol\":5471:5473  ii */\n      dup3\n        /* \"BLOCKCHAIN_GitHub/SOLIDITY/Projects/ETH_DENVER_BOOTCAMP/Homework_12/Exercises/Gas/contracts/GasOptimized.sol\":5455:5474  payments[_user][ii] */\n      dup2\n      sload\n      dup2\n      lt\n      tag_160\n      jumpi\n      tag_161\n      tag_157\n      jump\t// in\n    tag_161:\n    tag_160:\n      swap1\n      0x00\n      mstore\n      keccak256(0x00, 0x20)\n      swap1\n      0x06\n      mul\n      add\n        /* \"BLOCKCHAIN_GitHub/SOLIDITY/Projects/ETH_DENVER_BOOTCAMP/Homework_12/Exercises/Gas/contracts/GasOptimized.sol\":5455:5487  payments[_user][ii].adminUpdated */\n      0x04\n      add\n      0x00\n        /* \"BLOCKCHAIN_GitHub/SOLIDITY/Projects/ETH_DENVER_BOOTCAMP/Homework_12/Exercises/Gas/contracts/GasOptimized.sol\":5455:5494  payments[_user][ii].adminUpdated = true */\n      0x0100\n      exp\n      dup2\n      sload\n      dup2\n      0xff\n      mul\n      not\n      and\n      swap1\n      dup4\n      iszero\n      iszero\n      mul\n      or\n      swap1\n      sstore\n      pop\n        /* \"BLOCKCHAIN_GitHub/SOLIDITY/Projects/ETH_DENVER_BOOTCAMP/Homework_12/Exercises/Gas/contracts/GasOptimized.sol\":5541:5546  _user */\n      dup5\n        /* \"BLOCKCHAIN_GitHub/SOLIDITY/Projects/ETH_DENVER_BOOTCAMP/Homework_12/Exercises/Gas/contracts/GasOptimized.sol\":5513:5521  payments */\n      0x0e\n        /* \"BLOCKCHAIN_GitHub/SOLIDITY/Projects/ETH_DENVER_BOOTCAMP/Homework_12/Exercises/Gas/contracts/GasOptimized.sol\":5513:5528  payments[_user] */\n      0x00\n        /* \"BLOCKCHAIN_GitHub/SOLIDITY/Projects/ETH_DENVER_BOOTCAMP/Homework_12/Exercises/Gas/contracts/GasOptimized.sol\":5522:5527  _user */\n      dup8\n        /* \"BLOCKCHAIN_GitHub/SOLIDITY/Projects/ETH_DENVER_BOOTCAMP/Homework_12/Exercises/Gas/contracts/GasOptimized.sol\":5513:5528  payments[_user] */\n      0xffffffffffffffffffffffffffffffffffffffff\n      and\n      0xffffffffffffffffffffffffffffffffffffffff\n      and\n      dup2\n      mstore\n      0x20\n      add\n      swap1\n      dup2\n      mstore\n      0x20\n      add\n      0x00\n      keccak256\n        /* \"BLOCKCHAIN_GitHub/SOLIDITY/Projects/ETH_DENVER_BOOTCAMP/Homework_12/Exercises/Gas/contracts/GasOptimized.sol\":5529:5531  ii */\n      dup3\n        /* \"BLOCKCHAIN_GitHub/SOLIDITY/Projects/ETH_DENVER_BOOTCAMP/Homework_12/Exercises/Gas/contracts/GasOptimized.sol\":5513:5532  payments[_user][ii] */\n      dup2\n      sload\n      dup2\n      lt\n      tag_163\n      jumpi\n      tag_164\n      tag_157\n      jump\t// in\n    tag_164:\n    tag_163:\n      swap1\n      0x00\n      mstore\n      keccak256(0x00, 0x20)\n      swap1\n      0x06\n      mul\n      add\n        /* \"BLOCKCHAIN_GitHub/SOLIDITY/Projects/ETH_DENVER_BOOTCAMP/Homework_12/Exercises/Gas/contracts/GasOptimized.sol\":5513:5538  payments[_user][ii].admin */\n      0x04\n      add\n      0x01\n        /* \"BLOCKCHAIN_GitHub/SOLIDITY/Projects/ETH_DENVER_BOOTCAMP/Homework_12/Exercises/Gas/contracts/GasOptimized.sol\":5513:5546  payments[_user][ii].admin = _user */\n      0x0100\n      exp\n      dup2\n      sload\n      dup2\n      0xffffffffffffffffffffffffffffffffffffffff\n      mul\n      not\n      and\n      swap1\n      dup4\n      0xffffffffffffffffffffffffffffffffffffffff\n      and\n      mul\n      or\n      swap1\n      sstore\n      pop\n        /* \"BLOCKCHAIN_GitHub/SOLIDITY/Projects/ETH_DENVER_BOOTCAMP/Homework_12/Exercises/Gas/contracts/GasOptimized.sol\":5599:5604  _type */\n      dup2\n        /* \"BLOCKCHAIN_GitHub/SOLIDITY/Projects/ETH_DENVER_BOOTCAMP/Homework_12/Exercises/Gas/contracts/GasOptimized.sol\":5565:5573  payments */\n      0x0e\n        /* \"BLOCKCHAIN_GitHub/SOLIDITY/Projects/ETH_DENVER_BOOTCAMP/Homework_12/Exercises/Gas/contracts/GasOptimized.sol\":5565:5580  payments[_user] */\n      0x00\n        /* \"BLOCKCHAIN_GitHub/SOLIDITY/Projects/ETH_DENVER_BOOTCAMP/Homework_12/Exercises/Gas/contracts/GasOptimized.sol\":5574:5579  _user */\n      dup8\n        /* \"BLOCKCHAIN_GitHub/SOLIDITY/Projects/ETH_DENVER_BOOTCAMP/Homework_12/Exercises/Gas/contracts/GasOptimized.sol\":5565:5580  payments[_user] */\n      0xffffffffffffffffffffffffffffffffffffffff\n      and\n      0xffffffffffffffffffffffffffffffffffffffff\n      and\n      dup2\n      mstore\n      0x20\n      add\n      swap1\n      dup2\n      mstore\n      0x20\n      add\n      0x00\n      keccak256\n        /* \"BLOCKCHAIN_GitHub/SOLIDITY/Projects/ETH_DENVER_BOOTCAMP/Homework_12/Exercises/Gas/contracts/GasOptimized.sol\":5581:5583  ii */\n      dup3\n        /* \"BLOCKCHAIN_GitHub/SOLIDITY/Projects/ETH_DENVER_BOOTCAMP/Homework_12/Exercises/Gas/contracts/GasOptimized.sol\":5565:5584  payments[_user][ii] */\n      dup2\n      sload\n      dup2\n      lt\n      tag_166\n      jumpi\n      tag_167\n      tag_157\n      jump\t// in\n    tag_167:\n    tag_166:\n      swap1\n      0x00\n      mstore\n      keccak256(0x00, 0x20)\n      swap1\n      0x06\n      mul\n      add\n        /* \"BLOCKCHAIN_GitHub/SOLIDITY/Projects/ETH_DENVER_BOOTCAMP/Homework_12/Exercises/Gas/contracts/GasOptimized.sol\":5565:5596  payments[_user][ii].paymentType */\n      0x00\n      add\n      0x00\n        /* \"BLOCKCHAIN_GitHub/SOLIDITY/Projects/ETH_DENVER_BOOTCAMP/Homework_12/Exercises/Gas/contracts/GasOptimized.sol\":5565:5604  payments[_user][ii].paymentType = _type */\n      0x0100\n      exp\n      dup2\n      sload\n      dup2\n      0xff\n      mul\n      not\n      and\n      swap1\n      dup4\n      0x04\n      dup2\n      gt\n      iszero\n      tag_169\n      jumpi\n      tag_170\n      tag_116\n      jump\t// in\n    tag_170:\n    tag_169:\n      mul\n      or\n      swap1\n      sstore\n      pop\n        /* \"BLOCKCHAIN_GitHub/SOLIDITY/Projects/ETH_DENVER_BOOTCAMP/Homework_12/Exercises/Gas/contracts/GasOptimized.sol\":5652:5659  _amount */\n      dup3\n        /* \"BLOCKCHAIN_GitHub/SOLIDITY/Projects/ETH_DENVER_BOOTCAMP/Homework_12/Exercises/Gas/contracts/GasOptimized.sol\":5623:5631  payments */\n      0x0e\n        /* \"BLOCKCHAIN_GitHub/SOLIDITY/Projects/ETH_DENVER_BOOTCAMP/Homework_12/Exercises/Gas/contracts/GasOptimized.sol\":5623:5638  payments[_user] */\n      0x00\n        /* \"BLOCKCHAIN_GitHub/SOLIDITY/Projects/ETH_DENVER_BOOTCAMP/Homework_12/Exercises/Gas/contracts/GasOptimized.sol\":5632:5637  _user */\n      dup8\n        /* \"BLOCKCHAIN_GitHub/SOLIDITY/Projects/ETH_DENVER_BOOTCAMP/Homework_12/Exercises/Gas/contracts/GasOptimized.sol\":5623:5638  payments[_user] */\n      0xffffffffffffffffffffffffffffffffffffffff\n      and\n      0xffffffffffffffffffffffffffffffffffffffff\n      and\n      dup2\n      mstore\n      0x20\n      add\n      swap1\n      dup2\n      mstore\n      0x20\n      add\n      0x00\n      keccak256\n        /* \"BLOCKCHAIN_GitHub/SOLIDITY/Projects/ETH_DENVER_BOOTCAMP/Homework_12/Exercises/Gas/contracts/GasOptimized.sol\":5639:5641  ii */\n      dup3\n        /* \"BLOCKCHAIN_GitHub/SOLIDITY/Projects/ETH_DENVER_BOOTCAMP/Homework_12/Exercises/Gas/contracts/GasOptimized.sol\":5623:5642  payments[_user][ii] */\n      dup2\n      sload\n      dup2\n      lt\n      tag_171\n      jumpi\n      tag_172\n      tag_157\n      jump\t// in\n    tag_172:\n    tag_171:\n      swap1\n      0x00\n      mstore\n      keccak256(0x00, 0x20)\n      swap1\n      0x06\n      mul\n      add\n        /* \"BLOCKCHAIN_GitHub/SOLIDITY/Projects/ETH_DENVER_BOOTCAMP/Homework_12/Exercises/Gas/contracts/GasOptimized.sol\":5623:5649  payments[_user][ii].amount */\n      0x05\n      add\n        /* \"BLOCKCHAIN_GitHub/SOLIDITY/Projects/ETH_DENVER_BOOTCAMP/Homework_12/Exercises/Gas/contracts/GasOptimized.sol\":5623:5659  payments[_user][ii].amount = _amount */\n      dup2\n      swap1\n      sstore\n      pop\n        /* \"BLOCKCHAIN_GitHub/SOLIDITY/Projects/ETH_DENVER_BOOTCAMP/Homework_12/Exercises/Gas/contracts/GasOptimized.sol\":5678:5694  bool tradingMode */\n      0x00\n        /* \"BLOCKCHAIN_GitHub/SOLIDITY/Projects/ETH_DENVER_BOOTCAMP/Homework_12/Exercises/Gas/contracts/GasOptimized.sol\":5697:5713  getTradingMode() */\n      tag_174\n        /* \"BLOCKCHAIN_GitHub/SOLIDITY/Projects/ETH_DENVER_BOOTCAMP/Homework_12/Exercises/Gas/contracts/GasOptimized.sol\":5697:5711  getTradingMode */\n      tag_79\n        /* \"BLOCKCHAIN_GitHub/SOLIDITY/Projects/ETH_DENVER_BOOTCAMP/Homework_12/Exercises/Gas/contracts/GasOptimized.sol\":5697:5713  getTradingMode() */\n      jump\t// in\n    tag_174:\n        /* \"BLOCKCHAIN_GitHub/SOLIDITY/Projects/ETH_DENVER_BOOTCAMP/Homework_12/Exercises/Gas/contracts/GasOptimized.sol\":5678:5713  bool tradingMode = getTradingMode() */\n      swap1\n      pop\n        /* \"BLOCKCHAIN_GitHub/SOLIDITY/Projects/ETH_DENVER_BOOTCAMP/Homework_12/Exercises/Gas/contracts/GasOptimized.sol\":5732:5762  addHistory(_user, tradingMode) */\n      tag_175\n        /* \"BLOCKCHAIN_GitHub/SOLIDITY/Projects/ETH_DENVER_BOOTCAMP/Homework_12/Exercises/Gas/contracts/GasOptimized.sol\":5743:5748  _user */\n      dup7\n        /* \"BLOCKCHAIN_GitHub/SOLIDITY/Projects/ETH_DENVER_BOOTCAMP/Homework_12/Exercises/Gas/contracts/GasOptimized.sol\":5750:5761  tradingMode */\n      dup3\n        /* \"BLOCKCHAIN_GitHub/SOLIDITY/Projects/ETH_DENVER_BOOTCAMP/Homework_12/Exercises/Gas/contracts/GasOptimized.sol\":5732:5742  addHistory */\n      tag_77\n        /* \"BLOCKCHAIN_GitHub/SOLIDITY/Projects/ETH_DENVER_BOOTCAMP/Homework_12/Exercises/Gas/contracts/GasOptimized.sol\":5732:5762  addHistory(_user, tradingMode) */\n      jump\t// in\n    tag_175:\n        /* \"BLOCKCHAIN_GitHub/SOLIDITY/Projects/ETH_DENVER_BOOTCAMP/Homework_12/Exercises/Gas/contracts/GasOptimized.sol\":5786:5858  PaymentUpdated(msg.sender,_ID,_amount,payments[_user][ii].recipientName) */\n      0xf41efc8c6b66b2a03b14fd69b985ad19a0b9245f24936163018e9ad06d4c143e\n        /* \"BLOCKCHAIN_GitHub/SOLIDITY/Projects/ETH_DENVER_BOOTCAMP/Homework_12/Exercises/Gas/contracts/GasOptimized.sol\":5801:5811  msg.sender */\n      caller\n        /* \"BLOCKCHAIN_GitHub/SOLIDITY/Projects/ETH_DENVER_BOOTCAMP/Homework_12/Exercises/Gas/contracts/GasOptimized.sol\":5812:5815  _ID */\n      dup7\n        /* \"BLOCKCHAIN_GitHub/SOLIDITY/Projects/ETH_DENVER_BOOTCAMP/Homework_12/Exercises/Gas/contracts/GasOptimized.sol\":5816:5823  _amount */\n      dup7\n        /* \"BLOCKCHAIN_GitHub/SOLIDITY/Projects/ETH_DENVER_BOOTCAMP/Homework_12/Exercises/Gas/contracts/GasOptimized.sol\":5824:5832  payments */\n      0x0e\n        /* \"BLOCKCHAIN_GitHub/SOLIDITY/Projects/ETH_DENVER_BOOTCAMP/Homework_12/Exercises/Gas/contracts/GasOptimized.sol\":5824:5839  payments[_user] */\n      0x00\n        /* \"BLOCKCHAIN_GitHub/SOLIDITY/Projects/ETH_DENVER_BOOTCAMP/Homework_12/Exercises/Gas/contracts/GasOptimized.sol\":5833:5838  _user */\n      dup12\n        /* \"BLOCKCHAIN_GitHub/SOLIDITY/Projects/ETH_DENVER_BOOTCAMP/Homework_12/Exercises/Gas/contracts/GasOptimized.sol\":5824:5839  payments[_user] */\n      0xffffffffffffffffffffffffffffffffffffffff\n      and\n      0xffffffffffffffffffffffffffffffffffffffff\n      and\n      dup2\n      mstore\n      0x20\n      add\n      swap1\n      dup2\n      mstore\n      0x20\n      add\n      0x00\n      keccak256\n        /* \"BLOCKCHAIN_GitHub/SOLIDITY/Projects/ETH_DENVER_BOOTCAMP/Homework_12/Exercises/Gas/contracts/GasOptimized.sol\":5840:5842  ii */\n      dup7\n        /* \"BLOCKCHAIN_GitHub/SOLIDITY/Projects/ETH_DENVER_BOOTCAMP/Homework_12/Exercises/Gas/contracts/GasOptimized.sol\":5824:5843  payments[_user][ii] */\n      dup2\n      sload\n      dup2\n      lt\n      tag_176\n      jumpi\n      tag_177\n      tag_157\n      jump\t// in\n    tag_177:\n    tag_176:\n      swap1\n      0x00\n      mstore\n      keccak256(0x00, 0x20)\n      swap1\n      0x06\n      mul\n      add\n        /* \"BLOCKCHAIN_GitHub/SOLIDITY/Projects/ETH_DENVER_BOOTCAMP/Homework_12/Exercises/Gas/contracts/GasOptimized.sol\":5824:5857  payments[_user][ii].recipientName */\n      0x03\n      add\n        /* \"BLOCKCHAIN_GitHub/SOLIDITY/Projects/ETH_DENVER_BOOTCAMP/Homework_12/Exercises/Gas/contracts/GasOptimized.sol\":5786:5858  PaymentUpdated(msg.sender,_ID,_amount,payments[_user][ii].recipientName) */\n      mload(0x40)\n      tag_179\n      swap5\n      swap4\n      swap3\n      swap2\n      swap1\n      tag_180\n      jump\t// in\n    tag_179:\n      mload(0x40)\n      dup1\n      swap2\n      sub\n      swap1\n      log1\n        /* \"BLOCKCHAIN_GitHub/SOLIDITY/Projects/ETH_DENVER_BOOTCAMP/Homework_12/Exercises/Gas/contracts/GasOptimized.sol\":5436:5874  {... */\n      pop\n        /* \"BLOCKCHAIN_GitHub/SOLIDITY/Projects/ETH_DENVER_BOOTCAMP/Homework_12/Exercises/Gas/contracts/GasOptimized.sol\":5394:5874  if (payments[_user][ii].paymentID == _ID) {... */\n    tag_159:\n        /* \"BLOCKCHAIN_GitHub/SOLIDITY/Projects/ETH_DENVER_BOOTCAMP/Homework_12/Exercises/Gas/contracts/GasOptimized.sol\":5373:5377  ii++ */\n      dup1\n      dup1\n      tag_181\n      swap1\n      tag_182\n      jump\t// in\n    tag_181:\n      swap2\n      pop\n      pop\n        /* \"BLOCKCHAIN_GitHub/SOLIDITY/Projects/ETH_DENVER_BOOTCAMP/Homework_12/Exercises/Gas/contracts/GasOptimized.sol\":5323:5885  for (uint256 ii = 0; ii < payments[_user].length; ii++) {... */\n      jump(tag_152)\n    tag_153:\n      pop\n        /* \"BLOCKCHAIN_GitHub/SOLIDITY/Projects/ETH_DENVER_BOOTCAMP/Homework_12/Exercises/Gas/contracts/GasOptimized.sol\":5076:5892  function updatePayment(address _user, uint256 _ID, uint256 _amount, PaymentType _type) public onlyOwner {... */\n      pop\n      pop\n      pop\n      pop\n      jump\t// out\n        /* \"BLOCKCHAIN_GitHub/SOLIDITY/Projects/ETH_DENVER_BOOTCAMP/Homework_12/Exercises/Gas/contracts/GasOptimized.sol\":4350:5068  function transfer(address _recipient, uint256 _amount, string calldata _name) public {... */\n    tag_52:\n        /* \"BLOCKCHAIN_GitHub/SOLIDITY/Projects/ETH_DENVER_BOOTCAMP/Homework_12/Exercises/Gas/contracts/GasOptimized.sol\":4446:4458  uint balance */\n      0x00\n        /* \"BLOCKCHAIN_GitHub/SOLIDITY/Projects/ETH_DENVER_BOOTCAMP/Homework_12/Exercises/Gas/contracts/GasOptimized.sol\":4461:4469  balances */\n      0x0b\n        /* \"BLOCKCHAIN_GitHub/SOLIDITY/Projects/ETH_DENVER_BOOTCAMP/Homework_12/Exercises/Gas/contracts/GasOptimized.sol\":4461:4481  balances[msg.sender] */\n      0x00\n        /* \"BLOCKCHAIN_GitHub/SOLIDITY/Projects/ETH_DENVER_BOOTCAMP/Homework_12/Exercises/Gas/contracts/GasOptimized.sol\":4470:4480  msg.sender */\n      caller\n        /* \"BLOCKCHAIN_GitHub/SOLIDITY/Projects/ETH_DENVER_BOOTCAMP/Homework_12/Exercises/Gas/contracts/GasOptimized.sol\":4461:4481  balances[msg.sender] */\n      0xffffffffffffffffffffffffffffffffffffffff\n      and\n      0xffffffffffffffffffffffffffffffffffffffff\n      and\n      dup2\n      mstore\n      0x20\n      add\n      swap1\n      dup2\n      mstore\n      0x20\n      add\n      0x00\n      keccak256\n      sload\n        /* \"BLOCKCHAIN_GitHub/SOLIDITY/Projects/ETH_DENVER_BOOTCAMP/Homework_12/Exercises/Gas/contracts/GasOptimized.sol\":4446:4481  uint balance = balances[msg.sender] */\n      swap1\n      pop\n        /* \"BLOCKCHAIN_GitHub/SOLIDITY/Projects/ETH_DENVER_BOOTCAMP/Homework_12/Exercises/Gas/contracts/GasOptimized.sol\":4506:4513  _amount */\n      dup4\n        /* \"BLOCKCHAIN_GitHub/SOLIDITY/Projects/ETH_DENVER_BOOTCAMP/Homework_12/Exercises/Gas/contracts/GasOptimized.sol\":4496:4503  balance */\n      dup2\n        /* \"BLOCKCHAIN_GitHub/SOLIDITY/Projects/ETH_DENVER_BOOTCAMP/Homework_12/Exercises/Gas/contracts/GasOptimized.sol\":4496:4513  balance < _amount */\n      lt\n        /* \"BLOCKCHAIN_GitHub/SOLIDITY/Projects/ETH_DENVER_BOOTCAMP/Homework_12/Exercises/Gas/contracts/GasOptimized.sol\":4492:4566  if (balance < _amount)... */\n      iszero\n      tag_184\n      jumpi\n        /* \"BLOCKCHAIN_GitHub/SOLIDITY/Projects/ETH_DENVER_BOOTCAMP/Homework_12/Exercises/Gas/contracts/GasOptimized.sol\":4550:4557  _amount */\n      dup4\n        /* \"BLOCKCHAIN_GitHub/SOLIDITY/Projects/ETH_DENVER_BOOTCAMP/Homework_12/Exercises/Gas/contracts/GasOptimized.sol\":4558:4565  balance */\n      dup2\n        /* \"BLOCKCHAIN_GitHub/SOLIDITY/Projects/ETH_DENVER_BOOTCAMP/Homework_12/Exercises/Gas/contracts/GasOptimized.sol\":4535:4566  NotEnoughFunds(_amount,balance) */\n      mload(0x40)\n      0x8c90536800000000000000000000000000000000000000000000000000000000\n      dup2\n      mstore\n      0x04\n      add\n      tag_185\n      swap3\n      swap2\n      swap1\n      tag_140\n      jump\t// in\n    tag_185:\n      mload(0x40)\n      dup1\n      swap2\n      sub\n      swap1\n      revert\n        /* \"BLOCKCHAIN_GitHub/SOLIDITY/Projects/ETH_DENVER_BOOTCAMP/Homework_12/Exercises/Gas/contracts/GasOptimized.sol\":4492:4566  if (balance < _amount)... */\n    tag_184:\n        /* \"BLOCKCHAIN_GitHub/SOLIDITY/Projects/ETH_DENVER_BOOTCAMP/Homework_12/Exercises/Gas/contracts/GasOptimized.sol\":4604:4605  9 */\n      0x09\n        /* \"BLOCKCHAIN_GitHub/SOLIDITY/Projects/ETH_DENVER_BOOTCAMP/Homework_12/Exercises/Gas/contracts/GasOptimized.sol\":4587:4592  _name */\n      dup4\n      dup4\n        /* \"BLOCKCHAIN_GitHub/SOLIDITY/Projects/ETH_DENVER_BOOTCAMP/Homework_12/Exercises/Gas/contracts/GasOptimized.sol\":4581:4600  bytes(_name).length */\n      swap1\n      pop\n        /* \"BLOCKCHAIN_GitHub/SOLIDITY/Projects/ETH_DENVER_BOOTCAMP/Homework_12/Exercises/Gas/contracts/GasOptimized.sol\":4581:4605  bytes(_name).length >= 9 */\n      lt\n        /* \"BLOCKCHAIN_GitHub/SOLIDITY/Projects/ETH_DENVER_BOOTCAMP/Homework_12/Exercises/Gas/contracts/GasOptimized.sol\":4577:4646  if (bytes(_name).length >= 9)... */\n      tag_186\n      jumpi\n        /* \"BLOCKCHAIN_GitHub/SOLIDITY/Projects/ETH_DENVER_BOOTCAMP/Homework_12/Exercises/Gas/contracts/GasOptimized.sol\":4627:4646  RecipientNameLong() */\n      mload(0x40)\n      0x0ec965da00000000000000000000000000000000000000000000000000000000\n      dup2\n      mstore\n      0x04\n      add\n      mload(0x40)\n      dup1\n      swap2\n      sub\n      swap1\n      revert\n        /* \"BLOCKCHAIN_GitHub/SOLIDITY/Projects/ETH_DENVER_BOOTCAMP/Homework_12/Exercises/Gas/contracts/GasOptimized.sol\":4577:4646  if (bytes(_name).length >= 9)... */\n    tag_186:\n        /* \"BLOCKCHAIN_GitHub/SOLIDITY/Projects/ETH_DENVER_BOOTCAMP/Homework_12/Exercises/Gas/contracts/GasOptimized.sol\":4668:4675  _amount */\n      dup4\n        /* \"BLOCKCHAIN_GitHub/SOLIDITY/Projects/ETH_DENVER_BOOTCAMP/Homework_12/Exercises/Gas/contracts/GasOptimized.sol\":4657:4675  balance -= _amount */\n      dup2\n      tag_187\n      swap2\n      swap1\n      tag_142\n      jump\t// in\n    tag_187:\n      swap1\n      pop\n        /* \"BLOCKCHAIN_GitHub/SOLIDITY/Projects/ETH_DENVER_BOOTCAMP/Homework_12/Exercises/Gas/contracts/GasOptimized.sol\":4710:4717  _amount */\n      dup4\n        /* \"BLOCKCHAIN_GitHub/SOLIDITY/Projects/ETH_DENVER_BOOTCAMP/Homework_12/Exercises/Gas/contracts/GasOptimized.sol\":4686:4694  balances */\n      0x0b\n        /* \"BLOCKCHAIN_GitHub/SOLIDITY/Projects/ETH_DENVER_BOOTCAMP/Homework_12/Exercises/Gas/contracts/GasOptimized.sol\":4686:4706  balances[_recipient] */\n      0x00\n        /* \"BLOCKCHAIN_GitHub/SOLIDITY/Projects/ETH_DENVER_BOOTCAMP/Homework_12/Exercises/Gas/contracts/GasOptimized.sol\":4695:4705  _recipient */\n      dup8\n        /* \"BLOCKCHAIN_GitHub/SOLIDITY/Projects/ETH_DENVER_BOOTCAMP/Homework_12/Exercises/Gas/contracts/GasOptimized.sol\":4686:4706  balances[_recipient] */\n      0xffffffffffffffffffffffffffffffffffffffff\n      and\n      0xffffffffffffffffffffffffffffffffffffffff\n      and\n      dup2\n      mstore\n      0x20\n      add\n      swap1\n      dup2\n      mstore\n      0x20\n      add\n      0x00\n      keccak256\n      0x00\n        /* \"BLOCKCHAIN_GitHub/SOLIDITY/Projects/ETH_DENVER_BOOTCAMP/Homework_12/Exercises/Gas/contracts/GasOptimized.sol\":4686:4717  balances[_recipient] += _amount */\n      dup3\n      dup3\n      sload\n      tag_188\n      swap2\n      swap1\n      tag_144\n      jump\t// in\n    tag_188:\n      swap3\n      pop\n      pop\n      dup2\n      swap1\n      sstore\n      pop\n        /* \"BLOCKCHAIN_GitHub/SOLIDITY/Projects/ETH_DENVER_BOOTCAMP/Homework_12/Exercises/Gas/contracts/GasOptimized.sol\":4733:4762  Transfer(_recipient, _amount) */\n      0x69ca02dd4edd7bf0a4abb9ed3b7af3f14778db5d61921c7dc7cd545266326de2\n        /* \"BLOCKCHAIN_GitHub/SOLIDITY/Projects/ETH_DENVER_BOOTCAMP/Homework_12/Exercises/Gas/contracts/GasOptimized.sol\":4742:4752  _recipient */\n      dup6\n        /* \"BLOCKCHAIN_GitHub/SOLIDITY/Projects/ETH_DENVER_BOOTCAMP/Homework_12/Exercises/Gas/contracts/GasOptimized.sol\":4754:4761  _amount */\n      dup6\n        /* \"BLOCKCHAIN_GitHub/SOLIDITY/Projects/ETH_DENVER_BOOTCAMP/Homework_12/Exercises/Gas/contracts/GasOptimized.sol\":4733:4762  Transfer(_recipient, _amount) */\n      mload(0x40)\n      tag_189\n      swap3\n      swap2\n      swap1\n      tag_132\n      jump\t// in\n    tag_189:\n      mload(0x40)\n      dup1\n      swap2\n      sub\n      swap1\n      log1\n        /* \"BLOCKCHAIN_GitHub/SOLIDITY/Projects/ETH_DENVER_BOOTCAMP/Homework_12/Exercises/Gas/contracts/GasOptimized.sol\":4773:4795  Payment memory payment */\n      tag_190\n      tag_191\n      jump\t// in\n    tag_190:\n        /* \"BLOCKCHAIN_GitHub/SOLIDITY/Projects/ETH_DENVER_BOOTCAMP/Homework_12/Exercises/Gas/contracts/GasOptimized.sol\":4828:4852  PaymentType.BasicPayment */\n      0x01\n        /* \"BLOCKCHAIN_GitHub/SOLIDITY/Projects/ETH_DENVER_BOOTCAMP/Homework_12/Exercises/Gas/contracts/GasOptimized.sol\":4806:4813  payment */\n      dup2\n        /* \"BLOCKCHAIN_GitHub/SOLIDITY/Projects/ETH_DENVER_BOOTCAMP/Homework_12/Exercises/Gas/contracts/GasOptimized.sol\":4806:4825  payment.paymentType */\n      0x00\n      add\n        /* \"BLOCKCHAIN_GitHub/SOLIDITY/Projects/ETH_DENVER_BOOTCAMP/Homework_12/Exercises/Gas/contracts/GasOptimized.sol\":4806:4852  payment.paymentType = PaymentType.BasicPayment */\n      swap1\n      0x04\n      dup2\n      gt\n      iszero\n      tag_192\n      jumpi\n      tag_193\n      tag_116\n      jump\t// in\n    tag_193:\n    tag_192:\n      swap1\n      dup2\n      0x04\n      dup2\n      gt\n      iszero\n      tag_194\n      jumpi\n      tag_195\n      tag_116\n      jump\t// in\n    tag_195:\n    tag_194:\n      dup2\n      mstore\n      pop\n      pop\n        /* \"BLOCKCHAIN_GitHub/SOLIDITY/Projects/ETH_DENVER_BOOTCAMP/Homework_12/Exercises/Gas/contracts/GasOptimized.sol\":4883:4893  _recipient */\n      dup6\n        /* \"BLOCKCHAIN_GitHub/SOLIDITY/Projects/ETH_DENVER_BOOTCAMP/Homework_12/Exercises/Gas/contracts/GasOptimized.sol\":4863:4870  payment */\n      dup2\n        /* \"BLOCKCHAIN_GitHub/SOLIDITY/Projects/ETH_DENVER_BOOTCAMP/Homework_12/Exercises/Gas/contracts/GasOptimized.sol\":4863:4880  payment.recipient */\n      0x40\n      add\n        /* \"BLOCKCHAIN_GitHub/SOLIDITY/Projects/ETH_DENVER_BOOTCAMP/Homework_12/Exercises/Gas/contracts/GasOptimized.sol\":4863:4893  payment.recipient = _recipient */\n      swap1\n      0xffffffffffffffffffffffffffffffffffffffff\n      and\n      swap1\n      dup2\n      0xffffffffffffffffffffffffffffffffffffffff\n      and\n      dup2\n      mstore\n      pop\n      pop\n        /* \"BLOCKCHAIN_GitHub/SOLIDITY/Projects/ETH_DENVER_BOOTCAMP/Homework_12/Exercises/Gas/contracts/GasOptimized.sol\":4928:4933  _name */\n      dup4\n      dup4\n        /* \"BLOCKCHAIN_GitHub/SOLIDITY/Projects/ETH_DENVER_BOOTCAMP/Homework_12/Exercises/Gas/contracts/GasOptimized.sol\":4904:4933  payment.recipientName = _name */\n      dup1\n      dup1\n      0x1f\n      add\n      0x20\n      dup1\n      swap2\n      div\n      mul\n      0x20\n      add\n      mload(0x40)\n      swap1\n      dup2\n      add\n      0x40\n      mstore\n      dup1\n      swap4\n      swap3\n      swap2\n      swap1\n      dup2\n      dup2\n      mstore\n      0x20\n      add\n      dup4\n      dup4\n      dup1\n      dup3\n      dup5\n      calldatacopy\n      0x00\n      dup2\n      dup5\n      add\n      mstore\n      not(0x1f)\n      0x1f\n      dup3\n      add\n      and\n      swap1\n      pop\n      dup1\n      dup4\n      add\n      swap3\n      pop\n      pop\n      pop\n      pop\n      pop\n      pop\n      pop\n        /* \"BLOCKCHAIN_GitHub/SOLIDITY/Projects/ETH_DENVER_BOOTCAMP/Homework_12/Exercises/Gas/contracts/GasOptimized.sol\":4904:4911  payment */\n      dup2\n        /* \"BLOCKCHAIN_GitHub/SOLIDITY/Projects/ETH_DENVER_BOOTCAMP/Homework_12/Exercises/Gas/contracts/GasOptimized.sol\":4904:4925  payment.recipientName */\n      0x60\n      add\n        /* \"BLOCKCHAIN_GitHub/SOLIDITY/Projects/ETH_DENVER_BOOTCAMP/Homework_12/Exercises/Gas/contracts/GasOptimized.sol\":4904:4933  payment.recipientName = _name */\n      dup2\n      swap1\n      mstore\n      pop\n        /* \"BLOCKCHAIN_GitHub/SOLIDITY/Projects/ETH_DENVER_BOOTCAMP/Homework_12/Exercises/Gas/contracts/GasOptimized.sol\":4961:4968  _amount */\n      dup5\n        /* \"BLOCKCHAIN_GitHub/SOLIDITY/Projects/ETH_DENVER_BOOTCAMP/Homework_12/Exercises/Gas/contracts/GasOptimized.sol\":4944:4951  payment */\n      dup2\n        /* \"BLOCKCHAIN_GitHub/SOLIDITY/Projects/ETH_DENVER_BOOTCAMP/Homework_12/Exercises/Gas/contracts/GasOptimized.sol\":4944:4958  payment.amount */\n      0xc0\n      add\n        /* \"BLOCKCHAIN_GitHub/SOLIDITY/Projects/ETH_DENVER_BOOTCAMP/Homework_12/Exercises/Gas/contracts/GasOptimized.sol\":4944:4968  payment.amount = _amount */\n      dup2\n      dup2\n      mstore\n      pop\n      pop\n        /* \"BLOCKCHAIN_GitHub/SOLIDITY/Projects/ETH_DENVER_BOOTCAMP/Homework_12/Exercises/Gas/contracts/GasOptimized.sol\":5001:5015  paymentCounter */\n      0x04\n      0x00\n        /* \"BLOCKCHAIN_GitHub/SOLIDITY/Projects/ETH_DENVER_BOOTCAMP/Homework_12/Exercises/Gas/contracts/GasOptimized.sol\":4999:5015  ++paymentCounter */\n      dup2\n      sload\n      tag_196\n      swap1\n      tag_182\n      jump\t// in\n    tag_196:\n      swap2\n      swap1\n      pop\n      dup2\n      swap1\n      sstore\n        /* \"BLOCKCHAIN_GitHub/SOLIDITY/Projects/ETH_DENVER_BOOTCAMP/Homework_12/Exercises/Gas/contracts/GasOptimized.sol\":4979:4986  payment */\n      dup2\n        /* \"BLOCKCHAIN_GitHub/SOLIDITY/Projects/ETH_DENVER_BOOTCAMP/Homework_12/Exercises/Gas/contracts/GasOptimized.sol\":4979:4996  payment.paymentID */\n      0x20\n      add\n        /* \"BLOCKCHAIN_GitHub/SOLIDITY/Projects/ETH_DENVER_BOOTCAMP/Homework_12/Exercises/Gas/contracts/GasOptimized.sol\":4979:5015  payment.paymentID = ++paymentCounter */\n      dup2\n      dup2\n      mstore\n      pop\n      pop\n        /* \"BLOCKCHAIN_GitHub/SOLIDITY/Projects/ETH_DENVER_BOOTCAMP/Homework_12/Exercises/Gas/contracts/GasOptimized.sol\":5026:5034  payments */\n      0x0e\n        /* \"BLOCKCHAIN_GitHub/SOLIDITY/Projects/ETH_DENVER_BOOTCAMP/Homework_12/Exercises/Gas/contracts/GasOptimized.sol\":5026:5046  payments[msg.sender] */\n      0x00\n        /* \"BLOCKCHAIN_GitHub/SOLIDITY/Projects/ETH_DENVER_BOOTCAMP/Homework_12/Exercises/Gas/contracts/GasOptimized.sol\":5035:5045  msg.sender */\n      caller\n        /* \"BLOCKCHAIN_GitHub/SOLIDITY/Projects/ETH_DENVER_BOOTCAMP/Homework_12/Exercises/Gas/contracts/GasOptimized.sol\":5026:5046  payments[msg.sender] */\n      0xffffffffffffffffffffffffffffffffffffffff\n      and\n      0xffffffffffffffffffffffffffffffffffffffff\n      and\n      dup2\n      mstore\n      0x20\n      add\n      swap1\n      dup2\n      mstore\n      0x20\n      add\n      0x00\n      keccak256\n        /* \"BLOCKCHAIN_GitHub/SOLIDITY/Projects/ETH_DENVER_BOOTCAMP/Homework_12/Exercises/Gas/contracts/GasOptimized.sol\":5052:5059  payment */\n      dup2\n        /* \"BLOCKCHAIN_GitHub/SOLIDITY/Projects/ETH_DENVER_BOOTCAMP/Homework_12/Exercises/Gas/contracts/GasOptimized.sol\":5026:5060  payments[msg.sender].push(payment) */\n      swap1\n      dup1\n      0x01\n      dup2\n      sload\n      add\n      dup1\n      dup3\n      sstore\n      dup1\n      swap2\n      pop\n      pop\n      0x01\n      swap1\n      sub\n      swap1\n      0x00\n      mstore\n      keccak256(0x00, 0x20)\n      swap1\n      0x06\n      mul\n      add\n      0x00\n      swap1\n      swap2\n      swap1\n      swap2\n      swap1\n      swap2\n      pop\n      0x00\n      dup3\n      add\n      mload\n      dup2\n      0x00\n      add\n      exp(0x0100, 0x00)\n      dup2\n      sload\n      dup2\n      0xff\n      mul\n      not\n      and\n      swap1\n      dup4\n      0x04\n      dup2\n      gt\n      iszero\n      tag_198\n      jumpi\n      tag_199\n      tag_116\n      jump\t// in\n    tag_199:\n    tag_198:\n      mul\n      or\n      swap1\n      sstore\n      pop\n      0x20\n      dup3\n      add\n      mload\n      dup2\n      0x01\n      add\n      sstore\n      0x40\n      dup3\n      add\n      mload\n      dup2\n      0x02\n      add\n      exp(0x0100, 0x00)\n      dup2\n      sload\n      dup2\n      0xffffffffffffffffffffffffffffffffffffffff\n      mul\n      not\n      and\n      swap1\n      dup4\n      0xffffffffffffffffffffffffffffffffffffffff\n      and\n      mul\n      or\n      swap1\n      sstore\n      pop\n      0x60\n      dup3\n      add\n      mload\n      dup2\n      0x03\n      add\n      swap1\n      dup2\n      tag_200\n      swap2\n      swap1\n      tag_201\n      jump\t// in\n    tag_200:\n      pop\n      0x80\n      dup3\n      add\n      mload\n      dup2\n      0x04\n      add\n      exp(0x0100, 0x00)\n      dup2\n      sload\n      dup2\n      0xff\n      mul\n      not\n      and\n      swap1\n      dup4\n      iszero\n      iszero\n      mul\n      or\n      swap1\n      sstore\n      pop\n      0xa0\n      dup3\n      add\n      mload\n      dup2\n      0x04\n      add\n      exp(0x0100, 0x01)\n      dup2\n      sload\n      dup2\n      0xffffffffffffffffffffffffffffffffffffffff\n      mul\n      not\n      and\n      swap1\n      dup4\n      0xffffffffffffffffffffffffffffffffffffffff\n      and\n      mul\n      or\n      swap1\n      sstore\n      pop\n      0xc0\n      dup3\n      add\n      mload\n      dup2\n      0x05\n      add\n      sstore\n      pop\n      pop\n        /* \"BLOCKCHAIN_GitHub/SOLIDITY/Projects/ETH_DENVER_BOOTCAMP/Homework_12/Exercises/Gas/contracts/GasOptimized.sol\":4435:5068  {... */\n      pop\n      pop\n        /* \"BLOCKCHAIN_GitHub/SOLIDITY/Projects/ETH_DENVER_BOOTCAMP/Homework_12/Exercises/Gas/contracts/GasOptimized.sol\":4350:5068  function transfer(address _recipient, uint256 _amount, string calldata _name) public {... */\n      pop\n      pop\n      pop\n      pop\n      jump\t// out\n        /* \"BLOCKCHAIN_GitHub/SOLIDITY/Projects/ETH_DENVER_BOOTCAMP/Homework_12/Exercises/Gas/contracts/GasOptimized.sol\":713:771  mapping(address => ImportantStruct) public whiteListStruct */\n    tag_55:\n      mstore(0x20, 0x0d)\n      dup1\n      0x00\n      mstore\n      keccak256(0x00, 0x40)\n      0x00\n      swap2\n      pop\n      swap1\n      pop\n      dup1\n      0x00\n      add\n      sload\n      swap1\n      dup1\n      0x01\n      add\n      sload\n      swap1\n      dup1\n      0x02\n      add\n      sload\n      swap1\n      pop\n      dup4\n      jump\t// out\n        /* \"BLOCKCHAIN_GitHub/SOLIDITY/Projects/ETH_DENVER_BOOTCAMP/Homework_12/Exercises/Gas/contracts/GasOptimized.sol\":3400:3541  function balanceOf(address _user) public view returns (uint256 balance) {... */\n    tag_60:\n        /* \"BLOCKCHAIN_GitHub/SOLIDITY/Projects/ETH_DENVER_BOOTCAMP/Homework_12/Exercises/Gas/contracts/GasOptimized.sol\":3455:3470  uint256 balance */\n      0x00\n        /* \"BLOCKCHAIN_GitHub/SOLIDITY/Projects/ETH_DENVER_BOOTCAMP/Homework_12/Exercises/Gas/contracts/GasOptimized.sol\":3493:3501  balances */\n      0x0b\n        /* \"BLOCKCHAIN_GitHub/SOLIDITY/Projects/ETH_DENVER_BOOTCAMP/Homework_12/Exercises/Gas/contracts/GasOptimized.sol\":3493:3508  balances[_user] */\n      0x00\n        /* \"BLOCKCHAIN_GitHub/SOLIDITY/Projects/ETH_DENVER_BOOTCAMP/Homework_12/Exercises/Gas/contracts/GasOptimized.sol\":3502:3507  _user */\n      dup4\n        /* \"BLOCKCHAIN_GitHub/SOLIDITY/Projects/ETH_DENVER_BOOTCAMP/Homework_12/Exercises/Gas/contracts/GasOptimized.sol\":3493:3508  balances[_user] */\n      0xffffffffffffffffffffffffffffffffffffffff\n      and\n      0xffffffffffffffffffffffffffffffffffffffff\n      and\n      dup2\n      mstore\n      0x20\n      add\n      swap1\n      dup2\n      mstore\n      0x20\n      add\n      0x00\n      keccak256\n      sload\n        /* \"BLOCKCHAIN_GitHub/SOLIDITY/Projects/ETH_DENVER_BOOTCAMP/Homework_12/Exercises/Gas/contracts/GasOptimized.sol\":3483:3508  balance = balances[_user] */\n      swap1\n      pop\n        /* \"BLOCKCHAIN_GitHub/SOLIDITY/Projects/ETH_DENVER_BOOTCAMP/Homework_12/Exercises/Gas/contracts/GasOptimized.sol\":3400:3541  function balanceOf(address _user) public view returns (uint256 balance) {... */\n      swap2\n      swap1\n      pop\n      jump\t// out\n        /* \"BLOCKCHAIN_GitHub/SOLIDITY/Projects/ETH_DENVER_BOOTCAMP/Homework_12/Exercises/Gas/contracts/Ownable.sol\":2485:2586  function renounceOwnership() public virtual onlyOwner {... */\n    tag_63:\n        /* \"BLOCKCHAIN_GitHub/SOLIDITY/Projects/ETH_DENVER_BOOTCAMP/Homework_12/Exercises/Gas/contracts/Ownable.sol\":1748:1761  _checkOwner() */\n      tag_204\n        /* \"BLOCKCHAIN_GitHub/SOLIDITY/Projects/ETH_DENVER_BOOTCAMP/Homework_12/Exercises/Gas/contracts/Ownable.sol\":1748:1759  _checkOwner */\n      tag_127\n        /* \"BLOCKCHAIN_GitHub/SOLIDITY/Projects/ETH_DENVER_BOOTCAMP/Homework_12/Exercises/Gas/contracts/Ownable.sol\":1748:1761  _checkOwner() */\n      jump\t// in\n    tag_204:\n        /* \"BLOCKCHAIN_GitHub/SOLIDITY/Projects/ETH_DENVER_BOOTCAMP/Homework_12/Exercises/Gas/contracts/Ownable.sol\":2549:2579  _transferOwnership(address(0)) */\n      tag_206\n        /* \"BLOCKCHAIN_GitHub/SOLIDITY/Projects/ETH_DENVER_BOOTCAMP/Homework_12/Exercises/Gas/contracts/Ownable.sol\":2576:2577  0 */\n      0x00\n        /* \"BLOCKCHAIN_GitHub/SOLIDITY/Projects/ETH_DENVER_BOOTCAMP/Homework_12/Exercises/Gas/contracts/Ownable.sol\":2549:2567  _transferOwnership */\n      tag_207\n        /* \"BLOCKCHAIN_GitHub/SOLIDITY/Projects/ETH_DENVER_BOOTCAMP/Homework_12/Exercises/Gas/contracts/Ownable.sol\":2549:2579  _transferOwnership(address(0)) */\n      jump\t// in\n    tag_206:\n        /* \"BLOCKCHAIN_GitHub/SOLIDITY/Projects/ETH_DENVER_BOOTCAMP/Homework_12/Exercises/Gas/contracts/Ownable.sol\":2485:2586  function renounceOwnership() public virtual onlyOwner {... */\n      jump\t// out\n        /* \"BLOCKCHAIN_GitHub/SOLIDITY/Projects/ETH_DENVER_BOOTCAMP/Homework_12/Exercises/Gas/contracts/GasOptimized.sol\":177:208  uint256 public dividendFlag = 1 */\n    tag_65:\n      sload(0x02)\n      dup2\n      jump\t// out\n        /* \"BLOCKCHAIN_GitHub/SOLIDITY/Projects/ETH_DENVER_BOOTCAMP/Homework_12/Exercises/Gas/contracts/GasOptimized.sol\":293:326  uint256 public paymentCounter = 0 */\n    tag_68:\n      sload(0x04)\n      dup2\n      jump\t// out\n        /* \"BLOCKCHAIN_GitHub/SOLIDITY/Projects/ETH_DENVER_BOOTCAMP/Homework_12/Exercises/Gas/contracts/Ownable.sol\":1855:1940  function owner() public view virtual returns (address) {... */\n    tag_71:\n        /* \"BLOCKCHAIN_GitHub/SOLIDITY/Projects/ETH_DENVER_BOOTCAMP/Homework_12/Exercises/Gas/contracts/Ownable.sol\":1901:1908  address */\n      0x00\n        /* \"BLOCKCHAIN_GitHub/SOLIDITY/Projects/ETH_DENVER_BOOTCAMP/Homework_12/Exercises/Gas/contracts/Ownable.sol\":1927:1933  _owner */\n      dup1\n      0x00\n      swap1\n      sload\n      swap1\n      0x0100\n      exp\n      swap1\n      div\n      0xffffffffffffffffffffffffffffffffffffffff\n      and\n        /* \"BLOCKCHAIN_GitHub/SOLIDITY/Projects/ETH_DENVER_BOOTCAMP/Homework_12/Exercises/Gas/contracts/Ownable.sol\":1920:1933  return _owner */\n      swap1\n      pop\n        /* \"BLOCKCHAIN_GitHub/SOLIDITY/Projects/ETH_DENVER_BOOTCAMP/Homework_12/Exercises/Gas/contracts/Ownable.sol\":1855:1940  function owner() public view virtual returns (address) {... */\n      swap1\n      jump\t// out\n        /* \"BLOCKCHAIN_GitHub/SOLIDITY/Projects/ETH_DENVER_BOOTCAMP/Homework_12/Exercises/Gas/contracts/GasOptimized.sol\":3808:4130  function addHistory(address _updateAddress, bool _tradeMode) public {... */\n    tag_77:\n        /* \"BLOCKCHAIN_GitHub/SOLIDITY/Projects/ETH_DENVER_BOOTCAMP/Homework_12/Exercises/Gas/contracts/GasOptimized.sol\":3887:3909  History memory history */\n      tag_210\n      tag_211\n      jump\t// in\n    tag_210:\n        /* \"BLOCKCHAIN_GitHub/SOLIDITY/Projects/ETH_DENVER_BOOTCAMP/Homework_12/Exercises/Gas/contracts/GasOptimized.sol\":3942:3954  block.number */\n      number\n        /* \"BLOCKCHAIN_GitHub/SOLIDITY/Projects/ETH_DENVER_BOOTCAMP/Homework_12/Exercises/Gas/contracts/GasOptimized.sol\":3920:3927  history */\n      dup2\n        /* \"BLOCKCHAIN_GitHub/SOLIDITY/Projects/ETH_DENVER_BOOTCAMP/Homework_12/Exercises/Gas/contracts/GasOptimized.sol\":3920:3939  history.blockNumber */\n      0x40\n      add\n        /* \"BLOCKCHAIN_GitHub/SOLIDITY/Projects/ETH_DENVER_BOOTCAMP/Homework_12/Exercises/Gas/contracts/GasOptimized.sol\":3920:3954  history.blockNumber = block.number */\n      dup2\n      dup2\n      mstore\n      pop\n      pop\n        /* \"BLOCKCHAIN_GitHub/SOLIDITY/Projects/ETH_DENVER_BOOTCAMP/Homework_12/Exercises/Gas/contracts/GasOptimized.sol\":3986:4001  block.timestamp */\n      timestamp\n        /* \"BLOCKCHAIN_GitHub/SOLIDITY/Projects/ETH_DENVER_BOOTCAMP/Homework_12/Exercises/Gas/contracts/GasOptimized.sol\":3965:3972  history */\n      dup2\n        /* \"BLOCKCHAIN_GitHub/SOLIDITY/Projects/ETH_DENVER_BOOTCAMP/Homework_12/Exercises/Gas/contracts/GasOptimized.sol\":3965:3983  history.lastUpdate */\n      0x00\n      add\n        /* \"BLOCKCHAIN_GitHub/SOLIDITY/Projects/ETH_DENVER_BOOTCAMP/Homework_12/Exercises/Gas/contracts/GasOptimized.sol\":3965:4001  history.lastUpdate = block.timestamp */\n      dup2\n      dup2\n      mstore\n      pop\n      pop\n        /* \"BLOCKCHAIN_GitHub/SOLIDITY/Projects/ETH_DENVER_BOOTCAMP/Homework_12/Exercises/Gas/contracts/GasOptimized.sol\":4032:4046  _updateAddress */\n      dup3\n        /* \"BLOCKCHAIN_GitHub/SOLIDITY/Projects/ETH_DENVER_BOOTCAMP/Homework_12/Exercises/Gas/contracts/GasOptimized.sol\":4012:4019  history */\n      dup2\n        /* \"BLOCKCHAIN_GitHub/SOLIDITY/Projects/ETH_DENVER_BOOTCAMP/Homework_12/Exercises/Gas/contracts/GasOptimized.sol\":4012:4029  history.updatedBy */\n      0x20\n      add\n        /* \"BLOCKCHAIN_GitHub/SOLIDITY/Projects/ETH_DENVER_BOOTCAMP/Homework_12/Exercises/Gas/contracts/GasOptimized.sol\":4012:4046  history.updatedBy = _updateAddress */\n      swap1\n      0xffffffffffffffffffffffffffffffffffffffff\n      and\n      swap1\n      dup2\n      0xffffffffffffffffffffffffffffffffffffffff\n      and\n      dup2\n      mstore\n      pop\n      pop\n        /* \"BLOCKCHAIN_GitHub/SOLIDITY/Projects/ETH_DENVER_BOOTCAMP/Homework_12/Exercises/Gas/contracts/GasOptimized.sol\":4073:4083  _tradeMode */\n      dup2\n        /* \"BLOCKCHAIN_GitHub/SOLIDITY/Projects/ETH_DENVER_BOOTCAMP/Homework_12/Exercises/Gas/contracts/GasOptimized.sol\":4057:4064  history */\n      dup2\n        /* \"BLOCKCHAIN_GitHub/SOLIDITY/Projects/ETH_DENVER_BOOTCAMP/Homework_12/Exercises/Gas/contracts/GasOptimized.sol\":4057:4070  history.trade */\n      0x60\n      add\n        /* \"BLOCKCHAIN_GitHub/SOLIDITY/Projects/ETH_DENVER_BOOTCAMP/Homework_12/Exercises/Gas/contracts/GasOptimized.sol\":4057:4083  history.trade = _tradeMode */\n      swap1\n      iszero\n      iszero\n      swap1\n      dup2\n      iszero\n      iszero\n      dup2\n      mstore\n      pop\n      pop\n        /* \"BLOCKCHAIN_GitHub/SOLIDITY/Projects/ETH_DENVER_BOOTCAMP/Homework_12/Exercises/Gas/contracts/GasOptimized.sol\":4094:4108  paymentHistory */\n      0x0f\n        /* \"BLOCKCHAIN_GitHub/SOLIDITY/Projects/ETH_DENVER_BOOTCAMP/Homework_12/Exercises/Gas/contracts/GasOptimized.sol\":4114:4121  history */\n      dup2\n        /* \"BLOCKCHAIN_GitHub/SOLIDITY/Projects/ETH_DENVER_BOOTCAMP/Homework_12/Exercises/Gas/contracts/GasOptimized.sol\":4094:4122  paymentHistory.push(history) */\n      swap1\n      dup1\n      0x01\n      dup2\n      sload\n      add\n      dup1\n      dup3\n      sstore\n      dup1\n      swap2\n      pop\n      pop\n      0x01\n      swap1\n      sub\n      swap1\n      0x00\n      mstore\n      keccak256(0x00, 0x20)\n      swap1\n      0x04\n      mul\n      add\n      0x00\n      swap1\n      swap2\n      swap1\n      swap2\n      swap1\n      swap2\n      pop\n      0x00\n      dup3\n      add\n      mload\n      dup2\n      0x00\n      add\n      sstore\n      0x20\n      dup3\n      add\n      mload\n      dup2\n      0x01\n      add\n      exp(0x0100, 0x00)\n      dup2\n      sload\n      dup2\n      0xffffffffffffffffffffffffffffffffffffffff\n      mul\n      not\n      and\n      swap1\n      dup4\n      0xffffffffffffffffffffffffffffffffffffffff\n      and\n      mul\n      or\n      swap1\n      sstore\n      pop\n      0x40\n      dup3\n      add\n      mload\n      dup2\n      0x02\n      add\n      sstore\n      0x60\n      dup3\n      add\n      mload\n      dup2\n      0x03\n      add\n      exp(0x0100, 0x00)\n      dup2\n      sload\n      dup2\n      0xff\n      mul\n      not\n      and\n      swap1\n      dup4\n      iszero\n      iszero\n      mul\n      or\n      swap1\n      sstore\n      pop\n      pop\n      pop\n        /* \"BLOCKCHAIN_GitHub/SOLIDITY/Projects/ETH_DENVER_BOOTCAMP/Homework_12/Exercises/Gas/contracts/GasOptimized.sol\":3876:4130  {... */\n      pop\n        /* \"BLOCKCHAIN_GitHub/SOLIDITY/Projects/ETH_DENVER_BOOTCAMP/Homework_12/Exercises/Gas/contracts/GasOptimized.sol\":3808:4130  function addHistory(address _updateAddress, bool _tradeMode) public {... */\n      pop\n      pop\n      jump\t// out\n        /* \"BLOCKCHAIN_GitHub/SOLIDITY/Projects/ETH_DENVER_BOOTCAMP/Homework_12/Exercises/Gas/contracts/GasOptimized.sol\":3549:3800  function getTradingMode() public view returns (bool _mode) {... */\n    tag_79:\n        /* \"BLOCKCHAIN_GitHub/SOLIDITY/Projects/ETH_DENVER_BOOTCAMP/Homework_12/Exercises/Gas/contracts/GasOptimized.sol\":3596:3606  bool _mode */\n      0x00\n        /* \"BLOCKCHAIN_GitHub/SOLIDITY/Projects/ETH_DENVER_BOOTCAMP/Homework_12/Exercises/Gas/contracts/GasOptimized.sol\":3619:3628  bool mode */\n      dup1\n        /* \"BLOCKCHAIN_GitHub/SOLIDITY/Projects/ETH_DENVER_BOOTCAMP/Homework_12/Exercises/Gas/contracts/GasOptimized.sol\":3631:3636  false */\n      0x00\n        /* \"BLOCKCHAIN_GitHub/SOLIDITY/Projects/ETH_DENVER_BOOTCAMP/Homework_12/Exercises/Gas/contracts/GasOptimized.sol\":3619:3636  bool mode = false */\n      swap1\n      pop\n        /* \"BLOCKCHAIN_GitHub/SOLIDITY/Projects/ETH_DENVER_BOOTCAMP/Homework_12/Exercises/Gas/contracts/GasOptimized.sol\":3664:3665  1 */\n      0x01\n        /* \"BLOCKCHAIN_GitHub/SOLIDITY/Projects/ETH_DENVER_BOOTCAMP/Homework_12/Exercises/Gas/contracts/GasOptimized.sol\":3651:3660  tradeFlag */\n      dup1\n      sload\n        /* \"BLOCKCHAIN_GitHub/SOLIDITY/Projects/ETH_DENVER_BOOTCAMP/Homework_12/Exercises/Gas/contracts/GasOptimized.sol\":3651:3665  tradeFlag == 1 */\n      eq\n        /* \"BLOCKCHAIN_GitHub/SOLIDITY/Projects/ETH_DENVER_BOOTCAMP/Homework_12/Exercises/Gas/contracts/GasOptimized.sol\":3651:3686  tradeFlag == 1 || dividendFlag == 1 */\n      dup1\n      tag_214\n      jumpi\n      pop\n        /* \"BLOCKCHAIN_GitHub/SOLIDITY/Projects/ETH_DENVER_BOOTCAMP/Homework_12/Exercises/Gas/contracts/GasOptimized.sol\":3685:3686  1 */\n      0x01\n        /* \"BLOCKCHAIN_GitHub/SOLIDITY/Projects/ETH_DENVER_BOOTCAMP/Homework_12/Exercises/Gas/contracts/GasOptimized.sol\":3669:3681  dividendFlag */\n      sload(0x02)\n        /* \"BLOCKCHAIN_GitHub/SOLIDITY/Projects/ETH_DENVER_BOOTCAMP/Homework_12/Exercises/Gas/contracts/GasOptimized.sol\":3669:3686  dividendFlag == 1 */\n      eq\n        /* \"BLOCKCHAIN_GitHub/SOLIDITY/Projects/ETH_DENVER_BOOTCAMP/Homework_12/Exercises/Gas/contracts/GasOptimized.sol\":3651:3686  tradeFlag == 1 || dividendFlag == 1 */\n    tag_214:\n        /* \"BLOCKCHAIN_GitHub/SOLIDITY/Projects/ETH_DENVER_BOOTCAMP/Homework_12/Exercises/Gas/contracts/GasOptimized.sol\":3647:3771  if (tradeFlag == 1 || dividendFlag == 1) {... */\n      iszero\n      tag_215\n      jumpi\n        /* \"BLOCKCHAIN_GitHub/SOLIDITY/Projects/ETH_DENVER_BOOTCAMP/Homework_12/Exercises/Gas/contracts/GasOptimized.sol\":3710:3714  true */\n      0x01\n        /* \"BLOCKCHAIN_GitHub/SOLIDITY/Projects/ETH_DENVER_BOOTCAMP/Homework_12/Exercises/Gas/contracts/GasOptimized.sol\":3703:3714  mode = true */\n      swap1\n      pop\n        /* \"BLOCKCHAIN_GitHub/SOLIDITY/Projects/ETH_DENVER_BOOTCAMP/Homework_12/Exercises/Gas/contracts/GasOptimized.sol\":3647:3771  if (tradeFlag == 1 || dividendFlag == 1) {... */\n      jump(tag_216)\n    tag_215:\n        /* \"BLOCKCHAIN_GitHub/SOLIDITY/Projects/ETH_DENVER_BOOTCAMP/Homework_12/Exercises/Gas/contracts/GasOptimized.sol\":3754:3759  false */\n      0x00\n        /* \"BLOCKCHAIN_GitHub/SOLIDITY/Projects/ETH_DENVER_BOOTCAMP/Homework_12/Exercises/Gas/contracts/GasOptimized.sol\":3747:3759  mode = false */\n      swap1\n      pop\n        /* \"BLOCKCHAIN_GitHub/SOLIDITY/Projects/ETH_DENVER_BOOTCAMP/Homework_12/Exercises/Gas/contracts/GasOptimized.sol\":3647:3771  if (tradeFlag == 1 || dividendFlag == 1) {... */\n    tag_216:\n        /* \"BLOCKCHAIN_GitHub/SOLIDITY/Projects/ETH_DENVER_BOOTCAMP/Homework_12/Exercises/Gas/contracts/GasOptimized.sol\":3788:3792  mode */\n      dup1\n        /* \"BLOCKCHAIN_GitHub/SOLIDITY/Projects/ETH_DENVER_BOOTCAMP/Homework_12/Exercises/Gas/contracts/GasOptimized.sol\":3781:3792  return mode */\n      swap2\n      pop\n      pop\n        /* \"BLOCKCHAIN_GitHub/SOLIDITY/Projects/ETH_DENVER_BOOTCAMP/Homework_12/Exercises/Gas/contracts/GasOptimized.sol\":3549:3800  function getTradingMode() public view returns (bool _mode) {... */\n      swap1\n      jump\t// out\n        /* \"BLOCKCHAIN_GitHub/SOLIDITY/Projects/ETH_DENVER_BOOTCAMP/Homework_12/Exercises/Gas/contracts/GasOptimized.sol\":450:494  mapping(address => uint256) public whitelist */\n    tag_84:\n      mstore(0x20, 0x0c)\n      dup1\n      0x00\n      mstore\n      keccak256(0x00, 0x40)\n      0x00\n      swap2\n      pop\n      swap1\n      pop\n      sload\n      dup2\n      jump\t// out\n        /* \"BLOCKCHAIN_GitHub/SOLIDITY/Projects/ETH_DENVER_BOOTCAMP/Homework_12/Exercises/Gas/contracts/GasOptimized.sol\":1433:1464  History[] public paymentHistory */\n    tag_89:\n      0x0f\n      dup2\n      dup2\n      sload\n      dup2\n      lt\n      tag_217\n      jumpi\n      0x00\n      dup1\n      revert\n    tag_217:\n      swap1\n      0x00\n      mstore\n      keccak256(0x00, 0x20)\n      swap1\n      0x04\n      mul\n      add\n      0x00\n      swap2\n      pop\n      swap1\n      pop\n      dup1\n      0x00\n      add\n      sload\n      swap1\n      dup1\n      0x01\n      add\n      0x00\n      swap1\n      sload\n      swap1\n      0x0100\n      exp\n      swap1\n      div\n      0xffffffffffffffffffffffffffffffffffffffff\n      and\n      swap1\n      dup1\n      0x02\n      add\n      sload\n      swap1\n      dup1\n      0x03\n      add\n      0x00\n      swap1\n      sload\n      swap1\n      0x0100\n      exp\n      swap1\n      div\n      0xff\n      and\n      swap1\n      pop\n      dup5\n      jump\t// out\n        /* \"BLOCKCHAIN_GitHub/SOLIDITY/Projects/ETH_DENVER_BOOTCAMP/Homework_12/Exercises/Gas/contracts/GasOptimized.sol\":3065:3392  function checkForAdmin(address _user) public view returns (bool admin_) {... */\n    tag_94:\n        /* \"BLOCKCHAIN_GitHub/SOLIDITY/Projects/ETH_DENVER_BOOTCAMP/Homework_12/Exercises/Gas/contracts/GasOptimized.sol\":3124:3135  bool admin_ */\n      0x00\n        /* \"BLOCKCHAIN_GitHub/SOLIDITY/Projects/ETH_DENVER_BOOTCAMP/Homework_12/Exercises/Gas/contracts/GasOptimized.sol\":3148:3158  bool admin */\n      dup1\n        /* \"BLOCKCHAIN_GitHub/SOLIDITY/Projects/ETH_DENVER_BOOTCAMP/Homework_12/Exercises/Gas/contracts/GasOptimized.sol\":3161:3166  false */\n      0x00\n        /* \"BLOCKCHAIN_GitHub/SOLIDITY/Projects/ETH_DENVER_BOOTCAMP/Homework_12/Exercises/Gas/contracts/GasOptimized.sol\":3148:3166  bool admin = false */\n      swap1\n      pop\n        /* \"BLOCKCHAIN_GitHub/SOLIDITY/Projects/ETH_DENVER_BOOTCAMP/Homework_12/Exercises/Gas/contracts/GasOptimized.sol\":3182:3192  uint256 ii */\n      0x00\n        /* \"BLOCKCHAIN_GitHub/SOLIDITY/Projects/ETH_DENVER_BOOTCAMP/Homework_12/Exercises/Gas/contracts/GasOptimized.sol\":3177:3362  for (uint256 ii = 0; ii < administrators.length; ii++) {... */\n    tag_220:\n        /* \"BLOCKCHAIN_GitHub/SOLIDITY/Projects/ETH_DENVER_BOOTCAMP/Homework_12/Exercises/Gas/contracts/GasOptimized.sol\":3203:3224  administrators.length */\n      0x05\n        /* \"BLOCKCHAIN_GitHub/SOLIDITY/Projects/ETH_DENVER_BOOTCAMP/Homework_12/Exercises/Gas/contracts/GasOptimized.sol\":3198:3200  ii */\n      dup2\n        /* \"BLOCKCHAIN_GitHub/SOLIDITY/Projects/ETH_DENVER_BOOTCAMP/Homework_12/Exercises/Gas/contracts/GasOptimized.sol\":3198:3224  ii < administrators.length */\n      lt\n        /* \"BLOCKCHAIN_GitHub/SOLIDITY/Projects/ETH_DENVER_BOOTCAMP/Homework_12/Exercises/Gas/contracts/GasOptimized.sol\":3177:3362  for (uint256 ii = 0; ii < administrators.length; ii++) {... */\n      iszero\n      tag_221\n      jumpi\n        /* \"BLOCKCHAIN_GitHub/SOLIDITY/Projects/ETH_DENVER_BOOTCAMP/Homework_12/Exercises/Gas/contracts/GasOptimized.sol\":3273:3278  _user */\n      dup4\n        /* \"BLOCKCHAIN_GitHub/SOLIDITY/Projects/ETH_DENVER_BOOTCAMP/Homework_12/Exercises/Gas/contracts/GasOptimized.sol\":3251:3278  administrators[ii] == _user */\n      0xffffffffffffffffffffffffffffffffffffffff\n      and\n        /* \"BLOCKCHAIN_GitHub/SOLIDITY/Projects/ETH_DENVER_BOOTCAMP/Homework_12/Exercises/Gas/contracts/GasOptimized.sol\":3251:3265  administrators */\n      0x06\n        /* \"BLOCKCHAIN_GitHub/SOLIDITY/Projects/ETH_DENVER_BOOTCAMP/Homework_12/Exercises/Gas/contracts/GasOptimized.sol\":3266:3268  ii */\n      dup3\n        /* \"BLOCKCHAIN_GitHub/SOLIDITY/Projects/ETH_DENVER_BOOTCAMP/Homework_12/Exercises/Gas/contracts/GasOptimized.sol\":3251:3269  administrators[ii] */\n      0x05\n      dup2\n      lt\n      tag_223\n      jumpi\n      tag_224\n      tag_157\n      jump\t// in\n    tag_224:\n    tag_223:\n      add\n      0x00\n      swap1\n      sload\n      swap1\n      0x0100\n      exp\n      swap1\n      div\n      0xffffffffffffffffffffffffffffffffffffffff\n      and\n        /* \"BLOCKCHAIN_GitHub/SOLIDITY/Projects/ETH_DENVER_BOOTCAMP/Homework_12/Exercises/Gas/contracts/GasOptimized.sol\":3251:3278  administrators[ii] == _user */\n      0xffffffffffffffffffffffffffffffffffffffff\n      and\n      sub\n        /* \"BLOCKCHAIN_GitHub/SOLIDITY/Projects/ETH_DENVER_BOOTCAMP/Homework_12/Exercises/Gas/contracts/GasOptimized.sol\":3247:3351  if (administrators[ii] == _user) {... */\n      tag_226\n      jumpi\n        /* \"BLOCKCHAIN_GitHub/SOLIDITY/Projects/ETH_DENVER_BOOTCAMP/Homework_12/Exercises/Gas/contracts/GasOptimized.sol\":3307:3311  true */\n      0x01\n        /* \"BLOCKCHAIN_GitHub/SOLIDITY/Projects/ETH_DENVER_BOOTCAMP/Homework_12/Exercises/Gas/contracts/GasOptimized.sol\":3299:3311  admin = true */\n      swap2\n      pop\n        /* \"BLOCKCHAIN_GitHub/SOLIDITY/Projects/ETH_DENVER_BOOTCAMP/Homework_12/Exercises/Gas/contracts/GasOptimized.sol\":3330:3335  break */\n      jump(tag_221)\n        /* \"BLOCKCHAIN_GitHub/SOLIDITY/Projects/ETH_DENVER_BOOTCAMP/Homework_12/Exercises/Gas/contracts/GasOptimized.sol\":3247:3351  if (administrators[ii] == _user) {... */\n    tag_226:\n        /* \"BLOCKCHAIN_GitHub/SOLIDITY/Projects/ETH_DENVER_BOOTCAMP/Homework_12/Exercises/Gas/contracts/GasOptimized.sol\":3226:3230  ii++ */\n      dup1\n      dup1\n      tag_227\n      swap1\n      tag_182\n      jump\t// in\n    tag_227:\n      swap2\n      pop\n      pop\n        /* \"BLOCKCHAIN_GitHub/SOLIDITY/Projects/ETH_DENVER_BOOTCAMP/Homework_12/Exercises/Gas/contracts/GasOptimized.sol\":3177:3362  for (uint256 ii = 0; ii < administrators.length; ii++) {... */\n      jump(tag_220)\n    tag_221:\n      pop\n        /* \"BLOCKCHAIN_GitHub/SOLIDITY/Projects/ETH_DENVER_BOOTCAMP/Homework_12/Exercises/Gas/contracts/GasOptimized.sol\":3379:3384  admin */\n      dup1\n        /* \"BLOCKCHAIN_GitHub/SOLIDITY/Projects/ETH_DENVER_BOOTCAMP/Homework_12/Exercises/Gas/contracts/GasOptimized.sol\":3372:3384  return admin */\n      swap2\n      pop\n      pop\n        /* \"BLOCKCHAIN_GitHub/SOLIDITY/Projects/ETH_DENVER_BOOTCAMP/Homework_12/Exercises/Gas/contracts/GasOptimized.sol\":3065:3392  function checkForAdmin(address _user) public view returns (bool admin_) {... */\n      swap2\n      swap1\n      pop\n      jump\t// out\n        /* \"BLOCKCHAIN_GitHub/SOLIDITY/Projects/ETH_DENVER_BOOTCAMP/Homework_12/Exercises/Gas/contracts/GasOptimized.sol\":142:170  uint256 public tradeFlag = 1 */\n    tag_97:\n      sload(0x01)\n      dup2\n      jump\t// out\n        /* \"BLOCKCHAIN_GitHub/SOLIDITY/Projects/ETH_DENVER_BOOTCAMP/Homework_12/Exercises/Gas/contracts/GasOptimized.sol\":333:361  address public contractOwner */\n    tag_100:\n      0x05\n      0x00\n      swap1\n      sload\n      swap1\n      0x0100\n      exp\n      swap1\n      div\n      0xffffffffffffffffffffffffffffffffffffffff\n      and\n      dup2\n      jump\t// out\n        /* \"BLOCKCHAIN_GitHub/SOLIDITY/Projects/ETH_DENVER_BOOTCAMP/Homework_12/Exercises/Gas/contracts/GasOptimized.sol\":368:400  address[5] public administrators */\n    tag_104:\n      0x06\n      dup2\n      0x05\n      dup2\n      lt\n      tag_228\n      jumpi\n      0x00\n      dup1\n      revert\n    tag_228:\n      add\n      0x00\n      swap2\n      pop\n      sload\n      swap1\n      0x0100\n      exp\n      swap1\n      div\n      0xffffffffffffffffffffffffffffffffffffffff\n      and\n      dup2\n      jump\t// out\n        /* \"BLOCKCHAIN_GitHub/SOLIDITY/Projects/ETH_DENVER_BOOTCAMP/Homework_12/Exercises/Gas/contracts/Ownable.sol\":2735:2967  function transferOwnership(address newOwner) public virtual onlyOwner {... */\n    tag_108:\n        /* \"BLOCKCHAIN_GitHub/SOLIDITY/Projects/ETH_DENVER_BOOTCAMP/Homework_12/Exercises/Gas/contracts/Ownable.sol\":1748:1761  _checkOwner() */\n      tag_231\n        /* \"BLOCKCHAIN_GitHub/SOLIDITY/Projects/ETH_DENVER_BOOTCAMP/Homework_12/Exercises/Gas/contracts/Ownable.sol\":1748:1759  _checkOwner */\n      tag_127\n        /* \"BLOCKCHAIN_GitHub/SOLIDITY/Projects/ETH_DENVER_BOOTCAMP/Homework_12/Exercises/Gas/contracts/Ownable.sol\":1748:1761  _checkOwner() */\n      jump\t// in\n    tag_231:\n        /* \"BLOCKCHAIN_GitHub/SOLIDITY/Projects/ETH_DENVER_BOOTCAMP/Homework_12/Exercises/Gas/contracts/Ownable.sol\":2856:2857  0 */\n      0x00\n        /* \"BLOCKCHAIN_GitHub/SOLIDITY/Projects/ETH_DENVER_BOOTCAMP/Homework_12/Exercises/Gas/contracts/Ownable.sol\":2836:2858  newOwner != address(0) */\n      0xffffffffffffffffffffffffffffffffffffffff\n      and\n        /* \"BLOCKCHAIN_GitHub/SOLIDITY/Projects/ETH_DENVER_BOOTCAMP/Homework_12/Exercises/Gas/contracts/Ownable.sol\":2836:2844  newOwner */\n      dup2\n        /* \"BLOCKCHAIN_GitHub/SOLIDITY/Projects/ETH_DENVER_BOOTCAMP/Homework_12/Exercises/Gas/contracts/Ownable.sol\":2836:2858  newOwner != address(0) */\n      0xffffffffffffffffffffffffffffffffffffffff\n      and\n      sub\n        /* \"BLOCKCHAIN_GitHub/SOLIDITY/Projects/ETH_DENVER_BOOTCAMP/Homework_12/Exercises/Gas/contracts/Ownable.sol\":2815:2922  require(... */\n      tag_233\n      jumpi\n      mload(0x40)\n      0x08c379a000000000000000000000000000000000000000000000000000000000\n      dup2\n      mstore\n      0x04\n      add\n      tag_234\n      swap1\n      tag_235\n      jump\t// in\n    tag_234:\n      mload(0x40)\n      dup1\n      swap2\n      sub\n      swap1\n      revert\n    tag_233:\n        /* \"BLOCKCHAIN_GitHub/SOLIDITY/Projects/ETH_DENVER_BOOTCAMP/Homework_12/Exercises/Gas/contracts/Ownable.sol\":2932:2960  _transferOwnership(newOwner) */\n      tag_236\n        /* \"BLOCKCHAIN_GitHub/SOLIDITY/Projects/ETH_DENVER_BOOTCAMP/Homework_12/Exercises/Gas/contracts/Ownable.sol\":2951:2959  newOwner */\n      dup2\n        /* \"BLOCKCHAIN_GitHub/SOLIDITY/Projects/ETH_DENVER_BOOTCAMP/Homework_12/Exercises/Gas/contracts/Ownable.sol\":2932:2950  _transferOwnership */\n      tag_207\n        /* \"BLOCKCHAIN_GitHub/SOLIDITY/Projects/ETH_DENVER_BOOTCAMP/Homework_12/Exercises/Gas/contracts/Ownable.sol\":2932:2960  _transferOwnership(newOwner) */\n      jump\t// in\n    tag_236:\n        /* \"BLOCKCHAIN_GitHub/SOLIDITY/Projects/ETH_DENVER_BOOTCAMP/Homework_12/Exercises/Gas/contracts/Ownable.sol\":2735:2967  function transferOwnership(address newOwner) public virtual onlyOwner {... */\n      pop\n      jump\t// out\n        /* \"BLOCKCHAIN_GitHub/SOLIDITY/Projects/ETH_DENVER_BOOTCAMP/Homework_12/Exercises/Gas/contracts/Ownable.sol\":2013:2143  function _checkOwner() internal view virtual {... */\n    tag_127:\n        /* \"BLOCKCHAIN_GitHub/SOLIDITY/Projects/ETH_DENVER_BOOTCAMP/Homework_12/Exercises/Gas/contracts/Ownable.sol\":2087:2099  _msgSender() */\n      tag_238\n        /* \"BLOCKCHAIN_GitHub/SOLIDITY/Projects/ETH_DENVER_BOOTCAMP/Homework_12/Exercises/Gas/contracts/Ownable.sol\":2087:2097  _msgSender */\n      tag_239\n        /* \"BLOCKCHAIN_GitHub/SOLIDITY/Projects/ETH_DENVER_BOOTCAMP/Homework_12/Exercises/Gas/contracts/Ownable.sol\":2087:2099  _msgSender() */\n      jump\t// in\n    tag_238:\n        /* \"BLOCKCHAIN_GitHub/SOLIDITY/Projects/ETH_DENVER_BOOTCAMP/Homework_12/Exercises/Gas/contracts/Ownable.sol\":2076:2099  owner() == _msgSender() */\n      0xffffffffffffffffffffffffffffffffffffffff\n      and\n        /* \"BLOCKCHAIN_GitHub/SOLIDITY/Projects/ETH_DENVER_BOOTCAMP/Homework_12/Exercises/Gas/contracts/Ownable.sol\":2076:2083  owner() */\n      tag_240\n        /* \"BLOCKCHAIN_GitHub/SOLIDITY/Projects/ETH_DENVER_BOOTCAMP/Homework_12/Exercises/Gas/contracts/Ownable.sol\":2076:2081  owner */\n      tag_71\n        /* \"BLOCKCHAIN_GitHub/SOLIDITY/Projects/ETH_DENVER_BOOTCAMP/Homework_12/Exercises/Gas/contracts/Ownable.sol\":2076:2083  owner() */\n      jump\t// in\n    tag_240:\n        /* \"BLOCKCHAIN_GitHub/SOLIDITY/Projects/ETH_DENVER_BOOTCAMP/Homework_12/Exercises/Gas/contracts/Ownable.sol\":2076:2099  owner() == _msgSender() */\n      0xffffffffffffffffffffffffffffffffffffffff\n      and\n      eq\n        /* \"BLOCKCHAIN_GitHub/SOLIDITY/Projects/ETH_DENVER_BOOTCAMP/Homework_12/Exercises/Gas/contracts/Ownable.sol\":2068:2136  require(owner() == _msgSender(), \"Ownable: caller is not the owner\") */\n      tag_241\n      jumpi\n      mload(0x40)\n      0x08c379a000000000000000000000000000000000000000000000000000000000\n      dup2\n      mstore\n      0x04\n      add\n      tag_242\n      swap1\n      tag_243\n      jump\t// in\n    tag_242:\n      mload(0x40)\n      dup1\n      swap2\n      sub\n      swap1\n      revert\n    tag_241:\n        /* \"BLOCKCHAIN_GitHub/SOLIDITY/Projects/ETH_DENVER_BOOTCAMP/Homework_12/Exercises/Gas/contracts/Ownable.sol\":2013:2143  function _checkOwner() internal view virtual {... */\n      jump\t// out\n        /* \"BLOCKCHAIN_GitHub/SOLIDITY/Projects/ETH_DENVER_BOOTCAMP/Homework_12/Exercises/Gas/contracts/Ownable.sol\":3121:3308  function _transferOwnership(address newOwner) internal virtual {... */\n    tag_207:\n        /* \"BLOCKCHAIN_GitHub/SOLIDITY/Projects/ETH_DENVER_BOOTCAMP/Homework_12/Exercises/Gas/contracts/Ownable.sol\":3194:3210  address oldOwner */\n      0x00\n        /* \"BLOCKCHAIN_GitHub/SOLIDITY/Projects/ETH_DENVER_BOOTCAMP/Homework_12/Exercises/Gas/contracts/Ownable.sol\":3213:3219  _owner */\n      dup1\n      0x00\n      swap1\n      sload\n      swap1\n      0x0100\n      exp\n      swap1\n      div\n      0xffffffffffffffffffffffffffffffffffffffff\n      and\n        /* \"BLOCKCHAIN_GitHub/SOLIDITY/Projects/ETH_DENVER_BOOTCAMP/Homework_12/Exercises/Gas/contracts/Ownable.sol\":3194:3219  address oldOwner = _owner */\n      swap1\n      pop\n        /* \"BLOCKCHAIN_GitHub/SOLIDITY/Projects/ETH_DENVER_BOOTCAMP/Homework_12/Exercises/Gas/contracts/Ownable.sol\":3238:3246  newOwner */\n      dup2\n        /* \"BLOCKCHAIN_GitHub/SOLIDITY/Projects/ETH_DENVER_BOOTCAMP/Homework_12/Exercises/Gas/contracts/Ownable.sol\":3229:3235  _owner */\n      0x00\n      dup1\n        /* \"BLOCKCHAIN_GitHub/SOLIDITY/Projects/ETH_DENVER_BOOTCAMP/Homework_12/Exercises/Gas/contracts/Ownable.sol\":3229:3246  _owner = newOwner */\n      0x0100\n      exp\n      dup2\n      sload\n      dup2\n      0xffffffffffffffffffffffffffffffffffffffff\n      mul\n      not\n      and\n      swap1\n      dup4\n      0xffffffffffffffffffffffffffffffffffffffff\n      and\n      mul\n      or\n      swap1\n      sstore\n      pop\n        /* \"BLOCKCHAIN_GitHub/SOLIDITY/Projects/ETH_DENVER_BOOTCAMP/Homework_12/Exercises/Gas/contracts/Ownable.sol\":3292:3300  newOwner */\n      dup2\n        /* \"BLOCKCHAIN_GitHub/SOLIDITY/Projects/ETH_DENVER_BOOTCAMP/Homework_12/Exercises/Gas/contracts/Ownable.sol\":3261:3301  OwnershipTransferred(oldOwner, newOwner) */\n      0xffffffffffffffffffffffffffffffffffffffff\n      and\n        /* \"BLOCKCHAIN_GitHub/SOLIDITY/Projects/ETH_DENVER_BOOTCAMP/Homework_12/Exercises/Gas/contracts/Ownable.sol\":3282:3290  oldOwner */\n      dup2\n        /* \"BLOCKCHAIN_GitHub/SOLIDITY/Projects/ETH_DENVER_BOOTCAMP/Homework_12/Exercises/Gas/contracts/Ownable.sol\":3261:3301  OwnershipTransferred(oldOwner, newOwner) */\n      0xffffffffffffffffffffffffffffffffffffffff\n      and\n      0x8be0079c531659141344cd1fd0a4f28419497f9722a3daafe3b4186f6b6457e0\n      mload(0x40)\n      mload(0x40)\n      dup1\n      swap2\n      sub\n      swap1\n      log3\n        /* \"BLOCKCHAIN_GitHub/SOLIDITY/Projects/ETH_DENVER_BOOTCAMP/Homework_12/Exercises/Gas/contracts/Ownable.sol\":3184:3308  {... */\n      pop\n        /* \"BLOCKCHAIN_GitHub/SOLIDITY/Projects/ETH_DENVER_BOOTCAMP/Homework_12/Exercises/Gas/contracts/Ownable.sol\":3121:3308  function _transferOwnership(address newOwner) internal virtual {... */\n      pop\n      jump\t// out\n        /* \"BLOCKCHAIN_GitHub/SOLIDITY/Projects/ETH_DENVER_BOOTCAMP/Homework_12/Exercises/Gas/contracts/Ownable.sol\":586:682  function _msgSender() internal view virtual returns (address) {... */\n    tag_239:\n        /* \"BLOCKCHAIN_GitHub/SOLIDITY/Projects/ETH_DENVER_BOOTCAMP/Homework_12/Exercises/Gas/contracts/Ownable.sol\":639:646  address */\n      0x00\n        /* \"BLOCKCHAIN_GitHub/SOLIDITY/Projects/ETH_DENVER_BOOTCAMP/Homework_12/Exercises/Gas/contracts/Ownable.sol\":665:675  msg.sender */\n      caller\n        /* \"BLOCKCHAIN_GitHub/SOLIDITY/Projects/ETH_DENVER_BOOTCAMP/Homework_12/Exercises/Gas/contracts/Ownable.sol\":658:675  return msg.sender */\n      swap1\n      pop\n        /* \"BLOCKCHAIN_GitHub/SOLIDITY/Projects/ETH_DENVER_BOOTCAMP/Homework_12/Exercises/Gas/contracts/Ownable.sol\":586:682  function _msgSender() internal view virtual returns (address) {... */\n      swap1\n      jump\t// out\n    tag_191:\n      mload(0x40)\n      dup1\n      0xe0\n      add\n      0x40\n      mstore\n      dup1\n      0x00\n      0x04\n      dup2\n      gt\n      iszero\n      tag_246\n      jumpi\n      tag_247\n      tag_116\n      jump\t// in\n    tag_247:\n    tag_246:\n      dup2\n      mstore\n      0x20\n      add\n      0x00\n      dup2\n      mstore\n      0x20\n      add\n      and(0xffffffffffffffffffffffffffffffffffffffff, 0x00)\n      dup2\n      mstore\n      0x20\n      add\n      0x60\n      dup2\n      mstore\n      0x20\n      add\n      iszero(iszero(0x00))\n      dup2\n      mstore\n      0x20\n      add\n      and(0xffffffffffffffffffffffffffffffffffffffff, 0x00)\n      dup2\n      mstore\n      0x20\n      add\n      0x00\n      dup2\n      mstore\n      pop\n      swap1\n      jump\t// out\n    tag_211:\n      mload(0x40)\n      dup1\n      0x80\n      add\n      0x40\n      mstore\n      dup1\n      0x00\n      dup2\n      mstore\n      0x20\n      add\n      and(0xffffffffffffffffffffffffffffffffffffffff, 0x00)\n      dup2\n      mstore\n      0x20\n      add\n      0x00\n      dup2\n      mstore\n      0x20\n      add\n      iszero(iszero(0x00))\n      dup2\n      mstore\n      pop\n      swap1\n      jump\t// out\n        /* \"#utility.yul\":7:84   */\n    tag_248:\n        /* \"#utility.yul\":44:51   */\n      0x00\n        /* \"#utility.yul\":73:78   */\n      dup2\n        /* \"#utility.yul\":62:78   */\n      swap1\n      pop\n        /* \"#utility.yul\":7:84   */\n      swap2\n      swap1\n      pop\n      jump\t// out\n        /* \"#utility.yul\":90:208   */\n    tag_249:\n        /* \"#utility.yul\":177:201   */\n      tag_321\n        /* \"#utility.yul\":195:200   */\n      dup2\n        /* \"#utility.yul\":177:201   */\n      tag_248\n      jump\t// in\n    tag_321:\n        /* \"#utility.yul\":172:175   */\n      dup3\n        /* \"#utility.yul\":165:202   */\n      mstore\n        /* \"#utility.yul\":90:208   */\n      pop\n      pop\n      jump\t// out\n        /* \"#utility.yul\":214:436   */\n    tag_30:\n        /* \"#utility.yul\":307:311   */\n      0x00\n        /* \"#utility.yul\":345:347   */\n      0x20\n        /* \"#utility.yul\":334:343   */\n      dup3\n        /* \"#utility.yul\":330:348   */\n      add\n        /* \"#utility.yul\":322:348   */\n      swap1\n      pop\n        /* \"#utility.yul\":358:429   */\n      tag_323\n        /* \"#utility.yul\":426:427   */\n      0x00\n        /* \"#utility.yul\":415:424   */\n      dup4\n        /* \"#utility.yul\":411:428   */\n      add\n        /* \"#utility.yul\":402:408   */\n      dup5\n        /* \"#utility.yul\":358:429   */\n      tag_249\n      jump\t// in\n    tag_323:\n        /* \"#utility.yul\":214:436   */\n      swap3\n      swap2\n      pop\n      pop\n      jump\t// out\n        /* \"#utility.yul\":442:517   */\n    tag_250:\n        /* \"#utility.yul\":475:481   */\n      0x00\n        /* \"#utility.yul\":508:510   */\n      0x40\n        /* \"#utility.yul\":502:511   */\n      mload\n        /* \"#utility.yul\":492:511   */\n      swap1\n      pop\n        /* \"#utility.yul\":442:517   */\n      swap1\n      jump\t// out\n        /* \"#utility.yul\":523:640   */\n    tag_251:\n        /* \"#utility.yul\":632:633   */\n      0x00\n        /* \"#utility.yul\":629:630   */\n      dup1\n        /* \"#utility.yul\":622:634   */\n      revert\n        /* \"#utility.yul\":646:763   */\n    tag_252:\n        /* \"#utility.yul\":755:756   */\n      0x00\n        /* \"#utility.yul\":752:753   */\n      dup1\n        /* \"#utility.yul\":745:757   */\n      revert\n        /* \"#utility.yul\":769:895   */\n    tag_253:\n        /* \"#utility.yul\":806:813   */\n      0x00\n        /* \"#utility.yul\":846:888   */\n      0xffffffffffffffffffffffffffffffffffffffff\n        /* \"#utility.yul\":839:844   */\n      dup3\n        /* \"#utility.yul\":835:889   */\n      and\n        /* \"#utility.yul\":824:889   */\n      swap1\n      pop\n        /* \"#utility.yul\":769:895   */\n      swap2\n      swap1\n      pop\n      jump\t// out\n        /* \"#utility.yul\":901:997   */\n    tag_254:\n        /* \"#utility.yul\":938:945   */\n      0x00\n        /* \"#utility.yul\":967:991   */\n      tag_329\n        /* \"#utility.yul\":985:990   */\n      dup3\n        /* \"#utility.yul\":967:991   */\n      tag_253\n      jump\t// in\n    tag_329:\n        /* \"#utility.yul\":956:991   */\n      swap1\n      pop\n        /* \"#utility.yul\":901:997   */\n      swap2\n      swap1\n      pop\n      jump\t// out\n        /* \"#utility.yul\":1003:1125   */\n    tag_255:\n        /* \"#utility.yul\":1076:1100   */\n      tag_331\n        /* \"#utility.yul\":1094:1099   */\n      dup2\n        /* \"#utility.yul\":1076:1100   */\n      tag_254\n      jump\t// in\n    tag_331:\n        /* \"#utility.yul\":1069:1074   */\n      dup2\n        /* \"#utility.yul\":1066:1101   */\n      eq\n        /* \"#utility.yul\":1056:1119   */\n      tag_332\n      jumpi\n        /* \"#utility.yul\":1115:1116   */\n      0x00\n        /* \"#utility.yul\":1112:1113   */\n      dup1\n        /* \"#utility.yul\":1105:1117   */\n      revert\n        /* \"#utility.yul\":1056:1119   */\n    tag_332:\n        /* \"#utility.yul\":1003:1125   */\n      pop\n      jump\t// out\n        /* \"#utility.yul\":1131:1270   */\n    tag_256:\n        /* \"#utility.yul\":1177:1182   */\n      0x00\n        /* \"#utility.yul\":1215:1221   */\n      dup2\n        /* \"#utility.yul\":1202:1222   */\n      calldataload\n        /* \"#utility.yul\":1193:1222   */\n      swap1\n      pop\n        /* \"#utility.yul\":1231:1264   */\n      tag_334\n        /* \"#utility.yul\":1258:1263   */\n      dup2\n        /* \"#utility.yul\":1231:1264   */\n      tag_255\n      jump\t// in\n    tag_334:\n        /* \"#utility.yul\":1131:1270   */\n      swap3\n      swap2\n      pop\n      pop\n      jump\t// out\n        /* \"#utility.yul\":1276:1605   */\n    tag_33:\n        /* \"#utility.yul\":1335:1341   */\n      0x00\n        /* \"#utility.yul\":1384:1386   */\n      0x20\n        /* \"#utility.yul\":1372:1381   */\n      dup3\n        /* \"#utility.yul\":1363:1370   */\n      dup5\n        /* \"#utility.yul\":1359:1382   */\n      sub\n        /* \"#utility.yul\":1355:1387   */\n      slt\n        /* \"#utility.yul\":1352:1471   */\n      iszero\n      tag_336\n      jumpi\n        /* \"#utility.yul\":1390:1469   */\n      tag_337\n      tag_251\n      jump\t// in\n    tag_337:\n        /* \"#utility.yul\":1352:1471   */\n    tag_336:\n        /* \"#utility.yul\":1510:1511   */\n      0x00\n        /* \"#utility.yul\":1535:1588   */\n      tag_338\n        /* \"#utility.yul\":1580:1587   */\n      dup5\n        /* \"#utility.yul\":1571:1577   */\n      dup3\n        /* \"#utility.yul\":1560:1569   */\n      dup6\n        /* \"#utility.yul\":1556:1578   */\n      add\n        /* \"#utility.yul\":1535:1588   */\n      tag_256\n      jump\t// in\n    tag_338:\n        /* \"#utility.yul\":1525:1588   */\n      swap2\n      pop\n        /* \"#utility.yul\":1481:1598   */\n      pop\n        /* \"#utility.yul\":1276:1605   */\n      swap3\n      swap2\n      pop\n      pop\n      jump\t// out\n        /* \"#utility.yul\":1611:1748   */\n    tag_257:\n        /* \"#utility.yul\":1701:1707   */\n      0x00\n        /* \"#utility.yul\":1735:1740   */\n      dup2\n        /* \"#utility.yul\":1729:1741   */\n      mload\n        /* \"#utility.yul\":1719:1741   */\n      swap1\n      pop\n        /* \"#utility.yul\":1611:1748   */\n      swap2\n      swap1\n      pop\n      jump\t// out\n        /* \"#utility.yul\":1754:1961   */\n    tag_258:\n        /* \"#utility.yul\":1876:1887   */\n      0x00\n        /* \"#utility.yul\":1910:1916   */\n      dup3\n        /* \"#utility.yul\":1905:1908   */\n      dup3\n        /* \"#utility.yul\":1898:1917   */\n      mstore\n        /* \"#utility.yul\":1950:1954   */\n      0x20\n        /* \"#utility.yul\":1945:1948   */\n      dup3\n        /* \"#utility.yul\":1941:1955   */\n      add\n        /* \"#utility.yul\":1926:1955   */\n      swap1\n      pop\n        /* \"#utility.yul\":1754:1961   */\n      swap3\n      swap2\n      pop\n      pop\n      jump\t// out\n        /* \"#utility.yul\":1967:2122   */\n    tag_259:\n        /* \"#utility.yul\":2057:2061   */\n      0x00\n        /* \"#utility.yul\":2080:2083   */\n      dup2\n        /* \"#utility.yul\":2072:2083   */\n      swap1\n      pop\n        /* \"#utility.yul\":2110:2114   */\n      0x20\n        /* \"#utility.yul\":2105:2108   */\n      dup3\n        /* \"#utility.yul\":2101:2115   */\n      add\n        /* \"#utility.yul\":2093:2115   */\n      swap1\n      pop\n        /* \"#utility.yul\":1967:2122   */\n      swap2\n      swap1\n      pop\n      jump\t// out\n        /* \"#utility.yul\":2128:2308   */\n    tag_116:\n        /* \"#utility.yul\":2176:2253   */\n      0x4e487b7100000000000000000000000000000000000000000000000000000000\n        /* \"#utility.yul\":2173:2174   */\n      0x00\n        /* \"#utility.yul\":2166:2254   */\n      mstore\n        /* \"#utility.yul\":2273:2277   */\n      0x21\n        /* \"#utility.yul\":2270:2271   */\n      0x04\n        /* \"#utility.yul\":2263:2278   */\n      mstore\n        /* \"#utility.yul\":2297:2301   */\n      0x24\n        /* \"#utility.yul\":2294:2295   */\n      0x00\n        /* \"#utility.yul\":2287:2302   */\n      revert\n        /* \"#utility.yul\":2314:2433   */\n    tag_260:\n        /* \"#utility.yul\":2401:2402   */\n      0x05\n        /* \"#utility.yul\":2394:2399   */\n      dup2\n        /* \"#utility.yul\":2391:2403   */\n      lt\n        /* \"#utility.yul\":2381:2427   */\n      tag_344\n      jumpi\n        /* \"#utility.yul\":2407:2425   */\n      tag_345\n      tag_116\n      jump\t// in\n    tag_345:\n        /* \"#utility.yul\":2381:2427   */\n    tag_344:\n        /* \"#utility.yul\":2314:2433   */\n      pop\n      jump\t// out\n        /* \"#utility.yul\":2439:2578   */\n    tag_261:\n        /* \"#utility.yul\":2490:2497   */\n      0x00\n        /* \"#utility.yul\":2519:2524   */\n      dup2\n        /* \"#utility.yul\":2508:2524   */\n      swap1\n      pop\n        /* \"#utility.yul\":2525:2572   */\n      tag_347\n        /* \"#utility.yul\":2566:2571   */\n      dup3\n        /* \"#utility.yul\":2525:2572   */\n      tag_260\n      jump\t// in\n    tag_347:\n        /* \"#utility.yul\":2439:2578   */\n      swap2\n      swap1\n      pop\n      jump\t// out\n        /* \"#utility.yul\":2584:2723   */\n    tag_262:\n        /* \"#utility.yul\":2646:2655   */\n      0x00\n        /* \"#utility.yul\":2679:2717   */\n      tag_349\n        /* \"#utility.yul\":2711:2716   */\n      dup3\n        /* \"#utility.yul\":2679:2717   */\n      tag_261\n      jump\t// in\n    tag_349:\n        /* \"#utility.yul\":2666:2717   */\n      swap1\n      pop\n        /* \"#utility.yul\":2584:2723   */\n      swap2\n      swap1\n      pop\n      jump\t// out\n        /* \"#utility.yul\":2729:2874   */\n    tag_263:\n        /* \"#utility.yul\":2818:2867   */\n      tag_351\n        /* \"#utility.yul\":2861:2866   */\n      dup2\n        /* \"#utility.yul\":2818:2867   */\n      tag_262\n      jump\t// in\n    tag_351:\n        /* \"#utility.yul\":2813:2816   */\n      dup3\n        /* \"#utility.yul\":2806:2868   */\n      mstore\n        /* \"#utility.yul\":2729:2874   */\n      pop\n      pop\n      jump\t// out\n        /* \"#utility.yul\":2880:2988   */\n    tag_264:\n        /* \"#utility.yul\":2957:2981   */\n      tag_353\n        /* \"#utility.yul\":2975:2980   */\n      dup2\n        /* \"#utility.yul\":2957:2981   */\n      tag_248\n      jump\t// in\n    tag_353:\n        /* \"#utility.yul\":2952:2955   */\n      dup3\n        /* \"#utility.yul\":2945:2982   */\n      mstore\n        /* \"#utility.yul\":2880:2988   */\n      pop\n      pop\n      jump\t// out\n        /* \"#utility.yul\":2994:3102   */\n    tag_265:\n        /* \"#utility.yul\":3071:3095   */\n      tag_355\n        /* \"#utility.yul\":3089:3094   */\n      dup2\n        /* \"#utility.yul\":3071:3095   */\n      tag_254\n      jump\t// in\n    tag_355:\n        /* \"#utility.yul\":3066:3069   */\n      dup3\n        /* \"#utility.yul\":3059:3096   */\n      mstore\n        /* \"#utility.yul\":2994:3102   */\n      pop\n      pop\n      jump\t// out\n        /* \"#utility.yul\":3108:3207   */\n    tag_266:\n        /* \"#utility.yul\":3160:3166   */\n      0x00\n        /* \"#utility.yul\":3194:3199   */\n      dup2\n        /* \"#utility.yul\":3188:3200   */\n      mload\n        /* \"#utility.yul\":3178:3200   */\n      swap1\n      pop\n        /* \"#utility.yul\":3108:3207   */\n      swap2\n      swap1\n      pop\n      jump\t// out\n        /* \"#utility.yul\":3213:3372   */\n    tag_267:\n        /* \"#utility.yul\":3287:3298   */\n      0x00\n        /* \"#utility.yul\":3321:3327   */\n      dup3\n        /* \"#utility.yul\":3316:3319   */\n      dup3\n        /* \"#utility.yul\":3309:3328   */\n      mstore\n        /* \"#utility.yul\":3361:3365   */\n      0x20\n        /* \"#utility.yul\":3356:3359   */\n      dup3\n        /* \"#utility.yul\":3352:3366   */\n      add\n        /* \"#utility.yul\":3337:3366   */\n      swap1\n      pop\n        /* \"#utility.yul\":3213:3372   */\n      swap3\n      swap2\n      pop\n      pop\n      jump\t// out\n        /* \"#utility.yul\":3378:3624   */\n    tag_268:\n        /* \"#utility.yul\":3459:3460   */\n      0x00\n        /* \"#utility.yul\":3469:3582   */\n    tag_359:\n        /* \"#utility.yul\":3483:3489   */\n      dup4\n        /* \"#utility.yul\":3480:3481   */\n      dup2\n        /* \"#utility.yul\":3477:3490   */\n      lt\n        /* \"#utility.yul\":3469:3582   */\n      iszero\n      tag_361\n      jumpi\n        /* \"#utility.yul\":3568:3569   */\n      dup1\n        /* \"#utility.yul\":3563:3566   */\n      dup3\n        /* \"#utility.yul\":3559:3570   */\n      add\n        /* \"#utility.yul\":3553:3571   */\n      mload\n        /* \"#utility.yul\":3549:3550   */\n      dup2\n        /* \"#utility.yul\":3544:3547   */\n      dup5\n        /* \"#utility.yul\":3540:3551   */\n      add\n        /* \"#utility.yul\":3533:3572   */\n      mstore\n        /* \"#utility.yul\":3505:3507   */\n      0x20\n        /* \"#utility.yul\":3502:3503   */\n      dup2\n        /* \"#utility.yul\":3498:3508   */\n      add\n        /* \"#utility.yul\":3493:3508   */\n      swap1\n      pop\n        /* \"#utility.yul\":3469:3582   */\n      jump(tag_359)\n    tag_361:\n        /* \"#utility.yul\":3616:3617   */\n      0x00\n        /* \"#utility.yul\":3607:3613   */\n      dup5\n        /* \"#utility.yul\":3602:3605   */\n      dup5\n        /* \"#utility.yul\":3598:3614   */\n      add\n        /* \"#utility.yul\":3591:3618   */\n      mstore\n        /* \"#utility.yul\":3440:3624   */\n      pop\n        /* \"#utility.yul\":3378:3624   */\n      pop\n      pop\n      pop\n      jump\t// out\n        /* \"#utility.yul\":3630:3732   */\n    tag_269:\n        /* \"#utility.yul\":3671:3677   */\n      0x00\n        /* \"#utility.yul\":3722:3724   */\n      0x1f\n        /* \"#utility.yul\":3718:3725   */\n      not\n        /* \"#utility.yul\":3713:3715   */\n      0x1f\n        /* \"#utility.yul\":3706:3711   */\n      dup4\n        /* \"#utility.yul\":3702:3716   */\n      add\n        /* \"#utility.yul\":3698:3726   */\n      and\n        /* \"#utility.yul\":3688:3726   */\n      swap1\n      pop\n        /* \"#utility.yul\":3630:3732   */\n      swap2\n      swap1\n      pop\n      jump\t// out\n        /* \"#utility.yul\":3738:4095   */\n    tag_270:\n        /* \"#utility.yul\":3816:3819   */\n      0x00\n        /* \"#utility.yul\":3844:3883   */\n      tag_364\n        /* \"#utility.yul\":3877:3882   */\n      dup3\n        /* \"#utility.yul\":3844:3883   */\n      tag_266\n      jump\t// in\n    tag_364:\n        /* \"#utility.yul\":3899:3960   */\n      tag_365\n        /* \"#utility.yul\":3953:3959   */\n      dup2\n        /* \"#utility.yul\":3948:3951   */\n      dup6\n        /* \"#utility.yul\":3899:3960   */\n      tag_267\n      jump\t// in\n    tag_365:\n        /* \"#utility.yul\":3892:3960   */\n      swap4\n      pop\n        /* \"#utility.yul\":3969:4034   */\n      tag_366\n        /* \"#utility.yul\":4027:4033   */\n      dup2\n        /* \"#utility.yul\":4022:4025   */\n      dup6\n        /* \"#utility.yul\":4015:4019   */\n      0x20\n        /* \"#utility.yul\":4008:4013   */\n      dup7\n        /* \"#utility.yul\":4004:4020   */\n      add\n        /* \"#utility.yul\":3969:4034   */\n      tag_268\n      jump\t// in\n    tag_366:\n        /* \"#utility.yul\":4059:4088   */\n      tag_367\n        /* \"#utility.yul\":4081:4087   */\n      dup2\n        /* \"#utility.yul\":4059:4088   */\n      tag_269\n      jump\t// in\n    tag_367:\n        /* \"#utility.yul\":4054:4057   */\n      dup5\n        /* \"#utility.yul\":4050:4089   */\n      add\n        /* \"#utility.yul\":4043:4089   */\n      swap2\n      pop\n        /* \"#utility.yul\":3820:4095   */\n      pop\n        /* \"#utility.yul\":3738:4095   */\n      swap3\n      swap2\n      pop\n      pop\n      jump\t// out\n        /* \"#utility.yul\":4101:4191   */\n    tag_271:\n        /* \"#utility.yul\":4135:4142   */\n      0x00\n        /* \"#utility.yul\":4178:4183   */\n      dup2\n        /* \"#utility.yul\":4171:4184   */\n      iszero\n        /* \"#utility.yul\":4164:4185   */\n      iszero\n        /* \"#utility.yul\":4153:4185   */\n      swap1\n      pop\n        /* \"#utility.yul\":4101:4191   */\n      swap2\n      swap1\n      pop\n      jump\t// out\n        /* \"#utility.yul\":4197:4296   */\n    tag_272:\n        /* \"#utility.yul\":4268:4289   */\n      tag_370\n        /* \"#utility.yul\":4283:4288   */\n      dup2\n        /* \"#utility.yul\":4268:4289   */\n      tag_271\n      jump\t// in\n    tag_370:\n        /* \"#utility.yul\":4263:4266   */\n      dup3\n        /* \"#utility.yul\":4256:4290   */\n      mstore\n        /* \"#utility.yul\":4197:4296   */\n      pop\n      pop\n      jump\t// out\n        /* \"#utility.yul\":4384:5889   */\n    tag_273:\n        /* \"#utility.yul\":4489:4492   */\n      0x00\n        /* \"#utility.yul\":4525:4529   */\n      0xe0\n        /* \"#utility.yul\":4520:4523   */\n      dup4\n        /* \"#utility.yul\":4516:4530   */\n      add\n        /* \"#utility.yul\":4619:4623   */\n      0x00\n        /* \"#utility.yul\":4612:4617   */\n      dup4\n        /* \"#utility.yul\":4608:4624   */\n      add\n        /* \"#utility.yul\":4602:4625   */\n      mload\n        /* \"#utility.yul\":4638:4713   */\n      tag_372\n        /* \"#utility.yul\":4707:4711   */\n      0x00\n        /* \"#utility.yul\":4702:4705   */\n      dup7\n        /* \"#utility.yul\":4698:4712   */\n      add\n        /* \"#utility.yul\":4684:4696   */\n      dup3\n        /* \"#utility.yul\":4638:4713   */\n      tag_263\n      jump\t// in\n    tag_372:\n        /* \"#utility.yul\":4540:4723   */\n      pop\n        /* \"#utility.yul\":4810:4814   */\n      0x20\n        /* \"#utility.yul\":4803:4808   */\n      dup4\n        /* \"#utility.yul\":4799:4815   */\n      add\n        /* \"#utility.yul\":4793:4816   */\n      mload\n        /* \"#utility.yul\":4829:4892   */\n      tag_373\n        /* \"#utility.yul\":4886:4890   */\n      0x20\n        /* \"#utility.yul\":4881:4884   */\n      dup7\n        /* \"#utility.yul\":4877:4891   */\n      add\n        /* \"#utility.yul\":4863:4875   */\n      dup3\n        /* \"#utility.yul\":4829:4892   */\n      tag_264\n      jump\t// in\n    tag_373:\n        /* \"#utility.yul\":4733:4902   */\n      pop\n        /* \"#utility.yul\":4989:4993   */\n      0x40\n        /* \"#utility.yul\":4982:4987   */\n      dup4\n        /* \"#utility.yul\":4978:4994   */\n      add\n        /* \"#utility.yul\":4972:4995   */\n      mload\n        /* \"#utility.yul\":5008:5071   */\n      tag_374\n        /* \"#utility.yul\":5065:5069   */\n      0x40\n        /* \"#utility.yul\":5060:5063   */\n      dup7\n        /* \"#utility.yul\":5056:5070   */\n      add\n        /* \"#utility.yul\":5042:5054   */\n      dup3\n        /* \"#utility.yul\":5008:5071   */\n      tag_265\n      jump\t// in\n    tag_374:\n        /* \"#utility.yul\":4912:5081   */\n      pop\n        /* \"#utility.yul\":5172:5176   */\n      0x60\n        /* \"#utility.yul\":5165:5170   */\n      dup4\n        /* \"#utility.yul\":5161:5177   */\n      add\n        /* \"#utility.yul\":5155:5178   */\n      mload\n        /* \"#utility.yul\":5225:5228   */\n      dup5\n        /* \"#utility.yul\":5219:5223   */\n      dup3\n        /* \"#utility.yul\":5215:5229   */\n      sub\n        /* \"#utility.yul\":5208:5212   */\n      0x60\n        /* \"#utility.yul\":5203:5206   */\n      dup7\n        /* \"#utility.yul\":5199:5213   */\n      add\n        /* \"#utility.yul\":5192:5230   */\n      mstore\n        /* \"#utility.yul\":5251:5324   */\n      tag_375\n        /* \"#utility.yul\":5319:5323   */\n      dup3\n        /* \"#utility.yul\":5305:5317   */\n      dup3\n        /* \"#utility.yul\":5251:5324   */\n      tag_270\n      jump\t// in\n    tag_375:\n        /* \"#utility.yul\":5243:5324   */\n      swap2\n      pop\n        /* \"#utility.yul\":5091:5335   */\n      pop\n        /* \"#utility.yul\":5425:5429   */\n      0x80\n        /* \"#utility.yul\":5418:5423   */\n      dup4\n        /* \"#utility.yul\":5414:5430   */\n      add\n        /* \"#utility.yul\":5408:5431   */\n      mload\n        /* \"#utility.yul\":5444:5501   */\n      tag_376\n        /* \"#utility.yul\":5495:5499   */\n      0x80\n        /* \"#utility.yul\":5490:5493   */\n      dup7\n        /* \"#utility.yul\":5486:5500   */\n      add\n        /* \"#utility.yul\":5472:5484   */\n      dup3\n        /* \"#utility.yul\":5444:5501   */\n      tag_272\n      jump\t// in\n    tag_376:\n        /* \"#utility.yul\":5345:5511   */\n      pop\n        /* \"#utility.yul\":5594:5598   */\n      0xa0\n        /* \"#utility.yul\":5587:5592   */\n      dup4\n        /* \"#utility.yul\":5583:5599   */\n      add\n        /* \"#utility.yul\":5577:5600   */\n      mload\n        /* \"#utility.yul\":5613:5676   */\n      tag_377\n        /* \"#utility.yul\":5670:5674   */\n      0xa0\n        /* \"#utility.yul\":5665:5668   */\n      dup7\n        /* \"#utility.yul\":5661:5675   */\n      add\n        /* \"#utility.yul\":5647:5659   */\n      dup3\n        /* \"#utility.yul\":5613:5676   */\n      tag_265\n      jump\t// in\n    tag_377:\n        /* \"#utility.yul\":5521:5686   */\n      pop\n        /* \"#utility.yul\":5770:5774   */\n      0xc0\n        /* \"#utility.yul\":5763:5768   */\n      dup4\n        /* \"#utility.yul\":5759:5775   */\n      add\n        /* \"#utility.yul\":5753:5776   */\n      mload\n        /* \"#utility.yul\":5789:5852   */\n      tag_378\n        /* \"#utility.yul\":5846:5850   */\n      0xc0\n        /* \"#utility.yul\":5841:5844   */\n      dup7\n        /* \"#utility.yul\":5837:5851   */\n      add\n        /* \"#utility.yul\":5823:5835   */\n      dup3\n        /* \"#utility.yul\":5789:5852   */\n      tag_264\n      jump\t// in\n    tag_378:\n        /* \"#utility.yul\":5696:5862   */\n      pop\n        /* \"#utility.yul\":5879:5883   */\n      dup1\n        /* \"#utility.yul\":5872:5883   */\n      swap2\n      pop\n        /* \"#utility.yul\":4494:5889   */\n      pop\n        /* \"#utility.yul\":4384:5889   */\n      swap3\n      swap2\n      pop\n      pop\n      jump\t// out\n        /* \"#utility.yul\":5895:6143   */\n    tag_274:\n        /* \"#utility.yul\":6010:6020   */\n      0x00\n        /* \"#utility.yul\":6045:6137   */\n      tag_380\n        /* \"#utility.yul\":6133:6136   */\n      dup4\n        /* \"#utility.yul\":6125:6131   */\n      dup4\n        /* \"#utility.yul\":6045:6137   */\n      tag_273\n      jump\t// in\n    tag_380:\n        /* \"#utility.yul\":6031:6137   */\n      swap1\n      pop\n        /* \"#utility.yul\":5895:6143   */\n      swap3\n      swap2\n      pop\n      pop\n      jump\t// out\n        /* \"#utility.yul\":6149:6285   */\n    tag_275:\n        /* \"#utility.yul\":6242:6246   */\n      0x00\n        /* \"#utility.yul\":6274:6278   */\n      0x20\n        /* \"#utility.yul\":6269:6272   */\n      dup3\n        /* \"#utility.yul\":6265:6279   */\n      add\n        /* \"#utility.yul\":6257:6279   */\n      swap1\n      pop\n        /* \"#utility.yul\":6149:6285   */\n      swap2\n      swap1\n      pop\n      jump\t// out\n        /* \"#utility.yul\":6377:7472   */\n    tag_276:\n        /* \"#utility.yul\":6542:6545   */\n      0x00\n        /* \"#utility.yul\":6571:6648   */\n      tag_383\n        /* \"#utility.yul\":6642:6647   */\n      dup3\n        /* \"#utility.yul\":6571:6648   */\n      tag_257\n      jump\t// in\n    tag_383:\n        /* \"#utility.yul\":6664:6773   */\n      tag_384\n        /* \"#utility.yul\":6766:6772   */\n      dup2\n        /* \"#utility.yul\":6761:6764   */\n      dup6\n        /* \"#utility.yul\":6664:6773   */\n      tag_258\n      jump\t// in\n    tag_384:\n        /* \"#utility.yul\":6657:6773   */\n      swap4\n      pop\n        /* \"#utility.yul\":6799:6802   */\n      dup4\n        /* \"#utility.yul\":6844:6848   */\n      0x20\n        /* \"#utility.yul\":6836:6842   */\n      dup3\n        /* \"#utility.yul\":6832:6849   */\n      mul\n        /* \"#utility.yul\":6827:6830   */\n      dup6\n        /* \"#utility.yul\":6823:6850   */\n      add\n        /* \"#utility.yul\":6874:6953   */\n      tag_385\n        /* \"#utility.yul\":6947:6952   */\n      dup6\n        /* \"#utility.yul\":6874:6953   */\n      tag_259\n      jump\t// in\n    tag_385:\n        /* \"#utility.yul\":6976:6983   */\n      dup1\n        /* \"#utility.yul\":7007:7008   */\n      0x00\n        /* \"#utility.yul\":6992:7427   */\n    tag_386:\n        /* \"#utility.yul\":7017:7023   */\n      dup6\n        /* \"#utility.yul\":7014:7015   */\n      dup2\n        /* \"#utility.yul\":7011:7024   */\n      lt\n        /* \"#utility.yul\":6992:7427   */\n      iszero\n      tag_388\n      jumpi\n        /* \"#utility.yul\":7088:7097   */\n      dup5\n        /* \"#utility.yul\":7082:7086   */\n      dup5\n        /* \"#utility.yul\":7078:7098   */\n      sub\n        /* \"#utility.yul\":7073:7076   */\n      dup10\n        /* \"#utility.yul\":7066:7099   */\n      mstore\n        /* \"#utility.yul\":7139:7145   */\n      dup2\n        /* \"#utility.yul\":7133:7146   */\n      mload\n        /* \"#utility.yul\":7167:7277   */\n      tag_389\n        /* \"#utility.yul\":7272:7276   */\n      dup6\n        /* \"#utility.yul\":7257:7270   */\n      dup3\n        /* \"#utility.yul\":7167:7277   */\n      tag_274\n      jump\t// in\n    tag_389:\n        /* \"#utility.yul\":7159:7277   */\n      swap5\n      pop\n        /* \"#utility.yul\":7300:7383   */\n      tag_390\n        /* \"#utility.yul\":7376:7382   */\n      dup4\n        /* \"#utility.yul\":7300:7383   */\n      tag_275\n      jump\t// in\n    tag_390:\n        /* \"#utility.yul\":7290:7383   */\n      swap3\n      pop\n        /* \"#utility.yul\":7412:7416   */\n      0x20\n        /* \"#utility.yul\":7407:7410   */\n      dup11\n        /* \"#utility.yul\":7403:7417   */\n      add\n        /* \"#utility.yul\":7396:7417   */\n      swap10\n      pop\n        /* \"#utility.yul\":7052:7427   */\n      pop\n        /* \"#utility.yul\":7039:7040   */\n      0x01\n        /* \"#utility.yul\":7036:7037   */\n      dup2\n        /* \"#utility.yul\":7032:7041   */\n      add\n        /* \"#utility.yul\":7027:7041   */\n      swap1\n      pop\n        /* \"#utility.yul\":6992:7427   */\n      jump(tag_386)\n    tag_388:\n        /* \"#utility.yul\":6996:7010   */\n      pop\n        /* \"#utility.yul\":7443:7447   */\n      dup3\n        /* \"#utility.yul\":7436:7447   */\n      swap8\n      pop\n        /* \"#utility.yul\":7463:7466   */\n      dup8\n        /* \"#utility.yul\":7456:7466   */\n      swap6\n      pop\n        /* \"#utility.yul\":6547:7472   */\n      pop\n      pop\n      pop\n      pop\n      pop\n        /* \"#utility.yul\":6377:7472   */\n      swap3\n      swap2\n      pop\n      pop\n      jump\t// out\n        /* \"#utility.yul\":7478:7943   */\n    tag_36:\n        /* \"#utility.yul\":7667:7671   */\n      0x00\n        /* \"#utility.yul\":7705:7707   */\n      0x20\n        /* \"#utility.yul\":7694:7703   */\n      dup3\n        /* \"#utility.yul\":7690:7708   */\n      add\n        /* \"#utility.yul\":7682:7708   */\n      swap1\n      pop\n        /* \"#utility.yul\":7754:7763   */\n      dup2\n        /* \"#utility.yul\":7748:7752   */\n      dup2\n        /* \"#utility.yul\":7744:7764   */\n      sub\n        /* \"#utility.yul\":7740:7741   */\n      0x00\n        /* \"#utility.yul\":7729:7738   */\n      dup4\n        /* \"#utility.yul\":7725:7742   */\n      add\n        /* \"#utility.yul\":7718:7765   */\n      mstore\n        /* \"#utility.yul\":7782:7936   */\n      tag_392\n        /* \"#utility.yul\":7931:7935   */\n      dup2\n        /* \"#utility.yul\":7922:7928   */\n      dup5\n        /* \"#utility.yul\":7782:7936   */\n      tag_276\n      jump\t// in\n    tag_392:\n        /* \"#utility.yul\":7774:7936   */\n      swap1\n      pop\n        /* \"#utility.yul\":7478:7943   */\n      swap3\n      swap2\n      pop\n      pop\n      jump\t// out\n        /* \"#utility.yul\":7949:8071   */\n    tag_277:\n        /* \"#utility.yul\":8022:8046   */\n      tag_394\n        /* \"#utility.yul\":8040:8045   */\n      dup2\n        /* \"#utility.yul\":8022:8046   */\n      tag_248\n      jump\t// in\n    tag_394:\n        /* \"#utility.yul\":8015:8020   */\n      dup2\n        /* \"#utility.yul\":8012:8047   */\n      eq\n        /* \"#utility.yul\":8002:8065   */\n      tag_395\n      jumpi\n        /* \"#utility.yul\":8061:8062   */\n      0x00\n        /* \"#utility.yul\":8058:8059   */\n      dup1\n        /* \"#utility.yul\":8051:8063   */\n      revert\n        /* \"#utility.yul\":8002:8065   */\n    tag_395:\n        /* \"#utility.yul\":7949:8071   */\n      pop\n      jump\t// out\n        /* \"#utility.yul\":8077:8216   */\n    tag_278:\n        /* \"#utility.yul\":8123:8128   */\n      0x00\n        /* \"#utility.yul\":8161:8167   */\n      dup2\n        /* \"#utility.yul\":8148:8168   */\n      calldataload\n        /* \"#utility.yul\":8139:8168   */\n      swap1\n      pop\n        /* \"#utility.yul\":8177:8210   */\n      tag_397\n        /* \"#utility.yul\":8204:8209   */\n      dup2\n        /* \"#utility.yul\":8177:8210   */\n      tag_277\n      jump\t// in\n    tag_397:\n        /* \"#utility.yul\":8077:8216   */\n      swap3\n      swap2\n      pop\n      pop\n      jump\t// out\n        /* \"#utility.yul\":8222:8696   */\n    tag_39:\n        /* \"#utility.yul\":8290:8296   */\n      0x00\n        /* \"#utility.yul\":8298:8304   */\n      dup1\n        /* \"#utility.yul\":8347:8349   */\n      0x40\n        /* \"#utility.yul\":8335:8344   */\n      dup4\n        /* \"#utility.yul\":8326:8333   */\n      dup6\n        /* \"#utility.yul\":8322:8345   */\n      sub\n        /* \"#utility.yul\":8318:8350   */\n      slt\n        /* \"#utility.yul\":8315:8434   */\n      iszero\n      tag_399\n      jumpi\n        /* \"#utility.yul\":8353:8432   */\n      tag_400\n      tag_251\n      jump\t// in\n    tag_400:\n        /* \"#utility.yul\":8315:8434   */\n    tag_399:\n        /* \"#utility.yul\":8473:8474   */\n      0x00\n        /* \"#utility.yul\":8498:8551   */\n      tag_401\n        /* \"#utility.yul\":8543:8550   */\n      dup6\n        /* \"#utility.yul\":8534:8540   */\n      dup3\n        /* \"#utility.yul\":8523:8532   */\n      dup7\n        /* \"#utility.yul\":8519:8541   */\n      add\n        /* \"#utility.yul\":8498:8551   */\n      tag_256\n      jump\t// in\n    tag_401:\n        /* \"#utility.yul\":8488:8551   */\n      swap3\n      pop\n        /* \"#utility.yul\":8444:8561   */\n      pop\n        /* \"#utility.yul\":8600:8602   */\n      0x20\n        /* \"#utility.yul\":8626:8679   */\n      tag_402\n        /* \"#utility.yul\":8671:8678   */\n      dup6\n        /* \"#utility.yul\":8662:8668   */\n      dup3\n        /* \"#utility.yul\":8651:8660   */\n      dup7\n        /* \"#utility.yul\":8647:8669   */\n      add\n        /* \"#utility.yul\":8626:8679   */\n      tag_278\n      jump\t// in\n    tag_402:\n        /* \"#utility.yul\":8616:8679   */\n      swap2\n      pop\n        /* \"#utility.yul\":8571:8689   */\n      pop\n        /* \"#utility.yul\":8222:8696   */\n      swap3\n      pop\n      swap3\n      swap1\n      pop\n      jump\t// out\n        /* \"#utility.yul\":8702:8819   */\n    tag_279:\n        /* \"#utility.yul\":8811:8812   */\n      0x00\n        /* \"#utility.yul\":8808:8809   */\n      dup1\n        /* \"#utility.yul\":8801:8813   */\n      revert\n        /* \"#utility.yul\":8825:9005   */\n    tag_280:\n        /* \"#utility.yul\":8873:8950   */\n      0x4e487b7100000000000000000000000000000000000000000000000000000000\n        /* \"#utility.yul\":8870:8871   */\n      0x00\n        /* \"#utility.yul\":8863:8951   */\n      mstore\n        /* \"#utility.yul\":8970:8974   */\n      0x41\n        /* \"#utility.yul\":8967:8968   */\n      0x04\n        /* \"#utility.yul\":8960:8975   */\n      mstore\n        /* \"#utility.yul\":8994:8998   */\n      0x24\n        /* \"#utility.yul\":8991:8992   */\n      0x00\n        /* \"#utility.yul\":8984:8999   */\n      revert\n        /* \"#utility.yul\":9011:9292   */\n    tag_281:\n        /* \"#utility.yul\":9094:9121   */\n      tag_406\n        /* \"#utility.yul\":9116:9120   */\n      dup3\n        /* \"#utility.yul\":9094:9121   */\n      tag_269\n      jump\t// in\n    tag_406:\n        /* \"#utility.yul\":9086:9092   */\n      dup2\n        /* \"#utility.yul\":9082:9122   */\n      add\n        /* \"#utility.yul\":9224:9230   */\n      dup2\n        /* \"#utility.yul\":9212:9222   */\n      dup2\n        /* \"#utility.yul\":9209:9231   */\n      lt\n        /* \"#utility.yul\":9188:9206   */\n      0xffffffffffffffff\n        /* \"#utility.yul\":9176:9186   */\n      dup3\n        /* \"#utility.yul\":9173:9207   */\n      gt\n        /* \"#utility.yul\":9170:9232   */\n      or\n        /* \"#utility.yul\":9167:9255   */\n      iszero\n      tag_407\n      jumpi\n        /* \"#utility.yul\":9235:9253   */\n      tag_408\n      tag_280\n      jump\t// in\n    tag_408:\n        /* \"#utility.yul\":9167:9255   */\n    tag_407:\n        /* \"#utility.yul\":9275:9285   */\n      dup1\n        /* \"#utility.yul\":9271:9273   */\n      0x40\n        /* \"#utility.yul\":9264:9286   */\n      mstore\n        /* \"#utility.yul\":9054:9292   */\n      pop\n        /* \"#utility.yul\":9011:9292   */\n      pop\n      pop\n      jump\t// out\n        /* \"#utility.yul\":9298:9427   */\n    tag_282:\n        /* \"#utility.yul\":9332:9338   */\n      0x00\n        /* \"#utility.yul\":9359:9379   */\n      tag_410\n      tag_250\n      jump\t// in\n    tag_410:\n        /* \"#utility.yul\":9349:9379   */\n      swap1\n      pop\n        /* \"#utility.yul\":9388:9421   */\n      tag_411\n        /* \"#utility.yul\":9416:9420   */\n      dup3\n        /* \"#utility.yul\":9408:9414   */\n      dup3\n        /* \"#utility.yul\":9388:9421   */\n      tag_281\n      jump\t// in\n    tag_411:\n        /* \"#utility.yul\":9298:9427   */\n      swap2\n      swap1\n      pop\n      jump\t// out\n        /* \"#utility.yul\":9607:10356   */\n    tag_284:\n        /* \"#utility.yul\":9687:9692   */\n      0x00\n        /* \"#utility.yul\":9731:9735   */\n      0x60\n        /* \"#utility.yul\":9719:9728   */\n      dup3\n        /* \"#utility.yul\":9714:9717   */\n      dup5\n        /* \"#utility.yul\":9710:9729   */\n      sub\n        /* \"#utility.yul\":9706:9736   */\n      slt\n        /* \"#utility.yul\":9703:9820   */\n      iszero\n      tag_414\n      jumpi\n        /* \"#utility.yul\":9739:9818   */\n      tag_415\n      tag_279\n      jump\t// in\n    tag_415:\n        /* \"#utility.yul\":9703:9820   */\n    tag_414:\n        /* \"#utility.yul\":9838:9859   */\n      tag_416\n        /* \"#utility.yul\":9854:9858   */\n      0x60\n        /* \"#utility.yul\":9838:9859   */\n      tag_282\n      jump\t// in\n    tag_416:\n        /* \"#utility.yul\":9829:9859   */\n      swap1\n      pop\n        /* \"#utility.yul\":9920:9921   */\n      0x00\n        /* \"#utility.yul\":9960:10009   */\n      tag_417\n        /* \"#utility.yul\":10005:10008   */\n      dup5\n        /* \"#utility.yul\":9996:10002   */\n      dup3\n        /* \"#utility.yul\":9985:9994   */\n      dup6\n        /* \"#utility.yul\":9981:10003   */\n      add\n        /* \"#utility.yul\":9960:10009   */\n      tag_278\n      jump\t// in\n    tag_417:\n        /* \"#utility.yul\":9953:9957   */\n      0x00\n        /* \"#utility.yul\":9946:9951   */\n      dup4\n        /* \"#utility.yul\":9942:9958   */\n      add\n        /* \"#utility.yul\":9935:10010   */\n      mstore\n        /* \"#utility.yul\":9869:10021   */\n      pop\n        /* \"#utility.yul\":10084:10086   */\n      0x20\n        /* \"#utility.yul\":10125:10174   */\n      tag_418\n        /* \"#utility.yul\":10170:10173   */\n      dup5\n        /* \"#utility.yul\":10161:10167   */\n      dup3\n        /* \"#utility.yul\":10150:10159   */\n      dup6\n        /* \"#utility.yul\":10146:10168   */\n      add\n        /* \"#utility.yul\":10125:10174   */\n      tag_278\n      jump\t// in\n    tag_418:\n        /* \"#utility.yul\":10118:10122   */\n      0x20\n        /* \"#utility.yul\":10111:10116   */\n      dup4\n        /* \"#utility.yul\":10107:10123   */\n      add\n        /* \"#utility.yul\":10100:10175   */\n      mstore\n        /* \"#utility.yul\":10031:10186   */\n      pop\n        /* \"#utility.yul\":10247:10249   */\n      0x40\n        /* \"#utility.yul\":10288:10337   */\n      tag_419\n        /* \"#utility.yul\":10333:10336   */\n      dup5\n        /* \"#utility.yul\":10324:10330   */\n      dup3\n        /* \"#utility.yul\":10313:10322   */\n      dup6\n        /* \"#utility.yul\":10309:10331   */\n      add\n        /* \"#utility.yul\":10288:10337   */\n      tag_278\n      jump\t// in\n    tag_419:\n        /* \"#utility.yul\":10281:10285   */\n      0x40\n        /* \"#utility.yul\":10274:10279   */\n      dup4\n        /* \"#utility.yul\":10270:10286   */\n      add\n        /* \"#utility.yul\":10263:10338   */\n      mstore\n        /* \"#utility.yul\":10196:10349   */\n      pop\n        /* \"#utility.yul\":9607:10356   */\n      swap3\n      swap2\n      pop\n      pop\n      jump\t// out\n        /* \"#utility.yul\":10362:11044   */\n    tag_43:\n        /* \"#utility.yul\":10470:10476   */\n      0x00\n        /* \"#utility.yul\":10478:10484   */\n      dup1\n        /* \"#utility.yul\":10486:10492   */\n      0x00\n        /* \"#utility.yul\":10535:10538   */\n      0xa0\n        /* \"#utility.yul\":10523:10532   */\n      dup5\n        /* \"#utility.yul\":10514:10521   */\n      dup7\n        /* \"#utility.yul\":10510:10533   */\n      sub\n        /* \"#utility.yul\":10506:10539   */\n      slt\n        /* \"#utility.yul\":10503:10623   */\n      iszero\n      tag_421\n      jumpi\n        /* \"#utility.yul\":10542:10621   */\n      tag_422\n      tag_251\n      jump\t// in\n    tag_422:\n        /* \"#utility.yul\":10503:10623   */\n    tag_421:\n        /* \"#utility.yul\":10662:10663   */\n      0x00\n        /* \"#utility.yul\":10687:10740   */\n      tag_423\n        /* \"#utility.yul\":10732:10739   */\n      dup7\n        /* \"#utility.yul\":10723:10729   */\n      dup3\n        /* \"#utility.yul\":10712:10721   */\n      dup8\n        /* \"#utility.yul\":10708:10730   */\n      add\n        /* \"#utility.yul\":10687:10740   */\n      tag_256\n      jump\t// in\n    tag_423:\n        /* \"#utility.yul\":10677:10740   */\n      swap4\n      pop\n        /* \"#utility.yul\":10633:10750   */\n      pop\n        /* \"#utility.yul\":10789:10791   */\n      0x20\n        /* \"#utility.yul\":10815:10868   */\n      tag_424\n        /* \"#utility.yul\":10860:10867   */\n      dup7\n        /* \"#utility.yul\":10851:10857   */\n      dup3\n        /* \"#utility.yul\":10840:10849   */\n      dup8\n        /* \"#utility.yul\":10836:10858   */\n      add\n        /* \"#utility.yul\":10815:10868   */\n      tag_278\n      jump\t// in\n    tag_424:\n        /* \"#utility.yul\":10805:10868   */\n      swap3\n      pop\n        /* \"#utility.yul\":10760:10878   */\n      pop\n        /* \"#utility.yul\":10917:10919   */\n      0x40\n        /* \"#utility.yul\":10943:11027   */\n      tag_425\n        /* \"#utility.yul\":11019:11026   */\n      dup7\n        /* \"#utility.yul\":11010:11016   */\n      dup3\n        /* \"#utility.yul\":10999:11008   */\n      dup8\n        /* \"#utility.yul\":10995:11017   */\n      add\n        /* \"#utility.yul\":10943:11027   */\n      tag_284\n      jump\t// in\n    tag_425:\n        /* \"#utility.yul\":10933:11027   */\n      swap2\n      pop\n        /* \"#utility.yul\":10888:11037   */\n      pop\n        /* \"#utility.yul\":10362:11044   */\n      swap3\n      pop\n      swap3\n      pop\n      swap3\n      jump\t// out\n        /* \"#utility.yul\":11050:11163   */\n    tag_285:\n        /* \"#utility.yul\":11137:11138   */\n      0x05\n        /* \"#utility.yul\":11130:11135   */\n      dup2\n        /* \"#utility.yul\":11127:11139   */\n      lt\n        /* \"#utility.yul\":11117:11157   */\n      tag_427\n      jumpi\n        /* \"#utility.yul\":11153:11154   */\n      0x00\n        /* \"#utility.yul\":11150:11151   */\n      dup1\n        /* \"#utility.yul\":11143:11155   */\n      revert\n        /* \"#utility.yul\":11117:11157   */\n    tag_427:\n        /* \"#utility.yul\":11050:11163   */\n      pop\n      jump\t// out\n        /* \"#utility.yul\":11169:11336   */\n    tag_286:\n        /* \"#utility.yul\":11229:11234   */\n      0x00\n        /* \"#utility.yul\":11267:11273   */\n      dup2\n        /* \"#utility.yul\":11254:11274   */\n      calldataload\n        /* \"#utility.yul\":11245:11274   */\n      swap1\n      pop\n        /* \"#utility.yul\":11283:11330   */\n      tag_429\n        /* \"#utility.yul\":11324:11329   */\n      dup2\n        /* \"#utility.yul\":11283:11330   */\n      tag_285\n      jump\t// in\n    tag_429:\n        /* \"#utility.yul\":11169:11336   */\n      swap3\n      swap2\n      pop\n      pop\n      jump\t// out\n        /* \"#utility.yul\":11342:12135   */\n    tag_47:\n        /* \"#utility.yul\":11442:11448   */\n      0x00\n        /* \"#utility.yul\":11450:11456   */\n      dup1\n        /* \"#utility.yul\":11458:11464   */\n      0x00\n        /* \"#utility.yul\":11466:11472   */\n      dup1\n        /* \"#utility.yul\":11515:11518   */\n      0x80\n        /* \"#utility.yul\":11503:11512   */\n      dup6\n        /* \"#utility.yul\":11494:11501   */\n      dup8\n        /* \"#utility.yul\":11490:11513   */\n      sub\n        /* \"#utility.yul\":11486:11519   */\n      slt\n        /* \"#utility.yul\":11483:11603   */\n      iszero\n      tag_431\n      jumpi\n        /* \"#utility.yul\":11522:11601   */\n      tag_432\n      tag_251\n      jump\t// in\n    tag_432:\n        /* \"#utility.yul\":11483:11603   */\n    tag_431:\n        /* \"#utility.yul\":11642:11643   */\n      0x00\n        /* \"#utility.yul\":11667:11720   */\n      tag_433\n        /* \"#utility.yul\":11712:11719   */\n      dup8\n        /* \"#utility.yul\":11703:11709   */\n      dup3\n        /* \"#utility.yul\":11692:11701   */\n      dup9\n        /* \"#utility.yul\":11688:11710   */\n      add\n        /* \"#utility.yul\":11667:11720   */\n      tag_256\n      jump\t// in\n    tag_433:\n        /* \"#utility.yul\":11657:11720   */\n      swap5\n      pop\n        /* \"#utility.yul\":11613:11730   */\n      pop\n        /* \"#utility.yul\":11769:11771   */\n      0x20\n        /* \"#utility.yul\":11795:11848   */\n      tag_434\n        /* \"#utility.yul\":11840:11847   */\n      dup8\n        /* \"#utility.yul\":11831:11837   */\n      dup3\n        /* \"#utility.yul\":11820:11829   */\n      dup9\n        /* \"#utility.yul\":11816:11838   */\n      add\n        /* \"#utility.yul\":11795:11848   */\n      tag_278\n      jump\t// in\n    tag_434:\n        /* \"#utility.yul\":11785:11848   */\n      swap4\n      pop\n        /* \"#utility.yul\":11740:11858   */\n      pop\n        /* \"#utility.yul\":11897:11899   */\n      0x40\n        /* \"#utility.yul\":11923:11976   */\n      tag_435\n        /* \"#utility.yul\":11968:11975   */\n      dup8\n        /* \"#utility.yul\":11959:11965   */\n      dup3\n        /* \"#utility.yul\":11948:11957   */\n      dup9\n        /* \"#utility.yul\":11944:11966   */\n      add\n        /* \"#utility.yul\":11923:11976   */\n      tag_278\n      jump\t// in\n    tag_435:\n        /* \"#utility.yul\":11913:11976   */\n      swap3\n      pop\n        /* \"#utility.yul\":11868:11986   */\n      pop\n        /* \"#utility.yul\":12025:12027   */\n      0x60\n        /* \"#utility.yul\":12051:12118   */\n      tag_436\n        /* \"#utility.yul\":12110:12117   */\n      dup8\n        /* \"#utility.yul\":12101:12107   */\n      dup3\n        /* \"#utility.yul\":12090:12099   */\n      dup9\n        /* \"#utility.yul\":12086:12108   */\n      add\n        /* \"#utility.yul\":12051:12118   */\n      tag_286\n      jump\t// in\n    tag_436:\n        /* \"#utility.yul\":12041:12118   */\n      swap2\n      pop\n        /* \"#utility.yul\":11996:12128   */\n      pop\n        /* \"#utility.yul\":11342:12135   */\n      swap3\n      swap6\n      swap2\n      swap5\n      pop\n      swap3\n      pop\n      jump\t// out\n        /* \"#utility.yul\":12141:12258   */\n    tag_287:\n        /* \"#utility.yul\":12250:12251   */\n      0x00\n        /* \"#utility.yul\":12247:12248   */\n      dup1\n        /* \"#utility.yul\":12240:12252   */\n      revert\n        /* \"#utility.yul\":12264:12381   */\n    tag_288:\n        /* \"#utility.yul\":12373:12374   */\n      0x00\n        /* \"#utility.yul\":12370:12371   */\n      dup1\n        /* \"#utility.yul\":12363:12375   */\n      revert\n        /* \"#utility.yul\":12387:12504   */\n    tag_289:\n        /* \"#utility.yul\":12496:12497   */\n      0x00\n        /* \"#utility.yul\":12493:12494   */\n      dup1\n        /* \"#utility.yul\":12486:12498   */\n      revert\n        /* \"#utility.yul\":12524:13077   */\n    tag_290:\n        /* \"#utility.yul\":12582:12590   */\n      0x00\n        /* \"#utility.yul\":12592:12598   */\n      dup1\n        /* \"#utility.yul\":12642:12645   */\n      dup4\n        /* \"#utility.yul\":12635:12639   */\n      0x1f\n        /* \"#utility.yul\":12627:12633   */\n      dup5\n        /* \"#utility.yul\":12623:12640   */\n      add\n        /* \"#utility.yul\":12619:12646   */\n      slt\n        /* \"#utility.yul\":12609:12731   */\n      tag_441\n      jumpi\n        /* \"#utility.yul\":12650:12729   */\n      tag_442\n      tag_287\n      jump\t// in\n    tag_442:\n        /* \"#utility.yul\":12609:12731   */\n    tag_441:\n        /* \"#utility.yul\":12763:12769   */\n      dup3\n        /* \"#utility.yul\":12750:12770   */\n      calldataload\n        /* \"#utility.yul\":12740:12770   */\n      swap1\n      pop\n        /* \"#utility.yul\":12793:12811   */\n      0xffffffffffffffff\n        /* \"#utility.yul\":12785:12791   */\n      dup2\n        /* \"#utility.yul\":12782:12812   */\n      gt\n        /* \"#utility.yul\":12779:12896   */\n      iszero\n      tag_443\n      jumpi\n        /* \"#utility.yul\":12815:12894   */\n      tag_444\n      tag_288\n      jump\t// in\n    tag_444:\n        /* \"#utility.yul\":12779:12896   */\n    tag_443:\n        /* \"#utility.yul\":12929:12933   */\n      0x20\n        /* \"#utility.yul\":12921:12927   */\n      dup4\n        /* \"#utility.yul\":12917:12934   */\n      add\n        /* \"#utility.yul\":12905:12934   */\n      swap2\n      pop\n        /* \"#utility.yul\":12983:12986   */\n      dup4\n        /* \"#utility.yul\":12975:12979   */\n      0x01\n        /* \"#utility.yul\":12967:12973   */\n      dup3\n        /* \"#utility.yul\":12963:12980   */\n      mul\n        /* \"#utility.yul\":12953:12961   */\n      dup4\n        /* \"#utility.yul\":12949:12981   */\n      add\n        /* \"#utility.yul\":12946:12987   */\n      gt\n        /* \"#utility.yul\":12943:13071   */\n      iszero\n      tag_445\n      jumpi\n        /* \"#utility.yul\":12990:13069   */\n      tag_446\n      tag_289\n      jump\t// in\n    tag_446:\n        /* \"#utility.yul\":12943:13071   */\n    tag_445:\n        /* \"#utility.yul\":12524:13077   */\n      swap3\n      pop\n      swap3\n      swap1\n      pop\n      jump\t// out\n        /* \"#utility.yul\":13083:13902   */\n    tag_51:\n        /* \"#utility.yul\":13172:13178   */\n      0x00\n        /* \"#utility.yul\":13180:13186   */\n      dup1\n        /* \"#utility.yul\":13188:13194   */\n      0x00\n        /* \"#utility.yul\":13196:13202   */\n      dup1\n        /* \"#utility.yul\":13245:13247   */\n      0x60\n        /* \"#utility.yul\":13233:13242   */\n      dup6\n        /* \"#utility.yul\":13224:13231   */\n      dup8\n        /* \"#utility.yul\":13220:13243   */\n      sub\n        /* \"#utility.yul\":13216:13248   */\n      slt\n        /* \"#utility.yul\":13213:13332   */\n      iszero\n      tag_448\n      jumpi\n        /* \"#utility.yul\":13251:13330   */\n      tag_449\n      tag_251\n      jump\t// in\n    tag_449:\n        /* \"#utility.yul\":13213:13332   */\n    tag_448:\n        /* \"#utility.yul\":13371:13372   */\n      0x00\n        /* \"#utility.yul\":13396:13449   */\n      tag_450\n        /* \"#utility.yul\":13441:13448   */\n      dup8\n        /* \"#utility.yul\":13432:13438   */\n      dup3\n        /* \"#utility.yul\":13421:13430   */\n      dup9\n        /* \"#utility.yul\":13417:13439   */\n      add\n        /* \"#utility.yul\":13396:13449   */\n      tag_256\n      jump\t// in\n    tag_450:\n        /* \"#utility.yul\":13386:13449   */\n      swap5\n      pop\n        /* \"#utility.yul\":13342:13459   */\n      pop\n        /* \"#utility.yul\":13498:13500   */\n      0x20\n        /* \"#utility.yul\":13524:13577   */\n      tag_451\n        /* \"#utility.yul\":13569:13576   */\n      dup8\n        /* \"#utility.yul\":13560:13566   */\n      dup3\n        /* \"#utility.yul\":13549:13558   */\n      dup9\n        /* \"#utility.yul\":13545:13567   */\n      add\n        /* \"#utility.yul\":13524:13577   */\n      tag_278\n      jump\t// in\n    tag_451:\n        /* \"#utility.yul\":13514:13577   */\n      swap4\n      pop\n        /* \"#utility.yul\":13469:13587   */\n      pop\n        /* \"#utility.yul\":13654:13656   */\n      0x40\n        /* \"#utility.yul\":13643:13652   */\n      dup6\n        /* \"#utility.yul\":13639:13657   */\n      add\n        /* \"#utility.yul\":13626:13658   */\n      calldataload\n        /* \"#utility.yul\":13685:13703   */\n      0xffffffffffffffff\n        /* \"#utility.yul\":13677:13683   */\n      dup2\n        /* \"#utility.yul\":13674:13704   */\n      gt\n        /* \"#utility.yul\":13671:13788   */\n      iszero\n      tag_452\n      jumpi\n        /* \"#utility.yul\":13707:13786   */\n      tag_453\n      tag_252\n      jump\t// in\n    tag_453:\n        /* \"#utility.yul\":13671:13788   */\n    tag_452:\n        /* \"#utility.yul\":13820:13885   */\n      tag_454\n        /* \"#utility.yul\":13877:13884   */\n      dup8\n        /* \"#utility.yul\":13868:13874   */\n      dup3\n        /* \"#utility.yul\":13857:13866   */\n      dup9\n        /* \"#utility.yul\":13853:13875   */\n      add\n        /* \"#utility.yul\":13820:13885   */\n      tag_290\n      jump\t// in\n    tag_454:\n        /* \"#utility.yul\":13802:13885   */\n      swap3\n      pop\n      swap3\n      pop\n        /* \"#utility.yul\":13597:13895   */\n      pop\n        /* \"#utility.yul\":13083:13902   */\n      swap3\n      swap6\n      swap2\n      swap5\n      pop\n      swap3\n      pop\n      jump\t// out\n        /* \"#utility.yul\":13908:14350   */\n    tag_57:\n        /* \"#utility.yul\":14057:14061   */\n      0x00\n        /* \"#utility.yul\":14095:14097   */\n      0x60\n        /* \"#utility.yul\":14084:14093   */\n      dup3\n        /* \"#utility.yul\":14080:14098   */\n      add\n        /* \"#utility.yul\":14072:14098   */\n      swap1\n      pop\n        /* \"#utility.yul\":14108:14179   */\n      tag_456\n        /* \"#utility.yul\":14176:14177   */\n      0x00\n        /* \"#utility.yul\":14165:14174   */\n      dup4\n        /* \"#utility.yul\":14161:14178   */\n      add\n        /* \"#utility.yul\":14152:14158   */\n      dup7\n        /* \"#utility.yul\":14108:14179   */\n      tag_249\n      jump\t// in\n    tag_456:\n        /* \"#utility.yul\":14189:14261   */\n      tag_457\n        /* \"#utility.yul\":14257:14259   */\n      0x20\n        /* \"#utility.yul\":14246:14255   */\n      dup4\n        /* \"#utility.yul\":14242:14260   */\n      add\n        /* \"#utility.yul\":14233:14239   */\n      dup6\n        /* \"#utility.yul\":14189:14261   */\n      tag_249\n      jump\t// in\n    tag_457:\n        /* \"#utility.yul\":14271:14343   */\n      tag_458\n        /* \"#utility.yul\":14339:14341   */\n      0x40\n        /* \"#utility.yul\":14328:14337   */\n      dup4\n        /* \"#utility.yul\":14324:14342   */\n      add\n        /* \"#utility.yul\":14315:14321   */\n      dup5\n        /* \"#utility.yul\":14271:14343   */\n      tag_249\n      jump\t// in\n    tag_458:\n        /* \"#utility.yul\":13908:14350   */\n      swap5\n      swap4\n      pop\n      pop\n      pop\n      pop\n      jump\t// out\n        /* \"#utility.yul\":14356:14474   */\n    tag_291:\n        /* \"#utility.yul\":14443:14467   */\n      tag_460\n        /* \"#utility.yul\":14461:14466   */\n      dup2\n        /* \"#utility.yul\":14443:14467   */\n      tag_254\n      jump\t// in\n    tag_460:\n        /* \"#utility.yul\":14438:14441   */\n      dup3\n        /* \"#utility.yul\":14431:14468   */\n      mstore\n        /* \"#utility.yul\":14356:14474   */\n      pop\n      pop\n      jump\t// out\n        /* \"#utility.yul\":14480:14702   */\n    tag_73:\n        /* \"#utility.yul\":14573:14577   */\n      0x00\n        /* \"#utility.yul\":14611:14613   */\n      0x20\n        /* \"#utility.yul\":14600:14609   */\n      dup3\n        /* \"#utility.yul\":14596:14614   */\n      add\n        /* \"#utility.yul\":14588:14614   */\n      swap1\n      pop\n        /* \"#utility.yul\":14624:14695   */\n      tag_462\n        /* \"#utility.yul\":14692:14693   */\n      0x00\n        /* \"#utility.yul\":14681:14690   */\n      dup4\n        /* \"#utility.yul\":14677:14694   */\n      add\n        /* \"#utility.yul\":14668:14674   */\n      dup5\n        /* \"#utility.yul\":14624:14695   */\n      tag_291\n      jump\t// in\n    tag_462:\n        /* \"#utility.yul\":14480:14702   */\n      swap3\n      swap2\n      pop\n      pop\n      jump\t// out\n        /* \"#utility.yul\":14708:14824   */\n    tag_292:\n        /* \"#utility.yul\":14778:14799   */\n      tag_464\n        /* \"#utility.yul\":14793:14798   */\n      dup2\n        /* \"#utility.yul\":14778:14799   */\n      tag_271\n      jump\t// in\n    tag_464:\n        /* \"#utility.yul\":14771:14776   */\n      dup2\n        /* \"#utility.yul\":14768:14800   */\n      eq\n        /* \"#utility.yul\":14758:14818   */\n      tag_465\n      jumpi\n        /* \"#utility.yul\":14814:14815   */\n      0x00\n        /* \"#utility.yul\":14811:14812   */\n      dup1\n        /* \"#utility.yul\":14804:14816   */\n      revert\n        /* \"#utility.yul\":14758:14818   */\n    tag_465:\n        /* \"#utility.yul\":14708:14824   */\n      pop\n      jump\t// out\n        /* \"#utility.yul\":14830:14963   */\n    tag_293:\n        /* \"#utility.yul\":14873:14878   */\n      0x00\n        /* \"#utility.yul\":14911:14917   */\n      dup2\n        /* \"#utility.yul\":14898:14918   */\n      calldataload\n        /* \"#utility.yul\":14889:14918   */\n      swap1\n      pop\n        /* \"#utility.yul\":14927:14957   */\n      tag_467\n        /* \"#utility.yul\":14951:14956   */\n      dup2\n        /* \"#utility.yul\":14927:14957   */\n      tag_292\n      jump\t// in\n    tag_467:\n        /* \"#utility.yul\":14830:14963   */\n      swap3\n      swap2\n      pop\n      pop\n      jump\t// out\n        /* \"#utility.yul\":14969:15437   */\n    tag_76:\n        /* \"#utility.yul\":15034:15040   */\n      0x00\n        /* \"#utility.yul\":15042:15048   */\n      dup1\n        /* \"#utility.yul\":15091:15093   */\n      0x40\n        /* \"#utility.yul\":15079:15088   */\n      dup4\n        /* \"#utility.yul\":15070:15077   */\n      dup6\n        /* \"#utility.yul\":15066:15089   */\n      sub\n        /* \"#utility.yul\":15062:15094   */\n      slt\n        /* \"#utility.yul\":15059:15178   */\n      iszero\n      tag_469\n      jumpi\n        /* \"#utility.yul\":15097:15176   */\n      tag_470\n      tag_251\n      jump\t// in\n    tag_470:\n        /* \"#utility.yul\":15059:15178   */\n    tag_469:\n        /* \"#utility.yul\":15217:15218   */\n      0x00\n        /* \"#utility.yul\":15242:15295   */\n      tag_471\n        /* \"#utility.yul\":15287:15294   */\n      dup6\n        /* \"#utility.yul\":15278:15284   */\n      dup3\n        /* \"#utility.yul\":15267:15276   */\n      dup7\n        /* \"#utility.yul\":15263:15285   */\n      add\n        /* \"#utility.yul\":15242:15295   */\n      tag_256\n      jump\t// in\n    tag_471:\n        /* \"#utility.yul\":15232:15295   */\n      swap3\n      pop\n        /* \"#utility.yul\":15188:15305   */\n      pop\n        /* \"#utility.yul\":15344:15346   */\n      0x20\n        /* \"#utility.yul\":15370:15420   */\n      tag_472\n        /* \"#utility.yul\":15412:15419   */\n      dup6\n        /* \"#utility.yul\":15403:15409   */\n      dup3\n        /* \"#utility.yul\":15392:15401   */\n      dup7\n        /* \"#utility.yul\":15388:15410   */\n      add\n        /* \"#utility.yul\":15370:15420   */\n      tag_293\n      jump\t// in\n    tag_472:\n        /* \"#utility.yul\":15360:15420   */\n      swap2\n      pop\n        /* \"#utility.yul\":15315:15430   */\n      pop\n        /* \"#utility.yul\":14969:15437   */\n      swap3\n      pop\n      swap3\n      swap1\n      pop\n      jump\t// out\n        /* \"#utility.yul\":15443:15552   */\n    tag_294:\n        /* \"#utility.yul\":15524:15545   */\n      tag_474\n        /* \"#utility.yul\":15539:15544   */\n      dup2\n        /* \"#utility.yul\":15524:15545   */\n      tag_271\n      jump\t// in\n    tag_474:\n        /* \"#utility.yul\":15519:15522   */\n      dup3\n        /* \"#utility.yul\":15512:15546   */\n      mstore\n        /* \"#utility.yul\":15443:15552   */\n      pop\n      pop\n      jump\t// out\n        /* \"#utility.yul\":15558:15768   */\n    tag_81:\n        /* \"#utility.yul\":15645:15649   */\n      0x00\n        /* \"#utility.yul\":15683:15685   */\n      0x20\n        /* \"#utility.yul\":15672:15681   */\n      dup3\n        /* \"#utility.yul\":15668:15686   */\n      add\n        /* \"#utility.yul\":15660:15686   */\n      swap1\n      pop\n        /* \"#utility.yul\":15696:15761   */\n      tag_476\n        /* \"#utility.yul\":15758:15759   */\n      0x00\n        /* \"#utility.yul\":15747:15756   */\n      dup4\n        /* \"#utility.yul\":15743:15760   */\n      add\n        /* \"#utility.yul\":15734:15740   */\n      dup5\n        /* \"#utility.yul\":15696:15761   */\n      tag_294\n      jump\t// in\n    tag_476:\n        /* \"#utility.yul\":15558:15768   */\n      swap3\n      swap2\n      pop\n      pop\n      jump\t// out\n        /* \"#utility.yul\":15774:16103   */\n    tag_88:\n        /* \"#utility.yul\":15833:15839   */\n      0x00\n        /* \"#utility.yul\":15882:15884   */\n      0x20\n        /* \"#utility.yul\":15870:15879   */\n      dup3\n        /* \"#utility.yul\":15861:15868   */\n      dup5\n        /* \"#utility.yul\":15857:15880   */\n      sub\n        /* \"#utility.yul\":15853:15885   */\n      slt\n        /* \"#utility.yul\":15850:15969   */\n      iszero\n      tag_478\n      jumpi\n        /* \"#utility.yul\":15888:15967   */\n      tag_479\n      tag_251\n      jump\t// in\n    tag_479:\n        /* \"#utility.yul\":15850:15969   */\n    tag_478:\n        /* \"#utility.yul\":16008:16009   */\n      0x00\n        /* \"#utility.yul\":16033:16086   */\n      tag_480\n        /* \"#utility.yul\":16078:16085   */\n      dup5\n        /* \"#utility.yul\":16069:16075   */\n      dup3\n        /* \"#utility.yul\":16058:16067   */\n      dup6\n        /* \"#utility.yul\":16054:16076   */\n      add\n        /* \"#utility.yul\":16033:16086   */\n      tag_278\n      jump\t// in\n    tag_480:\n        /* \"#utility.yul\":16023:16086   */\n      swap2\n      pop\n        /* \"#utility.yul\":15979:16096   */\n      pop\n        /* \"#utility.yul\":15774:16103   */\n      swap3\n      swap2\n      pop\n      pop\n      jump\t// out\n        /* \"#utility.yul\":16109:16650   */\n    tag_91:\n        /* \"#utility.yul\":16280:16284   */\n      0x00\n        /* \"#utility.yul\":16318:16321   */\n      0x80\n        /* \"#utility.yul\":16307:16316   */\n      dup3\n        /* \"#utility.yul\":16303:16322   */\n      add\n        /* \"#utility.yul\":16295:16322   */\n      swap1\n      pop\n        /* \"#utility.yul\":16332:16403   */\n      tag_482\n        /* \"#utility.yul\":16400:16401   */\n      0x00\n        /* \"#utility.yul\":16389:16398   */\n      dup4\n        /* \"#utility.yul\":16385:16402   */\n      add\n        /* \"#utility.yul\":16376:16382   */\n      dup8\n        /* \"#utility.yul\":16332:16403   */\n      tag_249\n      jump\t// in\n    tag_482:\n        /* \"#utility.yul\":16413:16485   */\n      tag_483\n        /* \"#utility.yul\":16481:16483   */\n      0x20\n        /* \"#utility.yul\":16470:16479   */\n      dup4\n        /* \"#utility.yul\":16466:16484   */\n      add\n        /* \"#utility.yul\":16457:16463   */\n      dup7\n        /* \"#utility.yul\":16413:16485   */\n      tag_291\n      jump\t// in\n    tag_483:\n        /* \"#utility.yul\":16495:16567   */\n      tag_484\n        /* \"#utility.yul\":16563:16565   */\n      0x40\n        /* \"#utility.yul\":16552:16561   */\n      dup4\n        /* \"#utility.yul\":16548:16566   */\n      add\n        /* \"#utility.yul\":16539:16545   */\n      dup6\n        /* \"#utility.yul\":16495:16567   */\n      tag_249\n      jump\t// in\n    tag_484:\n        /* \"#utility.yul\":16577:16643   */\n      tag_485\n        /* \"#utility.yul\":16639:16641   */\n      0x60\n        /* \"#utility.yul\":16628:16637   */\n      dup4\n        /* \"#utility.yul\":16624:16642   */\n      add\n        /* \"#utility.yul\":16615:16621   */\n      dup5\n        /* \"#utility.yul\":16577:16643   */\n      tag_294\n      jump\t// in\n    tag_485:\n        /* \"#utility.yul\":16109:16650   */\n      swap6\n      swap5\n      pop\n      pop\n      pop\n      pop\n      pop\n      jump\t// out\n        /* \"#utility.yul\":16656:16836   */\n    tag_295:\n        /* \"#utility.yul\":16704:16781   */\n      0x4e487b7100000000000000000000000000000000000000000000000000000000\n        /* \"#utility.yul\":16701:16702   */\n      0x00\n        /* \"#utility.yul\":16694:16782   */\n      mstore\n        /* \"#utility.yul\":16801:16805   */\n      0x22\n        /* \"#utility.yul\":16798:16799   */\n      0x04\n        /* \"#utility.yul\":16791:16806   */\n      mstore\n        /* \"#utility.yul\":16825:16829   */\n      0x24\n        /* \"#utility.yul\":16822:16823   */\n      0x00\n        /* \"#utility.yul\":16815:16830   */\n      revert\n        /* \"#utility.yul\":16842:17162   */\n    tag_120:\n        /* \"#utility.yul\":16886:16892   */\n      0x00\n        /* \"#utility.yul\":16923:16924   */\n      0x02\n        /* \"#utility.yul\":16917:16921   */\n      dup3\n        /* \"#utility.yul\":16913:16925   */\n      div\n        /* \"#utility.yul\":16903:16925   */\n      swap1\n      pop\n        /* \"#utility.yul\":16970:16971   */\n      0x01\n        /* \"#utility.yul\":16964:16968   */\n      dup3\n        /* \"#utility.yul\":16960:16972   */\n      and\n        /* \"#utility.yul\":16991:17009   */\n      dup1\n        /* \"#utility.yul\":16981:17062   */\n      tag_488\n      jumpi\n        /* \"#utility.yul\":17047:17051   */\n      0x7f\n        /* \"#utility.yul\":17039:17045   */\n      dup3\n        /* \"#utility.yul\":17035:17052   */\n      and\n        /* \"#utility.yul\":17025:17052   */\n      swap2\n      pop\n        /* \"#utility.yul\":16981:17062   */\n    tag_488:\n        /* \"#utility.yul\":17109:17111   */\n      0x20\n        /* \"#utility.yul\":17101:17107   */\n      dup3\n        /* \"#utility.yul\":17098:17112   */\n      lt\n        /* \"#utility.yul\":17078:17096   */\n      dup2\n        /* \"#utility.yul\":17075:17113   */\n      sub\n        /* \"#utility.yul\":17072:17156   */\n      tag_489\n      jumpi\n        /* \"#utility.yul\":17128:17146   */\n      tag_490\n      tag_295\n      jump\t// in\n    tag_490:\n        /* \"#utility.yul\":17072:17156   */\n    tag_489:\n        /* \"#utility.yul\":16893:17162   */\n      pop\n        /* \"#utility.yul\":16842:17162   */\n      swap2\n      swap1\n      pop\n      jump\t// out\n        /* \"#utility.yul\":17168:17500   */\n    tag_132:\n        /* \"#utility.yul\":17289:17293   */\n      0x00\n        /* \"#utility.yul\":17327:17329   */\n      0x40\n        /* \"#utility.yul\":17316:17325   */\n      dup3\n        /* \"#utility.yul\":17312:17330   */\n      add\n        /* \"#utility.yul\":17304:17330   */\n      swap1\n      pop\n        /* \"#utility.yul\":17340:17411   */\n      tag_492\n        /* \"#utility.yul\":17408:17409   */\n      0x00\n        /* \"#utility.yul\":17397:17406   */\n      dup4\n        /* \"#utility.yul\":17393:17410   */\n      add\n        /* \"#utility.yul\":17384:17390   */\n      dup6\n        /* \"#utility.yul\":17340:17411   */\n      tag_291\n      jump\t// in\n    tag_492:\n        /* \"#utility.yul\":17421:17493   */\n      tag_493\n        /* \"#utility.yul\":17489:17491   */\n      0x20\n        /* \"#utility.yul\":17478:17487   */\n      dup4\n        /* \"#utility.yul\":17474:17492   */\n      add\n        /* \"#utility.yul\":17465:17471   */\n      dup5\n        /* \"#utility.yul\":17421:17493   */\n      tag_249\n      jump\t// in\n    tag_493:\n        /* \"#utility.yul\":17168:17500   */\n      swap4\n      swap3\n      pop\n      pop\n      pop\n      jump\t// out\n        /* \"#utility.yul\":17506:17838   */\n    tag_140:\n        /* \"#utility.yul\":17627:17631   */\n      0x00\n        /* \"#utility.yul\":17665:17667   */\n      0x40\n        /* \"#utility.yul\":17654:17663   */\n      dup3\n        /* \"#utility.yul\":17650:17668   */\n      add\n        /* \"#utility.yul\":17642:17668   */\n      swap1\n      pop\n        /* \"#utility.yul\":17678:17749   */\n      tag_495\n        /* \"#utility.yul\":17746:17747   */\n      0x00\n        /* \"#utility.yul\":17735:17744   */\n      dup4\n        /* \"#utility.yul\":17731:17748   */\n      add\n        /* \"#utility.yul\":17722:17728   */\n      dup6\n        /* \"#utility.yul\":17678:17749   */\n      tag_249\n      jump\t// in\n    tag_495:\n        /* \"#utility.yul\":17759:17831   */\n      tag_496\n        /* \"#utility.yul\":17827:17829   */\n      0x20\n        /* \"#utility.yul\":17816:17825   */\n      dup4\n        /* \"#utility.yul\":17812:17830   */\n      add\n        /* \"#utility.yul\":17803:17809   */\n      dup5\n        /* \"#utility.yul\":17759:17831   */\n      tag_249\n      jump\t// in\n    tag_496:\n        /* \"#utility.yul\":17506:17838   */\n      swap4\n      swap3\n      pop\n      pop\n      pop\n      jump\t// out\n        /* \"#utility.yul\":17844:18024   */\n    tag_296:\n        /* \"#utility.yul\":17892:17969   */\n      0x4e487b7100000000000000000000000000000000000000000000000000000000\n        /* \"#utility.yul\":17889:17890   */\n      0x00\n        /* \"#utility.yul\":17882:17970   */\n      mstore\n        /* \"#utility.yul\":17989:17993   */\n      0x11\n        /* \"#utility.yul\":17986:17987   */\n      0x04\n        /* \"#utility.yul\":17979:17994   */\n      mstore\n        /* \"#utility.yul\":18013:18017   */\n      0x24\n        /* \"#utility.yul\":18010:18011   */\n      0x00\n        /* \"#utility.yul\":18003:18018   */\n      revert\n        /* \"#utility.yul\":18030:18224   */\n    tag_142:\n        /* \"#utility.yul\":18070:18074   */\n      0x00\n        /* \"#utility.yul\":18090:18110   */\n      tag_499\n        /* \"#utility.yul\":18108:18109   */\n      dup3\n        /* \"#utility.yul\":18090:18110   */\n      tag_248\n      jump\t// in\n    tag_499:\n        /* \"#utility.yul\":18085:18110   */\n      swap2\n      pop\n        /* \"#utility.yul\":18124:18144   */\n      tag_500\n        /* \"#utility.yul\":18142:18143   */\n      dup4\n        /* \"#utility.yul\":18124:18144   */\n      tag_248\n      jump\t// in\n    tag_500:\n        /* \"#utility.yul\":18119:18144   */\n      swap3\n      pop\n        /* \"#utility.yul\":18168:18169   */\n      dup3\n        /* \"#utility.yul\":18165:18166   */\n      dup3\n        /* \"#utility.yul\":18161:18170   */\n      sub\n        /* \"#utility.yul\":18153:18170   */\n      swap1\n      pop\n        /* \"#utility.yul\":18192:18193   */\n      dup2\n        /* \"#utility.yul\":18186:18190   */\n      dup2\n        /* \"#utility.yul\":18183:18194   */\n      gt\n        /* \"#utility.yul\":18180:18217   */\n      iszero\n      tag_501\n      jumpi\n        /* \"#utility.yul\":18197:18215   */\n      tag_502\n      tag_296\n      jump\t// in\n    tag_502:\n        /* \"#utility.yul\":18180:18217   */\n    tag_501:\n        /* \"#utility.yul\":18030:18224   */\n      swap3\n      swap2\n      pop\n      pop\n      jump\t// out\n        /* \"#utility.yul\":18230:18421   */\n    tag_144:\n        /* \"#utility.yul\":18270:18273   */\n      0x00\n        /* \"#utility.yul\":18289:18309   */\n      tag_504\n        /* \"#utility.yul\":18307:18308   */\n      dup3\n        /* \"#utility.yul\":18289:18309   */\n      tag_248\n      jump\t// in\n    tag_504:\n        /* \"#utility.yul\":18284:18309   */\n      swap2\n      pop\n        /* \"#utility.yul\":18323:18343   */\n      tag_505\n        /* \"#utility.yul\":18341:18342   */\n      dup4\n        /* \"#utility.yul\":18323:18343   */\n      tag_248\n      jump\t// in\n    tag_505:\n        /* \"#utility.yul\":18318:18343   */\n      swap3\n      pop\n        /* \"#utility.yul\":18366:18367   */\n      dup3\n        /* \"#utility.yul\":18363:18364   */\n      dup3\n        /* \"#utility.yul\":18359:18368   */\n      add\n        /* \"#utility.yul\":18352:18368   */\n      swap1\n      pop\n        /* \"#utility.yul\":18387:18390   */\n      dup1\n        /* \"#utility.yul\":18384:18385   */\n      dup3\n        /* \"#utility.yul\":18381:18391   */\n      gt\n        /* \"#utility.yul\":18378:18414   */\n      iszero\n      tag_506\n      jumpi\n        /* \"#utility.yul\":18394:18412   */\n      tag_507\n      tag_296\n      jump\t// in\n    tag_507:\n        /* \"#utility.yul\":18378:18414   */\n    tag_506:\n        /* \"#utility.yul\":18230:18421   */\n      swap3\n      swap2\n      pop\n      pop\n      jump\t// out\n        /* \"#utility.yul\":18427:18607   */\n    tag_157:\n        /* \"#utility.yul\":18475:18552   */\n      0x4e487b7100000000000000000000000000000000000000000000000000000000\n        /* \"#utility.yul\":18472:18473   */\n      0x00\n        /* \"#utility.yul\":18465:18553   */\n      mstore\n        /* \"#utility.yul\":18572:18576   */\n      0x32\n        /* \"#utility.yul\":18569:18570   */\n      0x04\n        /* \"#utility.yul\":18562:18577   */\n      mstore\n        /* \"#utility.yul\":18596:18600   */\n      0x24\n        /* \"#utility.yul\":18593:18594   */\n      0x00\n        /* \"#utility.yul\":18586:18601   */\n      revert\n        /* \"#utility.yul\":18613:18782   */\n    tag_297:\n        /* \"#utility.yul\":18697:18708   */\n      0x00\n        /* \"#utility.yul\":18731:18737   */\n      dup3\n        /* \"#utility.yul\":18726:18729   */\n      dup3\n        /* \"#utility.yul\":18719:18738   */\n      mstore\n        /* \"#utility.yul\":18771:18775   */\n      0x20\n        /* \"#utility.yul\":18766:18769   */\n      dup3\n        /* \"#utility.yul\":18762:18776   */\n      add\n        /* \"#utility.yul\":18747:18776   */\n      swap1\n      pop\n        /* \"#utility.yul\":18613:18782   */\n      swap3\n      swap2\n      pop\n      pop\n      jump\t// out\n        /* \"#utility.yul\":18788:18929   */\n    tag_298:\n        /* \"#utility.yul\":18837:18841   */\n      0x00\n        /* \"#utility.yul\":18860:18863   */\n      dup2\n        /* \"#utility.yul\":18852:18863   */\n      swap1\n      pop\n        /* \"#utility.yul\":18883:18886   */\n      dup2\n        /* \"#utility.yul\":18880:18881   */\n      0x00\n        /* \"#utility.yul\":18873:18887   */\n      mstore\n        /* \"#utility.yul\":18917:18921   */\n      0x20\n        /* \"#utility.yul\":18914:18915   */\n      0x00\n        /* \"#utility.yul\":18904:18922   */\n      keccak256\n        /* \"#utility.yul\":18896:18922   */\n      swap1\n      pop\n        /* \"#utility.yul\":18788:18929   */\n      swap2\n      swap1\n      pop\n      jump\t// out\n        /* \"#utility.yul\":18959:19790   */\n    tag_299:\n        /* \"#utility.yul\":19044:19047   */\n      0x00\n        /* \"#utility.yul\":19081:19086   */\n      dup2\n        /* \"#utility.yul\":19075:19087   */\n      sload\n        /* \"#utility.yul\":19110:19146   */\n      tag_512\n        /* \"#utility.yul\":19136:19145   */\n      dup2\n        /* \"#utility.yul\":19110:19146   */\n      tag_120\n      jump\t// in\n    tag_512:\n        /* \"#utility.yul\":19162:19233   */\n      tag_513\n        /* \"#utility.yul\":19226:19232   */\n      dup2\n        /* \"#utility.yul\":19221:19224   */\n      dup7\n        /* \"#utility.yul\":19162:19233   */\n      tag_297\n      jump\t// in\n    tag_513:\n        /* \"#utility.yul\":19155:19233   */\n      swap5\n      pop\n        /* \"#utility.yul\":19264:19265   */\n      0x01\n        /* \"#utility.yul\":19253:19262   */\n      dup3\n        /* \"#utility.yul\":19249:19266   */\n      and\n        /* \"#utility.yul\":19280:19281   */\n      0x00\n        /* \"#utility.yul\":19275:19439   */\n      dup2\n      eq\n      tag_515\n      jumpi\n        /* \"#utility.yul\":19453:19454   */\n      0x01\n        /* \"#utility.yul\":19448:19784   */\n      dup2\n      eq\n      tag_516\n      jumpi\n        /* \"#utility.yul\":19242:19784   */\n      jump(tag_514)\n        /* \"#utility.yul\":19275:19439   */\n    tag_515:\n        /* \"#utility.yul\":19359:19363   */\n      0xff\n        /* \"#utility.yul\":19355:19364   */\n      not\n        /* \"#utility.yul\":19344:19353   */\n      dup4\n        /* \"#utility.yul\":19340:19365   */\n      and\n        /* \"#utility.yul\":19335:19338   */\n      dup7\n        /* \"#utility.yul\":19328:19366   */\n      mstore\n        /* \"#utility.yul\":19419:19425   */\n      dup2\n        /* \"#utility.yul\":19412:19426   */\n      iszero\n        /* \"#utility.yul\":19405:19427   */\n      iszero\n        /* \"#utility.yul\":19399:19403   */\n      0x20\n        /* \"#utility.yul\":19395:19428   */\n      mul\n        /* \"#utility.yul\":19390:19393   */\n      dup7\n        /* \"#utility.yul\":19386:19429   */\n      add\n        /* \"#utility.yul\":19379:19429   */\n      swap4\n      pop\n        /* \"#utility.yul\":19275:19439   */\n      jump(tag_514)\n        /* \"#utility.yul\":19448:19784   */\n    tag_516:\n        /* \"#utility.yul\":19515:19553   */\n      tag_517\n        /* \"#utility.yul\":19547:19552   */\n      dup6\n        /* \"#utility.yul\":19515:19553   */\n      tag_298\n      jump\t// in\n    tag_517:\n        /* \"#utility.yul\":19575:19576   */\n      0x00\n        /* \"#utility.yul\":19589:19743   */\n    tag_518:\n        /* \"#utility.yul\":19603:19609   */\n      dup4\n        /* \"#utility.yul\":19600:19601   */\n      dup2\n        /* \"#utility.yul\":19597:19610   */\n      lt\n        /* \"#utility.yul\":19589:19743   */\n      iszero\n      tag_520\n      jumpi\n        /* \"#utility.yul\":19677:19684   */\n      dup2\n        /* \"#utility.yul\":19671:19685   */\n      sload\n        /* \"#utility.yul\":19667:19668   */\n      dup2\n        /* \"#utility.yul\":19662:19665   */\n      dup10\n        /* \"#utility.yul\":19658:19669   */\n      add\n        /* \"#utility.yul\":19651:19686   */\n      mstore\n        /* \"#utility.yul\":19727:19728   */\n      0x01\n        /* \"#utility.yul\":19718:19725   */\n      dup3\n        /* \"#utility.yul\":19714:19729   */\n      add\n        /* \"#utility.yul\":19703:19729   */\n      swap2\n      pop\n        /* \"#utility.yul\":19625:19629   */\n      0x20\n        /* \"#utility.yul\":19622:19623   */\n      dup2\n        /* \"#utility.yul\":19618:19630   */\n      add\n        /* \"#utility.yul\":19613:19630   */\n      swap1\n      pop\n        /* \"#utility.yul\":19589:19743   */\n      jump(tag_518)\n    tag_520:\n        /* \"#utility.yul\":19772:19773   */\n      dup1\n        /* \"#utility.yul\":19767:19770   */\n      dup9\n        /* \"#utility.yul\":19763:19774   */\n      add\n        /* \"#utility.yul\":19756:19774   */\n      swap6\n      pop\n        /* \"#utility.yul\":19455:19784   */\n      pop\n      pop\n        /* \"#utility.yul\":19242:19784   */\n    tag_514:\n      pop\n        /* \"#utility.yul\":19048:19790   */\n      pop\n      pop\n        /* \"#utility.yul\":18959:19790   */\n      swap3\n      swap2\n      pop\n      pop\n      jump\t// out\n        /* \"#utility.yul\":19796:20434   */\n    tag_180:\n        /* \"#utility.yul\":19990:19994   */\n      0x00\n        /* \"#utility.yul\":20028:20031   */\n      0x80\n        /* \"#utility.yul\":20017:20026   */\n      dup3\n        /* \"#utility.yul\":20013:20032   */\n      add\n        /* \"#utility.yul\":20005:20032   */\n      swap1\n      pop\n        /* \"#utility.yul\":20042:20113   */\n      tag_522\n        /* \"#utility.yul\":20110:20111   */\n      0x00\n        /* \"#utility.yul\":20099:20108   */\n      dup4\n        /* \"#utility.yul\":20095:20112   */\n      add\n        /* \"#utility.yul\":20086:20092   */\n      dup8\n        /* \"#utility.yul\":20042:20113   */\n      tag_291\n      jump\t// in\n    tag_522:\n        /* \"#utility.yul\":20123:20195   */\n      tag_523\n        /* \"#utility.yul\":20191:20193   */\n      0x20\n        /* \"#utility.yul\":20180:20189   */\n      dup4\n        /* \"#utility.yul\":20176:20194   */\n      add\n        /* \"#utility.yul\":20167:20173   */\n      dup7\n        /* \"#utility.yul\":20123:20195   */\n      tag_249\n      jump\t// in\n    tag_523:\n        /* \"#utility.yul\":20205:20277   */\n      tag_524\n        /* \"#utility.yul\":20273:20275   */\n      0x40\n        /* \"#utility.yul\":20262:20271   */\n      dup4\n        /* \"#utility.yul\":20258:20276   */\n      add\n        /* \"#utility.yul\":20249:20255   */\n      dup6\n        /* \"#utility.yul\":20205:20277   */\n      tag_249\n      jump\t// in\n    tag_524:\n        /* \"#utility.yul\":20324:20333   */\n      dup2\n        /* \"#utility.yul\":20318:20322   */\n      dup2\n        /* \"#utility.yul\":20314:20334   */\n      sub\n        /* \"#utility.yul\":20309:20311   */\n      0x60\n        /* \"#utility.yul\":20298:20307   */\n      dup4\n        /* \"#utility.yul\":20294:20312   */\n      add\n        /* \"#utility.yul\":20287:20335   */\n      mstore\n        /* \"#utility.yul\":20352:20427   */\n      tag_525\n        /* \"#utility.yul\":20422:20426   */\n      dup2\n        /* \"#utility.yul\":20413:20419   */\n      dup5\n        /* \"#utility.yul\":20352:20427   */\n      tag_299\n      jump\t// in\n    tag_525:\n        /* \"#utility.yul\":20344:20427   */\n      swap1\n      pop\n        /* \"#utility.yul\":19796:20434   */\n      swap6\n      swap5\n      pop\n      pop\n      pop\n      pop\n      pop\n      jump\t// out\n        /* \"#utility.yul\":20440:20673   */\n    tag_182:\n        /* \"#utility.yul\":20479:20482   */\n      0x00\n        /* \"#utility.yul\":20502:20526   */\n      tag_527\n        /* \"#utility.yul\":20520:20525   */\n      dup3\n        /* \"#utility.yul\":20502:20526   */\n      tag_248\n      jump\t// in\n    tag_527:\n        /* \"#utility.yul\":20493:20526   */\n      swap2\n      pop\n        /* \"#utility.yul\":20548:20614   */\n      0xffffffffffffffffffffffffffffffffffffffffffffffffffffffffffffffff\n        /* \"#utility.yul\":20541:20546   */\n      dup3\n        /* \"#utility.yul\":20538:20615   */\n      sub\n        /* \"#utility.yul\":20535:20638   */\n      tag_528\n      jumpi\n        /* \"#utility.yul\":20618:20636   */\n      tag_529\n      tag_296\n      jump\t// in\n    tag_529:\n        /* \"#utility.yul\":20535:20638   */\n    tag_528:\n        /* \"#utility.yul\":20665:20666   */\n      0x01\n        /* \"#utility.yul\":20658:20663   */\n      dup3\n        /* \"#utility.yul\":20654:20667   */\n      add\n        /* \"#utility.yul\":20647:20667   */\n      swap1\n      pop\n        /* \"#utility.yul\":20440:20673   */\n      swap2\n      swap1\n      pop\n      jump\t// out\n        /* \"#utility.yul\":20679:20772   */\n    tag_300:\n        /* \"#utility.yul\":20716:20722   */\n      0x00\n        /* \"#utility.yul\":20763:20765   */\n      0x20\n        /* \"#utility.yul\":20758:20760   */\n      0x1f\n        /* \"#utility.yul\":20751:20756   */\n      dup4\n        /* \"#utility.yul\":20747:20761   */\n      add\n        /* \"#utility.yul\":20743:20766   */\n      div\n        /* \"#utility.yul\":20733:20766   */\n      swap1\n      pop\n        /* \"#utility.yul\":20679:20772   */\n      swap2\n      swap1\n      pop\n      jump\t// out\n        /* \"#utility.yul\":20778:20885   */\n    tag_301:\n        /* \"#utility.yul\":20822:20830   */\n      0x00\n        /* \"#utility.yul\":20872:20877   */\n      dup3\n        /* \"#utility.yul\":20866:20870   */\n      dup3\n        /* \"#utility.yul\":20862:20878   */\n      shl\n        /* \"#utility.yul\":20841:20878   */\n      swap1\n      pop\n        /* \"#utility.yul\":20778:20885   */\n      swap3\n      swap2\n      pop\n      pop\n      jump\t// out\n        /* \"#utility.yul\":20891:21284   */\n    tag_302:\n        /* \"#utility.yul\":20960:20966   */\n      0x00\n        /* \"#utility.yul\":21010:21011   */\n      0x08\n        /* \"#utility.yul\":20998:21008   */\n      dup4\n        /* \"#utility.yul\":20994:21012   */\n      mul\n        /* \"#utility.yul\":21033:21130   */\n      tag_533\n        /* \"#utility.yul\":21063:21129   */\n      0xffffffffffffffffffffffffffffffffffffffffffffffffffffffffffffffff\n        /* \"#utility.yul\":21052:21061   */\n      dup3\n        /* \"#utility.yul\":21033:21130   */\n      tag_301\n      jump\t// in\n    tag_533:\n        /* \"#utility.yul\":21151:21190   */\n      tag_534\n        /* \"#utility.yul\":21181:21189   */\n      dup7\n        /* \"#utility.yul\":21170:21179   */\n      dup4\n        /* \"#utility.yul\":21151:21190   */\n      tag_301\n      jump\t// in\n    tag_534:\n        /* \"#utility.yul\":21139:21190   */\n      swap6\n      pop\n        /* \"#utility.yul\":21223:21227   */\n      dup1\n        /* \"#utility.yul\":21219:21228   */\n      not\n        /* \"#utility.yul\":21212:21217   */\n      dup5\n        /* \"#utility.yul\":21208:21229   */\n      and\n        /* \"#utility.yul\":21199:21229   */\n      swap4\n      pop\n        /* \"#utility.yul\":21272:21276   */\n      dup1\n        /* \"#utility.yul\":21262:21270   */\n      dup7\n        /* \"#utility.yul\":21258:21277   */\n      and\n        /* \"#utility.yul\":21251:21256   */\n      dup5\n        /* \"#utility.yul\":21248:21278   */\n      or\n        /* \"#utility.yul\":21238:21278   */\n      swap3\n      pop\n        /* \"#utility.yul\":20967:21284   */\n      pop\n      pop\n        /* \"#utility.yul\":20891:21284   */\n      swap4\n      swap3\n      pop\n      pop\n      pop\n      jump\t// out\n        /* \"#utility.yul\":21290:21350   */\n    tag_303:\n        /* \"#utility.yul\":21318:21321   */\n      0x00\n        /* \"#utility.yul\":21339:21344   */\n      dup2\n        /* \"#utility.yul\":21332:21344   */\n      swap1\n      pop\n        /* \"#utility.yul\":21290:21350   */\n      swap2\n      swap1\n      pop\n      jump\t// out\n        /* \"#utility.yul\":21356:21498   */\n    tag_304:\n        /* \"#utility.yul\":21406:21415   */\n      0x00\n        /* \"#utility.yul\":21439:21492   */\n      tag_537\n        /* \"#utility.yul\":21457:21491   */\n      tag_538\n        /* \"#utility.yul\":21466:21490   */\n      tag_539\n        /* \"#utility.yul\":21484:21489   */\n      dup5\n        /* \"#utility.yul\":21466:21490   */\n      tag_248\n      jump\t// in\n    tag_539:\n        /* \"#utility.yul\":21457:21491   */\n      tag_303\n      jump\t// in\n    tag_538:\n        /* \"#utility.yul\":21439:21492   */\n      tag_248\n      jump\t// in\n    tag_537:\n        /* \"#utility.yul\":21426:21492   */\n      swap1\n      pop\n        /* \"#utility.yul\":21356:21498   */\n      swap2\n      swap1\n      pop\n      jump\t// out\n        /* \"#utility.yul\":21504:21579   */\n    tag_305:\n        /* \"#utility.yul\":21547:21550   */\n      0x00\n        /* \"#utility.yul\":21568:21573   */\n      dup2\n        /* \"#utility.yul\":21561:21573   */\n      swap1\n      pop\n        /* \"#utility.yul\":21504:21579   */\n      swap2\n      swap1\n      pop\n      jump\t// out\n        /* \"#utility.yul\":21585:21854   */\n    tag_306:\n        /* \"#utility.yul\":21695:21734   */\n      tag_542\n        /* \"#utility.yul\":21726:21733   */\n      dup4\n        /* \"#utility.yul\":21695:21734   */\n      tag_304\n      jump\t// in\n    tag_542:\n        /* \"#utility.yul\":21756:21847   */\n      tag_543\n        /* \"#utility.yul\":21805:21846   */\n      tag_544\n        /* \"#utility.yul\":21829:21845   */\n      dup3\n        /* \"#utility.yul\":21805:21846   */\n      tag_305\n      jump\t// in\n    tag_544:\n        /* \"#utility.yul\":21797:21803   */\n      dup5\n        /* \"#utility.yul\":21790:21794   */\n      dup5\n        /* \"#utility.yul\":21784:21795   */\n      sload\n        /* \"#utility.yul\":21756:21847   */\n      tag_302\n      jump\t// in\n    tag_543:\n        /* \"#utility.yul\":21750:21754   */\n      dup3\n        /* \"#utility.yul\":21743:21848   */\n      sstore\n        /* \"#utility.yul\":21661:21854   */\n      pop\n        /* \"#utility.yul\":21585:21854   */\n      pop\n      pop\n      pop\n      jump\t// out\n        /* \"#utility.yul\":21860:21933   */\n    tag_307:\n        /* \"#utility.yul\":21905:21908   */\n      0x00\n        /* \"#utility.yul\":21860:21933   */\n      swap1\n      jump\t// out\n        /* \"#utility.yul\":21939:22128   */\n    tag_308:\n        /* \"#utility.yul\":22016:22048   */\n      tag_547\n      tag_307\n      jump\t// in\n    tag_547:\n        /* \"#utility.yul\":22057:22122   */\n      tag_548\n        /* \"#utility.yul\":22115:22121   */\n      dup2\n        /* \"#utility.yul\":22107:22113   */\n      dup5\n        /* \"#utility.yul\":22101:22105   */\n      dup5\n        /* \"#utility.yul\":22057:22122   */\n      tag_306\n      jump\t// in\n    tag_548:\n        /* \"#utility.yul\":21992:22128   */\n      pop\n        /* \"#utility.yul\":21939:22128   */\n      pop\n      pop\n      jump\t// out\n        /* \"#utility.yul\":22134:22320   */\n    tag_309:\n        /* \"#utility.yul\":22194:22314   */\n    tag_550:\n        /* \"#utility.yul\":22211:22214   */\n      dup2\n        /* \"#utility.yul\":22204:22209   */\n      dup2\n        /* \"#utility.yul\":22201:22215   */\n      lt\n        /* \"#utility.yul\":22194:22314   */\n      iszero\n      tag_552\n      jumpi\n        /* \"#utility.yul\":22265:22304   */\n      tag_553\n        /* \"#utility.yul\":22302:22303   */\n      0x00\n        /* \"#utility.yul\":22295:22300   */\n      dup3\n        /* \"#utility.yul\":22265:22304   */\n      tag_308\n      jump\t// in\n    tag_553:\n        /* \"#utility.yul\":22238:22239   */\n      0x01\n        /* \"#utility.yul\":22231:22236   */\n      dup2\n        /* \"#utility.yul\":22227:22240   */\n      add\n        /* \"#utility.yul\":22218:22240   */\n      swap1\n      pop\n        /* \"#utility.yul\":22194:22314   */\n      jump(tag_550)\n    tag_552:\n        /* \"#utility.yul\":22134:22320   */\n      pop\n      pop\n      jump\t// out\n        /* \"#utility.yul\":22326:22869   */\n    tag_310:\n        /* \"#utility.yul\":22427:22429   */\n      0x1f\n        /* \"#utility.yul\":22422:22425   */\n      dup3\n        /* \"#utility.yul\":22419:22430   */\n      gt\n        /* \"#utility.yul\":22416:22862   */\n      iszero\n      tag_555\n      jumpi\n        /* \"#utility.yul\":22461:22499   */\n      tag_556\n        /* \"#utility.yul\":22493:22498   */\n      dup2\n        /* \"#utility.yul\":22461:22499   */\n      tag_298\n      jump\t// in\n    tag_556:\n        /* \"#utility.yul\":22545:22574   */\n      tag_557\n        /* \"#utility.yul\":22563:22573   */\n      dup5\n        /* \"#utility.yul\":22545:22574   */\n      tag_300\n      jump\t// in\n    tag_557:\n        /* \"#utility.yul\":22535:22543   */\n      dup2\n        /* \"#utility.yul\":22531:22575   */\n      add\n        /* \"#utility.yul\":22728:22730   */\n      0x20\n        /* \"#utility.yul\":22716:22726   */\n      dup6\n        /* \"#utility.yul\":22713:22731   */\n      lt\n        /* \"#utility.yul\":22710:22759   */\n      iszero\n      tag_558\n      jumpi\n        /* \"#utility.yul\":22749:22757   */\n      dup2\n        /* \"#utility.yul\":22734:22757   */\n      swap1\n      pop\n        /* \"#utility.yul\":22710:22759   */\n    tag_558:\n        /* \"#utility.yul\":22772:22852   */\n      tag_559\n        /* \"#utility.yul\":22828:22850   */\n      tag_560\n        /* \"#utility.yul\":22846:22849   */\n      dup6\n        /* \"#utility.yul\":22828:22850   */\n      tag_300\n      jump\t// in\n    tag_560:\n        /* \"#utility.yul\":22818:22826   */\n      dup4\n        /* \"#utility.yul\":22814:22851   */\n      add\n        /* \"#utility.yul\":22801:22812   */\n      dup3\n        /* \"#utility.yul\":22772:22852   */\n      tag_309\n      jump\t// in\n    tag_559:\n        /* \"#utility.yul\":22431:22862   */\n      pop\n      pop\n        /* \"#utility.yul\":22416:22862   */\n    tag_555:\n        /* \"#utility.yul\":22326:22869   */\n      pop\n      pop\n      pop\n      jump\t// out\n        /* \"#utility.yul\":22875:22992   */\n    tag_311:\n        /* \"#utility.yul\":22929:22937   */\n      0x00\n        /* \"#utility.yul\":22979:22984   */\n      dup3\n        /* \"#utility.yul\":22973:22977   */\n      dup3\n        /* \"#utility.yul\":22969:22985   */\n      shr\n        /* \"#utility.yul\":22948:22985   */\n      swap1\n      pop\n        /* \"#utility.yul\":22875:22992   */\n      swap3\n      swap2\n      pop\n      pop\n      jump\t// out\n        /* \"#utility.yul\":22998:23167   */\n    tag_312:\n        /* \"#utility.yul\":23042:23048   */\n      0x00\n        /* \"#utility.yul\":23075:23126   */\n      tag_563\n        /* \"#utility.yul\":23123:23124   */\n      0x00\n        /* \"#utility.yul\":23119:23125   */\n      not\n        /* \"#utility.yul\":23111:23116   */\n      dup5\n        /* \"#utility.yul\":23108:23109   */\n      0x08\n        /* \"#utility.yul\":23104:23117   */\n      mul\n        /* \"#utility.yul\":23075:23126   */\n      tag_311\n      jump\t// in\n    tag_563:\n        /* \"#utility.yul\":23071:23127   */\n      not\n        /* \"#utility.yul\":23156:23160   */\n      dup1\n        /* \"#utility.yul\":23150:23154   */\n      dup4\n        /* \"#utility.yul\":23146:23161   */\n      and\n        /* \"#utility.yul\":23136:23161   */\n      swap2\n      pop\n        /* \"#utility.yul\":23049:23167   */\n      pop\n        /* \"#utility.yul\":22998:23167   */\n      swap3\n      swap2\n      pop\n      pop\n      jump\t// out\n        /* \"#utility.yul\":23172:23467   */\n    tag_313:\n        /* \"#utility.yul\":23248:23252   */\n      0x00\n        /* \"#utility.yul\":23394:23423   */\n      tag_565\n        /* \"#utility.yul\":23419:23422   */\n      dup4\n        /* \"#utility.yul\":23413:23417   */\n      dup4\n        /* \"#utility.yul\":23394:23423   */\n      tag_312\n      jump\t// in\n    tag_565:\n        /* \"#utility.yul\":23386:23423   */\n      swap2\n      pop\n        /* \"#utility.yul\":23456:23459   */\n      dup3\n        /* \"#utility.yul\":23453:23454   */\n      0x02\n        /* \"#utility.yul\":23449:23460   */\n      mul\n        /* \"#utility.yul\":23443:23447   */\n      dup3\n        /* \"#utility.yul\":23440:23461   */\n      or\n        /* \"#utility.yul\":23432:23461   */\n      swap1\n      pop\n        /* \"#utility.yul\":23172:23467   */\n      swap3\n      swap2\n      pop\n      pop\n      jump\t// out\n        /* \"#utility.yul\":23472:24867   */\n    tag_201:\n        /* \"#utility.yul\":23589:23626   */\n      tag_567\n        /* \"#utility.yul\":23622:23625   */\n      dup3\n        /* \"#utility.yul\":23589:23626   */\n      tag_266\n      jump\t// in\n    tag_567:\n        /* \"#utility.yul\":23691:23709   */\n      0xffffffffffffffff\n        /* \"#utility.yul\":23683:23689   */\n      dup2\n        /* \"#utility.yul\":23680:23710   */\n      gt\n        /* \"#utility.yul\":23677:23733   */\n      iszero\n      tag_568\n      jumpi\n        /* \"#utility.yul\":23713:23731   */\n      tag_569\n      tag_280\n      jump\t// in\n    tag_569:\n        /* \"#utility.yul\":23677:23733   */\n    tag_568:\n        /* \"#utility.yul\":23757:23795   */\n      tag_570\n        /* \"#utility.yul\":23789:23793   */\n      dup3\n        /* \"#utility.yul\":23783:23794   */\n      sload\n        /* \"#utility.yul\":23757:23795   */\n      tag_120\n      jump\t// in\n    tag_570:\n        /* \"#utility.yul\":23842:23909   */\n      tag_571\n        /* \"#utility.yul\":23902:23908   */\n      dup3\n        /* \"#utility.yul\":23894:23900   */\n      dup3\n        /* \"#utility.yul\":23888:23892   */\n      dup6\n        /* \"#utility.yul\":23842:23909   */\n      tag_310\n      jump\t// in\n    tag_571:\n        /* \"#utility.yul\":23936:23937   */\n      0x00\n        /* \"#utility.yul\":23960:23964   */\n      0x20\n        /* \"#utility.yul\":23947:23964   */\n      swap1\n      pop\n        /* \"#utility.yul\":23992:23994   */\n      0x1f\n        /* \"#utility.yul\":23984:23990   */\n      dup4\n        /* \"#utility.yul\":23981:23995   */\n      gt\n        /* \"#utility.yul\":24009:24010   */\n      0x01\n        /* \"#utility.yul\":24004:24622   */\n      dup2\n      eq\n      tag_573\n      jumpi\n        /* \"#utility.yul\":24666:24667   */\n      0x00\n        /* \"#utility.yul\":24683:24689   */\n      dup5\n        /* \"#utility.yul\":24680:24757   */\n      iszero\n      tag_574\n      jumpi\n        /* \"#utility.yul\":24732:24741   */\n      dup3\n        /* \"#utility.yul\":24727:24730   */\n      dup8\n        /* \"#utility.yul\":24723:24742   */\n      add\n        /* \"#utility.yul\":24717:24743   */\n      mload\n        /* \"#utility.yul\":24708:24743   */\n      swap1\n      pop\n        /* \"#utility.yul\":24680:24757   */\n    tag_574:\n        /* \"#utility.yul\":24783:24850   */\n      tag_575\n        /* \"#utility.yul\":24843:24849   */\n      dup6\n        /* \"#utility.yul\":24836:24841   */\n      dup3\n        /* \"#utility.yul\":24783:24850   */\n      tag_313\n      jump\t// in\n    tag_575:\n        /* \"#utility.yul\":24777:24781   */\n      dup7\n        /* \"#utility.yul\":24770:24851   */\n      sstore\n        /* \"#utility.yul\":24639:24861   */\n      pop\n        /* \"#utility.yul\":23974:24861   */\n      jump(tag_572)\n        /* \"#utility.yul\":24004:24622   */\n    tag_573:\n        /* \"#utility.yul\":24056:24060   */\n      0x1f\n        /* \"#utility.yul\":24052:24061   */\n      not\n        /* \"#utility.yul\":24044:24050   */\n      dup5\n        /* \"#utility.yul\":24040:24062   */\n      and\n        /* \"#utility.yul\":24090:24127   */\n      tag_576\n        /* \"#utility.yul\":24122:24126   */\n      dup7\n        /* \"#utility.yul\":24090:24127   */\n      tag_298\n      jump\t// in\n    tag_576:\n        /* \"#utility.yul\":24149:24150   */\n      0x00\n        /* \"#utility.yul\":24163:24371   */\n    tag_577:\n        /* \"#utility.yul\":24177:24184   */\n      dup3\n        /* \"#utility.yul\":24174:24175   */\n      dup2\n        /* \"#utility.yul\":24171:24185   */\n      lt\n        /* \"#utility.yul\":24163:24371   */\n      iszero\n      tag_579\n      jumpi\n        /* \"#utility.yul\":24256:24265   */\n      dup5\n        /* \"#utility.yul\":24251:24254   */\n      dup10\n        /* \"#utility.yul\":24247:24266   */\n      add\n        /* \"#utility.yul\":24241:24267   */\n      mload\n        /* \"#utility.yul\":24233:24239   */\n      dup3\n        /* \"#utility.yul\":24226:24268   */\n      sstore\n        /* \"#utility.yul\":24307:24308   */\n      0x01\n        /* \"#utility.yul\":24299:24305   */\n      dup3\n        /* \"#utility.yul\":24295:24309   */\n      add\n        /* \"#utility.yul\":24285:24309   */\n      swap2\n      pop\n        /* \"#utility.yul\":24354:24356   */\n      0x20\n        /* \"#utility.yul\":24343:24352   */\n      dup6\n        /* \"#utility.yul\":24339:24357   */\n      add\n        /* \"#utility.yul\":24326:24357   */\n      swap5\n      pop\n        /* \"#utility.yul\":24200:24204   */\n      0x20\n        /* \"#utility.yul\":24197:24198   */\n      dup2\n        /* \"#utility.yul\":24193:24205   */\n      add\n        /* \"#utility.yul\":24188:24205   */\n      swap1\n      pop\n        /* \"#utility.yul\":24163:24371   */\n      jump(tag_577)\n    tag_579:\n        /* \"#utility.yul\":24399:24405   */\n      dup7\n        /* \"#utility.yul\":24390:24397   */\n      dup4\n        /* \"#utility.yul\":24387:24406   */\n      lt\n        /* \"#utility.yul\":24384:24563   */\n      iszero\n      tag_580\n      jumpi\n        /* \"#utility.yul\":24457:24466   */\n      dup5\n        /* \"#utility.yul\":24452:24455   */\n      dup10\n        /* \"#utility.yul\":24448:24467   */\n      add\n        /* \"#utility.yul\":24442:24468   */\n      mload\n        /* \"#utility.yul\":24500:24548   */\n      tag_581\n        /* \"#utility.yul\":24542:24546   */\n      0x1f\n        /* \"#utility.yul\":24534:24540   */\n      dup10\n        /* \"#utility.yul\":24530:24547   */\n      and\n        /* \"#utility.yul\":24519:24528   */\n      dup3\n        /* \"#utility.yul\":24500:24548   */\n      tag_312\n      jump\t// in\n    tag_581:\n        /* \"#utility.yul\":24492:24498   */\n      dup4\n        /* \"#utility.yul\":24485:24549   */\n      sstore\n        /* \"#utility.yul\":24407:24563   */\n      pop\n        /* \"#utility.yul\":24384:24563   */\n    tag_580:\n        /* \"#utility.yul\":24609:24610   */\n      0x01\n        /* \"#utility.yul\":24605:24606   */\n      0x02\n        /* \"#utility.yul\":24597:24603   */\n      dup9\n        /* \"#utility.yul\":24593:24607   */\n      mul\n        /* \"#utility.yul\":24589:24611   */\n      add\n        /* \"#utility.yul\":24583:24587   */\n      dup9\n        /* \"#utility.yul\":24576:24612   */\n      sstore\n        /* \"#utility.yul\":24011:24622   */\n      pop\n      pop\n      pop\n        /* \"#utility.yul\":23974:24861   */\n    tag_572:\n      pop\n        /* \"#utility.yul\":23564:24867   */\n      pop\n      pop\n      pop\n        /* \"#utility.yul\":23472:24867   */\n      pop\n      pop\n      jump\t// out\n        /* \"#utility.yul\":24873:25098   */\n    tag_314:\n        /* \"#utility.yul\":25013:25047   */\n      0x4f776e61626c653a206e6577206f776e657220697320746865207a65726f2061\n        /* \"#utility.yul\":25009:25010   */\n      0x00\n        /* \"#utility.yul\":25001:25007   */\n      dup3\n        /* \"#utility.yul\":24997:25011   */\n      add\n        /* \"#utility.yul\":24990:25048   */\n      mstore\n        /* \"#utility.yul\":25082:25090   */\n      0x6464726573730000000000000000000000000000000000000000000000000000\n        /* \"#utility.yul\":25077:25079   */\n      0x20\n        /* \"#utility.yul\":25069:25075   */\n      dup3\n        /* \"#utility.yul\":25065:25080   */\n      add\n        /* \"#utility.yul\":25058:25091   */\n      mstore\n        /* \"#utility.yul\":24873:25098   */\n      pop\n      jump\t// out\n        /* \"#utility.yul\":25104:25470   */\n    tag_315:\n        /* \"#utility.yul\":25246:25249   */\n      0x00\n        /* \"#utility.yul\":25267:25334   */\n      tag_584\n        /* \"#utility.yul\":25331:25333   */\n      0x26\n        /* \"#utility.yul\":25326:25329   */\n      dup4\n        /* \"#utility.yul\":25267:25334   */\n      tag_297\n      jump\t// in\n    tag_584:\n        /* \"#utility.yul\":25260:25334   */\n      swap2\n      pop\n        /* \"#utility.yul\":25343:25436   */\n      tag_585\n        /* \"#utility.yul\":25432:25435   */\n      dup3\n        /* \"#utility.yul\":25343:25436   */\n      tag_314\n      jump\t// in\n    tag_585:\n        /* \"#utility.yul\":25461:25463   */\n      0x40\n        /* \"#utility.yul\":25456:25459   */\n      dup3\n        /* \"#utility.yul\":25452:25464   */\n      add\n        /* \"#utility.yul\":25445:25464   */\n      swap1\n      pop\n        /* \"#utility.yul\":25104:25470   */\n      swap2\n      swap1\n      pop\n      jump\t// out\n        /* \"#utility.yul\":25476:25895   */\n    tag_235:\n        /* \"#utility.yul\":25642:25646   */\n      0x00\n        /* \"#utility.yul\":25680:25682   */\n      0x20\n        /* \"#utility.yul\":25669:25678   */\n      dup3\n        /* \"#utility.yul\":25665:25683   */\n      add\n        /* \"#utility.yul\":25657:25683   */\n      swap1\n      pop\n        /* \"#utility.yul\":25729:25738   */\n      dup2\n        /* \"#utility.yul\":25723:25727   */\n      dup2\n        /* \"#utility.yul\":25719:25739   */\n      sub\n        /* \"#utility.yul\":25715:25716   */\n      0x00\n        /* \"#utility.yul\":25704:25713   */\n      dup4\n        /* \"#utility.yul\":25700:25717   */\n      add\n        /* \"#utility.yul\":25693:25740   */\n      mstore\n        /* \"#utility.yul\":25757:25888   */\n      tag_587\n        /* \"#utility.yul\":25883:25887   */\n      dup2\n        /* \"#utility.yul\":25757:25888   */\n      tag_315\n      jump\t// in\n    tag_587:\n        /* \"#utility.yul\":25749:25888   */\n      swap1\n      pop\n        /* \"#utility.yul\":25476:25895   */\n      swap2\n      swap1\n      pop\n      jump\t// out\n        /* \"#utility.yul\":25901:26083   */\n    tag_316:\n        /* \"#utility.yul\":26041:26075   */\n      0x4f776e61626c653a2063616c6c6572206973206e6f7420746865206f776e6572\n        /* \"#utility.yul\":26037:26038   */\n      0x00\n        /* \"#utility.yul\":26029:26035   */\n      dup3\n        /* \"#utility.yul\":26025:26039   */\n      add\n        /* \"#utility.yul\":26018:26076   */\n      mstore\n        /* \"#utility.yul\":25901:26083   */\n      pop\n      jump\t// out\n        /* \"#utility.yul\":26089:26455   */\n    tag_317:\n        /* \"#utility.yul\":26231:26234   */\n      0x00\n        /* \"#utility.yul\":26252:26319   */\n      tag_590\n        /* \"#utility.yul\":26316:26318   */\n      0x20\n        /* \"#utility.yul\":26311:26314   */\n      dup4\n        /* \"#utility.yul\":26252:26319   */\n      tag_297\n      jump\t// in\n    tag_590:\n        /* \"#utility.yul\":26245:26319   */\n      swap2\n      pop\n        /* \"#utility.yul\":26328:26421   */\n      tag_591\n        /* \"#utility.yul\":26417:26420   */\n      dup3\n        /* \"#utility.yul\":26328:26421   */\n      tag_316\n      jump\t// in\n    tag_591:\n        /* \"#utility.yul\":26446:26448   */\n      0x20\n        /* \"#utility.yul\":26441:26444   */\n      dup3\n        /* \"#utility.yul\":26437:26449   */\n      add\n        /* \"#utility.yul\":26430:26449   */\n      swap1\n      pop\n        /* \"#utility.yul\":26089:26455   */\n      swap2\n      swap1\n      pop\n      jump\t// out\n        /* \"#utility.yul\":26461:26880   */\n    tag_243:\n        /* \"#utility.yul\":26627:26631   */\n      0x00\n        /* \"#utility.yul\":26665:26667   */\n      0x20\n        /* \"#utility.yul\":26654:26663   */\n      dup3\n        /* \"#utility.yul\":26650:26668   */\n      add\n        /* \"#utility.yul\":26642:26668   */\n      swap1\n      pop\n        /* \"#utility.yul\":26714:26723   */\n      dup2\n        /* \"#utility.yul\":26708:26712   */\n      dup2\n        /* \"#utility.yul\":26704:26724   */\n      sub\n        /* \"#utility.yul\":26700:26701   */\n      0x00\n        /* \"#utility.yul\":26689:26698   */\n      dup4\n        /* \"#utility.yul\":26685:26702   */\n      add\n        /* \"#utility.yul\":26678:26725   */\n      mstore\n        /* \"#utility.yul\":26742:26873   */\n      tag_593\n        /* \"#utility.yul\":26868:26872   */\n      dup2\n        /* \"#utility.yul\":26742:26873   */\n      tag_317\n      jump\t// in\n    tag_593:\n        /* \"#utility.yul\":26734:26873   */\n      swap1\n      pop\n        /* \"#utility.yul\":26461:26880   */\n      swap2\n      swap1\n      pop\n      jump\t// out\n\n    auxdata: 0xa2646970667358221220ad478320bbb249920ae6f156282f1be81af63c94cb8bc503cd06398433b0ec7e64736f6c63430008110033\n}\n",
				"bytecode": {
					"linkReferences": {},
					"object": "6080604052600180556001600255600060035560006004553480156200002457600080fd5b506040516200303a3803806200303a83398181016040528101906200004a9190620006a3565b6200006a6200005e620003ae60201b60201c565b620003b660201b60201c565b33600560006101000a81548173ffffffffffffffffffffffffffffffffffffffff021916908373ffffffffffffffffffffffffffffffffffffffff1602179055508060038190555060005b6005811015620003a557600073ffffffffffffffffffffffffffffffffffffffff16838281518110620000ed57620000ec62000709565b5b602002602001015173ffffffffffffffffffffffffffffffffffffffff16146200038f5782818151811062000127576200012662000709565b5b60200260200101516006826005811062000146576200014562000709565b5b0160006101000a81548173ffffffffffffffffffffffffffffffffffffffff021916908373ffffffffffffffffffffffffffffffffffffffff160217905550600560009054906101000a900473ffffffffffffffffffffffffffffffffffffffff1673ffffffffffffffffffffffffffffffffffffffff16838281518110620001d457620001d362000709565b5b602002602001015173ffffffffffffffffffffffffffffffffffffffff1603620002c957600354600b6000600560009054906101000a900473ffffffffffffffffffffffffffffffffffffffff1673ffffffffffffffffffffffffffffffffffffffff1673ffffffffffffffffffffffffffffffffffffffff1681526020019081526020016000208190555060035483828151811062000279576200027862000709565b5b602002602001015173ffffffffffffffffffffffffffffffffffffffff167ffbd610cf0373947747ba15effd5e459c81db984f8723671458c0e8624428ab0460405160405180910390a36200038e565b6000600b6000858481518110620002e557620002e462000709565b5b602002602001015173ffffffffffffffffffffffffffffffffffffffff1673ffffffffffffffffffffffffffffffffffffffff16815260200190815260200160002081905550600083828151811062000343576200034262000709565b5b602002602001015173ffffffffffffffffffffffffffffffffffffffff167ffbd610cf0373947747ba15effd5e459c81db984f8723671458c0e8624428ab0460405160405180910390a35b5b80806200039c9062000767565b915050620000b5565b505050620007b4565b600033905090565b60008060009054906101000a900473ffffffffffffffffffffffffffffffffffffffff169050816000806101000a81548173ffffffffffffffffffffffffffffffffffffffff021916908373ffffffffffffffffffffffffffffffffffffffff1602179055508173ffffffffffffffffffffffffffffffffffffffff168173ffffffffffffffffffffffffffffffffffffffff167f8be0079c531659141344cd1fd0a4f28419497f9722a3daafe3b4186f6b6457e060405160405180910390a35050565b6000604051905090565b600080fd5b600080fd5b600080fd5b6000601f19601f8301169050919050565b7f4e487b7100000000000000000000000000000000000000000000000000000000600052604160045260246000fd5b620004de8262000493565b810181811067ffffffffffffffff821117156200050057620004ff620004a4565b5b80604052505050565b6000620005156200047a565b9050620005238282620004d3565b919050565b600067ffffffffffffffff821115620005465762000545620004a4565b5b602082029050602081019050919050565b600080fd5b600073ffffffffffffffffffffffffffffffffffffffff82169050919050565b600062000589826200055c565b9050919050565b6200059b816200057c565b8114620005a757600080fd5b50565b600081519050620005bb8162000590565b92915050565b6000620005d8620005d28462000528565b62000509565b90508083825260208201905060208402830185811115620005fe57620005fd62000557565b5b835b818110156200062b5780620006168882620005aa565b84526020840193505060208101905062000600565b5050509392505050565b600082601f8301126200064d576200064c6200048e565b5b81516200065f848260208601620005c1565b91505092915050565b6000819050919050565b6200067d8162000668565b81146200068957600080fd5b50565b6000815190506200069d8162000672565b92915050565b60008060408385031215620006bd57620006bc62000484565b5b600083015167ffffffffffffffff811115620006de57620006dd62000489565b5b620006ec8582860162000635565b9250506020620006ff858286016200068c565b9150509250929050565b7f4e487b7100000000000000000000000000000000000000000000000000000000600052603260045260246000fd5b7f4e487b7100000000000000000000000000000000000000000000000000000000600052601160045260246000fd5b6000620007748262000668565b91507fffffffffffffffffffffffffffffffffffffffffffffffffffffffffffffffff8203620007a957620007a862000738565b5b600182019050919050565b61287680620007c46000396000f3fe608060405234801561001057600080fd5b50600436106101375760003560e01c806376840b60116100b8578063a5e047b81161007c578063a5e047b81461032a578063b52d15e21461035d578063c43982cc1461038d578063ce606ee0146103ab578063d89d1510146103c9578063f2fde38b146103f957610137565b806376840b60146102845780638da5cb5b146102a25780638efcf5c0146102c05780639a9f8383146102dc5780639b19251a146102fa57610137565b806356b8c724116100ff57806356b8c724146101de5780635de45813146101fa57806370a082311461022c578063715018a61461025c578063745b07c81461026657610137565b806318160ddd1461013c5780631d6a17111461015a578063214405fc1461018a57806327df565a146101a65780634e86eb16146101c2575b600080fd5b610144610415565b6040516101519190611a38565b60405180910390f35b610174600480360381019061016f9190611ac5565b61041b565b6040516101819190611d90565b60405180910390f35b6101a4600480360381019061019f9190611dde565b6106c7565b005b6101c060048036038101906101bb9190611f02565b610797565b005b6101dc60048036038101906101d79190611f7a565b610c0b565b005b6101f860048036038101906101f39190612046565b611046565b005b610214600480360381019061020f9190611ac5565b61140c565b604051610223939291906120ba565b60405180910390f35b61024660048036038101906102419190611ac5565b611436565b6040516102539190611a38565b60405180910390f35b61026461147f565b005b61026e611493565b60405161027b9190611a38565b60405180910390f35b61028c611499565b6040516102999190611a38565b60405180910390f35b6102aa61149f565b6040516102b79190612100565b60405180910390f35b6102da60048036038101906102d59190612147565b6114c8565b005b6102e46115da565b6040516102f19190612196565b60405180910390f35b610314600480360381019061030f9190611ac5565b61160d565b6040516103219190611a38565b60405180910390f35b610344600480360381019061033f91906121b1565b611625565b60405161035494939291906121de565b60405180910390f35b61037760048036038101906103729190611ac5565b611692565b6040516103849190612196565b60405180910390f35b610395611733565b6040516103a29190611a38565b60405180910390f35b6103b3611739565b6040516103c09190612100565b60405180910390f35b6103e360048036038101906103de91906121b1565b61175f565b6040516103f09190612100565b60405180910390f35b610413600480360381019061040e9190611ac5565b611795565b005b60035481565b6060600073ffffffffffffffffffffffffffffffffffffffff168273ffffffffffffffffffffffffffffffffffffffff1603610483576040517f6e5ec59f00000000000000000000000000000000000000000000000000000000815260040160405180910390fd5b600e60008373ffffffffffffffffffffffffffffffffffffffff1673ffffffffffffffffffffffffffffffffffffffff168152602001908152602001600020805480602002602001604051908101604052809291908181526020016000905b828210156106bc57838290600052602060002090600602016040518060e00160405290816000820160009054906101000a900460ff16600481111561052a57610529611b1e565b5b600481111561053c5761053b611b1e565b5b8152602001600182015481526020016002820160009054906101000a900473ffffffffffffffffffffffffffffffffffffffff1673ffffffffffffffffffffffffffffffffffffffff1673ffffffffffffffffffffffffffffffffffffffff1681526020016003820180546105b090612252565b80601f01602080910402602001604051908101604052809291908181526020018280546105dc90612252565b80156106295780601f106105fe57610100808354040283529160200191610629565b820191906000526020600020905b81548152906001019060200180831161060c57829003601f168201915b505050505081526020016004820160009054906101000a900460ff161515151581526020016004820160019054906101000a900473ffffffffffffffffffffffffffffffffffffffff1673ffffffffffffffffffffffffffffffffffffffff1673ffffffffffffffffffffffffffffffffffffffff168152602001600582015481525050815260200190600101906104e2565b505050509050919050565b6106cf611818565b6004811015806106df5750600081145b15610716576040517f42c7745500000000000000000000000000000000000000000000000000000000815260040160405180910390fd5b80600c60008473ffffffffffffffffffffffffffffffffffffffff1673ffffffffffffffffffffffffffffffffffffffff168152602001908152602001600020819055507f62c1e066774519db9fe35767c15fc33df2f016675b7cc0c330ed185f286a2d52828260405161078b929190612283565b60405180910390a15050565b333373ffffffffffffffffffffffffffffffffffffffff168173ffffffffffffffffffffffffffffffffffffffff16146107fd576040517fb2c3aa6b00000000000000000000000000000000000000000000000000000000815260040160405180910390fd5b6000600c60003373ffffffffffffffffffffffffffffffffffffffff1673ffffffffffffffffffffffffffffffffffffffff1681526020019081526020016000205490506000810361087b576040517f584a793800000000000000000000000000000000000000000000000000000000815260040160405180910390fd5b600481106108b5576040517f42c7745500000000000000000000000000000000000000000000000000000000815260040160405180910390fd5b83600b60003373ffffffffffffffffffffffffffffffffffffffff1673ffffffffffffffffffffffffffffffffffffffff16815260200190815260200160002054101561097a5783600b60003373ffffffffffffffffffffffffffffffffffffffff1673ffffffffffffffffffffffffffffffffffffffff168152602001908152602001600020546040517f8c9053680000000000000000000000000000000000000000000000000000000081526004016109719291906122ac565b60405180910390fd5b600c60003373ffffffffffffffffffffffffffffffffffffffff1673ffffffffffffffffffffffffffffffffffffffff1681526020019081526020016000205484600b60003373ffffffffffffffffffffffffffffffffffffffff1673ffffffffffffffffffffffffffffffffffffffff16815260200190815260200160002054610a059190612304565b610a0f9190612338565b600b60003373ffffffffffffffffffffffffffffffffffffffff1673ffffffffffffffffffffffffffffffffffffffff16815260200190815260200160002081905550600c60003373ffffffffffffffffffffffffffffffffffffffff1673ffffffffffffffffffffffffffffffffffffffff1681526020019081526020016000205484600b60008873ffffffffffffffffffffffffffffffffffffffff1673ffffffffffffffffffffffffffffffffffffffff16815260200190815260200160002054610add9190612338565b610ae79190612304565b600b60008773ffffffffffffffffffffffffffffffffffffffff1673ffffffffffffffffffffffffffffffffffffffff168152602001908152602001600020819055506000600d60003373ffffffffffffffffffffffffffffffffffffffff1673ffffffffffffffffffffffffffffffffffffffff168152602001908152602001600020604051806060016040529081600082015481526020016001820154815260200160028201548152505090508360000151816000018181525050836020015181602001818152505083604001518160400181815250508573ffffffffffffffffffffffffffffffffffffffff167f98eaee7299e9cbfa56cf530fd3a0c6dfa0ccddf4f837b8f025651ad9594647b360405160405180910390a2505050505050565b610c13611818565b60008303610c4d576040517f98176f8c00000000000000000000000000000000000000000000000000000000815260040160405180910390fd5b600073ffffffffffffffffffffffffffffffffffffffff168473ffffffffffffffffffffffffffffffffffffffff1603610cb3576040517f6e5ec59f00000000000000000000000000000000000000000000000000000000815260040160405180910390fd5b60005b600e60008673ffffffffffffffffffffffffffffffffffffffff1673ffffffffffffffffffffffffffffffffffffffff1681526020019081526020016000208054905081101561103f5783600e60008773ffffffffffffffffffffffffffffffffffffffff1673ffffffffffffffffffffffffffffffffffffffff1681526020019081526020016000208281548110610d5257610d5161236c565b5b9060005260206000209060060201600101540361102c576001600e60008773ffffffffffffffffffffffffffffffffffffffff1673ffffffffffffffffffffffffffffffffffffffff1681526020019081526020016000208281548110610dbc57610dbb61236c565b5b906000526020600020906006020160040160006101000a81548160ff02191690831515021790555084600e60008773ffffffffffffffffffffffffffffffffffffffff1673ffffffffffffffffffffffffffffffffffffffff1681526020019081526020016000208281548110610e3657610e3561236c565b5b906000526020600020906006020160040160016101000a81548173ffffffffffffffffffffffffffffffffffffffff021916908373ffffffffffffffffffffffffffffffffffffffff16021790555081600e60008773ffffffffffffffffffffffffffffffffffffffff1673ffffffffffffffffffffffffffffffffffffffff1681526020019081526020016000208281548110610ed757610ed661236c565b5b906000526020600020906006020160000160006101000a81548160ff02191690836004811115610f0a57610f09611b1e565b5b021790555082600e60008773ffffffffffffffffffffffffffffffffffffffff1673ffffffffffffffffffffffffffffffffffffffff1681526020019081526020016000208281548110610f6157610f6061236c565b5b9060005260206000209060060201600501819055506000610f806115da565b9050610f8c86826114c8565b7ff41efc8c6b66b2a03b14fd69b985ad19a0b9245f24936163018e9ad06d4c143e338686600e60008b73ffffffffffffffffffffffffffffffffffffffff1673ffffffffffffffffffffffffffffffffffffffff16815260200190815260200160002086815481106110015761100061236c565b5b90600052602060002090600602016003016040516110229493929190612445565b60405180910390a1505b808061103790612491565b915050610cb6565b5050505050565b6000600b60003373ffffffffffffffffffffffffffffffffffffffff1673ffffffffffffffffffffffffffffffffffffffff168152602001908152602001600020549050838110156110d15783816040517f8c9053680000000000000000000000000000000000000000000000000000000081526004016110c89291906122ac565b60405180910390fd5b6009838390501061110e576040517f0ec965da00000000000000000000000000000000000000000000000000000000815260040160405180910390fd5b838161111a9190612304565b905083600b60008773ffffffffffffffffffffffffffffffffffffffff1673ffffffffffffffffffffffffffffffffffffffff168152602001908152602001600020600082825461116b9190612338565b925050819055507f69ca02dd4edd7bf0a4abb9ed3b7af3f14778db5d61921c7dc7cd545266326de285856040516111a3929190612283565b60405180910390a16111b3611962565b6001816000019060048111156111cc576111cb611b1e565b5b908160048111156111e0576111df611b1e565b5b8152505085816040019073ffffffffffffffffffffffffffffffffffffffff16908173ffffffffffffffffffffffffffffffffffffffff168152505083838080601f016020809104026020016040519081016040528093929190818152602001838380828437600081840152601f19601f820116905080830192505050505050508160600181905250848160c001818152505060046000815461128290612491565b919050819055816020018181525050600e60003373ffffffffffffffffffffffffffffffffffffffff1673ffffffffffffffffffffffffffffffffffffffff16815260200190815260200160002081908060018154018082558091505060019003906000526020600020906006020160009091909190915060008201518160000160006101000a81548160ff0219169083600481111561132557611324611b1e565b5b02179055506020820151816001015560408201518160020160006101000a81548173ffffffffffffffffffffffffffffffffffffffff021916908373ffffffffffffffffffffffffffffffffffffffff16021790555060608201518160030190816113909190612670565b5060808201518160040160006101000a81548160ff02191690831515021790555060a08201518160040160016101000a81548173ffffffffffffffffffffffffffffffffffffffff021916908373ffffffffffffffffffffffffffffffffffffffff16021790555060c082015181600501555050505050505050565b600d6020528060005260406000206000915090508060000154908060010154908060020154905083565b6000600b60008373ffffffffffffffffffffffffffffffffffffffff1673ffffffffffffffffffffffffffffffffffffffff168152602001908152602001600020549050919050565b611487611818565b6114916000611896565b565b60025481565b60045481565b60008060009054906101000a900473ffffffffffffffffffffffffffffffffffffffff16905090565b6114d06119df565b438160400181815250504281600001818152505082816020019073ffffffffffffffffffffffffffffffffffffffff16908173ffffffffffffffffffffffffffffffffffffffff168152505081816060019015159081151581525050600f8190806001815401808255809150506001900390600052602060002090600402016000909190919091506000820151816000015560208201518160010160006101000a81548173ffffffffffffffffffffffffffffffffffffffff021916908373ffffffffffffffffffffffffffffffffffffffff1602179055506040820151816002015560608201518160030160006101000a81548160ff0219169083151502179055505050505050565b600080600090506001805414806115f357506001600254145b156116015760019050611606565b600090505b8091505090565b600c6020528060005260406000206000915090505481565b600f818154811061163557600080fd5b90600052602060002090600402016000915090508060000154908060010160009054906101000a900473ffffffffffffffffffffffffffffffffffffffff16908060020154908060030160009054906101000a900460ff16905084565b6000806000905060005b6005811015611729578373ffffffffffffffffffffffffffffffffffffffff16600682600581106116d0576116cf61236c565b5b0160009054906101000a900473ffffffffffffffffffffffffffffffffffffffff1673ffffffffffffffffffffffffffffffffffffffff16036117165760019150611729565b808061172190612491565b91505061169c565b5080915050919050565b60015481565b600560009054906101000a900473ffffffffffffffffffffffffffffffffffffffff1681565b6006816005811061176f57600080fd5b016000915054906101000a900473ffffffffffffffffffffffffffffffffffffffff1681565b61179d611818565b600073ffffffffffffffffffffffffffffffffffffffff168173ffffffffffffffffffffffffffffffffffffffff160361180c576040517f08c379a0000000000000000000000000000000000000000000000000000000008152600401611803906127b4565b60405180910390fd5b61181581611896565b50565b61182061195a565b73ffffffffffffffffffffffffffffffffffffffff1661183e61149f565b73ffffffffffffffffffffffffffffffffffffffff1614611894576040517f08c379a000000000000000000000000000000000000000000000000000000000815260040161188b90612820565b60405180910390fd5b565b60008060009054906101000a900473ffffffffffffffffffffffffffffffffffffffff169050816000806101000a81548173ffffffffffffffffffffffffffffffffffffffff021916908373ffffffffffffffffffffffffffffffffffffffff1602179055508173ffffffffffffffffffffffffffffffffffffffff168173ffffffffffffffffffffffffffffffffffffffff167f8be0079c531659141344cd1fd0a4f28419497f9722a3daafe3b4186f6b6457e060405160405180910390a35050565b600033905090565b6040518060e001604052806000600481111561198157611980611b1e565b5b815260200160008152602001600073ffffffffffffffffffffffffffffffffffffffff16815260200160608152602001600015158152602001600073ffffffffffffffffffffffffffffffffffffffff168152602001600081525090565b604051806080016040528060008152602001600073ffffffffffffffffffffffffffffffffffffffff168152602001600081526020016000151581525090565b6000819050919050565b611a3281611a1f565b82525050565b6000602082019050611a4d6000830184611a29565b92915050565b6000604051905090565b600080fd5b600080fd5b600073ffffffffffffffffffffffffffffffffffffffff82169050919050565b6000611a9282611a67565b9050919050565b611aa281611a87565b8114611aad57600080fd5b50565b600081359050611abf81611a99565b92915050565b600060208284031215611adb57611ada611a5d565b5b6000611ae984828501611ab0565b91505092915050565b600081519050919050565b600082825260208201905092915050565b6000819050602082019050919050565b7f4e487b7100000000000000000000000000000000000000000000000000000000600052602160045260246000fd5b60058110611b5e57611b5d611b1e565b5b50565b6000819050611b6f82611b4d565b919050565b6000611b7f82611b61565b9050919050565b611b8f81611b74565b82525050565b611b9e81611a1f565b82525050565b611bad81611a87565b82525050565b600081519050919050565b600082825260208201905092915050565b60005b83811015611bed578082015181840152602081019050611bd2565b60008484015250505050565b6000601f19601f8301169050919050565b6000611c1582611bb3565b611c1f8185611bbe565b9350611c2f818560208601611bcf565b611c3881611bf9565b840191505092915050565b60008115159050919050565b611c5881611c43565b82525050565b600060e083016000830151611c766000860182611b86565b506020830151611c896020860182611b95565b506040830151611c9c6040860182611ba4565b5060608301518482036060860152611cb48282611c0a565b9150506080830151611cc96080860182611c4f565b5060a0830151611cdc60a0860182611ba4565b5060c0830151611cef60c0860182611b95565b508091505092915050565b6000611d068383611c5e565b905092915050565b6000602082019050919050565b6000611d2682611af2565b611d308185611afd565b935083602082028501611d4285611b0e565b8060005b85811015611d7e5784840389528151611d5f8582611cfa565b9450611d6a83611d0e565b925060208a01995050600181019050611d46565b50829750879550505050505092915050565b60006020820190508181036000830152611daa8184611d1b565b905092915050565b611dbb81611a1f565b8114611dc657600080fd5b50565b600081359050611dd881611db2565b92915050565b60008060408385031215611df557611df4611a5d565b5b6000611e0385828601611ab0565b9250506020611e1485828601611dc9565b9150509250929050565b600080fd5b7f4e487b7100000000000000000000000000000000000000000000000000000000600052604160045260246000fd5b611e5b82611bf9565b810181811067ffffffffffffffff82111715611e7a57611e79611e23565b5b80604052505050565b6000611e8d611a53565b9050611e998282611e52565b919050565b600060608284031215611eb457611eb3611e1e565b5b611ebe6060611e83565b90506000611ece84828501611dc9565b6000830152506020611ee284828501611dc9565b6020830152506040611ef684828501611dc9565b60408301525092915050565b600080600060a08486031215611f1b57611f1a611a5d565b5b6000611f2986828701611ab0565b9350506020611f3a86828701611dc9565b9250506040611f4b86828701611e9e565b9150509250925092565b60058110611f6257600080fd5b50565b600081359050611f7481611f55565b92915050565b60008060008060808587031215611f9457611f93611a5d565b5b6000611fa287828801611ab0565b9450506020611fb387828801611dc9565b9350506040611fc487828801611dc9565b9250506060611fd587828801611f65565b91505092959194509250565b600080fd5b600080fd5b600080fd5b60008083601f84011261200657612005611fe1565b5b8235905067ffffffffffffffff81111561202357612022611fe6565b5b60208301915083600182028301111561203f5761203e611feb565b5b9250929050565b600080600080606085870312156120605761205f611a5d565b5b600061206e87828801611ab0565b945050602061207f87828801611dc9565b935050604085013567ffffffffffffffff8111156120a05761209f611a62565b5b6120ac87828801611ff0565b925092505092959194509250565b60006060820190506120cf6000830186611a29565b6120dc6020830185611a29565b6120e96040830184611a29565b949350505050565b6120fa81611a87565b82525050565b600060208201905061211560008301846120f1565b92915050565b61212481611c43565b811461212f57600080fd5b50565b6000813590506121418161211b565b92915050565b6000806040838503121561215e5761215d611a5d565b5b600061216c85828601611ab0565b925050602061217d85828601612132565b9150509250929050565b61219081611c43565b82525050565b60006020820190506121ab6000830184612187565b92915050565b6000602082840312156121c7576121c6611a5d565b5b60006121d584828501611dc9565b91505092915050565b60006080820190506121f36000830187611a29565b61220060208301866120f1565b61220d6040830185611a29565b61221a6060830184612187565b95945050505050565b7f4e487b7100000000000000000000000000000000000000000000000000000000600052602260045260246000fd5b6000600282049050600182168061226a57607f821691505b60208210810361227d5761227c612223565b5b50919050565b600060408201905061229860008301856120f1565b6122a56020830184611a29565b9392505050565b60006040820190506122c16000830185611a29565b6122ce6020830184611a29565b9392505050565b7f4e487b7100000000000000000000000000000000000000000000000000000000600052601160045260246000fd5b600061230f82611a1f565b915061231a83611a1f565b9250828203905081811115612332576123316122d5565b5b92915050565b600061234382611a1f565b915061234e83611a1f565b9250828201905080821115612366576123656122d5565b5b92915050565b7f4e487b7100000000000000000000000000000000000000000000000000000000600052603260045260246000fd5b600082825260208201905092915050565b60008190508160005260206000209050919050565b600081546123ce81612252565b6123d8818661239b565b945060018216600081146123f357600181146124095761243c565b60ff19831686528115156020028601935061243c565b612412856123ac565b60005b8381101561243457815481890152600182019150602081019050612415565b808801955050505b50505092915050565b600060808201905061245a60008301876120f1565b6124676020830186611a29565b6124746040830185611a29565b818103606083015261248681846123c1565b905095945050505050565b600061249c82611a1f565b91507fffffffffffffffffffffffffffffffffffffffffffffffffffffffffffffffff82036124ce576124cd6122d5565b5b600182019050919050565b60006020601f8301049050919050565b600082821b905092915050565b6000600883026125267fffffffffffffffffffffffffffffffffffffffffffffffffffffffffffffffff826124e9565b61253086836124e9565b95508019841693508086168417925050509392505050565b6000819050919050565b600061256d61256861256384611a1f565b612548565b611a1f565b9050919050565b6000819050919050565b61258783612552565b61259b61259382612574565b8484546124f6565b825550505050565b600090565b6125b06125a3565b6125bb81848461257e565b505050565b5b818110156125df576125d46000826125a8565b6001810190506125c1565b5050565b601f821115612624576125f5816123ac565b6125fe846124d9565b8101602085101561260d578190505b612621612619856124d9565b8301826125c0565b50505b505050565b600082821c905092915050565b600061264760001984600802612629565b1980831691505092915050565b60006126608383612636565b9150826002028217905092915050565b61267982611bb3565b67ffffffffffffffff81111561269257612691611e23565b5b61269c8254612252565b6126a78282856125e3565b600060209050601f8311600181146126da57600084156126c8578287015190505b6126d28582612654565b86555061273a565b601f1984166126e8866123ac565b60005b82811015612710578489015182556001820191506020850194506020810190506126eb565b8683101561272d5784890151612729601f891682612636565b8355505b6001600288020188555050505b505050505050565b7f4f776e61626c653a206e6577206f776e657220697320746865207a65726f206160008201527f6464726573730000000000000000000000000000000000000000000000000000602082015250565b600061279e60268361239b565b91506127a982612742565b604082019050919050565b600060208201905081810360008301526127cd81612791565b9050919050565b7f4f776e61626c653a2063616c6c6572206973206e6f7420746865206f776e6572600082015250565b600061280a60208361239b565b9150612815826127d4565b602082019050919050565b60006020820190508181036000830152612839816127fd565b905091905056fea2646970667358221220ad478320bbb249920ae6f156282f1be81af63c94cb8bc503cd06398433b0ec7e64736f6c63430008110033",
					"opcodes": "PUSH1 0x80 PUSH1 0x40 MSTORE PUSH1 0x1 DUP1 SSTORE PUSH1 0x1 PUSH1 0x2 SSTORE PUSH1 0x0 PUSH1 0x3 SSTORE PUSH1 0x0 PUSH1 0x4 SSTORE CALLVALUE DUP1 ISZERO PUSH3 0x24 JUMPI PUSH1 0x0 DUP1 REVERT JUMPDEST POP PUSH1 0x40 MLOAD PUSH3 0x303A CODESIZE SUB DUP1 PUSH3 0x303A DUP4 CODECOPY DUP2 DUP2 ADD PUSH1 0x40 MSTORE DUP2 ADD SWAP1 PUSH3 0x4A SWAP2 SWAP1 PUSH3 0x6A3 JUMP JUMPDEST PUSH3 0x6A PUSH3 0x5E PUSH3 0x3AE PUSH1 0x20 SHL PUSH1 0x20 SHR JUMP JUMPDEST PUSH3 0x3B6 PUSH1 0x20 SHL PUSH1 0x20 SHR JUMP JUMPDEST CALLER PUSH1 0x5 PUSH1 0x0 PUSH2 0x100 EXP DUP2 SLOAD DUP2 PUSH20 0xFFFFFFFFFFFFFFFFFFFFFFFFFFFFFFFFFFFFFFFF MUL NOT AND SWAP1 DUP4 PUSH20 0xFFFFFFFFFFFFFFFFFFFFFFFFFFFFFFFFFFFFFFFF AND MUL OR SWAP1 SSTORE POP DUP1 PUSH1 0x3 DUP2 SWAP1 SSTORE POP PUSH1 0x0 JUMPDEST PUSH1 0x5 DUP2 LT ISZERO PUSH3 0x3A5 JUMPI PUSH1 0x0 PUSH20 0xFFFFFFFFFFFFFFFFFFFFFFFFFFFFFFFFFFFFFFFF AND DUP4 DUP3 DUP2 MLOAD DUP2 LT PUSH3 0xED JUMPI PUSH3 0xEC PUSH3 0x709 JUMP JUMPDEST JUMPDEST PUSH1 0x20 MUL PUSH1 0x20 ADD ADD MLOAD PUSH20 0xFFFFFFFFFFFFFFFFFFFFFFFFFFFFFFFFFFFFFFFF AND EQ PUSH3 0x38F JUMPI DUP3 DUP2 DUP2 MLOAD DUP2 LT PUSH3 0x127 JUMPI PUSH3 0x126 PUSH3 0x709 JUMP JUMPDEST JUMPDEST PUSH1 0x20 MUL PUSH1 0x20 ADD ADD MLOAD PUSH1 0x6 DUP3 PUSH1 0x5 DUP2 LT PUSH3 0x146 JUMPI PUSH3 0x145 PUSH3 0x709 JUMP JUMPDEST JUMPDEST ADD PUSH1 0x0 PUSH2 0x100 EXP DUP2 SLOAD DUP2 PUSH20 0xFFFFFFFFFFFFFFFFFFFFFFFFFFFFFFFFFFFFFFFF MUL NOT AND SWAP1 DUP4 PUSH20 0xFFFFFFFFFFFFFFFFFFFFFFFFFFFFFFFFFFFFFFFF AND MUL OR SWAP1 SSTORE POP PUSH1 0x5 PUSH1 0x0 SWAP1 SLOAD SWAP1 PUSH2 0x100 EXP SWAP1 DIV PUSH20 0xFFFFFFFFFFFFFFFFFFFFFFFFFFFFFFFFFFFFFFFF AND PUSH20 0xFFFFFFFFFFFFFFFFFFFFFFFFFFFFFFFFFFFFFFFF AND DUP4 DUP3 DUP2 MLOAD DUP2 LT PUSH3 0x1D4 JUMPI PUSH3 0x1D3 PUSH3 0x709 JUMP JUMPDEST JUMPDEST PUSH1 0x20 MUL PUSH1 0x20 ADD ADD MLOAD PUSH20 0xFFFFFFFFFFFFFFFFFFFFFFFFFFFFFFFFFFFFFFFF AND SUB PUSH3 0x2C9 JUMPI PUSH1 0x3 SLOAD PUSH1 0xB PUSH1 0x0 PUSH1 0x5 PUSH1 0x0 SWAP1 SLOAD SWAP1 PUSH2 0x100 EXP SWAP1 DIV PUSH20 0xFFFFFFFFFFFFFFFFFFFFFFFFFFFFFFFFFFFFFFFF AND PUSH20 0xFFFFFFFFFFFFFFFFFFFFFFFFFFFFFFFFFFFFFFFF AND PUSH20 0xFFFFFFFFFFFFFFFFFFFFFFFFFFFFFFFFFFFFFFFF AND DUP2 MSTORE PUSH1 0x20 ADD SWAP1 DUP2 MSTORE PUSH1 0x20 ADD PUSH1 0x0 KECCAK256 DUP2 SWAP1 SSTORE POP PUSH1 0x3 SLOAD DUP4 DUP3 DUP2 MLOAD DUP2 LT PUSH3 0x279 JUMPI PUSH3 0x278 PUSH3 0x709 JUMP JUMPDEST JUMPDEST PUSH1 0x20 MUL PUSH1 0x20 ADD ADD MLOAD PUSH20 0xFFFFFFFFFFFFFFFFFFFFFFFFFFFFFFFFFFFFFFFF AND PUSH32 0xFBD610CF0373947747BA15EFFD5E459C81DB984F8723671458C0E8624428AB04 PUSH1 0x40 MLOAD PUSH1 0x40 MLOAD DUP1 SWAP2 SUB SWAP1 LOG3 PUSH3 0x38E JUMP JUMPDEST PUSH1 0x0 PUSH1 0xB PUSH1 0x0 DUP6 DUP5 DUP2 MLOAD DUP2 LT PUSH3 0x2E5 JUMPI PUSH3 0x2E4 PUSH3 0x709 JUMP JUMPDEST JUMPDEST PUSH1 0x20 MUL PUSH1 0x20 ADD ADD MLOAD PUSH20 0xFFFFFFFFFFFFFFFFFFFFFFFFFFFFFFFFFFFFFFFF AND PUSH20 0xFFFFFFFFFFFFFFFFFFFFFFFFFFFFFFFFFFFFFFFF AND DUP2 MSTORE PUSH1 0x20 ADD SWAP1 DUP2 MSTORE PUSH1 0x20 ADD PUSH1 0x0 KECCAK256 DUP2 SWAP1 SSTORE POP PUSH1 0x0 DUP4 DUP3 DUP2 MLOAD DUP2 LT PUSH3 0x343 JUMPI PUSH3 0x342 PUSH3 0x709 JUMP JUMPDEST JUMPDEST PUSH1 0x20 MUL PUSH1 0x20 ADD ADD MLOAD PUSH20 0xFFFFFFFFFFFFFFFFFFFFFFFFFFFFFFFFFFFFFFFF AND PUSH32 0xFBD610CF0373947747BA15EFFD5E459C81DB984F8723671458C0E8624428AB04 PUSH1 0x40 MLOAD PUSH1 0x40 MLOAD DUP1 SWAP2 SUB SWAP1 LOG3 JUMPDEST JUMPDEST DUP1 DUP1 PUSH3 0x39C SWAP1 PUSH3 0x767 JUMP JUMPDEST SWAP2 POP POP PUSH3 0xB5 JUMP JUMPDEST POP POP POP PUSH3 0x7B4 JUMP JUMPDEST PUSH1 0x0 CALLER SWAP1 POP SWAP1 JUMP JUMPDEST PUSH1 0x0 DUP1 PUSH1 0x0 SWAP1 SLOAD SWAP1 PUSH2 0x100 EXP SWAP1 DIV PUSH20 0xFFFFFFFFFFFFFFFFFFFFFFFFFFFFFFFFFFFFFFFF AND SWAP1 POP DUP2 PUSH1 0x0 DUP1 PUSH2 0x100 EXP DUP2 SLOAD DUP2 PUSH20 0xFFFFFFFFFFFFFFFFFFFFFFFFFFFFFFFFFFFFFFFF MUL NOT AND SWAP1 DUP4 PUSH20 0xFFFFFFFFFFFFFFFFFFFFFFFFFFFFFFFFFFFFFFFF AND MUL OR SWAP1 SSTORE POP DUP2 PUSH20 0xFFFFFFFFFFFFFFFFFFFFFFFFFFFFFFFFFFFFFFFF AND DUP2 PUSH20 0xFFFFFFFFFFFFFFFFFFFFFFFFFFFFFFFFFFFFFFFF AND PUSH32 0x8BE0079C531659141344CD1FD0A4F28419497F9722A3DAAFE3B4186F6B6457E0 PUSH1 0x40 MLOAD PUSH1 0x40 MLOAD DUP1 SWAP2 SUB SWAP1 LOG3 POP POP JUMP JUMPDEST PUSH1 0x0 PUSH1 0x40 MLOAD SWAP1 POP SWAP1 JUMP JUMPDEST PUSH1 0x0 DUP1 REVERT JUMPDEST PUSH1 0x0 DUP1 REVERT JUMPDEST PUSH1 0x0 DUP1 REVERT JUMPDEST PUSH1 0x0 PUSH1 0x1F NOT PUSH1 0x1F DUP4 ADD AND SWAP1 POP SWAP2 SWAP1 POP JUMP JUMPDEST PUSH32 0x4E487B7100000000000000000000000000000000000000000000000000000000 PUSH1 0x0 MSTORE PUSH1 0x41 PUSH1 0x4 MSTORE PUSH1 0x24 PUSH1 0x0 REVERT JUMPDEST PUSH3 0x4DE DUP3 PUSH3 0x493 JUMP JUMPDEST DUP2 ADD DUP2 DUP2 LT PUSH8 0xFFFFFFFFFFFFFFFF DUP3 GT OR ISZERO PUSH3 0x500 JUMPI PUSH3 0x4FF PUSH3 0x4A4 JUMP JUMPDEST JUMPDEST DUP1 PUSH1 0x40 MSTORE POP POP POP JUMP JUMPDEST PUSH1 0x0 PUSH3 0x515 PUSH3 0x47A JUMP JUMPDEST SWAP1 POP PUSH3 0x523 DUP3 DUP3 PUSH3 0x4D3 JUMP JUMPDEST SWAP2 SWAP1 POP JUMP JUMPDEST PUSH1 0x0 PUSH8 0xFFFFFFFFFFFFFFFF DUP3 GT ISZERO PUSH3 0x546 JUMPI PUSH3 0x545 PUSH3 0x4A4 JUMP JUMPDEST JUMPDEST PUSH1 0x20 DUP3 MUL SWAP1 POP PUSH1 0x20 DUP2 ADD SWAP1 POP SWAP2 SWAP1 POP JUMP JUMPDEST PUSH1 0x0 DUP1 REVERT JUMPDEST PUSH1 0x0 PUSH20 0xFFFFFFFFFFFFFFFFFFFFFFFFFFFFFFFFFFFFFFFF DUP3 AND SWAP1 POP SWAP2 SWAP1 POP JUMP JUMPDEST PUSH1 0x0 PUSH3 0x589 DUP3 PUSH3 0x55C JUMP JUMPDEST SWAP1 POP SWAP2 SWAP1 POP JUMP JUMPDEST PUSH3 0x59B DUP2 PUSH3 0x57C JUMP JUMPDEST DUP2 EQ PUSH3 0x5A7 JUMPI PUSH1 0x0 DUP1 REVERT JUMPDEST POP JUMP JUMPDEST PUSH1 0x0 DUP2 MLOAD SWAP1 POP PUSH3 0x5BB DUP2 PUSH3 0x590 JUMP JUMPDEST SWAP3 SWAP2 POP POP JUMP JUMPDEST PUSH1 0x0 PUSH3 0x5D8 PUSH3 0x5D2 DUP5 PUSH3 0x528 JUMP JUMPDEST PUSH3 0x509 JUMP JUMPDEST SWAP1 POP DUP1 DUP4 DUP3 MSTORE PUSH1 0x20 DUP3 ADD SWAP1 POP PUSH1 0x20 DUP5 MUL DUP4 ADD DUP6 DUP2 GT ISZERO PUSH3 0x5FE JUMPI PUSH3 0x5FD PUSH3 0x557 JUMP JUMPDEST JUMPDEST DUP4 JUMPDEST DUP2 DUP2 LT ISZERO PUSH3 0x62B JUMPI DUP1 PUSH3 0x616 DUP9 DUP3 PUSH3 0x5AA JUMP JUMPDEST DUP5 MSTORE PUSH1 0x20 DUP5 ADD SWAP4 POP POP PUSH1 0x20 DUP2 ADD SWAP1 POP PUSH3 0x600 JUMP JUMPDEST POP POP POP SWAP4 SWAP3 POP POP POP JUMP JUMPDEST PUSH1 0x0 DUP3 PUSH1 0x1F DUP4 ADD SLT PUSH3 0x64D JUMPI PUSH3 0x64C PUSH3 0x48E JUMP JUMPDEST JUMPDEST DUP2 MLOAD PUSH3 0x65F DUP5 DUP3 PUSH1 0x20 DUP7 ADD PUSH3 0x5C1 JUMP JUMPDEST SWAP2 POP POP SWAP3 SWAP2 POP POP JUMP JUMPDEST PUSH1 0x0 DUP2 SWAP1 POP SWAP2 SWAP1 POP JUMP JUMPDEST PUSH3 0x67D DUP2 PUSH3 0x668 JUMP JUMPDEST DUP2 EQ PUSH3 0x689 JUMPI PUSH1 0x0 DUP1 REVERT JUMPDEST POP JUMP JUMPDEST PUSH1 0x0 DUP2 MLOAD SWAP1 POP PUSH3 0x69D DUP2 PUSH3 0x672 JUMP JUMPDEST SWAP3 SWAP2 POP POP JUMP JUMPDEST PUSH1 0x0 DUP1 PUSH1 0x40 DUP4 DUP6 SUB SLT ISZERO PUSH3 0x6BD JUMPI PUSH3 0x6BC PUSH3 0x484 JUMP JUMPDEST JUMPDEST PUSH1 0x0 DUP4 ADD MLOAD PUSH8 0xFFFFFFFFFFFFFFFF DUP2 GT ISZERO PUSH3 0x6DE JUMPI PUSH3 0x6DD PUSH3 0x489 JUMP JUMPDEST JUMPDEST PUSH3 0x6EC DUP6 DUP3 DUP7 ADD PUSH3 0x635 JUMP JUMPDEST SWAP3 POP POP PUSH1 0x20 PUSH3 0x6FF DUP6 DUP3 DUP7 ADD PUSH3 0x68C JUMP JUMPDEST SWAP2 POP POP SWAP3 POP SWAP3 SWAP1 POP JUMP JUMPDEST PUSH32 0x4E487B7100000000000000000000000000000000000000000000000000000000 PUSH1 0x0 MSTORE PUSH1 0x32 PUSH1 0x4 MSTORE PUSH1 0x24 PUSH1 0x0 REVERT JUMPDEST PUSH32 0x4E487B7100000000000000000000000000000000000000000000000000000000 PUSH1 0x0 MSTORE PUSH1 0x11 PUSH1 0x4 MSTORE PUSH1 0x24 PUSH1 0x0 REVERT JUMPDEST PUSH1 0x0 PUSH3 0x774 DUP3 PUSH3 0x668 JUMP JUMPDEST SWAP2 POP PUSH32 0xFFFFFFFFFFFFFFFFFFFFFFFFFFFFFFFFFFFFFFFFFFFFFFFFFFFFFFFFFFFFFFFF DUP3 SUB PUSH3 0x7A9 JUMPI PUSH3 0x7A8 PUSH3 0x738 JUMP JUMPDEST JUMPDEST PUSH1 0x1 DUP3 ADD SWAP1 POP SWAP2 SWAP1 POP JUMP JUMPDEST PUSH2 0x2876 DUP1 PUSH3 0x7C4 PUSH1 0x0 CODECOPY PUSH1 0x0 RETURN INVALID PUSH1 0x80 PUSH1 0x40 MSTORE CALLVALUE DUP1 ISZERO PUSH2 0x10 JUMPI PUSH1 0x0 DUP1 REVERT JUMPDEST POP PUSH1 0x4 CALLDATASIZE LT PUSH2 0x137 JUMPI PUSH1 0x0 CALLDATALOAD PUSH1 0xE0 SHR DUP1 PUSH4 0x76840B60 GT PUSH2 0xB8 JUMPI DUP1 PUSH4 0xA5E047B8 GT PUSH2 0x7C JUMPI DUP1 PUSH4 0xA5E047B8 EQ PUSH2 0x32A JUMPI DUP1 PUSH4 0xB52D15E2 EQ PUSH2 0x35D JUMPI DUP1 PUSH4 0xC43982CC EQ PUSH2 0x38D JUMPI DUP1 PUSH4 0xCE606EE0 EQ PUSH2 0x3AB JUMPI DUP1 PUSH4 0xD89D1510 EQ PUSH2 0x3C9 JUMPI DUP1 PUSH4 0xF2FDE38B EQ PUSH2 0x3F9 JUMPI PUSH2 0x137 JUMP JUMPDEST DUP1 PUSH4 0x76840B60 EQ PUSH2 0x284 JUMPI DUP1 PUSH4 0x8DA5CB5B EQ PUSH2 0x2A2 JUMPI DUP1 PUSH4 0x8EFCF5C0 EQ PUSH2 0x2C0 JUMPI DUP1 PUSH4 0x9A9F8383 EQ PUSH2 0x2DC JUMPI DUP1 PUSH4 0x9B19251A EQ PUSH2 0x2FA JUMPI PUSH2 0x137 JUMP JUMPDEST DUP1 PUSH4 0x56B8C724 GT PUSH2 0xFF JUMPI DUP1 PUSH4 0x56B8C724 EQ PUSH2 0x1DE JUMPI DUP1 PUSH4 0x5DE45813 EQ PUSH2 0x1FA JUMPI DUP1 PUSH4 0x70A08231 EQ PUSH2 0x22C JUMPI DUP1 PUSH4 0x715018A6 EQ PUSH2 0x25C JUMPI DUP1 PUSH4 0x745B07C8 EQ PUSH2 0x266 JUMPI PUSH2 0x137 JUMP JUMPDEST DUP1 PUSH4 0x18160DDD EQ PUSH2 0x13C JUMPI DUP1 PUSH4 0x1D6A1711 EQ PUSH2 0x15A JUMPI DUP1 PUSH4 0x214405FC EQ PUSH2 0x18A JUMPI DUP1 PUSH4 0x27DF565A EQ PUSH2 0x1A6 JUMPI DUP1 PUSH4 0x4E86EB16 EQ PUSH2 0x1C2 JUMPI JUMPDEST PUSH1 0x0 DUP1 REVERT JUMPDEST PUSH2 0x144 PUSH2 0x415 JUMP JUMPDEST PUSH1 0x40 MLOAD PUSH2 0x151 SWAP2 SWAP1 PUSH2 0x1A38 JUMP JUMPDEST PUSH1 0x40 MLOAD DUP1 SWAP2 SUB SWAP1 RETURN JUMPDEST PUSH2 0x174 PUSH1 0x4 DUP1 CALLDATASIZE SUB DUP2 ADD SWAP1 PUSH2 0x16F SWAP2 SWAP1 PUSH2 0x1AC5 JUMP JUMPDEST PUSH2 0x41B JUMP JUMPDEST PUSH1 0x40 MLOAD PUSH2 0x181 SWAP2 SWAP1 PUSH2 0x1D90 JUMP JUMPDEST PUSH1 0x40 MLOAD DUP1 SWAP2 SUB SWAP1 RETURN JUMPDEST PUSH2 0x1A4 PUSH1 0x4 DUP1 CALLDATASIZE SUB DUP2 ADD SWAP1 PUSH2 0x19F SWAP2 SWAP1 PUSH2 0x1DDE JUMP JUMPDEST PUSH2 0x6C7 JUMP JUMPDEST STOP JUMPDEST PUSH2 0x1C0 PUSH1 0x4 DUP1 CALLDATASIZE SUB DUP2 ADD SWAP1 PUSH2 0x1BB SWAP2 SWAP1 PUSH2 0x1F02 JUMP JUMPDEST PUSH2 0x797 JUMP JUMPDEST STOP JUMPDEST PUSH2 0x1DC PUSH1 0x4 DUP1 CALLDATASIZE SUB DUP2 ADD SWAP1 PUSH2 0x1D7 SWAP2 SWAP1 PUSH2 0x1F7A JUMP JUMPDEST PUSH2 0xC0B JUMP JUMPDEST STOP JUMPDEST PUSH2 0x1F8 PUSH1 0x4 DUP1 CALLDATASIZE SUB DUP2 ADD SWAP1 PUSH2 0x1F3 SWAP2 SWAP1 PUSH2 0x2046 JUMP JUMPDEST PUSH2 0x1046 JUMP JUMPDEST STOP JUMPDEST PUSH2 0x214 PUSH1 0x4 DUP1 CALLDATASIZE SUB DUP2 ADD SWAP1 PUSH2 0x20F SWAP2 SWAP1 PUSH2 0x1AC5 JUMP JUMPDEST PUSH2 0x140C JUMP JUMPDEST PUSH1 0x40 MLOAD PUSH2 0x223 SWAP4 SWAP3 SWAP2 SWAP1 PUSH2 0x20BA JUMP JUMPDEST PUSH1 0x40 MLOAD DUP1 SWAP2 SUB SWAP1 RETURN JUMPDEST PUSH2 0x246 PUSH1 0x4 DUP1 CALLDATASIZE SUB DUP2 ADD SWAP1 PUSH2 0x241 SWAP2 SWAP1 PUSH2 0x1AC5 JUMP JUMPDEST PUSH2 0x1436 JUMP JUMPDEST PUSH1 0x40 MLOAD PUSH2 0x253 SWAP2 SWAP1 PUSH2 0x1A38 JUMP JUMPDEST PUSH1 0x40 MLOAD DUP1 SWAP2 SUB SWAP1 RETURN JUMPDEST PUSH2 0x264 PUSH2 0x147F JUMP JUMPDEST STOP JUMPDEST PUSH2 0x26E PUSH2 0x1493 JUMP JUMPDEST PUSH1 0x40 MLOAD PUSH2 0x27B SWAP2 SWAP1 PUSH2 0x1A38 JUMP JUMPDEST PUSH1 0x40 MLOAD DUP1 SWAP2 SUB SWAP1 RETURN JUMPDEST PUSH2 0x28C PUSH2 0x1499 JUMP JUMPDEST PUSH1 0x40 MLOAD PUSH2 0x299 SWAP2 SWAP1 PUSH2 0x1A38 JUMP JUMPDEST PUSH1 0x40 MLOAD DUP1 SWAP2 SUB SWAP1 RETURN JUMPDEST PUSH2 0x2AA PUSH2 0x149F JUMP JUMPDEST PUSH1 0x40 MLOAD PUSH2 0x2B7 SWAP2 SWAP1 PUSH2 0x2100 JUMP JUMPDEST PUSH1 0x40 MLOAD DUP1 SWAP2 SUB SWAP1 RETURN JUMPDEST PUSH2 0x2DA PUSH1 0x4 DUP1 CALLDATASIZE SUB DUP2 ADD SWAP1 PUSH2 0x2D5 SWAP2 SWAP1 PUSH2 0x2147 JUMP JUMPDEST PUSH2 0x14C8 JUMP JUMPDEST STOP JUMPDEST PUSH2 0x2E4 PUSH2 0x15DA JUMP JUMPDEST PUSH1 0x40 MLOAD PUSH2 0x2F1 SWAP2 SWAP1 PUSH2 0x2196 JUMP JUMPDEST PUSH1 0x40 MLOAD DUP1 SWAP2 SUB SWAP1 RETURN JUMPDEST PUSH2 0x314 PUSH1 0x4 DUP1 CALLDATASIZE SUB DUP2 ADD SWAP1 PUSH2 0x30F SWAP2 SWAP1 PUSH2 0x1AC5 JUMP JUMPDEST PUSH2 0x160D JUMP JUMPDEST PUSH1 0x40 MLOAD PUSH2 0x321 SWAP2 SWAP1 PUSH2 0x1A38 JUMP JUMPDEST PUSH1 0x40 MLOAD DUP1 SWAP2 SUB SWAP1 RETURN JUMPDEST PUSH2 0x344 PUSH1 0x4 DUP1 CALLDATASIZE SUB DUP2 ADD SWAP1 PUSH2 0x33F SWAP2 SWAP1 PUSH2 0x21B1 JUMP JUMPDEST PUSH2 0x1625 JUMP JUMPDEST PUSH1 0x40 MLOAD PUSH2 0x354 SWAP5 SWAP4 SWAP3 SWAP2 SWAP1 PUSH2 0x21DE JUMP JUMPDEST PUSH1 0x40 MLOAD DUP1 SWAP2 SUB SWAP1 RETURN JUMPDEST PUSH2 0x377 PUSH1 0x4 DUP1 CALLDATASIZE SUB DUP2 ADD SWAP1 PUSH2 0x372 SWAP2 SWAP1 PUSH2 0x1AC5 JUMP JUMPDEST PUSH2 0x1692 JUMP JUMPDEST PUSH1 0x40 MLOAD PUSH2 0x384 SWAP2 SWAP1 PUSH2 0x2196 JUMP JUMPDEST PUSH1 0x40 MLOAD DUP1 SWAP2 SUB SWAP1 RETURN JUMPDEST PUSH2 0x395 PUSH2 0x1733 JUMP JUMPDEST PUSH1 0x40 MLOAD PUSH2 0x3A2 SWAP2 SWAP1 PUSH2 0x1A38 JUMP JUMPDEST PUSH1 0x40 MLOAD DUP1 SWAP2 SUB SWAP1 RETURN JUMPDEST PUSH2 0x3B3 PUSH2 0x1739 JUMP JUMPDEST PUSH1 0x40 MLOAD PUSH2 0x3C0 SWAP2 SWAP1 PUSH2 0x2100 JUMP JUMPDEST PUSH1 0x40 MLOAD DUP1 SWAP2 SUB SWAP1 RETURN JUMPDEST PUSH2 0x3E3 PUSH1 0x4 DUP1 CALLDATASIZE SUB DUP2 ADD SWAP1 PUSH2 0x3DE SWAP2 SWAP1 PUSH2 0x21B1 JUMP JUMPDEST PUSH2 0x175F JUMP JUMPDEST PUSH1 0x40 MLOAD PUSH2 0x3F0 SWAP2 SWAP1 PUSH2 0x2100 JUMP JUMPDEST PUSH1 0x40 MLOAD DUP1 SWAP2 SUB SWAP1 RETURN JUMPDEST PUSH2 0x413 PUSH1 0x4 DUP1 CALLDATASIZE SUB DUP2 ADD SWAP1 PUSH2 0x40E SWAP2 SWAP1 PUSH2 0x1AC5 JUMP JUMPDEST PUSH2 0x1795 JUMP JUMPDEST STOP JUMPDEST PUSH1 0x3 SLOAD DUP2 JUMP JUMPDEST PUSH1 0x60 PUSH1 0x0 PUSH20 0xFFFFFFFFFFFFFFFFFFFFFFFFFFFFFFFFFFFFFFFF AND DUP3 PUSH20 0xFFFFFFFFFFFFFFFFFFFFFFFFFFFFFFFFFFFFFFFF AND SUB PUSH2 0x483 JUMPI PUSH1 0x40 MLOAD PUSH32 0x6E5EC59F00000000000000000000000000000000000000000000000000000000 DUP2 MSTORE PUSH1 0x4 ADD PUSH1 0x40 MLOAD DUP1 SWAP2 SUB SWAP1 REVERT JUMPDEST PUSH1 0xE PUSH1 0x0 DUP4 PUSH20 0xFFFFFFFFFFFFFFFFFFFFFFFFFFFFFFFFFFFFFFFF AND PUSH20 0xFFFFFFFFFFFFFFFFFFFFFFFFFFFFFFFFFFFFFFFF AND DUP2 MSTORE PUSH1 0x20 ADD SWAP1 DUP2 MSTORE PUSH1 0x20 ADD PUSH1 0x0 KECCAK256 DUP1 SLOAD DUP1 PUSH1 0x20 MUL PUSH1 0x20 ADD PUSH1 0x40 MLOAD SWAP1 DUP2 ADD PUSH1 0x40 MSTORE DUP1 SWAP3 SWAP2 SWAP1 DUP2 DUP2 MSTORE PUSH1 0x20 ADD PUSH1 0x0 SWAP1 JUMPDEST DUP3 DUP3 LT ISZERO PUSH2 0x6BC JUMPI DUP4 DUP3 SWAP1 PUSH1 0x0 MSTORE PUSH1 0x20 PUSH1 0x0 KECCAK256 SWAP1 PUSH1 0x6 MUL ADD PUSH1 0x40 MLOAD DUP1 PUSH1 0xE0 ADD PUSH1 0x40 MSTORE SWAP1 DUP2 PUSH1 0x0 DUP3 ADD PUSH1 0x0 SWAP1 SLOAD SWAP1 PUSH2 0x100 EXP SWAP1 DIV PUSH1 0xFF AND PUSH1 0x4 DUP2 GT ISZERO PUSH2 0x52A JUMPI PUSH2 0x529 PUSH2 0x1B1E JUMP JUMPDEST JUMPDEST PUSH1 0x4 DUP2 GT ISZERO PUSH2 0x53C JUMPI PUSH2 0x53B PUSH2 0x1B1E JUMP JUMPDEST JUMPDEST DUP2 MSTORE PUSH1 0x20 ADD PUSH1 0x1 DUP3 ADD SLOAD DUP2 MSTORE PUSH1 0x20 ADD PUSH1 0x2 DUP3 ADD PUSH1 0x0 SWAP1 SLOAD SWAP1 PUSH2 0x100 EXP SWAP1 DIV PUSH20 0xFFFFFFFFFFFFFFFFFFFFFFFFFFFFFFFFFFFFFFFF AND PUSH20 0xFFFFFFFFFFFFFFFFFFFFFFFFFFFFFFFFFFFFFFFF AND PUSH20 0xFFFFFFFFFFFFFFFFFFFFFFFFFFFFFFFFFFFFFFFF AND DUP2 MSTORE PUSH1 0x20 ADD PUSH1 0x3 DUP3 ADD DUP1 SLOAD PUSH2 0x5B0 SWAP1 PUSH2 0x2252 JUMP JUMPDEST DUP1 PUSH1 0x1F ADD PUSH1 0x20 DUP1 SWAP2 DIV MUL PUSH1 0x20 ADD PUSH1 0x40 MLOAD SWAP1 DUP2 ADD PUSH1 0x40 MSTORE DUP1 SWAP3 SWAP2 SWAP1 DUP2 DUP2 MSTORE PUSH1 0x20 ADD DUP3 DUP1 SLOAD PUSH2 0x5DC SWAP1 PUSH2 0x2252 JUMP JUMPDEST DUP1 ISZERO PUSH2 0x629 JUMPI DUP1 PUSH1 0x1F LT PUSH2 0x5FE JUMPI PUSH2 0x100 DUP1 DUP4 SLOAD DIV MUL DUP4 MSTORE SWAP2 PUSH1 0x20 ADD SWAP2 PUSH2 0x629 JUMP JUMPDEST DUP3 ADD SWAP2 SWAP1 PUSH1 0x0 MSTORE PUSH1 0x20 PUSH1 0x0 KECCAK256 SWAP1 JUMPDEST DUP2 SLOAD DUP2 MSTORE SWAP1 PUSH1 0x1 ADD SWAP1 PUSH1 0x20 ADD DUP1 DUP4 GT PUSH2 0x60C JUMPI DUP3 SWAP1 SUB PUSH1 0x1F AND DUP3 ADD SWAP2 JUMPDEST POP POP POP POP POP DUP2 MSTORE PUSH1 0x20 ADD PUSH1 0x4 DUP3 ADD PUSH1 0x0 SWAP1 SLOAD SWAP1 PUSH2 0x100 EXP SWAP1 DIV PUSH1 0xFF AND ISZERO ISZERO ISZERO ISZERO DUP2 MSTORE PUSH1 0x20 ADD PUSH1 0x4 DUP3 ADD PUSH1 0x1 SWAP1 SLOAD SWAP1 PUSH2 0x100 EXP SWAP1 DIV PUSH20 0xFFFFFFFFFFFFFFFFFFFFFFFFFFFFFFFFFFFFFFFF AND PUSH20 0xFFFFFFFFFFFFFFFFFFFFFFFFFFFFFFFFFFFFFFFF AND PUSH20 0xFFFFFFFFFFFFFFFFFFFFFFFFFFFFFFFFFFFFFFFF AND DUP2 MSTORE PUSH1 0x20 ADD PUSH1 0x5 DUP3 ADD SLOAD DUP2 MSTORE POP POP DUP2 MSTORE PUSH1 0x20 ADD SWAP1 PUSH1 0x1 ADD SWAP1 PUSH2 0x4E2 JUMP JUMPDEST POP POP POP POP SWAP1 POP SWAP2 SWAP1 POP JUMP JUMPDEST PUSH2 0x6CF PUSH2 0x1818 JUMP JUMPDEST PUSH1 0x4 DUP2 LT ISZERO DUP1 PUSH2 0x6DF JUMPI POP PUSH1 0x0 DUP2 EQ JUMPDEST ISZERO PUSH2 0x716 JUMPI PUSH1 0x40 MLOAD PUSH32 0x42C7745500000000000000000000000000000000000000000000000000000000 DUP2 MSTORE PUSH1 0x4 ADD PUSH1 0x40 MLOAD DUP1 SWAP2 SUB SWAP1 REVERT JUMPDEST DUP1 PUSH1 0xC PUSH1 0x0 DUP5 PUSH20 0xFFFFFFFFFFFFFFFFFFFFFFFFFFFFFFFFFFFFFFFF AND PUSH20 0xFFFFFFFFFFFFFFFFFFFFFFFFFFFFFFFFFFFFFFFF AND DUP2 MSTORE PUSH1 0x20 ADD SWAP1 DUP2 MSTORE PUSH1 0x20 ADD PUSH1 0x0 KECCAK256 DUP2 SWAP1 SSTORE POP PUSH32 0x62C1E066774519DB9FE35767C15FC33DF2F016675B7CC0C330ED185F286A2D52 DUP3 DUP3 PUSH1 0x40 MLOAD PUSH2 0x78B SWAP3 SWAP2 SWAP1 PUSH2 0x2283 JUMP JUMPDEST PUSH1 0x40 MLOAD DUP1 SWAP2 SUB SWAP1 LOG1 POP POP JUMP JUMPDEST CALLER CALLER PUSH20 0xFFFFFFFFFFFFFFFFFFFFFFFFFFFFFFFFFFFFFFFF AND DUP2 PUSH20 0xFFFFFFFFFFFFFFFFFFFFFFFFFFFFFFFFFFFFFFFF AND EQ PUSH2 0x7FD JUMPI PUSH1 0x40 MLOAD PUSH32 0xB2C3AA6B00000000000000000000000000000000000000000000000000000000 DUP2 MSTORE PUSH1 0x4 ADD PUSH1 0x40 MLOAD DUP1 SWAP2 SUB SWAP1 REVERT JUMPDEST PUSH1 0x0 PUSH1 0xC PUSH1 0x0 CALLER PUSH20 0xFFFFFFFFFFFFFFFFFFFFFFFFFFFFFFFFFFFFFFFF AND PUSH20 0xFFFFFFFFFFFFFFFFFFFFFFFFFFFFFFFFFFFFFFFF AND DUP2 MSTORE PUSH1 0x20 ADD SWAP1 DUP2 MSTORE PUSH1 0x20 ADD PUSH1 0x0 KECCAK256 SLOAD SWAP1 POP PUSH1 0x0 DUP2 SUB PUSH2 0x87B JUMPI PUSH1 0x40 MLOAD PUSH32 0x584A793800000000000000000000000000000000000000000000000000000000 DUP2 MSTORE PUSH1 0x4 ADD PUSH1 0x40 MLOAD DUP1 SWAP2 SUB SWAP1 REVERT JUMPDEST PUSH1 0x4 DUP2 LT PUSH2 0x8B5 JUMPI PUSH1 0x40 MLOAD PUSH32 0x42C7745500000000000000000000000000000000000000000000000000000000 DUP2 MSTORE PUSH1 0x4 ADD PUSH1 0x40 MLOAD DUP1 SWAP2 SUB SWAP1 REVERT JUMPDEST DUP4 PUSH1 0xB PUSH1 0x0 CALLER PUSH20 0xFFFFFFFFFFFFFFFFFFFFFFFFFFFFFFFFFFFFFFFF AND PUSH20 0xFFFFFFFFFFFFFFFFFFFFFFFFFFFFFFFFFFFFFFFF AND DUP2 MSTORE PUSH1 0x20 ADD SWAP1 DUP2 MSTORE PUSH1 0x20 ADD PUSH1 0x0 KECCAK256 SLOAD LT ISZERO PUSH2 0x97A JUMPI DUP4 PUSH1 0xB PUSH1 0x0 CALLER PUSH20 0xFFFFFFFFFFFFFFFFFFFFFFFFFFFFFFFFFFFFFFFF AND PUSH20 0xFFFFFFFFFFFFFFFFFFFFFFFFFFFFFFFFFFFFFFFF AND DUP2 MSTORE PUSH1 0x20 ADD SWAP1 DUP2 MSTORE PUSH1 0x20 ADD PUSH1 0x0 KECCAK256 SLOAD PUSH1 0x40 MLOAD PUSH32 0x8C90536800000000000000000000000000000000000000000000000000000000 DUP2 MSTORE PUSH1 0x4 ADD PUSH2 0x971 SWAP3 SWAP2 SWAP1 PUSH2 0x22AC JUMP JUMPDEST PUSH1 0x40 MLOAD DUP1 SWAP2 SUB SWAP1 REVERT JUMPDEST PUSH1 0xC PUSH1 0x0 CALLER PUSH20 0xFFFFFFFFFFFFFFFFFFFFFFFFFFFFFFFFFFFFFFFF AND PUSH20 0xFFFFFFFFFFFFFFFFFFFFFFFFFFFFFFFFFFFFFFFF AND DUP2 MSTORE PUSH1 0x20 ADD SWAP1 DUP2 MSTORE PUSH1 0x20 ADD PUSH1 0x0 KECCAK256 SLOAD DUP5 PUSH1 0xB PUSH1 0x0 CALLER PUSH20 0xFFFFFFFFFFFFFFFFFFFFFFFFFFFFFFFFFFFFFFFF AND PUSH20 0xFFFFFFFFFFFFFFFFFFFFFFFFFFFFFFFFFFFFFFFF AND DUP2 MSTORE PUSH1 0x20 ADD SWAP1 DUP2 MSTORE PUSH1 0x20 ADD PUSH1 0x0 KECCAK256 SLOAD PUSH2 0xA05 SWAP2 SWAP1 PUSH2 0x2304 JUMP JUMPDEST PUSH2 0xA0F SWAP2 SWAP1 PUSH2 0x2338 JUMP JUMPDEST PUSH1 0xB PUSH1 0x0 CALLER PUSH20 0xFFFFFFFFFFFFFFFFFFFFFFFFFFFFFFFFFFFFFFFF AND PUSH20 0xFFFFFFFFFFFFFFFFFFFFFFFFFFFFFFFFFFFFFFFF AND DUP2 MSTORE PUSH1 0x20 ADD SWAP1 DUP2 MSTORE PUSH1 0x20 ADD PUSH1 0x0 KECCAK256 DUP2 SWAP1 SSTORE POP PUSH1 0xC PUSH1 0x0 CALLER PUSH20 0xFFFFFFFFFFFFFFFFFFFFFFFFFFFFFFFFFFFFFFFF AND PUSH20 0xFFFFFFFFFFFFFFFFFFFFFFFFFFFFFFFFFFFFFFFF AND DUP2 MSTORE PUSH1 0x20 ADD SWAP1 DUP2 MSTORE PUSH1 0x20 ADD PUSH1 0x0 KECCAK256 SLOAD DUP5 PUSH1 0xB PUSH1 0x0 DUP9 PUSH20 0xFFFFFFFFFFFFFFFFFFFFFFFFFFFFFFFFFFFFFFFF AND PUSH20 0xFFFFFFFFFFFFFFFFFFFFFFFFFFFFFFFFFFFFFFFF AND DUP2 MSTORE PUSH1 0x20 ADD SWAP1 DUP2 MSTORE PUSH1 0x20 ADD PUSH1 0x0 KECCAK256 SLOAD PUSH2 0xADD SWAP2 SWAP1 PUSH2 0x2338 JUMP JUMPDEST PUSH2 0xAE7 SWAP2 SWAP1 PUSH2 0x2304 JUMP JUMPDEST PUSH1 0xB PUSH1 0x0 DUP8 PUSH20 0xFFFFFFFFFFFFFFFFFFFFFFFFFFFFFFFFFFFFFFFF AND PUSH20 0xFFFFFFFFFFFFFFFFFFFFFFFFFFFFFFFFFFFFFFFF AND DUP2 MSTORE PUSH1 0x20 ADD SWAP1 DUP2 MSTORE PUSH1 0x20 ADD PUSH1 0x0 KECCAK256 DUP2 SWAP1 SSTORE POP PUSH1 0x0 PUSH1 0xD PUSH1 0x0 CALLER PUSH20 0xFFFFFFFFFFFFFFFFFFFFFFFFFFFFFFFFFFFFFFFF AND PUSH20 0xFFFFFFFFFFFFFFFFFFFFFFFFFFFFFFFFFFFFFFFF AND DUP2 MSTORE PUSH1 0x20 ADD SWAP1 DUP2 MSTORE PUSH1 0x20 ADD PUSH1 0x0 KECCAK256 PUSH1 0x40 MLOAD DUP1 PUSH1 0x60 ADD PUSH1 0x40 MSTORE SWAP1 DUP2 PUSH1 0x0 DUP3 ADD SLOAD DUP2 MSTORE PUSH1 0x20 ADD PUSH1 0x1 DUP3 ADD SLOAD DUP2 MSTORE PUSH1 0x20 ADD PUSH1 0x2 DUP3 ADD SLOAD DUP2 MSTORE POP POP SWAP1 POP DUP4 PUSH1 0x0 ADD MLOAD DUP2 PUSH1 0x0 ADD DUP2 DUP2 MSTORE POP POP DUP4 PUSH1 0x20 ADD MLOAD DUP2 PUSH1 0x20 ADD DUP2 DUP2 MSTORE POP POP DUP4 PUSH1 0x40 ADD MLOAD DUP2 PUSH1 0x40 ADD DUP2 DUP2 MSTORE POP POP DUP6 PUSH20 0xFFFFFFFFFFFFFFFFFFFFFFFFFFFFFFFFFFFFFFFF AND PUSH32 0x98EAEE7299E9CBFA56CF530FD3A0C6DFA0CCDDF4F837B8F025651AD9594647B3 PUSH1 0x40 MLOAD PUSH1 0x40 MLOAD DUP1 SWAP2 SUB SWAP1 LOG2 POP POP POP POP POP POP JUMP JUMPDEST PUSH2 0xC13 PUSH2 0x1818 JUMP JUMPDEST PUSH1 0x0 DUP4 SUB PUSH2 0xC4D JUMPI PUSH1 0x40 MLOAD PUSH32 0x98176F8C00000000000000000000000000000000000000000000000000000000 DUP2 MSTORE PUSH1 0x4 ADD PUSH1 0x40 MLOAD DUP1 SWAP2 SUB SWAP1 REVERT JUMPDEST PUSH1 0x0 PUSH20 0xFFFFFFFFFFFFFFFFFFFFFFFFFFFFFFFFFFFFFFFF AND DUP5 PUSH20 0xFFFFFFFFFFFFFFFFFFFFFFFFFFFFFFFFFFFFFFFF AND SUB PUSH2 0xCB3 JUMPI PUSH1 0x40 MLOAD PUSH32 0x6E5EC59F00000000000000000000000000000000000000000000000000000000 DUP2 MSTORE PUSH1 0x4 ADD PUSH1 0x40 MLOAD DUP1 SWAP2 SUB SWAP1 REVERT JUMPDEST PUSH1 0x0 JUMPDEST PUSH1 0xE PUSH1 0x0 DUP7 PUSH20 0xFFFFFFFFFFFFFFFFFFFFFFFFFFFFFFFFFFFFFFFF AND PUSH20 0xFFFFFFFFFFFFFFFFFFFFFFFFFFFFFFFFFFFFFFFF AND DUP2 MSTORE PUSH1 0x20 ADD SWAP1 DUP2 MSTORE PUSH1 0x20 ADD PUSH1 0x0 KECCAK256 DUP1 SLOAD SWAP1 POP DUP2 LT ISZERO PUSH2 0x103F JUMPI DUP4 PUSH1 0xE PUSH1 0x0 DUP8 PUSH20 0xFFFFFFFFFFFFFFFFFFFFFFFFFFFFFFFFFFFFFFFF AND PUSH20 0xFFFFFFFFFFFFFFFFFFFFFFFFFFFFFFFFFFFFFFFF AND DUP2 MSTORE PUSH1 0x20 ADD SWAP1 DUP2 MSTORE PUSH1 0x20 ADD PUSH1 0x0 KECCAK256 DUP3 DUP2 SLOAD DUP2 LT PUSH2 0xD52 JUMPI PUSH2 0xD51 PUSH2 0x236C JUMP JUMPDEST JUMPDEST SWAP1 PUSH1 0x0 MSTORE PUSH1 0x20 PUSH1 0x0 KECCAK256 SWAP1 PUSH1 0x6 MUL ADD PUSH1 0x1 ADD SLOAD SUB PUSH2 0x102C JUMPI PUSH1 0x1 PUSH1 0xE PUSH1 0x0 DUP8 PUSH20 0xFFFFFFFFFFFFFFFFFFFFFFFFFFFFFFFFFFFFFFFF AND PUSH20 0xFFFFFFFFFFFFFFFFFFFFFFFFFFFFFFFFFFFFFFFF AND DUP2 MSTORE PUSH1 0x20 ADD SWAP1 DUP2 MSTORE PUSH1 0x20 ADD PUSH1 0x0 KECCAK256 DUP3 DUP2 SLOAD DUP2 LT PUSH2 0xDBC JUMPI PUSH2 0xDBB PUSH2 0x236C JUMP JUMPDEST JUMPDEST SWAP1 PUSH1 0x0 MSTORE PUSH1 0x20 PUSH1 0x0 KECCAK256 SWAP1 PUSH1 0x6 MUL ADD PUSH1 0x4 ADD PUSH1 0x0 PUSH2 0x100 EXP DUP2 SLOAD DUP2 PUSH1 0xFF MUL NOT AND SWAP1 DUP4 ISZERO ISZERO MUL OR SWAP1 SSTORE POP DUP5 PUSH1 0xE PUSH1 0x0 DUP8 PUSH20 0xFFFFFFFFFFFFFFFFFFFFFFFFFFFFFFFFFFFFFFFF AND PUSH20 0xFFFFFFFFFFFFFFFFFFFFFFFFFFFFFFFFFFFFFFFF AND DUP2 MSTORE PUSH1 0x20 ADD SWAP1 DUP2 MSTORE PUSH1 0x20 ADD PUSH1 0x0 KECCAK256 DUP3 DUP2 SLOAD DUP2 LT PUSH2 0xE36 JUMPI PUSH2 0xE35 PUSH2 0x236C JUMP JUMPDEST JUMPDEST SWAP1 PUSH1 0x0 MSTORE PUSH1 0x20 PUSH1 0x0 KECCAK256 SWAP1 PUSH1 0x6 MUL ADD PUSH1 0x4 ADD PUSH1 0x1 PUSH2 0x100 EXP DUP2 SLOAD DUP2 PUSH20 0xFFFFFFFFFFFFFFFFFFFFFFFFFFFFFFFFFFFFFFFF MUL NOT AND SWAP1 DUP4 PUSH20 0xFFFFFFFFFFFFFFFFFFFFFFFFFFFFFFFFFFFFFFFF AND MUL OR SWAP1 SSTORE POP DUP2 PUSH1 0xE PUSH1 0x0 DUP8 PUSH20 0xFFFFFFFFFFFFFFFFFFFFFFFFFFFFFFFFFFFFFFFF AND PUSH20 0xFFFFFFFFFFFFFFFFFFFFFFFFFFFFFFFFFFFFFFFF AND DUP2 MSTORE PUSH1 0x20 ADD SWAP1 DUP2 MSTORE PUSH1 0x20 ADD PUSH1 0x0 KECCAK256 DUP3 DUP2 SLOAD DUP2 LT PUSH2 0xED7 JUMPI PUSH2 0xED6 PUSH2 0x236C JUMP JUMPDEST JUMPDEST SWAP1 PUSH1 0x0 MSTORE PUSH1 0x20 PUSH1 0x0 KECCAK256 SWAP1 PUSH1 0x6 MUL ADD PUSH1 0x0 ADD PUSH1 0x0 PUSH2 0x100 EXP DUP2 SLOAD DUP2 PUSH1 0xFF MUL NOT AND SWAP1 DUP4 PUSH1 0x4 DUP2 GT ISZERO PUSH2 0xF0A JUMPI PUSH2 0xF09 PUSH2 0x1B1E JUMP JUMPDEST JUMPDEST MUL OR SWAP1 SSTORE POP DUP3 PUSH1 0xE PUSH1 0x0 DUP8 PUSH20 0xFFFFFFFFFFFFFFFFFFFFFFFFFFFFFFFFFFFFFFFF AND PUSH20 0xFFFFFFFFFFFFFFFFFFFFFFFFFFFFFFFFFFFFFFFF AND DUP2 MSTORE PUSH1 0x20 ADD SWAP1 DUP2 MSTORE PUSH1 0x20 ADD PUSH1 0x0 KECCAK256 DUP3 DUP2 SLOAD DUP2 LT PUSH2 0xF61 JUMPI PUSH2 0xF60 PUSH2 0x236C JUMP JUMPDEST JUMPDEST SWAP1 PUSH1 0x0 MSTORE PUSH1 0x20 PUSH1 0x0 KECCAK256 SWAP1 PUSH1 0x6 MUL ADD PUSH1 0x5 ADD DUP2 SWAP1 SSTORE POP PUSH1 0x0 PUSH2 0xF80 PUSH2 0x15DA JUMP JUMPDEST SWAP1 POP PUSH2 0xF8C DUP7 DUP3 PUSH2 0x14C8 JUMP JUMPDEST PUSH32 0xF41EFC8C6B66B2A03B14FD69B985AD19A0B9245F24936163018E9AD06D4C143E CALLER DUP7 DUP7 PUSH1 0xE PUSH1 0x0 DUP12 PUSH20 0xFFFFFFFFFFFFFFFFFFFFFFFFFFFFFFFFFFFFFFFF AND PUSH20 0xFFFFFFFFFFFFFFFFFFFFFFFFFFFFFFFFFFFFFFFF AND DUP2 MSTORE PUSH1 0x20 ADD SWAP1 DUP2 MSTORE PUSH1 0x20 ADD PUSH1 0x0 KECCAK256 DUP7 DUP2 SLOAD DUP2 LT PUSH2 0x1001 JUMPI PUSH2 0x1000 PUSH2 0x236C JUMP JUMPDEST JUMPDEST SWAP1 PUSH1 0x0 MSTORE PUSH1 0x20 PUSH1 0x0 KECCAK256 SWAP1 PUSH1 0x6 MUL ADD PUSH1 0x3 ADD PUSH1 0x40 MLOAD PUSH2 0x1022 SWAP5 SWAP4 SWAP3 SWAP2 SWAP1 PUSH2 0x2445 JUMP JUMPDEST PUSH1 0x40 MLOAD DUP1 SWAP2 SUB SWAP1 LOG1 POP JUMPDEST DUP1 DUP1 PUSH2 0x1037 SWAP1 PUSH2 0x2491 JUMP JUMPDEST SWAP2 POP POP PUSH2 0xCB6 JUMP JUMPDEST POP POP POP POP POP JUMP JUMPDEST PUSH1 0x0 PUSH1 0xB PUSH1 0x0 CALLER PUSH20 0xFFFFFFFFFFFFFFFFFFFFFFFFFFFFFFFFFFFFFFFF AND PUSH20 0xFFFFFFFFFFFFFFFFFFFFFFFFFFFFFFFFFFFFFFFF AND DUP2 MSTORE PUSH1 0x20 ADD SWAP1 DUP2 MSTORE PUSH1 0x20 ADD PUSH1 0x0 KECCAK256 SLOAD SWAP1 POP DUP4 DUP2 LT ISZERO PUSH2 0x10D1 JUMPI DUP4 DUP2 PUSH1 0x40 MLOAD PUSH32 0x8C90536800000000000000000000000000000000000000000000000000000000 DUP2 MSTORE PUSH1 0x4 ADD PUSH2 0x10C8 SWAP3 SWAP2 SWAP1 PUSH2 0x22AC JUMP JUMPDEST PUSH1 0x40 MLOAD DUP1 SWAP2 SUB SWAP1 REVERT JUMPDEST PUSH1 0x9 DUP4 DUP4 SWAP1 POP LT PUSH2 0x110E JUMPI PUSH1 0x40 MLOAD PUSH32 0xEC965DA00000000000000000000000000000000000000000000000000000000 DUP2 MSTORE PUSH1 0x4 ADD PUSH1 0x40 MLOAD DUP1 SWAP2 SUB SWAP1 REVERT JUMPDEST DUP4 DUP2 PUSH2 0x111A SWAP2 SWAP1 PUSH2 0x2304 JUMP JUMPDEST SWAP1 POP DUP4 PUSH1 0xB PUSH1 0x0 DUP8 PUSH20 0xFFFFFFFFFFFFFFFFFFFFFFFFFFFFFFFFFFFFFFFF AND PUSH20 0xFFFFFFFFFFFFFFFFFFFFFFFFFFFFFFFFFFFFFFFF AND DUP2 MSTORE PUSH1 0x20 ADD SWAP1 DUP2 MSTORE PUSH1 0x20 ADD PUSH1 0x0 KECCAK256 PUSH1 0x0 DUP3 DUP3 SLOAD PUSH2 0x116B SWAP2 SWAP1 PUSH2 0x2338 JUMP JUMPDEST SWAP3 POP POP DUP2 SWAP1 SSTORE POP PUSH32 0x69CA02DD4EDD7BF0A4ABB9ED3B7AF3F14778DB5D61921C7DC7CD545266326DE2 DUP6 DUP6 PUSH1 0x40 MLOAD PUSH2 0x11A3 SWAP3 SWAP2 SWAP1 PUSH2 0x2283 JUMP JUMPDEST PUSH1 0x40 MLOAD DUP1 SWAP2 SUB SWAP1 LOG1 PUSH2 0x11B3 PUSH2 0x1962 JUMP JUMPDEST PUSH1 0x1 DUP2 PUSH1 0x0 ADD SWAP1 PUSH1 0x4 DUP2 GT ISZERO PUSH2 0x11CC JUMPI PUSH2 0x11CB PUSH2 0x1B1E JUMP JUMPDEST JUMPDEST SWAP1 DUP2 PUSH1 0x4 DUP2 GT ISZERO PUSH2 0x11E0 JUMPI PUSH2 0x11DF PUSH2 0x1B1E JUMP JUMPDEST JUMPDEST DUP2 MSTORE POP POP DUP6 DUP2 PUSH1 0x40 ADD SWAP1 PUSH20 0xFFFFFFFFFFFFFFFFFFFFFFFFFFFFFFFFFFFFFFFF AND SWAP1 DUP2 PUSH20 0xFFFFFFFFFFFFFFFFFFFFFFFFFFFFFFFFFFFFFFFF AND DUP2 MSTORE POP POP DUP4 DUP4 DUP1 DUP1 PUSH1 0x1F ADD PUSH1 0x20 DUP1 SWAP2 DIV MUL PUSH1 0x20 ADD PUSH1 0x40 MLOAD SWAP1 DUP2 ADD PUSH1 0x40 MSTORE DUP1 SWAP4 SWAP3 SWAP2 SWAP1 DUP2 DUP2 MSTORE PUSH1 0x20 ADD DUP4 DUP4 DUP1 DUP3 DUP5 CALLDATACOPY PUSH1 0x0 DUP2 DUP5 ADD MSTORE PUSH1 0x1F NOT PUSH1 0x1F DUP3 ADD AND SWAP1 POP DUP1 DUP4 ADD SWAP3 POP POP POP POP POP POP POP DUP2 PUSH1 0x60 ADD DUP2 SWAP1 MSTORE POP DUP5 DUP2 PUSH1 0xC0 ADD DUP2 DUP2 MSTORE POP POP PUSH1 0x4 PUSH1 0x0 DUP2 SLOAD PUSH2 0x1282 SWAP1 PUSH2 0x2491 JUMP JUMPDEST SWAP2 SWAP1 POP DUP2 SWAP1 SSTORE DUP2 PUSH1 0x20 ADD DUP2 DUP2 MSTORE POP POP PUSH1 0xE PUSH1 0x0 CALLER PUSH20 0xFFFFFFFFFFFFFFFFFFFFFFFFFFFFFFFFFFFFFFFF AND PUSH20 0xFFFFFFFFFFFFFFFFFFFFFFFFFFFFFFFFFFFFFFFF AND DUP2 MSTORE PUSH1 0x20 ADD SWAP1 DUP2 MSTORE PUSH1 0x20 ADD PUSH1 0x0 KECCAK256 DUP2 SWAP1 DUP1 PUSH1 0x1 DUP2 SLOAD ADD DUP1 DUP3 SSTORE DUP1 SWAP2 POP POP PUSH1 0x1 SWAP1 SUB SWAP1 PUSH1 0x0 MSTORE PUSH1 0x20 PUSH1 0x0 KECCAK256 SWAP1 PUSH1 0x6 MUL ADD PUSH1 0x0 SWAP1 SWAP2 SWAP1 SWAP2 SWAP1 SWAP2 POP PUSH1 0x0 DUP3 ADD MLOAD DUP2 PUSH1 0x0 ADD PUSH1 0x0 PUSH2 0x100 EXP DUP2 SLOAD DUP2 PUSH1 0xFF MUL NOT AND SWAP1 DUP4 PUSH1 0x4 DUP2 GT ISZERO PUSH2 0x1325 JUMPI PUSH2 0x1324 PUSH2 0x1B1E JUMP JUMPDEST JUMPDEST MUL OR SWAP1 SSTORE POP PUSH1 0x20 DUP3 ADD MLOAD DUP2 PUSH1 0x1 ADD SSTORE PUSH1 0x40 DUP3 ADD MLOAD DUP2 PUSH1 0x2 ADD PUSH1 0x0 PUSH2 0x100 EXP DUP2 SLOAD DUP2 PUSH20 0xFFFFFFFFFFFFFFFFFFFFFFFFFFFFFFFFFFFFFFFF MUL NOT AND SWAP1 DUP4 PUSH20 0xFFFFFFFFFFFFFFFFFFFFFFFFFFFFFFFFFFFFFFFF AND MUL OR SWAP1 SSTORE POP PUSH1 0x60 DUP3 ADD MLOAD DUP2 PUSH1 0x3 ADD SWAP1 DUP2 PUSH2 0x1390 SWAP2 SWAP1 PUSH2 0x2670 JUMP JUMPDEST POP PUSH1 0x80 DUP3 ADD MLOAD DUP2 PUSH1 0x4 ADD PUSH1 0x0 PUSH2 0x100 EXP DUP2 SLOAD DUP2 PUSH1 0xFF MUL NOT AND SWAP1 DUP4 ISZERO ISZERO MUL OR SWAP1 SSTORE POP PUSH1 0xA0 DUP3 ADD MLOAD DUP2 PUSH1 0x4 ADD PUSH1 0x1 PUSH2 0x100 EXP DUP2 SLOAD DUP2 PUSH20 0xFFFFFFFFFFFFFFFFFFFFFFFFFFFFFFFFFFFFFFFF MUL NOT AND SWAP1 DUP4 PUSH20 0xFFFFFFFFFFFFFFFFFFFFFFFFFFFFFFFFFFFFFFFF AND MUL OR SWAP1 SSTORE POP PUSH1 0xC0 DUP3 ADD MLOAD DUP2 PUSH1 0x5 ADD SSTORE POP POP POP POP POP POP POP POP JUMP JUMPDEST PUSH1 0xD PUSH1 0x20 MSTORE DUP1 PUSH1 0x0 MSTORE PUSH1 0x40 PUSH1 0x0 KECCAK256 PUSH1 0x0 SWAP2 POP SWAP1 POP DUP1 PUSH1 0x0 ADD SLOAD SWAP1 DUP1 PUSH1 0x1 ADD SLOAD SWAP1 DUP1 PUSH1 0x2 ADD SLOAD SWAP1 POP DUP4 JUMP JUMPDEST PUSH1 0x0 PUSH1 0xB PUSH1 0x0 DUP4 PUSH20 0xFFFFFFFFFFFFFFFFFFFFFFFFFFFFFFFFFFFFFFFF AND PUSH20 0xFFFFFFFFFFFFFFFFFFFFFFFFFFFFFFFFFFFFFFFF AND DUP2 MSTORE PUSH1 0x20 ADD SWAP1 DUP2 MSTORE PUSH1 0x20 ADD PUSH1 0x0 KECCAK256 SLOAD SWAP1 POP SWAP2 SWAP1 POP JUMP JUMPDEST PUSH2 0x1487 PUSH2 0x1818 JUMP JUMPDEST PUSH2 0x1491 PUSH1 0x0 PUSH2 0x1896 JUMP JUMPDEST JUMP JUMPDEST PUSH1 0x2 SLOAD DUP2 JUMP JUMPDEST PUSH1 0x4 SLOAD DUP2 JUMP JUMPDEST PUSH1 0x0 DUP1 PUSH1 0x0 SWAP1 SLOAD SWAP1 PUSH2 0x100 EXP SWAP1 DIV PUSH20 0xFFFFFFFFFFFFFFFFFFFFFFFFFFFFFFFFFFFFFFFF AND SWAP1 POP SWAP1 JUMP JUMPDEST PUSH2 0x14D0 PUSH2 0x19DF JUMP JUMPDEST NUMBER DUP2 PUSH1 0x40 ADD DUP2 DUP2 MSTORE POP POP TIMESTAMP DUP2 PUSH1 0x0 ADD DUP2 DUP2 MSTORE POP POP DUP3 DUP2 PUSH1 0x20 ADD SWAP1 PUSH20 0xFFFFFFFFFFFFFFFFFFFFFFFFFFFFFFFFFFFFFFFF AND SWAP1 DUP2 PUSH20 0xFFFFFFFFFFFFFFFFFFFFFFFFFFFFFFFFFFFFFFFF AND DUP2 MSTORE POP POP DUP2 DUP2 PUSH1 0x60 ADD SWAP1 ISZERO ISZERO SWAP1 DUP2 ISZERO ISZERO DUP2 MSTORE POP POP PUSH1 0xF DUP2 SWAP1 DUP1 PUSH1 0x1 DUP2 SLOAD ADD DUP1 DUP3 SSTORE DUP1 SWAP2 POP POP PUSH1 0x1 SWAP1 SUB SWAP1 PUSH1 0x0 MSTORE PUSH1 0x20 PUSH1 0x0 KECCAK256 SWAP1 PUSH1 0x4 MUL ADD PUSH1 0x0 SWAP1 SWAP2 SWAP1 SWAP2 SWAP1 SWAP2 POP PUSH1 0x0 DUP3 ADD MLOAD DUP2 PUSH1 0x0 ADD SSTORE PUSH1 0x20 DUP3 ADD MLOAD DUP2 PUSH1 0x1 ADD PUSH1 0x0 PUSH2 0x100 EXP DUP2 SLOAD DUP2 PUSH20 0xFFFFFFFFFFFFFFFFFFFFFFFFFFFFFFFFFFFFFFFF MUL NOT AND SWAP1 DUP4 PUSH20 0xFFFFFFFFFFFFFFFFFFFFFFFFFFFFFFFFFFFFFFFF AND MUL OR SWAP1 SSTORE POP PUSH1 0x40 DUP3 ADD MLOAD DUP2 PUSH1 0x2 ADD SSTORE PUSH1 0x60 DUP3 ADD MLOAD DUP2 PUSH1 0x3 ADD PUSH1 0x0 PUSH2 0x100 EXP DUP2 SLOAD DUP2 PUSH1 0xFF MUL NOT AND SWAP1 DUP4 ISZERO ISZERO MUL OR SWAP1 SSTORE POP POP POP POP POP POP JUMP JUMPDEST PUSH1 0x0 DUP1 PUSH1 0x0 SWAP1 POP PUSH1 0x1 DUP1 SLOAD EQ DUP1 PUSH2 0x15F3 JUMPI POP PUSH1 0x1 PUSH1 0x2 SLOAD EQ JUMPDEST ISZERO PUSH2 0x1601 JUMPI PUSH1 0x1 SWAP1 POP PUSH2 0x1606 JUMP JUMPDEST PUSH1 0x0 SWAP1 POP JUMPDEST DUP1 SWAP2 POP POP SWAP1 JUMP JUMPDEST PUSH1 0xC PUSH1 0x20 MSTORE DUP1 PUSH1 0x0 MSTORE PUSH1 0x40 PUSH1 0x0 KECCAK256 PUSH1 0x0 SWAP2 POP SWAP1 POP SLOAD DUP2 JUMP JUMPDEST PUSH1 0xF DUP2 DUP2 SLOAD DUP2 LT PUSH2 0x1635 JUMPI PUSH1 0x0 DUP1 REVERT JUMPDEST SWAP1 PUSH1 0x0 MSTORE PUSH1 0x20 PUSH1 0x0 KECCAK256 SWAP1 PUSH1 0x4 MUL ADD PUSH1 0x0 SWAP2 POP SWAP1 POP DUP1 PUSH1 0x0 ADD SLOAD SWAP1 DUP1 PUSH1 0x1 ADD PUSH1 0x0 SWAP1 SLOAD SWAP1 PUSH2 0x100 EXP SWAP1 DIV PUSH20 0xFFFFFFFFFFFFFFFFFFFFFFFFFFFFFFFFFFFFFFFF AND SWAP1 DUP1 PUSH1 0x2 ADD SLOAD SWAP1 DUP1 PUSH1 0x3 ADD PUSH1 0x0 SWAP1 SLOAD SWAP1 PUSH2 0x100 EXP SWAP1 DIV PUSH1 0xFF AND SWAP1 POP DUP5 JUMP JUMPDEST PUSH1 0x0 DUP1 PUSH1 0x0 SWAP1 POP PUSH1 0x0 JUMPDEST PUSH1 0x5 DUP2 LT ISZERO PUSH2 0x1729 JUMPI DUP4 PUSH20 0xFFFFFFFFFFFFFFFFFFFFFFFFFFFFFFFFFFFFFFFF AND PUSH1 0x6 DUP3 PUSH1 0x5 DUP2 LT PUSH2 0x16D0 JUMPI PUSH2 0x16CF PUSH2 0x236C JUMP JUMPDEST JUMPDEST ADD PUSH1 0x0 SWAP1 SLOAD SWAP1 PUSH2 0x100 EXP SWAP1 DIV PUSH20 0xFFFFFFFFFFFFFFFFFFFFFFFFFFFFFFFFFFFFFFFF AND PUSH20 0xFFFFFFFFFFFFFFFFFFFFFFFFFFFFFFFFFFFFFFFF AND SUB PUSH2 0x1716 JUMPI PUSH1 0x1 SWAP2 POP PUSH2 0x1729 JUMP JUMPDEST DUP1 DUP1 PUSH2 0x1721 SWAP1 PUSH2 0x2491 JUMP JUMPDEST SWAP2 POP POP PUSH2 0x169C JUMP JUMPDEST POP DUP1 SWAP2 POP POP SWAP2 SWAP1 POP JUMP JUMPDEST PUSH1 0x1 SLOAD DUP2 JUMP JUMPDEST PUSH1 0x5 PUSH1 0x0 SWAP1 SLOAD SWAP1 PUSH2 0x100 EXP SWAP1 DIV PUSH20 0xFFFFFFFFFFFFFFFFFFFFFFFFFFFFFFFFFFFFFFFF AND DUP2 JUMP JUMPDEST PUSH1 0x6 DUP2 PUSH1 0x5 DUP2 LT PUSH2 0x176F JUMPI PUSH1 0x0 DUP1 REVERT JUMPDEST ADD PUSH1 0x0 SWAP2 POP SLOAD SWAP1 PUSH2 0x100 EXP SWAP1 DIV PUSH20 0xFFFFFFFFFFFFFFFFFFFFFFFFFFFFFFFFFFFFFFFF AND DUP2 JUMP JUMPDEST PUSH2 0x179D PUSH2 0x1818 JUMP JUMPDEST PUSH1 0x0 PUSH20 0xFFFFFFFFFFFFFFFFFFFFFFFFFFFFFFFFFFFFFFFF AND DUP2 PUSH20 0xFFFFFFFFFFFFFFFFFFFFFFFFFFFFFFFFFFFFFFFF AND SUB PUSH2 0x180C JUMPI PUSH1 0x40 MLOAD PUSH32 0x8C379A000000000000000000000000000000000000000000000000000000000 DUP2 MSTORE PUSH1 0x4 ADD PUSH2 0x1803 SWAP1 PUSH2 0x27B4 JUMP JUMPDEST PUSH1 0x40 MLOAD DUP1 SWAP2 SUB SWAP1 REVERT JUMPDEST PUSH2 0x1815 DUP2 PUSH2 0x1896 JUMP JUMPDEST POP JUMP JUMPDEST PUSH2 0x1820 PUSH2 0x195A JUMP JUMPDEST PUSH20 0xFFFFFFFFFFFFFFFFFFFFFFFFFFFFFFFFFFFFFFFF AND PUSH2 0x183E PUSH2 0x149F JUMP JUMPDEST PUSH20 0xFFFFFFFFFFFFFFFFFFFFFFFFFFFFFFFFFFFFFFFF AND EQ PUSH2 0x1894 JUMPI PUSH1 0x40 MLOAD PUSH32 0x8C379A000000000000000000000000000000000000000000000000000000000 DUP2 MSTORE PUSH1 0x4 ADD PUSH2 0x188B SWAP1 PUSH2 0x2820 JUMP JUMPDEST PUSH1 0x40 MLOAD DUP1 SWAP2 SUB SWAP1 REVERT JUMPDEST JUMP JUMPDEST PUSH1 0x0 DUP1 PUSH1 0x0 SWAP1 SLOAD SWAP1 PUSH2 0x100 EXP SWAP1 DIV PUSH20 0xFFFFFFFFFFFFFFFFFFFFFFFFFFFFFFFFFFFFFFFF AND SWAP1 POP DUP2 PUSH1 0x0 DUP1 PUSH2 0x100 EXP DUP2 SLOAD DUP2 PUSH20 0xFFFFFFFFFFFFFFFFFFFFFFFFFFFFFFFFFFFFFFFF MUL NOT AND SWAP1 DUP4 PUSH20 0xFFFFFFFFFFFFFFFFFFFFFFFFFFFFFFFFFFFFFFFF AND MUL OR SWAP1 SSTORE POP DUP2 PUSH20 0xFFFFFFFFFFFFFFFFFFFFFFFFFFFFFFFFFFFFFFFF AND DUP2 PUSH20 0xFFFFFFFFFFFFFFFFFFFFFFFFFFFFFFFFFFFFFFFF AND PUSH32 0x8BE0079C531659141344CD1FD0A4F28419497F9722A3DAAFE3B4186F6B6457E0 PUSH1 0x40 MLOAD PUSH1 0x40 MLOAD DUP1 SWAP2 SUB SWAP1 LOG3 POP POP JUMP JUMPDEST PUSH1 0x0 CALLER SWAP1 POP SWAP1 JUMP JUMPDEST PUSH1 0x40 MLOAD DUP1 PUSH1 0xE0 ADD PUSH1 0x40 MSTORE DUP1 PUSH1 0x0 PUSH1 0x4 DUP2 GT ISZERO PUSH2 0x1981 JUMPI PUSH2 0x1980 PUSH2 0x1B1E JUMP JUMPDEST JUMPDEST DUP2 MSTORE PUSH1 0x20 ADD PUSH1 0x0 DUP2 MSTORE PUSH1 0x20 ADD PUSH1 0x0 PUSH20 0xFFFFFFFFFFFFFFFFFFFFFFFFFFFFFFFFFFFFFFFF AND DUP2 MSTORE PUSH1 0x20 ADD PUSH1 0x60 DUP2 MSTORE PUSH1 0x20 ADD PUSH1 0x0 ISZERO ISZERO DUP2 MSTORE PUSH1 0x20 ADD PUSH1 0x0 PUSH20 0xFFFFFFFFFFFFFFFFFFFFFFFFFFFFFFFFFFFFFFFF AND DUP2 MSTORE PUSH1 0x20 ADD PUSH1 0x0 DUP2 MSTORE POP SWAP1 JUMP JUMPDEST PUSH1 0x40 MLOAD DUP1 PUSH1 0x80 ADD PUSH1 0x40 MSTORE DUP1 PUSH1 0x0 DUP2 MSTORE PUSH1 0x20 ADD PUSH1 0x0 PUSH20 0xFFFFFFFFFFFFFFFFFFFFFFFFFFFFFFFFFFFFFFFF AND DUP2 MSTORE PUSH1 0x20 ADD PUSH1 0x0 DUP2 MSTORE PUSH1 0x20 ADD PUSH1 0x0 ISZERO ISZERO DUP2 MSTORE POP SWAP1 JUMP JUMPDEST PUSH1 0x0 DUP2 SWAP1 POP SWAP2 SWAP1 POP JUMP JUMPDEST PUSH2 0x1A32 DUP2 PUSH2 0x1A1F JUMP JUMPDEST DUP3 MSTORE POP POP JUMP JUMPDEST PUSH1 0x0 PUSH1 0x20 DUP3 ADD SWAP1 POP PUSH2 0x1A4D PUSH1 0x0 DUP4 ADD DUP5 PUSH2 0x1A29 JUMP JUMPDEST SWAP3 SWAP2 POP POP JUMP JUMPDEST PUSH1 0x0 PUSH1 0x40 MLOAD SWAP1 POP SWAP1 JUMP JUMPDEST PUSH1 0x0 DUP1 REVERT JUMPDEST PUSH1 0x0 DUP1 REVERT JUMPDEST PUSH1 0x0 PUSH20 0xFFFFFFFFFFFFFFFFFFFFFFFFFFFFFFFFFFFFFFFF DUP3 AND SWAP1 POP SWAP2 SWAP1 POP JUMP JUMPDEST PUSH1 0x0 PUSH2 0x1A92 DUP3 PUSH2 0x1A67 JUMP JUMPDEST SWAP1 POP SWAP2 SWAP1 POP JUMP JUMPDEST PUSH2 0x1AA2 DUP2 PUSH2 0x1A87 JUMP JUMPDEST DUP2 EQ PUSH2 0x1AAD JUMPI PUSH1 0x0 DUP1 REVERT JUMPDEST POP JUMP JUMPDEST PUSH1 0x0 DUP2 CALLDATALOAD SWAP1 POP PUSH2 0x1ABF DUP2 PUSH2 0x1A99 JUMP JUMPDEST SWAP3 SWAP2 POP POP JUMP JUMPDEST PUSH1 0x0 PUSH1 0x20 DUP3 DUP5 SUB SLT ISZERO PUSH2 0x1ADB JUMPI PUSH2 0x1ADA PUSH2 0x1A5D JUMP JUMPDEST JUMPDEST PUSH1 0x0 PUSH2 0x1AE9 DUP5 DUP3 DUP6 ADD PUSH2 0x1AB0 JUMP JUMPDEST SWAP2 POP POP SWAP3 SWAP2 POP POP JUMP JUMPDEST PUSH1 0x0 DUP2 MLOAD SWAP1 POP SWAP2 SWAP1 POP JUMP JUMPDEST PUSH1 0x0 DUP3 DUP3 MSTORE PUSH1 0x20 DUP3 ADD SWAP1 POP SWAP3 SWAP2 POP POP JUMP JUMPDEST PUSH1 0x0 DUP2 SWAP1 POP PUSH1 0x20 DUP3 ADD SWAP1 POP SWAP2 SWAP1 POP JUMP JUMPDEST PUSH32 0x4E487B7100000000000000000000000000000000000000000000000000000000 PUSH1 0x0 MSTORE PUSH1 0x21 PUSH1 0x4 MSTORE PUSH1 0x24 PUSH1 0x0 REVERT JUMPDEST PUSH1 0x5 DUP2 LT PUSH2 0x1B5E JUMPI PUSH2 0x1B5D PUSH2 0x1B1E JUMP JUMPDEST JUMPDEST POP JUMP JUMPDEST PUSH1 0x0 DUP2 SWAP1 POP PUSH2 0x1B6F DUP3 PUSH2 0x1B4D JUMP JUMPDEST SWAP2 SWAP1 POP JUMP JUMPDEST PUSH1 0x0 PUSH2 0x1B7F DUP3 PUSH2 0x1B61 JUMP JUMPDEST SWAP1 POP SWAP2 SWAP1 POP JUMP JUMPDEST PUSH2 0x1B8F DUP2 PUSH2 0x1B74 JUMP JUMPDEST DUP3 MSTORE POP POP JUMP JUMPDEST PUSH2 0x1B9E DUP2 PUSH2 0x1A1F JUMP JUMPDEST DUP3 MSTORE POP POP JUMP JUMPDEST PUSH2 0x1BAD DUP2 PUSH2 0x1A87 JUMP JUMPDEST DUP3 MSTORE POP POP JUMP JUMPDEST PUSH1 0x0 DUP2 MLOAD SWAP1 POP SWAP2 SWAP1 POP JUMP JUMPDEST PUSH1 0x0 DUP3 DUP3 MSTORE PUSH1 0x20 DUP3 ADD SWAP1 POP SWAP3 SWAP2 POP POP JUMP JUMPDEST PUSH1 0x0 JUMPDEST DUP4 DUP2 LT ISZERO PUSH2 0x1BED JUMPI DUP1 DUP3 ADD MLOAD DUP2 DUP5 ADD MSTORE PUSH1 0x20 DUP2 ADD SWAP1 POP PUSH2 0x1BD2 JUMP JUMPDEST PUSH1 0x0 DUP5 DUP5 ADD MSTORE POP POP POP POP JUMP JUMPDEST PUSH1 0x0 PUSH1 0x1F NOT PUSH1 0x1F DUP4 ADD AND SWAP1 POP SWAP2 SWAP1 POP JUMP JUMPDEST PUSH1 0x0 PUSH2 0x1C15 DUP3 PUSH2 0x1BB3 JUMP JUMPDEST PUSH2 0x1C1F DUP2 DUP6 PUSH2 0x1BBE JUMP JUMPDEST SWAP4 POP PUSH2 0x1C2F DUP2 DUP6 PUSH1 0x20 DUP7 ADD PUSH2 0x1BCF JUMP JUMPDEST PUSH2 0x1C38 DUP2 PUSH2 0x1BF9 JUMP JUMPDEST DUP5 ADD SWAP2 POP POP SWAP3 SWAP2 POP POP JUMP JUMPDEST PUSH1 0x0 DUP2 ISZERO ISZERO SWAP1 POP SWAP2 SWAP1 POP JUMP JUMPDEST PUSH2 0x1C58 DUP2 PUSH2 0x1C43 JUMP JUMPDEST DUP3 MSTORE POP POP JUMP JUMPDEST PUSH1 0x0 PUSH1 0xE0 DUP4 ADD PUSH1 0x0 DUP4 ADD MLOAD PUSH2 0x1C76 PUSH1 0x0 DUP7 ADD DUP3 PUSH2 0x1B86 JUMP JUMPDEST POP PUSH1 0x20 DUP4 ADD MLOAD PUSH2 0x1C89 PUSH1 0x20 DUP7 ADD DUP3 PUSH2 0x1B95 JUMP JUMPDEST POP PUSH1 0x40 DUP4 ADD MLOAD PUSH2 0x1C9C PUSH1 0x40 DUP7 ADD DUP3 PUSH2 0x1BA4 JUMP JUMPDEST POP PUSH1 0x60 DUP4 ADD MLOAD DUP5 DUP3 SUB PUSH1 0x60 DUP7 ADD MSTORE PUSH2 0x1CB4 DUP3 DUP3 PUSH2 0x1C0A JUMP JUMPDEST SWAP2 POP POP PUSH1 0x80 DUP4 ADD MLOAD PUSH2 0x1CC9 PUSH1 0x80 DUP7 ADD DUP3 PUSH2 0x1C4F JUMP JUMPDEST POP PUSH1 0xA0 DUP4 ADD MLOAD PUSH2 0x1CDC PUSH1 0xA0 DUP7 ADD DUP3 PUSH2 0x1BA4 JUMP JUMPDEST POP PUSH1 0xC0 DUP4 ADD MLOAD PUSH2 0x1CEF PUSH1 0xC0 DUP7 ADD DUP3 PUSH2 0x1B95 JUMP JUMPDEST POP DUP1 SWAP2 POP POP SWAP3 SWAP2 POP POP JUMP JUMPDEST PUSH1 0x0 PUSH2 0x1D06 DUP4 DUP4 PUSH2 0x1C5E JUMP JUMPDEST SWAP1 POP SWAP3 SWAP2 POP POP JUMP JUMPDEST PUSH1 0x0 PUSH1 0x20 DUP3 ADD SWAP1 POP SWAP2 SWAP1 POP JUMP JUMPDEST PUSH1 0x0 PUSH2 0x1D26 DUP3 PUSH2 0x1AF2 JUMP JUMPDEST PUSH2 0x1D30 DUP2 DUP6 PUSH2 0x1AFD JUMP JUMPDEST SWAP4 POP DUP4 PUSH1 0x20 DUP3 MUL DUP6 ADD PUSH2 0x1D42 DUP6 PUSH2 0x1B0E JUMP JUMPDEST DUP1 PUSH1 0x0 JUMPDEST DUP6 DUP2 LT ISZERO PUSH2 0x1D7E JUMPI DUP5 DUP5 SUB DUP10 MSTORE DUP2 MLOAD PUSH2 0x1D5F DUP6 DUP3 PUSH2 0x1CFA JUMP JUMPDEST SWAP5 POP PUSH2 0x1D6A DUP4 PUSH2 0x1D0E JUMP JUMPDEST SWAP3 POP PUSH1 0x20 DUP11 ADD SWAP10 POP POP PUSH1 0x1 DUP2 ADD SWAP1 POP PUSH2 0x1D46 JUMP JUMPDEST POP DUP3 SWAP8 POP DUP8 SWAP6 POP POP POP POP POP POP SWAP3 SWAP2 POP POP JUMP JUMPDEST PUSH1 0x0 PUSH1 0x20 DUP3 ADD SWAP1 POP DUP2 DUP2 SUB PUSH1 0x0 DUP4 ADD MSTORE PUSH2 0x1DAA DUP2 DUP5 PUSH2 0x1D1B JUMP JUMPDEST SWAP1 POP SWAP3 SWAP2 POP POP JUMP JUMPDEST PUSH2 0x1DBB DUP2 PUSH2 0x1A1F JUMP JUMPDEST DUP2 EQ PUSH2 0x1DC6 JUMPI PUSH1 0x0 DUP1 REVERT JUMPDEST POP JUMP JUMPDEST PUSH1 0x0 DUP2 CALLDATALOAD SWAP1 POP PUSH2 0x1DD8 DUP2 PUSH2 0x1DB2 JUMP JUMPDEST SWAP3 SWAP2 POP POP JUMP JUMPDEST PUSH1 0x0 DUP1 PUSH1 0x40 DUP4 DUP6 SUB SLT ISZERO PUSH2 0x1DF5 JUMPI PUSH2 0x1DF4 PUSH2 0x1A5D JUMP JUMPDEST JUMPDEST PUSH1 0x0 PUSH2 0x1E03 DUP6 DUP3 DUP7 ADD PUSH2 0x1AB0 JUMP JUMPDEST SWAP3 POP POP PUSH1 0x20 PUSH2 0x1E14 DUP6 DUP3 DUP7 ADD PUSH2 0x1DC9 JUMP JUMPDEST SWAP2 POP POP SWAP3 POP SWAP3 SWAP1 POP JUMP JUMPDEST PUSH1 0x0 DUP1 REVERT JUMPDEST PUSH32 0x4E487B7100000000000000000000000000000000000000000000000000000000 PUSH1 0x0 MSTORE PUSH1 0x41 PUSH1 0x4 MSTORE PUSH1 0x24 PUSH1 0x0 REVERT JUMPDEST PUSH2 0x1E5B DUP3 PUSH2 0x1BF9 JUMP JUMPDEST DUP2 ADD DUP2 DUP2 LT PUSH8 0xFFFFFFFFFFFFFFFF DUP3 GT OR ISZERO PUSH2 0x1E7A JUMPI PUSH2 0x1E79 PUSH2 0x1E23 JUMP JUMPDEST JUMPDEST DUP1 PUSH1 0x40 MSTORE POP POP POP JUMP JUMPDEST PUSH1 0x0 PUSH2 0x1E8D PUSH2 0x1A53 JUMP JUMPDEST SWAP1 POP PUSH2 0x1E99 DUP3 DUP3 PUSH2 0x1E52 JUMP JUMPDEST SWAP2 SWAP1 POP JUMP JUMPDEST PUSH1 0x0 PUSH1 0x60 DUP3 DUP5 SUB SLT ISZERO PUSH2 0x1EB4 JUMPI PUSH2 0x1EB3 PUSH2 0x1E1E JUMP JUMPDEST JUMPDEST PUSH2 0x1EBE PUSH1 0x60 PUSH2 0x1E83 JUMP JUMPDEST SWAP1 POP PUSH1 0x0 PUSH2 0x1ECE DUP5 DUP3 DUP6 ADD PUSH2 0x1DC9 JUMP JUMPDEST PUSH1 0x0 DUP4 ADD MSTORE POP PUSH1 0x20 PUSH2 0x1EE2 DUP5 DUP3 DUP6 ADD PUSH2 0x1DC9 JUMP JUMPDEST PUSH1 0x20 DUP4 ADD MSTORE POP PUSH1 0x40 PUSH2 0x1EF6 DUP5 DUP3 DUP6 ADD PUSH2 0x1DC9 JUMP JUMPDEST PUSH1 0x40 DUP4 ADD MSTORE POP SWAP3 SWAP2 POP POP JUMP JUMPDEST PUSH1 0x0 DUP1 PUSH1 0x0 PUSH1 0xA0 DUP5 DUP7 SUB SLT ISZERO PUSH2 0x1F1B JUMPI PUSH2 0x1F1A PUSH2 0x1A5D JUMP JUMPDEST JUMPDEST PUSH1 0x0 PUSH2 0x1F29 DUP7 DUP3 DUP8 ADD PUSH2 0x1AB0 JUMP JUMPDEST SWAP4 POP POP PUSH1 0x20 PUSH2 0x1F3A DUP7 DUP3 DUP8 ADD PUSH2 0x1DC9 JUMP JUMPDEST SWAP3 POP POP PUSH1 0x40 PUSH2 0x1F4B DUP7 DUP3 DUP8 ADD PUSH2 0x1E9E JUMP JUMPDEST SWAP2 POP POP SWAP3 POP SWAP3 POP SWAP3 JUMP JUMPDEST PUSH1 0x5 DUP2 LT PUSH2 0x1F62 JUMPI PUSH1 0x0 DUP1 REVERT JUMPDEST POP JUMP JUMPDEST PUSH1 0x0 DUP2 CALLDATALOAD SWAP1 POP PUSH2 0x1F74 DUP2 PUSH2 0x1F55 JUMP JUMPDEST SWAP3 SWAP2 POP POP JUMP JUMPDEST PUSH1 0x0 DUP1 PUSH1 0x0 DUP1 PUSH1 0x80 DUP6 DUP8 SUB SLT ISZERO PUSH2 0x1F94 JUMPI PUSH2 0x1F93 PUSH2 0x1A5D JUMP JUMPDEST JUMPDEST PUSH1 0x0 PUSH2 0x1FA2 DUP8 DUP3 DUP9 ADD PUSH2 0x1AB0 JUMP JUMPDEST SWAP5 POP POP PUSH1 0x20 PUSH2 0x1FB3 DUP8 DUP3 DUP9 ADD PUSH2 0x1DC9 JUMP JUMPDEST SWAP4 POP POP PUSH1 0x40 PUSH2 0x1FC4 DUP8 DUP3 DUP9 ADD PUSH2 0x1DC9 JUMP JUMPDEST SWAP3 POP POP PUSH1 0x60 PUSH2 0x1FD5 DUP8 DUP3 DUP9 ADD PUSH2 0x1F65 JUMP JUMPDEST SWAP2 POP POP SWAP3 SWAP6 SWAP2 SWAP5 POP SWAP3 POP JUMP JUMPDEST PUSH1 0x0 DUP1 REVERT JUMPDEST PUSH1 0x0 DUP1 REVERT JUMPDEST PUSH1 0x0 DUP1 REVERT JUMPDEST PUSH1 0x0 DUP1 DUP4 PUSH1 0x1F DUP5 ADD SLT PUSH2 0x2006 JUMPI PUSH2 0x2005 PUSH2 0x1FE1 JUMP JUMPDEST JUMPDEST DUP3 CALLDATALOAD SWAP1 POP PUSH8 0xFFFFFFFFFFFFFFFF DUP2 GT ISZERO PUSH2 0x2023 JUMPI PUSH2 0x2022 PUSH2 0x1FE6 JUMP JUMPDEST JUMPDEST PUSH1 0x20 DUP4 ADD SWAP2 POP DUP4 PUSH1 0x1 DUP3 MUL DUP4 ADD GT ISZERO PUSH2 0x203F JUMPI PUSH2 0x203E PUSH2 0x1FEB JUMP JUMPDEST JUMPDEST SWAP3 POP SWAP3 SWAP1 POP JUMP JUMPDEST PUSH1 0x0 DUP1 PUSH1 0x0 DUP1 PUSH1 0x60 DUP6 DUP8 SUB SLT ISZERO PUSH2 0x2060 JUMPI PUSH2 0x205F PUSH2 0x1A5D JUMP JUMPDEST JUMPDEST PUSH1 0x0 PUSH2 0x206E DUP8 DUP3 DUP9 ADD PUSH2 0x1AB0 JUMP JUMPDEST SWAP5 POP POP PUSH1 0x20 PUSH2 0x207F DUP8 DUP3 DUP9 ADD PUSH2 0x1DC9 JUMP JUMPDEST SWAP4 POP POP PUSH1 0x40 DUP6 ADD CALLDATALOAD PUSH8 0xFFFFFFFFFFFFFFFF DUP2 GT ISZERO PUSH2 0x20A0 JUMPI PUSH2 0x209F PUSH2 0x1A62 JUMP JUMPDEST JUMPDEST PUSH2 0x20AC DUP8 DUP3 DUP9 ADD PUSH2 0x1FF0 JUMP JUMPDEST SWAP3 POP SWAP3 POP POP SWAP3 SWAP6 SWAP2 SWAP5 POP SWAP3 POP JUMP JUMPDEST PUSH1 0x0 PUSH1 0x60 DUP3 ADD SWAP1 POP PUSH2 0x20CF PUSH1 0x0 DUP4 ADD DUP7 PUSH2 0x1A29 JUMP JUMPDEST PUSH2 0x20DC PUSH1 0x20 DUP4 ADD DUP6 PUSH2 0x1A29 JUMP JUMPDEST PUSH2 0x20E9 PUSH1 0x40 DUP4 ADD DUP5 PUSH2 0x1A29 JUMP JUMPDEST SWAP5 SWAP4 POP POP POP POP JUMP JUMPDEST PUSH2 0x20FA DUP2 PUSH2 0x1A87 JUMP JUMPDEST DUP3 MSTORE POP POP JUMP JUMPDEST PUSH1 0x0 PUSH1 0x20 DUP3 ADD SWAP1 POP PUSH2 0x2115 PUSH1 0x0 DUP4 ADD DUP5 PUSH2 0x20F1 JUMP JUMPDEST SWAP3 SWAP2 POP POP JUMP JUMPDEST PUSH2 0x2124 DUP2 PUSH2 0x1C43 JUMP JUMPDEST DUP2 EQ PUSH2 0x212F JUMPI PUSH1 0x0 DUP1 REVERT JUMPDEST POP JUMP JUMPDEST PUSH1 0x0 DUP2 CALLDATALOAD SWAP1 POP PUSH2 0x2141 DUP2 PUSH2 0x211B JUMP JUMPDEST SWAP3 SWAP2 POP POP JUMP JUMPDEST PUSH1 0x0 DUP1 PUSH1 0x40 DUP4 DUP6 SUB SLT ISZERO PUSH2 0x215E JUMPI PUSH2 0x215D PUSH2 0x1A5D JUMP JUMPDEST JUMPDEST PUSH1 0x0 PUSH2 0x216C DUP6 DUP3 DUP7 ADD PUSH2 0x1AB0 JUMP JUMPDEST SWAP3 POP POP PUSH1 0x20 PUSH2 0x217D DUP6 DUP3 DUP7 ADD PUSH2 0x2132 JUMP JUMPDEST SWAP2 POP POP SWAP3 POP SWAP3 SWAP1 POP JUMP JUMPDEST PUSH2 0x2190 DUP2 PUSH2 0x1C43 JUMP JUMPDEST DUP3 MSTORE POP POP JUMP JUMPDEST PUSH1 0x0 PUSH1 0x20 DUP3 ADD SWAP1 POP PUSH2 0x21AB PUSH1 0x0 DUP4 ADD DUP5 PUSH2 0x2187 JUMP JUMPDEST SWAP3 SWAP2 POP POP JUMP JUMPDEST PUSH1 0x0 PUSH1 0x20 DUP3 DUP5 SUB SLT ISZERO PUSH2 0x21C7 JUMPI PUSH2 0x21C6 PUSH2 0x1A5D JUMP JUMPDEST JUMPDEST PUSH1 0x0 PUSH2 0x21D5 DUP5 DUP3 DUP6 ADD PUSH2 0x1DC9 JUMP JUMPDEST SWAP2 POP POP SWAP3 SWAP2 POP POP JUMP JUMPDEST PUSH1 0x0 PUSH1 0x80 DUP3 ADD SWAP1 POP PUSH2 0x21F3 PUSH1 0x0 DUP4 ADD DUP8 PUSH2 0x1A29 JUMP JUMPDEST PUSH2 0x2200 PUSH1 0x20 DUP4 ADD DUP7 PUSH2 0x20F1 JUMP JUMPDEST PUSH2 0x220D PUSH1 0x40 DUP4 ADD DUP6 PUSH2 0x1A29 JUMP JUMPDEST PUSH2 0x221A PUSH1 0x60 DUP4 ADD DUP5 PUSH2 0x2187 JUMP JUMPDEST SWAP6 SWAP5 POP POP POP POP POP JUMP JUMPDEST PUSH32 0x4E487B7100000000000000000000000000000000000000000000000000000000 PUSH1 0x0 MSTORE PUSH1 0x22 PUSH1 0x4 MSTORE PUSH1 0x24 PUSH1 0x0 REVERT JUMPDEST PUSH1 0x0 PUSH1 0x2 DUP3 DIV SWAP1 POP PUSH1 0x1 DUP3 AND DUP1 PUSH2 0x226A JUMPI PUSH1 0x7F DUP3 AND SWAP2 POP JUMPDEST PUSH1 0x20 DUP3 LT DUP2 SUB PUSH2 0x227D JUMPI PUSH2 0x227C PUSH2 0x2223 JUMP JUMPDEST JUMPDEST POP SWAP2 SWAP1 POP JUMP JUMPDEST PUSH1 0x0 PUSH1 0x40 DUP3 ADD SWAP1 POP PUSH2 0x2298 PUSH1 0x0 DUP4 ADD DUP6 PUSH2 0x20F1 JUMP JUMPDEST PUSH2 0x22A5 PUSH1 0x20 DUP4 ADD DUP5 PUSH2 0x1A29 JUMP JUMPDEST SWAP4 SWAP3 POP POP POP JUMP JUMPDEST PUSH1 0x0 PUSH1 0x40 DUP3 ADD SWAP1 POP PUSH2 0x22C1 PUSH1 0x0 DUP4 ADD DUP6 PUSH2 0x1A29 JUMP JUMPDEST PUSH2 0x22CE PUSH1 0x20 DUP4 ADD DUP5 PUSH2 0x1A29 JUMP JUMPDEST SWAP4 SWAP3 POP POP POP JUMP JUMPDEST PUSH32 0x4E487B7100000000000000000000000000000000000000000000000000000000 PUSH1 0x0 MSTORE PUSH1 0x11 PUSH1 0x4 MSTORE PUSH1 0x24 PUSH1 0x0 REVERT JUMPDEST PUSH1 0x0 PUSH2 0x230F DUP3 PUSH2 0x1A1F JUMP JUMPDEST SWAP2 POP PUSH2 0x231A DUP4 PUSH2 0x1A1F JUMP JUMPDEST SWAP3 POP DUP3 DUP3 SUB SWAP1 POP DUP2 DUP2 GT ISZERO PUSH2 0x2332 JUMPI PUSH2 0x2331 PUSH2 0x22D5 JUMP JUMPDEST JUMPDEST SWAP3 SWAP2 POP POP JUMP JUMPDEST PUSH1 0x0 PUSH2 0x2343 DUP3 PUSH2 0x1A1F JUMP JUMPDEST SWAP2 POP PUSH2 0x234E DUP4 PUSH2 0x1A1F JUMP JUMPDEST SWAP3 POP DUP3 DUP3 ADD SWAP1 POP DUP1 DUP3 GT ISZERO PUSH2 0x2366 JUMPI PUSH2 0x2365 PUSH2 0x22D5 JUMP JUMPDEST JUMPDEST SWAP3 SWAP2 POP POP JUMP JUMPDEST PUSH32 0x4E487B7100000000000000000000000000000000000000000000000000000000 PUSH1 0x0 MSTORE PUSH1 0x32 PUSH1 0x4 MSTORE PUSH1 0x24 PUSH1 0x0 REVERT JUMPDEST PUSH1 0x0 DUP3 DUP3 MSTORE PUSH1 0x20 DUP3 ADD SWAP1 POP SWAP3 SWAP2 POP POP JUMP JUMPDEST PUSH1 0x0 DUP2 SWAP1 POP DUP2 PUSH1 0x0 MSTORE PUSH1 0x20 PUSH1 0x0 KECCAK256 SWAP1 POP SWAP2 SWAP1 POP JUMP JUMPDEST PUSH1 0x0 DUP2 SLOAD PUSH2 0x23CE DUP2 PUSH2 0x2252 JUMP JUMPDEST PUSH2 0x23D8 DUP2 DUP7 PUSH2 0x239B JUMP JUMPDEST SWAP5 POP PUSH1 0x1 DUP3 AND PUSH1 0x0 DUP2 EQ PUSH2 0x23F3 JUMPI PUSH1 0x1 DUP2 EQ PUSH2 0x2409 JUMPI PUSH2 0x243C JUMP JUMPDEST PUSH1 0xFF NOT DUP4 AND DUP7 MSTORE DUP2 ISZERO ISZERO PUSH1 0x20 MUL DUP7 ADD SWAP4 POP PUSH2 0x243C JUMP JUMPDEST PUSH2 0x2412 DUP6 PUSH2 0x23AC JUMP JUMPDEST PUSH1 0x0 JUMPDEST DUP4 DUP2 LT ISZERO PUSH2 0x2434 JUMPI DUP2 SLOAD DUP2 DUP10 ADD MSTORE PUSH1 0x1 DUP3 ADD SWAP2 POP PUSH1 0x20 DUP2 ADD SWAP1 POP PUSH2 0x2415 JUMP JUMPDEST DUP1 DUP9 ADD SWAP6 POP POP POP JUMPDEST POP POP POP SWAP3 SWAP2 POP POP JUMP JUMPDEST PUSH1 0x0 PUSH1 0x80 DUP3 ADD SWAP1 POP PUSH2 0x245A PUSH1 0x0 DUP4 ADD DUP8 PUSH2 0x20F1 JUMP JUMPDEST PUSH2 0x2467 PUSH1 0x20 DUP4 ADD DUP7 PUSH2 0x1A29 JUMP JUMPDEST PUSH2 0x2474 PUSH1 0x40 DUP4 ADD DUP6 PUSH2 0x1A29 JUMP JUMPDEST DUP2 DUP2 SUB PUSH1 0x60 DUP4 ADD MSTORE PUSH2 0x2486 DUP2 DUP5 PUSH2 0x23C1 JUMP JUMPDEST SWAP1 POP SWAP6 SWAP5 POP POP POP POP POP JUMP JUMPDEST PUSH1 0x0 PUSH2 0x249C DUP3 PUSH2 0x1A1F JUMP JUMPDEST SWAP2 POP PUSH32 0xFFFFFFFFFFFFFFFFFFFFFFFFFFFFFFFFFFFFFFFFFFFFFFFFFFFFFFFFFFFFFFFF DUP3 SUB PUSH2 0x24CE JUMPI PUSH2 0x24CD PUSH2 0x22D5 JUMP JUMPDEST JUMPDEST PUSH1 0x1 DUP3 ADD SWAP1 POP SWAP2 SWAP1 POP JUMP JUMPDEST PUSH1 0x0 PUSH1 0x20 PUSH1 0x1F DUP4 ADD DIV SWAP1 POP SWAP2 SWAP1 POP JUMP JUMPDEST PUSH1 0x0 DUP3 DUP3 SHL SWAP1 POP SWAP3 SWAP2 POP POP JUMP JUMPDEST PUSH1 0x0 PUSH1 0x8 DUP4 MUL PUSH2 0x2526 PUSH32 0xFFFFFFFFFFFFFFFFFFFFFFFFFFFFFFFFFFFFFFFFFFFFFFFFFFFFFFFFFFFFFFFF DUP3 PUSH2 0x24E9 JUMP JUMPDEST PUSH2 0x2530 DUP7 DUP4 PUSH2 0x24E9 JUMP JUMPDEST SWAP6 POP DUP1 NOT DUP5 AND SWAP4 POP DUP1 DUP7 AND DUP5 OR SWAP3 POP POP POP SWAP4 SWAP3 POP POP POP JUMP JUMPDEST PUSH1 0x0 DUP2 SWAP1 POP SWAP2 SWAP1 POP JUMP JUMPDEST PUSH1 0x0 PUSH2 0x256D PUSH2 0x2568 PUSH2 0x2563 DUP5 PUSH2 0x1A1F JUMP JUMPDEST PUSH2 0x2548 JUMP JUMPDEST PUSH2 0x1A1F JUMP JUMPDEST SWAP1 POP SWAP2 SWAP1 POP JUMP JUMPDEST PUSH1 0x0 DUP2 SWAP1 POP SWAP2 SWAP1 POP JUMP JUMPDEST PUSH2 0x2587 DUP4 PUSH2 0x2552 JUMP JUMPDEST PUSH2 0x259B PUSH2 0x2593 DUP3 PUSH2 0x2574 JUMP JUMPDEST DUP5 DUP5 SLOAD PUSH2 0x24F6 JUMP JUMPDEST DUP3 SSTORE POP POP POP POP JUMP JUMPDEST PUSH1 0x0 SWAP1 JUMP JUMPDEST PUSH2 0x25B0 PUSH2 0x25A3 JUMP JUMPDEST PUSH2 0x25BB DUP2 DUP5 DUP5 PUSH2 0x257E JUMP JUMPDEST POP POP POP JUMP JUMPDEST JUMPDEST DUP2 DUP2 LT ISZERO PUSH2 0x25DF JUMPI PUSH2 0x25D4 PUSH1 0x0 DUP3 PUSH2 0x25A8 JUMP JUMPDEST PUSH1 0x1 DUP2 ADD SWAP1 POP PUSH2 0x25C1 JUMP JUMPDEST POP POP JUMP JUMPDEST PUSH1 0x1F DUP3 GT ISZERO PUSH2 0x2624 JUMPI PUSH2 0x25F5 DUP2 PUSH2 0x23AC JUMP JUMPDEST PUSH2 0x25FE DUP5 PUSH2 0x24D9 JUMP JUMPDEST DUP2 ADD PUSH1 0x20 DUP6 LT ISZERO PUSH2 0x260D JUMPI DUP2 SWAP1 POP JUMPDEST PUSH2 0x2621 PUSH2 0x2619 DUP6 PUSH2 0x24D9 JUMP JUMPDEST DUP4 ADD DUP3 PUSH2 0x25C0 JUMP JUMPDEST POP POP JUMPDEST POP POP POP JUMP JUMPDEST PUSH1 0x0 DUP3 DUP3 SHR SWAP1 POP SWAP3 SWAP2 POP POP JUMP JUMPDEST PUSH1 0x0 PUSH2 0x2647 PUSH1 0x0 NOT DUP5 PUSH1 0x8 MUL PUSH2 0x2629 JUMP JUMPDEST NOT DUP1 DUP4 AND SWAP2 POP POP SWAP3 SWAP2 POP POP JUMP JUMPDEST PUSH1 0x0 PUSH2 0x2660 DUP4 DUP4 PUSH2 0x2636 JUMP JUMPDEST SWAP2 POP DUP3 PUSH1 0x2 MUL DUP3 OR SWAP1 POP SWAP3 SWAP2 POP POP JUMP JUMPDEST PUSH2 0x2679 DUP3 PUSH2 0x1BB3 JUMP JUMPDEST PUSH8 0xFFFFFFFFFFFFFFFF DUP2 GT ISZERO PUSH2 0x2692 JUMPI PUSH2 0x2691 PUSH2 0x1E23 JUMP JUMPDEST JUMPDEST PUSH2 0x269C DUP3 SLOAD PUSH2 0x2252 JUMP JUMPDEST PUSH2 0x26A7 DUP3 DUP3 DUP6 PUSH2 0x25E3 JUMP JUMPDEST PUSH1 0x0 PUSH1 0x20 SWAP1 POP PUSH1 0x1F DUP4 GT PUSH1 0x1 DUP2 EQ PUSH2 0x26DA JUMPI PUSH1 0x0 DUP5 ISZERO PUSH2 0x26C8 JUMPI DUP3 DUP8 ADD MLOAD SWAP1 POP JUMPDEST PUSH2 0x26D2 DUP6 DUP3 PUSH2 0x2654 JUMP JUMPDEST DUP7 SSTORE POP PUSH2 0x273A JUMP JUMPDEST PUSH1 0x1F NOT DUP5 AND PUSH2 0x26E8 DUP7 PUSH2 0x23AC JUMP JUMPDEST PUSH1 0x0 JUMPDEST DUP3 DUP2 LT ISZERO PUSH2 0x2710 JUMPI DUP5 DUP10 ADD MLOAD DUP3 SSTORE PUSH1 0x1 DUP3 ADD SWAP2 POP PUSH1 0x20 DUP6 ADD SWAP5 POP PUSH1 0x20 DUP2 ADD SWAP1 POP PUSH2 0x26EB JUMP JUMPDEST DUP7 DUP4 LT ISZERO PUSH2 0x272D JUMPI DUP5 DUP10 ADD MLOAD PUSH2 0x2729 PUSH1 0x1F DUP10 AND DUP3 PUSH2 0x2636 JUMP JUMPDEST DUP4 SSTORE POP JUMPDEST PUSH1 0x1 PUSH1 0x2 DUP9 MUL ADD DUP9 SSTORE POP POP POP JUMPDEST POP POP POP POP POP POP JUMP JUMPDEST PUSH32 0x4F776E61626C653A206E6577206F776E657220697320746865207A65726F2061 PUSH1 0x0 DUP3 ADD MSTORE PUSH32 0x6464726573730000000000000000000000000000000000000000000000000000 PUSH1 0x20 DUP3 ADD MSTORE POP JUMP JUMPDEST PUSH1 0x0 PUSH2 0x279E PUSH1 0x26 DUP4 PUSH2 0x239B JUMP JUMPDEST SWAP2 POP PUSH2 0x27A9 DUP3 PUSH2 0x2742 JUMP JUMPDEST PUSH1 0x40 DUP3 ADD SWAP1 POP SWAP2 SWAP1 POP JUMP JUMPDEST PUSH1 0x0 PUSH1 0x20 DUP3 ADD SWAP1 POP DUP2 DUP2 SUB PUSH1 0x0 DUP4 ADD MSTORE PUSH2 0x27CD DUP2 PUSH2 0x2791 JUMP JUMPDEST SWAP1 POP SWAP2 SWAP1 POP JUMP JUMPDEST PUSH32 0x4F776E61626C653A2063616C6C6572206973206E6F7420746865206F776E6572 PUSH1 0x0 DUP3 ADD MSTORE POP JUMP JUMPDEST PUSH1 0x0 PUSH2 0x280A PUSH1 0x20 DUP4 PUSH2 0x239B JUMP JUMPDEST SWAP2 POP PUSH2 0x2815 DUP3 PUSH2 0x27D4 JUMP JUMPDEST PUSH1 0x20 DUP3 ADD SWAP1 POP SWAP2 SWAP1 POP JUMP JUMPDEST PUSH1 0x0 PUSH1 0x20 DUP3 ADD SWAP1 POP DUP2 DUP2 SUB PUSH1 0x0 DUP4 ADD MSTORE PUSH2 0x2839 DUP2 PUSH2 0x27FD JUMP JUMPDEST SWAP1 POP SWAP2 SWAP1 POP JUMP INVALID LOG2 PUSH5 0x6970667358 0x22 SLT KECCAK256 0xAD SELFBALANCE DUP4 KECCAK256 0xBB 0xB2 0x49 SWAP3 EXP 0xE6 CALL JUMP 0x28 0x2F SHL 0xE8 BYTE 0xF6 EXTCODECOPY SWAP5 0xCB DUP12 0xC5 SUB 0xCD MOD CODECOPY DUP5 CALLER 0xB0 0xEC PUSH31 0x64736F6C634300081100330000000000000000000000000000000000000000 "
				},
				"gasEstimates": {
					"creation": {
						"codeDepositCost": "2071600",
						"executionCost": "infinite",
						"totalCost": "infinite"
					},
					"external": {
						"addHistory(address,bool)": "118115",
						"addToWhitelist(address,uint256)": "infinite",
						"administrators(uint256)": "2915",
						"balanceOf(address)": "2908",
						"checkForAdmin(address)": "infinite",
						"contractOwner()": "2602",
						"dividendFlag()": "2540",
						"getPayments(address)": "infinite",
						"getTradingMode()": "4718",
						"owner()": "2567",
						"paymentCounter()": "2452",
						"paymentHistory(uint256)": "infinite",
						"renounceOwnership()": "30487",
						"totalSupply()": "2453",
						"tradeFlag()": "2495",
						"transfer(address,uint256,string)": "infinite",
						"transferOwnership(address)": "30876",
						"updatePayment(address,uint256,uint256,uint8)": "infinite",
						"whiteListStruct(address)": "infinite",
						"whiteTransfer(address,uint256,(uint256,uint256,uint256))": "infinite",
						"whitelist(address)": "2925"
					}
				},
				"methodIdentifiers": {
					"addHistory(address,bool)": "8efcf5c0",
					"addToWhitelist(address,uint256)": "214405fc",
					"administrators(uint256)": "d89d1510",
					"balanceOf(address)": "70a08231",
					"checkForAdmin(address)": "b52d15e2",
					"contractOwner()": "ce606ee0",
					"dividendFlag()": "745b07c8",
					"getPayments(address)": "1d6a1711",
					"getTradingMode()": "9a9f8383",
					"owner()": "8da5cb5b",
					"paymentCounter()": "76840b60",
					"paymentHistory(uint256)": "a5e047b8",
					"renounceOwnership()": "715018a6",
					"totalSupply()": "18160ddd",
					"tradeFlag()": "c43982cc",
					"transfer(address,uint256,string)": "56b8c724",
					"transferOwnership(address)": "f2fde38b",
					"updatePayment(address,uint256,uint256,uint8)": "4e86eb16",
					"whiteListStruct(address)": "5de45813",
					"whiteTransfer(address,uint256,(uint256,uint256,uint256))": "27df565a",
					"whitelist(address)": "9b19251a"
				}
			},
			"storageLayout": {
				"storage": [
					{
						"astId": 778,
						"contract": "BLOCKCHAIN_GitHub/SOLIDITY/Projects/ETH_DENVER_BOOTCAMP/Homework_12/Exercises/Gas/contracts/GasOptimized.sol:GasContractOptimized",
						"label": "_owner",
						"offset": 0,
						"slot": "0",
						"type": "t_address"
					},
					{
						"astId": 7,
						"contract": "BLOCKCHAIN_GitHub/SOLIDITY/Projects/ETH_DENVER_BOOTCAMP/Homework_12/Exercises/Gas/contracts/GasOptimized.sol:GasContractOptimized",
						"label": "tradeFlag",
						"offset": 0,
						"slot": "1",
						"type": "t_uint256"
					},
					{
						"astId": 10,
						"contract": "BLOCKCHAIN_GitHub/SOLIDITY/Projects/ETH_DENVER_BOOTCAMP/Homework_12/Exercises/Gas/contracts/GasOptimized.sol:GasContractOptimized",
						"label": "dividendFlag",
						"offset": 0,
						"slot": "2",
						"type": "t_uint256"
					},
					{
						"astId": 13,
						"contract": "BLOCKCHAIN_GitHub/SOLIDITY/Projects/ETH_DENVER_BOOTCAMP/Homework_12/Exercises/Gas/contracts/GasOptimized.sol:GasContractOptimized",
						"label": "totalSupply",
						"offset": 0,
						"slot": "3",
						"type": "t_uint256"
					},
					{
						"astId": 16,
						"contract": "BLOCKCHAIN_GitHub/SOLIDITY/Projects/ETH_DENVER_BOOTCAMP/Homework_12/Exercises/Gas/contracts/GasOptimized.sol:GasContractOptimized",
						"label": "paymentCounter",
						"offset": 0,
						"slot": "4",
						"type": "t_uint256"
					},
					{
						"astId": 18,
						"contract": "BLOCKCHAIN_GitHub/SOLIDITY/Projects/ETH_DENVER_BOOTCAMP/Homework_12/Exercises/Gas/contracts/GasOptimized.sol:GasContractOptimized",
						"label": "contractOwner",
						"offset": 0,
						"slot": "5",
						"type": "t_address"
					},
					{
						"astId": 22,
						"contract": "BLOCKCHAIN_GitHub/SOLIDITY/Projects/ETH_DENVER_BOOTCAMP/Homework_12/Exercises/Gas/contracts/GasOptimized.sol:GasContractOptimized",
						"label": "administrators",
						"offset": 0,
						"slot": "6",
						"type": "t_array(t_address)5_storage"
					},
					{
						"astId": 26,
						"contract": "BLOCKCHAIN_GitHub/SOLIDITY/Projects/ETH_DENVER_BOOTCAMP/Homework_12/Exercises/Gas/contracts/GasOptimized.sol:GasContractOptimized",
						"label": "balances",
						"offset": 0,
						"slot": "11",
						"type": "t_mapping(t_address,t_uint256)"
					},
					{
						"astId": 30,
						"contract": "BLOCKCHAIN_GitHub/SOLIDITY/Projects/ETH_DENVER_BOOTCAMP/Homework_12/Exercises/Gas/contracts/GasOptimized.sol:GasContractOptimized",
						"label": "whitelist",
						"offset": 0,
						"slot": "12",
						"type": "t_mapping(t_address,t_uint256)"
					},
					{
						"astId": 42,
						"contract": "BLOCKCHAIN_GitHub/SOLIDITY/Projects/ETH_DENVER_BOOTCAMP/Homework_12/Exercises/Gas/contracts/GasOptimized.sol:GasContractOptimized",
						"label": "whiteListStruct",
						"offset": 0,
						"slot": "13",
						"type": "t_mapping(t_address,t_struct(ImportantStruct)37_storage)"
					},
					{
						"astId": 75,
						"contract": "BLOCKCHAIN_GitHub/SOLIDITY/Projects/ETH_DENVER_BOOTCAMP/Homework_12/Exercises/Gas/contracts/GasOptimized.sol:GasContractOptimized",
						"label": "payments",
						"offset": 0,
						"slot": "14",
						"type": "t_mapping(t_address,t_array(t_struct(Payment)69_storage)dyn_storage)"
					},
					{
						"astId": 88,
						"contract": "BLOCKCHAIN_GitHub/SOLIDITY/Projects/ETH_DENVER_BOOTCAMP/Homework_12/Exercises/Gas/contracts/GasOptimized.sol:GasContractOptimized",
						"label": "paymentHistory",
						"offset": 0,
						"slot": "15",
						"type": "t_array(t_struct(History)84_storage)dyn_storage"
					}
				],
				"types": {
					"t_address": {
						"encoding": "inplace",
						"label": "address",
						"numberOfBytes": "20"
					},
					"t_array(t_address)5_storage": {
						"base": "t_address",
						"encoding": "inplace",
						"label": "address[5]",
						"numberOfBytes": "160"
					},
					"t_array(t_struct(History)84_storage)dyn_storage": {
						"base": "t_struct(History)84_storage",
						"encoding": "dynamic_array",
						"label": "struct GasContractOptimized.History[]",
						"numberOfBytes": "32"
					},
					"t_array(t_struct(Payment)69_storage)dyn_storage": {
						"base": "t_struct(Payment)69_storage",
						"encoding": "dynamic_array",
						"label": "struct GasContractOptimized.Payment[]",
						"numberOfBytes": "32"
					},
					"t_bool": {
						"encoding": "inplace",
						"label": "bool",
						"numberOfBytes": "1"
					},
					"t_enum(PaymentType)48": {
						"encoding": "inplace",
						"label": "enum GasContractOptimized.PaymentType",
						"numberOfBytes": "1"
					},
					"t_mapping(t_address,t_array(t_struct(Payment)69_storage)dyn_storage)": {
						"encoding": "mapping",
						"key": "t_address",
						"label": "mapping(address => struct GasContractOptimized.Payment[])",
						"numberOfBytes": "32",
						"value": "t_array(t_struct(Payment)69_storage)dyn_storage"
					},
					"t_mapping(t_address,t_struct(ImportantStruct)37_storage)": {
						"encoding": "mapping",
						"key": "t_address",
						"label": "mapping(address => struct GasContractOptimized.ImportantStruct)",
						"numberOfBytes": "32",
						"value": "t_struct(ImportantStruct)37_storage"
					},
					"t_mapping(t_address,t_uint256)": {
						"encoding": "mapping",
						"key": "t_address",
						"label": "mapping(address => uint256)",
						"numberOfBytes": "32",
						"value": "t_uint256"
					},
					"t_string_storage": {
						"encoding": "bytes",
						"label": "string",
						"numberOfBytes": "32"
					},
					"t_struct(History)84_storage": {
						"encoding": "inplace",
						"label": "struct GasContractOptimized.History",
						"members": [
							{
								"astId": 77,
								"contract": "BLOCKCHAIN_GitHub/SOLIDITY/Projects/ETH_DENVER_BOOTCAMP/Homework_12/Exercises/Gas/contracts/GasOptimized.sol:GasContractOptimized",
								"label": "lastUpdate",
								"offset": 0,
								"slot": "0",
								"type": "t_uint256"
							},
							{
								"astId": 79,
								"contract": "BLOCKCHAIN_GitHub/SOLIDITY/Projects/ETH_DENVER_BOOTCAMP/Homework_12/Exercises/Gas/contracts/GasOptimized.sol:GasContractOptimized",
								"label": "updatedBy",
								"offset": 0,
								"slot": "1",
								"type": "t_address"
							},
							{
								"astId": 81,
								"contract": "BLOCKCHAIN_GitHub/SOLIDITY/Projects/ETH_DENVER_BOOTCAMP/Homework_12/Exercises/Gas/contracts/GasOptimized.sol:GasContractOptimized",
								"label": "blockNumber",
								"offset": 0,
								"slot": "2",
								"type": "t_uint256"
							},
							{
								"astId": 83,
								"contract": "BLOCKCHAIN_GitHub/SOLIDITY/Projects/ETH_DENVER_BOOTCAMP/Homework_12/Exercises/Gas/contracts/GasOptimized.sol:GasContractOptimized",
								"label": "trade",
								"offset": 0,
								"slot": "3",
								"type": "t_bool"
							}
						],
						"numberOfBytes": "128"
					},
					"t_struct(ImportantStruct)37_storage": {
						"encoding": "inplace",
						"label": "struct GasContractOptimized.ImportantStruct",
						"members": [
							{
								"astId": 32,
								"contract": "BLOCKCHAIN_GitHub/SOLIDITY/Projects/ETH_DENVER_BOOTCAMP/Homework_12/Exercises/Gas/contracts/GasOptimized.sol:GasContractOptimized",
								"label": "valueA",
								"offset": 0,
								"slot": "0",
								"type": "t_uint256"
							},
							{
								"astId": 34,
								"contract": "BLOCKCHAIN_GitHub/SOLIDITY/Projects/ETH_DENVER_BOOTCAMP/Homework_12/Exercises/Gas/contracts/GasOptimized.sol:GasContractOptimized",
								"label": "bigValue",
								"offset": 0,
								"slot": "1",
								"type": "t_uint256"
							},
							{
								"astId": 36,
								"contract": "BLOCKCHAIN_GitHub/SOLIDITY/Projects/ETH_DENVER_BOOTCAMP/Homework_12/Exercises/Gas/contracts/GasOptimized.sol:GasContractOptimized",
								"label": "valueB",
								"offset": 0,
								"slot": "2",
								"type": "t_uint256"
							}
						],
						"numberOfBytes": "96"
					},
					"t_struct(Payment)69_storage": {
						"encoding": "inplace",
						"label": "struct GasContractOptimized.Payment",
						"members": [
							{
								"astId": 56,
								"contract": "BLOCKCHAIN_GitHub/SOLIDITY/Projects/ETH_DENVER_BOOTCAMP/Homework_12/Exercises/Gas/contracts/GasOptimized.sol:GasContractOptimized",
								"label": "paymentType",
								"offset": 0,
								"slot": "0",
								"type": "t_enum(PaymentType)48"
							},
							{
								"astId": 58,
								"contract": "BLOCKCHAIN_GitHub/SOLIDITY/Projects/ETH_DENVER_BOOTCAMP/Homework_12/Exercises/Gas/contracts/GasOptimized.sol:GasContractOptimized",
								"label": "paymentID",
								"offset": 0,
								"slot": "1",
								"type": "t_uint256"
							},
							{
								"astId": 60,
								"contract": "BLOCKCHAIN_GitHub/SOLIDITY/Projects/ETH_DENVER_BOOTCAMP/Homework_12/Exercises/Gas/contracts/GasOptimized.sol:GasContractOptimized",
								"label": "recipient",
								"offset": 0,
								"slot": "2",
								"type": "t_address"
							},
							{
								"astId": 62,
								"contract": "BLOCKCHAIN_GitHub/SOLIDITY/Projects/ETH_DENVER_BOOTCAMP/Homework_12/Exercises/Gas/contracts/GasOptimized.sol:GasContractOptimized",
								"label": "recipientName",
								"offset": 0,
								"slot": "3",
								"type": "t_string_storage"
							},
							{
								"astId": 64,
								"contract": "BLOCKCHAIN_GitHub/SOLIDITY/Projects/ETH_DENVER_BOOTCAMP/Homework_12/Exercises/Gas/contracts/GasOptimized.sol:GasContractOptimized",
								"label": "adminUpdated",
								"offset": 0,
								"slot": "4",
								"type": "t_bool"
							},
							{
								"astId": 66,
								"contract": "BLOCKCHAIN_GitHub/SOLIDITY/Projects/ETH_DENVER_BOOTCAMP/Homework_12/Exercises/Gas/contracts/GasOptimized.sol:GasContractOptimized",
								"label": "admin",
								"offset": 1,
								"slot": "4",
								"type": "t_address"
							},
							{
								"astId": 68,
								"contract": "BLOCKCHAIN_GitHub/SOLIDITY/Projects/ETH_DENVER_BOOTCAMP/Homework_12/Exercises/Gas/contracts/GasOptimized.sol:GasContractOptimized",
								"label": "amount",
								"offset": 0,
								"slot": "5",
								"type": "t_uint256"
							}
						],
						"numberOfBytes": "192"
					},
					"t_uint256": {
						"encoding": "inplace",
						"label": "uint256",
						"numberOfBytes": "32"
					}
				}
			},
			"userdoc": {
				"kind": "user",
				"methods": {},
				"version": 1
			}
		}
	}
}