{
  "_format": "hh-sol-artifact-1",
  "contractName": "PersonInNeed",
  "sourceName": "contracts/PersonInNeed.sol",
  "abi": [
    {
      "inputs": [],
      "stateMutability": "nonpayable",
      "type": "constructor"
    },
    {
      "anonymous": false,
      "inputs": [
        {
          "indexed": true,
          "internalType": "address",
          "name": "owner",
          "type": "address"
        },
        {
          "indexed": true,
          "internalType": "address",
          "name": "approved",
          "type": "address"
        },
        {
          "indexed": true,
          "internalType": "uint256",
          "name": "tokenId",
          "type": "uint256"
        }
      ],
      "name": "Approval",
      "type": "event"
    },
    {
      "anonymous": false,
      "inputs": [
        {
          "indexed": true,
          "internalType": "address",
          "name": "owner",
          "type": "address"
        },
        {
          "indexed": true,
          "internalType": "address",
          "name": "operator",
          "type": "address"
        },
        {
          "indexed": false,
          "internalType": "bool",
          "name": "approved",
          "type": "bool"
        }
      ],
      "name": "ApprovalForAll",
      "type": "event"
    },
    {
      "anonymous": false,
      "inputs": [
        {
          "indexed": true,
          "internalType": "address",
          "name": "previousOwner",
          "type": "address"
        },
        {
          "indexed": true,
          "internalType": "address",
          "name": "newOwner",
          "type": "address"
        }
      ],
      "name": "OwnershipTransferred",
      "type": "event"
    },
    {
      "anonymous": false,
      "inputs": [
        {
          "indexed": false,
          "internalType": "address",
          "name": "account",
          "type": "address"
        }
      ],
      "name": "Paused",
      "type": "event"
    },
    {
      "anonymous": false,
      "inputs": [
        {
          "indexed": true,
          "internalType": "address",
          "name": "from",
          "type": "address"
        },
        {
          "indexed": true,
          "internalType": "address",
          "name": "to",
          "type": "address"
        },
        {
          "indexed": true,
          "internalType": "uint256",
          "name": "tokenId",
          "type": "uint256"
        }
      ],
      "name": "Transfer",
      "type": "event"
    },
    {
      "anonymous": false,
      "inputs": [
        {
          "indexed": false,
          "internalType": "address",
          "name": "account",
          "type": "address"
        }
      ],
      "name": "Unpaused",
      "type": "event"
    },
    {
      "inputs": [
        {
          "internalType": "address",
          "name": "to",
          "type": "address"
        },
        {
          "internalType": "uint256",
          "name": "tokenId",
          "type": "uint256"
        }
      ],
      "name": "approve",
      "outputs": [],
      "stateMutability": "nonpayable",
      "type": "function"
    },
    {
      "inputs": [
        {
          "internalType": "address",
          "name": "owner",
          "type": "address"
        }
      ],
      "name": "balanceOf",
      "outputs": [
        {
          "internalType": "uint256",
          "name": "",
          "type": "uint256"
        }
      ],
      "stateMutability": "view",
      "type": "function"
    },
    {
      "inputs": [
        {
          "internalType": "uint256",
          "name": "tokenId",
          "type": "uint256"
        }
      ],
      "name": "getApproved",
      "outputs": [
        {
          "internalType": "address",
          "name": "",
          "type": "address"
        }
      ],
      "stateMutability": "view",
      "type": "function"
    },
    {
      "inputs": [
        {
          "internalType": "address",
          "name": "owner",
          "type": "address"
        },
        {
          "internalType": "address",
          "name": "operator",
          "type": "address"
        }
      ],
      "name": "isApprovedForAll",
      "outputs": [
        {
          "internalType": "bool",
          "name": "",
          "type": "bool"
        }
      ],
      "stateMutability": "view",
      "type": "function"
    },
    {
      "inputs": [
        {
          "internalType": "address",
          "name": "to",
          "type": "address"
        }
      ],
      "name": "mintNFT",
      "outputs": [
        {
          "internalType": "uint256",
          "name": "",
          "type": "uint256"
        }
      ],
      "stateMutability": "nonpayable",
      "type": "function"
    },
    {
      "inputs": [],
      "name": "name",
      "outputs": [
        {
          "internalType": "string",
          "name": "",
          "type": "string"
        }
      ],
      "stateMutability": "view",
      "type": "function"
    },
    {
      "inputs": [],
      "name": "owner",
      "outputs": [
        {
          "internalType": "address",
          "name": "",
          "type": "address"
        }
      ],
      "stateMutability": "view",
      "type": "function"
    },
    {
      "inputs": [
        {
          "internalType": "uint256",
          "name": "tokenId",
          "type": "uint256"
        }
      ],
      "name": "ownerOf",
      "outputs": [
        {
          "internalType": "address",
          "name": "",
          "type": "address"
        }
      ],
      "stateMutability": "view",
      "type": "function"
    },
    {
      "inputs": [],
      "name": "paused",
      "outputs": [
        {
          "internalType": "bool",
          "name": "",
          "type": "bool"
        }
      ],
      "stateMutability": "view",
      "type": "function"
    },
    {
      "inputs": [],
      "name": "renounceOwnership",
      "outputs": [],
      "stateMutability": "nonpayable",
      "type": "function"
    },
    {
      "inputs": [
        {
          "internalType": "address",
          "name": "from",
          "type": "address"
        },
        {
          "internalType": "address",
          "name": "to",
          "type": "address"
        },
        {
          "internalType": "uint256",
          "name": "tokenId",
          "type": "uint256"
        }
      ],
      "name": "safeTransferFrom",
      "outputs": [],
      "stateMutability": "nonpayable",
      "type": "function"
    },
    {
      "inputs": [
        {
          "internalType": "address",
          "name": "from",
          "type": "address"
        },
        {
          "internalType": "address",
          "name": "to",
          "type": "address"
        },
        {
          "internalType": "uint256",
          "name": "tokenId",
          "type": "uint256"
        },
        {
          "internalType": "bytes",
          "name": "data",
          "type": "bytes"
        }
      ],
      "name": "safeTransferFrom",
      "outputs": [],
      "stateMutability": "nonpayable",
      "type": "function"
    },
    {
      "inputs": [
        {
          "internalType": "address",
          "name": "operator",
          "type": "address"
        },
        {
          "internalType": "bool",
          "name": "approved",
          "type": "bool"
        }
      ],
      "name": "setApprovalForAll",
      "outputs": [],
      "stateMutability": "nonpayable",
      "type": "function"
    },
    {
      "inputs": [
        {
          "internalType": "bytes4",
          "name": "interfaceId",
          "type": "bytes4"
        }
      ],
      "name": "supportsInterface",
      "outputs": [
        {
          "internalType": "bool",
          "name": "",
          "type": "bool"
        }
      ],
      "stateMutability": "view",
      "type": "function"
    },
    {
      "inputs": [],
      "name": "symbol",
      "outputs": [
        {
          "internalType": "string",
          "name": "",
          "type": "string"
        }
      ],
      "stateMutability": "view",
      "type": "function"
    },
    {
      "inputs": [],
      "name": "tokenId",
      "outputs": [
        {
          "internalType": "uint256",
          "name": "",
          "type": "uint256"
        }
      ],
      "stateMutability": "view",
      "type": "function"
    },
    {
      "inputs": [
        {
          "internalType": "uint256",
          "name": "tokenId",
          "type": "uint256"
        }
      ],
      "name": "tokenURI",
      "outputs": [
        {
          "internalType": "string",
          "name": "",
          "type": "string"
        }
      ],
      "stateMutability": "view",
      "type": "function"
    },
    {
      "inputs": [
        {
          "internalType": "address",
          "name": "from",
          "type": "address"
        },
        {
          "internalType": "address",
          "name": "to",
          "type": "address"
        },
        {
          "internalType": "uint256",
          "name": "tokenId",
          "type": "uint256"
        }
      ],
      "name": "transferFrom",
      "outputs": [],
      "stateMutability": "nonpayable",
      "type": "function"
    },
    {
      "inputs": [
        {
          "internalType": "address",
          "name": "newOwner",
          "type": "address"
        }
      ],
      "name": "transferOwnership",
      "outputs": [],
      "stateMutability": "nonpayable",
      "type": "function"
    }
  ],
  "bytecode": "0x60806040523480156200001157600080fd5b506040518060400160405280600c81526020017f506572736f6e496e4e65656400000000000000000000000000000000000000008152506040518060400160405280600381526020017f50494e000000000000000000000000000000000000000000000000000000000081525081600090816200008f91906200042d565b508060019081620000a191906200042d565b505050620000c4620000b8620000e560201b60201c565b620000ed60201b60201c565b6000600760146101000a81548160ff02191690831515021790555062000514565b600033905090565b6000600760009054906101000a900473ffffffffffffffffffffffffffffffffffffffff16905081600760006101000a81548173ffffffffffffffffffffffffffffffffffffffff021916908373ffffffffffffffffffffffffffffffffffffffff1602179055508173ffffffffffffffffffffffffffffffffffffffff168173ffffffffffffffffffffffffffffffffffffffff167f8be0079c531659141344cd1fd0a4f28419497f9722a3daafe3b4186f6b6457e060405160405180910390a35050565b600081519050919050565b7f4e487b7100000000000000000000000000000000000000000000000000000000600052604160045260246000fd5b7f4e487b7100000000000000000000000000000000000000000000000000000000600052602260045260246000fd5b600060028204905060018216806200023557607f821691505b6020821081036200024b576200024a620001ed565b5b50919050565b60008190508160005260206000209050919050565b60006020601f8301049050919050565b600082821b905092915050565b600060088302620002b57fffffffffffffffffffffffffffffffffffffffffffffffffffffffffffffffff8262000276565b620002c1868362000276565b95508019841693508086168417925050509392505050565b6000819050919050565b6000819050919050565b60006200030e620003086200030284620002d9565b620002e3565b620002d9565b9050919050565b6000819050919050565b6200032a83620002ed565b62000342620003398262000315565b84845462000283565b825550505050565b600090565b620003596200034a565b620003668184846200031f565b505050565b5b818110156200038e57620003826000826200034f565b6001810190506200036c565b5050565b601f821115620003dd57620003a78162000251565b620003b28462000266565b81016020851015620003c2578190505b620003da620003d18562000266565b8301826200036b565b50505b505050565b600082821c905092915050565b60006200040260001984600802620003e2565b1980831691505092915050565b60006200041d8383620003ef565b9150826002028217905092915050565b6200043882620001b3565b67ffffffffffffffff811115620004545762000453620001be565b5b6200046082546200021c565b6200046d82828562000392565b600060209050601f831160018114620004a5576000841562000490578287015190505b6200049c85826200040f565b8655506200050c565b601f198416620004b58662000251565b60005b82811015620004df57848901518255600182019150602085019450602081019050620004b8565b86831015620004ff5784890151620004fb601f891682620003ef565b8355505b6001600288020188555050505b505050505050565b612c9580620005246000396000f3fe608060405234801561001057600080fd5b50600436106101215760003560e01c80636352211e116100ad578063a22cb46511610071578063a22cb4651461030a578063b88d4fde14610326578063c87b56dd14610342578063e985e9c514610372578063f2fde38b146103a257610121565b80636352211e1461026457806370a0823114610294578063715018a6146102c45780638da5cb5b146102ce57806395d89b41146102ec57610121565b806317d70f7c116100f457806317d70f7c146101c057806323b872dd146101de57806342842e0e146101fa57806354ba0f27146102165780635c975abb1461024657610121565b806301ffc9a71461012657806306fdde0314610156578063081812fc14610174578063095ea7b3146101a4575b600080fd5b610140600480360381019061013b9190611d90565b6103be565b60405161014d9190611dd8565b60405180910390f35b61015e6104a0565b60405161016b9190611e83565b60405180910390f35b61018e60048036038101906101899190611edb565b610532565b60405161019b9190611f49565b60405180910390f35b6101be60048036038101906101b99190611f90565b610578565b005b6101c861068f565b6040516101d59190611fdf565b60405180910390f35b6101f860048036038101906101f39190611ffa565b610695565b005b610214600480360381019061020f9190611ffa565b6106f5565b005b610230600480360381019061022b919061204d565b610715565b60405161023d9190611fdf565b60405180910390f35b61024e610757565b60405161025b9190611dd8565b60405180910390f35b61027e60048036038101906102799190611edb565b61076e565b60405161028b9190611f49565b60405180910390f35b6102ae60048036038101906102a9919061204d565b6107f4565b6040516102bb9190611fdf565b60405180910390f35b6102cc6108ab565b005b6102d66108bf565b6040516102e39190611f49565b60405180910390f35b6102f46108e9565b6040516103019190611e83565b60405180910390f35b610324600480360381019061031f91906120a6565b61097b565b005b610340600480360381019061033b919061221b565b610991565b005b61035c60048036038101906103579190611edb565b6109f3565b6040516103699190611e83565b60405180910390f35b61038c6004803603810190610387919061229e565b610b05565b6040516103999190611dd8565b60405180910390f35b6103bc60048036038101906103b7919061204d565b610b99565b005b60007f80ac58cd000000000000000000000000000000000000000000000000000000007bffffffffffffffffffffffffffffffffffffffffffffffffffffffff1916827bffffffffffffffffffffffffffffffffffffffffffffffffffffffff1916148061048957507f5b5e139f000000000000000000000000000000000000000000000000000000007bffffffffffffffffffffffffffffffffffffffffffffffffffffffff1916827bffffffffffffffffffffffffffffffffffffffffffffffffffffffff1916145b80610499575061049882610c1c565b5b9050919050565b6060600080546104af9061230d565b80601f01602080910402602001604051908101604052809291908181526020018280546104db9061230d565b80156105285780601f106104fd57610100808354040283529160200191610528565b820191906000526020600020905b81548152906001019060200180831161050b57829003601f168201915b5050505050905090565b600061053d82610c86565b6004600083815260200190815260200160002060009054906101000a900473ffffffffffffffffffffffffffffffffffffffff169050919050565b60006105838261076e565b90508073ffffffffffffffffffffffffffffffffffffffff168373ffffffffffffffffffffffffffffffffffffffff16036105f3576040517f08c379a00000000000000000000000000000000000000000000000000000000081526004016105ea906123b0565b60405180910390fd5b8073ffffffffffffffffffffffffffffffffffffffff16610612610cd1565b73ffffffffffffffffffffffffffffffffffffffff16148061064157506106408161063b610cd1565b610b05565b5b610680576040517f08c379a000000000000000000000000000000000000000000000000000000000815260040161067790612442565b60405180910390fd5b61068a8383610cd9565b505050565b60085481565b6106a66106a0610cd1565b82610d92565b6106e5576040517f08c379a00000000000000000000000000000000000000000000000000000000081526004016106dc906124d4565b60405180910390fd5b6106f0838383610e27565b505050565b61071083838360405180602001604052806000815250610991565b505050565b600061071f611120565b61072761119e565b61073160096111e8565b61073b60096111fe565b60088190555061074d8260085461120c565b6008549050919050565b6000600760149054906101000a900460ff16905090565b60008061077a8361122a565b9050600073ffffffffffffffffffffffffffffffffffffffff168173ffffffffffffffffffffffffffffffffffffffff16036107eb576040517f08c379a00000000000000000000000000000000000000000000000000000000081526004016107e290612540565b60405180910390fd5b80915050919050565b60008073ffffffffffffffffffffffffffffffffffffffff168273ffffffffffffffffffffffffffffffffffffffff1603610864576040517f08c379a000000000000000000000000000000000000000000000000000000000815260040161085b906125d2565b60405180910390fd5b600360008373ffffffffffffffffffffffffffffffffffffffff1673ffffffffffffffffffffffffffffffffffffffff168152602001908152602001600020549050919050565b6108b3611120565b6108bd6000611267565b565b6000600760009054906101000a900473ffffffffffffffffffffffffffffffffffffffff16905090565b6060600180546108f89061230d565b80601f01602080910402602001604051908101604052809291908181526020018280546109249061230d565b80156109715780601f1061094657610100808354040283529160200191610971565b820191906000526020600020905b81548152906001019060200180831161095457829003601f168201915b5050505050905090565b61098d610986610cd1565b838361132d565b5050565b6109a261099c610cd1565b83610d92565b6109e1576040517f08c379a00000000000000000000000000000000000000000000000000000000081526004016109d8906124d4565b60405180910390fd5b6109ed84848484611499565b50505050565b60606109fe82610c86565b6000600660008481526020019081526020016000208054610a1e9061230d565b80601f0160208091040260200160405190810160405280929190818152602001828054610a4a9061230d565b8015610a975780601f10610a6c57610100808354040283529160200191610a97565b820191906000526020600020905b815481529060010190602001808311610a7a57829003601f168201915b505050505090506000610aa86114f5565b90506000815103610abd578192505050610b00565b600082511115610af2578082604051602001610ada92919061262e565b60405160208183030381529060405292505050610b00565b610afb8461150c565b925050505b919050565b6000600560008473ffffffffffffffffffffffffffffffffffffffff1673ffffffffffffffffffffffffffffffffffffffff16815260200190815260200160002060008373ffffffffffffffffffffffffffffffffffffffff1673ffffffffffffffffffffffffffffffffffffffff16815260200190815260200160002060009054906101000a900460ff16905092915050565b610ba1611120565b600073ffffffffffffffffffffffffffffffffffffffff168173ffffffffffffffffffffffffffffffffffffffff1603610c10576040517f08c379a0000000000000000000000000000000000000000000000000000000008152600401610c07906126c4565b60405180910390fd5b610c1981611267565b50565b60007f01ffc9a7000000000000000000000000000000000000000000000000000000007bffffffffffffffffffffffffffffffffffffffffffffffffffffffff1916827bffffffffffffffffffffffffffffffffffffffffffffffffffffffff1916149050919050565b610c8f81611574565b610cce576040517f08c379a0000000000000000000000000000000000000000000000000000000008152600401610cc590612540565b60405180910390fd5b50565b600033905090565b816004600083815260200190815260200160002060006101000a81548173ffffffffffffffffffffffffffffffffffffffff021916908373ffffffffffffffffffffffffffffffffffffffff160217905550808273ffffffffffffffffffffffffffffffffffffffff16610d4c8361076e565b73ffffffffffffffffffffffffffffffffffffffff167f8c5be1e5ebec7d5bd14f71427d1e84f3dd0314c0f7b2291e5b200ac8c7c3b92560405160405180910390a45050565b600080610d9e8361076e565b90508073ffffffffffffffffffffffffffffffffffffffff168473ffffffffffffffffffffffffffffffffffffffff161480610de05750610ddf8185610b05565b5b80610e1e57508373ffffffffffffffffffffffffffffffffffffffff16610e0684610532565b73ffffffffffffffffffffffffffffffffffffffff16145b91505092915050565b8273ffffffffffffffffffffffffffffffffffffffff16610e478261076e565b73ffffffffffffffffffffffffffffffffffffffff1614610e9d576040517f08c379a0000000000000000000000000000000000000000000000000000000008152600401610e9490612756565b60405180910390fd5b600073ffffffffffffffffffffffffffffffffffffffff168273ffffffffffffffffffffffffffffffffffffffff1603610f0c576040517f08c379a0000000000000000000000000000000000000000000000000000000008152600401610f03906127e8565b60405180910390fd5b610f1983838360016115b5565b8273ffffffffffffffffffffffffffffffffffffffff16610f398261076e565b73ffffffffffffffffffffffffffffffffffffffff1614610f8f576040517f08c379a0000000000000000000000000000000000000000000000000000000008152600401610f8690612756565b60405180910390fd5b6004600082815260200190815260200160002060006101000a81549073ffffffffffffffffffffffffffffffffffffffff02191690556001600360008573ffffffffffffffffffffffffffffffffffffffff1673ffffffffffffffffffffffffffffffffffffffff168152602001908152602001600020600082825403925050819055506001600360008473ffffffffffffffffffffffffffffffffffffffff1673ffffffffffffffffffffffffffffffffffffffff16815260200190815260200160002060008282540192505081905550816002600083815260200190815260200160002060006101000a81548173ffffffffffffffffffffffffffffffffffffffff021916908373ffffffffffffffffffffffffffffffffffffffff160217905550808273ffffffffffffffffffffffffffffffffffffffff168473ffffffffffffffffffffffffffffffffffffffff167fddf252ad1be2c89b69c2b068fc378daa952ba7f163c4a11628f55a4df523b3ef60405160405180910390a461111b83838360016116db565b505050565b611128610cd1565b73ffffffffffffffffffffffffffffffffffffffff166111466108bf565b73ffffffffffffffffffffffffffffffffffffffff161461119c576040517f08c379a000000000000000000000000000000000000000000000000000000000815260040161119390612854565b60405180910390fd5b565b6111a6610757565b156111e6576040517f08c379a00000000000000000000000000000000000000000000000000000000081526004016111dd906128c0565b60405180910390fd5b565b6001816000016000828254019250508190555050565b600081600001549050919050565b6112268282604051806020016040528060008152506116e1565b5050565b60006002600083815260200190815260200160002060009054906101000a900473ffffffffffffffffffffffffffffffffffffffff169050919050565b6000600760009054906101000a900473ffffffffffffffffffffffffffffffffffffffff16905081600760006101000a81548173ffffffffffffffffffffffffffffffffffffffff021916908373ffffffffffffffffffffffffffffffffffffffff1602179055508173ffffffffffffffffffffffffffffffffffffffff168173ffffffffffffffffffffffffffffffffffffffff167f8be0079c531659141344cd1fd0a4f28419497f9722a3daafe3b4186f6b6457e060405160405180910390a35050565b8173ffffffffffffffffffffffffffffffffffffffff168373ffffffffffffffffffffffffffffffffffffffff160361139b576040517f08c379a00000000000000000000000000000000000000000000000000000000081526004016113929061292c565b60405180910390fd5b80600560008573ffffffffffffffffffffffffffffffffffffffff1673ffffffffffffffffffffffffffffffffffffffff16815260200190815260200160002060008473ffffffffffffffffffffffffffffffffffffffff1673ffffffffffffffffffffffffffffffffffffffff16815260200190815260200160002060006101000a81548160ff0219169083151502179055508173ffffffffffffffffffffffffffffffffffffffff168373ffffffffffffffffffffffffffffffffffffffff167f17307eab39ab6107e8899845ad3d59bd9653f200f220920489ca2b5937696c318360405161148c9190611dd8565b60405180910390a3505050565b6114a4848484610e27565b6114b08484848461173c565b6114ef576040517f08c379a00000000000000000000000000000000000000000000000000000000081526004016114e6906129be565b60405180910390fd5b50505050565b606060405180602001604052806000815250905090565b606061151782610c86565b60006115216114f5565b90506000815111611541576040518060200160405280600081525061156c565b8061154b846118c3565b60405160200161155c92919061262e565b6040516020818303038152906040525b915050919050565b60008073ffffffffffffffffffffffffffffffffffffffff166115968361122a565b73ffffffffffffffffffffffffffffffffffffffff1614159050919050565b60018111156116d557600073ffffffffffffffffffffffffffffffffffffffff168473ffffffffffffffffffffffffffffffffffffffff16146116495780600360008673ffffffffffffffffffffffffffffffffffffffff1673ffffffffffffffffffffffffffffffffffffffff16815260200190815260200160002060008282546116419190612a0d565b925050819055505b600073ffffffffffffffffffffffffffffffffffffffff168373ffffffffffffffffffffffffffffffffffffffff16146116d45780600360008573ffffffffffffffffffffffffffffffffffffffff1673ffffffffffffffffffffffffffffffffffffffff16815260200190815260200160002060008282546116cc9190612a41565b925050819055505b5b50505050565b50505050565b6116eb8383611991565b6116f8600084848461173c565b611737576040517f08c379a000000000000000000000000000000000000000000000000000000000815260040161172e906129be565b60405180910390fd5b505050565b600061175d8473ffffffffffffffffffffffffffffffffffffffff16611bae565b156118b6578373ffffffffffffffffffffffffffffffffffffffff1663150b7a02611786610cd1565b8786866040518563ffffffff1660e01b81526004016117a89493929190612aca565b6020604051808303816000875af19250505080156117e457506040513d601f19601f820116820180604052508101906117e19190612b2b565b60015b611866573d8060008114611814576040519150601f19603f3d011682016040523d82523d6000602084013e611819565b606091505b50600081510361185e576040517f08c379a0000000000000000000000000000000000000000000000000000000008152600401611855906129be565b60405180910390fd5b805181602001fd5b63150b7a0260e01b7bffffffffffffffffffffffffffffffffffffffffffffffffffffffff1916817bffffffffffffffffffffffffffffffffffffffffffffffffffffffff1916149150506118bb565b600190505b949350505050565b6060600060016118d284611bd1565b01905060008167ffffffffffffffff8111156118f1576118f06120f0565b5b6040519080825280601f01601f1916602001820160405280156119235781602001600182028036833780820191505090505b509050600082602001820190505b600115611986578080600190039150507f3031323334353637383961626364656600000000000000000000000000000000600a86061a8153600a858161197a57611979612b58565b5b04945060008503611931575b819350505050919050565b600073ffffffffffffffffffffffffffffffffffffffff168273ffffffffffffffffffffffffffffffffffffffff1603611a00576040517f08c379a00000000000000000000000000000000000000000000000000000000081526004016119f790612bd3565b60405180910390fd5b611a0981611574565b15611a49576040517f08c379a0000000000000000000000000000000000000000000000000000000008152600401611a4090612c3f565b60405180910390fd5b611a576000838360016115b5565b611a6081611574565b15611aa0576040517f08c379a0000000000000000000000000000000000000000000000000000000008152600401611a9790612c3f565b60405180910390fd5b6001600360008473ffffffffffffffffffffffffffffffffffffffff1673ffffffffffffffffffffffffffffffffffffffff16815260200190815260200160002060008282540192505081905550816002600083815260200190815260200160002060006101000a81548173ffffffffffffffffffffffffffffffffffffffff021916908373ffffffffffffffffffffffffffffffffffffffff160217905550808273ffffffffffffffffffffffffffffffffffffffff16600073ffffffffffffffffffffffffffffffffffffffff167fddf252ad1be2c89b69c2b068fc378daa952ba7f163c4a11628f55a4df523b3ef60405160405180910390a4611baa6000838360016116db565b5050565b6000808273ffffffffffffffffffffffffffffffffffffffff163b119050919050565b600080600090507a184f03e93ff9f4daa797ed6e38ed64bf6a1f0100000000000000008310611c2f577a184f03e93ff9f4daa797ed6e38ed64bf6a1f0100000000000000008381611c2557611c24612b58565b5b0492506040810190505b6d04ee2d6d415b85acef81000000008310611c6c576d04ee2d6d415b85acef81000000008381611c6257611c61612b58565b5b0492506020810190505b662386f26fc100008310611c9b57662386f26fc100008381611c9157611c90612b58565b5b0492506010810190505b6305f5e1008310611cc4576305f5e1008381611cba57611cb9612b58565b5b0492506008810190505b6127108310611ce9576127108381611cdf57611cde612b58565b5b0492506004810190505b60648310611d0c5760648381611d0257611d01612b58565b5b0492506002810190505b600a8310611d1b576001810190505b80915050919050565b6000604051905090565b600080fd5b600080fd5b60007fffffffff0000000000000000000000000000000000000000000000000000000082169050919050565b611d6d81611d38565b8114611d7857600080fd5b50565b600081359050611d8a81611d64565b92915050565b600060208284031215611da657611da5611d2e565b5b6000611db484828501611d7b565b91505092915050565b60008115159050919050565b611dd281611dbd565b82525050565b6000602082019050611ded6000830184611dc9565b92915050565b600081519050919050565b600082825260208201905092915050565b60005b83811015611e2d578082015181840152602081019050611e12565b60008484015250505050565b6000601f19601f8301169050919050565b6000611e5582611df3565b611e5f8185611dfe565b9350611e6f818560208601611e0f565b611e7881611e39565b840191505092915050565b60006020820190508181036000830152611e9d8184611e4a565b905092915050565b6000819050919050565b611eb881611ea5565b8114611ec357600080fd5b50565b600081359050611ed581611eaf565b92915050565b600060208284031215611ef157611ef0611d2e565b5b6000611eff84828501611ec6565b91505092915050565b600073ffffffffffffffffffffffffffffffffffffffff82169050919050565b6000611f3382611f08565b9050919050565b611f4381611f28565b82525050565b6000602082019050611f5e6000830184611f3a565b92915050565b611f6d81611f28565b8114611f7857600080fd5b50565b600081359050611f8a81611f64565b92915050565b60008060408385031215611fa757611fa6611d2e565b5b6000611fb585828601611f7b565b9250506020611fc685828601611ec6565b9150509250929050565b611fd981611ea5565b82525050565b6000602082019050611ff46000830184611fd0565b92915050565b60008060006060848603121561201357612012611d2e565b5b600061202186828701611f7b565b935050602061203286828701611f7b565b925050604061204386828701611ec6565b9150509250925092565b60006020828403121561206357612062611d2e565b5b600061207184828501611f7b565b91505092915050565b61208381611dbd565b811461208e57600080fd5b50565b6000813590506120a08161207a565b92915050565b600080604083850312156120bd576120bc611d2e565b5b60006120cb85828601611f7b565b92505060206120dc85828601612091565b9150509250929050565b600080fd5b600080fd5b7f4e487b7100000000000000000000000000000000000000000000000000000000600052604160045260246000fd5b61212882611e39565b810181811067ffffffffffffffff82111715612147576121466120f0565b5b80604052505050565b600061215a611d24565b9050612166828261211f565b919050565b600067ffffffffffffffff821115612186576121856120f0565b5b61218f82611e39565b9050602081019050919050565b82818337600083830152505050565b60006121be6121b98461216b565b612150565b9050828152602081018484840111156121da576121d96120eb565b5b6121e584828561219c565b509392505050565b600082601f830112612202576122016120e6565b5b81356122128482602086016121ab565b91505092915050565b6000806000806080858703121561223557612234611d2e565b5b600061224387828801611f7b565b945050602061225487828801611f7b565b935050604061226587828801611ec6565b925050606085013567ffffffffffffffff81111561228657612285611d33565b5b612292878288016121ed565b91505092959194509250565b600080604083850312156122b5576122b4611d2e565b5b60006122c385828601611f7b565b92505060206122d485828601611f7b565b9150509250929050565b7f4e487b7100000000000000000000000000000000000000000000000000000000600052602260045260246000fd5b6000600282049050600182168061232557607f821691505b602082108103612338576123376122de565b5b50919050565b7f4552433732313a20617070726f76616c20746f2063757272656e74206f776e6560008201527f7200000000000000000000000000000000000000000000000000000000000000602082015250565b600061239a602183611dfe565b91506123a58261233e565b604082019050919050565b600060208201905081810360008301526123c98161238d565b9050919050565b7f4552433732313a20617070726f76652063616c6c6572206973206e6f7420746f60008201527f6b656e206f776e6572206f7220617070726f76656420666f7220616c6c000000602082015250565b600061242c603d83611dfe565b9150612437826123d0565b604082019050919050565b6000602082019050818103600083015261245b8161241f565b9050919050565b7f4552433732313a2063616c6c6572206973206e6f7420746f6b656e206f776e6560008201527f72206f7220617070726f76656400000000000000000000000000000000000000602082015250565b60006124be602d83611dfe565b91506124c982612462565b604082019050919050565b600060208201905081810360008301526124ed816124b1565b9050919050565b7f4552433732313a20696e76616c696420746f6b656e2049440000000000000000600082015250565b600061252a601883611dfe565b9150612535826124f4565b602082019050919050565b600060208201905081810360008301526125598161251d565b9050919050565b7f4552433732313a2061646472657373207a65726f206973206e6f74206120766160008201527f6c6964206f776e65720000000000000000000000000000000000000000000000602082015250565b60006125bc602983611dfe565b91506125c782612560565b604082019050919050565b600060208201905081810360008301526125eb816125af565b9050919050565b600081905092915050565b600061260882611df3565b61261281856125f2565b9350612622818560208601611e0f565b80840191505092915050565b600061263a82856125fd565b915061264682846125fd565b91508190509392505050565b7f4f776e61626c653a206e6577206f776e657220697320746865207a65726f206160008201527f6464726573730000000000000000000000000000000000000000000000000000602082015250565b60006126ae602683611dfe565b91506126b982612652565b604082019050919050565b600060208201905081810360008301526126dd816126a1565b9050919050565b7f4552433732313a207472616e736665722066726f6d20696e636f72726563742060008201527f6f776e6572000000000000000000000000000000000000000000000000000000602082015250565b6000612740602583611dfe565b915061274b826126e4565b604082019050919050565b6000602082019050818103600083015261276f81612733565b9050919050565b7f4552433732313a207472616e7366657220746f20746865207a65726f2061646460008201527f7265737300000000000000000000000000000000000000000000000000000000602082015250565b60006127d2602483611dfe565b91506127dd82612776565b604082019050919050565b60006020820190508181036000830152612801816127c5565b9050919050565b7f4f776e61626c653a2063616c6c6572206973206e6f7420746865206f776e6572600082015250565b600061283e602083611dfe565b915061284982612808565b602082019050919050565b6000602082019050818103600083015261286d81612831565b9050919050565b7f5061757361626c653a2070617573656400000000000000000000000000000000600082015250565b60006128aa601083611dfe565b91506128b582612874565b602082019050919050565b600060208201905081810360008301526128d98161289d565b9050919050565b7f4552433732313a20617070726f766520746f2063616c6c657200000000000000600082015250565b6000612916601983611dfe565b9150612921826128e0565b602082019050919050565b6000602082019050818103600083015261294581612909565b9050919050565b7f4552433732313a207472616e7366657220746f206e6f6e20455243373231526560008201527f63656976657220696d706c656d656e7465720000000000000000000000000000602082015250565b60006129a8603283611dfe565b91506129b38261294c565b604082019050919050565b600060208201905081810360008301526129d78161299b565b9050919050565b7f4e487b7100000000000000000000000000000000000000000000000000000000600052601160045260246000fd5b6000612a1882611ea5565b9150612a2383611ea5565b9250828203905081811115612a3b57612a3a6129de565b5b92915050565b6000612a4c82611ea5565b9150612a5783611ea5565b9250828201905080821115612a6f57612a6e6129de565b5b92915050565b600081519050919050565b600082825260208201905092915050565b6000612a9c82612a75565b612aa68185612a80565b9350612ab6818560208601611e0f565b612abf81611e39565b840191505092915050565b6000608082019050612adf6000830187611f3a565b612aec6020830186611f3a565b612af96040830185611fd0565b8181036060830152612b0b8184612a91565b905095945050505050565b600081519050612b2581611d64565b92915050565b600060208284031215612b4157612b40611d2e565b5b6000612b4f84828501612b16565b91505092915050565b7f4e487b7100000000000000000000000000000000000000000000000000000000600052601260045260246000fd5b7f4552433732313a206d696e7420746f20746865207a65726f2061646472657373600082015250565b6000612bbd602083611dfe565b9150612bc882612b87565b602082019050919050565b60006020820190508181036000830152612bec81612bb0565b9050919050565b7f4552433732313a20746f6b656e20616c7265616479206d696e74656400000000600082015250565b6000612c29601c83611dfe565b9150612c3482612bf3565b602082019050919050565b60006020820190508181036000830152612c5881612c1c565b905091905056fea26469706673582212205853770c189b6934a0985de33f5cf060b288f7bc6e0026f750a02453ab2cc9d364736f6c63430008110033",
  "linkReferences": {},
  "deployedLinkReferences": {}
}