{
  "_format": "hh-sol-artifact-1",
  "contractName": "PersonInNeed",
  "sourceName": "contracts/PersonInNeed.sol",
  "abi": [
    {
      "inputs": [],
      "stateMutability": "nonpayable",
      "type": "constructor"
    },
    {
      "anonymous": false,
      "inputs": [
        {
          "indexed": true,
          "internalType": "address",
          "name": "account",
          "type": "address"
        },
        {
          "indexed": true,
          "internalType": "address",
          "name": "operator",
          "type": "address"
        },
        {
          "indexed": false,
          "internalType": "bool",
          "name": "approved",
          "type": "bool"
        }
      ],
      "name": "ApprovalForAll",
      "type": "event"
    },
    {
      "anonymous": false,
      "inputs": [
        {
          "indexed": true,
          "internalType": "address",
          "name": "previousOwner",
          "type": "address"
        },
        {
          "indexed": true,
          "internalType": "address",
          "name": "newOwner",
          "type": "address"
        }
      ],
      "name": "OwnershipTransferred",
      "type": "event"
    },
    {
      "anonymous": false,
      "inputs": [
        {
          "indexed": false,
          "internalType": "address",
          "name": "account",
          "type": "address"
        }
      ],
      "name": "Paused",
      "type": "event"
    },
    {
      "anonymous": false,
      "inputs": [
        {
          "indexed": true,
          "internalType": "address",
          "name": "operator",
          "type": "address"
        },
        {
          "indexed": true,
          "internalType": "address",
          "name": "from",
          "type": "address"
        },
        {
          "indexed": true,
          "internalType": "address",
          "name": "to",
          "type": "address"
        },
        {
          "indexed": false,
          "internalType": "uint256[]",
          "name": "ids",
          "type": "uint256[]"
        },
        {
          "indexed": false,
          "internalType": "uint256[]",
          "name": "values",
          "type": "uint256[]"
        }
      ],
      "name": "TransferBatch",
      "type": "event"
    },
    {
      "anonymous": false,
      "inputs": [
        {
          "indexed": true,
          "internalType": "address",
          "name": "operator",
          "type": "address"
        },
        {
          "indexed": true,
          "internalType": "address",
          "name": "from",
          "type": "address"
        },
        {
          "indexed": true,
          "internalType": "address",
          "name": "to",
          "type": "address"
        },
        {
          "indexed": false,
          "internalType": "uint256",
          "name": "id",
          "type": "uint256"
        },
        {
          "indexed": false,
          "internalType": "uint256",
          "name": "value",
          "type": "uint256"
        }
      ],
      "name": "TransferSingle",
      "type": "event"
    },
    {
      "anonymous": false,
      "inputs": [
        {
          "indexed": false,
          "internalType": "string",
          "name": "value",
          "type": "string"
        },
        {
          "indexed": true,
          "internalType": "uint256",
          "name": "id",
          "type": "uint256"
        }
      ],
      "name": "URI",
      "type": "event"
    },
    {
      "anonymous": false,
      "inputs": [
        {
          "indexed": false,
          "internalType": "address",
          "name": "account",
          "type": "address"
        }
      ],
      "name": "Unpaused",
      "type": "event"
    },
    {
      "inputs": [],
      "name": "BYCICLE",
      "outputs": [
        {
          "internalType": "uint256",
          "name": "",
          "type": "uint256"
        }
      ],
      "stateMutability": "view",
      "type": "function"
    },
    {
      "inputs": [],
      "name": "CAR",
      "outputs": [
        {
          "internalType": "uint256",
          "name": "",
          "type": "uint256"
        }
      ],
      "stateMutability": "view",
      "type": "function"
    },
    {
      "inputs": [],
      "name": "COW",
      "outputs": [
        {
          "internalType": "uint256",
          "name": "",
          "type": "uint256"
        }
      ],
      "stateMutability": "view",
      "type": "function"
    },
    {
      "inputs": [],
      "name": "HOUSE",
      "outputs": [
        {
          "internalType": "uint256",
          "name": "",
          "type": "uint256"
        }
      ],
      "stateMutability": "view",
      "type": "function"
    },
    {
      "inputs": [],
      "name": "LAND",
      "outputs": [
        {
          "internalType": "uint256",
          "name": "",
          "type": "uint256"
        }
      ],
      "stateMutability": "view",
      "type": "function"
    },
    {
      "inputs": [
        {
          "internalType": "address",
          "name": "_address",
          "type": "address"
        },
        {
          "internalType": "uint256[]",
          "name": "_amounts_asked",
          "type": "uint256[]"
        },
        {
          "internalType": "uint256[]",
          "name": "_amounts_owned",
          "type": "uint256[]"
        }
      ],
      "name": "addBeneficiary",
      "outputs": [],
      "stateMutability": "nonpayable",
      "type": "function"
    },
    {
      "inputs": [
        {
          "internalType": "address",
          "name": "account",
          "type": "address"
        },
        {
          "internalType": "uint256",
          "name": "id",
          "type": "uint256"
        }
      ],
      "name": "balanceOf",
      "outputs": [
        {
          "internalType": "uint256",
          "name": "",
          "type": "uint256"
        }
      ],
      "stateMutability": "view",
      "type": "function"
    },
    {
      "inputs": [
        {
          "internalType": "address[]",
          "name": "accounts",
          "type": "address[]"
        },
        {
          "internalType": "uint256[]",
          "name": "ids",
          "type": "uint256[]"
        }
      ],
      "name": "balanceOfBatch",
      "outputs": [
        {
          "internalType": "uint256[]",
          "name": "",
          "type": "uint256[]"
        }
      ],
      "stateMutability": "view",
      "type": "function"
    },
    {
      "inputs": [
        {
          "internalType": "uint256",
          "name": "",
          "type": "uint256"
        }
      ],
      "name": "beneficiaries",
      "outputs": [
        {
          "internalType": "address",
          "name": "",
          "type": "address"
        }
      ],
      "stateMutability": "view",
      "type": "function"
    },
    {
      "inputs": [
        {
          "internalType": "address",
          "name": "account",
          "type": "address"
        },
        {
          "internalType": "address",
          "name": "operator",
          "type": "address"
        }
      ],
      "name": "isApprovedForAll",
      "outputs": [
        {
          "internalType": "bool",
          "name": "",
          "type": "bool"
        }
      ],
      "stateMutability": "view",
      "type": "function"
    },
    {
      "inputs": [
        {
          "internalType": "address",
          "name": "_address",
          "type": "address"
        }
      ],
      "name": "mintAssetsAsked",
      "outputs": [],
      "stateMutability": "nonpayable",
      "type": "function"
    },
    {
      "inputs": [
        {
          "internalType": "address",
          "name": "_address",
          "type": "address"
        }
      ],
      "name": "mintAssetsOwned",
      "outputs": [],
      "stateMutability": "nonpayable",
      "type": "function"
    },
    {
      "inputs": [],
      "name": "owner",
      "outputs": [
        {
          "internalType": "address",
          "name": "",
          "type": "address"
        }
      ],
      "stateMutability": "view",
      "type": "function"
    },
    {
      "inputs": [],
      "name": "pause",
      "outputs": [],
      "stateMutability": "nonpayable",
      "type": "function"
    },
    {
      "inputs": [],
      "name": "paused",
      "outputs": [
        {
          "internalType": "bool",
          "name": "",
          "type": "bool"
        }
      ],
      "stateMutability": "view",
      "type": "function"
    },
    {
      "inputs": [],
      "name": "renounceOwnership",
      "outputs": [],
      "stateMutability": "nonpayable",
      "type": "function"
    },
    {
      "inputs": [
        {
          "internalType": "address",
          "name": "from",
          "type": "address"
        },
        {
          "internalType": "address",
          "name": "to",
          "type": "address"
        },
        {
          "internalType": "uint256[]",
          "name": "ids",
          "type": "uint256[]"
        },
        {
          "internalType": "uint256[]",
          "name": "amounts",
          "type": "uint256[]"
        },
        {
          "internalType": "bytes",
          "name": "data",
          "type": "bytes"
        }
      ],
      "name": "safeBatchTransferFrom",
      "outputs": [],
      "stateMutability": "nonpayable",
      "type": "function"
    },
    {
      "inputs": [
        {
          "internalType": "address",
          "name": "from",
          "type": "address"
        },
        {
          "internalType": "address",
          "name": "to",
          "type": "address"
        },
        {
          "internalType": "uint256",
          "name": "id",
          "type": "uint256"
        },
        {
          "internalType": "uint256",
          "name": "amount",
          "type": "uint256"
        },
        {
          "internalType": "bytes",
          "name": "data",
          "type": "bytes"
        }
      ],
      "name": "safeTransferFrom",
      "outputs": [],
      "stateMutability": "nonpayable",
      "type": "function"
    },
    {
      "inputs": [
        {
          "internalType": "address",
          "name": "operator",
          "type": "address"
        },
        {
          "internalType": "bool",
          "name": "approved",
          "type": "bool"
        }
      ],
      "name": "setApprovalForAll",
      "outputs": [],
      "stateMutability": "nonpayable",
      "type": "function"
    },
    {
      "inputs": [
        {
          "internalType": "bytes4",
          "name": "interfaceId",
          "type": "bytes4"
        }
      ],
      "name": "supportsInterface",
      "outputs": [
        {
          "internalType": "bool",
          "name": "",
          "type": "bool"
        }
      ],
      "stateMutability": "view",
      "type": "function"
    },
    {
      "inputs": [
        {
          "internalType": "address",
          "name": "newOwner",
          "type": "address"
        }
      ],
      "name": "transferOwnership",
      "outputs": [],
      "stateMutability": "nonpayable",
      "type": "function"
    },
    {
      "inputs": [],
      "name": "unpause",
      "outputs": [],
      "stateMutability": "nonpayable",
      "type": "function"
    },
    {
      "inputs": [
        {
          "internalType": "uint256",
          "name": "_tokenid",
          "type": "uint256"
        }
      ],
      "name": "uri",
      "outputs": [
        {
          "internalType": "string",
          "name": "",
          "type": "string"
        }
      ],
      "stateMutability": "pure",
      "type": "function"
    }
  ],
  "bytecode": "0x60806040523480156200001157600080fd5b506040518060800160405280604d8152602001620040ab604d91396200003d81620000be60201b60201c565b506200005e62000052620000d360201b60201c565b620000db60201b60201c565b6000600360146101000a81548160ff0219169083151502179055506040518060a001604052806000815260200160018152602001600281526020016003815260200160048152506004906005620000b7929190620001a1565b5062000573565b8060029081620000cf91906200048c565b5050565b600033905090565b6000600360009054906101000a900473ffffffffffffffffffffffffffffffffffffffff16905081600360006101000a81548173ffffffffffffffffffffffffffffffffffffffff021916908373ffffffffffffffffffffffffffffffffffffffff1602179055508173ffffffffffffffffffffffffffffffffffffffff168173ffffffffffffffffffffffffffffffffffffffff167f8be0079c531659141344cd1fd0a4f28419497f9722a3daafe3b4186f6b6457e060405160405180910390a35050565b828054828255906000526020600020908101928215620001e0579160200282015b82811115620001df578251825591602001919060010190620001c2565b5b509050620001ef9190620001f3565b5090565b5b808211156200020e576000816000905550600101620001f4565b5090565b600081519050919050565b7f4e487b7100000000000000000000000000000000000000000000000000000000600052604160045260246000fd5b7f4e487b7100000000000000000000000000000000000000000000000000000000600052602260045260246000fd5b600060028204905060018216806200029457607f821691505b602082108103620002aa57620002a96200024c565b5b50919050565b60008190508160005260206000209050919050565b60006020601f8301049050919050565b600082821b905092915050565b600060088302620003147fffffffffffffffffffffffffffffffffffffffffffffffffffffffffffffffff82620002d5565b620003208683620002d5565b95508019841693508086168417925050509392505050565b6000819050919050565b6000819050919050565b60006200036d62000367620003618462000338565b62000342565b62000338565b9050919050565b6000819050919050565b62000389836200034c565b620003a1620003988262000374565b848454620002e2565b825550505050565b600090565b620003b8620003a9565b620003c58184846200037e565b505050565b5b81811015620003ed57620003e1600082620003ae565b600181019050620003cb565b5050565b601f8211156200043c576200040681620002b0565b6200041184620002c5565b8101602085101562000421578190505b620004396200043085620002c5565b830182620003ca565b50505b505050565b600082821c905092915050565b6000620004616000198460080262000441565b1980831691505092915050565b60006200047c83836200044e565b9150826002028217905092915050565b620004978262000212565b67ffffffffffffffff811115620004b357620004b26200021d565b5b620004bf82546200027b565b620004cc828285620003f1565b600060209050601f831160018114620005045760008415620004ef578287015190505b620004fb85826200046e565b8655506200056b565b601f1984166200051486620002b0565b60005b828110156200053e5784890151825560018201915060208501945060208101905062000517565b868310156200055e57848901516200055a601f8916826200044e565b8355505b6001600288020188555050505b505050505050565b613b2880620005836000396000f3fe608060405234801561001057600080fd5b506004361061014c5760003560e01c8063785fa53f116100c3578063d2c89e991161007c578063d2c89e9914610353578063e985e9c514610371578063efeb5e58146103a1578063f242432a146103d1578063f2fde38b146103ed578063f61eb2d4146104095761014c565b8063785fa53f146102b75780638456cb59146102d55780638da5cb5b146102df578063a22cb465146102fd578063bcc727e414610319578063ce89205b146103355761014c565b80633f4ba83a116101155780633f4ba83a1461021957806347597162146102235780634e1273f4146102415780635c975abb1461027157806369506ce41461028f578063715018a6146102ad5761014c565b8062fdd58e1461015157806301ffc9a7146101815780630e89341c146101b15780632bfbbeed146101e15780632eb2c2d6146101fd575b600080fd5b61016b600480360381019061016691906123fa565b610425565b6040516101789190612449565b60405180910390f35b61019b600480360381019061019691906124bc565b6104ed565b6040516101a89190612504565b60405180910390f35b6101cb60048036038101906101c6919061251f565b6105cf565b6040516101d891906125dc565b60405180910390f35b6101fb60048036038101906101f691906125fe565b610600565b005b61021760048036038101906102129190612828565b6107d5565b005b610221610876565b005b61022b610888565b6040516102389190612449565b60405180910390f35b61025b600480360381019061025691906129ba565b61088d565b6040516102689190612af0565b60405180910390f35b6102796109a6565b6040516102869190612504565b60405180910390f35b6102976109bd565b6040516102a49190612449565b60405180910390f35b6102b56109c2565b005b6102bf6109d6565b6040516102cc9190612449565b60405180910390f35b6102dd6109db565b005b6102e76109ed565b6040516102f49190612b21565b60405180910390f35b61031760048036038101906103129190612b68565b610a17565b005b610333600480360381019061032e91906125fe565b610a2d565b005b61033d610c02565b60405161034a9190612449565b60405180910390f35b61035b610c07565b6040516103689190612449565b60405180910390f35b61038b60048036038101906103869190612ba8565b610c0c565b6040516103989190612504565b60405180910390f35b6103bb60048036038101906103b6919061251f565b610ca0565b6040516103c89190612b21565b60405180910390f35b6103eb60048036038101906103e69190612be8565b610cdf565b005b610407600480360381019061040291906125fe565b610d80565b005b610423600480360381019061041e9190612c7f565b610e03565b005b60008073ffffffffffffffffffffffffffffffffffffffff168373ffffffffffffffffffffffffffffffffffffffff1603610495576040517f08c379a000000000000000000000000000000000000000000000000000000000815260040161048c90612d7c565b60405180910390fd5b60008083815260200190815260200160002060008473ffffffffffffffffffffffffffffffffffffffff1673ffffffffffffffffffffffffffffffffffffffff16815260200190815260200160002054905092915050565b60007fd9b67a26000000000000000000000000000000000000000000000000000000007bffffffffffffffffffffffffffffffffffffffffffffffffffffffff1916827bffffffffffffffffffffffffffffffffffffffffffffffffffffffff191614806105b857507f0e89341c000000000000000000000000000000000000000000000000000000007bffffffffffffffffffffffffffffffffffffffffffffffffffffffff1916827bffffffffffffffffffffffffffffffffffffffffffffffffffffffff1916145b806105c857506105c782611009565b5b9050919050565b60606105da82611073565b6040516020016105ea9190612ebc565b6040516020818303038152906040529050919050565b610608611141565b6106106111bf565b6000600760008373ffffffffffffffffffffffffffffffffffffffff1673ffffffffffffffffffffffffffffffffffffffff1681526020019081526020016000205414610692576040517f08c379a000000000000000000000000000000000000000000000000000000000815260040161068990612f5b565b60405180910390fd5b61078d8160048054806020026020016040519081016040528092919081815260200182805480156106e257602002820191906000526020600020905b8154815260200190600101908083116106ce575b5050505050600860008573ffffffffffffffffffffffffffffffffffffffff1673ffffffffffffffffffffffffffffffffffffffff16815260200190815260200160002060010180548060200260200160405190810160405280929190818152602001828054801561077357602002820191906000526020600020905b81548152602001906001019080831161075f575b505050505060405180602001604052806000815250611209565b6001600760008373ffffffffffffffffffffffffffffffffffffffff1673ffffffffffffffffffffffffffffffffffffffff1681526020019081526020016000208190555050565b6107dd611435565b73ffffffffffffffffffffffffffffffffffffffff168573ffffffffffffffffffffffffffffffffffffffff16148061082357506108228561081d611435565b610c0c565b5b610862576040517f08c379a000000000000000000000000000000000000000000000000000000000815260040161085990612fed565b60405180910390fd5b61086f858585858561143d565b5050505050565b61087e611141565b61088661175e565b565b600081565b606081518351146108d3576040517f08c379a00000000000000000000000000000000000000000000000000000000081526004016108ca9061307f565b60405180910390fd5b6000835167ffffffffffffffff8111156108f0576108ef612630565b5b60405190808252806020026020018201604052801561091e5781602001602082028036833780820191505090505b50905060005b845181101561099b5761096b8582815181106109435761094261309f565b5b602002602001015185838151811061095e5761095d61309f565b5b6020026020010151610425565b82828151811061097e5761097d61309f565b5b60200260200101818152505080610994906130fd565b9050610924565b508091505092915050565b6000600360149054906101000a900460ff16905090565b600281565b6109ca611141565b6109d460006117c1565b565b600181565b6109e3611141565b6109eb611887565b565b6000600360009054906101000a900473ffffffffffffffffffffffffffffffffffffffff16905090565b610a29610a22611435565b83836118ea565b5050565b610a35611141565b610a3d6111bf565b6000600660008373ffffffffffffffffffffffffffffffffffffffff1673ffffffffffffffffffffffffffffffffffffffff1681526020019081526020016000205414610abf576040517f08c379a0000000000000000000000000000000000000000000000000000000008152600401610ab690612f5b565b60405180910390fd5b610bba816004805480602002602001604051908101604052809291908181526020018280548015610b0f57602002820191906000526020600020905b815481526020019060010190808311610afb575b5050505050600860008573ffffffffffffffffffffffffffffffffffffffff1673ffffffffffffffffffffffffffffffffffffffff168152602001908152602001600020600001805480602002602001604051908101604052809291908181526020018280548015610ba057602002820191906000526020600020905b815481526020019060010190808311610b8c575b505050505060405180602001604052806000815250611209565b6001600660008373ffffffffffffffffffffffffffffffffffffffff1673ffffffffffffffffffffffffffffffffffffffff1681526020019081526020016000208190555050565b600381565b600481565b6000600160008473ffffffffffffffffffffffffffffffffffffffff1673ffffffffffffffffffffffffffffffffffffffff16815260200190815260200160002060008373ffffffffffffffffffffffffffffffffffffffff1673ffffffffffffffffffffffffffffffffffffffff16815260200190815260200160002060009054906101000a900460ff16905092915050565b60058181548110610cb057600080fd5b906000526020600020016000915054906101000a900473ffffffffffffffffffffffffffffffffffffffff1681565b610ce7611435565b73ffffffffffffffffffffffffffffffffffffffff168573ffffffffffffffffffffffffffffffffffffffff161480610d2d5750610d2c85610d27611435565b610c0c565b5b610d6c576040517f08c379a0000000000000000000000000000000000000000000000000000000008152600401610d6390612fed565b60405180910390fd5b610d798585858585611a56565b5050505050565b610d88611141565b600073ffffffffffffffffffffffffffffffffffffffff168173ffffffffffffffffffffffffffffffffffffffff1603610df7576040517f08c379a0000000000000000000000000000000000000000000000000000000008152600401610dee906131b7565b60405180910390fd5b610e00816117c1565b50565b610e0b611141565b610e136111bf565b600860008473ffffffffffffffffffffffffffffffffffffffff1673ffffffffffffffffffffffffffffffffffffffff16815260200190815260200160002060020160009054906101000a900460ff1615610ea3576040517f08c379a0000000000000000000000000000000000000000000000000000000008152600401610e9a90613223565b60405180910390fd5b8051825114610ee7576040517f08c379a0000000000000000000000000000000000000000000000000000000008152600401610ede906132b5565b60405180910390fd5b6005839080600181540180825580915050600190039060005260206000200160009091909190916101000a81548173ffffffffffffffffffffffffffffffffffffffff021916908373ffffffffffffffffffffffffffffffffffffffff160217905550604051806060016040528082815260200183815260200160011515815250600860008573ffffffffffffffffffffffffffffffffffffffff1673ffffffffffffffffffffffffffffffffffffffff1681526020019081526020016000206000820151816000019080519060200190610fc39291906122e8565b506020820151816001019080519060200190610fe09291906122e8565b5060408201518160020160006101000a81548160ff021916908315150217905550905050505050565b60007f01ffc9a7000000000000000000000000000000000000000000000000000000007bffffffffffffffffffffffffffffffffffffffffffffffffffffffff1916827bffffffffffffffffffffffffffffffffffffffffffffffffffffffff1916149050919050565b60606000600161108284611cf1565b01905060008167ffffffffffffffff8111156110a1576110a0612630565b5b6040519080825280601f01601f1916602001820160405280156110d35781602001600182028036833780820191505090505b509050600082602001820190505b600115611136578080600190039150507f3031323334353637383961626364656600000000000000000000000000000000600a86061a8153600a858161112a576111296132d5565b5b049450600085036110e1575b819350505050919050565b611149611435565b73ffffffffffffffffffffffffffffffffffffffff166111676109ed565b73ffffffffffffffffffffffffffffffffffffffff16146111bd576040517f08c379a00000000000000000000000000000000000000000000000000000000081526004016111b490613350565b60405180910390fd5b565b6111c76109a6565b15611207576040517f08c379a00000000000000000000000000000000000000000000000000000000081526004016111fe906133bc565b60405180910390fd5b565b600073ffffffffffffffffffffffffffffffffffffffff168473ffffffffffffffffffffffffffffffffffffffff1603611278576040517f08c379a000000000000000000000000000000000000000000000000000000000815260040161126f9061344e565b60405180910390fd5b81518351146112bc576040517f08c379a00000000000000000000000000000000000000000000000000000000081526004016112b3906134e0565b60405180910390fd5b60006112c6611435565b90506112d781600087878787611e44565b60005b8451811015611390578381815181106112f6576112f561309f565b5b60200260200101516000808784815181106113145761131361309f565b5b6020026020010151815260200190815260200160002060008873ffffffffffffffffffffffffffffffffffffffff1673ffffffffffffffffffffffffffffffffffffffff16815260200190815260200160002060008282546113769190613500565b925050819055508080611388906130fd565b9150506112da565b508473ffffffffffffffffffffffffffffffffffffffff16600073ffffffffffffffffffffffffffffffffffffffff168273ffffffffffffffffffffffffffffffffffffffff167f4a39dc06d4c0dbc64b70af90fd698a233a518aa5d07e595d983b8c0526c8f7fb8787604051611408929190613534565b60405180910390a461141f81600087878787611e4c565b61142e81600087878787611e54565b5050505050565b600033905090565b8151835114611481576040517f08c379a0000000000000000000000000000000000000000000000000000000008152600401611478906134e0565b60405180910390fd5b600073ffffffffffffffffffffffffffffffffffffffff168473ffffffffffffffffffffffffffffffffffffffff16036114f0576040517f08c379a00000000000000000000000000000000000000000000000000000000081526004016114e7906135dd565b60405180910390fd5b60006114fa611435565b905061150a818787878787611e44565b60005b84518110156116bb57600085828151811061152b5761152a61309f565b5b60200260200101519050600085838151811061154a5761154961309f565b5b60200260200101519050600080600084815260200190815260200160002060008b73ffffffffffffffffffffffffffffffffffffffff1673ffffffffffffffffffffffffffffffffffffffff168152602001908152602001600020549050818110156115eb576040517f08c379a00000000000000000000000000000000000000000000000000000000081526004016115e29061366f565b60405180910390fd5b81810360008085815260200190815260200160002060008c73ffffffffffffffffffffffffffffffffffffffff1673ffffffffffffffffffffffffffffffffffffffff168152602001908152602001600020819055508160008085815260200190815260200160002060008b73ffffffffffffffffffffffffffffffffffffffff1673ffffffffffffffffffffffffffffffffffffffff16815260200190815260200160002060008282546116a09190613500565b92505081905550505050806116b4906130fd565b905061150d565b508473ffffffffffffffffffffffffffffffffffffffff168673ffffffffffffffffffffffffffffffffffffffff168273ffffffffffffffffffffffffffffffffffffffff167f4a39dc06d4c0dbc64b70af90fd698a233a518aa5d07e595d983b8c0526c8f7fb8787604051611732929190613534565b60405180910390a4611748818787878787611e4c565b611756818787878787611e54565b505050505050565b61176661202b565b6000600360146101000a81548160ff0219169083151502179055507f5db9ee0a495bf2e6ff9c91a7834c1ba4fdd244a5e8aa4e537bd38aeae4b073aa6117aa611435565b6040516117b79190612b21565b60405180910390a1565b6000600360009054906101000a900473ffffffffffffffffffffffffffffffffffffffff16905081600360006101000a81548173ffffffffffffffffffffffffffffffffffffffff021916908373ffffffffffffffffffffffffffffffffffffffff1602179055508173ffffffffffffffffffffffffffffffffffffffff168173ffffffffffffffffffffffffffffffffffffffff167f8be0079c531659141344cd1fd0a4f28419497f9722a3daafe3b4186f6b6457e060405160405180910390a35050565b61188f6111bf565b6001600360146101000a81548160ff0219169083151502179055507f62e78cea01bee320cd4e420270b5ea74000d11b0c9f74754ebdbfc544b05a2586118d3611435565b6040516118e09190612b21565b60405180910390a1565b8173ffffffffffffffffffffffffffffffffffffffff168373ffffffffffffffffffffffffffffffffffffffff1603611958576040517f08c379a000000000000000000000000000000000000000000000000000000000815260040161194f90613701565b60405180910390fd5b80600160008573ffffffffffffffffffffffffffffffffffffffff1673ffffffffffffffffffffffffffffffffffffffff16815260200190815260200160002060008473ffffffffffffffffffffffffffffffffffffffff1673ffffffffffffffffffffffffffffffffffffffff16815260200190815260200160002060006101000a81548160ff0219169083151502179055508173ffffffffffffffffffffffffffffffffffffffff168373ffffffffffffffffffffffffffffffffffffffff167f17307eab39ab6107e8899845ad3d59bd9653f200f220920489ca2b5937696c3183604051611a499190612504565b60405180910390a3505050565b600073ffffffffffffffffffffffffffffffffffffffff168473ffffffffffffffffffffffffffffffffffffffff1603611ac5576040517f08c379a0000000000000000000000000000000000000000000000000000000008152600401611abc906135dd565b60405180910390fd5b6000611acf611435565b90506000611adc85612074565b90506000611ae985612074565b9050611af9838989858589611e44565b600080600088815260200190815260200160002060008a73ffffffffffffffffffffffffffffffffffffffff1673ffffffffffffffffffffffffffffffffffffffff16815260200190815260200160002054905085811015611b90576040517f08c379a0000000000000000000000000000000000000000000000000000000008152600401611b879061366f565b60405180910390fd5b85810360008089815260200190815260200160002060008b73ffffffffffffffffffffffffffffffffffffffff1673ffffffffffffffffffffffffffffffffffffffff168152602001908152602001600020819055508560008089815260200190815260200160002060008a73ffffffffffffffffffffffffffffffffffffffff1673ffffffffffffffffffffffffffffffffffffffff1681526020019081526020016000206000828254611c459190613500565b925050819055508773ffffffffffffffffffffffffffffffffffffffff168973ffffffffffffffffffffffffffffffffffffffff168573ffffffffffffffffffffffffffffffffffffffff167fc3d58168c5ae7397731d063d5bbf3d657854427343f4c083240f7aacaa2d0f628a8a604051611cc2929190613721565b60405180910390a4611cd8848a8a86868a611e4c565b611ce6848a8a8a8a8a6120ee565b505050505050505050565b600080600090507a184f03e93ff9f4daa797ed6e38ed64bf6a1f0100000000000000008310611d4f577a184f03e93ff9f4daa797ed6e38ed64bf6a1f0100000000000000008381611d4557611d446132d5565b5b0492506040810190505b6d04ee2d6d415b85acef81000000008310611d8c576d04ee2d6d415b85acef81000000008381611d8257611d816132d5565b5b0492506020810190505b662386f26fc100008310611dbb57662386f26fc100008381611db157611db06132d5565b5b0492506010810190505b6305f5e1008310611de4576305f5e1008381611dda57611dd96132d5565b5b0492506008810190505b6127108310611e09576127108381611dff57611dfe6132d5565b5b0492506004810190505b60648310611e2c5760648381611e2257611e216132d5565b5b0492506002810190505b600a8310611e3b576001810190505b80915050919050565b505050505050565b505050505050565b611e738473ffffffffffffffffffffffffffffffffffffffff166122c5565b15612023578373ffffffffffffffffffffffffffffffffffffffff1663bc197c8187878686866040518663ffffffff1660e01b8152600401611eb995949392919061379f565b6020604051808303816000875af1925050508015611ef557506040513d601f19601f82011682018060405250810190611ef2919061381c565b60015b611f9a57611f01613856565b806308c379a003611f5d5750611f15613878565b80611f205750611f5f565b806040517f08c379a0000000000000000000000000000000000000000000000000000000008152600401611f5491906125dc565b60405180910390fd5b505b6040517f08c379a0000000000000000000000000000000000000000000000000000000008152600401611f919061397a565b60405180910390fd5b63bc197c8160e01b7bffffffffffffffffffffffffffffffffffffffffffffffffffffffff1916817bffffffffffffffffffffffffffffffffffffffffffffffffffffffff191614612021576040517f08c379a000000000000000000000000000000000000000000000000000000000815260040161201890613a0c565b60405180910390fd5b505b505050505050565b6120336109a6565b612072576040517f08c379a000000000000000000000000000000000000000000000000000000000815260040161206990613a78565b60405180910390fd5b565b60606000600167ffffffffffffffff81111561209357612092612630565b5b6040519080825280602002602001820160405280156120c15781602001602082028036833780820191505090505b50905082816000815181106120d9576120d861309f565b5b60200260200101818152505080915050919050565b61210d8473ffffffffffffffffffffffffffffffffffffffff166122c5565b156122bd578373ffffffffffffffffffffffffffffffffffffffff1663f23a6e6187878686866040518663ffffffff1660e01b8152600401612153959493929190613a98565b6020604051808303816000875af192505050801561218f57506040513d601f19601f8201168201806040525081019061218c919061381c565b60015b6122345761219b613856565b806308c379a0036121f757506121af613878565b806121ba57506121f9565b806040517f08c379a00000000000000000000000000000000000000000000000000000000081526004016121ee91906125dc565b60405180910390fd5b505b6040517f08c379a000000000000000000000000000000000000000000000000000000000815260040161222b9061397a565b60405180910390fd5b63f23a6e6160e01b7bffffffffffffffffffffffffffffffffffffffffffffffffffffffff1916817bffffffffffffffffffffffffffffffffffffffffffffffffffffffff1916146122bb576040517f08c379a00000000000000000000000000000000000000000000000000000000081526004016122b290613a0c565b60405180910390fd5b505b505050505050565b6000808273ffffffffffffffffffffffffffffffffffffffff163b119050919050565b828054828255906000526020600020908101928215612324579160200282015b82811115612323578251825591602001919060010190612308565b5b5090506123319190612335565b5090565b5b8082111561234e576000816000905550600101612336565b5090565b6000604051905090565b600080fd5b600080fd5b600073ffffffffffffffffffffffffffffffffffffffff82169050919050565b600061239182612366565b9050919050565b6123a181612386565b81146123ac57600080fd5b50565b6000813590506123be81612398565b92915050565b6000819050919050565b6123d7816123c4565b81146123e257600080fd5b50565b6000813590506123f4816123ce565b92915050565b600080604083850312156124115761241061235c565b5b600061241f858286016123af565b9250506020612430858286016123e5565b9150509250929050565b612443816123c4565b82525050565b600060208201905061245e600083018461243a565b92915050565b60007fffffffff0000000000000000000000000000000000000000000000000000000082169050919050565b61249981612464565b81146124a457600080fd5b50565b6000813590506124b681612490565b92915050565b6000602082840312156124d2576124d161235c565b5b60006124e0848285016124a7565b91505092915050565b60008115159050919050565b6124fe816124e9565b82525050565b600060208201905061251960008301846124f5565b92915050565b6000602082840312156125355761253461235c565b5b6000612543848285016123e5565b91505092915050565b600081519050919050565b600082825260208201905092915050565b60005b8381101561258657808201518184015260208101905061256b565b60008484015250505050565b6000601f19601f8301169050919050565b60006125ae8261254c565b6125b88185612557565b93506125c8818560208601612568565b6125d181612592565b840191505092915050565b600060208201905081810360008301526125f681846125a3565b905092915050565b6000602082840312156126145761261361235c565b5b6000612622848285016123af565b91505092915050565b600080fd5b7f4e487b7100000000000000000000000000000000000000000000000000000000600052604160045260246000fd5b61266882612592565b810181811067ffffffffffffffff8211171561268757612686612630565b5b80604052505050565b600061269a612352565b90506126a6828261265f565b919050565b600067ffffffffffffffff8211156126c6576126c5612630565b5b602082029050602081019050919050565b600080fd5b60006126ef6126ea846126ab565b612690565b90508083825260208201905060208402830185811115612712576127116126d7565b5b835b8181101561273b578061272788826123e5565b845260208401935050602081019050612714565b5050509392505050565b600082601f83011261275a5761275961262b565b5b813561276a8482602086016126dc565b91505092915050565b600080fd5b600067ffffffffffffffff82111561279357612792612630565b5b61279c82612592565b9050602081019050919050565b82818337600083830152505050565b60006127cb6127c684612778565b612690565b9050828152602081018484840111156127e7576127e6612773565b5b6127f28482856127a9565b509392505050565b600082601f83011261280f5761280e61262b565b5b813561281f8482602086016127b8565b91505092915050565b600080600080600060a086880312156128445761284361235c565b5b6000612852888289016123af565b9550506020612863888289016123af565b945050604086013567ffffffffffffffff81111561288457612883612361565b5b61289088828901612745565b935050606086013567ffffffffffffffff8111156128b1576128b0612361565b5b6128bd88828901612745565b925050608086013567ffffffffffffffff8111156128de576128dd612361565b5b6128ea888289016127fa565b9150509295509295909350565b600067ffffffffffffffff82111561291257612911612630565b5b602082029050602081019050919050565b6000612936612931846128f7565b612690565b90508083825260208201905060208402830185811115612959576129586126d7565b5b835b81811015612982578061296e88826123af565b84526020840193505060208101905061295b565b5050509392505050565b600082601f8301126129a1576129a061262b565b5b81356129b1848260208601612923565b91505092915050565b600080604083850312156129d1576129d061235c565b5b600083013567ffffffffffffffff8111156129ef576129ee612361565b5b6129fb8582860161298c565b925050602083013567ffffffffffffffff811115612a1c57612a1b612361565b5b612a2885828601612745565b9150509250929050565b600081519050919050565b600082825260208201905092915050565b6000819050602082019050919050565b612a67816123c4565b82525050565b6000612a798383612a5e565b60208301905092915050565b6000602082019050919050565b6000612a9d82612a32565b612aa78185612a3d565b9350612ab283612a4e565b8060005b83811015612ae3578151612aca8882612a6d565b9750612ad583612a85565b925050600181019050612ab6565b5085935050505092915050565b60006020820190508181036000830152612b0a8184612a92565b905092915050565b612b1b81612386565b82525050565b6000602082019050612b366000830184612b12565b92915050565b612b45816124e9565b8114612b5057600080fd5b50565b600081359050612b6281612b3c565b92915050565b60008060408385031215612b7f57612b7e61235c565b5b6000612b8d858286016123af565b9250506020612b9e85828601612b53565b9150509250929050565b60008060408385031215612bbf57612bbe61235c565b5b6000612bcd858286016123af565b9250506020612bde858286016123af565b9150509250929050565b600080600080600060a08688031215612c0457612c0361235c565b5b6000612c12888289016123af565b9550506020612c23888289016123af565b9450506040612c34888289016123e5565b9350506060612c45888289016123e5565b925050608086013567ffffffffffffffff811115612c6657612c65612361565b5b612c72888289016127fa565b9150509295509295909350565b600080600060608486031215612c9857612c9761235c565b5b6000612ca6868287016123af565b935050602084013567ffffffffffffffff811115612cc757612cc6612361565b5b612cd386828701612745565b925050604084013567ffffffffffffffff811115612cf457612cf3612361565b5b612d0086828701612745565b9150509250925092565b7f455243313135353a2061646472657373207a65726f206973206e6f742061207660008201527f616c6964206f776e657200000000000000000000000000000000000000000000602082015250565b6000612d66602a83612557565b9150612d7182612d0a565b604082019050919050565b60006020820190508181036000830152612d9581612d59565b9050919050565b600081905092915050565b7f68747470733a2f2f697066732e696f2f697066732f516d514c52326d64516a7460008201527f77423855786a754d544366434250644d6862326b666e6a69786a5165324b326e60208201527f5851782f00000000000000000000000000000000000000000000000000000000604082015250565b6000612e29604483612d9c565b9150612e3482612da7565b604482019050919050565b6000612e4a8261254c565b612e548185612d9c565b9350612e64818560208601612568565b80840191505092915050565b7f2e6a736f6e000000000000000000000000000000000000000000000000000000600082015250565b6000612ea6600583612d9c565b9150612eb182612e70565b600582019050919050565b6000612ec782612e1c565b9150612ed38284612e3f565b9150612ede82612e99565b915081905092915050565b7f417373657420616c7265616479206d696e74656420666f722062656e6566696360008201527f6961727900000000000000000000000000000000000000000000000000000000602082015250565b6000612f45602483612557565b9150612f5082612ee9565b604082019050919050565b60006020820190508181036000830152612f7481612f38565b9050919050565b7f455243313135353a2063616c6c6572206973206e6f7420746f6b656e206f776e60008201527f6572206f7220617070726f766564000000000000000000000000000000000000602082015250565b6000612fd7602e83612557565b9150612fe282612f7b565b604082019050919050565b6000602082019050818103600083015261300681612fca565b9050919050565b7f455243313135353a206163636f756e747320616e6420696473206c656e67746860008201527f206d69736d617463680000000000000000000000000000000000000000000000602082015250565b6000613069602983612557565b91506130748261300d565b604082019050919050565b600060208201905081810360008301526130988161305c565b9050919050565b7f4e487b7100000000000000000000000000000000000000000000000000000000600052603260045260246000fd5b7f4e487b7100000000000000000000000000000000000000000000000000000000600052601160045260246000fd5b6000613108826123c4565b91507fffffffffffffffffffffffffffffffffffffffffffffffffffffffffffffffff820361313a576131396130ce565b5b600182019050919050565b7f4f776e61626c653a206e6577206f776e657220697320746865207a65726f206160008201527f6464726573730000000000000000000000000000000000000000000000000000602082015250565b60006131a1602683612557565b91506131ac82613145565b604082019050919050565b600060208201905081810360008301526131d081613194565b9050919050565b7f42656e656669636961727920616c726561647920657869737473000000000000600082015250565b600061320d601a83612557565b9150613218826131d7565b602082019050919050565b6000602082019050818103600083015261323c81613200565b9050919050565b7f417373657473206f776e656420616e642061736b65642068617665206469666660008201527f6572656e74206c656e6768747300000000000000000000000000000000000000602082015250565b600061329f602d83612557565b91506132aa82613243565b604082019050919050565b600060208201905081810360008301526132ce81613292565b9050919050565b7f4e487b7100000000000000000000000000000000000000000000000000000000600052601260045260246000fd5b7f4f776e61626c653a2063616c6c6572206973206e6f7420746865206f776e6572600082015250565b600061333a602083612557565b915061334582613304565b602082019050919050565b600060208201905081810360008301526133698161332d565b9050919050565b7f5061757361626c653a2070617573656400000000000000000000000000000000600082015250565b60006133a6601083612557565b91506133b182613370565b602082019050919050565b600060208201905081810360008301526133d581613399565b9050919050565b7f455243313135353a206d696e7420746f20746865207a65726f2061646472657360008201527f7300000000000000000000000000000000000000000000000000000000000000602082015250565b6000613438602183612557565b9150613443826133dc565b604082019050919050565b600060208201905081810360008301526134678161342b565b9050919050565b7f455243313135353a2069647320616e6420616d6f756e7473206c656e6774682060008201527f6d69736d61746368000000000000000000000000000000000000000000000000602082015250565b60006134ca602883612557565b91506134d58261346e565b604082019050919050565b600060208201905081810360008301526134f9816134bd565b9050919050565b600061350b826123c4565b9150613516836123c4565b925082820190508082111561352e5761352d6130ce565b5b92915050565b6000604082019050818103600083015261354e8185612a92565b905081810360208301526135628184612a92565b90509392505050565b7f455243313135353a207472616e7366657220746f20746865207a65726f20616460008201527f6472657373000000000000000000000000000000000000000000000000000000602082015250565b60006135c7602583612557565b91506135d28261356b565b604082019050919050565b600060208201905081810360008301526135f6816135ba565b9050919050565b7f455243313135353a20696e73756666696369656e742062616c616e636520666f60008201527f72207472616e7366657200000000000000000000000000000000000000000000602082015250565b6000613659602a83612557565b9150613664826135fd565b604082019050919050565b600060208201905081810360008301526136888161364c565b9050919050565b7f455243313135353a2073657474696e6720617070726f76616c2073746174757360008201527f20666f722073656c660000000000000000000000000000000000000000000000602082015250565b60006136eb602983612557565b91506136f68261368f565b604082019050919050565b6000602082019050818103600083015261371a816136de565b9050919050565b6000604082019050613736600083018561243a565b613743602083018461243a565b9392505050565b600081519050919050565b600082825260208201905092915050565b60006137718261374a565b61377b8185613755565b935061378b818560208601612568565b61379481612592565b840191505092915050565b600060a0820190506137b46000830188612b12565b6137c16020830187612b12565b81810360408301526137d38186612a92565b905081810360608301526137e78185612a92565b905081810360808301526137fb8184613766565b90509695505050505050565b60008151905061381681612490565b92915050565b6000602082840312156138325761383161235c565b5b600061384084828501613807565b91505092915050565b60008160e01c9050919050565b600060033d11156138755760046000803e613872600051613849565b90505b90565b600060443d106139055761388a612352565b60043d036004823e80513d602482011167ffffffffffffffff821117156138b2575050613905565b808201805167ffffffffffffffff8111156138d05750505050613905565b80602083010160043d0385018111156138ed575050505050613905565b6138fc8260200185018661265f565b82955050505050505b90565b7f455243313135353a207472616e7366657220746f206e6f6e2d4552433131353560008201527f526563656976657220696d706c656d656e746572000000000000000000000000602082015250565b6000613964603483612557565b915061396f82613908565b604082019050919050565b6000602082019050818103600083015261399381613957565b9050919050565b7f455243313135353a204552433131353552656365697665722072656a6563746560008201527f6420746f6b656e73000000000000000000000000000000000000000000000000602082015250565b60006139f6602883612557565b9150613a018261399a565b604082019050919050565b60006020820190508181036000830152613a25816139e9565b9050919050565b7f5061757361626c653a206e6f7420706175736564000000000000000000000000600082015250565b6000613a62601483612557565b9150613a6d82613a2c565b602082019050919050565b60006020820190508181036000830152613a9181613a55565b9050919050565b600060a082019050613aad6000830188612b12565b613aba6020830187612b12565b613ac7604083018661243a565b613ad4606083018561243a565b8181036080830152613ae68184613766565b9050969550505050505056fea2646970667358221220e444d4420b06c263d990767f5421ab318dea74941af21e00580b0100eed11c5464736f6c6343000811003368747470733a2f2f697066732e696f2f697066732f516d514c52326d64516a7477423855786a754d544366434250644d6862326b666e6a69786a5165324b326e5851782f7b69647d2e6a736f6e",
  "linkReferences": {},
  "deployedLinkReferences": {}
}