{
    "contractName": "VolcanoNft",
    "abi": [
        {
            "inputs": [],
            "stateMutability": "nonpayable",
            "type": "constructor"
        },
        {
            "anonymous": false,
            "inputs": [
                {
                    "indexed": true,
                    "internalType": "address",
                    "name": "owner",
                    "type": "address"
                },
                {
                    "indexed": true,
                    "internalType": "address",
                    "name": "approved",
                    "type": "address"
                },
                {
                    "indexed": true,
                    "internalType": "uint256",
                    "name": "tokenId",
                    "type": "uint256"
                }
            ],
            "name": "Approval",
            "type": "event"
        },
        {
            "anonymous": false,
            "inputs": [
                {
                    "indexed": true,
                    "internalType": "address",
                    "name": "owner",
                    "type": "address"
                },
                {
                    "indexed": true,
                    "internalType": "address",
                    "name": "operator",
                    "type": "address"
                },
                {
                    "indexed": false,
                    "internalType": "bool",
                    "name": "approved",
                    "type": "bool"
                }
            ],
            "name": "ApprovalForAll",
            "type": "event"
        },
        {
            "anonymous": false,
            "inputs": [
                {
                    "indexed": true,
                    "internalType": "address",
                    "name": "previousOwner",
                    "type": "address"
                },
                {
                    "indexed": true,
                    "internalType": "address",
                    "name": "newOwner",
                    "type": "address"
                }
            ],
            "name": "OwnershipTransferred",
            "type": "event"
        },
        {
            "anonymous": false,
            "inputs": [
                {
                    "indexed": true,
                    "internalType": "address",
                    "name": "from",
                    "type": "address"
                },
                {
                    "indexed": true,
                    "internalType": "address",
                    "name": "to",
                    "type": "address"
                },
                {
                    "indexed": true,
                    "internalType": "uint256",
                    "name": "tokenId",
                    "type": "uint256"
                }
            ],
            "name": "Transfer",
            "type": "event"
        },
        {
            "inputs": [
                {
                    "internalType": "address",
                    "name": "to",
                    "type": "address"
                },
                {
                    "internalType": "uint256",
                    "name": "tokenId",
                    "type": "uint256"
                }
            ],
            "name": "approve",
            "outputs": [],
            "stateMutability": "nonpayable",
            "type": "function"
        },
        {
            "inputs": [
                {
                    "internalType": "address",
                    "name": "owner",
                    "type": "address"
                }
            ],
            "name": "balanceOf",
            "outputs": [
                {
                    "internalType": "uint256",
                    "name": "",
                    "type": "uint256"
                }
            ],
            "stateMutability": "view",
            "type": "function"
        },
        {
            "inputs": [
                {
                    "internalType": "uint256",
                    "name": "tokenId",
                    "type": "uint256"
                }
            ],
            "name": "getApproved",
            "outputs": [
                {
                    "internalType": "address",
                    "name": "",
                    "type": "address"
                }
            ],
            "stateMutability": "view",
            "type": "function"
        },
        {
            "inputs": [
                {
                    "internalType": "address",
                    "name": "owner",
                    "type": "address"
                },
                {
                    "internalType": "address",
                    "name": "operator",
                    "type": "address"
                }
            ],
            "name": "isApprovedForAll",
            "outputs": [
                {
                    "internalType": "bool",
                    "name": "",
                    "type": "bool"
                }
            ],
            "stateMutability": "view",
            "type": "function"
        },
        {
            "inputs": [
                {
                    "internalType": "address",
                    "name": "to",
                    "type": "address"
                }
            ],
            "name": "mintNft",
            "outputs": [
                {
                    "internalType": "uint256",
                    "name": "",
                    "type": "uint256"
                }
            ],
            "stateMutability": "nonpayable",
            "type": "function"
        },
        {
            "inputs": [],
            "name": "name",
            "outputs": [
                {
                    "internalType": "string",
                    "name": "",
                    "type": "string"
                }
            ],
            "stateMutability": "view",
            "type": "function"
        },
        {
            "inputs": [],
            "name": "owner",
            "outputs": [
                {
                    "internalType": "address",
                    "name": "",
                    "type": "address"
                }
            ],
            "stateMutability": "view",
            "type": "function"
        },
        {
            "inputs": [
                {
                    "internalType": "uint256",
                    "name": "tokenId",
                    "type": "uint256"
                }
            ],
            "name": "ownerOf",
            "outputs": [
                {
                    "internalType": "address",
                    "name": "",
                    "type": "address"
                }
            ],
            "stateMutability": "view",
            "type": "function"
        },
        {
            "inputs": [],
            "name": "renounceOwnership",
            "outputs": [],
            "stateMutability": "nonpayable",
            "type": "function"
        },
        {
            "inputs": [
                {
                    "internalType": "address",
                    "name": "from",
                    "type": "address"
                },
                {
                    "internalType": "address",
                    "name": "to",
                    "type": "address"
                },
                {
                    "internalType": "uint256",
                    "name": "tokenId",
                    "type": "uint256"
                }
            ],
            "name": "safeTransferFrom",
            "outputs": [],
            "stateMutability": "nonpayable",
            "type": "function"
        },
        {
            "inputs": [
                {
                    "internalType": "address",
                    "name": "from",
                    "type": "address"
                },
                {
                    "internalType": "address",
                    "name": "to",
                    "type": "address"
                },
                {
                    "internalType": "uint256",
                    "name": "tokenId",
                    "type": "uint256"
                },
                {
                    "internalType": "bytes",
                    "name": "data",
                    "type": "bytes"
                }
            ],
            "name": "safeTransferFrom",
            "outputs": [],
            "stateMutability": "nonpayable",
            "type": "function"
        },
        {
            "inputs": [
                {
                    "internalType": "address",
                    "name": "operator",
                    "type": "address"
                },
                {
                    "internalType": "bool",
                    "name": "approved",
                    "type": "bool"
                }
            ],
            "name": "setApprovalForAll",
            "outputs": [],
            "stateMutability": "nonpayable",
            "type": "function"
        },
        {
            "inputs": [
                {
                    "internalType": "bytes4",
                    "name": "interfaceId",
                    "type": "bytes4"
                }
            ],
            "name": "supportsInterface",
            "outputs": [
                {
                    "internalType": "bool",
                    "name": "",
                    "type": "bool"
                }
            ],
            "stateMutability": "view",
            "type": "function"
        },
        {
            "inputs": [],
            "name": "symbol",
            "outputs": [
                {
                    "internalType": "string",
                    "name": "",
                    "type": "string"
                }
            ],
            "stateMutability": "view",
            "type": "function"
        },
        {
            "inputs": [],
            "name": "tokenId",
            "outputs": [
                {
                    "internalType": "uint256",
                    "name": "",
                    "type": "uint256"
                }
            ],
            "stateMutability": "view",
            "type": "function"
        },
        {
            "inputs": [
                {
                    "internalType": "uint256",
                    "name": "tokenId",
                    "type": "uint256"
                }
            ],
            "name": "tokenURI",
            "outputs": [
                {
                    "internalType": "string",
                    "name": "",
                    "type": "string"
                }
            ],
            "stateMutability": "view",
            "type": "function"
        },
        {
            "inputs": [
                {
                    "internalType": "address",
                    "name": "from",
                    "type": "address"
                },
                {
                    "internalType": "address",
                    "name": "to",
                    "type": "address"
                },
                {
                    "internalType": "uint256",
                    "name": "tokenId",
                    "type": "uint256"
                }
            ],
            "name": "transferFrom",
            "outputs": [],
            "stateMutability": "nonpayable",
            "type": "function"
        },
        {
            "inputs": [
                {
                    "internalType": "address",
                    "name": "newOwner",
                    "type": "address"
                }
            ],
            "name": "transferOwnership",
            "outputs": [],
            "stateMutability": "nonpayable",
            "type": "function"
        }
    ],
    "bytecode": "60806040523480156200001157600080fd5b506040518060400160405280600a815260200169159bdb18d85b9bd3919560b21b815250604051806040016040528060058152602001641590d3919560da1b815250816000908162000064919062000191565b50600162000073828262000191565b505050620000906200008a6200009660201b60201c565b6200009a565b6200025d565b3390565b600680546001600160a01b038381166001600160a01b0319831681179093556040519116919082907f8be0079c531659141344cd1fd0a4f28419497f9722a3daafe3b4186f6b6457e090600090a35050565b634e487b7160e01b600052604160045260246000fd5b600181811c908216806200011757607f821691505b6020821081036200013857634e487b7160e01b600052602260045260246000fd5b50919050565b601f8211156200018c57600081815260208120601f850160051c81016020861015620001675750805b601f850160051c820191505b81811015620001885782815560010162000173565b5050505b505050565b81516001600160401b03811115620001ad57620001ad620000ec565b620001c581620001be845462000102565b846200013e565b602080601f831160018114620001fd5760008415620001e45750858301515b600019600386901b1c1916600185901b17855562000188565b600085815260208120601f198616915b828110156200022e578886015182559484019460019091019084016200020d565b50858210156200024d5787850151600019600388901b60f8161c191681555b5050505050600190811b01905550565b611584806200026d6000396000f3fe608060405234801561001057600080fd5b50600436106101165760003560e01c8063715018a6116100a2578063b88d4fde11610071578063b88d4fde1461022f578063c87b56dd14610242578063e985e9c514610255578063e9c2e14b14610268578063f2fde38b1461027b57600080fd5b8063715018a6146101fb5780638da5cb5b1461020357806395d89b4114610214578063a22cb4651461021c57600080fd5b806317d70f7c116100e957806317d70f7c1461019857806323b872dd146101af57806342842e0e146101c25780636352211e146101d557806370a08231146101e857600080fd5b806301ffc9a71461011b57806306fdde0314610143578063081812fc14610158578063095ea7b314610183575b600080fd5b61012e6101293660046110d9565b61028e565b60405190151581526020015b60405180910390f35b61014b6102e0565b60405161013a9190611146565b61016b610166366004611159565b610372565b6040516001600160a01b03909116815260200161013a565b610196610191366004611189565b610399565b005b6101a160085481565b60405190815260200161013a565b6101966101bd3660046111b3565b6104b3565b6101966101d03660046111b3565b6104e4565b61016b6101e3366004611159565b6104ff565b6101a16101f63660046111ef565b61055f565b6101966105e5565b6006546001600160a01b031661016b565b61014b6105f9565b61019661022a36600461120a565b610608565b61019661023d36600461125c565b610617565b61014b610250366004611159565b61064f565b61012e610263366004611338565b6106c3565b6101a16102763660046111ef565b6106f1565b6101966102893660046111ef565b610726565b60006001600160e01b031982166380ac58cd60e01b14806102bf57506001600160e01b03198216635b5e139f60e01b145b806102da57506301ffc9a760e01b6001600160e01b03198316145b92915050565b6060600080546102ef9061136b565b80601f016020809104026020016040519081016040528092919081815260200182805461031b9061136b565b80156103685780601f1061033d57610100808354040283529160200191610368565b820191906000526020600020905b81548152906001019060200180831161034b57829003601f168201915b5050505050905090565b600061037d8261079f565b506000908152600460205260409020546001600160a01b031690565b60006103a4826104ff565b9050806001600160a01b0316836001600160a01b0316036104165760405162461bcd60e51b815260206004820152602160248201527f4552433732313a20617070726f76616c20746f2063757272656e74206f776e656044820152603960f91b60648201526084015b60405180910390fd5b336001600160a01b0382161480610432575061043281336106c3565b6104a45760405162461bcd60e51b815260206004820152603d60248201527f4552433732313a20617070726f76652063616c6c6572206973206e6f7420746f60448201527f6b656e206f776e6572206f7220617070726f76656420666f7220616c6c000000606482015260840161040d565b6104ae83836107fe565b505050565b6104bd338261086c565b6104d95760405162461bcd60e51b815260040161040d906113a5565b6104ae8383836108cb565b6104ae83838360405180602001604052806000815250610617565b6000818152600260205260408120546001600160a01b0316806102da5760405162461bcd60e51b8152602060048201526018602482015277115490cdcc8c4e881a5b9d985b1a59081d1bdad95b88125160421b604482015260640161040d565b60006001600160a01b0382166105c95760405162461bcd60e51b815260206004820152602960248201527f4552433732313a2061646472657373207a65726f206973206e6f7420612076616044820152683634b21037bbb732b960b91b606482015260840161040d565b506001600160a01b031660009081526003602052604090205490565b6105ed610a3c565b6105f76000610a96565b565b6060600180546102ef9061136b565b610613338383610ae8565b5050565b610621338361086c565b61063d5760405162461bcd60e51b815260040161040d906113a5565b61064984848484610bb6565b50505050565b606061065a8261079f565b600061067160408051602081019091526000815290565b9050600081511161069157604051806020016040528060008152506106bc565b8061069b84610be9565b6040516020016106ac9291906113f2565b6040516020818303038152906040525b9392505050565b6001600160a01b03918216600090815260056020908152604080832093909416825291909152205460ff1690565b60006106fb610a3c565b600754600881905561070e908390610c7c565b61071c600780546001019055565b506008545b919050565b61072e610a3c565b6001600160a01b0381166107935760405162461bcd60e51b815260206004820152602660248201527f4f776e61626c653a206e6577206f776e657220697320746865207a65726f206160448201526564647265737360d01b606482015260840161040d565b61079c81610a96565b50565b6000818152600260205260409020546001600160a01b031661079c5760405162461bcd60e51b8152602060048201526018602482015277115490cdcc8c4e881a5b9d985b1a59081d1bdad95b88125160421b604482015260640161040d565b600081815260046020526040902080546001600160a01b0319166001600160a01b0384169081179091558190610833826104ff565b6001600160a01b03167f8c5be1e5ebec7d5bd14f71427d1e84f3dd0314c0f7b2291e5b200ac8c7c3b92560405160405180910390a45050565b600080610878836104ff565b9050806001600160a01b0316846001600160a01b0316148061089f575061089f81856106c3565b806108c35750836001600160a01b03166108b884610372565b6001600160a01b0316145b949350505050565b826001600160a01b03166108de826104ff565b6001600160a01b0316146109045760405162461bcd60e51b815260040161040d90611421565b6001600160a01b0382166109665760405162461bcd60e51b8152602060048201526024808201527f4552433732313a207472616e7366657220746f20746865207a65726f206164646044820152637265737360e01b606482015260840161040d565b6109738383836001610c96565b826001600160a01b0316610986826104ff565b6001600160a01b0316146109ac5760405162461bcd60e51b815260040161040d90611421565b600081815260046020908152604080832080546001600160a01b03199081169091556001600160a01b0387811680865260038552838620805460001901905590871680865283862080546001019055868652600290945282852080549092168417909155905184937fddf252ad1be2c89b69c2b068fc378daa952ba7f163c4a11628f55a4df523b3ef91a4505050565b6006546001600160a01b031633146105f75760405162461bcd60e51b815260206004820181905260248201527f4f776e61626c653a2063616c6c6572206973206e6f7420746865206f776e6572604482015260640161040d565b600680546001600160a01b038381166001600160a01b0319831681179093556040519116919082907f8be0079c531659141344cd1fd0a4f28419497f9722a3daafe3b4186f6b6457e090600090a35050565b816001600160a01b0316836001600160a01b031603610b495760405162461bcd60e51b815260206004820152601960248201527f4552433732313a20617070726f766520746f2063616c6c657200000000000000604482015260640161040d565b6001600160a01b03838116600081815260056020908152604080832094871680845294825291829020805460ff191686151590811790915591519182527f17307eab39ab6107e8899845ad3d59bd9653f200f220920489ca2b5937696c31910160405180910390a3505050565b610bc18484846108cb565b610bcd84848484610d1e565b6106495760405162461bcd60e51b815260040161040d90611466565b60606000610bf683610e1f565b600101905060008167ffffffffffffffff811115610c1657610c16611246565b6040519080825280601f01601f191660200182016040528015610c40576020820181803683370190505b5090508181016020015b600019016f181899199a1a9b1b9c1cb0b131b232b360811b600a86061a8153600a8504945084610c4a57509392505050565b610613828260405180602001604052806000815250610ef7565b6001811115610649576001600160a01b03841615610cdc576001600160a01b03841660009081526003602052604081208054839290610cd69084906114ce565b90915550505b6001600160a01b03831615610649576001600160a01b03831660009081526003602052604081208054839290610d139084906114e1565b909155505050505050565b60006001600160a01b0384163b15610e1457604051630a85bd0160e11b81526001600160a01b0385169063150b7a0290610d629033908990889088906004016114f4565b6020604051808303816000875af1925050508015610d9d575060408051601f3d908101601f19168201909252610d9a91810190611531565b60015b610dfa573d808015610dcb576040519150601f19603f3d011682016040523d82523d6000602084013e610dd0565b606091505b508051600003610df25760405162461bcd60e51b815260040161040d90611466565b805181602001fd5b6001600160e01b031916630a85bd0160e11b1490506108c3565b506001949350505050565b60008072184f03e93ff9f4daa797ed6e38ed64bf6a1f0160401b8310610e5e5772184f03e93ff9f4daa797ed6e38ed64bf6a1f0160401b830492506040015b6d04ee2d6d415b85acef81000000008310610e8a576d04ee2d6d415b85acef8100000000830492506020015b662386f26fc100008310610ea857662386f26fc10000830492506010015b6305f5e1008310610ec0576305f5e100830492506008015b6127108310610ed457612710830492506004015b60648310610ee6576064830492506002015b600a83106102da5760010192915050565b610f018383610f2a565b610f0e6000848484610d1e565b6104ae5760405162461bcd60e51b815260040161040d90611466565b6001600160a01b038216610f805760405162461bcd60e51b815260206004820181905260248201527f4552433732313a206d696e7420746f20746865207a65726f2061646472657373604482015260640161040d565b6000818152600260205260409020546001600160a01b031615610fe55760405162461bcd60e51b815260206004820152601c60248201527f4552433732313a20746f6b656e20616c7265616479206d696e74656400000000604482015260640161040d565b610ff3600083836001610c96565b6000818152600260205260409020546001600160a01b0316156110585760405162461bcd60e51b815260206004820152601c60248201527f4552433732313a20746f6b656e20616c7265616479206d696e74656400000000604482015260640161040d565b6001600160a01b038216600081815260036020908152604080832080546001019055848352600290915280822080546001600160a01b0319168417905551839291907fddf252ad1be2c89b69c2b068fc378daa952ba7f163c4a11628f55a4df523b3ef908290a45050565b6001600160e01b03198116811461079c57600080fd5b6000602082840312156110eb57600080fd5b81356106bc816110c3565b60005b838110156111115781810151838201526020016110f9565b50506000910152565b600081518084526111328160208601602086016110f6565b601f01601f19169290920160200192915050565b6020815260006106bc602083018461111a565b60006020828403121561116b57600080fd5b5035919050565b80356001600160a01b038116811461072157600080fd5b6000806040838503121561119c57600080fd5b6111a583611172565b946020939093013593505050565b6000806000606084860312156111c857600080fd5b6111d184611172565b92506111df60208501611172565b9150604084013590509250925092565b60006020828403121561120157600080fd5b6106bc82611172565b6000806040838503121561121d57600080fd5b61122683611172565b91506020830135801515811461123b57600080fd5b809150509250929050565b634e487b7160e01b600052604160045260246000fd5b6000806000806080858703121561127257600080fd5b61127b85611172565b935061128960208601611172565b925060408501359150606085013567ffffffffffffffff808211156112ad57600080fd5b818701915087601f8301126112c157600080fd5b8135818111156112d3576112d3611246565b604051601f8201601f19908116603f011681019083821181831017156112fb576112fb611246565b816040528281528a602084870101111561131457600080fd5b82602086016020830137600060208483010152809550505050505092959194509250565b6000806040838503121561134b57600080fd5b61135483611172565b915061136260208401611172565b90509250929050565b600181811c9082168061137f57607f821691505b60208210810361139f57634e487b7160e01b600052602260045260246000fd5b50919050565b6020808252602d908201527f4552433732313a2063616c6c6572206973206e6f7420746f6b656e206f776e6560408201526c1c881bdc88185c1c1c9bdd9959609a1b606082015260800190565b600083516114048184602088016110f6565b8351908301906114188183602088016110f6565b01949350505050565b60208082526025908201527f4552433732313a207472616e736665722066726f6d20696e636f72726563742060408201526437bbb732b960d91b606082015260800190565b60208082526032908201527f4552433732313a207472616e7366657220746f206e6f6e20455243373231526560408201527131b2b4bb32b91034b6b83632b6b2b73a32b960711b606082015260800190565b634e487b7160e01b600052601160045260246000fd5b818103818111156102da576102da6114b8565b808201808211156102da576102da6114b8565b6001600160a01b03858116825284166020820152604081018390526080606082018190526000906115279083018461111a565b9695505050505050565b60006020828403121561154357600080fd5b81516106bc816110c356fea26469706673582212200dcae756393dc6fd0e0ab8dbcaefb45fd7fa2bd97856cf00011ed4da5a06acac64736f6c63430008110033",
    "sourcePath": "c:/Users/Administrator/BLOCKCHAIN_GitHub/SOLIDITY/Projects/ETH_DENVER_BOOTCAMP/Homework_9/src/VolcanoNFT.sol",
    "compiler": {
        "name": "solc",
        "version": "0.8.17+commit.8df45f5f"
    },
    "functionHashes": {
        "approve(address,uint256)": "095ea7b3",
        "balanceOf(address)": "70a08231",
        "getApproved(uint256)": "081812fc",
        "isApprovedForAll(address,address)": "e985e9c5",
        "mintNft(address)": "e9c2e14b",
        "name()": "06fdde03",
        "owner()": "8da5cb5b",
        "ownerOf(uint256)": "6352211e",
        "renounceOwnership()": "715018a6",
        "safeTransferFrom(address,address,uint256)": "42842e0e",
        "safeTransferFrom(address,address,uint256,bytes)": "b88d4fde",
        "setApprovalForAll(address,bool)": "a22cb465",
        "supportsInterface(bytes4)": "01ffc9a7",
        "symbol()": "95d89b41",
        "tokenId()": "17d70f7c",
        "tokenURI(uint256)": "c87b56dd",
        "transferFrom(address,address,uint256)": "23b872dd",
        "transferOwnership(address)": "f2fde38b"
    },
    "gasEstimates": {
        "creation": {
            "codeDepositCost": "1101600",
            "executionCost": "infinite",
            "totalCost": "infinite"
        },
        "external": {
            "approve(address,uint256)": "infinite",
            "balanceOf(address)": "2700",
            "getApproved(uint256)": "4792",
            "isApprovedForAll(address,address)": "infinite",
            "mintNft(address)": "infinite",
            "name()": "infinite",
            "owner()": "2376",
            "ownerOf(uint256)": "2627",
            "renounceOwnership()": "infinite",
            "safeTransferFrom(address,address,uint256)": "infinite",
            "safeTransferFrom(address,address,uint256,bytes)": "infinite",
            "setApprovalForAll(address,bool)": "26772",
            "supportsInterface(bytes4)": "534",
            "symbol()": "infinite",
            "tokenId()": "2318",
            "tokenURI(uint256)": "infinite",
            "transferFrom(address,address,uint256)": "infinite",
            "transferOwnership(address)": "28446"
        }
    }
}