{
    "contractName": "Constants",
    "abi": [
        {
            "inputs": [],
            "name": "basicFlag",
            "outputs": [
                {
                    "internalType": "uint256",
                    "name": "",
                    "type": "uint256"
                }
            ],
            "stateMutability": "view",
            "type": "function"
        },
        {
            "inputs": [],
            "name": "dividendFlag",
            "outputs": [
                {
                    "internalType": "uint256",
                    "name": "",
                    "type": "uint256"
                }
            ],
            "stateMutability": "view",
            "type": "function"
        },
        {
            "inputs": [],
            "name": "tradeFlag",
            "outputs": [
                {
                    "internalType": "uint256",
                    "name": "",
                    "type": "uint256"
                }
            ],
            "stateMutability": "view",
            "type": "function"
        }
    ],
    "bytecode": "6080604052600160005560006001556001600255348015601e57600080fd5b5060a18061002d6000396000f3fe6080604052348015600f57600080fd5b5060043610603c5760003560e01c80632c01c922146041578063745b07c814605b578063c43982cc146063575b600080fd5b604960015481565b60405190815260200160405180910390f35b604960025481565b60496000548156fea264697066735822122077a71d208fcce73b94c0ce9156e412bd0f4f947d208495e5366ba1bcf0af227864736f6c63430008110033",
    "sourcePath": "c:/Users/Administrator/BLOCKCHAIN_GitHub/SOLIDITY/Projects/ETH_DENVER_BOOTCAMP/Homework_12/Exercises/Gas/contracts/Gas.sol",
    "compiler": {
        "name": "solc",
        "version": "0.8.17+commit.8df45f5f"
    },
    "functionHashes": {
        "basicFlag()": "2c01c922",
        "dividendFlag()": "745b07c8",
        "tradeFlag()": "c43982cc"
    },
    "gasEstimates": {
        "creation": {
            "codeDepositCost": "32200",
            "executionCost": "49305",
            "totalCost": "81505"
        },
        "external": {
            "basicFlag()": "2261",
            "dividendFlag()": "2283",
            "tradeFlag()": "2305"
        }
    }
}