{
    "contractName": "GasContract",
    "abi": [
        {
            "inputs": [
                {
                    "internalType": "address[]",
                    "name": "_admins",
                    "type": "address[]"
                },
                {
                    "internalType": "uint256",
                    "name": "_totalSupply",
                    "type": "uint256"
                }
            ],
            "stateMutability": "nonpayable",
            "type": "constructor"
        },
        {
            "anonymous": false,
            "inputs": [
                {
                    "indexed": false,
                    "internalType": "address",
                    "name": "userAddress",
                    "type": "address"
                },
                {
                    "indexed": false,
                    "internalType": "uint256",
                    "name": "tier",
                    "type": "uint256"
                }
            ],
            "name": "AddedToWhitelist",
            "type": "event"
        },
        {
            "anonymous": false,
            "inputs": [
                {
                    "indexed": true,
                    "internalType": "address",
                    "name": "previousOwner",
                    "type": "address"
                },
                {
                    "indexed": true,
                    "internalType": "address",
                    "name": "newOwner",
                    "type": "address"
                }
            ],
            "name": "OwnershipTransferred",
            "type": "event"
        },
        {
            "anonymous": false,
            "inputs": [
                {
                    "indexed": false,
                    "internalType": "address",
                    "name": "admin",
                    "type": "address"
                },
                {
                    "indexed": false,
                    "internalType": "uint256",
                    "name": "ID",
                    "type": "uint256"
                },
                {
                    "indexed": false,
                    "internalType": "uint256",
                    "name": "amount",
                    "type": "uint256"
                },
                {
                    "indexed": false,
                    "internalType": "string",
                    "name": "recipient",
                    "type": "string"
                }
            ],
            "name": "PaymentUpdated",
            "type": "event"
        },
        {
            "anonymous": false,
            "inputs": [
                {
                    "indexed": false,
                    "internalType": "address",
                    "name": "recipient",
                    "type": "address"
                },
                {
                    "indexed": false,
                    "internalType": "uint256",
                    "name": "amount",
                    "type": "uint256"
                }
            ],
            "name": "Transfer",
            "type": "event"
        },
        {
            "anonymous": false,
            "inputs": [
                {
                    "indexed": true,
                    "internalType": "address",
                    "name": "",
                    "type": "address"
                }
            ],
            "name": "WhiteListTransfer",
            "type": "event"
        },
        {
            "anonymous": false,
            "inputs": [
                {
                    "indexed": true,
                    "internalType": "address",
                    "name": "",
                    "type": "address"
                },
                {
                    "indexed": true,
                    "internalType": "uint256",
                    "name": "",
                    "type": "uint256"
                }
            ],
            "name": "supplyChanged",
            "type": "event"
        },
        {
            "inputs": [
                {
                    "internalType": "address",
                    "name": "_updateAddress",
                    "type": "address"
                },
                {
                    "internalType": "bool",
                    "name": "_tradeMode",
                    "type": "bool"
                }
            ],
            "name": "addHistory",
            "outputs": [
                {
                    "internalType": "bool",
                    "name": "status_",
                    "type": "bool"
                },
                {
                    "internalType": "bool",
                    "name": "tradeMode_",
                    "type": "bool"
                }
            ],
            "stateMutability": "nonpayable",
            "type": "function"
        },
        {
            "inputs": [
                {
                    "internalType": "address",
                    "name": "_userAddrs",
                    "type": "address"
                },
                {
                    "internalType": "uint256",
                    "name": "_tier",
                    "type": "uint256"
                }
            ],
            "name": "addToWhitelist",
            "outputs": [],
            "stateMutability": "nonpayable",
            "type": "function"
        },
        {
            "inputs": [
                {
                    "internalType": "uint256",
                    "name": "",
                    "type": "uint256"
                }
            ],
            "name": "administrators",
            "outputs": [
                {
                    "internalType": "address",
                    "name": "",
                    "type": "address"
                }
            ],
            "stateMutability": "view",
            "type": "function"
        },
        {
            "inputs": [
                {
                    "internalType": "address",
                    "name": "_user",
                    "type": "address"
                }
            ],
            "name": "balanceOf",
            "outputs": [
                {
                    "internalType": "uint256",
                    "name": "balance_",
                    "type": "uint256"
                }
            ],
            "stateMutability": "view",
            "type": "function"
        },
        {
            "inputs": [
                {
                    "internalType": "address",
                    "name": "",
                    "type": "address"
                }
            ],
            "name": "balances",
            "outputs": [
                {
                    "internalType": "uint256",
                    "name": "",
                    "type": "uint256"
                }
            ],
            "stateMutability": "view",
            "type": "function"
        },
        {
            "inputs": [],
            "name": "basicFlag",
            "outputs": [
                {
                    "internalType": "uint256",
                    "name": "",
                    "type": "uint256"
                }
            ],
            "stateMutability": "view",
            "type": "function"
        },
        {
            "inputs": [
                {
                    "internalType": "address",
                    "name": "_user",
                    "type": "address"
                }
            ],
            "name": "checkForAdmin",
            "outputs": [
                {
                    "internalType": "bool",
                    "name": "admin_",
                    "type": "bool"
                }
            ],
            "stateMutability": "view",
            "type": "function"
        },
        {
            "inputs": [],
            "name": "contractOwner",
            "outputs": [
                {
                    "internalType": "address",
                    "name": "",
                    "type": "address"
                }
            ],
            "stateMutability": "view",
            "type": "function"
        },
        {
            "inputs": [],
            "name": "dividendFlag",
            "outputs": [
                {
                    "internalType": "uint256",
                    "name": "",
                    "type": "uint256"
                }
            ],
            "stateMutability": "view",
            "type": "function"
        },
        {
            "inputs": [],
            "name": "getPaymentHistory",
            "outputs": [
                {
                    "components": [
                        {
                            "internalType": "uint256",
                            "name": "lastUpdate",
                            "type": "uint256"
                        },
                        {
                            "internalType": "address",
                            "name": "updatedBy",
                            "type": "address"
                        },
                        {
                            "internalType": "uint256",
                            "name": "blockNumber",
                            "type": "uint256"
                        }
                    ],
                    "internalType": "struct GasContract.History[]",
                    "name": "paymentHistory_",
                    "type": "tuple[]"
                }
            ],
            "stateMutability": "payable",
            "type": "function"
        },
        {
            "inputs": [
                {
                    "internalType": "address",
                    "name": "_user",
                    "type": "address"
                }
            ],
            "name": "getPayments",
            "outputs": [
                {
                    "components": [
                        {
                            "internalType": "enum GasContract.PaymentType",
                            "name": "paymentType",
                            "type": "uint8"
                        },
                        {
                            "internalType": "uint256",
                            "name": "paymentID",
                            "type": "uint256"
                        },
                        {
                            "internalType": "bool",
                            "name": "adminUpdated",
                            "type": "bool"
                        },
                        {
                            "internalType": "string",
                            "name": "recipientName",
                            "type": "string"
                        },
                        {
                            "internalType": "address",
                            "name": "recipient",
                            "type": "address"
                        },
                        {
                            "internalType": "address",
                            "name": "admin",
                            "type": "address"
                        },
                        {
                            "internalType": "uint256",
                            "name": "amount",
                            "type": "uint256"
                        }
                    ],
                    "internalType": "struct GasContract.Payment[]",
                    "name": "payments_",
                    "type": "tuple[]"
                }
            ],
            "stateMutability": "view",
            "type": "function"
        },
        {
            "inputs": [],
            "name": "getTradingMode",
            "outputs": [
                {
                    "internalType": "bool",
                    "name": "mode_",
                    "type": "bool"
                }
            ],
            "stateMutability": "view",
            "type": "function"
        },
        {
            "inputs": [
                {
                    "internalType": "address",
                    "name": "",
                    "type": "address"
                }
            ],
            "name": "isOddWhitelistUser",
            "outputs": [
                {
                    "internalType": "uint256",
                    "name": "",
                    "type": "uint256"
                }
            ],
            "stateMutability": "view",
            "type": "function"
        },
        {
            "inputs": [],
            "name": "isReady",
            "outputs": [
                {
                    "internalType": "bool",
                    "name": "",
                    "type": "bool"
                }
            ],
            "stateMutability": "view",
            "type": "function"
        },
        {
            "inputs": [],
            "name": "owner",
            "outputs": [
                {
                    "internalType": "address",
                    "name": "",
                    "type": "address"
                }
            ],
            "stateMutability": "view",
            "type": "function"
        },
        {
            "inputs": [],
            "name": "paymentCounter",
            "outputs": [
                {
                    "internalType": "uint256",
                    "name": "",
                    "type": "uint256"
                }
            ],
            "stateMutability": "view",
            "type": "function"
        },
        {
            "inputs": [
                {
                    "internalType": "uint256",
                    "name": "",
                    "type": "uint256"
                }
            ],
            "name": "paymentHistory",
            "outputs": [
                {
                    "internalType": "uint256",
                    "name": "lastUpdate",
                    "type": "uint256"
                },
                {
                    "internalType": "address",
                    "name": "updatedBy",
                    "type": "address"
                },
                {
                    "internalType": "uint256",
                    "name": "blockNumber",
                    "type": "uint256"
                }
            ],
            "stateMutability": "view",
            "type": "function"
        },
        {
            "inputs": [
                {
                    "internalType": "address",
                    "name": "",
                    "type": "address"
                },
                {
                    "internalType": "uint256",
                    "name": "",
                    "type": "uint256"
                }
            ],
            "name": "payments",
            "outputs": [
                {
                    "internalType": "enum GasContract.PaymentType",
                    "name": "paymentType",
                    "type": "uint8"
                },
                {
                    "internalType": "uint256",
                    "name": "paymentID",
                    "type": "uint256"
                },
                {
                    "internalType": "bool",
                    "name": "adminUpdated",
                    "type": "bool"
                },
                {
                    "internalType": "string",
                    "name": "recipientName",
                    "type": "string"
                },
                {
                    "internalType": "address",
                    "name": "recipient",
                    "type": "address"
                },
                {
                    "internalType": "address",
                    "name": "admin",
                    "type": "address"
                },
                {
                    "internalType": "uint256",
                    "name": "amount",
                    "type": "uint256"
                }
            ],
            "stateMutability": "view",
            "type": "function"
        },
        {
            "inputs": [],
            "name": "renounceOwnership",
            "outputs": [],
            "stateMutability": "nonpayable",
            "type": "function"
        },
        {
            "inputs": [],
            "name": "totalSupply",
            "outputs": [
                {
                    "internalType": "uint256",
                    "name": "",
                    "type": "uint256"
                }
            ],
            "stateMutability": "view",
            "type": "function"
        },
        {
            "inputs": [],
            "name": "tradeFlag",
            "outputs": [
                {
                    "internalType": "uint256",
                    "name": "",
                    "type": "uint256"
                }
            ],
            "stateMutability": "view",
            "type": "function"
        },
        {
            "inputs": [],
            "name": "tradeMode",
            "outputs": [
                {
                    "internalType": "uint256",
                    "name": "",
                    "type": "uint256"
                }
            ],
            "stateMutability": "view",
            "type": "function"
        },
        {
            "inputs": [],
            "name": "tradePercent",
            "outputs": [
                {
                    "internalType": "uint256",
                    "name": "",
                    "type": "uint256"
                }
            ],
            "stateMutability": "view",
            "type": "function"
        },
        {
            "inputs": [
                {
                    "internalType": "address",
                    "name": "_recipient",
                    "type": "address"
                },
                {
                    "internalType": "uint256",
                    "name": "_amount",
                    "type": "uint256"
                },
                {
                    "internalType": "string",
                    "name": "_name",
                    "type": "string"
                }
            ],
            "name": "transfer",
            "outputs": [
                {
                    "internalType": "bool",
                    "name": "status_",
                    "type": "bool"
                }
            ],
            "stateMutability": "nonpayable",
            "type": "function"
        },
        {
            "inputs": [
                {
                    "internalType": "address",
                    "name": "newOwner",
                    "type": "address"
                }
            ],
            "name": "transferOwnership",
            "outputs": [],
            "stateMutability": "nonpayable",
            "type": "function"
        },
        {
            "inputs": [
                {
                    "internalType": "address",
                    "name": "_user",
                    "type": "address"
                },
                {
                    "internalType": "uint256",
                    "name": "_ID",
                    "type": "uint256"
                },
                {
                    "internalType": "uint256",
                    "name": "_amount",
                    "type": "uint256"
                },
                {
                    "internalType": "enum GasContract.PaymentType",
                    "name": "_type",
                    "type": "uint8"
                }
            ],
            "name": "updatePayment",
            "outputs": [],
            "stateMutability": "nonpayable",
            "type": "function"
        },
        {
            "inputs": [
                {
                    "internalType": "address",
                    "name": "",
                    "type": "address"
                }
            ],
            "name": "whiteListStruct",
            "outputs": [
                {
                    "internalType": "uint256",
                    "name": "valueA",
                    "type": "uint256"
                },
                {
                    "internalType": "uint256",
                    "name": "bigValue",
                    "type": "uint256"
                },
                {
                    "internalType": "uint256",
                    "name": "valueB",
                    "type": "uint256"
                }
            ],
            "stateMutability": "view",
            "type": "function"
        },
        {
            "inputs": [
                {
                    "internalType": "address",
                    "name": "_recipient",
                    "type": "address"
                },
                {
                    "internalType": "uint256",
                    "name": "_amount",
                    "type": "uint256"
                },
                {
                    "components": [
                        {
                            "internalType": "uint256",
                            "name": "valueA",
                            "type": "uint256"
                        },
                        {
                            "internalType": "uint256",
                            "name": "bigValue",
                            "type": "uint256"
                        },
                        {
                            "internalType": "uint256",
                            "name": "valueB",
                            "type": "uint256"
                        }
                    ],
                    "internalType": "struct GasContract.ImportantStruct",
                    "name": "_struct",
                    "type": "tuple"
                }
            ],
            "name": "whiteTransfer",
            "outputs": [],
            "stateMutability": "nonpayable",
            "type": "function"
        },
        {
            "inputs": [
                {
                    "internalType": "address",
                    "name": "",
                    "type": "address"
                }
            ],
            "name": "whitelist",
            "outputs": [
                {
                    "internalType": "uint256",
                    "name": "",
                    "type": "uint256"
                }
            ],
            "stateMutability": "view",
            "type": "function"
        }
    ],
    "bytecode": "6080604052600180805560006002819055600382905560048190556005819055600c600755600955600b556012805460ff191690553480156200004157600080fd5b5060405162002d0d38038062002d0d833981016040819052620000649162000361565b6200006f33620002de565b600880546001600160a01b03191633179055600481905560005b6005811015620002d55760006001600160a01b0316838281518110620000b357620000b36200043b565b60200260200101516001600160a01b031614620002c057828181518110620000df57620000df6200043b565b6020026020010151600d8260058110620000fd57620000fd6200043b565b0180546001600160a01b0319166001600160a01b0392831617905560085484519116908490839081106200013557620001356200043b565b60200260200101516001600160a01b03160362000170576004546008546001600160a01b0316600090815260066020526040902055620001b8565b6000600660008584815181106200018b576200018b6200043b565b60200260200101516001600160a01b03166001600160a01b03168152602001908152602001600020819055505b60085483516001600160a01b0390911690849083908110620001de57620001de6200043b565b60200260200101516001600160a01b0316036200023f576004548382815181106200020d576200020d6200043b565b60200260200101516001600160a01b031660008051602062002ced83398151915260405160405180910390a3620002c0565b60085483516001600160a01b03909116908490839081106200026557620002656200043b565b60200260200101516001600160a01b031614620002c05760008382815181106200029357620002936200043b565b60200260200101516001600160a01b031660008051602062002ced83398151915260405160405180910390a35b80620002cc8162000451565b91505062000089565b50505062000479565b600080546001600160a01b038381166001600160a01b0319831681178455604051919092169283917f8be0079c531659141344cd1fd0a4f28419497f9722a3daafe3b4186f6b6457e09190a35050565b634e487b7160e01b600052604160045260246000fd5b80516001600160a01b03811681146200035c57600080fd5b919050565b600080604083850312156200037557600080fd5b82516001600160401b03808211156200038d57600080fd5b818501915085601f830112620003a257600080fd5b8151602082821115620003b957620003b96200032e565b8160051b604051601f19603f83011681018181108682111715620003e157620003e16200032e565b6040529283528183019350848101820192898411156200040057600080fd5b948201945b838610156200042957620004198662000344565b8552948201949382019362000405565b97909101519698969750505050505050565b634e487b7160e01b600052603260045260246000fd5b6000600182016200047257634e487b7160e01b600052601160045260246000fd5b5060010190565b61286480620004896000396000f3fe6080604052600436106101c25760003560e01c80638da5cb5b116100f7578063ab63385c11610095578063cbd5d73f11610064578063cbd5d73f14610589578063ce606ee01461059f578063d89d1510146105bf578063f2fde38b146105df57600080fd5b8063ab63385c1461050b578063b52d15e21461053e578063b651bb611461055e578063c43982cc1461057357600080fd5b80639b19251a116100d15780639b19251a14610454578063a094a03114610481578063a30da0691461049b578063a5e047b8146104c857600080fd5b80638da5cb5b146103d65780638efcf5c0146104085780639a9f83831461043f57600080fd5b806356b8c7241161016457806370a082311161013e57806370a082311461035f578063715018a614610395578063745b07c8146103aa57806376840b60146103c057600080fd5b806356b8c724146102c25780635de45813146102f25780636fd47b441461034957600080fd5b806327df565a116101a057806327df565a1461023f57806327e235e31461025f5780632c01c9221461028c5780634e86eb16146102a257600080fd5b806318160ddd146101c75780631d6a1711146101f0578063214405fc1461021d575b600080fd5b3480156101d357600080fd5b506101dd60045481565b6040519081526020015b60405180910390f35b3480156101fc57600080fd5b5061021061020b366004611fa1565b6105ff565b6040516101e79190612041565b34801561022957600080fd5b5061023d610238366004612105565b610815565b005b34801561024b57600080fd5b5061023d61025a366004612145565b610beb565b34801561026b57600080fd5b506101dd61027a366004611fa1565b60066020526000908152604090205481565b34801561029857600080fd5b506101dd60025481565b3480156102ae57600080fd5b5061023d6102bd3660046121ce565b611078565b3480156102ce57600080fd5b506102e26102dd36600461221a565b61166c565b60405190151581526020016101e7565b3480156102fe57600080fd5b5061032e61030d366004611fa1565b60156020526000908152604090208054600182015460029092015490919083565b604080519384526020840192909252908201526060016101e7565b34801561035557600080fd5b506101dd60095481565b34801561036b57600080fd5b506101dd61037a366004611fa1565b6001600160a01b031660009081526006602052604090205490565b3480156103a157600080fd5b5061023d611a6f565b3480156103b657600080fd5b506101dd60035481565b3480156103cc57600080fd5b506101dd60055481565b3480156103e257600080fd5b506000546001600160a01b03165b6040516001600160a01b0390911681526020016101e7565b34801561041457600080fd5b506104286104233660046122a1565b611a83565b6040805192151583529015156020830152016101e7565b34801561044b57600080fd5b506102e2611c04565b34801561046057600080fd5b506101dd61046f366004611fa1565b600a6020526000908152604090205481565b34801561048d57600080fd5b506012546102e29060ff1681565b3480156104a757600080fd5b506101dd6104b6366004611fa1565b600c6020526000908152604090205481565b3480156104d457600080fd5b506104e86104e33660046122dd565b611c30565b604080519384526001600160a01b039092166020840152908201526060016101e7565b34801561051757600080fd5b5061052b610526366004612105565b611c6f565b6040516101e797969594939291906122f6565b34801561054a57600080fd5b506102e2610559366004611fa1565b611d67565b610566611dc0565b6040516101e7919061234a565b34801561057f57600080fd5b506101dd60015481565b34801561059557600080fd5b506101dd60075481565b3480156105ab57600080fd5b506008546103f0906001600160a01b031681565b3480156105cb57600080fd5b506103f06105da3660046122dd565b611e42565b3480156105eb57600080fd5b5061023d6105fa366004611fa1565b611e62565b60606001600160a01b0382166106985760405162461bcd60e51b815260206004820152604d60248201527f47617320436f6e7472616374202d206765745061796d656e74732066756e637460448201527f696f6e202d2055736572206d757374206861766520612076616c6964206e6f6e60648201526c207a65726f206164647265737360981b608482015260a4015b60405180910390fd5b6001600160a01b038216600090815260136020908152604080832080548251818502810185019093528083529193909284015b8282101561080a576000848152602090206040805160e08101909152600784029091018054829060ff16600481111561070657610706611fc3565b600481111561071757610717611fc3565b815260018201546020820152600282015460ff1615156040820152600382018054606090920191610747906123ac565b80601f0160208091040260200160405190810160405280929190818152602001828054610773906123ac565b80156107c05780601f10610795576101008083540402835291602001916107c0565b820191906000526020600020905b8154815290600101906020018083116107a357829003601f168201915b505050918352505060048201546001600160a01b039081166020808401919091526005840154909116604083015260069092015460609091015290825260019290920191016106cb565b505050509050919050565b3361081f81611d67565b15610a8b5761082d81611d67565b6108495760405162461bcd60e51b815260040161068f906123e6565b60ff82106108695760405162461bcd60e51b815260040161068f90612436565b6001600160a01b0383166000908152600a6020526040902082905560038211156108db576001600160a01b0383166000908152600a6020526040812080548492906108b59084906124c5565b90915550506001600160a01b0383166000908152600a6020526040902060039055610990565b81600103610931576001600160a01b0383166000908152600a60205260408120805484929061090b9084906124c5565b90915550506001600160a01b0383166000908152600a6020526040902060019055610990565b6000821180156109415750600382105b15610990576001600160a01b0383166000908152600a60205260408120805484929061096e9084906124c5565b90915550506001600160a01b0383166000908152600a60205260409020600290555b600b5460018190036109c0576000600b8190556001600160a01b0385168152600c60205260409020819055610a43565b806000036109ed576001600b556001600160a01b0384166000908152600c60205260409020819055610a43565b60405162461bcd60e51b815260206004820152602560248201527f436f6e7472616374206861636b65642c20696d706f7369626c652c2063616c6c60448201526402068656c760dc1b606482015260840161068f565b604080516001600160a01b0386168152602081018590527f62c1e066774519db9fe35767c15fc33df2f016675b7cc0c330ed185f286a2d52910160405180910390a150505050565b6008546001600160a01b0390811690821603610ac15760ff82106108695760405162461bcd60e51b815260040161068f90612436565b60405162461bcd60e51b81526020600482015260d460248201527f4572726f7220696e2047617320636f6e7472616374202d206f6e6c7941646d6960448201527f6e4f724f776e6572206d6f646966696572203a2072657665727420686170706560648201527f6e6564206265636175736520746865206f726967696e61746f72206f6620746860848201527f65207472616e73616374696f6e20776173206e6f74207468652061646d696e2c60a48201527f20616e6420667572746865726d6f7265206865207761736e277420746865206f60c48201527f776e6572206f662074686520636f6e74726163742c20736f2068652063616e6e60e48201527337ba10393ab7103a3434b990333ab731ba34b7b760611b6101048201526101240161068f565b505050565b336000818152600a6020526040902054819080610c965760405162461bcd60e51b815260206004820152605e60248201527f47617320436f6e747261637420436865636b496657686974654c69737465642060448201527f6d6f646966696572203a207265766572742068617070656e656420626563617560648201527f7365207468652075736572206973206e6f742077686974656c69737465640000608482015260a40161068f565b60048110610e065760405162461bcd60e51b81526020600482015261010860248201527f47617320436f6e747261637420436865636b496657686974654c69737465642060448201527f6d6f646966696572203a207265766572742068617070656e656420626563617560648201527f73652074686520757365722773207469657220697320696e636f72726563742c60848201527f2069742063616e6e6f74206265206f766572203420617320746865206f6e6c7960a48201527f20746965722077652068617665206172653a20312c20322c20333b207468657260c48201527f666f7265203420697320616e20696e76616c6964207469657220666f7220746860e48201527f6520776869746c697374206f66207468697320636f6e74726163742e206d616b6101048201527f65207375726520776869746c6973742074696572732077657265207365742063610124820152676f72726563746c7960c01b6101448201526101640161068f565b33600081815260066020526040902054861115610e9c5760405162461bcd60e51b815260206004820152604860248201527f47617320436f6e7472616374202d2077686974655472616e736665727320667560448201527f6e6374696f6e202d2053656e6465722068617320696e73756666696369656e746064820152672042616c616e636560c01b608482015260a40161068f565b60038611610f2b5760405162461bcd60e51b815260206004820152605060248201527f47617320436f6e7472616374202d2077686974655472616e736665727320667560448201527f6e6374696f6e202d20616d6f756e7420746f2073656e64206861766520746f2060648201526f626520626967676572207468616e203360801b608482015260a40161068f565b6001600160a01b03811660009081526006602052604081208054889290610f539084906124c5565b90915550506001600160a01b03871660009081526006602052604081208054889290610f809084906124de565b90915550506001600160a01b0381166000908152600a602090815260408083205460069092528220805491929091610fb99084906124de565b90915550506001600160a01b038082166000908152600a6020908152604080832054938b168352600690915281208054909190610ff79084906124c5565b909155505060408051606081018252600080825260208083018290529183018190526001600160a01b0380851682526015835283822089518155928901516001840155888401516002840155925191928a16917f98eaee7299e9cbfa56cf530fd3a0c6dfa0ccddf4f837b8f025651ad9594647b39190a25050505050505050565b3361108281611d67565b156113815761109081611d67565b6110ac5760405162461bcd60e51b815260040161068f906123e6565b600084116110cc5760405162461bcd60e51b815260040161068f906124f1565b600083116110ec5760405162461bcd60e51b815260040161068f90612559565b6001600160a01b0385166111125760405162461bcd60e51b815260040161068f906125c5565b3360005b6001600160a01b03871660009081526013602052604090205481101561137a576001600160a01b038716600090815260136020526040902080548791908390811061116357611163612648565b90600052602060002090600702016001015403611368576001600160a01b0387166000908152601360205260409020805460019190839081106111a8576111a8612648565b906000526020600020906007020160020160006101000a81548160ff0219169083151502179055508660136000896001600160a01b03166001600160a01b03168152602001908152602001600020828154811061120757611207612648565b6000918252602080832060079290920290910160050180546001600160a01b0319166001600160a01b03948516179055918916815260139091526040902080548591908390811061125a5761125a612648565b60009182526020909120600790910201805460ff1916600183600481111561128457611284611fc3565b02179055506001600160a01b03871660009081526013602052604090208054869190839081106112b6576112b6612648565b90600052602060002090600702016006018190555060006112d5611c04565b90506112e18882611a83565b50507ff41efc8c6b66b2a03b14fd69b985ad19a0b9245f24936163018e9ad06d4c143e838888601360008d6001600160a01b03166001600160a01b03168152602001908152602001600020868154811061133d5761133d612648565b906000526020600020906007020160030160405161135e949392919061265e565b60405180910390a1505b8061137281612707565b915050611116565b5050611665565b6008546001600160a01b0390811690821603610ac157600084116113b75760405162461bcd60e51b815260040161068f906124f1565b600083116113d75760405162461bcd60e51b815260040161068f90612559565b6001600160a01b0385166113fd5760405162461bcd60e51b815260040161068f906125c5565b3360005b6001600160a01b03871660009081526013602052604090205481101561137a576001600160a01b038716600090815260136020526040902080548791908390811061144e5761144e612648565b90600052602060002090600702016001015403611653576001600160a01b03871660009081526013602052604090208054600191908390811061149357611493612648565b906000526020600020906007020160020160006101000a81548160ff0219169083151502179055508660136000896001600160a01b03166001600160a01b0316815260200190815260200160002082815481106114f2576114f2612648565b6000918252602080832060079290920290910160050180546001600160a01b0319166001600160a01b03948516179055918916815260139091526040902080548591908390811061154557611545612648565b60009182526020909120600790910201805460ff1916600183600481111561156f5761156f611fc3565b02179055506001600160a01b03871660009081526013602052604090208054869190839081106115a1576115a1612648565b90600052602060002090600702016006018190555060006115c0611c04565b90506115cc8882611a83565b50507ff41efc8c6b66b2a03b14fd69b985ad19a0b9245f24936163018e9ad06d4c143e838888601360008d6001600160a01b03166001600160a01b03168152602001908152602001600020868154811061162857611628612648565b9060005260206000209060070201600301604051611649949392919061265e565b60405180910390a1505b8061165d81612707565b915050611401565b5050505050565b336000818152600660205260408120549091908511156116ff5760405162461bcd60e51b815260206004820152604260248201527f47617320436f6e7472616374202d205472616e736665722066756e6374696f6e60448201527f202d2053656e6465722068617320696e73756666696369656e742042616c616e606482015261636560f01b608482015260a40161068f565b600983106117ad5760405162461bcd60e51b815260206004820152606960248201527f47617320436f6e7472616374202d205472616e736665722066756e6374696f6e60448201527f202d202054686520726563697069656e74206e616d6520697320746f6f206c6f60648201527f6e672c2074686572652069732061206d6178206c656e677468206f662038206360848201526868617261637465727360b81b60a482015260c40161068f565b6001600160a01b038116600090815260066020526040812080548792906117d59084906124c5565b90915550506001600160a01b038616600090815260066020526040812080548792906118029084906124de565b9091555050604080516001600160a01b0388168152602081018790527f69ca02dd4edd7bf0a4abb9ed3b7af3f14778db5d61921c7dc7cd545266326de2910160405180910390a16040805160e0810182526000602080830182905282840182905260608084015260a0830191909152600182526001600160a01b038916608083015260c082018890528251601f8701829004820281018201909352858352909190869086908190840183828082843760009201829052506060860194909452505060058054909291506118d490612707565b91829055506020808301919091526001600160a01b03831660009081526013825260408120805460018181018355918352929091208351600790930201805484939192839160ff19169083600481111561193057611930611fc3565b021790555060208201516001820155604082015160028201805460ff19169115159190911790556060820151600382019061196b908261276e565b5060808201516004820180546001600160a01b039283166001600160a01b03199182161790915560a084015160058401805491909316911617905560c09091015160069091015560075460009067ffffffffffffffff8111156119d0576119d061212f565b6040519080825280602002602001820160405280156119f9578160200160208202803683370190505b50905060005b600754811015611a3f576001828281518110611a1d57611a1d612648565b9115156020928302919091019091015280611a3781612707565b9150506119ff565b5080600081518110611a5357611a53612648565b6020026020010151151560011515149350505050949350505050565b611a77611edb565b611a816000611f35565b565b60408051606081018252439181019182524281526001600160a01b038481166020830190815260148054600181018255600091825284517fce6d7b5282bd9a3661ae061feed1dbda4e52ab073b1f9285be6e155d9c38d4ec60039092029182015591517fce6d7b5282bd9a3661ae061feed1dbda4e52ab073b1f9285be6e155d9c38d4ed830180546001600160a01b031916919094161790925592517fce6d7b5282bd9a3661ae061feed1dbda4e52ab073b1f9285be6e155d9c38d4ee90930192909255600754829190829067ffffffffffffffff811115611b6757611b6761212f565b604051908082528060200260200182016040528015611b90578160200160208202803683370190505b50905060005b600754811015611bd6576001828281518110611bb457611bb4612648565b9115156020928302919091019091015280611bce81612707565b915050611b96565b5080600081518110611bea57611bea612648565b602090810291909101015115156001149694955050505050565b6001805460009182911480611c1b57506003546001145b15611c2857506001919050565b506000919050565b60148181548110611c4057600080fd5b60009182526020909120600390910201805460018201546002909201549092506001600160a01b039091169083565b60136020528160005260406000208181548110611c8b57600080fd5b6000918252602090912060079091020180546001820154600283015460038401805460ff94851697509295509216929190611cc5906123ac565b80601f0160208091040260200160405190810160405280929190818152602001828054611cf1906123ac565b8015611d3e5780601f10611d1357610100808354040283529160200191611d3e565b820191906000526020600020905b815481529060010190602001808311611d2157829003601f168201915b505050506004830154600584015460069094015492936001600160a01b03918216939116915087565b600080805b6005811015611db957836001600160a01b0316600d8260058110611d9257611d92612648565b01546001600160a01b031603611da757600191505b80611db181612707565b915050611d6c565b5092915050565b60606014805480602002602001604051908101604052809291908181526020016000905b82821015611e395760008481526020908190206040805160608101825260038602909201805483526001808201546001600160a01b031684860152600290910154918301919091529083529092019101611de4565b50505050905090565b600d8160058110611e5257600080fd5b01546001600160a01b0316905081565b611e6a611edb565b6001600160a01b038116611ecf5760405162461bcd60e51b815260206004820152602660248201527f4f776e61626c653a206e6577206f776e657220697320746865207a65726f206160448201526564647265737360d01b606482015260840161068f565b611ed881611f35565b50565b6000546001600160a01b03163314611a815760405162461bcd60e51b815260206004820181905260248201527f4f776e61626c653a2063616c6c6572206973206e6f7420746865206f776e6572604482015260640161068f565b600080546001600160a01b038381166001600160a01b0319831681178455604051919092169283917f8be0079c531659141344cd1fd0a4f28419497f9722a3daafe3b4186f6b6457e09190a35050565b80356001600160a01b0381168114611f9c57600080fd5b919050565b600060208284031215611fb357600080fd5b611fbc82611f85565b9392505050565b634e487b7160e01b600052602160045260246000fd5b60058110611ff757634e487b7160e01b600052602160045260246000fd5b9052565b6000815180845260005b8181101561202157602081850181015186830182015201612005565b506000602082860101526020601f19601f83011685010191505092915050565b60006020808301818452808551808352604092508286019150828160051b87010184880160005b838110156120f757603f19898403018552815160e0612088858351611fd9565b88820151898601528782015115158886015260608083015182828801526120b183880182611ffb565b6080858101516001600160a01b03908116918a019190915260a0808701519091169089015260c09485015194909701939093525050509386019390860190600101612068565b509098975050505050505050565b6000806040838503121561211857600080fd5b61212183611f85565b946020939093013593505050565b634e487b7160e01b600052604160045260246000fd5b600080600083850360a081121561215b57600080fd5b61216485611f85565b9350602085013592506060603f198201121561217f57600080fd5b506040516060810181811067ffffffffffffffff821117156121a3576121a361212f565b8060405250604085013581526060850135602082015260808501356040820152809150509250925092565b600080600080608085870312156121e457600080fd5b6121ed85611f85565b9350602085013592506040850135915060608501356005811061220f57600080fd5b939692955090935050565b6000806000806060858703121561223057600080fd5b61223985611f85565b935060208501359250604085013567ffffffffffffffff8082111561225d57600080fd5b818701915087601f83011261227157600080fd5b81358181111561228057600080fd5b88602082850101111561229257600080fd5b95989497505060200194505050565b600080604083850312156122b457600080fd5b6122bd83611f85565b9150602083013580151581146122d257600080fd5b809150509250929050565b6000602082840312156122ef57600080fd5b5035919050565b6123008189611fd9565b866020820152851515604082015260e06060820152600061232460e0830187611ffb565b6001600160a01b0395861660808401529390941660a082015260c0015295945050505050565b602080825282518282018190526000919060409081850190868401855b8281101561239f57815180518552868101516001600160a01b0316878601528501518585015260609093019290850190600101612367565b5091979650505050505050565b600181811c908216806123c057607f821691505b6020821081036123e057634e487b7160e01b600052602260045260246000fd5b50919050565b60208082526030908201527f47617320436f6e7472616374204f6e6c792041646d696e20436865636b2d202060408201526f21b0b63632b9103737ba1030b236b4b760811b606082015260800190565b60208082526053908201527f47617320436f6e7472616374202d20616464546f57686974656c69737420667560408201527f6e6374696f6e202d202074696572206c6576656c2073686f756c64206e6f742060608201527262652067726561746572207468616e2032353560681b608082015260a00190565b634e487b7160e01b600052601160045260246000fd5b818103818111156124d8576124d86124af565b92915050565b808201808211156124d8576124d86124af565b60208082526042908201527f47617320436f6e7472616374202d20557064617465205061796d656e7420667560408201527f6e6374696f6e202d204944206d7573742062652067726561746572207468616e606082015261020360f41b608082015260a00190565b60208082526046908201527f47617320436f6e7472616374202d20557064617465205061796d656e7420667560408201527f6e6374696f6e202d20416d6f756e74206d75737420626520677265617465722060608201526507468616e20360d41b608082015260a00190565b60208082526059908201527f47617320436f6e7472616374202d20557064617465205061796d656e7420667560408201527f6e6374696f6e202d2041646d696e6973747261746f72206d757374206861766560608201527f20612076616c6964206e6f6e207a65726f206164647265737300000000000000608082015260a00190565b634e487b7160e01b600052603260045260246000fd5b60018060a01b0385168152600060208581840152846040840152608060608401526000845461268c816123ac565b80608087015260a06001808416600081146126ae57600181146126c8576126f6565b60ff1985168984015283151560051b8901830195506126f6565b896000528660002060005b858110156126ee5781548b82018601529083019088016126d3565b8a0184019650505b50939b9a5050505050505050505050565b600060018201612719576127196124af565b5060010190565b601f821115610be657600081815260208120601f850160051c810160208610156127475750805b601f850160051c820191505b8181101561276657828155600101612753565b505050505050565b815167ffffffffffffffff8111156127885761278861212f565b61279c8161279684546123ac565b84612720565b602080601f8311600181146127d157600084156127b95750858301515b600019600386901b1c1916600185901b178555612766565b600085815260208120601f198616915b82811015612800578886015182559484019460019091019084016127e1565b508582101561281e5787850151600019600388901b60f8161c191681555b5050505050600190811b0190555056fea26469706673582212200ccbf4ef00c3e65a1b0610148e77232ad8abb7776239675bfe904d990484697c64736f6c63430008110033fbd610cf0373947747ba15effd5e459c81db984f8723671458c0e8624428ab04",
    "sourcePath": "c:/Users/Administrator/BLOCKCHAIN_GitHub/SOLIDITY/Projects/ETH_DENVER_BOOTCAMP/Homework_12/Exercises/Gas/contracts/Gas.sol",
    "compiler": {
        "name": "solc",
        "version": "0.8.17+commit.8df45f5f"
    },
    "functionHashes": {
        "addHistory(address,bool)": "8efcf5c0",
        "addToWhitelist(address,uint256)": "214405fc",
        "administrators(uint256)": "d89d1510",
        "balanceOf(address)": "70a08231",
        "balances(address)": "27e235e3",
        "basicFlag()": "2c01c922",
        "checkForAdmin(address)": "b52d15e2",
        "contractOwner()": "ce606ee0",
        "dividendFlag()": "745b07c8",
        "getPaymentHistory()": "b651bb61",
        "getPayments(address)": "1d6a1711",
        "getTradingMode()": "9a9f8383",
        "isOddWhitelistUser(address)": "a30da069",
        "isReady()": "a094a031",
        "owner()": "8da5cb5b",
        "paymentCounter()": "76840b60",
        "paymentHistory(uint256)": "a5e047b8",
        "payments(address,uint256)": "ab63385c",
        "renounceOwnership()": "715018a6",
        "totalSupply()": "18160ddd",
        "tradeFlag()": "c43982cc",
        "tradeMode()": "6fd47b44",
        "tradePercent()": "cbd5d73f",
        "transfer(address,uint256,string)": "56b8c724",
        "transferOwnership(address)": "f2fde38b",
        "updatePayment(address,uint256,uint256,uint8)": "4e86eb16",
        "whiteListStruct(address)": "5de45813",
        "whiteTransfer(address,uint256,(uint256,uint256,uint256))": "27df565a",
        "whitelist(address)": "9b19251a"
    },
    "gasEstimates": {
        "creation": {
            "codeDepositCost": "2068000",
            "executionCost": "infinite",
            "totalCost": "infinite"
        },
        "external": {
            "addHistory(address,bool)": "infinite",
            "addToWhitelist(address,uint256)": "infinite",
            "administrators(uint256)": "2545",
            "balanceOf(address)": "2571",
            "balances(address)": "2576",
            "basicFlag()": "2374",
            "checkForAdmin(address)": "infinite",
            "contractOwner()": "2403",
            "dividendFlag()": "2373",
            "getPaymentHistory()": "infinite",
            "getPayments(address)": "infinite",
            "getTradingMode()": "4576",
            "isOddWhitelistUser(address)": "2597",
            "isReady()": "2377",
            "owner()": "2366",
            "paymentCounter()": "2395",
            "paymentHistory(uint256)": "9011",
            "payments(address,uint256)": "infinite",
            "renounceOwnership()": "infinite",
            "totalSupply()": "2331",
            "tradeFlag()": "2395",
            "tradeMode()": "2374",
            "tradePercent()": "2328",
            "transfer(address,uint256,string)": "infinite",
            "transferOwnership(address)": "28443",
            "updatePayment(address,uint256,uint256,uint8)": "infinite",
            "whiteListStruct(address)": "6862",
            "whiteTransfer(address,uint256,(uint256,uint256,uint256))": "infinite",
            "whitelist(address)": "2553"
        }
    }
}