{
    "contractName": "GasContractOptimized",
    "abi": [
        {
            "inputs": [
                {
                    "internalType": "address[]",
                    "name": "_admins",
                    "type": "address[]"
                },
                {
                    "internalType": "uint256",
                    "name": "_totalSupply",
                    "type": "uint256"
                }
            ],
            "stateMutability": "nonpayable",
            "type": "constructor"
        },
        {
            "inputs": [
                {
                    "internalType": "uint256",
                    "name": "requested",
                    "type": "uint256"
                },
                {
                    "internalType": "uint256",
                    "name": "available",
                    "type": "uint256"
                }
            ],
            "name": "NotEnoughFunds",
            "type": "error"
        },
        {
            "inputs": [],
            "name": "NotSender",
            "type": "error"
        },
        {
            "inputs": [],
            "name": "NotValidAddress",
            "type": "error"
        },
        {
            "inputs": [],
            "name": "NotValidId",
            "type": "error"
        },
        {
            "inputs": [],
            "name": "NotValidTier",
            "type": "error"
        },
        {
            "inputs": [],
            "name": "NotWhitelisted",
            "type": "error"
        },
        {
            "inputs": [],
            "name": "RecipientNameLong",
            "type": "error"
        },
        {
            "anonymous": false,
            "inputs": [
                {
                    "indexed": false,
                    "internalType": "address",
                    "name": "userAddress",
                    "type": "address"
                },
                {
                    "indexed": false,
                    "internalType": "uint256",
                    "name": "tier",
                    "type": "uint256"
                }
            ],
            "name": "AddedToWhitelist",
            "type": "event"
        },
        {
            "anonymous": false,
            "inputs": [
                {
                    "indexed": true,
                    "internalType": "address",
                    "name": "previousOwner",
                    "type": "address"
                },
                {
                    "indexed": true,
                    "internalType": "address",
                    "name": "newOwner",
                    "type": "address"
                }
            ],
            "name": "OwnershipTransferred",
            "type": "event"
        },
        {
            "anonymous": false,
            "inputs": [
                {
                    "indexed": false,
                    "internalType": "address",
                    "name": "admin",
                    "type": "address"
                },
                {
                    "indexed": false,
                    "internalType": "uint256",
                    "name": "ID",
                    "type": "uint256"
                },
                {
                    "indexed": false,
                    "internalType": "uint256",
                    "name": "amount",
                    "type": "uint256"
                },
                {
                    "indexed": false,
                    "internalType": "string",
                    "name": "recipient",
                    "type": "string"
                }
            ],
            "name": "PaymentUpdated",
            "type": "event"
        },
        {
            "anonymous": false,
            "inputs": [
                {
                    "indexed": false,
                    "internalType": "address",
                    "name": "recipient",
                    "type": "address"
                },
                {
                    "indexed": false,
                    "internalType": "uint256",
                    "name": "amount",
                    "type": "uint256"
                }
            ],
            "name": "Transfer",
            "type": "event"
        },
        {
            "anonymous": false,
            "inputs": [
                {
                    "indexed": true,
                    "internalType": "address",
                    "name": "",
                    "type": "address"
                }
            ],
            "name": "WhiteListTransfer",
            "type": "event"
        },
        {
            "anonymous": false,
            "inputs": [
                {
                    "indexed": true,
                    "internalType": "address",
                    "name": "",
                    "type": "address"
                },
                {
                    "indexed": true,
                    "internalType": "uint256",
                    "name": "",
                    "type": "uint256"
                }
            ],
            "name": "supplyChanged",
            "type": "event"
        },
        {
            "inputs": [
                {
                    "internalType": "address",
                    "name": "_updateAddress",
                    "type": "address"
                },
                {
                    "internalType": "bool",
                    "name": "_tradeMode",
                    "type": "bool"
                }
            ],
            "name": "addHistory",
            "outputs": [],
            "stateMutability": "nonpayable",
            "type": "function"
        },
        {
            "inputs": [
                {
                    "internalType": "address",
                    "name": "_userAddrs",
                    "type": "address"
                },
                {
                    "internalType": "uint256",
                    "name": "_tier",
                    "type": "uint256"
                }
            ],
            "name": "addToWhitelist",
            "outputs": [],
            "stateMutability": "nonpayable",
            "type": "function"
        },
        {
            "inputs": [
                {
                    "internalType": "uint256",
                    "name": "",
                    "type": "uint256"
                }
            ],
            "name": "administrators",
            "outputs": [
                {
                    "internalType": "address",
                    "name": "",
                    "type": "address"
                }
            ],
            "stateMutability": "view",
            "type": "function"
        },
        {
            "inputs": [
                {
                    "internalType": "address",
                    "name": "_user",
                    "type": "address"
                }
            ],
            "name": "balanceOf",
            "outputs": [
                {
                    "internalType": "uint256",
                    "name": "balance",
                    "type": "uint256"
                }
            ],
            "stateMutability": "view",
            "type": "function"
        },
        {
            "inputs": [
                {
                    "internalType": "address",
                    "name": "_user",
                    "type": "address"
                }
            ],
            "name": "checkForAdmin",
            "outputs": [
                {
                    "internalType": "bool",
                    "name": "admin_",
                    "type": "bool"
                }
            ],
            "stateMutability": "view",
            "type": "function"
        },
        {
            "inputs": [],
            "name": "contractOwner",
            "outputs": [
                {
                    "internalType": "address",
                    "name": "",
                    "type": "address"
                }
            ],
            "stateMutability": "view",
            "type": "function"
        },
        {
            "inputs": [],
            "name": "dividendFlag",
            "outputs": [
                {
                    "internalType": "uint256",
                    "name": "",
                    "type": "uint256"
                }
            ],
            "stateMutability": "view",
            "type": "function"
        },
        {
            "inputs": [
                {
                    "internalType": "address",
                    "name": "_user",
                    "type": "address"
                }
            ],
            "name": "getPayments",
            "outputs": [
                {
                    "components": [
                        {
                            "internalType": "enum GasContractOptimized.PaymentType",
                            "name": "paymentType",
                            "type": "uint8"
                        },
                        {
                            "internalType": "uint256",
                            "name": "paymentID",
                            "type": "uint256"
                        },
                        {
                            "internalType": "address",
                            "name": "recipient",
                            "type": "address"
                        },
                        {
                            "internalType": "string",
                            "name": "recipientName",
                            "type": "string"
                        },
                        {
                            "internalType": "bool",
                            "name": "adminUpdated",
                            "type": "bool"
                        },
                        {
                            "internalType": "address",
                            "name": "admin",
                            "type": "address"
                        },
                        {
                            "internalType": "uint256",
                            "name": "amount",
                            "type": "uint256"
                        }
                    ],
                    "internalType": "struct GasContractOptimized.Payment[]",
                    "name": "payments_",
                    "type": "tuple[]"
                }
            ],
            "stateMutability": "view",
            "type": "function"
        },
        {
            "inputs": [],
            "name": "getTradingMode",
            "outputs": [
                {
                    "internalType": "bool",
                    "name": "_mode",
                    "type": "bool"
                }
            ],
            "stateMutability": "view",
            "type": "function"
        },
        {
            "inputs": [],
            "name": "owner",
            "outputs": [
                {
                    "internalType": "address",
                    "name": "",
                    "type": "address"
                }
            ],
            "stateMutability": "view",
            "type": "function"
        },
        {
            "inputs": [],
            "name": "paymentCounter",
            "outputs": [
                {
                    "internalType": "uint256",
                    "name": "",
                    "type": "uint256"
                }
            ],
            "stateMutability": "view",
            "type": "function"
        },
        {
            "inputs": [
                {
                    "internalType": "uint256",
                    "name": "",
                    "type": "uint256"
                }
            ],
            "name": "paymentHistory",
            "outputs": [
                {
                    "internalType": "uint256",
                    "name": "lastUpdate",
                    "type": "uint256"
                },
                {
                    "internalType": "address",
                    "name": "updatedBy",
                    "type": "address"
                },
                {
                    "internalType": "uint256",
                    "name": "blockNumber",
                    "type": "uint256"
                },
                {
                    "internalType": "bool",
                    "name": "trade",
                    "type": "bool"
                }
            ],
            "stateMutability": "view",
            "type": "function"
        },
        {
            "inputs": [],
            "name": "renounceOwnership",
            "outputs": [],
            "stateMutability": "nonpayable",
            "type": "function"
        },
        {
            "inputs": [],
            "name": "totalSupply",
            "outputs": [
                {
                    "internalType": "uint256",
                    "name": "",
                    "type": "uint256"
                }
            ],
            "stateMutability": "view",
            "type": "function"
        },
        {
            "inputs": [],
            "name": "tradeFlag",
            "outputs": [
                {
                    "internalType": "uint256",
                    "name": "",
                    "type": "uint256"
                }
            ],
            "stateMutability": "view",
            "type": "function"
        },
        {
            "inputs": [
                {
                    "internalType": "address",
                    "name": "_recipient",
                    "type": "address"
                },
                {
                    "internalType": "uint256",
                    "name": "_amount",
                    "type": "uint256"
                },
                {
                    "internalType": "string",
                    "name": "_name",
                    "type": "string"
                }
            ],
            "name": "transfer",
            "outputs": [],
            "stateMutability": "nonpayable",
            "type": "function"
        },
        {
            "inputs": [
                {
                    "internalType": "address",
                    "name": "newOwner",
                    "type": "address"
                }
            ],
            "name": "transferOwnership",
            "outputs": [],
            "stateMutability": "nonpayable",
            "type": "function"
        },
        {
            "inputs": [
                {
                    "internalType": "address",
                    "name": "_user",
                    "type": "address"
                },
                {
                    "internalType": "uint256",
                    "name": "_ID",
                    "type": "uint256"
                },
                {
                    "internalType": "uint256",
                    "name": "_amount",
                    "type": "uint256"
                },
                {
                    "internalType": "enum GasContractOptimized.PaymentType",
                    "name": "_type",
                    "type": "uint8"
                }
            ],
            "name": "updatePayment",
            "outputs": [],
            "stateMutability": "nonpayable",
            "type": "function"
        },
        {
            "inputs": [
                {
                    "internalType": "address",
                    "name": "",
                    "type": "address"
                }
            ],
            "name": "whiteListStruct",
            "outputs": [
                {
                    "internalType": "uint256",
                    "name": "valueA",
                    "type": "uint256"
                },
                {
                    "internalType": "uint256",
                    "name": "bigValue",
                    "type": "uint256"
                },
                {
                    "internalType": "uint256",
                    "name": "valueB",
                    "type": "uint256"
                }
            ],
            "stateMutability": "view",
            "type": "function"
        },
        {
            "inputs": [
                {
                    "internalType": "address",
                    "name": "_recipient",
                    "type": "address"
                },
                {
                    "internalType": "uint256",
                    "name": "_amount",
                    "type": "uint256"
                },
                {
                    "components": [
                        {
                            "internalType": "uint256",
                            "name": "valueA",
                            "type": "uint256"
                        },
                        {
                            "internalType": "uint256",
                            "name": "bigValue",
                            "type": "uint256"
                        },
                        {
                            "internalType": "uint256",
                            "name": "valueB",
                            "type": "uint256"
                        }
                    ],
                    "internalType": "struct GasContractOptimized.ImportantStruct",
                    "name": "_struct",
                    "type": "tuple"
                }
            ],
            "name": "whiteTransfer",
            "outputs": [],
            "stateMutability": "nonpayable",
            "type": "function"
        },
        {
            "inputs": [
                {
                    "internalType": "address",
                    "name": "",
                    "type": "address"
                }
            ],
            "name": "whitelist",
            "outputs": [
                {
                    "internalType": "uint256",
                    "name": "",
                    "type": "uint256"
                }
            ],
            "stateMutability": "view",
            "type": "function"
        }
    ],
    "bytecode": "6080604052600180556001600255600060035560006004553480156200002457600080fd5b506040516200198f3803806200198f8339810160408190526200004791620002c4565b620000523362000241565b600580546001600160a01b03191633179055600381905560005b6005811015620002385760006001600160a01b03168382815181106200009657620000966200039e565b60200260200101516001600160a01b0316146200022357828181518110620000c257620000c26200039e565b602002602001015160068260058110620000e057620000e06200039e565b0180546001600160a01b0319166001600160a01b0392831617905560055484519116908490839081106200011857620001186200039e565b60200260200101516001600160a01b03160362000198576003546005546001600160a01b03166000908152600b6020526040902081905583518490839081106200016657620001666200039e565b60200260200101516001600160a01b03166000805160206200196f83398151915260405160405180910390a362000223565b6000600b6000858481518110620001b357620001b36200039e565b60200260200101516001600160a01b03166001600160a01b03168152602001908152602001600020819055506000838281518110620001f657620001f66200039e565b60200260200101516001600160a01b03166000805160206200196f83398151915260405160405180910390a35b806200022f81620003b4565b9150506200006c565b505050620003dc565b600080546001600160a01b038381166001600160a01b0319831681178455604051919092169283917f8be0079c531659141344cd1fd0a4f28419497f9722a3daafe3b4186f6b6457e09190a35050565b634e487b7160e01b600052604160045260246000fd5b80516001600160a01b0381168114620002bf57600080fd5b919050565b60008060408385031215620002d857600080fd5b82516001600160401b0380821115620002f057600080fd5b818501915085601f8301126200030557600080fd5b81516020828211156200031c576200031c62000291565b8160051b604051601f19603f8301168101818110868211171562000344576200034462000291565b6040529283528183019350848101820192898411156200036357600080fd5b948201945b838610156200038c576200037c86620002a7565b8552948201949382019362000368565b97909101519698969750505050505050565b634e487b7160e01b600052603260045260246000fd5b600060018201620003d557634e487b7160e01b600052601160045260246000fd5b5060010190565b61158380620003ec6000396000f3fe608060405234801561001057600080fd5b50600436106101375760003560e01c806376840b60116100b8578063a5e047b81161007c578063a5e047b8146102c3578063b52d15e214610300578063c43982cc14610313578063ce606ee01461031c578063d89d15101461032f578063f2fde38b1461034257600080fd5b806376840b601461024a5780638da5cb5b146102535780638efcf5c0146102785780639a9f83831461028b5780639b19251a146102a357600080fd5b806356b8c724116100ff57806356b8c724146101b35780635de45813146101c657806370a0823114610210578063715018a614610239578063745b07c81461024157600080fd5b806318160ddd1461013c5780631d6a171114610158578063214405fc1461017857806327df565a1461018d5780634e86eb16146101a0575b600080fd5b61014560035481565b6040519081526020015b60405180910390f35b61016b610166366004610f98565b610355565b60405161014f9190611016565b61018b6101863660046110f9565b610501565b005b61018b61019b366004611139565b61058d565b61018b6101ae3660046111c2565b610737565b61018b6101c136600461120e565b6109f8565b6101f56101d4366004610f98565b600d6020526000908152604090208054600182015460029092015490919083565b6040805193845260208401929092529082015260600161014f565b61014561021e366004610f98565b6001600160a01b03166000908152600b602052604090205490565b61018b610c56565b61014560025481565b61014560045481565b6000546001600160a01b03165b6040516001600160a01b03909116815260200161014f565b61018b610286366004611295565b610c6a565b610293610d6a565b604051901515815260200161014f565b6101456102b1366004610f98565b600c6020526000908152604090205481565b6102d66102d13660046112d1565b610d96565b604080519485526001600160a01b039093166020850152918301521515606082015260800161014f565b61029361030e366004610f98565b610ddc565b61014560015481565b600554610260906001600160a01b031681565b61026061033d3660046112d1565b610e39565b61018b610350366004610f98565b610e59565b60606001600160a01b03821661037e57604051636e5ec59f60e01b815260040160405180910390fd5b6001600160a01b0382166000908152600e6020908152604080832080548251818502810185019093528083529193909284015b828210156104f6576000848152602090206040805160e08101909152600684029091018054829060ff1660048111156103ec576103ec610fba565b60048111156103fd576103fd610fba565b81526001820154602082015260028201546001600160a01b03166040820152600382018054606090920191610431906112ea565b80601f016020809104026020016040519081016040528092919081815260200182805461045d906112ea565b80156104aa5780601f1061047f576101008083540402835291602001916104aa565b820191906000526020600020905b81548152906001019060200180831161048d57829003601f168201915b5050509183525050600482015460ff811615156020808401919091526101009091046001600160a01b0316604083015260059092015460609091015290825260019290920191016103b1565b505050509050919050565b610509610ed2565b600481101580610517575080155b15610535576040516342c7745560e01b815260040160405180910390fd5b6001600160a01b0382166000818152600c6020908152604091829020849055815192835282018390527f62c1e066774519db9fe35767c15fc33df2f016675b7cc0c330ed185f286a2d52910160405180910390a15050565b336000818152600c6020526040812054908190036105be57604051630b094f2760e31b815260040160405180910390fd5b600481106105df576040516342c7745560e01b815260040160405180910390fd5b336000908152600b602052604090205484111561063457336000908152600b6020526040908190205490516311920a6d60e31b815261062b918691600401918252602082015260400190565b60405180910390fd5b336000908152600c6020908152604080832054600b9092529091205461065b90869061133a565b6106659190611353565b336000908152600b6020818152604080842094909455600c8152838320546001600160a01b038a168452919052919020546106a1908690611353565b6106ab919061133a565b6001600160a01b0386166000818152600b6020908152604080832094909455338252600d8152838220845160608101865281548152600182015481840190815260029092015481870190815289518252928901519091528785015190915292517f98eaee7299e9cbfa56cf530fd3a0c6dfa0ccddf4f837b8f025651ad9594647b39190a2505050505050565b61073f610ed2565b8260000361076057604051632605dbe360e21b815260040160405180910390fd5b6001600160a01b03841661078757604051636e5ec59f60e01b815260040160405180910390fd5b60005b6001600160a01b0385166000908152600e60205260409020548110156109f1576001600160a01b0385166000908152600e602052604090208054859190839081106107d7576107d7611366565b906000526020600020906006020160010154036109df576001600160a01b0385166000908152600e602052604090208054600191908390811061081c5761081c611366565b906000526020600020906006020160040160006101000a81548160ff02191690831515021790555084600e6000876001600160a01b03166001600160a01b03168152602001908152602001600020828154811061087b5761087b611366565b600091825260208083206006929092029091016004018054610100600160a81b0319166101006001600160a01b03958616021790559187168152600e909152604090208054839190839081106108d3576108d3611366565b60009182526020909120600690910201805460ff191660018360048111156108fd576108fd610fba565b02179055506001600160a01b0385166000908152600e6020526040902080548491908390811061092f5761092f611366565b906000526020600020906006020160050181905550600061094e610d6a565b905061095a8682610c6a565b7ff41efc8c6b66b2a03b14fd69b985ad19a0b9245f24936163018e9ad06d4c143e338686600e60008b6001600160a01b03166001600160a01b0316815260200190815260200160002086815481106109b4576109b4611366565b90600052602060002090600602016003016040516109d5949392919061137c565b60405180910390a1505b806109e981611425565b91505061078a565b5050505050565b336000908152600b602052604090205483811015610a33576040516311920a6d60e31b8152600481018590526024810182905260440161062b565b60098210610a5457604051630764b2ed60e11b815260040160405180910390fd5b610a5e848261133a565b6001600160a01b0386166000908152600b6020526040812080549293508692909190610a8b908490611353565b9091555050604080516001600160a01b0387168152602081018690527f69ca02dd4edd7bf0a4abb9ed3b7af3f14778db5d61921c7dc7cd545266326de2910160405180910390a16040805160e081018252600060208083018290526060808401526080830182905260a0830182905260c0830191909152600182526001600160a01b038816828401528251601f860182900482028101820190935284835290919085908590819084018382808284376000920182905250606086019490945250505060c0820186905260048054909190610b6490611425565b9182905550602080830191909152336000908152600e825260408120805460018181018355918352929091208351600690930201805484939192839160ff191690836004811115610bb757610bb7610fba565b02179055506020820151600182015560408201516002820180546001600160a01b0319166001600160a01b0390921691909117905560608201516003820190610c00908261148d565b50608082015160048201805460a08501516001600160a01b031661010002610100600160a81b0319931515939093166001600160a81b03199091161791909117905560c090910151600590910155505050505050565b610c5e610ed2565b610c686000610f2c565b565b60408051608081018252439181019182524281526001600160a01b039384166020820190815292151560608201908152600f805460018101825560009190915291517f8d1108e10bcb7c27dddfc02ed9d693a074039d026cf4ea4240b40f7d581ac80260049093029283015592517f8d1108e10bcb7c27dddfc02ed9d693a074039d026cf4ea4240b40f7d581ac803820180546001600160a01b0319169190951617909355517f8d1108e10bcb7c27dddfc02ed9d693a074039d026cf4ea4240b40f7d581ac804830155517f8d1108e10bcb7c27dddfc02ed9d693a074039d026cf4ea4240b40f7d581ac805909101805460ff1916911515919091179055565b6001805460009182911480610d8157506002546001145b15610d8e57506001919050565b506000919050565b600f8181548110610da657600080fd5b600091825260209091206004909102018054600182015460028301546003909301549193506001600160a01b0316919060ff1684565b600080805b6005811015610e3257836001600160a01b031660068260058110610e0757610e07611366565b01546001600160a01b031603610e205760019150610e32565b80610e2a81611425565b915050610de1565b5092915050565b60068160058110610e4957600080fd5b01546001600160a01b0316905081565b610e61610ed2565b6001600160a01b038116610ec65760405162461bcd60e51b815260206004820152602660248201527f4f776e61626c653a206e6577206f776e657220697320746865207a65726f206160448201526564647265737360d01b606482015260840161062b565b610ecf81610f2c565b50565b6000546001600160a01b03163314610c685760405162461bcd60e51b815260206004820181905260248201527f4f776e61626c653a2063616c6c6572206973206e6f7420746865206f776e6572604482015260640161062b565b600080546001600160a01b038381166001600160a01b0319831681178455604051919092169283917f8be0079c531659141344cd1fd0a4f28419497f9722a3daafe3b4186f6b6457e09190a35050565b80356001600160a01b0381168114610f9357600080fd5b919050565b600060208284031215610faa57600080fd5b610fb382610f7c565b9392505050565b634e487b7160e01b600052602160045260246000fd5b6000815180845260005b81811015610ff657602081850181015186830182015201610fda565b506000602082860101526020601f19601f83011685010191505092915050565b602080825282518282018190526000919060409081850190600581811b8701840188860187805b858110156110e957603f198b8503018752825160e0815187811061106f57634e487b7160e01b85526021600452602485fd5b8652818b01518b870152898201516001600160a01b03168a8701526060808301518188018390526110a283890182610fd0565b925050506080808301516110b98289018215159052565b505060a0828101516001600160a01b03169087015260c0918201519190950152958801959188019160010161103d565b50919a9950505050505050505050565b6000806040838503121561110c57600080fd5b61111583610f7c565b946020939093013593505050565b634e487b7160e01b600052604160045260246000fd5b600080600083850360a081121561114f57600080fd5b61115885610f7c565b9350602085013592506060603f198201121561117357600080fd5b506040516060810181811067ffffffffffffffff8211171561119757611197611123565b8060405250604085013581526060850135602082015260808501356040820152809150509250925092565b600080600080608085870312156111d857600080fd5b6111e185610f7c565b9350602085013592506040850135915060608501356005811061120357600080fd5b939692955090935050565b6000806000806060858703121561122457600080fd5b61122d85610f7c565b935060208501359250604085013567ffffffffffffffff8082111561125157600080fd5b818701915087601f83011261126557600080fd5b81358181111561127457600080fd5b88602082850101111561128657600080fd5b95989497505060200194505050565b600080604083850312156112a857600080fd5b6112b183610f7c565b9150602083013580151581146112c657600080fd5b809150509250929050565b6000602082840312156112e357600080fd5b5035919050565b600181811c908216806112fe57607f821691505b60208210810361131e57634e487b7160e01b600052602260045260246000fd5b50919050565b634e487b7160e01b600052601160045260246000fd5b8181038181111561134d5761134d611324565b92915050565b8082018082111561134d5761134d611324565b634e487b7160e01b600052603260045260246000fd5b60018060a01b038516815260006020858184015284604084015260806060840152600084546113aa816112ea565b80608087015260a06001808416600081146113cc57600181146113e657611414565b60ff1985168984015283151560051b890183019550611414565b896000528660002060005b8581101561140c5781548b82018601529083019088016113f1565b8a0184019650505b50939b9a5050505050505050505050565b60006001820161143757611437611324565b5060010190565b601f82111561148857600081815260208120601f850160051c810160208610156114655750805b601f850160051c820191505b8181101561148457828155600101611471565b5050505b505050565b815167ffffffffffffffff8111156114a7576114a7611123565b6114bb816114b584546112ea565b8461143e565b602080601f8311600181146114f057600084156114d85750858301515b600019600386901b1c1916600185901b178555611484565b600085815260208120601f198616915b8281101561151f57888601518255948401946001909101908401611500565b508582101561153d5787850151600019600388901b60f8161c191681555b5050505050600190811b0190555056fea2646970667358221220ce12fb5d4f1a40852f02f91d069c70447074548e4eddc9a02819bb52a24f134864736f6c63430008110033fbd610cf0373947747ba15effd5e459c81db984f8723671458c0e8624428ab04",
    "sourcePath": "c:/Users/Administrator/BLOCKCHAIN_GitHub/SOLIDITY/Projects/ETH_DENVER_BOOTCAMP/Homework_12/Exercises/Gas/contracts/GasOptimized.sol",
    "compiler": {
        "name": "solc",
        "version": "0.8.17+commit.8df45f5f"
    },
    "functionHashes": {
        "addHistory(address,bool)": "8efcf5c0",
        "addToWhitelist(address,uint256)": "214405fc",
        "administrators(uint256)": "d89d1510",
        "balanceOf(address)": "70a08231",
        "checkForAdmin(address)": "b52d15e2",
        "contractOwner()": "ce606ee0",
        "dividendFlag()": "745b07c8",
        "getPayments(address)": "1d6a1711",
        "getTradingMode()": "9a9f8383",
        "owner()": "8da5cb5b",
        "paymentCounter()": "76840b60",
        "paymentHistory(uint256)": "a5e047b8",
        "renounceOwnership()": "715018a6",
        "totalSupply()": "18160ddd",
        "tradeFlag()": "c43982cc",
        "transfer(address,uint256,string)": "56b8c724",
        "transferOwnership(address)": "f2fde38b",
        "updatePayment(address,uint256,uint256,uint8)": "4e86eb16",
        "whiteListStruct(address)": "5de45813",
        "whiteTransfer(address,uint256,(uint256,uint256,uint256))": "27df565a",
        "whitelist(address)": "9b19251a"
    },
    "gasEstimates": {
        "creation": {
            "codeDepositCost": "1101400",
            "executionCost": "infinite",
            "totalCost": "infinite"
        },
        "external": {
            "addHistory(address,bool)": "117553",
            "addToWhitelist(address,uint256)": "26149",
            "administrators(uint256)": "2567",
            "balanceOf(address)": "2593",
            "checkForAdmin(address)": "infinite",
            "contractOwner()": "2425",
            "dividendFlag()": "2395",
            "getPayments(address)": "infinite",
            "getTradingMode()": "4575",
            "owner()": "2365",
            "paymentCounter()": "2307",
            "paymentHistory(uint256)": "11055",
            "renounceOwnership()": "infinite",
            "totalSupply()": "2308",
            "tradeFlag()": "2350",
            "transfer(address,uint256,string)": "infinite",
            "transferOwnership(address)": "28465",
            "updatePayment(address,uint256,uint256,uint8)": "infinite",
            "whiteListStruct(address)": "6839",
            "whiteTransfer(address,uint256,(uint256,uint256,uint256))": "infinite",
            "whitelist(address)": "2619"
        }
    }
}