{
    "contractName": "OZ_Nft",
    "abi": [
        {
            "inputs": [],
            "stateMutability": "nonpayable",
            "type": "constructor"
        },
        {
            "inputs": [],
            "name": "MintPriceNotPaid",
            "type": "error"
        },
        {
            "inputs": [],
            "name": "MintPriceNotValid",
            "type": "error"
        },
        {
            "inputs": [],
            "name": "WithdrawTransfer",
            "type": "error"
        },
        {
            "anonymous": false,
            "inputs": [
                {
                    "indexed": true,
                    "internalType": "address",
                    "name": "owner",
                    "type": "address"
                },
                {
                    "indexed": true,
                    "internalType": "address",
                    "name": "approved",
                    "type": "address"
                },
                {
                    "indexed": true,
                    "internalType": "uint256",
                    "name": "tokenId",
                    "type": "uint256"
                }
            ],
            "name": "Approval",
            "type": "event"
        },
        {
            "anonymous": false,
            "inputs": [
                {
                    "indexed": true,
                    "internalType": "address",
                    "name": "owner",
                    "type": "address"
                },
                {
                    "indexed": true,
                    "internalType": "address",
                    "name": "operator",
                    "type": "address"
                },
                {
                    "indexed": false,
                    "internalType": "bool",
                    "name": "approved",
                    "type": "bool"
                }
            ],
            "name": "ApprovalForAll",
            "type": "event"
        },
        {
            "anonymous": false,
            "inputs": [
                {
                    "indexed": true,
                    "internalType": "address",
                    "name": "previousOwner",
                    "type": "address"
                },
                {
                    "indexed": true,
                    "internalType": "address",
                    "name": "newOwner",
                    "type": "address"
                }
            ],
            "name": "OwnershipTransferred",
            "type": "event"
        },
        {
            "anonymous": false,
            "inputs": [
                {
                    "indexed": true,
                    "internalType": "address",
                    "name": "from",
                    "type": "address"
                },
                {
                    "indexed": true,
                    "internalType": "address",
                    "name": "to",
                    "type": "address"
                },
                {
                    "indexed": true,
                    "internalType": "uint256",
                    "name": "tokenId",
                    "type": "uint256"
                }
            ],
            "name": "Transfer",
            "type": "event"
        },
        {
            "inputs": [],
            "name": "MINT_PRICE",
            "outputs": [
                {
                    "internalType": "uint256",
                    "name": "",
                    "type": "uint256"
                }
            ],
            "stateMutability": "view",
            "type": "function"
        },
        {
            "inputs": [],
            "name": "TOTAL_SUPPLY",
            "outputs": [
                {
                    "internalType": "uint256",
                    "name": "",
                    "type": "uint256"
                }
            ],
            "stateMutability": "view",
            "type": "function"
        },
        {
            "inputs": [
                {
                    "internalType": "address",
                    "name": "to",
                    "type": "address"
                },
                {
                    "internalType": "uint256",
                    "name": "tokenId",
                    "type": "uint256"
                }
            ],
            "name": "approve",
            "outputs": [],
            "stateMutability": "nonpayable",
            "type": "function"
        },
        {
            "inputs": [
                {
                    "internalType": "address",
                    "name": "owner",
                    "type": "address"
                }
            ],
            "name": "balanceOf",
            "outputs": [
                {
                    "internalType": "uint256",
                    "name": "",
                    "type": "uint256"
                }
            ],
            "stateMutability": "view",
            "type": "function"
        },
        {
            "inputs": [
                {
                    "internalType": "uint256",
                    "name": "tokenId",
                    "type": "uint256"
                }
            ],
            "name": "getApproved",
            "outputs": [
                {
                    "internalType": "address",
                    "name": "",
                    "type": "address"
                }
            ],
            "stateMutability": "view",
            "type": "function"
        },
        {
            "inputs": [
                {
                    "internalType": "address",
                    "name": "owner",
                    "type": "address"
                },
                {
                    "internalType": "address",
                    "name": "operator",
                    "type": "address"
                }
            ],
            "name": "isApprovedForAll",
            "outputs": [
                {
                    "internalType": "bool",
                    "name": "",
                    "type": "bool"
                }
            ],
            "stateMutability": "view",
            "type": "function"
        },
        {
            "inputs": [
                {
                    "internalType": "address",
                    "name": "to",
                    "type": "address"
                }
            ],
            "name": "mintTo",
            "outputs": [
                {
                    "internalType": "uint256",
                    "name": "",
                    "type": "uint256"
                }
            ],
            "stateMutability": "payable",
            "type": "function"
        },
        {
            "inputs": [],
            "name": "name",
            "outputs": [
                {
                    "internalType": "string",
                    "name": "",
                    "type": "string"
                }
            ],
            "stateMutability": "view",
            "type": "function"
        },
        {
            "inputs": [],
            "name": "owner",
            "outputs": [
                {
                    "internalType": "address",
                    "name": "",
                    "type": "address"
                }
            ],
            "stateMutability": "view",
            "type": "function"
        },
        {
            "inputs": [
                {
                    "internalType": "uint256",
                    "name": "tokenId",
                    "type": "uint256"
                }
            ],
            "name": "ownerOf",
            "outputs": [
                {
                    "internalType": "address",
                    "name": "",
                    "type": "address"
                }
            ],
            "stateMutability": "view",
            "type": "function"
        },
        {
            "inputs": [
                {
                    "internalType": "address",
                    "name": "dest",
                    "type": "address"
                }
            ],
            "name": "payments",
            "outputs": [
                {
                    "internalType": "uint256",
                    "name": "",
                    "type": "uint256"
                }
            ],
            "stateMutability": "view",
            "type": "function"
        },
        {
            "inputs": [],
            "name": "renounceOwnership",
            "outputs": [],
            "stateMutability": "nonpayable",
            "type": "function"
        },
        {
            "inputs": [
                {
                    "internalType": "address",
                    "name": "from",
                    "type": "address"
                },
                {
                    "internalType": "address",
                    "name": "to",
                    "type": "address"
                },
                {
                    "internalType": "uint256",
                    "name": "tokenId",
                    "type": "uint256"
                }
            ],
            "name": "safeTransferFrom",
            "outputs": [],
            "stateMutability": "nonpayable",
            "type": "function"
        },
        {
            "inputs": [
                {
                    "internalType": "address",
                    "name": "from",
                    "type": "address"
                },
                {
                    "internalType": "address",
                    "name": "to",
                    "type": "address"
                },
                {
                    "internalType": "uint256",
                    "name": "tokenId",
                    "type": "uint256"
                },
                {
                    "internalType": "bytes",
                    "name": "data",
                    "type": "bytes"
                }
            ],
            "name": "safeTransferFrom",
            "outputs": [],
            "stateMutability": "nonpayable",
            "type": "function"
        },
        {
            "inputs": [
                {
                    "internalType": "address",
                    "name": "operator",
                    "type": "address"
                },
                {
                    "internalType": "bool",
                    "name": "approved",
                    "type": "bool"
                }
            ],
            "name": "setApprovalForAll",
            "outputs": [],
            "stateMutability": "nonpayable",
            "type": "function"
        },
        {
            "inputs": [
                {
                    "internalType": "bytes4",
                    "name": "interfaceId",
                    "type": "bytes4"
                }
            ],
            "name": "supportsInterface",
            "outputs": [
                {
                    "internalType": "bool",
                    "name": "",
                    "type": "bool"
                }
            ],
            "stateMutability": "view",
            "type": "function"
        },
        {
            "inputs": [],
            "name": "symbol",
            "outputs": [
                {
                    "internalType": "string",
                    "name": "",
                    "type": "string"
                }
            ],
            "stateMutability": "view",
            "type": "function"
        },
        {
            "inputs": [],
            "name": "tokenId",
            "outputs": [
                {
                    "internalType": "uint256",
                    "name": "",
                    "type": "uint256"
                }
            ],
            "stateMutability": "view",
            "type": "function"
        },
        {
            "inputs": [
                {
                    "internalType": "uint256",
                    "name": "tokenId",
                    "type": "uint256"
                }
            ],
            "name": "tokenURI",
            "outputs": [
                {
                    "internalType": "string",
                    "name": "",
                    "type": "string"
                }
            ],
            "stateMutability": "view",
            "type": "function"
        },
        {
            "inputs": [
                {
                    "internalType": "address",
                    "name": "from",
                    "type": "address"
                },
                {
                    "internalType": "address",
                    "name": "to",
                    "type": "address"
                },
                {
                    "internalType": "uint256",
                    "name": "tokenId",
                    "type": "uint256"
                }
            ],
            "name": "transferFrom",
            "outputs": [],
            "stateMutability": "nonpayable",
            "type": "function"
        },
        {
            "inputs": [
                {
                    "internalType": "address",
                    "name": "newOwner",
                    "type": "address"
                }
            ],
            "name": "transferOwnership",
            "outputs": [],
            "stateMutability": "nonpayable",
            "type": "function"
        },
        {
            "inputs": [
                {
                    "internalType": "address payable",
                    "name": "payee",
                    "type": "address"
                }
            ],
            "name": "withdrawPayments",
            "outputs": [],
            "stateMutability": "nonpayable",
            "type": "function"
        }
    ],
    "bytecode": "60a06040523480156200001157600080fd5b506040518060400160405280600a815260200169159bdb18d85b9bd3999d60b21b815250604051806040016040528060058152602001641590db999d60da1b8152508160009081620000649190620001c4565b506001620000738282620001c4565b505050604051620000849062000111565b604051809103906000f080158015620000a1573d6000803e3d6000fd5b506001600160a01b0316608052620000b933620000bf565b62000290565b600680546001600160a01b038381166001600160a01b0319831681179093556040519116919082907f8be0079c531659141344cd1fd0a4f28419497f9722a3daafe3b4186f6b6457e090600090a35050565b61058c8062001bee83390190565b634e487b7160e01b600052604160045260246000fd5b600181811c908216806200014a57607f821691505b6020821081036200016b57634e487b7160e01b600052602260045260246000fd5b50919050565b601f821115620001bf57600081815260208120601f850160051c810160208610156200019a5750805b601f850160051c820191505b81811015620001bb57828155600101620001a6565b5050505b505050565b81516001600160401b03811115620001e057620001e06200011f565b620001f881620001f1845462000135565b8462000171565b602080601f831160018114620002305760008415620002175750858301515b600019600386901b1c1916600185901b178555620001bb565b600085815260208120601f198616915b82811015620002615788860151825594840194600190910190840162000240565b5085821015620002805787850151600019600388901b60f8161c191681555b5050505050600190811b01905550565b608051611942620002ac60003960006109d901526119426000f3fe6080604052600436106101355760003560e01c8063755edd17116100ab578063b88d4fde1161006f578063b88d4fde1461033f578063c002d23d1461035f578063c87b56dd1461037a578063e2982c211461039a578063e985e9c5146103ba578063f2fde38b146103da57600080fd5b8063755edd17146102c45780638da5cb5b146102d7578063902d55a5146102f557806395d89b411461030a578063a22cb4651461031f57600080fd5b806323b872dd116100fd57806323b872dd1461020f57806331b3eb941461022f57806342842e0e1461024f5780636352211e1461026f57806370a082311461028f578063715018a6146102af57600080fd5b806301ffc9a71461013a57806306fdde031461016f578063081812fc14610191578063095ea7b3146101c957806317d70f7c146101eb575b600080fd5b34801561014657600080fd5b5061015a610155366004611447565b6103fa565b60405190151581526020015b60405180910390f35b34801561017b57600080fd5b5061018461044c565b60405161016691906114b4565b34801561019d57600080fd5b506101b16101ac3660046114c7565b6104de565b6040516001600160a01b039091168152602001610166565b3480156101d557600080fd5b506101e96101e43660046114f5565b610505565b005b3480156101f757600080fd5b5061020160085481565b604051908152602001610166565b34801561021b57600080fd5b506101e961022a366004611521565b61061f565b34801561023b57600080fd5b506101e961024a366004611562565b610650565b34801561025b57600080fd5b506101e961026a366004611521565b6106cc565b34801561027b57600080fd5b506101b161028a3660046114c7565b6106e7565b34801561029b57600080fd5b506102016102aa366004611562565b610747565b3480156102bb57600080fd5b506101e96107cd565b6102016102d2366004611562565b6107e1565b3480156102e357600080fd5b506006546001600160a01b03166101b1565b34801561030157600080fd5b50610201600581565b34801561031657600080fd5b506101846108fa565b34801561032b57600080fd5b506101e961033a36600461157f565b610909565b34801561034b57600080fd5b506101e961035a3660046115d3565b610918565b34801561036b57600080fd5b50610201662386f26fc1000081565b34801561038657600080fd5b506101846103953660046114c7565b610950565b3480156103a657600080fd5b506102016103b5366004611562565b6109b7565b3480156103c657600080fd5b5061015a6103d53660046116b3565b610a46565b3480156103e657600080fd5b506101e96103f5366004611562565b610a74565b60006001600160e01b031982166380ac58cd60e01b148061042b57506001600160e01b03198216635b5e139f60e01b145b8061044657506301ffc9a760e01b6001600160e01b03198316145b92915050565b60606000805461045b906116e1565b80601f0160208091040260200160405190810160405280929190818152602001828054610487906116e1565b80156104d45780601f106104a9576101008083540402835291602001916104d4565b820191906000526020600020905b8154815290600101906020018083116104b757829003601f168201915b5050505050905090565b60006104e982610aed565b506000908152600460205260409020546001600160a01b031690565b6000610510826106e7565b9050806001600160a01b0316836001600160a01b0316036105825760405162461bcd60e51b815260206004820152602160248201527f4552433732313a20617070726f76616c20746f2063757272656e74206f776e656044820152603960f91b60648201526084015b60405180910390fd5b336001600160a01b038216148061059e575061059e8133610a46565b6106105760405162461bcd60e51b815260206004820152603d60248201527f4552433732313a20617070726f76652063616c6c6572206973206e6f7420746f60448201527f6b656e206f776e6572206f7220617070726f76656420666f7220616c6c0000006064820152608401610579565b61061a8383610b4c565b505050565b6106293382610bba565b6106455760405162461bcd60e51b81526004016105799061171b565b61061a838383610c19565b610658610d8a565b60405147906000906001600160a01b0384169083908381818185875af1925050503d80600081146106a5576040519150601f19603f3d011682016040523d82523d6000602084013e6106aa565b606091505b505090508061061a5760405163d23a9e8960e01b815260040160405180910390fd5b61061a83838360405180602001604052806000815250610918565b6000818152600260205260408120546001600160a01b0316806104465760405162461bcd60e51b8152602060048201526018602482015277115490cdcc8c4e881a5b9d985b1a59081d1bdad95b88125160421b6044820152606401610579565b60006001600160a01b0382166107b15760405162461bcd60e51b815260206004820152602960248201527f4552433732313a2061646472657373207a65726f206973206e6f7420612076616044820152683634b21037bbb732b960b91b6064820152608401610579565b506001600160a01b031660009081526003602052604090205490565b6107d5610d8a565b6107df6000610de4565b565b6000662386f26fc1000034101561080b576040516310f0c8f160e11b815260040160405180910390fd5b662386f26fc10000341115610833576040516307aa0d1160e41b815260040160405180910390fd5b6001600160a01b038216331461088b5760405162461bcd60e51b815260206004820152601d60248201527f5061796572206d75737420626520657175616c20746f2063616c6c65720000006044820152606401610579565b610899600780546001019055565b6007546008819055600510156108e65760405162461bcd60e51b815260206004820152601260248201527113585e081cdd5c1c1b1e481c995858da195960721b6044820152606401610579565b6108f282600854610e36565b505060085490565b60606001805461045b906116e1565b610914338383610e50565b5050565b6109223383610bba565b61093e5760405162461bcd60e51b81526004016105799061171b565b61094a84848484610f1e565b50505050565b606061095b82610aed565b6000610965610f51565b9050600081511161098557604051806020016040528060008152506109b0565b8061098f84610f71565b6040516020016109a0929190611768565b6040516020818303038152906040525b9392505050565b6040516371d4ed8d60e11b81526001600160a01b0382811660048301526000917f00000000000000000000000000000000000000000000000000000000000000009091169063e3a9db1a90602401602060405180830381865afa158015610a22573d6000803e3d6000fd5b505050506040513d601f19601f820116820180604052508101906104469190611797565b6001600160a01b03918216600090815260056020908152604080832093909416825291909152205460ff1690565b610a7c610d8a565b6001600160a01b038116610ae15760405162461bcd60e51b815260206004820152602660248201527f4f776e61626c653a206e6577206f776e657220697320746865207a65726f206160448201526564647265737360d01b6064820152608401610579565b610aea81610de4565b50565b6000818152600260205260409020546001600160a01b0316610aea5760405162461bcd60e51b8152602060048201526018602482015277115490cdcc8c4e881a5b9d985b1a59081d1bdad95b88125160421b6044820152606401610579565b600081815260046020526040902080546001600160a01b0319166001600160a01b0384169081179091558190610b81826106e7565b6001600160a01b03167f8c5be1e5ebec7d5bd14f71427d1e84f3dd0314c0f7b2291e5b200ac8c7c3b92560405160405180910390a45050565b600080610bc6836106e7565b9050806001600160a01b0316846001600160a01b03161480610bed5750610bed8185610a46565b80610c115750836001600160a01b0316610c06846104de565b6001600160a01b0316145b949350505050565b826001600160a01b0316610c2c826106e7565b6001600160a01b031614610c525760405162461bcd60e51b8152600401610579906117b0565b6001600160a01b038216610cb45760405162461bcd60e51b8152602060048201526024808201527f4552433732313a207472616e7366657220746f20746865207a65726f206164646044820152637265737360e01b6064820152608401610579565b610cc18383836001611004565b826001600160a01b0316610cd4826106e7565b6001600160a01b031614610cfa5760405162461bcd60e51b8152600401610579906117b0565b600081815260046020908152604080832080546001600160a01b03199081169091556001600160a01b0387811680865260038552838620805460001901905590871680865283862080546001019055868652600290945282852080549092168417909155905184937fddf252ad1be2c89b69c2b068fc378daa952ba7f163c4a11628f55a4df523b3ef91a4505050565b6006546001600160a01b031633146107df5760405162461bcd60e51b815260206004820181905260248201527f4f776e61626c653a2063616c6c6572206973206e6f7420746865206f776e65726044820152606401610579565b600680546001600160a01b038381166001600160a01b0319831681179093556040519116919082907f8be0079c531659141344cd1fd0a4f28419497f9722a3daafe3b4186f6b6457e090600090a35050565b61091482826040518060200160405280600081525061108c565b816001600160a01b0316836001600160a01b031603610eb15760405162461bcd60e51b815260206004820152601960248201527f4552433732313a20617070726f766520746f2063616c6c6572000000000000006044820152606401610579565b6001600160a01b03838116600081815260056020908152604080832094871680845294825291829020805460ff191686151590811790915591519182527f17307eab39ab6107e8899845ad3d59bd9653f200f220920489ca2b5937696c31910160405180910390a3505050565b610f29848484610c19565b610f35848484846110bf565b61094a5760405162461bcd60e51b8152600401610579906117f5565b60606040518060600160405280602f81526020016118de602f9139905090565b60606000610f7e836111c0565b600101905060008167ffffffffffffffff811115610f9e57610f9e6115bd565b6040519080825280601f01601f191660200182016040528015610fc8576020820181803683370190505b5090508181016020015b600019016f181899199a1a9b1b9c1cb0b131b232b360811b600a86061a8153600a8504945084610fd257509392505050565b600181111561094a576001600160a01b0384161561104a576001600160a01b0384166000908152600360205260408120805483929061104490849061185d565b90915550505b6001600160a01b0383161561094a576001600160a01b03831660009081526003602052604081208054839290611081908490611870565b909155505050505050565b6110968383611298565b6110a360008484846110bf565b61061a5760405162461bcd60e51b8152600401610579906117f5565b60006001600160a01b0384163b156111b557604051630a85bd0160e11b81526001600160a01b0385169063150b7a0290611103903390899088908890600401611883565b6020604051808303816000875af192505050801561113e575060408051601f3d908101601f1916820190925261113b918101906118c0565b60015b61119b573d80801561116c576040519150601f19603f3d011682016040523d82523d6000602084013e611171565b606091505b5080516000036111935760405162461bcd60e51b8152600401610579906117f5565b805181602001fd5b6001600160e01b031916630a85bd0160e11b149050610c11565b506001949350505050565b60008072184f03e93ff9f4daa797ed6e38ed64bf6a1f0160401b83106111ff5772184f03e93ff9f4daa797ed6e38ed64bf6a1f0160401b830492506040015b6d04ee2d6d415b85acef8100000000831061122b576d04ee2d6d415b85acef8100000000830492506020015b662386f26fc10000831061124957662386f26fc10000830492506010015b6305f5e1008310611261576305f5e100830492506008015b612710831061127557612710830492506004015b60648310611287576064830492506002015b600a83106104465760010192915050565b6001600160a01b0382166112ee5760405162461bcd60e51b815260206004820181905260248201527f4552433732313a206d696e7420746f20746865207a65726f20616464726573736044820152606401610579565b6000818152600260205260409020546001600160a01b0316156113535760405162461bcd60e51b815260206004820152601c60248201527f4552433732313a20746f6b656e20616c7265616479206d696e746564000000006044820152606401610579565b611361600083836001611004565b6000818152600260205260409020546001600160a01b0316156113c65760405162461bcd60e51b815260206004820152601c60248201527f4552433732313a20746f6b656e20616c7265616479206d696e746564000000006044820152606401610579565b6001600160a01b038216600081815260036020908152604080832080546001019055848352600290915280822080546001600160a01b0319168417905551839291907fddf252ad1be2c89b69c2b068fc378daa952ba7f163c4a11628f55a4df523b3ef908290a45050565b6001600160e01b031981168114610aea57600080fd5b60006020828403121561145957600080fd5b81356109b081611431565b60005b8381101561147f578181015183820152602001611467565b50506000910152565b600081518084526114a0816020860160208601611464565b601f01601f19169290920160200192915050565b6020815260006109b06020830184611488565b6000602082840312156114d957600080fd5b5035919050565b6001600160a01b0381168114610aea57600080fd5b6000806040838503121561150857600080fd5b8235611513816114e0565b946020939093013593505050565b60008060006060848603121561153657600080fd5b8335611541816114e0565b92506020840135611551816114e0565b929592945050506040919091013590565b60006020828403121561157457600080fd5b81356109b0816114e0565b6000806040838503121561159257600080fd5b823561159d816114e0565b9150602083013580151581146115b257600080fd5b809150509250929050565b634e487b7160e01b600052604160045260246000fd5b600080600080608085870312156115e957600080fd5b84356115f4816114e0565b93506020850135611604816114e0565b925060408501359150606085013567ffffffffffffffff8082111561162857600080fd5b818701915087601f83011261163c57600080fd5b81358181111561164e5761164e6115bd565b604051601f8201601f19908116603f01168101908382118183101715611676576116766115bd565b816040528281528a602084870101111561168f57600080fd5b82602086016020830137600060208483010152809550505050505092959194509250565b600080604083850312156116c657600080fd5b82356116d1816114e0565b915060208301356115b2816114e0565b600181811c908216806116f557607f821691505b60208210810361171557634e487b7160e01b600052602260045260246000fd5b50919050565b6020808252602d908201527f4552433732313a2063616c6c6572206973206e6f7420746f6b656e206f776e6560408201526c1c881bdc88185c1c1c9bdd9959609a1b606082015260800190565b6000835161177a818460208801611464565b83519083019061178e818360208801611464565b01949350505050565b6000602082840312156117a957600080fd5b5051919050565b60208082526025908201527f4552433732313a207472616e736665722066726f6d20696e636f72726563742060408201526437bbb732b960d91b606082015260800190565b60208082526032908201527f4552433732313a207472616e7366657220746f206e6f6e20455243373231526560408201527131b2b4bb32b91034b6b83632b6b2b73a32b960711b606082015260800190565b634e487b7160e01b600052601160045260246000fd5b8181038181111561044657610446611847565b8082018082111561044657610446611847565b6001600160a01b03858116825284166020820152604081018390526080606082018190526000906118b690830184611488565b9695505050505050565b6000602082840312156118d257600080fd5b81516109b08161143156fe68747470733a2f2f373532622d322d3232392d32372d3130362e65752e6e67726f6b2e696f2f6170692f6e6674732fa2646970667358221220ce719e008976fd0976fdec4c907e582e4f18285234e10be2a692d4301743e8eb64736f6c63430008110033608060405234801561001057600080fd5b5061001a3361001f565b61006f565b600080546001600160a01b038381166001600160a01b0319831681178455604051919092169283917f8be0079c531659141344cd1fd0a4f28419497f9722a3daafe3b4186f6b6457e09190a35050565b61050e8061007e6000396000f3fe6080604052600436106100555760003560e01c806351cff8d91461005a578063715018a61461007c5780638da5cb5b14610091578063e3a9db1a146100be578063f2fde38b14610102578063f340fa0114610122575b600080fd5b34801561006657600080fd5b5061007a61007536600461048d565b610135565b005b34801561008857600080fd5b5061007a6101ac565b34801561009d57600080fd5b506000546040516001600160a01b0390911681526020015b60405180910390f35b3480156100ca57600080fd5b506100f46100d936600461048d565b6001600160a01b031660009081526001602052604090205490565b6040519081526020016100b5565b34801561010e57600080fd5b5061007a61011d36600461048d565b6101c0565b61007a61013036600461048d565b61023e565b61013d6102b0565b6001600160a01b0381166000818152600160205260408120805491905590610165908261030a565b816001600160a01b03167f7084f5476618d8e60b11ef0d7d3f06914655adb8793e28ff7f018d4c76d505d5826040516101a091815260200190565b60405180910390a25050565b6101b46102b0565b6101be6000610428565b565b6101c86102b0565b6001600160a01b0381166102325760405162461bcd60e51b815260206004820152602660248201527f4f776e61626c653a206e6577206f776e657220697320746865207a65726f206160448201526564647265737360d01b60648201526084015b60405180910390fd5b61023b81610428565b50565b6102466102b0565b6001600160a01b0381166000908152600160205260408120805434928392916102709084906104b1565b90915550506040518181526001600160a01b038316907f2da466a7b24304f47e87fa2e1e5a81b9831ce54fec19055ce277ca2f39ba42c4906020016101a0565b6000546001600160a01b031633146101be5760405162461bcd60e51b815260206004820181905260248201527f4f776e61626c653a2063616c6c6572206973206e6f7420746865206f776e65726044820152606401610229565b8047101561035a5760405162461bcd60e51b815260206004820152601d60248201527f416464726573733a20696e73756666696369656e742062616c616e63650000006044820152606401610229565b6000826001600160a01b03168260405160006040518083038185875af1925050503d80600081146103a7576040519150601f19603f3d011682016040523d82523d6000602084013e6103ac565b606091505b50509050806104235760405162461bcd60e51b815260206004820152603a60248201527f416464726573733a20756e61626c6520746f2073656e642076616c75652c207260448201527f6563697069656e74206d617920686176652072657665727465640000000000006064820152608401610229565b505050565b600080546001600160a01b038381166001600160a01b0319831681178455604051919092169283917f8be0079c531659141344cd1fd0a4f28419497f9722a3daafe3b4186f6b6457e09190a35050565b6001600160a01b038116811461023b57600080fd5b60006020828403121561049f57600080fd5b81356104aa81610478565b9392505050565b808201808211156104d257634e487b7160e01b600052601160045260246000fd5b9291505056fea264697066735822122031443254aea3f1bd12676bf1fae0d030fe1e083977b367998e34ee5363c044d964736f6c63430008110033",
    "sourcePath": "c:/Users/Administrator/BLOCKCHAIN_GitHub/SOLIDITY/Projects/ETH_DENVER_BOOTCAMP/Homework_11/OpenZeppelin/src/VolcanoNftOpenZeppelin.sol",
    "compiler": {
        "name": "solc",
        "version": "0.8.17+commit.8df45f5f"
    },
    "functionHashes": {
        "MINT_PRICE()": "c002d23d",
        "TOTAL_SUPPLY()": "902d55a5",
        "approve(address,uint256)": "095ea7b3",
        "balanceOf(address)": "70a08231",
        "getApproved(uint256)": "081812fc",
        "isApprovedForAll(address,address)": "e985e9c5",
        "mintTo(address)": "755edd17",
        "name()": "06fdde03",
        "owner()": "8da5cb5b",
        "ownerOf(uint256)": "6352211e",
        "payments(address)": "e2982c21",
        "renounceOwnership()": "715018a6",
        "safeTransferFrom(address,address,uint256)": "42842e0e",
        "safeTransferFrom(address,address,uint256,bytes)": "b88d4fde",
        "setApprovalForAll(address,bool)": "a22cb465",
        "supportsInterface(bytes4)": "01ffc9a7",
        "symbol()": "95d89b41",
        "tokenId()": "17d70f7c",
        "tokenURI(uint256)": "c87b56dd",
        "transferFrom(address,address,uint256)": "23b872dd",
        "transferOwnership(address)": "f2fde38b",
        "withdrawPayments(address)": "31b3eb94"
    },
    "gasEstimates": {
        "creation": {
            "codeDepositCost": "1293200",
            "executionCost": "infinite",
            "totalCost": "infinite"
        },
        "external": {
            "MINT_PRICE()": "239",
            "TOTAL_SUPPLY()": "262",
            "approve(address,uint256)": "infinite",
            "balanceOf(address)": "2694",
            "getApproved(uint256)": "4792",
            "isApprovedForAll(address,address)": "infinite",
            "mintTo(address)": "infinite",
            "name()": "infinite",
            "owner()": "2376",
            "ownerOf(uint256)": "2627",
            "payments(address)": "infinite",
            "renounceOwnership()": "infinite",
            "safeTransferFrom(address,address,uint256)": "infinite",
            "safeTransferFrom(address,address,uint256,bytes)": "infinite",
            "setApprovalForAll(address,bool)": "26788",
            "supportsInterface(bytes4)": "534",
            "symbol()": "infinite",
            "tokenId()": "2407",
            "tokenURI(uint256)": "infinite",
            "transferFrom(address,address,uint256)": "infinite",
            "transferOwnership(address)": "infinite",
            "withdrawPayments(address)": "infinite"
        },
        "internal": {
            "_baseURI()": "infinite"
        }
    }
}