{
  "_format": "hh-sol-artifact-1",
  "contractName": "FamilyAsset",
  "sourceName": "contracts/FamilyAsset.sol",
  "abi": [
    {
      "inputs": [
        {
          "internalType": "uint256[]",
          "name": "_amounts",
          "type": "uint256[]"
        },
        {
          "internalType": "address",
          "name": "_beneficiary",
          "type": "address"
        }
      ],
      "stateMutability": "nonpayable",
      "type": "constructor"
    },
    {
      "anonymous": false,
      "inputs": [
        {
          "indexed": true,
          "internalType": "address",
          "name": "account",
          "type": "address"
        },
        {
          "indexed": true,
          "internalType": "address",
          "name": "operator",
          "type": "address"
        },
        {
          "indexed": false,
          "internalType": "bool",
          "name": "approved",
          "type": "bool"
        }
      ],
      "name": "ApprovalForAll",
      "type": "event"
    },
    {
      "anonymous": false,
      "inputs": [
        {
          "indexed": true,
          "internalType": "address",
          "name": "previousOwner",
          "type": "address"
        },
        {
          "indexed": true,
          "internalType": "address",
          "name": "newOwner",
          "type": "address"
        }
      ],
      "name": "OwnershipTransferred",
      "type": "event"
    },
    {
      "anonymous": false,
      "inputs": [
        {
          "indexed": false,
          "internalType": "address",
          "name": "account",
          "type": "address"
        }
      ],
      "name": "Paused",
      "type": "event"
    },
    {
      "anonymous": false,
      "inputs": [
        {
          "indexed": true,
          "internalType": "address",
          "name": "operator",
          "type": "address"
        },
        {
          "indexed": true,
          "internalType": "address",
          "name": "from",
          "type": "address"
        },
        {
          "indexed": true,
          "internalType": "address",
          "name": "to",
          "type": "address"
        },
        {
          "indexed": false,
          "internalType": "uint256[]",
          "name": "ids",
          "type": "uint256[]"
        },
        {
          "indexed": false,
          "internalType": "uint256[]",
          "name": "values",
          "type": "uint256[]"
        }
      ],
      "name": "TransferBatch",
      "type": "event"
    },
    {
      "anonymous": false,
      "inputs": [
        {
          "indexed": true,
          "internalType": "address",
          "name": "operator",
          "type": "address"
        },
        {
          "indexed": true,
          "internalType": "address",
          "name": "from",
          "type": "address"
        },
        {
          "indexed": true,
          "internalType": "address",
          "name": "to",
          "type": "address"
        },
        {
          "indexed": false,
          "internalType": "uint256",
          "name": "id",
          "type": "uint256"
        },
        {
          "indexed": false,
          "internalType": "uint256",
          "name": "value",
          "type": "uint256"
        }
      ],
      "name": "TransferSingle",
      "type": "event"
    },
    {
      "anonymous": false,
      "inputs": [
        {
          "indexed": false,
          "internalType": "string",
          "name": "value",
          "type": "string"
        },
        {
          "indexed": true,
          "internalType": "uint256",
          "name": "id",
          "type": "uint256"
        }
      ],
      "name": "URI",
      "type": "event"
    },
    {
      "anonymous": false,
      "inputs": [
        {
          "indexed": false,
          "internalType": "address",
          "name": "account",
          "type": "address"
        }
      ],
      "name": "Unpaused",
      "type": "event"
    },
    {
      "inputs": [],
      "name": "BYCICLE",
      "outputs": [
        {
          "internalType": "uint256",
          "name": "",
          "type": "uint256"
        }
      ],
      "stateMutability": "view",
      "type": "function"
    },
    {
      "inputs": [],
      "name": "CAR",
      "outputs": [
        {
          "internalType": "uint256",
          "name": "",
          "type": "uint256"
        }
      ],
      "stateMutability": "view",
      "type": "function"
    },
    {
      "inputs": [],
      "name": "COW",
      "outputs": [
        {
          "internalType": "uint256",
          "name": "",
          "type": "uint256"
        }
      ],
      "stateMutability": "view",
      "type": "function"
    },
    {
      "inputs": [],
      "name": "HOUSE",
      "outputs": [
        {
          "internalType": "uint256",
          "name": "",
          "type": "uint256"
        }
      ],
      "stateMutability": "view",
      "type": "function"
    },
    {
      "inputs": [],
      "name": "LAND",
      "outputs": [
        {
          "internalType": "uint256",
          "name": "",
          "type": "uint256"
        }
      ],
      "stateMutability": "view",
      "type": "function"
    },
    {
      "inputs": [
        {
          "internalType": "uint256",
          "name": "",
          "type": "uint256"
        }
      ],
      "name": "amounts",
      "outputs": [
        {
          "internalType": "uint256",
          "name": "",
          "type": "uint256"
        }
      ],
      "stateMutability": "view",
      "type": "function"
    },
    {
      "inputs": [
        {
          "internalType": "address",
          "name": "account",
          "type": "address"
        },
        {
          "internalType": "uint256",
          "name": "id",
          "type": "uint256"
        }
      ],
      "name": "balanceOf",
      "outputs": [
        {
          "internalType": "uint256",
          "name": "",
          "type": "uint256"
        }
      ],
      "stateMutability": "view",
      "type": "function"
    },
    {
      "inputs": [
        {
          "internalType": "address[]",
          "name": "accounts",
          "type": "address[]"
        },
        {
          "internalType": "uint256[]",
          "name": "ids",
          "type": "uint256[]"
        }
      ],
      "name": "balanceOfBatch",
      "outputs": [
        {
          "internalType": "uint256[]",
          "name": "",
          "type": "uint256[]"
        }
      ],
      "stateMutability": "view",
      "type": "function"
    },
    {
      "inputs": [],
      "name": "beneficiary",
      "outputs": [
        {
          "internalType": "address",
          "name": "",
          "type": "address"
        }
      ],
      "stateMutability": "view",
      "type": "function"
    },
    {
      "inputs": [
        {
          "internalType": "address",
          "name": "account",
          "type": "address"
        },
        {
          "internalType": "address",
          "name": "operator",
          "type": "address"
        }
      ],
      "name": "isApprovedForAll",
      "outputs": [
        {
          "internalType": "bool",
          "name": "",
          "type": "bool"
        }
      ],
      "stateMutability": "view",
      "type": "function"
    },
    {
      "inputs": [],
      "name": "mintAssets",
      "outputs": [],
      "stateMutability": "nonpayable",
      "type": "function"
    },
    {
      "inputs": [],
      "name": "owner",
      "outputs": [
        {
          "internalType": "address",
          "name": "",
          "type": "address"
        }
      ],
      "stateMutability": "view",
      "type": "function"
    },
    {
      "inputs": [],
      "name": "pause",
      "outputs": [],
      "stateMutability": "nonpayable",
      "type": "function"
    },
    {
      "inputs": [],
      "name": "paused",
      "outputs": [
        {
          "internalType": "bool",
          "name": "",
          "type": "bool"
        }
      ],
      "stateMutability": "view",
      "type": "function"
    },
    {
      "inputs": [],
      "name": "renounceOwnership",
      "outputs": [],
      "stateMutability": "nonpayable",
      "type": "function"
    },
    {
      "inputs": [
        {
          "internalType": "address",
          "name": "from",
          "type": "address"
        },
        {
          "internalType": "address",
          "name": "to",
          "type": "address"
        },
        {
          "internalType": "uint256[]",
          "name": "ids",
          "type": "uint256[]"
        },
        {
          "internalType": "uint256[]",
          "name": "amounts",
          "type": "uint256[]"
        },
        {
          "internalType": "bytes",
          "name": "data",
          "type": "bytes"
        }
      ],
      "name": "safeBatchTransferFrom",
      "outputs": [],
      "stateMutability": "nonpayable",
      "type": "function"
    },
    {
      "inputs": [
        {
          "internalType": "address",
          "name": "from",
          "type": "address"
        },
        {
          "internalType": "address",
          "name": "to",
          "type": "address"
        },
        {
          "internalType": "uint256",
          "name": "id",
          "type": "uint256"
        },
        {
          "internalType": "uint256",
          "name": "amount",
          "type": "uint256"
        },
        {
          "internalType": "bytes",
          "name": "data",
          "type": "bytes"
        }
      ],
      "name": "safeTransferFrom",
      "outputs": [],
      "stateMutability": "nonpayable",
      "type": "function"
    },
    {
      "inputs": [
        {
          "internalType": "address",
          "name": "operator",
          "type": "address"
        },
        {
          "internalType": "bool",
          "name": "approved",
          "type": "bool"
        }
      ],
      "name": "setApprovalForAll",
      "outputs": [],
      "stateMutability": "nonpayable",
      "type": "function"
    },
    {
      "inputs": [
        {
          "internalType": "bytes4",
          "name": "interfaceId",
          "type": "bytes4"
        }
      ],
      "name": "supportsInterface",
      "outputs": [
        {
          "internalType": "bool",
          "name": "",
          "type": "bool"
        }
      ],
      "stateMutability": "view",
      "type": "function"
    },
    {
      "inputs": [
        {
          "internalType": "address",
          "name": "newOwner",
          "type": "address"
        }
      ],
      "name": "transferOwnership",
      "outputs": [],
      "stateMutability": "nonpayable",
      "type": "function"
    },
    {
      "inputs": [],
      "name": "unpause",
      "outputs": [],
      "stateMutability": "nonpayable",
      "type": "function"
    },
    {
      "inputs": [
        {
          "internalType": "uint256",
          "name": "_tokenid",
          "type": "uint256"
        }
      ],
      "name": "uri",
      "outputs": [
        {
          "internalType": "string",
          "name": "",
          "type": "string"
        }
      ],
      "stateMutability": "pure",
      "type": "function"
    }
  ],
  "bytecode": "0x60806040523480156200001157600080fd5b5060405162003caf38038062003caf83398181016040528101906200003791906200050e565b6040518060800160405280604d815260200162003c62604d913962000062816200013f60201b60201c565b5062000083620000776200015460201b60201c565b6200015c60201b60201c565b6000600360146101000a81548160ff0219169083151502179055506040518060a001604052806000815260200160018152602001600281526020016003815260200160048152506004906005620000dc92919062000222565b508160059080519060200190620000f592919062000274565b5080600660006101000a81548173ffffffffffffffffffffffffffffffffffffffff021916908373ffffffffffffffffffffffffffffffffffffffff16021790555050506200089c565b8060029081620001509190620007b5565b5050565b600033905090565b6000600360009054906101000a900473ffffffffffffffffffffffffffffffffffffffff16905081600360006101000a81548173ffffffffffffffffffffffffffffffffffffffff021916908373ffffffffffffffffffffffffffffffffffffffff1602179055508173ffffffffffffffffffffffffffffffffffffffff168173ffffffffffffffffffffffffffffffffffffffff167f8be0079c531659141344cd1fd0a4f28419497f9722a3daafe3b4186f6b6457e060405160405180910390a35050565b82805482825590600052602060002090810192821562000261579160200282015b828111156200026057825182559160200191906001019062000243565b5b509050620002709190620002c6565b5090565b828054828255906000526020600020908101928215620002b3579160200282015b82811115620002b257825182559160200191906001019062000295565b5b509050620002c29190620002c6565b5090565b5b80821115620002e1576000816000905550600101620002c7565b5090565b6000604051905090565b600080fd5b600080fd5b600080fd5b6000601f19601f8301169050919050565b7f4e487b7100000000000000000000000000000000000000000000000000000000600052604160045260246000fd5b6200034982620002fe565b810181811067ffffffffffffffff821117156200036b576200036a6200030f565b5b80604052505050565b600062000380620002e5565b90506200038e82826200033e565b919050565b600067ffffffffffffffff821115620003b157620003b06200030f565b5b602082029050602081019050919050565b600080fd5b6000819050919050565b620003dc81620003c7565b8114620003e857600080fd5b50565b600081519050620003fc81620003d1565b92915050565b600062000419620004138462000393565b62000374565b905080838252602082019050602084028301858111156200043f576200043e620003c2565b5b835b818110156200046c5780620004578882620003eb565b84526020840193505060208101905062000441565b5050509392505050565b600082601f8301126200048e576200048d620002f9565b5b8151620004a084826020860162000402565b91505092915050565b600073ffffffffffffffffffffffffffffffffffffffff82169050919050565b6000620004d682620004a9565b9050919050565b620004e881620004c9565b8114620004f457600080fd5b50565b6000815190506200050881620004dd565b92915050565b60008060408385031215620005285762000527620002ef565b5b600083015167ffffffffffffffff811115620005495762000548620002f4565b5b620005578582860162000476565b92505060206200056a85828601620004f7565b9150509250929050565b600081519050919050565b7f4e487b7100000000000000000000000000000000000000000000000000000000600052602260045260246000fd5b60006002820490506001821680620005c757607f821691505b602082108103620005dd57620005dc6200057f565b5b50919050565b60008190508160005260206000209050919050565b60006020601f8301049050919050565b600082821b905092915050565b600060088302620006477fffffffffffffffffffffffffffffffffffffffffffffffffffffffffffffffff8262000608565b62000653868362000608565b95508019841693508086168417925050509392505050565b6000819050919050565b600062000696620006906200068a84620003c7565b6200066b565b620003c7565b9050919050565b6000819050919050565b620006b28362000675565b620006ca620006c1826200069d565b84845462000615565b825550505050565b600090565b620006e1620006d2565b620006ee818484620006a7565b505050565b5b8181101562000716576200070a600082620006d7565b600181019050620006f4565b5050565b601f82111562000765576200072f81620005e3565b6200073a84620005f8565b810160208510156200074a578190505b620007626200075985620005f8565b830182620006f3565b50505b505050565b600082821c905092915050565b60006200078a600019846008026200076a565b1980831691505092915050565b6000620007a5838362000777565b9150826002028217905092915050565b620007c08262000574565b67ffffffffffffffff811115620007dc57620007db6200030f565b5b620007e88254620005ae565b620007f58282856200071a565b600060209050601f8311600181146200082d576000841562000818578287015190505b62000824858262000797565b86555062000894565b601f1984166200083d86620005e3565b60005b82811015620008675784890151825560018201915060208501945060208101905062000840565b8683101562000887578489015162000883601f89168262000777565b8355505b6001600288020188555050505b505050505050565b6133b680620008ac6000396000f3fe608060405234801561001057600080fd5b50600436106101415760003560e01c80636ba2554a116100b8578063a22cb4651161007c578063a22cb4651461032e578063ce89205b1461034a578063d2c89e9914610368578063e985e9c514610386578063f242432a146103b6578063f2fde38b146103d257610141565b80636ba2554a146102d4578063715018a6146102de578063785fa53f146102e85780638456cb59146103065780638da5cb5b1461031057610141565b80633f4ba83a1161010a5780633f4ba83a1461021057806345f0a44f1461021a578063475971621461024a5780634e1273f4146102685780635c975abb1461029857806369506ce4146102b657610141565b8062fdd58e1461014657806301ffc9a7146101765780630e89341c146101a65780632eb2c2d6146101d657806338af3eed146101f2575b600080fd5b610160600480360381019061015b9190611ea3565b6103ee565b60405161016d9190611ef2565b60405180910390f35b610190600480360381019061018b9190611f65565b6104b6565b60405161019d9190611fad565b60405180910390f35b6101c060048036038101906101bb9190611fc8565b610598565b6040516101cd9190612085565b60405180910390f35b6101f060048036038101906101eb91906122a4565b6105c9565b005b6101fa61066a565b6040516102079190612382565b60405180910390f35b610218610690565b005b610234600480360381019061022f9190611fc8565b6106a2565b6040516102419190611ef2565b60405180910390f35b6102526106c6565b60405161025f9190611ef2565b60405180910390f35b610282600480360381019061027d9190612460565b6106cb565b60405161028f9190612596565b60405180910390f35b6102a06107e4565b6040516102ad9190611fad565b60405180910390f35b6102be6107fb565b6040516102cb9190611ef2565b60405180910390f35b6102dc610800565b005b6102e66108ef565b005b6102f0610903565b6040516102fd9190611ef2565b60405180910390f35b61030e610908565b005b61031861091a565b6040516103259190612382565b60405180910390f35b610348600480360381019061034391906125e4565b610944565b005b61035261095a565b60405161035f9190611ef2565b60405180910390f35b61037061095f565b60405161037d9190611ef2565b60405180910390f35b6103a0600480360381019061039b9190612624565b610964565b6040516103ad9190611fad565b60405180910390f35b6103d060048036038101906103cb9190612664565b6109f8565b005b6103ec60048036038101906103e791906126fb565b610a99565b005b60008073ffffffffffffffffffffffffffffffffffffffff168373ffffffffffffffffffffffffffffffffffffffff160361045e576040517f08c379a00000000000000000000000000000000000000000000000000000000081526004016104559061279a565b60405180910390fd5b60008083815260200190815260200160002060008473ffffffffffffffffffffffffffffffffffffffff1673ffffffffffffffffffffffffffffffffffffffff16815260200190815260200160002054905092915050565b60007fd9b67a26000000000000000000000000000000000000000000000000000000007bffffffffffffffffffffffffffffffffffffffffffffffffffffffff1916827bffffffffffffffffffffffffffffffffffffffffffffffffffffffff1916148061058157507f0e89341c000000000000000000000000000000000000000000000000000000007bffffffffffffffffffffffffffffffffffffffffffffffffffffffff1916827bffffffffffffffffffffffffffffffffffffffffffffffffffffffff1916145b80610591575061059082610b1c565b5b9050919050565b60606105a382610b86565b6040516020016105b391906128da565b6040516020818303038152906040529050919050565b6105d1610c54565b73ffffffffffffffffffffffffffffffffffffffff168573ffffffffffffffffffffffffffffffffffffffff161480610617575061061685610611610c54565b610964565b5b610656576040517f08c379a000000000000000000000000000000000000000000000000000000000815260040161064d90612979565b60405180910390fd5b6106638585858585610c5c565b5050505050565b600660009054906101000a900473ffffffffffffffffffffffffffffffffffffffff1681565b610698610f7d565b6106a0610ffb565b565b600581815481106106b257600080fd5b906000526020600020016000915090505481565b600081565b60608151835114610711576040517f08c379a000000000000000000000000000000000000000000000000000000000815260040161070890612a0b565b60405180910390fd5b6000835167ffffffffffffffff81111561072e5761072d6120ac565b5b60405190808252806020026020018201604052801561075c5781602001602082028036833780820191505090505b50905060005b84518110156107d9576107a985828151811061078157610780612a2b565b5b602002602001015185838151811061079c5761079b612a2b565b5b60200260200101516103ee565b8282815181106107bc576107bb612a2b565b5b602002602001018181525050806107d290612a89565b9050610762565b508091505092915050565b6000600360149054906101000a900460ff16905090565b600281565b610808610f7d565b61081061105e565b6108ed600660009054906101000a900473ffffffffffffffffffffffffffffffffffffffff16600480548060200260200160405190810160405280929190818152602001828054801561088257602002820191906000526020600020905b81548152602001906001019080831161086e575b505050505060058054806020026020016040519081016040528092919081815260200182805480156108d357602002820191906000526020600020905b8154815260200190600101908083116108bf575b5050505050604051806020016040528060008152506110a8565b565b6108f7610f7d565b61090160006112d4565b565b600181565b610910610f7d565b61091861139a565b565b6000600360009054906101000a900473ffffffffffffffffffffffffffffffffffffffff16905090565b61095661094f610c54565b83836113fd565b5050565b600381565b600481565b6000600160008473ffffffffffffffffffffffffffffffffffffffff1673ffffffffffffffffffffffffffffffffffffffff16815260200190815260200160002060008373ffffffffffffffffffffffffffffffffffffffff1673ffffffffffffffffffffffffffffffffffffffff16815260200190815260200160002060009054906101000a900460ff16905092915050565b610a00610c54565b73ffffffffffffffffffffffffffffffffffffffff168573ffffffffffffffffffffffffffffffffffffffff161480610a465750610a4585610a40610c54565b610964565b5b610a85576040517f08c379a0000000000000000000000000000000000000000000000000000000008152600401610a7c90612979565b60405180910390fd5b610a928585858585611569565b5050505050565b610aa1610f7d565b600073ffffffffffffffffffffffffffffffffffffffff168173ffffffffffffffffffffffffffffffffffffffff1603610b10576040517f08c379a0000000000000000000000000000000000000000000000000000000008152600401610b0790612b43565b60405180910390fd5b610b19816112d4565b50565b60007f01ffc9a7000000000000000000000000000000000000000000000000000000007bffffffffffffffffffffffffffffffffffffffffffffffffffffffff1916827bffffffffffffffffffffffffffffffffffffffffffffffffffffffff1916149050919050565b606060006001610b9584611804565b01905060008167ffffffffffffffff811115610bb457610bb36120ac565b5b6040519080825280601f01601f191660200182016040528015610be65781602001600182028036833780820191505090505b509050600082602001820190505b600115610c49578080600190039150507f3031323334353637383961626364656600000000000000000000000000000000600a86061a8153600a8581610c3d57610c3c612b63565b5b04945060008503610bf4575b819350505050919050565b600033905090565b8151835114610ca0576040517f08c379a0000000000000000000000000000000000000000000000000000000008152600401610c9790612c04565b60405180910390fd5b600073ffffffffffffffffffffffffffffffffffffffff168473ffffffffffffffffffffffffffffffffffffffff1603610d0f576040517f08c379a0000000000000000000000000000000000000000000000000000000008152600401610d0690612c96565b60405180910390fd5b6000610d19610c54565b9050610d29818787878787611957565b60005b8451811015610eda576000858281518110610d4a57610d49612a2b565b5b602002602001015190506000858381518110610d6957610d68612a2b565b5b60200260200101519050600080600084815260200190815260200160002060008b73ffffffffffffffffffffffffffffffffffffffff1673ffffffffffffffffffffffffffffffffffffffff16815260200190815260200160002054905081811015610e0a576040517f08c379a0000000000000000000000000000000000000000000000000000000008152600401610e0190612d28565b60405180910390fd5b81810360008085815260200190815260200160002060008c73ffffffffffffffffffffffffffffffffffffffff1673ffffffffffffffffffffffffffffffffffffffff168152602001908152602001600020819055508160008085815260200190815260200160002060008b73ffffffffffffffffffffffffffffffffffffffff1673ffffffffffffffffffffffffffffffffffffffff1681526020019081526020016000206000828254610ebf9190612d48565b9250508190555050505080610ed390612a89565b9050610d2c565b508473ffffffffffffffffffffffffffffffffffffffff168673ffffffffffffffffffffffffffffffffffffffff168273ffffffffffffffffffffffffffffffffffffffff167f4a39dc06d4c0dbc64b70af90fd698a233a518aa5d07e595d983b8c0526c8f7fb8787604051610f51929190612d7c565b60405180910390a4610f6781878787878761195f565b610f75818787878787611967565b505050505050565b610f85610c54565b73ffffffffffffffffffffffffffffffffffffffff16610fa361091a565b73ffffffffffffffffffffffffffffffffffffffff1614610ff9576040517f08c379a0000000000000000000000000000000000000000000000000000000008152600401610ff090612dff565b60405180910390fd5b565b611003611b3e565b6000600360146101000a81548160ff0219169083151502179055507f5db9ee0a495bf2e6ff9c91a7834c1ba4fdd244a5e8aa4e537bd38aeae4b073aa611047610c54565b6040516110549190612382565b60405180910390a1565b6110666107e4565b156110a6576040517f08c379a000000000000000000000000000000000000000000000000000000000815260040161109d90612e6b565b60405180910390fd5b565b600073ffffffffffffffffffffffffffffffffffffffff168473ffffffffffffffffffffffffffffffffffffffff1603611117576040517f08c379a000000000000000000000000000000000000000000000000000000000815260040161110e90612efd565b60405180910390fd5b815183511461115b576040517f08c379a000000000000000000000000000000000000000000000000000000000815260040161115290612c04565b60405180910390fd5b6000611165610c54565b905061117681600087878787611957565b60005b845181101561122f5783818151811061119557611194612a2b565b5b60200260200101516000808784815181106111b3576111b2612a2b565b5b6020026020010151815260200190815260200160002060008873ffffffffffffffffffffffffffffffffffffffff1673ffffffffffffffffffffffffffffffffffffffff16815260200190815260200160002060008282546112159190612d48565b92505081905550808061122790612a89565b915050611179565b508473ffffffffffffffffffffffffffffffffffffffff16600073ffffffffffffffffffffffffffffffffffffffff168273ffffffffffffffffffffffffffffffffffffffff167f4a39dc06d4c0dbc64b70af90fd698a233a518aa5d07e595d983b8c0526c8f7fb87876040516112a7929190612d7c565b60405180910390a46112be8160008787878761195f565b6112cd81600087878787611967565b5050505050565b6000600360009054906101000a900473ffffffffffffffffffffffffffffffffffffffff16905081600360006101000a81548173ffffffffffffffffffffffffffffffffffffffff021916908373ffffffffffffffffffffffffffffffffffffffff1602179055508173ffffffffffffffffffffffffffffffffffffffff168173ffffffffffffffffffffffffffffffffffffffff167f8be0079c531659141344cd1fd0a4f28419497f9722a3daafe3b4186f6b6457e060405160405180910390a35050565b6113a261105e565b6001600360146101000a81548160ff0219169083151502179055507f62e78cea01bee320cd4e420270b5ea74000d11b0c9f74754ebdbfc544b05a2586113e6610c54565b6040516113f39190612382565b60405180910390a1565b8173ffffffffffffffffffffffffffffffffffffffff168373ffffffffffffffffffffffffffffffffffffffff160361146b576040517f08c379a000000000000000000000000000000000000000000000000000000000815260040161146290612f8f565b60405180910390fd5b80600160008573ffffffffffffffffffffffffffffffffffffffff1673ffffffffffffffffffffffffffffffffffffffff16815260200190815260200160002060008473ffffffffffffffffffffffffffffffffffffffff1673ffffffffffffffffffffffffffffffffffffffff16815260200190815260200160002060006101000a81548160ff0219169083151502179055508173ffffffffffffffffffffffffffffffffffffffff168373ffffffffffffffffffffffffffffffffffffffff167f17307eab39ab6107e8899845ad3d59bd9653f200f220920489ca2b5937696c318360405161155c9190611fad565b60405180910390a3505050565b600073ffffffffffffffffffffffffffffffffffffffff168473ffffffffffffffffffffffffffffffffffffffff16036115d8576040517f08c379a00000000000000000000000000000000000000000000000000000000081526004016115cf90612c96565b60405180910390fd5b60006115e2610c54565b905060006115ef85611b87565b905060006115fc85611b87565b905061160c838989858589611957565b600080600088815260200190815260200160002060008a73ffffffffffffffffffffffffffffffffffffffff1673ffffffffffffffffffffffffffffffffffffffff168152602001908152602001600020549050858110156116a3576040517f08c379a000000000000000000000000000000000000000000000000000000000815260040161169a90612d28565b60405180910390fd5b85810360008089815260200190815260200160002060008b73ffffffffffffffffffffffffffffffffffffffff1673ffffffffffffffffffffffffffffffffffffffff168152602001908152602001600020819055508560008089815260200190815260200160002060008a73ffffffffffffffffffffffffffffffffffffffff1673ffffffffffffffffffffffffffffffffffffffff16815260200190815260200160002060008282546117589190612d48565b925050819055508773ffffffffffffffffffffffffffffffffffffffff168973ffffffffffffffffffffffffffffffffffffffff168573ffffffffffffffffffffffffffffffffffffffff167fc3d58168c5ae7397731d063d5bbf3d657854427343f4c083240f7aacaa2d0f628a8a6040516117d5929190612faf565b60405180910390a46117eb848a8a86868a61195f565b6117f9848a8a8a8a8a611c01565b505050505050505050565b600080600090507a184f03e93ff9f4daa797ed6e38ed64bf6a1f0100000000000000008310611862577a184f03e93ff9f4daa797ed6e38ed64bf6a1f010000000000000000838161185857611857612b63565b5b0492506040810190505b6d04ee2d6d415b85acef8100000000831061189f576d04ee2d6d415b85acef8100000000838161189557611894612b63565b5b0492506020810190505b662386f26fc1000083106118ce57662386f26fc1000083816118c4576118c3612b63565b5b0492506010810190505b6305f5e10083106118f7576305f5e10083816118ed576118ec612b63565b5b0492506008810190505b612710831061191c57612710838161191257611911612b63565b5b0492506004810190505b6064831061193f576064838161193557611934612b63565b5b0492506002810190505b600a831061194e576001810190505b80915050919050565b505050505050565b505050505050565b6119868473ffffffffffffffffffffffffffffffffffffffff16611dd8565b15611b36578373ffffffffffffffffffffffffffffffffffffffff1663bc197c8187878686866040518663ffffffff1660e01b81526004016119cc95949392919061302d565b6020604051808303816000875af1925050508015611a0857506040513d601f19601f82011682018060405250810190611a0591906130aa565b60015b611aad57611a146130e4565b806308c379a003611a705750611a28613106565b80611a335750611a72565b806040517f08c379a0000000000000000000000000000000000000000000000000000000008152600401611a679190612085565b60405180910390fd5b505b6040517f08c379a0000000000000000000000000000000000000000000000000000000008152600401611aa490613208565b60405180910390fd5b63bc197c8160e01b7bffffffffffffffffffffffffffffffffffffffffffffffffffffffff1916817bffffffffffffffffffffffffffffffffffffffffffffffffffffffff191614611b34576040517f08c379a0000000000000000000000000000000000000000000000000000000008152600401611b2b9061329a565b60405180910390fd5b505b505050505050565b611b466107e4565b611b85576040517f08c379a0000000000000000000000000000000000000000000000000000000008152600401611b7c90613306565b60405180910390fd5b565b60606000600167ffffffffffffffff811115611ba657611ba56120ac565b5b604051908082528060200260200182016040528015611bd45781602001602082028036833780820191505090505b5090508281600081518110611bec57611beb612a2b565b5b60200260200101818152505080915050919050565b611c208473ffffffffffffffffffffffffffffffffffffffff16611dd8565b15611dd0578373ffffffffffffffffffffffffffffffffffffffff1663f23a6e6187878686866040518663ffffffff1660e01b8152600401611c66959493929190613326565b6020604051808303816000875af1925050508015611ca257506040513d601f19601f82011682018060405250810190611c9f91906130aa565b60015b611d4757611cae6130e4565b806308c379a003611d0a5750611cc2613106565b80611ccd5750611d0c565b806040517f08c379a0000000000000000000000000000000000000000000000000000000008152600401611d019190612085565b60405180910390fd5b505b6040517f08c379a0000000000000000000000000000000000000000000000000000000008152600401611d3e90613208565b60405180910390fd5b63f23a6e6160e01b7bffffffffffffffffffffffffffffffffffffffffffffffffffffffff1916817bffffffffffffffffffffffffffffffffffffffffffffffffffffffff191614611dce576040517f08c379a0000000000000000000000000000000000000000000000000000000008152600401611dc59061329a565b60405180910390fd5b505b505050505050565b6000808273ffffffffffffffffffffffffffffffffffffffff163b119050919050565b6000604051905090565b600080fd5b600080fd5b600073ffffffffffffffffffffffffffffffffffffffff82169050919050565b6000611e3a82611e0f565b9050919050565b611e4a81611e2f565b8114611e5557600080fd5b50565b600081359050611e6781611e41565b92915050565b6000819050919050565b611e8081611e6d565b8114611e8b57600080fd5b50565b600081359050611e9d81611e77565b92915050565b60008060408385031215611eba57611eb9611e05565b5b6000611ec885828601611e58565b9250506020611ed985828601611e8e565b9150509250929050565b611eec81611e6d565b82525050565b6000602082019050611f076000830184611ee3565b92915050565b60007fffffffff0000000000000000000000000000000000000000000000000000000082169050919050565b611f4281611f0d565b8114611f4d57600080fd5b50565b600081359050611f5f81611f39565b92915050565b600060208284031215611f7b57611f7a611e05565b5b6000611f8984828501611f50565b91505092915050565b60008115159050919050565b611fa781611f92565b82525050565b6000602082019050611fc26000830184611f9e565b92915050565b600060208284031215611fde57611fdd611e05565b5b6000611fec84828501611e8e565b91505092915050565b600081519050919050565b600082825260208201905092915050565b60005b8381101561202f578082015181840152602081019050612014565b60008484015250505050565b6000601f19601f8301169050919050565b600061205782611ff5565b6120618185612000565b9350612071818560208601612011565b61207a8161203b565b840191505092915050565b6000602082019050818103600083015261209f818461204c565b905092915050565b600080fd5b7f4e487b7100000000000000000000000000000000000000000000000000000000600052604160045260246000fd5b6120e48261203b565b810181811067ffffffffffffffff82111715612103576121026120ac565b5b80604052505050565b6000612116611dfb565b905061212282826120db565b919050565b600067ffffffffffffffff821115612142576121416120ac565b5b602082029050602081019050919050565b600080fd5b600061216b61216684612127565b61210c565b9050808382526020820190506020840283018581111561218e5761218d612153565b5b835b818110156121b757806121a38882611e8e565b845260208401935050602081019050612190565b5050509392505050565b600082601f8301126121d6576121d56120a7565b5b81356121e6848260208601612158565b91505092915050565b600080fd5b600067ffffffffffffffff82111561220f5761220e6120ac565b5b6122188261203b565b9050602081019050919050565b82818337600083830152505050565b6000612247612242846121f4565b61210c565b905082815260208101848484011115612263576122626121ef565b5b61226e848285612225565b509392505050565b600082601f83011261228b5761228a6120a7565b5b813561229b848260208601612234565b91505092915050565b600080600080600060a086880312156122c0576122bf611e05565b5b60006122ce88828901611e58565b95505060206122df88828901611e58565b945050604086013567ffffffffffffffff811115612300576122ff611e0a565b5b61230c888289016121c1565b935050606086013567ffffffffffffffff81111561232d5761232c611e0a565b5b612339888289016121c1565b925050608086013567ffffffffffffffff81111561235a57612359611e0a565b5b61236688828901612276565b9150509295509295909350565b61237c81611e2f565b82525050565b60006020820190506123976000830184612373565b92915050565b600067ffffffffffffffff8211156123b8576123b76120ac565b5b602082029050602081019050919050565b60006123dc6123d78461239d565b61210c565b905080838252602082019050602084028301858111156123ff576123fe612153565b5b835b8181101561242857806124148882611e58565b845260208401935050602081019050612401565b5050509392505050565b600082601f830112612447576124466120a7565b5b81356124578482602086016123c9565b91505092915050565b6000806040838503121561247757612476611e05565b5b600083013567ffffffffffffffff81111561249557612494611e0a565b5b6124a185828601612432565b925050602083013567ffffffffffffffff8111156124c2576124c1611e0a565b5b6124ce858286016121c1565b9150509250929050565b600081519050919050565b600082825260208201905092915050565b6000819050602082019050919050565b61250d81611e6d565b82525050565b600061251f8383612504565b60208301905092915050565b6000602082019050919050565b6000612543826124d8565b61254d81856124e3565b9350612558836124f4565b8060005b838110156125895781516125708882612513565b975061257b8361252b565b92505060018101905061255c565b5085935050505092915050565b600060208201905081810360008301526125b08184612538565b905092915050565b6125c181611f92565b81146125cc57600080fd5b50565b6000813590506125de816125b8565b92915050565b600080604083850312156125fb576125fa611e05565b5b600061260985828601611e58565b925050602061261a858286016125cf565b9150509250929050565b6000806040838503121561263b5761263a611e05565b5b600061264985828601611e58565b925050602061265a85828601611e58565b9150509250929050565b600080600080600060a086880312156126805761267f611e05565b5b600061268e88828901611e58565b955050602061269f88828901611e58565b94505060406126b088828901611e8e565b93505060606126c188828901611e8e565b925050608086013567ffffffffffffffff8111156126e2576126e1611e0a565b5b6126ee88828901612276565b9150509295509295909350565b60006020828403121561271157612710611e05565b5b600061271f84828501611e58565b91505092915050565b7f455243313135353a2061646472657373207a65726f206973206e6f742061207660008201527f616c6964206f776e657200000000000000000000000000000000000000000000602082015250565b6000612784602a83612000565b915061278f82612728565b604082019050919050565b600060208201905081810360008301526127b381612777565b9050919050565b600081905092915050565b7f68747470733a2f2f697066732e696f2f697066732f516d526677644a3438794660008201527f446b6673746d676a374b764e38417170754250657546374131534b383847676460208201527f37636e2f00000000000000000000000000000000000000000000000000000000604082015250565b60006128476044836127ba565b9150612852826127c5565b604482019050919050565b600061286882611ff5565b61287281856127ba565b9350612882818560208601612011565b80840191505092915050565b7f2e6a736f6e000000000000000000000000000000000000000000000000000000600082015250565b60006128c46005836127ba565b91506128cf8261288e565b600582019050919050565b60006128e58261283a565b91506128f1828461285d565b91506128fc826128b7565b915081905092915050565b7f455243313135353a2063616c6c6572206973206e6f7420746f6b656e206f776e60008201527f6572206f7220617070726f766564000000000000000000000000000000000000602082015250565b6000612963602e83612000565b915061296e82612907565b604082019050919050565b6000602082019050818103600083015261299281612956565b9050919050565b7f455243313135353a206163636f756e747320616e6420696473206c656e67746860008201527f206d69736d617463680000000000000000000000000000000000000000000000602082015250565b60006129f5602983612000565b9150612a0082612999565b604082019050919050565b60006020820190508181036000830152612a24816129e8565b9050919050565b7f4e487b7100000000000000000000000000000000000000000000000000000000600052603260045260246000fd5b7f4e487b7100000000000000000000000000000000000000000000000000000000600052601160045260246000fd5b6000612a9482611e6d565b91507fffffffffffffffffffffffffffffffffffffffffffffffffffffffffffffffff8203612ac657612ac5612a5a565b5b600182019050919050565b7f4f776e61626c653a206e6577206f776e657220697320746865207a65726f206160008201527f6464726573730000000000000000000000000000000000000000000000000000602082015250565b6000612b2d602683612000565b9150612b3882612ad1565b604082019050919050565b60006020820190508181036000830152612b5c81612b20565b9050919050565b7f4e487b7100000000000000000000000000000000000000000000000000000000600052601260045260246000fd5b7f455243313135353a2069647320616e6420616d6f756e7473206c656e6774682060008201527f6d69736d61746368000000000000000000000000000000000000000000000000602082015250565b6000612bee602883612000565b9150612bf982612b92565b604082019050919050565b60006020820190508181036000830152612c1d81612be1565b9050919050565b7f455243313135353a207472616e7366657220746f20746865207a65726f20616460008201527f6472657373000000000000000000000000000000000000000000000000000000602082015250565b6000612c80602583612000565b9150612c8b82612c24565b604082019050919050565b60006020820190508181036000830152612caf81612c73565b9050919050565b7f455243313135353a20696e73756666696369656e742062616c616e636520666f60008201527f72207472616e7366657200000000000000000000000000000000000000000000602082015250565b6000612d12602a83612000565b9150612d1d82612cb6565b604082019050919050565b60006020820190508181036000830152612d4181612d05565b9050919050565b6000612d5382611e6d565b9150612d5e83611e6d565b9250828201905080821115612d7657612d75612a5a565b5b92915050565b60006040820190508181036000830152612d968185612538565b90508181036020830152612daa8184612538565b90509392505050565b7f4f776e61626c653a2063616c6c6572206973206e6f7420746865206f776e6572600082015250565b6000612de9602083612000565b9150612df482612db3565b602082019050919050565b60006020820190508181036000830152612e1881612ddc565b9050919050565b7f5061757361626c653a2070617573656400000000000000000000000000000000600082015250565b6000612e55601083612000565b9150612e6082612e1f565b602082019050919050565b60006020820190508181036000830152612e8481612e48565b9050919050565b7f455243313135353a206d696e7420746f20746865207a65726f2061646472657360008201527f7300000000000000000000000000000000000000000000000000000000000000602082015250565b6000612ee7602183612000565b9150612ef282612e8b565b604082019050919050565b60006020820190508181036000830152612f1681612eda565b9050919050565b7f455243313135353a2073657474696e6720617070726f76616c2073746174757360008201527f20666f722073656c660000000000000000000000000000000000000000000000602082015250565b6000612f79602983612000565b9150612f8482612f1d565b604082019050919050565b60006020820190508181036000830152612fa881612f6c565b9050919050565b6000604082019050612fc46000830185611ee3565b612fd16020830184611ee3565b9392505050565b600081519050919050565b600082825260208201905092915050565b6000612fff82612fd8565b6130098185612fe3565b9350613019818560208601612011565b6130228161203b565b840191505092915050565b600060a0820190506130426000830188612373565b61304f6020830187612373565b81810360408301526130618186612538565b905081810360608301526130758185612538565b905081810360808301526130898184612ff4565b90509695505050505050565b6000815190506130a481611f39565b92915050565b6000602082840312156130c0576130bf611e05565b5b60006130ce84828501613095565b91505092915050565b60008160e01c9050919050565b600060033d11156131035760046000803e6131006000516130d7565b90505b90565b600060443d1061319357613118611dfb565b60043d036004823e80513d602482011167ffffffffffffffff82111715613140575050613193565b808201805167ffffffffffffffff81111561315e5750505050613193565b80602083010160043d03850181111561317b575050505050613193565b61318a826020018501866120db565b82955050505050505b90565b7f455243313135353a207472616e7366657220746f206e6f6e2d4552433131353560008201527f526563656976657220696d706c656d656e746572000000000000000000000000602082015250565b60006131f2603483612000565b91506131fd82613196565b604082019050919050565b60006020820190508181036000830152613221816131e5565b9050919050565b7f455243313135353a204552433131353552656365697665722072656a6563746560008201527f6420746f6b656e73000000000000000000000000000000000000000000000000602082015250565b6000613284602883612000565b915061328f82613228565b604082019050919050565b600060208201905081810360008301526132b381613277565b9050919050565b7f5061757361626c653a206e6f7420706175736564000000000000000000000000600082015250565b60006132f0601483612000565b91506132fb826132ba565b602082019050919050565b6000602082019050818103600083015261331f816132e3565b9050919050565b600060a08201905061333b6000830188612373565b6133486020830187612373565b6133556040830186611ee3565b6133626060830185611ee3565b81810360808301526133748184612ff4565b9050969550505050505056fea26469706673582212202ba4fbed8d08b13a60f17310d3a800cf400f73edb429d8947e80bad96f7e69b664736f6c6343000811003368747470733a2f2f697066732e696f2f697066732f516d526677644a34387946446b6673746d676a374b764e38417170754250657546374131534b383847676437636e2f7b69647d2e6a736f6e",
  "linkReferences": {},
  "deployedLinkReferences": {}
}