{
  "abi": [
    {
      "inputs": [],
      "stateMutability": "nonpayable",
      "type": "constructor"
    },
    {
      "inputs": [
        {
          "internalType": "uint256",
          "name": "requested",
          "type": "uint256"
        },
        {
          "internalType": "uint256",
          "name": "available",
          "type": "uint256"
        }
      ],
      "name": "NotEnoughFunds",
      "type": "error"
    },
    {
      "anonymous": false,
      "inputs": [
        {
          "indexed": false,
          "internalType": "uint256",
          "name": "",
          "type": "uint256"
        },
        {
          "indexed": false,
          "internalType": "uint256",
          "name": "",
          "type": "uint256"
        }
      ],
      "name": "SupplyChange",
      "type": "event"
    },
    {
      "anonymous": false,
      "inputs": [
        {
          "indexed": false,
          "internalType": "uint256",
          "name": "",
          "type": "uint256"
        },
        {
          "indexed": false,
          "internalType": "address",
          "name": "",
          "type": "address"
        }
      ],
      "name": "TransferData",
      "type": "event"
    },
    {
      "inputs": [
        {
          "internalType": "address",
          "name": "",
          "type": "address"
        }
      ],
      "name": "balances",
      "outputs": [
        {
          "internalType": "uint256",
          "name": "",
          "type": "uint256"
        }
      ],
      "stateMutability": "view",
      "type": "function"
    },
    {
      "inputs": [],
      "name": "getSupply",
      "outputs": [
        {
          "internalType": "uint256",
          "name": "",
          "type": "uint256"
        }
      ],
      "stateMutability": "view",
      "type": "function"
    },
    {
      "inputs": [
        {
          "internalType": "address",
          "name": "from",
          "type": "address"
        }
      ],
      "name": "getTransfers",
      "outputs": [
        {
          "components": [
            {
              "internalType": "address",
              "name": "recipient",
              "type": "address"
            },
            {
              "internalType": "uint256",
              "name": "amount",
              "type": "uint256"
            }
          ],
          "internalType": "struct VolcanoCoin.Payment[]",
          "name": "",
          "type": "tuple[]"
        }
      ],
      "stateMutability": "view",
      "type": "function"
    },
    {
      "inputs": [],
      "name": "setSupply",
      "outputs": [],
      "stateMutability": "nonpayable",
      "type": "function"
    },
    {
      "inputs": [
        {
          "internalType": "address",
          "name": "to",
          "type": "address"
        },
        {
          "internalType": "uint256",
          "name": "amount",
          "type": "uint256"
        }
      ],
      "name": "transfer",
      "outputs": [],
      "stateMutability": "nonpayable",
      "type": "function"
    }
  ],
  "bytecode": {
    "object": "0x608060405261271060015534801561001657600080fd5b50600080546001600160a01b03191633908117825560015490825260026020526040909120556104618061004b6000396000f3fe608060405234801561001057600080fd5b50600436106100575760003560e01c806327e235e31461005c5780636c9c2faf1461008f5780636d91c9cb14610097578063a9059cbb146100b7578063b743ccbd146100cc575b600080fd5b61007c61006a366004610345565b60026020526000908152604090205481565b6040519081526020015b60405180910390f35b60015461007c565b6100aa6100a5366004610345565b6100d4565b6040516100869190610367565b6100ca6100c53660046103bf565b61015f565b005b6100ca610297565b6001600160a01b0381166000908152600360209081526040808320805482518185028101850190935280835260609492939192909184015b82821015610154576000848152602090819020604080518082019091526002850290910180546001600160a01b0316825260019081015482840152908352909201910161010c565b505050509050919050565b336000908152600260205260409020548181101561019e576040516311920a6d60e31b8152600481018390526024810182905260440160405180910390fd5b33600090815260026020526040812080548492906101bd9084906103ff565b90915550506001600160a01b038316600090815260026020526040812080548492906101ea908490610418565b909155505033600090815260036020908152604080832081518083019092526001600160a01b038088168352828401878152825460018082018555938752949095209251600290940290920180546001600160a01b031916939092169290921781559151910155604080518381526001600160a01b03851660208201527fc93b3dc6d510aebde6bf73dcc5ff270ab2554bf5db86cc436e92ec9f185829e7910160405180910390a1505050565b6000546001600160a01b031633036103275760018054906103e89060006102be8385610418565b9091555050600154600080546001600160a01b031681526002602052604090208190558114610325576001546040805183815260208101929092527f511f5b61bdfae17b57b5c46b525583881874446ae299eb1fd8cece6e79c8fe2e910160405180910390a15b505b565b80356001600160a01b038116811461034057600080fd5b919050565b60006020828403121561035757600080fd5b61036082610329565b9392505050565b602080825282518282018190526000919060409081850190868401855b828110156103b257815180516001600160a01b03168552860151868501529284019290850190600101610384565b5091979650505050505050565b600080604083850312156103d257600080fd5b6103db83610329565b946020939093013593505050565b634e487b7160e01b600052601160045260246000fd5b81810381811115610412576104126103e9565b92915050565b80820180821115610412576104126103e956fea2646970667358221220cea07760d2d653100ec52b0bbc1a735789d32b738ef61152e104048cf158116c64736f6c63430008110033",
    "linkReferences": {}
  },
  "methodIdentifiers": {
    "balances(address)": "27e235e3",
    "getSupply()": "6c9c2faf",
    "getTransfers(address)": "6d91c9cb",
    "setSupply()": "b743ccbd",
    "transfer(address,uint256)": "a9059cbb"
  },
  "id": 16
}